{"contracts/Surpay.sol":{"Surpay":{"abi":[{"inputs":[{"internalType":"uint256","name":"_surveyCreationFee","type":"uint256"},{"internalType":"uint256","name":"_interval","type":"uint256"}],"stateMutability":"nonpayable","type":"constructor"},{"inputs":[],"name":"Surpay__MaximumRespondantsReached","type":"error"},{"inputs":[],"name":"Surpay__NotEnoughFunds","type":"error"},{"inputs":[],"name":"Surpay__NotOwner","type":"error"},{"inputs":[],"name":"Surpay__SurveyNotFound","type":"error"},{"inputs":[],"name":"Surpay__TransferFailed","type":"error"},{"anonymous":false,"inputs":[{"indexed":true,"internalType":"string","name":"surveyId","type":"string"}],"name":"SurveyCompleted","type":"event"},{"anonymous":false,"inputs":[{"indexed":true,"internalType":"string","name":"surveyId","type":"string"}],"name":"SurveyCreated","type":"event"},{"anonymous":false,"inputs":[{"indexed":true,"internalType":"string","name":"surveyId","type":"string"}],"name":"SurveyTakersPaid","type":"event"},{"anonymous":false,"inputs":[{"indexed":true,"internalType":"address","name":"surveyTaker","type":"address"}],"name":"UserAddedToSurvey","type":"event"},{"inputs":[{"internalType":"bytes","name":"","type":"bytes"}],"name":"checkUpkeep","outputs":[{"internalType":"bool","name":"upkeepNeeded","type":"bool"},{"internalType":"bytes","name":"","type":"bytes"}],"stateMutability":"nonpayable","type":"function"},{"inputs":[{"internalType":"string","name":"_surveyId","type":"string"},{"internalType":"string","name":"_companyId","type":"string"},{"internalType":"uint256","name":"_totalPayoutAmount","type":"uint256"},{"internalType":"uint256","name":"_numOfParticipantsDesired","type":"uint256"}],"name":"createSurvey","outputs":[],"stateMutability":"payable","type":"function"},{"inputs":[{"internalType":"string","name":"surveyId","type":"string"}],"name":"getCompanyId","outputs":[{"internalType":"string","name":"","type":"string"}],"stateMutability":"view","type":"function"},{"inputs":[],"name":"getInterval","outputs":[{"internalType":"uint256","name":"","type":"uint256"}],"stateMutability":"view","type":"function"},{"inputs":[{"internalType":"string","name":"surveyId","type":"string"}],"name":"getLastTimeStamp","outputs":[{"internalType":"uint256","name":"","type":"uint256"}],"stateMutability":"view","type":"function"},{"inputs":[],"name":"getOwner","outputs":[{"internalType":"address","name":"","type":"address"}],"stateMutability":"view","type":"function"},{"inputs":[{"internalType":"string","name":"surveyId","type":"string"}],"name":"getPayoutPerPersonBySurveyId","outputs":[{"internalType":"uint256","name":"","type":"uint256"}],"stateMutability":"view","type":"function"},{"inputs":[],"name":"getSurveyCreationFee","outputs":[{"internalType":"uint256","name":"","type":"uint256"}],"stateMutability":"view","type":"function"},{"inputs":[{"internalType":"string","name":"_surveyId","type":"string"}],"name":"getSurveyPayoutAmount","outputs":[{"internalType":"uint256","name":"","type":"uint256"}],"stateMutability":"view","type":"function"},{"inputs":[{"internalType":"string","name":"surveyId","type":"string"},{"internalType":"uint256","name":"responseIndex","type":"uint256"}],"name":"getSurveyResponseData","outputs":[{"internalType":"string","name":"","type":"string"}],"stateMutability":"view","type":"function"},{"inputs":[{"internalType":"string","name":"_surveyId","type":"string"}],"name":"getSurveyState","outputs":[{"internalType":"enum Surpay.SurveyState","name":"","type":"uint8"}],"stateMutability":"view","type":"function"},{"inputs":[{"internalType":"string","name":"surveyId","type":"string"},{"internalType":"uint256","name":"userIndex","type":"uint256"}],"name":"getSurveyTaker","outputs":[{"internalType":"address","name":"","type":"address"}],"stateMutability":"view","type":"function"},{"inputs":[{"internalType":"bytes","name":"","type":"bytes"}],"name":"performUpkeep","outputs":[],"stateMutability":"nonpayable","type":"function"},{"inputs":[],"name":"removeCompletedSurveys","outputs":[],"stateMutability":"nonpayable","type":"function"},{"inputs":[{"internalType":"string","name":"_surveyId","type":"string"},{"internalType":"string","name":"_surveyData","type":"string"},{"internalType":"address","name":"userAddress","type":"address"}],"name":"sendUserSurveyData","outputs":[],"stateMutability":"nonpayable","type":"function"}],"devdoc":{"kind":"dev","methods":{},"version":1},"evm":{"bytecode":{"linkReferences":{},"object":"60c06040523480156200001157600080fd5b50604051620024f7380380620024f78339818101604052810190620000379190620000cf565b336000806101000a81548173ffffffffffffffffffffffffffffffffffffffff021916908373ffffffffffffffffffffffffffffffffffffffff16021790555081608081815250508060a08181525050505062000116565b600080fd5b6000819050919050565b620000a98162000094565b8114620000b557600080fd5b50565b600081519050620000c9816200009e565b92915050565b60008060408385031215620000e957620000e86200008f565b5b6000620000f985828601620000b8565b92505060206200010c85828601620000b8565b9150509250929050565b60805160a0516123b4620001436000396000610b9c015260008181610c4d0152610f3501526123b46000f3fe6080604052600436106100e85760003560e01c806391ad27b41161008a578063bab26fd211610059578063bab26fd214610320578063e1744d721461034b578063e74b36df14610388578063eb9992c3146103c5576100e8565b806391ad27b41461025f5780639759ac361461028a578063ac9d6a2b146102c7578063b374ff29146102e3576100e8565b80634585e33b116100c65780634585e33b14610190578063653cba7d146101b95780636e04ff0d146101f6578063893d20e814610234576100e8565b806312998301146100ed57806324405aa91461012a57806324445aeb14610167575b600080fd5b3480156100f957600080fd5b50610114600480360381019061010f9190611916565b6103dc565b60405161012191906119b3565b60405180910390f35b34801561013657600080fd5b50610151600480360381019061014c9190611916565b6104a4565b60405161015e9190611a4d565b60405180910390f35b34801561017357600080fd5b5061018e60048036038101906101899190611a9b565b6105d5565b005b34801561019c57600080fd5b506101b760048036038101906101b29190611b86565b61093a565b005b3480156101c557600080fd5b506101e060048036038101906101db9190611bd3565b610abf565b6040516101ed9190611c2b565b60405180910390f35b34801561020257600080fd5b5061021d60048036038101906102189190611ce7565b610b4a565b60405161022b929190611da0565b60405180910390f35b34801561024057600080fd5b50610249610b6f565b60405161025691906119b3565b60405180910390f35b34801561026b57600080fd5b50610274610b98565b6040516102819190611c2b565b60405180910390f35b34801561029657600080fd5b506102b160048036038101906102ac9190611bd3565b610bc0565b6040516102be9190611c2b565b60405180910390f35b6102e160048036038101906102dc9190611dd0565b610c4b565b005b3480156102ef57600080fd5b5061030a60048036038101906103059190611bd3565b610e99565b6040516103179190611ee6565b60405180910390f35b34801561032c57600080fd5b50610335610f31565b6040516103429190611c2b565b60405180910390f35b34801561035757600080fd5b50610372600480360381019061036d9190611bd3565b610f59565b60405161037f9190611a4d565b60405180910390f35b34801561039457600080fd5b506103af60048036038101906103aa9190611bd3565b61100c565b6040516103bc9190611c2b565b60405180910390f35b3480156103d157600080fd5b506103da6110c3565b005b6000806001846040516103ef9190611f3d565b908152602001604051809103902060030154111561046c576001836040516104179190611f3d565b9081526020016040518091039020600601828154811061043a57610439611f54565b5b9060005260206000200160009054906101000a900473ffffffffffffffffffffffffffffffffffffffff16905061049e565b6040517fb01e933700000000000000000000000000000000000000000000000000000000815260040160405180910390fd5b92915050565b606060006001846040516104b89190611f3d565b908152602001604051809103902060030154111561059d576001836040516104e09190611f3d565b9081526020016040518091039020600501828154811061050357610502611f54565b5b90600052602060002001805461051890611fb2565b80601f016020809104026020016040519081016040528092919081815260200182805461054490611fb2565b80156105915780601f1061056657610100808354040283529160200191610591565b820191906000526020600020905b81548152906001019060200180831161057457829003601f168201915b505050505090506105cf565b6040517fb01e933700000000000000000000000000000000000000000000000000000000815260040160405180910390fd5b92915050565b60008054906101000a900473ffffffffffffffffffffffffffffffffffffffff1673ffffffffffffffffffffffffffffffffffffffff163373ffffffffffffffffffffffffffffffffffffffff161461065a576040517fba34867000000000000000000000000000000000000000000000000000000000815260040160405180910390fd5b60018360405161066a9190611f3d565b90815260200160405180910390206004015460018460405161068c9190611f3d565b9081526020016040518091039020600301541115610903576001836040516106b49190611f3d565b9081526020016040518091039020600501829080600181540180825580915050600190039060005260206000200160009091909190915090816106f7919061218f565b506001836040516107089190611f3d565b9081526020016040518091039020600601819080600181540180825580915050600190039060005260206000200160009091909190916101000a81548173ffffffffffffffffffffffffffffffffffffffff021916908373ffffffffffffffffffffffffffffffffffffffff16021790555060018360405161078a9190611f3d565b908152602001604051809103902060040160008154809291906107ac90612290565b91905055506001836040516107c19190611f3d565b9081526020016040518091039020600401546001846040516107e39190611f3d565b908152602001604051809103902060030154036108bb576001808460405161080b9190611f3d565b908152602001604051809103902060080160006101000a81548160ff0219169083600181111561083e5761083d611e6f565b5b0217905550600283908060018154018082558091505060019003906000526020600020016000909190919091509081610877919061218f565b50826040516108869190611f3d565b60405180910390207fc9629617ac320e57fa622f79c211617de659a3b7cbdda927e47dea5e4c0ab4da60405160405180910390a25b8073ffffffffffffffffffffffffffffffffffffffff167f099cc064944e6569611b439843932fa853d46618d78ca5a8e3989bcc5614853d60405160405180910390a2610935565b6040517f13c8108e00000000000000000000000000000000000000000000000000000000815260040160405180910390fd5b505050565b600061095460405180602001604052806000815250610b4a565b5090508015610aba5760006002805480602002602001604051908101604052809291908181526020016000905b82821015610a2d5783829060005260206000200180546109a090611fb2565b80601f01602080910402602001604051908101604052809291908181526020018280546109cc90611fb2565b8015610a195780601f106109ee57610100808354040283529160200191610a19565b820191906000526020600020905b8154815290600101906020018083116109fc57829003601f168201915b505050505081526020019060010190610981565b50505050905060005b8151811015610ab757610a4881611282565b818181518110610a5b57610a5a611f54565b5b6020026020010151604051610a709190611f3d565b60405180910390207fa7998895d8d2e7856091bd8a5895a54d831c4d6c8bd8a8611ec2c1f873872fef60405160405180910390a28080610aaf90612290565b915050610a36565b50505b505050565b600080600183604051610ad29190611f3d565b9081526020016040518091039020600301541115610b1357600182604051610afa9190611f3d565b9081526020016040518091039020600701549050610b45565b6040517fb01e933700000000000000000000000000000000000000000000000000000000815260040160405180910390fd5b919050565b6000606060006002805490501115610b655760019150610b6a565b600091505b915091565b60008060009054906101000a900473ffffffffffffffffffffffffffffffffffffffff16905090565b60007f0000000000000000000000000000000000000000000000000000000000000000905090565b600080600183604051610bd39190611f3d565b9081526020016040518091039020600301541115610c1457600182604051610bfb9190611f3d565b9081526020016040518091039020600201549050610c46565b6040517fb01e933700000000000000000000000000000000000000000000000000000000815260040160405180910390fd5b919050565b7f0000000000000000000000000000000000000000000000000000000000000000341015610ca5576040517fc09bb52500000000000000000000000000000000000000000000000000000000815260040160405180910390fd5b610cad61156c565b83816000018190525033816020019073ffffffffffffffffffffffffffffffffffffffff16908173ffffffffffffffffffffffffffffffffffffffff16815250508281604001818152505081816060018181525050428160e001818152505060008161010001906001811115610d2657610d25611e6f565b5b90816001811115610d3a57610d39611e6f565b5b8152505080600186604051610d4f9190611f3d565b90815260200160405180910390206000820151816000019081610d72919061218f565b5060208201518160010160006101000a81548173ffffffffffffffffffffffffffffffffffffffff021916908373ffffffffffffffffffffffffffffffffffffffff16021790555060408201518160020155606082015181600301556080820151816004015560a0820151816005019080519060200190610df49291906115e0565b5060c0820151816006019080519060200190610e11929190611639565b5060e082015181600701556101008201518160080160006101000a81548160ff02191690836001811115610e4857610e47611e6f565b5b021790555090505084604051610e5e9190611f3d565b60405180910390207fcc65c6fb1d804ba1dc418f9e3659483d310357279f035d45b8ea484fd6fe4a2f60405160405180910390a25050505050565b600080600183604051610eac9190611f3d565b9081526020016040518091039020600301541115610efa57600182604051610ed49190611f3d565b908152602001604051809103902060080160009054906101000a900460ff169050610f2c565b6040517fb01e933700000000000000000000000000000000000000000000000000000000815260040160405180910390fd5b919050565b60007f0000000000000000000000000000000000000000000000000000000000000000905090565b6060600182604051610f6b9190611f3d565b90815260200160405180910390206000018054610f8790611fb2565b80601f0160208091040260200160405190810160405280929190818152602001828054610fb390611fb2565b80156110005780601f10610fd557610100808354040283529160200191611000565b820191906000526020600020905b815481529060010190602001808311610fe357829003601f168201915b50505050509050919050565b60008060018360405161101f9190611f3d565b908152602001604051809103902060030154111561108c576001826040516110479190611f3d565b9081526020016040518091039020600301546001836040516110699190611f3d565b9081526020016040518091039020600201546110859190612307565b90506110be565b6040517fb01e933700000000000000000000000000000000000000000000000000000000815260040160405180910390fd5b919050565b60006002805480602002602001604051908101604052809291908181526020016000905b8282101561119357838290600052602060002001805461110690611fb2565b80601f016020809104026020016040519081016040528092919081815260200182805461113290611fb2565b801561117f5780601f106111545761010080835404028352916020019161117f565b820191906000526020600020905b81548152906001019060200180831161116257829003601f168201915b5050505050815260200190600101906110e7565b50505050905060005b815181101561127e5760018282815181106111ba576111b9611f54565b5b60200260200101516040516111cf9190611f3d565b9081526020016040518091039020600080820160006111ee91906116c3565b6001820160006101000a81549073ffffffffffffffffffffffffffffffffffffffff021916905560028201600090556003820160009055600482016000905560058201600061123d9190611703565b60068201600061124d9190611724565b60078201600090556008820160006101000a81549060ff02191690555050808061127690612290565b91505061119c565b5050565b60006002805480602002602001604051908101604052809291908181526020016000905b828210156113525783829060005260206000200180546112c590611fb2565b80601f01602080910402602001604051908101604052809291908181526020018280546112f190611fb2565b801561133e5780601f106113135761010080835404028352916020019161133e565b820191906000526020600020905b81548152906001019060200180831161132157829003601f168201915b5050505050815260200190600101906112a6565b5050505090506000600182848151811061136f5761136e611f54565b5b60200260200101516040516113849190611f3d565b90815260200160405180910390206004015460018385815181106113ab576113aa611f54565b5b60200260200101516040516113c09190611f3d565b9081526020016040518091039020600201546113dc9190612307565b905060005b60018385815181106113f6576113f5611f54565b5b602002602001015160405161140b9190611f3d565b90815260200160405180910390206006018054905081101561155e574782101561154b576000600184868151811061144657611445611f54565b5b602002602001015160405161145b9190611f3d565b9081526020016040518091039020600601828154811061147e5761147d611f54565b5b9060005260206000200160009054906101000a900473ffffffffffffffffffffffffffffffffffffffff1673ffffffffffffffffffffffffffffffffffffffff16836040516114cc90612369565b60006040518083038185875af1925050503d8060008114611509576040519150601f19603f3d011682016040523d82523d6000602084013e61150e565b606091505b5050905080611549576040517f09e6a19a00000000000000000000000000000000000000000000000000000000815260040160405180910390fd5b505b808061155690612290565b9150506113e1565b506115676110c3565b505050565b60405180610120016040528060608152602001600073ffffffffffffffffffffffffffffffffffffffff168152602001600081526020016000815260200160008152602001606081526020016060815260200160008152602001600060018111156115da576115d9611e6f565b5b81525090565b828054828255906000526020600020908101928215611628579160200282015b82811115611627578251829081611617919061218f565b5091602001919060010190611600565b5b5090506116359190611745565b5090565b8280548282559060005260206000209081019282156116b2579160200282015b828111156116b15782518260006101000a81548173ffffffffffffffffffffffffffffffffffffffff021916908373ffffffffffffffffffffffffffffffffffffffff16021790555091602001919060010190611659565b5b5090506116bf9190611769565b5090565b5080546116cf90611fb2565b6000825580601f106116e15750611700565b601f0160209004906000526020600020908101906116ff9190611769565b5b50565b50805460008255906000526020600020908101906117219190611745565b50565b50805460008255906000526020600020908101906117429190611769565b50565b5b80821115611765576000818161175c91906116c3565b50600101611746565b5090565b5b8082111561178257600081600090555060010161176a565b5090565b6000604051905090565b600080fd5b600080fd5b600080fd5b600080fd5b6000601f19601f8301169050919050565b7f4e487b7100000000000000000000000000000000000000000000000000000000600052604160045260246000fd5b6117ed826117a4565b810181811067ffffffffffffffff8211171561180c5761180b6117b5565b5b80604052505050565b600061181f611786565b905061182b82826117e4565b919050565b600067ffffffffffffffff82111561184b5761184a6117b5565b5b611854826117a4565b9050602081019050919050565b82818337600083830152505050565b600061188361187e84611830565b611815565b90508281526020810184848401111561189f5761189e61179f565b5b6118aa848285611861565b509392505050565b600082601f8301126118c7576118c661179a565b5b81356118d7848260208601611870565b91505092915050565b6000819050919050565b6118f3816118e0565b81146118fe57600080fd5b50565b600081359050611910816118ea565b92915050565b6000806040838503121561192d5761192c611790565b5b600083013567ffffffffffffffff81111561194b5761194a611795565b5b611957858286016118b2565b925050602061196885828601611901565b9150509250929050565b600073ffffffffffffffffffffffffffffffffffffffff82169050919050565b600061199d82611972565b9050919050565b6119ad81611992565b82525050565b60006020820190506119c860008301846119a4565b92915050565b600081519050919050565b600082825260208201905092915050565b60005b83811015611a085780820151818401526020810190506119ed565b60008484015250505050565b6000611a1f826119ce565b611a2981856119d9565b9350611a398185602086016119ea565b611a42816117a4565b840191505092915050565b60006020820190508181036000830152611a678184611a14565b905092915050565b611a7881611992565b8114611a8357600080fd5b50565b600081359050611a9581611a6f565b92915050565b600080600060608486031215611ab457611ab3611790565b5b600084013567ffffffffffffffff811115611ad257611ad1611795565b5b611ade868287016118b2565b935050602084013567ffffffffffffffff811115611aff57611afe611795565b5b611b0b868287016118b2565b9250506040611b1c86828701611a86565b9150509250925092565b600080fd5b600080fd5b60008083601f840112611b4657611b4561179a565b5b8235905067ffffffffffffffff811115611b6357611b62611b26565b5b602083019150836001820283011115611b7f57611b7e611b2b565b5b9250929050565b60008060208385031215611b9d57611b9c611790565b5b600083013567ffffffffffffffff811115611bbb57611bba611795565b5b611bc785828601611b30565b92509250509250929050565b600060208284031215611be957611be8611790565b5b600082013567ffffffffffffffff811115611c0757611c06611795565b5b611c13848285016118b2565b91505092915050565b611c25816118e0565b82525050565b6000602082019050611c406000830184611c1c565b92915050565b600067ffffffffffffffff821115611c6157611c606117b5565b5b611c6a826117a4565b9050602081019050919050565b6000611c8a611c8584611c46565b611815565b905082815260208101848484011115611ca657611ca561179f565b5b611cb1848285611861565b509392505050565b600082601f830112611cce57611ccd61179a565b5b8135611cde848260208601611c77565b91505092915050565b600060208284031215611cfd57611cfc611790565b5b600082013567ffffffffffffffff811115611d1b57611d1a611795565b5b611d2784828501611cb9565b91505092915050565b60008115159050919050565b611d4581611d30565b82525050565b600081519050919050565b600082825260208201905092915050565b6000611d7282611d4b565b611d7c8185611d56565b9350611d8c8185602086016119ea565b611d95816117a4565b840191505092915050565b6000604082019050611db56000830185611d3c565b8181036020830152611dc78184611d67565b90509392505050565b60008060008060808587031215611dea57611de9611790565b5b600085013567ffffffffffffffff811115611e0857611e07611795565b5b611e14878288016118b2565b945050602085013567ffffffffffffffff811115611e3557611e34611795565b5b611e41878288016118b2565b9350506040611e5287828801611901565b9250506060611e6387828801611901565b91505092959194509250565b7f4e487b7100000000000000000000000000000000000000000000000000000000600052602160045260246000fd5b60028110611eaf57611eae611e6f565b5b50565b6000819050611ec082611e9e565b919050565b6000611ed082611eb2565b9050919050565b611ee081611ec5565b82525050565b6000602082019050611efb6000830184611ed7565b92915050565b600081905092915050565b6000611f17826119ce565b611f218185611f01565b9350611f318185602086016119ea565b80840191505092915050565b6000611f498284611f0c565b915081905092915050565b7f4e487b7100000000000000000000000000000000000000000000000000000000600052603260045260246000fd5b7f4e487b7100000000000000000000000000000000000000000000000000000000600052602260045260246000fd5b60006002820490506001821680611fca57607f821691505b602082108103611fdd57611fdc611f83565b5b50919050565b60008190508160005260206000209050919050565b60006020601f8301049050919050565b600082821b905092915050565b6000600883026120457fffffffffffffffffffffffffffffffffffffffffffffffffffffffffffffffff82612008565b61204f8683612008565b95508019841693508086168417925050509392505050565b6000819050919050565b600061208c612087612082846118e0565b612067565b6118e0565b9050919050565b6000819050919050565b6120a683612071565b6120ba6120b282612093565b848454612015565b825550505050565b600090565b6120cf6120c2565b6120da81848461209d565b505050565b5b818110156120fe576120f36000826120c7565b6001810190506120e0565b5050565b601f8211156121435761211481611fe3565b61211d84611ff8565b8101602085101561212c578190505b61214061213885611ff8565b8301826120df565b50505b505050565b600082821c905092915050565b600061216660001984600802612148565b1980831691505092915050565b600061217f8383612155565b9150826002028217905092915050565b612198826119ce565b67ffffffffffffffff8111156121b1576121b06117b5565b5b6121bb8254611fb2565b6121c6828285612102565b600060209050601f8311600181146121f957600084156121e7578287015190505b6121f18582612173565b865550612259565b601f19841661220786611fe3565b60005b8281101561222f5784890151825560018201915060208501945060208101905061220a565b8683101561224c5784890151612248601f891682612155565b8355505b6001600288020188555050505b505050505050565b7f4e487b7100000000000000000000000000000000000000000000000000000000600052601160045260246000fd5b600061229b826118e0565b91507fffffffffffffffffffffffffffffffffffffffffffffffffffffffffffffffff82036122cd576122cc612261565b5b600182019050919050565b7f4e487b7100000000000000000000000000000000000000000000000000000000600052601260045260246000fd5b6000612312826118e0565b915061231d836118e0565b92508261232d5761232c6122d8565b5b828204905092915050565b600081905092915050565b50565b6000612353600083612338565b915061235e82612343565b600082019050919050565b600061237482612346565b915081905091905056fea2646970667358221220dfb4dd3578a754808d1997486141f783153cfa883564e54ae56fc54dde931d1264736f6c63430008110033","opcodes":"PUSH1 0xC0 PUSH1 0x40 MSTORE CALLVALUE DUP1 ISZERO PUSH3 0x11 JUMPI PUSH1 0x0 DUP1 REVERT JUMPDEST POP PUSH1 0x40 MLOAD PUSH3 0x24F7 CODESIZE SUB DUP1 PUSH3 0x24F7 DUP4 CODECOPY DUP2 DUP2 ADD PUSH1 0x40 MSTORE DUP2 ADD SWAP1 PUSH3 0x37 SWAP2 SWAP1 PUSH3 0xCF JUMP JUMPDEST CALLER PUSH1 0x0 DUP1 PUSH2 0x100 EXP DUP2 SLOAD DUP2 PUSH20 0xFFFFFFFFFFFFFFFFFFFFFFFFFFFFFFFFFFFFFFFF MUL NOT AND SWAP1 DUP4 PUSH20 0xFFFFFFFFFFFFFFFFFFFFFFFFFFFFFFFFFFFFFFFF AND MUL OR SWAP1 SSTORE POP DUP2 PUSH1 0x80 DUP2 DUP2 MSTORE POP POP DUP1 PUSH1 0xA0 DUP2 DUP2 MSTORE POP POP POP POP PUSH3 0x116 JUMP JUMPDEST PUSH1 0x0 DUP1 REVERT JUMPDEST PUSH1 0x0 DUP2 SWAP1 POP SWAP2 SWAP1 POP JUMP JUMPDEST PUSH3 0xA9 DUP2 PUSH3 0x94 JUMP JUMPDEST DUP2 EQ PUSH3 0xB5 JUMPI PUSH1 0x0 DUP1 REVERT JUMPDEST POP JUMP JUMPDEST PUSH1 0x0 DUP2 MLOAD SWAP1 POP PUSH3 0xC9 DUP2 PUSH3 0x9E JUMP JUMPDEST SWAP3 SWAP2 POP POP JUMP JUMPDEST PUSH1 0x0 DUP1 PUSH1 0x40 DUP4 DUP6 SUB SLT ISZERO PUSH3 0xE9 JUMPI PUSH3 0xE8 PUSH3 0x8F JUMP JUMPDEST JUMPDEST PUSH1 0x0 PUSH3 0xF9 DUP6 DUP3 DUP7 ADD PUSH3 0xB8 JUMP JUMPDEST SWAP3 POP POP PUSH1 0x20 PUSH3 0x10C DUP6 DUP3 DUP7 ADD PUSH3 0xB8 JUMP JUMPDEST SWAP2 POP POP SWAP3 POP SWAP3 SWAP1 POP JUMP JUMPDEST PUSH1 0x80 MLOAD PUSH1 0xA0 MLOAD PUSH2 0x23B4 PUSH3 0x143 PUSH1 0x0 CODECOPY PUSH1 0x0 PUSH2 0xB9C ADD MSTORE PUSH1 0x0 DUP2 DUP2 PUSH2 0xC4D ADD MSTORE PUSH2 0xF35 ADD MSTORE PUSH2 0x23B4 PUSH1 0x0 RETURN INVALID PUSH1 0x80 PUSH1 0x40 MSTORE PUSH1 0x4 CALLDATASIZE LT PUSH2 0xE8 JUMPI PUSH1 0x0 CALLDATALOAD PUSH1 0xE0 SHR DUP1 PUSH4 0x91AD27B4 GT PUSH2 0x8A JUMPI DUP1 PUSH4 0xBAB26FD2 GT PUSH2 0x59 JUMPI DUP1 PUSH4 0xBAB26FD2 EQ PUSH2 0x320 JUMPI DUP1 PUSH4 0xE1744D72 EQ PUSH2 0x34B JUMPI DUP1 PUSH4 0xE74B36DF EQ PUSH2 0x388 JUMPI DUP1 PUSH4 0xEB9992C3 EQ PUSH2 0x3C5 JUMPI PUSH2 0xE8 JUMP JUMPDEST DUP1 PUSH4 0x91AD27B4 EQ PUSH2 0x25F JUMPI DUP1 PUSH4 0x9759AC36 EQ PUSH2 0x28A JUMPI DUP1 PUSH4 0xAC9D6A2B EQ PUSH2 0x2C7 JUMPI DUP1 PUSH4 0xB374FF29 EQ PUSH2 0x2E3 JUMPI PUSH2 0xE8 JUMP JUMPDEST DUP1 PUSH4 0x4585E33B GT PUSH2 0xC6 JUMPI DUP1 PUSH4 0x4585E33B EQ PUSH2 0x190 JUMPI DUP1 PUSH4 0x653CBA7D EQ PUSH2 0x1B9 JUMPI DUP1 PUSH4 0x6E04FF0D EQ PUSH2 0x1F6 JUMPI DUP1 PUSH4 0x893D20E8 EQ PUSH2 0x234 JUMPI PUSH2 0xE8 JUMP JUMPDEST DUP1 PUSH4 0x12998301 EQ PUSH2 0xED JUMPI DUP1 PUSH4 0x24405AA9 EQ PUSH2 0x12A JUMPI DUP1 PUSH4 0x24445AEB EQ PUSH2 0x167 JUMPI JUMPDEST PUSH1 0x0 DUP1 REVERT JUMPDEST CALLVALUE DUP1 ISZERO PUSH2 0xF9 JUMPI PUSH1 0x0 DUP1 REVERT JUMPDEST POP PUSH2 0x114 PUSH1 0x4 DUP1 CALLDATASIZE SUB DUP2 ADD SWAP1 PUSH2 0x10F SWAP2 SWAP1 PUSH2 0x1916 JUMP JUMPDEST PUSH2 0x3DC JUMP JUMPDEST PUSH1 0x40 MLOAD PUSH2 0x121 SWAP2 SWAP1 PUSH2 0x19B3 JUMP JUMPDEST PUSH1 0x40 MLOAD DUP1 SWAP2 SUB SWAP1 RETURN JUMPDEST CALLVALUE DUP1 ISZERO PUSH2 0x136 JUMPI PUSH1 0x0 DUP1 REVERT JUMPDEST POP PUSH2 0x151 PUSH1 0x4 DUP1 CALLDATASIZE SUB DUP2 ADD SWAP1 PUSH2 0x14C SWAP2 SWAP1 PUSH2 0x1916 JUMP JUMPDEST PUSH2 0x4A4 JUMP JUMPDEST PUSH1 0x40 MLOAD PUSH2 0x15E SWAP2 SWAP1 PUSH2 0x1A4D JUMP JUMPDEST PUSH1 0x40 MLOAD DUP1 SWAP2 SUB SWAP1 RETURN JUMPDEST CALLVALUE DUP1 ISZERO PUSH2 0x173 JUMPI PUSH1 0x0 DUP1 REVERT JUMPDEST POP PUSH2 0x18E PUSH1 0x4 DUP1 CALLDATASIZE SUB DUP2 ADD SWAP1 PUSH2 0x189 SWAP2 SWAP1 PUSH2 0x1A9B JUMP JUMPDEST PUSH2 0x5D5 JUMP JUMPDEST STOP JUMPDEST CALLVALUE DUP1 ISZERO PUSH2 0x19C JUMPI PUSH1 0x0 DUP1 REVERT JUMPDEST POP PUSH2 0x1B7 PUSH1 0x4 DUP1 CALLDATASIZE SUB DUP2 ADD SWAP1 PUSH2 0x1B2 SWAP2 SWAP1 PUSH2 0x1B86 JUMP JUMPDEST PUSH2 0x93A JUMP JUMPDEST STOP JUMPDEST CALLVALUE DUP1 ISZERO PUSH2 0x1C5 JUMPI PUSH1 0x0 DUP1 REVERT JUMPDEST POP PUSH2 0x1E0 PUSH1 0x4 DUP1 CALLDATASIZE SUB DUP2 ADD SWAP1 PUSH2 0x1DB SWAP2 SWAP1 PUSH2 0x1BD3 JUMP JUMPDEST PUSH2 0xABF JUMP JUMPDEST PUSH1 0x40 MLOAD PUSH2 0x1ED SWAP2 SWAP1 PUSH2 0x1C2B JUMP JUMPDEST PUSH1 0x40 MLOAD DUP1 SWAP2 SUB SWAP1 RETURN JUMPDEST CALLVALUE DUP1 ISZERO PUSH2 0x202 JUMPI PUSH1 0x0 DUP1 REVERT JUMPDEST POP PUSH2 0x21D PUSH1 0x4 DUP1 CALLDATASIZE SUB DUP2 ADD SWAP1 PUSH2 0x218 SWAP2 SWAP1 PUSH2 0x1CE7 JUMP JUMPDEST PUSH2 0xB4A JUMP JUMPDEST PUSH1 0x40 MLOAD PUSH2 0x22B SWAP3 SWAP2 SWAP1 PUSH2 0x1DA0 JUMP JUMPDEST PUSH1 0x40 MLOAD DUP1 SWAP2 SUB SWAP1 RETURN JUMPDEST CALLVALUE DUP1 ISZERO PUSH2 0x240 JUMPI PUSH1 0x0 DUP1 REVERT JUMPDEST POP PUSH2 0x249 PUSH2 0xB6F JUMP JUMPDEST PUSH1 0x40 MLOAD PUSH2 0x256 SWAP2 SWAP1 PUSH2 0x19B3 JUMP JUMPDEST PUSH1 0x40 MLOAD DUP1 SWAP2 SUB SWAP1 RETURN JUMPDEST CALLVALUE DUP1 ISZERO PUSH2 0x26B JUMPI PUSH1 0x0 DUP1 REVERT JUMPDEST POP PUSH2 0x274 PUSH2 0xB98 JUMP JUMPDEST PUSH1 0x40 MLOAD PUSH2 0x281 SWAP2 SWAP1 PUSH2 0x1C2B JUMP JUMPDEST PUSH1 0x40 MLOAD DUP1 SWAP2 SUB SWAP1 RETURN JUMPDEST CALLVALUE DUP1 ISZERO PUSH2 0x296 JUMPI PUSH1 0x0 DUP1 REVERT JUMPDEST POP PUSH2 0x2B1 PUSH1 0x4 DUP1 CALLDATASIZE SUB DUP2 ADD SWAP1 PUSH2 0x2AC SWAP2 SWAP1 PUSH2 0x1BD3 JUMP JUMPDEST PUSH2 0xBC0 JUMP JUMPDEST PUSH1 0x40 MLOAD PUSH2 0x2BE SWAP2 SWAP1 PUSH2 0x1C2B JUMP JUMPDEST PUSH1 0x40 MLOAD DUP1 SWAP2 SUB SWAP1 RETURN JUMPDEST PUSH2 0x2E1 PUSH1 0x4 DUP1 CALLDATASIZE SUB DUP2 ADD SWAP1 PUSH2 0x2DC SWAP2 SWAP1 PUSH2 0x1DD0 JUMP JUMPDEST PUSH2 0xC4B JUMP JUMPDEST STOP JUMPDEST CALLVALUE DUP1 ISZERO PUSH2 0x2EF JUMPI PUSH1 0x0 DUP1 REVERT JUMPDEST POP PUSH2 0x30A PUSH1 0x4 DUP1 CALLDATASIZE SUB DUP2 ADD SWAP1 PUSH2 0x305 SWAP2 SWAP1 PUSH2 0x1BD3 JUMP JUMPDEST PUSH2 0xE99 JUMP JUMPDEST PUSH1 0x40 MLOAD PUSH2 0x317 SWAP2 SWAP1 PUSH2 0x1EE6 JUMP JUMPDEST PUSH1 0x40 MLOAD DUP1 SWAP2 SUB SWAP1 RETURN JUMPDEST CALLVALUE DUP1 ISZERO PUSH2 0x32C JUMPI PUSH1 0x0 DUP1 REVERT JUMPDEST POP PUSH2 0x335 PUSH2 0xF31 JUMP JUMPDEST PUSH1 0x40 MLOAD PUSH2 0x342 SWAP2 SWAP1 PUSH2 0x1C2B JUMP JUMPDEST PUSH1 0x40 MLOAD DUP1 SWAP2 SUB SWAP1 RETURN JUMPDEST CALLVALUE DUP1 ISZERO PUSH2 0x357 JUMPI PUSH1 0x0 DUP1 REVERT JUMPDEST POP PUSH2 0x372 PUSH1 0x4 DUP1 CALLDATASIZE SUB DUP2 ADD SWAP1 PUSH2 0x36D SWAP2 SWAP1 PUSH2 0x1BD3 JUMP JUMPDEST PUSH2 0xF59 JUMP JUMPDEST PUSH1 0x40 MLOAD PUSH2 0x37F SWAP2 SWAP1 PUSH2 0x1A4D JUMP JUMPDEST PUSH1 0x40 MLOAD DUP1 SWAP2 SUB SWAP1 RETURN JUMPDEST CALLVALUE DUP1 ISZERO PUSH2 0x394 JUMPI PUSH1 0x0 DUP1 REVERT JUMPDEST POP PUSH2 0x3AF PUSH1 0x4 DUP1 CALLDATASIZE SUB DUP2 ADD SWAP1 PUSH2 0x3AA SWAP2 SWAP1 PUSH2 0x1BD3 JUMP JUMPDEST PUSH2 0x100C JUMP JUMPDEST PUSH1 0x40 MLOAD PUSH2 0x3BC SWAP2 SWAP1 PUSH2 0x1C2B JUMP JUMPDEST PUSH1 0x40 MLOAD DUP1 SWAP2 SUB SWAP1 RETURN JUMPDEST CALLVALUE DUP1 ISZERO PUSH2 0x3D1 JUMPI PUSH1 0x0 DUP1 REVERT JUMPDEST POP PUSH2 0x3DA PUSH2 0x10C3 JUMP JUMPDEST STOP JUMPDEST PUSH1 0x0 DUP1 PUSH1 0x1 DUP5 PUSH1 0x40 MLOAD PUSH2 0x3EF SWAP2 SWAP1 PUSH2 0x1F3D JUMP JUMPDEST SWAP1 DUP2 MSTORE PUSH1 0x20 ADD PUSH1 0x40 MLOAD DUP1 SWAP2 SUB SWAP1 KECCAK256 PUSH1 0x3 ADD SLOAD GT ISZERO PUSH2 0x46C JUMPI PUSH1 0x1 DUP4 PUSH1 0x40 MLOAD PUSH2 0x417 SWAP2 SWAP1 PUSH2 0x1F3D JUMP JUMPDEST SWAP1 DUP2 MSTORE PUSH1 0x20 ADD PUSH1 0x40 MLOAD DUP1 SWAP2 SUB SWAP1 KECCAK256 PUSH1 0x6 ADD DUP3 DUP2 SLOAD DUP2 LT PUSH2 0x43A JUMPI PUSH2 0x439 PUSH2 0x1F54 JUMP JUMPDEST JUMPDEST SWAP1 PUSH1 0x0 MSTORE PUSH1 0x20 PUSH1 0x0 KECCAK256 ADD PUSH1 0x0 SWAP1 SLOAD SWAP1 PUSH2 0x100 EXP SWAP1 DIV PUSH20 0xFFFFFFFFFFFFFFFFFFFFFFFFFFFFFFFFFFFFFFFF AND SWAP1 POP PUSH2 0x49E JUMP JUMPDEST PUSH1 0x40 MLOAD PUSH32 0xB01E933700000000000000000000000000000000000000000000000000000000 DUP2 MSTORE PUSH1 0x4 ADD PUSH1 0x40 MLOAD DUP1 SWAP2 SUB SWAP1 REVERT JUMPDEST SWAP3 SWAP2 POP POP JUMP JUMPDEST PUSH1 0x60 PUSH1 0x0 PUSH1 0x1 DUP5 PUSH1 0x40 MLOAD PUSH2 0x4B8 SWAP2 SWAP1 PUSH2 0x1F3D JUMP JUMPDEST SWAP1 DUP2 MSTORE PUSH1 0x20 ADD PUSH1 0x40 MLOAD DUP1 SWAP2 SUB SWAP1 KECCAK256 PUSH1 0x3 ADD SLOAD GT ISZERO PUSH2 0x59D JUMPI PUSH1 0x1 DUP4 PUSH1 0x40 MLOAD PUSH2 0x4E0 SWAP2 SWAP1 PUSH2 0x1F3D JUMP JUMPDEST SWAP1 DUP2 MSTORE PUSH1 0x20 ADD PUSH1 0x40 MLOAD DUP1 SWAP2 SUB SWAP1 KECCAK256 PUSH1 0x5 ADD DUP3 DUP2 SLOAD DUP2 LT PUSH2 0x503 JUMPI PUSH2 0x502 PUSH2 0x1F54 JUMP JUMPDEST JUMPDEST SWAP1 PUSH1 0x0 MSTORE PUSH1 0x20 PUSH1 0x0 KECCAK256 ADD DUP1 SLOAD PUSH2 0x518 SWAP1 PUSH2 0x1FB2 JUMP JUMPDEST DUP1 PUSH1 0x1F ADD PUSH1 0x20 DUP1 SWAP2 DIV MUL PUSH1 0x20 ADD PUSH1 0x40 MLOAD SWAP1 DUP2 ADD PUSH1 0x40 MSTORE DUP1 SWAP3 SWAP2 SWAP1 DUP2 DUP2 MSTORE PUSH1 0x20 ADD DUP3 DUP1 SLOAD PUSH2 0x544 SWAP1 PUSH2 0x1FB2 JUMP JUMPDEST DUP1 ISZERO PUSH2 0x591 JUMPI DUP1 PUSH1 0x1F LT PUSH2 0x566 JUMPI PUSH2 0x100 DUP1 DUP4 SLOAD DIV MUL DUP4 MSTORE SWAP2 PUSH1 0x20 ADD SWAP2 PUSH2 0x591 JUMP JUMPDEST DUP3 ADD SWAP2 SWAP1 PUSH1 0x0 MSTORE PUSH1 0x20 PUSH1 0x0 KECCAK256 SWAP1 JUMPDEST DUP2 SLOAD DUP2 MSTORE SWAP1 PUSH1 0x1 ADD SWAP1 PUSH1 0x20 ADD DUP1 DUP4 GT PUSH2 0x574 JUMPI DUP3 SWAP1 SUB PUSH1 0x1F AND DUP3 ADD SWAP2 JUMPDEST POP POP POP POP POP SWAP1 POP PUSH2 0x5CF JUMP JUMPDEST PUSH1 0x40 MLOAD PUSH32 0xB01E933700000000000000000000000000000000000000000000000000000000 DUP2 MSTORE PUSH1 0x4 ADD PUSH1 0x40 MLOAD DUP1 SWAP2 SUB SWAP1 REVERT JUMPDEST SWAP3 SWAP2 POP POP JUMP JUMPDEST PUSH1 0x0 DUP1 SLOAD SWAP1 PUSH2 0x100 EXP SWAP1 DIV PUSH20 0xFFFFFFFFFFFFFFFFFFFFFFFFFFFFFFFFFFFFFFFF AND PUSH20 0xFFFFFFFFFFFFFFFFFFFFFFFFFFFFFFFFFFFFFFFF AND CALLER PUSH20 0xFFFFFFFFFFFFFFFFFFFFFFFFFFFFFFFFFFFFFFFF AND EQ PUSH2 0x65A JUMPI PUSH1 0x40 MLOAD PUSH32 0xBA34867000000000000000000000000000000000000000000000000000000000 DUP2 MSTORE PUSH1 0x4 ADD PUSH1 0x40 MLOAD DUP1 SWAP2 SUB SWAP1 REVERT JUMPDEST PUSH1 0x1 DUP4 PUSH1 0x40 MLOAD PUSH2 0x66A SWAP2 SWAP1 PUSH2 0x1F3D JUMP JUMPDEST SWAP1 DUP2 MSTORE PUSH1 0x20 ADD PUSH1 0x40 MLOAD DUP1 SWAP2 SUB SWAP1 KECCAK256 PUSH1 0x4 ADD SLOAD PUSH1 0x1 DUP5 PUSH1 0x40 MLOAD PUSH2 0x68C SWAP2 SWAP1 PUSH2 0x1F3D JUMP JUMPDEST SWAP1 DUP2 MSTORE PUSH1 0x20 ADD PUSH1 0x40 MLOAD DUP1 SWAP2 SUB SWAP1 KECCAK256 PUSH1 0x3 ADD SLOAD GT ISZERO PUSH2 0x903 JUMPI PUSH1 0x1 DUP4 PUSH1 0x40 MLOAD PUSH2 0x6B4 SWAP2 SWAP1 PUSH2 0x1F3D JUMP JUMPDEST SWAP1 DUP2 MSTORE PUSH1 0x20 ADD PUSH1 0x40 MLOAD DUP1 SWAP2 SUB SWAP1 KECCAK256 PUSH1 0x5 ADD DUP3 SWAP1 DUP1 PUSH1 0x1 DUP2 SLOAD ADD DUP1 DUP3 SSTORE DUP1 SWAP2 POP POP PUSH1 0x1 SWAP1 SUB SWAP1 PUSH1 0x0 MSTORE PUSH1 0x20 PUSH1 0x0 KECCAK256 ADD PUSH1 0x0 SWAP1 SWAP2 SWAP1 SWAP2 SWAP1 SWAP2 POP SWAP1 DUP2 PUSH2 0x6F7 SWAP2 SWAP1 PUSH2 0x218F JUMP JUMPDEST POP PUSH1 0x1 DUP4 PUSH1 0x40 MLOAD PUSH2 0x708 SWAP2 SWAP1 PUSH2 0x1F3D JUMP JUMPDEST SWAP1 DUP2 MSTORE PUSH1 0x20 ADD PUSH1 0x40 MLOAD DUP1 SWAP2 SUB SWAP1 KECCAK256 PUSH1 0x6 ADD DUP2 SWAP1 DUP1 PUSH1 0x1 DUP2 SLOAD ADD DUP1 DUP3 SSTORE DUP1 SWAP2 POP POP PUSH1 0x1 SWAP1 SUB SWAP1 PUSH1 0x0 MSTORE PUSH1 0x20 PUSH1 0x0 KECCAK256 ADD PUSH1 0x0 SWAP1 SWAP2 SWAP1 SWAP2 SWAP1 SWAP2 PUSH2 0x100 EXP DUP2 SLOAD DUP2 PUSH20 0xFFFFFFFFFFFFFFFFFFFFFFFFFFFFFFFFFFFFFFFF MUL NOT AND SWAP1 DUP4 PUSH20 0xFFFFFFFFFFFFFFFFFFFFFFFFFFFFFFFFFFFFFFFF AND MUL OR SWAP1 SSTORE POP PUSH1 0x1 DUP4 PUSH1 0x40 MLOAD PUSH2 0x78A SWAP2 SWAP1 PUSH2 0x1F3D JUMP JUMPDEST SWAP1 DUP2 MSTORE PUSH1 0x20 ADD PUSH1 0x40 MLOAD DUP1 SWAP2 SUB SWAP1 KECCAK256 PUSH1 0x4 ADD PUSH1 0x0 DUP2 SLOAD DUP1 SWAP3 SWAP2 SWAP1 PUSH2 0x7AC SWAP1 PUSH2 0x2290 JUMP JUMPDEST SWAP2 SWAP1 POP SSTORE POP PUSH1 0x1 DUP4 PUSH1 0x40 MLOAD PUSH2 0x7C1 SWAP2 SWAP1 PUSH2 0x1F3D JUMP JUMPDEST SWAP1 DUP2 MSTORE PUSH1 0x20 ADD PUSH1 0x40 MLOAD DUP1 SWAP2 SUB SWAP1 KECCAK256 PUSH1 0x4 ADD SLOAD PUSH1 0x1 DUP5 PUSH1 0x40 MLOAD PUSH2 0x7E3 SWAP2 SWAP1 PUSH2 0x1F3D JUMP JUMPDEST SWAP1 DUP2 MSTORE PUSH1 0x20 ADD PUSH1 0x40 MLOAD DUP1 SWAP2 SUB SWAP1 KECCAK256 PUSH1 0x3 ADD SLOAD SUB PUSH2 0x8BB JUMPI PUSH1 0x1 DUP1 DUP5 PUSH1 0x40 MLOAD PUSH2 0x80B SWAP2 SWAP1 PUSH2 0x1F3D JUMP JUMPDEST SWAP1 DUP2 MSTORE PUSH1 0x20 ADD PUSH1 0x40 MLOAD DUP1 SWAP2 SUB SWAP1 KECCAK256 PUSH1 0x8 ADD PUSH1 0x0 PUSH2 0x100 EXP DUP2 SLOAD DUP2 PUSH1 0xFF MUL NOT AND SWAP1 DUP4 PUSH1 0x1 DUP2 GT ISZERO PUSH2 0x83E JUMPI PUSH2 0x83D PUSH2 0x1E6F JUMP JUMPDEST JUMPDEST MUL OR SWAP1 SSTORE POP PUSH1 0x2 DUP4 SWAP1 DUP1 PUSH1 0x1 DUP2 SLOAD ADD DUP1 DUP3 SSTORE DUP1 SWAP2 POP POP PUSH1 0x1 SWAP1 SUB SWAP1 PUSH1 0x0 MSTORE PUSH1 0x20 PUSH1 0x0 KECCAK256 ADD PUSH1 0x0 SWAP1 SWAP2 SWAP1 SWAP2 SWAP1 SWAP2 POP SWAP1 DUP2 PUSH2 0x877 SWAP2 SWAP1 PUSH2 0x218F JUMP JUMPDEST POP DUP3 PUSH1 0x40 MLOAD PUSH2 0x886 SWAP2 SWAP1 PUSH2 0x1F3D JUMP JUMPDEST PUSH1 0x40 MLOAD DUP1 SWAP2 SUB SWAP1 KECCAK256 PUSH32 0xC9629617AC320E57FA622F79C211617DE659A3B7CBDDA927E47DEA5E4C0AB4DA PUSH1 0x40 MLOAD PUSH1 0x40 MLOAD DUP1 SWAP2 SUB SWAP1 LOG2 JUMPDEST DUP1 PUSH20 0xFFFFFFFFFFFFFFFFFFFFFFFFFFFFFFFFFFFFFFFF AND PUSH32 0x99CC064944E6569611B439843932FA853D46618D78CA5A8E3989BCC5614853D PUSH1 0x40 MLOAD PUSH1 0x40 MLOAD DUP1 SWAP2 SUB SWAP1 LOG2 PUSH2 0x935 JUMP JUMPDEST PUSH1 0x40 MLOAD PUSH32 0x13C8108E00000000000000000000000000000000000000000000000000000000 DUP2 MSTORE PUSH1 0x4 ADD PUSH1 0x40 MLOAD DUP1 SWAP2 SUB SWAP1 REVERT JUMPDEST POP POP POP JUMP JUMPDEST PUSH1 0x0 PUSH2 0x954 PUSH1 0x40 MLOAD DUP1 PUSH1 0x20 ADD PUSH1 0x40 MSTORE DUP1 PUSH1 0x0 DUP2 MSTORE POP PUSH2 0xB4A JUMP JUMPDEST POP SWAP1 POP DUP1 ISZERO PUSH2 0xABA JUMPI PUSH1 0x0 PUSH1 0x2 DUP1 SLOAD DUP1 PUSH1 0x20 MUL PUSH1 0x20 ADD PUSH1 0x40 MLOAD SWAP1 DUP2 ADD PUSH1 0x40 MSTORE DUP1 SWAP3 SWAP2 SWAP1 DUP2 DUP2 MSTORE PUSH1 0x20 ADD PUSH1 0x0 SWAP1 JUMPDEST DUP3 DUP3 LT ISZERO PUSH2 0xA2D JUMPI DUP4 DUP3 SWAP1 PUSH1 0x0 MSTORE PUSH1 0x20 PUSH1 0x0 KECCAK256 ADD DUP1 SLOAD PUSH2 0x9A0 SWAP1 PUSH2 0x1FB2 JUMP JUMPDEST DUP1 PUSH1 0x1F ADD PUSH1 0x20 DUP1 SWAP2 DIV MUL PUSH1 0x20 ADD PUSH1 0x40 MLOAD SWAP1 DUP2 ADD PUSH1 0x40 MSTORE DUP1 SWAP3 SWAP2 SWAP1 DUP2 DUP2 MSTORE PUSH1 0x20 ADD DUP3 DUP1 SLOAD PUSH2 0x9CC SWAP1 PUSH2 0x1FB2 JUMP JUMPDEST DUP1 ISZERO PUSH2 0xA19 JUMPI DUP1 PUSH1 0x1F LT PUSH2 0x9EE JUMPI PUSH2 0x100 DUP1 DUP4 SLOAD DIV MUL DUP4 MSTORE SWAP2 PUSH1 0x20 ADD SWAP2 PUSH2 0xA19 JUMP JUMPDEST DUP3 ADD SWAP2 SWAP1 PUSH1 0x0 MSTORE PUSH1 0x20 PUSH1 0x0 KECCAK256 SWAP1 JUMPDEST DUP2 SLOAD DUP2 MSTORE SWAP1 PUSH1 0x1 ADD SWAP1 PUSH1 0x20 ADD DUP1 DUP4 GT PUSH2 0x9FC JUMPI DUP3 SWAP1 SUB PUSH1 0x1F AND DUP3 ADD SWAP2 JUMPDEST POP POP POP POP POP DUP2 MSTORE PUSH1 0x20 ADD SWAP1 PUSH1 0x1 ADD SWAP1 PUSH2 0x981 JUMP JUMPDEST POP POP POP POP SWAP1 POP PUSH1 0x0 JUMPDEST DUP2 MLOAD DUP2 LT ISZERO PUSH2 0xAB7 JUMPI PUSH2 0xA48 DUP2 PUSH2 0x1282 JUMP JUMPDEST DUP2 DUP2 DUP2 MLOAD DUP2 LT PUSH2 0xA5B JUMPI PUSH2 0xA5A PUSH2 0x1F54 JUMP JUMPDEST JUMPDEST PUSH1 0x20 MUL PUSH1 0x20 ADD ADD MLOAD PUSH1 0x40 MLOAD PUSH2 0xA70 SWAP2 SWAP1 PUSH2 0x1F3D JUMP JUMPDEST PUSH1 0x40 MLOAD DUP1 SWAP2 SUB SWAP1 KECCAK256 PUSH32 0xA7998895D8D2E7856091BD8A5895A54D831C4D6C8BD8A8611EC2C1F873872FEF PUSH1 0x40 MLOAD PUSH1 0x40 MLOAD DUP1 SWAP2 SUB SWAP1 LOG2 DUP1 DUP1 PUSH2 0xAAF SWAP1 PUSH2 0x2290 JUMP JUMPDEST SWAP2 POP POP PUSH2 0xA36 JUMP JUMPDEST POP POP JUMPDEST POP POP POP JUMP JUMPDEST PUSH1 0x0 DUP1 PUSH1 0x1 DUP4 PUSH1 0x40 MLOAD PUSH2 0xAD2 SWAP2 SWAP1 PUSH2 0x1F3D JUMP JUMPDEST SWAP1 DUP2 MSTORE PUSH1 0x20 ADD PUSH1 0x40 MLOAD DUP1 SWAP2 SUB SWAP1 KECCAK256 PUSH1 0x3 ADD SLOAD GT ISZERO PUSH2 0xB13 JUMPI PUSH1 0x1 DUP3 PUSH1 0x40 MLOAD PUSH2 0xAFA SWAP2 SWAP1 PUSH2 0x1F3D JUMP JUMPDEST SWAP1 DUP2 MSTORE PUSH1 0x20 ADD PUSH1 0x40 MLOAD DUP1 SWAP2 SUB SWAP1 KECCAK256 PUSH1 0x7 ADD SLOAD SWAP1 POP PUSH2 0xB45 JUMP JUMPDEST PUSH1 0x40 MLOAD PUSH32 0xB01E933700000000000000000000000000000000000000000000000000000000 DUP2 MSTORE PUSH1 0x4 ADD PUSH1 0x40 MLOAD DUP1 SWAP2 SUB SWAP1 REVERT JUMPDEST SWAP2 SWAP1 POP JUMP JUMPDEST PUSH1 0x0 PUSH1 0x60 PUSH1 0x0 PUSH1 0x2 DUP1 SLOAD SWAP1 POP GT ISZERO PUSH2 0xB65 JUMPI PUSH1 0x1 SWAP2 POP PUSH2 0xB6A JUMP JUMPDEST PUSH1 0x0 SWAP2 POP JUMPDEST SWAP2 POP SWAP2 JUMP JUMPDEST PUSH1 0x0 DUP1 PUSH1 0x0 SWAP1 SLOAD SWAP1 PUSH2 0x100 EXP SWAP1 DIV PUSH20 0xFFFFFFFFFFFFFFFFFFFFFFFFFFFFFFFFFFFFFFFF AND SWAP1 POP SWAP1 JUMP JUMPDEST PUSH1 0x0 PUSH32 0x0 SWAP1 POP SWAP1 JUMP JUMPDEST PUSH1 0x0 DUP1 PUSH1 0x1 DUP4 PUSH1 0x40 MLOAD PUSH2 0xBD3 SWAP2 SWAP1 PUSH2 0x1F3D JUMP JUMPDEST SWAP1 DUP2 MSTORE PUSH1 0x20 ADD PUSH1 0x40 MLOAD DUP1 SWAP2 SUB SWAP1 KECCAK256 PUSH1 0x3 ADD SLOAD GT ISZERO PUSH2 0xC14 JUMPI PUSH1 0x1 DUP3 PUSH1 0x40 MLOAD PUSH2 0xBFB SWAP2 SWAP1 PUSH2 0x1F3D JUMP JUMPDEST SWAP1 DUP2 MSTORE PUSH1 0x20 ADD PUSH1 0x40 MLOAD DUP1 SWAP2 SUB SWAP1 KECCAK256 PUSH1 0x2 ADD SLOAD SWAP1 POP PUSH2 0xC46 JUMP JUMPDEST PUSH1 0x40 MLOAD PUSH32 0xB01E933700000000000000000000000000000000000000000000000000000000 DUP2 MSTORE PUSH1 0x4 ADD PUSH1 0x40 MLOAD DUP1 SWAP2 SUB SWAP1 REVERT JUMPDEST SWAP2 SWAP1 POP JUMP JUMPDEST PUSH32 0x0 CALLVALUE LT ISZERO PUSH2 0xCA5 JUMPI PUSH1 0x40 MLOAD PUSH32 0xC09BB52500000000000000000000000000000000000000000000000000000000 DUP2 MSTORE PUSH1 0x4 ADD PUSH1 0x40 MLOAD DUP1 SWAP2 SUB SWAP1 REVERT JUMPDEST PUSH2 0xCAD PUSH2 0x156C JUMP JUMPDEST DUP4 DUP2 PUSH1 0x0 ADD DUP2 SWAP1 MSTORE POP CALLER DUP2 PUSH1 0x20 ADD SWAP1 PUSH20 0xFFFFFFFFFFFFFFFFFFFFFFFFFFFFFFFFFFFFFFFF AND SWAP1 DUP2 PUSH20 0xFFFFFFFFFFFFFFFFFFFFFFFFFFFFFFFFFFFFFFFF AND DUP2 MSTORE POP POP DUP3 DUP2 PUSH1 0x40 ADD DUP2 DUP2 MSTORE POP POP DUP2 DUP2 PUSH1 0x60 ADD DUP2 DUP2 MSTORE POP POP TIMESTAMP DUP2 PUSH1 0xE0 ADD DUP2 DUP2 MSTORE POP POP PUSH1 0x0 DUP2 PUSH2 0x100 ADD SWAP1 PUSH1 0x1 DUP2 GT ISZERO PUSH2 0xD26 JUMPI PUSH2 0xD25 PUSH2 0x1E6F JUMP JUMPDEST JUMPDEST SWAP1 DUP2 PUSH1 0x1 DUP2 GT ISZERO PUSH2 0xD3A JUMPI PUSH2 0xD39 PUSH2 0x1E6F JUMP JUMPDEST JUMPDEST DUP2 MSTORE POP POP DUP1 PUSH1 0x1 DUP7 PUSH1 0x40 MLOAD PUSH2 0xD4F SWAP2 SWAP1 PUSH2 0x1F3D JUMP JUMPDEST SWAP1 DUP2 MSTORE PUSH1 0x20 ADD PUSH1 0x40 MLOAD DUP1 SWAP2 SUB SWAP1 KECCAK256 PUSH1 0x0 DUP3 ADD MLOAD DUP2 PUSH1 0x0 ADD SWAP1 DUP2 PUSH2 0xD72 SWAP2 SWAP1 PUSH2 0x218F JUMP JUMPDEST POP PUSH1 0x20 DUP3 ADD MLOAD DUP2 PUSH1 0x1 ADD PUSH1 0x0 PUSH2 0x100 EXP DUP2 SLOAD DUP2 PUSH20 0xFFFFFFFFFFFFFFFFFFFFFFFFFFFFFFFFFFFFFFFF MUL NOT AND SWAP1 DUP4 PUSH20 0xFFFFFFFFFFFFFFFFFFFFFFFFFFFFFFFFFFFFFFFF AND MUL OR SWAP1 SSTORE POP PUSH1 0x40 DUP3 ADD MLOAD DUP2 PUSH1 0x2 ADD SSTORE PUSH1 0x60 DUP3 ADD MLOAD DUP2 PUSH1 0x3 ADD SSTORE PUSH1 0x80 DUP3 ADD MLOAD DUP2 PUSH1 0x4 ADD SSTORE PUSH1 0xA0 DUP3 ADD MLOAD DUP2 PUSH1 0x5 ADD SWAP1 DUP1 MLOAD SWAP1 PUSH1 0x20 ADD SWAP1 PUSH2 0xDF4 SWAP3 SWAP2 SWAP1 PUSH2 0x15E0 JUMP JUMPDEST POP PUSH1 0xC0 DUP3 ADD MLOAD DUP2 PUSH1 0x6 ADD SWAP1 DUP1 MLOAD SWAP1 PUSH1 0x20 ADD SWAP1 PUSH2 0xE11 SWAP3 SWAP2 SWAP1 PUSH2 0x1639 JUMP JUMPDEST POP PUSH1 0xE0 DUP3 ADD MLOAD DUP2 PUSH1 0x7 ADD SSTORE PUSH2 0x100 DUP3 ADD MLOAD DUP2 PUSH1 0x8 ADD PUSH1 0x0 PUSH2 0x100 EXP DUP2 SLOAD DUP2 PUSH1 0xFF MUL NOT AND SWAP1 DUP4 PUSH1 0x1 DUP2 GT ISZERO PUSH2 0xE48 JUMPI PUSH2 0xE47 PUSH2 0x1E6F JUMP JUMPDEST JUMPDEST MUL OR SWAP1 SSTORE POP SWAP1 POP POP DUP5 PUSH1 0x40 MLOAD PUSH2 0xE5E SWAP2 SWAP1 PUSH2 0x1F3D JUMP JUMPDEST PUSH1 0x40 MLOAD DUP1 SWAP2 SUB SWAP1 KECCAK256 PUSH32 0xCC65C6FB1D804BA1DC418F9E3659483D310357279F035D45B8EA484FD6FE4A2F PUSH1 0x40 MLOAD PUSH1 0x40 MLOAD DUP1 SWAP2 SUB SWAP1 LOG2 POP POP POP POP POP JUMP JUMPDEST PUSH1 0x0 DUP1 PUSH1 0x1 DUP4 PUSH1 0x40 MLOAD PUSH2 0xEAC SWAP2 SWAP1 PUSH2 0x1F3D JUMP JUMPDEST SWAP1 DUP2 MSTORE PUSH1 0x20 ADD PUSH1 0x40 MLOAD DUP1 SWAP2 SUB SWAP1 KECCAK256 PUSH1 0x3 ADD SLOAD GT ISZERO PUSH2 0xEFA JUMPI PUSH1 0x1 DUP3 PUSH1 0x40 MLOAD PUSH2 0xED4 SWAP2 SWAP1 PUSH2 0x1F3D JUMP JUMPDEST SWAP1 DUP2 MSTORE PUSH1 0x20 ADD PUSH1 0x40 MLOAD DUP1 SWAP2 SUB SWAP1 KECCAK256 PUSH1 0x8 ADD PUSH1 0x0 SWAP1 SLOAD SWAP1 PUSH2 0x100 EXP SWAP1 DIV PUSH1 0xFF AND SWAP1 POP PUSH2 0xF2C JUMP JUMPDEST PUSH1 0x40 MLOAD PUSH32 0xB01E933700000000000000000000000000000000000000000000000000000000 DUP2 MSTORE PUSH1 0x4 ADD PUSH1 0x40 MLOAD DUP1 SWAP2 SUB SWAP1 REVERT JUMPDEST SWAP2 SWAP1 POP JUMP JUMPDEST PUSH1 0x0 PUSH32 0x0 SWAP1 POP SWAP1 JUMP JUMPDEST PUSH1 0x60 PUSH1 0x1 DUP3 PUSH1 0x40 MLOAD PUSH2 0xF6B SWAP2 SWAP1 PUSH2 0x1F3D JUMP JUMPDEST SWAP1 DUP2 MSTORE PUSH1 0x20 ADD PUSH1 0x40 MLOAD DUP1 SWAP2 SUB SWAP1 KECCAK256 PUSH1 0x0 ADD DUP1 SLOAD PUSH2 0xF87 SWAP1 PUSH2 0x1FB2 JUMP JUMPDEST DUP1 PUSH1 0x1F ADD PUSH1 0x20 DUP1 SWAP2 DIV MUL PUSH1 0x20 ADD PUSH1 0x40 MLOAD SWAP1 DUP2 ADD PUSH1 0x40 MSTORE DUP1 SWAP3 SWAP2 SWAP1 DUP2 DUP2 MSTORE PUSH1 0x20 ADD DUP3 DUP1 SLOAD PUSH2 0xFB3 SWAP1 PUSH2 0x1FB2 JUMP JUMPDEST DUP1 ISZERO PUSH2 0x1000 JUMPI DUP1 PUSH1 0x1F LT PUSH2 0xFD5 JUMPI PUSH2 0x100 DUP1 DUP4 SLOAD DIV MUL DUP4 MSTORE SWAP2 PUSH1 0x20 ADD SWAP2 PUSH2 0x1000 JUMP JUMPDEST DUP3 ADD SWAP2 SWAP1 PUSH1 0x0 MSTORE PUSH1 0x20 PUSH1 0x0 KECCAK256 SWAP1 JUMPDEST DUP2 SLOAD DUP2 MSTORE SWAP1 PUSH1 0x1 ADD SWAP1 PUSH1 0x20 ADD DUP1 DUP4 GT PUSH2 0xFE3 JUMPI DUP3 SWAP1 SUB PUSH1 0x1F AND DUP3 ADD SWAP2 JUMPDEST POP POP POP POP POP SWAP1 POP SWAP2 SWAP1 POP JUMP JUMPDEST PUSH1 0x0 DUP1 PUSH1 0x1 DUP4 PUSH1 0x40 MLOAD PUSH2 0x101F SWAP2 SWAP1 PUSH2 0x1F3D JUMP JUMPDEST SWAP1 DUP2 MSTORE PUSH1 0x20 ADD PUSH1 0x40 MLOAD DUP1 SWAP2 SUB SWAP1 KECCAK256 PUSH1 0x3 ADD SLOAD GT ISZERO PUSH2 0x108C JUMPI PUSH1 0x1 DUP3 PUSH1 0x40 MLOAD PUSH2 0x1047 SWAP2 SWAP1 PUSH2 0x1F3D JUMP JUMPDEST SWAP1 DUP2 MSTORE PUSH1 0x20 ADD PUSH1 0x40 MLOAD DUP1 SWAP2 SUB SWAP1 KECCAK256 PUSH1 0x3 ADD SLOAD PUSH1 0x1 DUP4 PUSH1 0x40 MLOAD PUSH2 0x1069 SWAP2 SWAP1 PUSH2 0x1F3D JUMP JUMPDEST SWAP1 DUP2 MSTORE PUSH1 0x20 ADD PUSH1 0x40 MLOAD DUP1 SWAP2 SUB SWAP1 KECCAK256 PUSH1 0x2 ADD SLOAD PUSH2 0x1085 SWAP2 SWAP1 PUSH2 0x2307 JUMP JUMPDEST SWAP1 POP PUSH2 0x10BE JUMP JUMPDEST PUSH1 0x40 MLOAD PUSH32 0xB01E933700000000000000000000000000000000000000000000000000000000 DUP2 MSTORE PUSH1 0x4 ADD PUSH1 0x40 MLOAD DUP1 SWAP2 SUB SWAP1 REVERT JUMPDEST SWAP2 SWAP1 POP JUMP JUMPDEST PUSH1 0x0 PUSH1 0x2 DUP1 SLOAD DUP1 PUSH1 0x20 MUL PUSH1 0x20 ADD PUSH1 0x40 MLOAD SWAP1 DUP2 ADD PUSH1 0x40 MSTORE DUP1 SWAP3 SWAP2 SWAP1 DUP2 DUP2 MSTORE PUSH1 0x20 ADD PUSH1 0x0 SWAP1 JUMPDEST DUP3 DUP3 LT ISZERO PUSH2 0x1193 JUMPI DUP4 DUP3 SWAP1 PUSH1 0x0 MSTORE PUSH1 0x20 PUSH1 0x0 KECCAK256 ADD DUP1 SLOAD PUSH2 0x1106 SWAP1 PUSH2 0x1FB2 JUMP JUMPDEST DUP1 PUSH1 0x1F ADD PUSH1 0x20 DUP1 SWAP2 DIV MUL PUSH1 0x20 ADD PUSH1 0x40 MLOAD SWAP1 DUP2 ADD PUSH1 0x40 MSTORE DUP1 SWAP3 SWAP2 SWAP1 DUP2 DUP2 MSTORE PUSH1 0x20 ADD DUP3 DUP1 SLOAD PUSH2 0x1132 SWAP1 PUSH2 0x1FB2 JUMP JUMPDEST DUP1 ISZERO PUSH2 0x117F JUMPI DUP1 PUSH1 0x1F LT PUSH2 0x1154 JUMPI PUSH2 0x100 DUP1 DUP4 SLOAD DIV MUL DUP4 MSTORE SWAP2 PUSH1 0x20 ADD SWAP2 PUSH2 0x117F JUMP JUMPDEST DUP3 ADD SWAP2 SWAP1 PUSH1 0x0 MSTORE PUSH1 0x20 PUSH1 0x0 KECCAK256 SWAP1 JUMPDEST DUP2 SLOAD DUP2 MSTORE SWAP1 PUSH1 0x1 ADD SWAP1 PUSH1 0x20 ADD DUP1 DUP4 GT PUSH2 0x1162 JUMPI DUP3 SWAP1 SUB PUSH1 0x1F AND DUP3 ADD SWAP2 JUMPDEST POP POP POP POP POP DUP2 MSTORE PUSH1 0x20 ADD SWAP1 PUSH1 0x1 ADD SWAP1 PUSH2 0x10E7 JUMP JUMPDEST POP POP POP POP SWAP1 POP PUSH1 0x0 JUMPDEST DUP2 MLOAD DUP2 LT ISZERO PUSH2 0x127E JUMPI PUSH1 0x1 DUP3 DUP3 DUP2 MLOAD DUP2 LT PUSH2 0x11BA JUMPI PUSH2 0x11B9 PUSH2 0x1F54 JUMP JUMPDEST JUMPDEST PUSH1 0x20 MUL PUSH1 0x20 ADD ADD MLOAD PUSH1 0x40 MLOAD PUSH2 0x11CF SWAP2 SWAP1 PUSH2 0x1F3D JUMP JUMPDEST SWAP1 DUP2 MSTORE PUSH1 0x20 ADD PUSH1 0x40 MLOAD DUP1 SWAP2 SUB SWAP1 KECCAK256 PUSH1 0x0 DUP1 DUP3 ADD PUSH1 0x0 PUSH2 0x11EE SWAP2 SWAP1 PUSH2 0x16C3 JUMP JUMPDEST PUSH1 0x1 DUP3 ADD PUSH1 0x0 PUSH2 0x100 EXP DUP2 SLOAD SWAP1 PUSH20 0xFFFFFFFFFFFFFFFFFFFFFFFFFFFFFFFFFFFFFFFF MUL NOT AND SWAP1 SSTORE PUSH1 0x2 DUP3 ADD PUSH1 0x0 SWAP1 SSTORE PUSH1 0x3 DUP3 ADD PUSH1 0x0 SWAP1 SSTORE PUSH1 0x4 DUP3 ADD PUSH1 0x0 SWAP1 SSTORE PUSH1 0x5 DUP3 ADD PUSH1 0x0 PUSH2 0x123D SWAP2 SWAP1 PUSH2 0x1703 JUMP JUMPDEST PUSH1 0x6 DUP3 ADD PUSH1 0x0 PUSH2 0x124D SWAP2 SWAP1 PUSH2 0x1724 JUMP JUMPDEST PUSH1 0x7 DUP3 ADD PUSH1 0x0 SWAP1 SSTORE PUSH1 0x8 DUP3 ADD PUSH1 0x0 PUSH2 0x100 EXP DUP2 SLOAD SWAP1 PUSH1 0xFF MUL NOT AND SWAP1 SSTORE POP POP DUP1 DUP1 PUSH2 0x1276 SWAP1 PUSH2 0x2290 JUMP JUMPDEST SWAP2 POP POP PUSH2 0x119C JUMP JUMPDEST POP POP JUMP JUMPDEST PUSH1 0x0 PUSH1 0x2 DUP1 SLOAD DUP1 PUSH1 0x20 MUL PUSH1 0x20 ADD PUSH1 0x40 MLOAD SWAP1 DUP2 ADD PUSH1 0x40 MSTORE DUP1 SWAP3 SWAP2 SWAP1 DUP2 DUP2 MSTORE PUSH1 0x20 ADD PUSH1 0x0 SWAP1 JUMPDEST DUP3 DUP3 LT ISZERO PUSH2 0x1352 JUMPI DUP4 DUP3 SWAP1 PUSH1 0x0 MSTORE PUSH1 0x20 PUSH1 0x0 KECCAK256 ADD DUP1 SLOAD PUSH2 0x12C5 SWAP1 PUSH2 0x1FB2 JUMP JUMPDEST DUP1 PUSH1 0x1F ADD PUSH1 0x20 DUP1 SWAP2 DIV MUL PUSH1 0x20 ADD PUSH1 0x40 MLOAD SWAP1 DUP2 ADD PUSH1 0x40 MSTORE DUP1 SWAP3 SWAP2 SWAP1 DUP2 DUP2 MSTORE PUSH1 0x20 ADD DUP3 DUP1 SLOAD PUSH2 0x12F1 SWAP1 PUSH2 0x1FB2 JUMP JUMPDEST DUP1 ISZERO PUSH2 0x133E JUMPI DUP1 PUSH1 0x1F LT PUSH2 0x1313 JUMPI PUSH2 0x100 DUP1 DUP4 SLOAD DIV MUL DUP4 MSTORE SWAP2 PUSH1 0x20 ADD SWAP2 PUSH2 0x133E JUMP JUMPDEST DUP3 ADD SWAP2 SWAP1 PUSH1 0x0 MSTORE PUSH1 0x20 PUSH1 0x0 KECCAK256 SWAP1 JUMPDEST DUP2 SLOAD DUP2 MSTORE SWAP1 PUSH1 0x1 ADD SWAP1 PUSH1 0x20 ADD DUP1 DUP4 GT PUSH2 0x1321 JUMPI DUP3 SWAP1 SUB PUSH1 0x1F AND DUP3 ADD SWAP2 JUMPDEST POP POP POP POP POP DUP2 MSTORE PUSH1 0x20 ADD SWAP1 PUSH1 0x1 ADD SWAP1 PUSH2 0x12A6 JUMP JUMPDEST POP POP POP POP SWAP1 POP PUSH1 0x0 PUSH1 0x1 DUP3 DUP5 DUP2 MLOAD DUP2 LT PUSH2 0x136F JUMPI PUSH2 0x136E PUSH2 0x1F54 JUMP JUMPDEST JUMPDEST PUSH1 0x20 MUL PUSH1 0x20 ADD ADD MLOAD PUSH1 0x40 MLOAD PUSH2 0x1384 SWAP2 SWAP1 PUSH2 0x1F3D JUMP JUMPDEST SWAP1 DUP2 MSTORE PUSH1 0x20 ADD PUSH1 0x40 MLOAD DUP1 SWAP2 SUB SWAP1 KECCAK256 PUSH1 0x4 ADD SLOAD PUSH1 0x1 DUP4 DUP6 DUP2 MLOAD DUP2 LT PUSH2 0x13AB JUMPI PUSH2 0x13AA PUSH2 0x1F54 JUMP JUMPDEST JUMPDEST PUSH1 0x20 MUL PUSH1 0x20 ADD ADD MLOAD PUSH1 0x40 MLOAD PUSH2 0x13C0 SWAP2 SWAP1 PUSH2 0x1F3D JUMP JUMPDEST SWAP1 DUP2 MSTORE PUSH1 0x20 ADD PUSH1 0x40 MLOAD DUP1 SWAP2 SUB SWAP1 KECCAK256 PUSH1 0x2 ADD SLOAD PUSH2 0x13DC SWAP2 SWAP1 PUSH2 0x2307 JUMP JUMPDEST SWAP1 POP PUSH1 0x0 JUMPDEST PUSH1 0x1 DUP4 DUP6 DUP2 MLOAD DUP2 LT PUSH2 0x13F6 JUMPI PUSH2 0x13F5 PUSH2 0x1F54 JUMP JUMPDEST JUMPDEST PUSH1 0x20 MUL PUSH1 0x20 ADD ADD MLOAD PUSH1 0x40 MLOAD PUSH2 0x140B SWAP2 SWAP1 PUSH2 0x1F3D JUMP JUMPDEST SWAP1 DUP2 MSTORE PUSH1 0x20 ADD PUSH1 0x40 MLOAD DUP1 SWAP2 SUB SWAP1 KECCAK256 PUSH1 0x6 ADD DUP1 SLOAD SWAP1 POP DUP2 LT ISZERO PUSH2 0x155E JUMPI SELFBALANCE DUP3 LT ISZERO PUSH2 0x154B JUMPI PUSH1 0x0 PUSH1 0x1 DUP5 DUP7 DUP2 MLOAD DUP2 LT PUSH2 0x1446 JUMPI PUSH2 0x1445 PUSH2 0x1F54 JUMP JUMPDEST JUMPDEST PUSH1 0x20 MUL PUSH1 0x20 ADD ADD MLOAD PUSH1 0x40 MLOAD PUSH2 0x145B SWAP2 SWAP1 PUSH2 0x1F3D JUMP JUMPDEST SWAP1 DUP2 MSTORE PUSH1 0x20 ADD PUSH1 0x40 MLOAD DUP1 SWAP2 SUB SWAP1 KECCAK256 PUSH1 0x6 ADD DUP3 DUP2 SLOAD DUP2 LT PUSH2 0x147E JUMPI PUSH2 0x147D PUSH2 0x1F54 JUMP JUMPDEST JUMPDEST SWAP1 PUSH1 0x0 MSTORE PUSH1 0x20 PUSH1 0x0 KECCAK256 ADD PUSH1 0x0 SWAP1 SLOAD SWAP1 PUSH2 0x100 EXP SWAP1 DIV PUSH20 0xFFFFFFFFFFFFFFFFFFFFFFFFFFFFFFFFFFFFFFFF AND PUSH20 0xFFFFFFFFFFFFFFFFFFFFFFFFFFFFFFFFFFFFFFFF AND DUP4 PUSH1 0x40 MLOAD PUSH2 0x14CC SWAP1 PUSH2 0x2369 JUMP JUMPDEST PUSH1 0x0 PUSH1 0x40 MLOAD DUP1 DUP4 SUB DUP2 DUP6 DUP8 GAS CALL SWAP3 POP POP POP RETURNDATASIZE DUP1 PUSH1 0x0 DUP2 EQ PUSH2 0x1509 JUMPI PUSH1 0x40 MLOAD SWAP2 POP PUSH1 0x1F NOT PUSH1 0x3F RETURNDATASIZE ADD AND DUP3 ADD PUSH1 0x40 MSTORE RETURNDATASIZE DUP3 MSTORE RETURNDATASIZE PUSH1 0x0 PUSH1 0x20 DUP5 ADD RETURNDATACOPY PUSH2 0x150E JUMP JUMPDEST PUSH1 0x60 SWAP2 POP JUMPDEST POP POP SWAP1 POP DUP1 PUSH2 0x1549 JUMPI PUSH1 0x40 MLOAD PUSH32 0x9E6A19A00000000000000000000000000000000000000000000000000000000 DUP2 MSTORE PUSH1 0x4 ADD PUSH1 0x40 MLOAD DUP1 SWAP2 SUB SWAP1 REVERT JUMPDEST POP JUMPDEST DUP1 DUP1 PUSH2 0x1556 SWAP1 PUSH2 0x2290 JUMP JUMPDEST SWAP2 POP POP PUSH2 0x13E1 JUMP JUMPDEST POP PUSH2 0x1567 PUSH2 0x10C3 JUMP JUMPDEST POP POP POP JUMP JUMPDEST PUSH1 0x40 MLOAD DUP1 PUSH2 0x120 ADD PUSH1 0x40 MSTORE DUP1 PUSH1 0x60 DUP2 MSTORE PUSH1 0x20 ADD PUSH1 0x0 PUSH20 0xFFFFFFFFFFFFFFFFFFFFFFFFFFFFFFFFFFFFFFFF AND DUP2 MSTORE PUSH1 0x20 ADD PUSH1 0x0 DUP2 MSTORE PUSH1 0x20 ADD PUSH1 0x0 DUP2 MSTORE PUSH1 0x20 ADD PUSH1 0x0 DUP2 MSTORE PUSH1 0x20 ADD PUSH1 0x60 DUP2 MSTORE PUSH1 0x20 ADD PUSH1 0x60 DUP2 MSTORE PUSH1 0x20 ADD PUSH1 0x0 DUP2 MSTORE PUSH1 0x20 ADD PUSH1 0x0 PUSH1 0x1 DUP2 GT ISZERO PUSH2 0x15DA JUMPI PUSH2 0x15D9 PUSH2 0x1E6F JUMP JUMPDEST JUMPDEST DUP2 MSTORE POP SWAP1 JUMP JUMPDEST DUP3 DUP1 SLOAD DUP3 DUP3 SSTORE SWAP1 PUSH1 0x0 MSTORE PUSH1 0x20 PUSH1 0x0 KECCAK256 SWAP1 DUP2 ADD SWAP3 DUP3 ISZERO PUSH2 0x1628 JUMPI SWAP2 PUSH1 0x20 MUL DUP3 ADD JUMPDEST DUP3 DUP2 GT ISZERO PUSH2 0x1627 JUMPI DUP3 MLOAD DUP3 SWAP1 DUP2 PUSH2 0x1617 SWAP2 SWAP1 PUSH2 0x218F JUMP JUMPDEST POP SWAP2 PUSH1 0x20 ADD SWAP2 SWAP1 PUSH1 0x1 ADD SWAP1 PUSH2 0x1600 JUMP JUMPDEST JUMPDEST POP SWAP1 POP PUSH2 0x1635 SWAP2 SWAP1 PUSH2 0x1745 JUMP JUMPDEST POP SWAP1 JUMP JUMPDEST DUP3 DUP1 SLOAD DUP3 DUP3 SSTORE SWAP1 PUSH1 0x0 MSTORE PUSH1 0x20 PUSH1 0x0 KECCAK256 SWAP1 DUP2 ADD SWAP3 DUP3 ISZERO PUSH2 0x16B2 JUMPI SWAP2 PUSH1 0x20 MUL DUP3 ADD JUMPDEST DUP3 DUP2 GT ISZERO PUSH2 0x16B1 JUMPI DUP3 MLOAD DUP3 PUSH1 0x0 PUSH2 0x100 EXP DUP2 SLOAD DUP2 PUSH20 0xFFFFFFFFFFFFFFFFFFFFFFFFFFFFFFFFFFFFFFFF MUL NOT AND SWAP1 DUP4 PUSH20 0xFFFFFFFFFFFFFFFFFFFFFFFFFFFFFFFFFFFFFFFF AND MUL OR SWAP1 SSTORE POP SWAP2 PUSH1 0x20 ADD SWAP2 SWAP1 PUSH1 0x1 ADD SWAP1 PUSH2 0x1659 JUMP JUMPDEST JUMPDEST POP SWAP1 POP PUSH2 0x16BF SWAP2 SWAP1 PUSH2 0x1769 JUMP JUMPDEST POP SWAP1 JUMP JUMPDEST POP DUP1 SLOAD PUSH2 0x16CF SWAP1 PUSH2 0x1FB2 JUMP JUMPDEST PUSH1 0x0 DUP3 SSTORE DUP1 PUSH1 0x1F LT PUSH2 0x16E1 JUMPI POP PUSH2 0x1700 JUMP JUMPDEST PUSH1 0x1F ADD PUSH1 0x20 SWAP1 DIV SWAP1 PUSH1 0x0 MSTORE PUSH1 0x20 PUSH1 0x0 KECCAK256 SWAP1 DUP2 ADD SWAP1 PUSH2 0x16FF SWAP2 SWAP1 PUSH2 0x1769 JUMP JUMPDEST JUMPDEST POP JUMP JUMPDEST POP DUP1 SLOAD PUSH1 0x0 DUP3 SSTORE SWAP1 PUSH1 0x0 MSTORE PUSH1 0x20 PUSH1 0x0 KECCAK256 SWAP1 DUP2 ADD SWAP1 PUSH2 0x1721 SWAP2 SWAP1 PUSH2 0x1745 JUMP JUMPDEST POP JUMP JUMPDEST POP DUP1 SLOAD PUSH1 0x0 DUP3 SSTORE SWAP1 PUSH1 0x0 MSTORE PUSH1 0x20 PUSH1 0x0 KECCAK256 SWAP1 DUP2 ADD SWAP1 PUSH2 0x1742 SWAP2 SWAP1 PUSH2 0x1769 JUMP JUMPDEST POP JUMP JUMPDEST JUMPDEST DUP1 DUP3 GT ISZERO PUSH2 0x1765 JUMPI PUSH1 0x0 DUP2 DUP2 PUSH2 0x175C SWAP2 SWAP1 PUSH2 0x16C3 JUMP JUMPDEST POP PUSH1 0x1 ADD PUSH2 0x1746 JUMP JUMPDEST POP SWAP1 JUMP JUMPDEST JUMPDEST DUP1 DUP3 GT ISZERO PUSH2 0x1782 JUMPI PUSH1 0x0 DUP2 PUSH1 0x0 SWAP1 SSTORE POP PUSH1 0x1 ADD PUSH2 0x176A JUMP JUMPDEST POP SWAP1 JUMP JUMPDEST PUSH1 0x0 PUSH1 0x40 MLOAD SWAP1 POP SWAP1 JUMP JUMPDEST PUSH1 0x0 DUP1 REVERT JUMPDEST PUSH1 0x0 DUP1 REVERT JUMPDEST PUSH1 0x0 DUP1 REVERT JUMPDEST PUSH1 0x0 DUP1 REVERT JUMPDEST PUSH1 0x0 PUSH1 0x1F NOT PUSH1 0x1F DUP4 ADD AND SWAP1 POP SWAP2 SWAP1 POP JUMP JUMPDEST PUSH32 0x4E487B7100000000000000000000000000000000000000000000000000000000 PUSH1 0x0 MSTORE PUSH1 0x41 PUSH1 0x4 MSTORE PUSH1 0x24 PUSH1 0x0 REVERT JUMPDEST PUSH2 0x17ED DUP3 PUSH2 0x17A4 JUMP JUMPDEST DUP2 ADD DUP2 DUP2 LT PUSH8 0xFFFFFFFFFFFFFFFF DUP3 GT OR ISZERO PUSH2 0x180C JUMPI PUSH2 0x180B PUSH2 0x17B5 JUMP JUMPDEST JUMPDEST DUP1 PUSH1 0x40 MSTORE POP POP POP JUMP JUMPDEST PUSH1 0x0 PUSH2 0x181F PUSH2 0x1786 JUMP JUMPDEST SWAP1 POP PUSH2 0x182B DUP3 DUP3 PUSH2 0x17E4 JUMP JUMPDEST SWAP2 SWAP1 POP JUMP JUMPDEST PUSH1 0x0 PUSH8 0xFFFFFFFFFFFFFFFF DUP3 GT ISZERO PUSH2 0x184B JUMPI PUSH2 0x184A PUSH2 0x17B5 JUMP JUMPDEST JUMPDEST PUSH2 0x1854 DUP3 PUSH2 0x17A4 JUMP JUMPDEST SWAP1 POP PUSH1 0x20 DUP2 ADD SWAP1 POP SWAP2 SWAP1 POP JUMP JUMPDEST DUP3 DUP2 DUP4 CALLDATACOPY PUSH1 0x0 DUP4 DUP4 ADD MSTORE POP POP POP JUMP JUMPDEST PUSH1 0x0 PUSH2 0x1883 PUSH2 0x187E DUP5 PUSH2 0x1830 JUMP JUMPDEST PUSH2 0x1815 JUMP JUMPDEST SWAP1 POP DUP3 DUP2 MSTORE PUSH1 0x20 DUP2 ADD DUP5 DUP5 DUP5 ADD GT ISZERO PUSH2 0x189F JUMPI PUSH2 0x189E PUSH2 0x179F JUMP JUMPDEST JUMPDEST PUSH2 0x18AA DUP5 DUP3 DUP6 PUSH2 0x1861 JUMP JUMPDEST POP SWAP4 SWAP3 POP POP POP JUMP JUMPDEST PUSH1 0x0 DUP3 PUSH1 0x1F DUP4 ADD SLT PUSH2 0x18C7 JUMPI PUSH2 0x18C6 PUSH2 0x179A JUMP JUMPDEST JUMPDEST DUP2 CALLDATALOAD PUSH2 0x18D7 DUP5 DUP3 PUSH1 0x20 DUP7 ADD PUSH2 0x1870 JUMP JUMPDEST SWAP2 POP POP SWAP3 SWAP2 POP POP JUMP JUMPDEST PUSH1 0x0 DUP2 SWAP1 POP SWAP2 SWAP1 POP JUMP JUMPDEST PUSH2 0x18F3 DUP2 PUSH2 0x18E0 JUMP JUMPDEST DUP2 EQ PUSH2 0x18FE JUMPI PUSH1 0x0 DUP1 REVERT JUMPDEST POP JUMP JUMPDEST PUSH1 0x0 DUP2 CALLDATALOAD SWAP1 POP PUSH2 0x1910 DUP2 PUSH2 0x18EA JUMP JUMPDEST SWAP3 SWAP2 POP POP JUMP JUMPDEST PUSH1 0x0 DUP1 PUSH1 0x40 DUP4 DUP6 SUB SLT ISZERO PUSH2 0x192D JUMPI PUSH2 0x192C PUSH2 0x1790 JUMP JUMPDEST JUMPDEST PUSH1 0x0 DUP4 ADD CALLDATALOAD PUSH8 0xFFFFFFFFFFFFFFFF DUP2 GT ISZERO PUSH2 0x194B JUMPI PUSH2 0x194A PUSH2 0x1795 JUMP JUMPDEST JUMPDEST PUSH2 0x1957 DUP6 DUP3 DUP7 ADD PUSH2 0x18B2 JUMP JUMPDEST SWAP3 POP POP PUSH1 0x20 PUSH2 0x1968 DUP6 DUP3 DUP7 ADD PUSH2 0x1901 JUMP JUMPDEST SWAP2 POP POP SWAP3 POP SWAP3 SWAP1 POP JUMP JUMPDEST PUSH1 0x0 PUSH20 0xFFFFFFFFFFFFFFFFFFFFFFFFFFFFFFFFFFFFFFFF DUP3 AND SWAP1 POP SWAP2 SWAP1 POP JUMP JUMPDEST PUSH1 0x0 PUSH2 0x199D DUP3 PUSH2 0x1972 JUMP JUMPDEST SWAP1 POP SWAP2 SWAP1 POP JUMP JUMPDEST PUSH2 0x19AD DUP2 PUSH2 0x1992 JUMP JUMPDEST DUP3 MSTORE POP POP JUMP JUMPDEST PUSH1 0x0 PUSH1 0x20 DUP3 ADD SWAP1 POP PUSH2 0x19C8 PUSH1 0x0 DUP4 ADD DUP5 PUSH2 0x19A4 JUMP JUMPDEST SWAP3 SWAP2 POP POP JUMP JUMPDEST PUSH1 0x0 DUP2 MLOAD SWAP1 POP SWAP2 SWAP1 POP JUMP JUMPDEST PUSH1 0x0 DUP3 DUP3 MSTORE PUSH1 0x20 DUP3 ADD SWAP1 POP SWAP3 SWAP2 POP POP JUMP JUMPDEST PUSH1 0x0 JUMPDEST DUP4 DUP2 LT ISZERO PUSH2 0x1A08 JUMPI DUP1 DUP3 ADD MLOAD DUP2 DUP5 ADD MSTORE PUSH1 0x20 DUP2 ADD SWAP1 POP PUSH2 0x19ED JUMP JUMPDEST PUSH1 0x0 DUP5 DUP5 ADD MSTORE POP POP POP POP JUMP JUMPDEST PUSH1 0x0 PUSH2 0x1A1F DUP3 PUSH2 0x19CE JUMP JUMPDEST PUSH2 0x1A29 DUP2 DUP6 PUSH2 0x19D9 JUMP JUMPDEST SWAP4 POP PUSH2 0x1A39 DUP2 DUP6 PUSH1 0x20 DUP7 ADD PUSH2 0x19EA JUMP JUMPDEST PUSH2 0x1A42 DUP2 PUSH2 0x17A4 JUMP JUMPDEST DUP5 ADD SWAP2 POP POP SWAP3 SWAP2 POP POP JUMP JUMPDEST PUSH1 0x0 PUSH1 0x20 DUP3 ADD SWAP1 POP DUP2 DUP2 SUB PUSH1 0x0 DUP4 ADD MSTORE PUSH2 0x1A67 DUP2 DUP5 PUSH2 0x1A14 JUMP JUMPDEST SWAP1 POP SWAP3 SWAP2 POP POP JUMP JUMPDEST PUSH2 0x1A78 DUP2 PUSH2 0x1992 JUMP JUMPDEST DUP2 EQ PUSH2 0x1A83 JUMPI PUSH1 0x0 DUP1 REVERT JUMPDEST POP JUMP JUMPDEST PUSH1 0x0 DUP2 CALLDATALOAD SWAP1 POP PUSH2 0x1A95 DUP2 PUSH2 0x1A6F JUMP JUMPDEST SWAP3 SWAP2 POP POP JUMP JUMPDEST PUSH1 0x0 DUP1 PUSH1 0x0 PUSH1 0x60 DUP5 DUP7 SUB SLT ISZERO PUSH2 0x1AB4 JUMPI PUSH2 0x1AB3 PUSH2 0x1790 JUMP JUMPDEST JUMPDEST PUSH1 0x0 DUP5 ADD CALLDATALOAD PUSH8 0xFFFFFFFFFFFFFFFF DUP2 GT ISZERO PUSH2 0x1AD2 JUMPI PUSH2 0x1AD1 PUSH2 0x1795 JUMP JUMPDEST JUMPDEST PUSH2 0x1ADE DUP7 DUP3 DUP8 ADD PUSH2 0x18B2 JUMP JUMPDEST SWAP4 POP POP PUSH1 0x20 DUP5 ADD CALLDATALOAD PUSH8 0xFFFFFFFFFFFFFFFF DUP2 GT ISZERO PUSH2 0x1AFF JUMPI PUSH2 0x1AFE PUSH2 0x1795 JUMP JUMPDEST JUMPDEST PUSH2 0x1B0B DUP7 DUP3 DUP8 ADD PUSH2 0x18B2 JUMP JUMPDEST SWAP3 POP POP PUSH1 0x40 PUSH2 0x1B1C DUP7 DUP3 DUP8 ADD PUSH2 0x1A86 JUMP JUMPDEST SWAP2 POP POP SWAP3 POP SWAP3 POP SWAP3 JUMP JUMPDEST PUSH1 0x0 DUP1 REVERT JUMPDEST PUSH1 0x0 DUP1 REVERT JUMPDEST PUSH1 0x0 DUP1 DUP4 PUSH1 0x1F DUP5 ADD SLT PUSH2 0x1B46 JUMPI PUSH2 0x1B45 PUSH2 0x179A JUMP JUMPDEST JUMPDEST DUP3 CALLDATALOAD SWAP1 POP PUSH8 0xFFFFFFFFFFFFFFFF DUP2 GT ISZERO PUSH2 0x1B63 JUMPI PUSH2 0x1B62 PUSH2 0x1B26 JUMP JUMPDEST JUMPDEST PUSH1 0x20 DUP4 ADD SWAP2 POP DUP4 PUSH1 0x1 DUP3 MUL DUP4 ADD GT ISZERO PUSH2 0x1B7F JUMPI PUSH2 0x1B7E PUSH2 0x1B2B JUMP JUMPDEST JUMPDEST SWAP3 POP SWAP3 SWAP1 POP JUMP JUMPDEST PUSH1 0x0 DUP1 PUSH1 0x20 DUP4 DUP6 SUB SLT ISZERO PUSH2 0x1B9D JUMPI PUSH2 0x1B9C PUSH2 0x1790 JUMP JUMPDEST JUMPDEST PUSH1 0x0 DUP4 ADD CALLDATALOAD PUSH8 0xFFFFFFFFFFFFFFFF DUP2 GT ISZERO PUSH2 0x1BBB JUMPI PUSH2 0x1BBA PUSH2 0x1795 JUMP JUMPDEST JUMPDEST PUSH2 0x1BC7 DUP6 DUP3 DUP7 ADD PUSH2 0x1B30 JUMP JUMPDEST SWAP3 POP SWAP3 POP POP SWAP3 POP SWAP3 SWAP1 POP JUMP JUMPDEST PUSH1 0x0 PUSH1 0x20 DUP3 DUP5 SUB SLT ISZERO PUSH2 0x1BE9 JUMPI PUSH2 0x1BE8 PUSH2 0x1790 JUMP JUMPDEST JUMPDEST PUSH1 0x0 DUP3 ADD CALLDATALOAD PUSH8 0xFFFFFFFFFFFFFFFF DUP2 GT ISZERO PUSH2 0x1C07 JUMPI PUSH2 0x1C06 PUSH2 0x1795 JUMP JUMPDEST JUMPDEST PUSH2 0x1C13 DUP5 DUP3 DUP6 ADD PUSH2 0x18B2 JUMP JUMPDEST SWAP2 POP POP SWAP3 SWAP2 POP POP JUMP JUMPDEST PUSH2 0x1C25 DUP2 PUSH2 0x18E0 JUMP JUMPDEST DUP3 MSTORE POP POP JUMP JUMPDEST PUSH1 0x0 PUSH1 0x20 DUP3 ADD SWAP1 POP PUSH2 0x1C40 PUSH1 0x0 DUP4 ADD DUP5 PUSH2 0x1C1C JUMP JUMPDEST SWAP3 SWAP2 POP POP JUMP JUMPDEST PUSH1 0x0 PUSH8 0xFFFFFFFFFFFFFFFF DUP3 GT ISZERO PUSH2 0x1C61 JUMPI PUSH2 0x1C60 PUSH2 0x17B5 JUMP JUMPDEST JUMPDEST PUSH2 0x1C6A DUP3 PUSH2 0x17A4 JUMP JUMPDEST SWAP1 POP PUSH1 0x20 DUP2 ADD SWAP1 POP SWAP2 SWAP1 POP JUMP JUMPDEST PUSH1 0x0 PUSH2 0x1C8A PUSH2 0x1C85 DUP5 PUSH2 0x1C46 JUMP JUMPDEST PUSH2 0x1815 JUMP JUMPDEST SWAP1 POP DUP3 DUP2 MSTORE PUSH1 0x20 DUP2 ADD DUP5 DUP5 DUP5 ADD GT ISZERO PUSH2 0x1CA6 JUMPI PUSH2 0x1CA5 PUSH2 0x179F JUMP JUMPDEST JUMPDEST PUSH2 0x1CB1 DUP5 DUP3 DUP6 PUSH2 0x1861 JUMP JUMPDEST POP SWAP4 SWAP3 POP POP POP JUMP JUMPDEST PUSH1 0x0 DUP3 PUSH1 0x1F DUP4 ADD SLT PUSH2 0x1CCE JUMPI PUSH2 0x1CCD PUSH2 0x179A JUMP JUMPDEST JUMPDEST DUP2 CALLDATALOAD PUSH2 0x1CDE DUP5 DUP3 PUSH1 0x20 DUP7 ADD PUSH2 0x1C77 JUMP JUMPDEST SWAP2 POP POP SWAP3 SWAP2 POP POP JUMP JUMPDEST PUSH1 0x0 PUSH1 0x20 DUP3 DUP5 SUB SLT ISZERO PUSH2 0x1CFD JUMPI PUSH2 0x1CFC PUSH2 0x1790 JUMP JUMPDEST JUMPDEST PUSH1 0x0 DUP3 ADD CALLDATALOAD PUSH8 0xFFFFFFFFFFFFFFFF DUP2 GT ISZERO PUSH2 0x1D1B JUMPI PUSH2 0x1D1A PUSH2 0x1795 JUMP JUMPDEST JUMPDEST PUSH2 0x1D27 DUP5 DUP3 DUP6 ADD PUSH2 0x1CB9 JUMP JUMPDEST SWAP2 POP POP SWAP3 SWAP2 POP POP JUMP JUMPDEST PUSH1 0x0 DUP2 ISZERO ISZERO SWAP1 POP SWAP2 SWAP1 POP JUMP JUMPDEST PUSH2 0x1D45 DUP2 PUSH2 0x1D30 JUMP JUMPDEST DUP3 MSTORE POP POP JUMP JUMPDEST PUSH1 0x0 DUP2 MLOAD SWAP1 POP SWAP2 SWAP1 POP JUMP JUMPDEST PUSH1 0x0 DUP3 DUP3 MSTORE PUSH1 0x20 DUP3 ADD SWAP1 POP SWAP3 SWAP2 POP POP JUMP JUMPDEST PUSH1 0x0 PUSH2 0x1D72 DUP3 PUSH2 0x1D4B JUMP JUMPDEST PUSH2 0x1D7C DUP2 DUP6 PUSH2 0x1D56 JUMP JUMPDEST SWAP4 POP PUSH2 0x1D8C DUP2 DUP6 PUSH1 0x20 DUP7 ADD PUSH2 0x19EA JUMP JUMPDEST PUSH2 0x1D95 DUP2 PUSH2 0x17A4 JUMP JUMPDEST DUP5 ADD SWAP2 POP POP SWAP3 SWAP2 POP POP JUMP JUMPDEST PUSH1 0x0 PUSH1 0x40 DUP3 ADD SWAP1 POP PUSH2 0x1DB5 PUSH1 0x0 DUP4 ADD DUP6 PUSH2 0x1D3C JUMP JUMPDEST DUP2 DUP2 SUB PUSH1 0x20 DUP4 ADD MSTORE PUSH2 0x1DC7 DUP2 DUP5 PUSH2 0x1D67 JUMP JUMPDEST SWAP1 POP SWAP4 SWAP3 POP POP POP JUMP JUMPDEST PUSH1 0x0 DUP1 PUSH1 0x0 DUP1 PUSH1 0x80 DUP6 DUP8 SUB SLT ISZERO PUSH2 0x1DEA JUMPI PUSH2 0x1DE9 PUSH2 0x1790 JUMP JUMPDEST JUMPDEST PUSH1 0x0 DUP6 ADD CALLDATALOAD PUSH8 0xFFFFFFFFFFFFFFFF DUP2 GT ISZERO PUSH2 0x1E08 JUMPI PUSH2 0x1E07 PUSH2 0x1795 JUMP JUMPDEST JUMPDEST PUSH2 0x1E14 DUP8 DUP3 DUP9 ADD PUSH2 0x18B2 JUMP JUMPDEST SWAP5 POP POP PUSH1 0x20 DUP6 ADD CALLDATALOAD PUSH8 0xFFFFFFFFFFFFFFFF DUP2 GT ISZERO PUSH2 0x1E35 JUMPI PUSH2 0x1E34 PUSH2 0x1795 JUMP JUMPDEST JUMPDEST PUSH2 0x1E41 DUP8 DUP3 DUP9 ADD PUSH2 0x18B2 JUMP JUMPDEST SWAP4 POP POP PUSH1 0x40 PUSH2 0x1E52 DUP8 DUP3 DUP9 ADD PUSH2 0x1901 JUMP JUMPDEST SWAP3 POP POP PUSH1 0x60 PUSH2 0x1E63 DUP8 DUP3 DUP9 ADD PUSH2 0x1901 JUMP JUMPDEST SWAP2 POP POP SWAP3 SWAP6 SWAP2 SWAP5 POP SWAP3 POP JUMP JUMPDEST PUSH32 0x4E487B7100000000000000000000000000000000000000000000000000000000 PUSH1 0x0 MSTORE PUSH1 0x21 PUSH1 0x4 MSTORE PUSH1 0x24 PUSH1 0x0 REVERT JUMPDEST PUSH1 0x2 DUP2 LT PUSH2 0x1EAF JUMPI PUSH2 0x1EAE PUSH2 0x1E6F JUMP JUMPDEST JUMPDEST POP JUMP JUMPDEST PUSH1 0x0 DUP2 SWAP1 POP PUSH2 0x1EC0 DUP3 PUSH2 0x1E9E JUMP JUMPDEST SWAP2 SWAP1 POP JUMP JUMPDEST PUSH1 0x0 PUSH2 0x1ED0 DUP3 PUSH2 0x1EB2 JUMP JUMPDEST SWAP1 POP SWAP2 SWAP1 POP JUMP JUMPDEST PUSH2 0x1EE0 DUP2 PUSH2 0x1EC5 JUMP JUMPDEST DUP3 MSTORE POP POP JUMP JUMPDEST PUSH1 0x0 PUSH1 0x20 DUP3 ADD SWAP1 POP PUSH2 0x1EFB PUSH1 0x0 DUP4 ADD DUP5 PUSH2 0x1ED7 JUMP JUMPDEST SWAP3 SWAP2 POP POP JUMP JUMPDEST PUSH1 0x0 DUP2 SWAP1 POP SWAP3 SWAP2 POP POP JUMP JUMPDEST PUSH1 0x0 PUSH2 0x1F17 DUP3 PUSH2 0x19CE JUMP JUMPDEST PUSH2 0x1F21 DUP2 DUP6 PUSH2 0x1F01 JUMP JUMPDEST SWAP4 POP PUSH2 0x1F31 DUP2 DUP6 PUSH1 0x20 DUP7 ADD PUSH2 0x19EA JUMP JUMPDEST DUP1 DUP5 ADD SWAP2 POP POP SWAP3 SWAP2 POP POP JUMP JUMPDEST PUSH1 0x0 PUSH2 0x1F49 DUP3 DUP5 PUSH2 0x1F0C JUMP JUMPDEST SWAP2 POP DUP2 SWAP1 POP SWAP3 SWAP2 POP POP JUMP JUMPDEST PUSH32 0x4E487B7100000000000000000000000000000000000000000000000000000000 PUSH1 0x0 MSTORE PUSH1 0x32 PUSH1 0x4 MSTORE PUSH1 0x24 PUSH1 0x0 REVERT JUMPDEST PUSH32 0x4E487B7100000000000000000000000000000000000000000000000000000000 PUSH1 0x0 MSTORE PUSH1 0x22 PUSH1 0x4 MSTORE PUSH1 0x24 PUSH1 0x0 REVERT JUMPDEST PUSH1 0x0 PUSH1 0x2 DUP3 DIV SWAP1 POP PUSH1 0x1 DUP3 AND DUP1 PUSH2 0x1FCA JUMPI PUSH1 0x7F DUP3 AND SWAP2 POP JUMPDEST PUSH1 0x20 DUP3 LT DUP2 SUB PUSH2 0x1FDD JUMPI PUSH2 0x1FDC PUSH2 0x1F83 JUMP JUMPDEST JUMPDEST POP SWAP2 SWAP1 POP JUMP JUMPDEST PUSH1 0x0 DUP2 SWAP1 POP DUP2 PUSH1 0x0 MSTORE PUSH1 0x20 PUSH1 0x0 KECCAK256 SWAP1 POP SWAP2 SWAP1 POP JUMP JUMPDEST PUSH1 0x0 PUSH1 0x20 PUSH1 0x1F DUP4 ADD DIV SWAP1 POP SWAP2 SWAP1 POP JUMP JUMPDEST PUSH1 0x0 DUP3 DUP3 SHL SWAP1 POP SWAP3 SWAP2 POP POP JUMP JUMPDEST PUSH1 0x0 PUSH1 0x8 DUP4 MUL PUSH2 0x2045 PUSH32 0xFFFFFFFFFFFFFFFFFFFFFFFFFFFFFFFFFFFFFFFFFFFFFFFFFFFFFFFFFFFFFFFF DUP3 PUSH2 0x2008 JUMP JUMPDEST PUSH2 0x204F DUP7 DUP4 PUSH2 0x2008 JUMP JUMPDEST SWAP6 POP DUP1 NOT DUP5 AND SWAP4 POP DUP1 DUP7 AND DUP5 OR SWAP3 POP POP POP SWAP4 SWAP3 POP POP POP JUMP JUMPDEST PUSH1 0x0 DUP2 SWAP1 POP SWAP2 SWAP1 POP JUMP JUMPDEST PUSH1 0x0 PUSH2 0x208C PUSH2 0x2087 PUSH2 0x2082 DUP5 PUSH2 0x18E0 JUMP JUMPDEST PUSH2 0x2067 JUMP JUMPDEST PUSH2 0x18E0 JUMP JUMPDEST SWAP1 POP SWAP2 SWAP1 POP JUMP JUMPDEST PUSH1 0x0 DUP2 SWAP1 POP SWAP2 SWAP1 POP JUMP JUMPDEST PUSH2 0x20A6 DUP4 PUSH2 0x2071 JUMP JUMPDEST PUSH2 0x20BA PUSH2 0x20B2 DUP3 PUSH2 0x2093 JUMP JUMPDEST DUP5 DUP5 SLOAD PUSH2 0x2015 JUMP JUMPDEST DUP3 SSTORE POP POP POP POP JUMP JUMPDEST PUSH1 0x0 SWAP1 JUMP JUMPDEST PUSH2 0x20CF PUSH2 0x20C2 JUMP JUMPDEST PUSH2 0x20DA DUP2 DUP5 DUP5 PUSH2 0x209D JUMP JUMPDEST POP POP POP JUMP JUMPDEST JUMPDEST DUP2 DUP2 LT ISZERO PUSH2 0x20FE JUMPI PUSH2 0x20F3 PUSH1 0x0 DUP3 PUSH2 0x20C7 JUMP JUMPDEST PUSH1 0x1 DUP2 ADD SWAP1 POP PUSH2 0x20E0 JUMP JUMPDEST POP POP JUMP JUMPDEST PUSH1 0x1F DUP3 GT ISZERO PUSH2 0x2143 JUMPI PUSH2 0x2114 DUP2 PUSH2 0x1FE3 JUMP JUMPDEST PUSH2 0x211D DUP5 PUSH2 0x1FF8 JUMP JUMPDEST DUP2 ADD PUSH1 0x20 DUP6 LT ISZERO PUSH2 0x212C JUMPI DUP2 SWAP1 POP JUMPDEST PUSH2 0x2140 PUSH2 0x2138 DUP6 PUSH2 0x1FF8 JUMP JUMPDEST DUP4 ADD DUP3 PUSH2 0x20DF JUMP JUMPDEST POP POP JUMPDEST POP POP POP JUMP JUMPDEST PUSH1 0x0 DUP3 DUP3 SHR SWAP1 POP SWAP3 SWAP2 POP POP JUMP JUMPDEST PUSH1 0x0 PUSH2 0x2166 PUSH1 0x0 NOT DUP5 PUSH1 0x8 MUL PUSH2 0x2148 JUMP JUMPDEST NOT DUP1 DUP4 AND SWAP2 POP POP SWAP3 SWAP2 POP POP JUMP JUMPDEST PUSH1 0x0 PUSH2 0x217F DUP4 DUP4 PUSH2 0x2155 JUMP JUMPDEST SWAP2 POP DUP3 PUSH1 0x2 MUL DUP3 OR SWAP1 POP SWAP3 SWAP2 POP POP JUMP JUMPDEST PUSH2 0x2198 DUP3 PUSH2 0x19CE JUMP JUMPDEST PUSH8 0xFFFFFFFFFFFFFFFF DUP2 GT ISZERO PUSH2 0x21B1 JUMPI PUSH2 0x21B0 PUSH2 0x17B5 JUMP JUMPDEST JUMPDEST PUSH2 0x21BB DUP3 SLOAD PUSH2 0x1FB2 JUMP JUMPDEST PUSH2 0x21C6 DUP3 DUP3 DUP6 PUSH2 0x2102 JUMP JUMPDEST PUSH1 0x0 PUSH1 0x20 SWAP1 POP PUSH1 0x1F DUP4 GT PUSH1 0x1 DUP2 EQ PUSH2 0x21F9 JUMPI PUSH1 0x0 DUP5 ISZERO PUSH2 0x21E7 JUMPI DUP3 DUP8 ADD MLOAD SWAP1 POP JUMPDEST PUSH2 0x21F1 DUP6 DUP3 PUSH2 0x2173 JUMP JUMPDEST DUP7 SSTORE POP PUSH2 0x2259 JUMP JUMPDEST PUSH1 0x1F NOT DUP5 AND PUSH2 0x2207 DUP7 PUSH2 0x1FE3 JUMP JUMPDEST PUSH1 0x0 JUMPDEST DUP3 DUP2 LT ISZERO PUSH2 0x222F JUMPI DUP5 DUP10 ADD MLOAD DUP3 SSTORE PUSH1 0x1 DUP3 ADD SWAP2 POP PUSH1 0x20 DUP6 ADD SWAP5 POP PUSH1 0x20 DUP2 ADD SWAP1 POP PUSH2 0x220A JUMP JUMPDEST DUP7 DUP4 LT ISZERO PUSH2 0x224C JUMPI DUP5 DUP10 ADD MLOAD PUSH2 0x2248 PUSH1 0x1F DUP10 AND DUP3 PUSH2 0x2155 JUMP JUMPDEST DUP4 SSTORE POP JUMPDEST PUSH1 0x1 PUSH1 0x2 DUP9 MUL ADD DUP9 SSTORE POP POP POP JUMPDEST POP POP POP POP POP POP JUMP JUMPDEST PUSH32 0x4E487B7100000000000000000000000000000000000000000000000000000000 PUSH1 0x0 MSTORE PUSH1 0x11 PUSH1 0x4 MSTORE PUSH1 0x24 PUSH1 0x0 REVERT JUMPDEST PUSH1 0x0 PUSH2 0x229B DUP3 PUSH2 0x18E0 JUMP JUMPDEST SWAP2 POP PUSH32 0xFFFFFFFFFFFFFFFFFFFFFFFFFFFFFFFFFFFFFFFFFFFFFFFFFFFFFFFFFFFFFFFF DUP3 SUB PUSH2 0x22CD JUMPI PUSH2 0x22CC PUSH2 0x2261 JUMP JUMPDEST JUMPDEST PUSH1 0x1 DUP3 ADD SWAP1 POP SWAP2 SWAP1 POP JUMP JUMPDEST PUSH32 0x4E487B7100000000000000000000000000000000000000000000000000000000 PUSH1 0x0 MSTORE PUSH1 0x12 PUSH1 0x4 MSTORE PUSH1 0x24 PUSH1 0x0 REVERT JUMPDEST PUSH1 0x0 PUSH2 0x2312 DUP3 PUSH2 0x18E0 JUMP JUMPDEST SWAP2 POP PUSH2 0x231D DUP4 PUSH2 0x18E0 JUMP JUMPDEST SWAP3 POP DUP3 PUSH2 0x232D JUMPI PUSH2 0x232C PUSH2 0x22D8 JUMP JUMPDEST JUMPDEST DUP3 DUP3 DIV SWAP1 POP SWAP3 SWAP2 POP POP JUMP JUMPDEST PUSH1 0x0 DUP2 SWAP1 POP SWAP3 SWAP2 POP POP JUMP JUMPDEST POP JUMP JUMPDEST PUSH1 0x0 PUSH2 0x2353 PUSH1 0x0 DUP4 PUSH2 0x2338 JUMP JUMPDEST SWAP2 POP PUSH2 0x235E DUP3 PUSH2 0x2343 JUMP JUMPDEST PUSH1 0x0 DUP3 ADD SWAP1 POP SWAP2 SWAP1 POP JUMP JUMPDEST PUSH1 0x0 PUSH2 0x2374 DUP3 PUSH2 0x2346 JUMP JUMPDEST SWAP2 POP DUP2 SWAP1 POP SWAP2 SWAP1 POP JUMP INVALID LOG2 PUSH5 0x6970667358 0x22 SLT KECCAK256 0xDF 0xB4 0xDD CALLDATALOAD PUSH25 0xA754808D1997486141F783153CFA883564E54AE56FC54DDE93 SAR SLT PUSH5 0x736F6C6343 STOP ADDMOD GT STOP CALLER "},"gasEstimates":{"creation":{"codeDepositCost":"1828000","executionCost":"infinite","totalCost":"infinite"},"external":{"checkUpkeep(bytes)":"infinite","createSurvey(string,string,uint256,uint256)":"infinite","getCompanyId(string)":"infinite","getInterval()":"infinite","getLastTimeStamp(string)":"infinite","getOwner()":"2611","getPayoutPerPersonBySurveyId(string)":"infinite","getSurveyCreationFee()":"infinite","getSurveyPayoutAmount(string)":"infinite","getSurveyResponseData(string,uint256)":"infinite","getSurveyState(string)":"infinite","getSurveyTaker(string,uint256)":"infinite","performUpkeep(bytes)":"infinite","removeCompletedSurveys()":"infinite","sendUserSurveyData(string,string,address)":"infinite"},"internal":{"distributeFundsFromCompletedSurvey(uint256)":"infinite"}},"methodIdentifiers":{"checkUpkeep(bytes)":"6e04ff0d","createSurvey(string,string,uint256,uint256)":"ac9d6a2b","getCompanyId(string)":"e1744d72","getInterval()":"91ad27b4","getLastTimeStamp(string)":"653cba7d","getOwner()":"893d20e8","getPayoutPerPersonBySurveyId(string)":"e74b36df","getSurveyCreationFee()":"bab26fd2","getSurveyPayoutAmount(string)":"9759ac36","getSurveyResponseData(string,uint256)":"24405aa9","getSurveyState(string)":"b374ff29","getSurveyTaker(string,uint256)":"12998301","performUpkeep(bytes)":"4585e33b","removeCompletedSurveys()":"eb9992c3","sendUserSurveyData(string,string,address)":"24445aeb"}},"storageLayout":{"storage":[{"astId":62,"contract":"contracts/Surpay.sol:Surpay","label":"i_owner","offset":0,"slot":"0","type":"t_address"},{"astId":67,"contract":"contracts/Surpay.sol:Surpay","label":"s_surveys","offset":0,"slot":"1","type":"t_mapping(t_string_memory_ptr,t_struct(Survey)57_storage)"},{"astId":70,"contract":"contracts/Surpay.sol:Surpay","label":"s_completedSurveys","offset":0,"slot":"2","type":"t_array(t_string_storage)dyn_storage"}],"types":{"t_address":{"encoding":"inplace","label":"address","numberOfBytes":"20"},"t_address_payable":{"encoding":"inplace","label":"address payable","numberOfBytes":"20"},"t_array(t_address_payable)dyn_storage":{"base":"t_address_payable","encoding":"dynamic_array","label":"address payable[]","numberOfBytes":"32"},"t_array(t_string_storage)dyn_storage":{"base":"t_string_storage","encoding":"dynamic_array","label":"string[]","numberOfBytes":"32"},"t_enum(SurveyState)60":{"encoding":"inplace","label":"enum Surpay.SurveyState","numberOfBytes":"1"},"t_mapping(t_string_memory_ptr,t_struct(Survey)57_storage)":{"encoding":"mapping","key":"t_string_memory_ptr","label":"mapping(string => struct Surpay.Survey)","numberOfBytes":"32","value":"t_struct(Survey)57_storage"},"t_string_memory_ptr":{"encoding":"bytes","label":"string","numberOfBytes":"32"},"t_string_storage":{"encoding":"bytes","label":"string","numberOfBytes":"32"},"t_struct(Survey)57_storage":{"encoding":"inplace","label":"struct Surpay.Survey","members":[{"astId":37,"contract":"contracts/Surpay.sol:Surpay","label":"companyId","offset":0,"slot":"0","type":"t_string_storage"},{"astId":39,"contract":"contracts/Surpay.sol:Surpay","label":"companyAddress","offset":0,"slot":"1","type":"t_address"},{"astId":41,"contract":"contracts/Surpay.sol:Surpay","label":"totalPayoutAmount","offset":0,"slot":"2","type":"t_uint256"},{"astId":43,"contract":"contracts/Surpay.sol:Surpay","label":"numOfParticipantsDesired","offset":0,"slot":"3","type":"t_uint256"},{"astId":45,"contract":"contracts/Surpay.sol:Surpay","label":"numOfParticipantsFulfilled","offset":0,"slot":"4","type":"t_uint256"},{"astId":48,"contract":"contracts/Surpay.sol:Surpay","label":"surveyResponseData","offset":0,"slot":"5","type":"t_array(t_string_storage)dyn_storage"},{"astId":51,"contract":"contracts/Surpay.sol:Surpay","label":"surveyTakers","offset":0,"slot":"6","type":"t_array(t_address_payable)dyn_storage"},{"astId":53,"contract":"contracts/Surpay.sol:Surpay","label":"startTimeStamp","offset":0,"slot":"7","type":"t_uint256"},{"astId":56,"contract":"contracts/Surpay.sol:Surpay","label":"surveyState","offset":0,"slot":"8","type":"t_enum(SurveyState)60"}],"numberOfBytes":"288"},"t_uint256":{"encoding":"inplace","label":"uint256","numberOfBytes":"32"}}},"userdoc":{"kind":"user","methods":{},"version":1}}}}