{"contracts/Surpay.sol":{"Surpay":{"abi":[{"inputs":[{"internalType":"uint256","name":"_surveyCreationFee","type":"uint256"},{"internalType":"uint256","name":"_interval","type":"uint256"}],"stateMutability":"nonpayable","type":"constructor"},{"inputs":[],"name":"Surpay__MaximumRespondantsReached","type":"error"},{"inputs":[],"name":"Surpay__NotEnoughFunds","type":"error"},{"inputs":[],"name":"Surpay__NotOwner","type":"error"},{"inputs":[],"name":"Surpay__SurveyNotFound","type":"error"},{"inputs":[],"name":"Surpay__TransferFailed","type":"error"},{"inputs":[],"name":"Surpay__UpkeepNotNeeded","type":"error"},{"anonymous":false,"inputs":[{"indexed":true,"internalType":"string","name":"surveyId","type":"string"}],"name":"SurveyCompleted","type":"event"},{"anonymous":false,"inputs":[{"indexed":true,"internalType":"string","name":"surveyId","type":"string"}],"name":"SurveyCreated","type":"event"},{"anonymous":false,"inputs":[{"indexed":true,"internalType":"string","name":"surveyId","type":"string"}],"name":"SurveyTakersPaid","type":"event"},{"anonymous":false,"inputs":[{"indexed":true,"internalType":"address","name":"surveyTaker","type":"address"}],"name":"UserAddedToSurvey","type":"event"},{"inputs":[{"internalType":"bytes","name":"","type":"bytes"}],"name":"checkUpkeep","outputs":[{"internalType":"bool","name":"upkeepNeeded","type":"bool"},{"internalType":"bytes","name":"","type":"bytes"}],"stateMutability":"nonpayable","type":"function"},{"inputs":[{"internalType":"string","name":"_surveyId","type":"string"},{"internalType":"string","name":"_companyId","type":"string"},{"internalType":"uint256","name":"_totalPayoutAmount","type":"uint256"},{"internalType":"uint256","name":"_numOfParticipantsDesired","type":"uint256"}],"name":"createSurvey","outputs":[],"stateMutability":"payable","type":"function"},{"inputs":[{"internalType":"uint256","name":"index","type":"uint256"}],"name":"distributeFundsFromCompletedSurvey","outputs":[],"stateMutability":"nonpayable","type":"function"},{"inputs":[{"internalType":"string","name":"surveyId","type":"string"}],"name":"getAllSurveyResponseData","outputs":[{"internalType":"string[]","name":"","type":"string[]"}],"stateMutability":"view","type":"function"},{"inputs":[{"internalType":"string","name":"surveyId","type":"string"}],"name":"getCompanyId","outputs":[{"internalType":"string","name":"","type":"string"}],"stateMutability":"view","type":"function"},{"inputs":[],"name":"getInterval","outputs":[{"internalType":"uint256","name":"","type":"uint256"}],"stateMutability":"view","type":"function"},{"inputs":[{"internalType":"string","name":"surveyId","type":"string"}],"name":"getLastTimeStamp","outputs":[{"internalType":"uint256","name":"","type":"uint256"}],"stateMutability":"view","type":"function"},{"inputs":[],"name":"getOwner","outputs":[{"internalType":"address","name":"","type":"address"}],"stateMutability":"view","type":"function"},{"inputs":[{"internalType":"string","name":"surveyId","type":"string"}],"name":"getPayoutPerPersonBySurveyId","outputs":[{"internalType":"uint256","name":"","type":"uint256"}],"stateMutability":"view","type":"function"},{"inputs":[],"name":"getSurveyCreationFee","outputs":[{"internalType":"uint256","name":"","type":"uint256"}],"stateMutability":"view","type":"function"},{"inputs":[{"internalType":"string","name":"_surveyId","type":"string"}],"name":"getSurveyPayoutAmount","outputs":[{"internalType":"uint256","name":"","type":"uint256"}],"stateMutability":"view","type":"function"},{"inputs":[{"internalType":"string","name":"surveyId","type":"string"},{"internalType":"uint256","name":"responseIndex","type":"uint256"}],"name":"getSurveyResponseData","outputs":[{"internalType":"string","name":"","type":"string"}],"stateMutability":"view","type":"function"},{"inputs":[{"internalType":"string","name":"_surveyId","type":"string"}],"name":"getSurveyState","outputs":[{"internalType":"enum Surpay.SurveyState","name":"","type":"uint8"}],"stateMutability":"view","type":"function"},{"inputs":[{"internalType":"string","name":"surveyId","type":"string"},{"internalType":"uint256","name":"userIndex","type":"uint256"}],"name":"getSurveyTaker","outputs":[{"internalType":"address","name":"","type":"address"}],"stateMutability":"view","type":"function"},{"inputs":[{"internalType":"bytes","name":"","type":"bytes"}],"name":"performUpkeep","outputs":[],"stateMutability":"nonpayable","type":"function"},{"inputs":[],"name":"removeCompletedSurveys","outputs":[],"stateMutability":"nonpayable","type":"function"},{"inputs":[{"internalType":"string","name":"_surveyId","type":"string"},{"internalType":"string","name":"_surveyData","type":"string"},{"internalType":"address","name":"userAddress","type":"address"}],"name":"sendUserSurveyData","outputs":[],"stateMutability":"nonpayable","type":"function"}],"devdoc":{"kind":"dev","methods":{"checkUpkeep(bytes)":{"details":"Returns true only if there are any complete surveys."},"createSurvey(string,string,uint256,uint256)":{"details":"A survey can be created by anyone, but it must be calledwith the "},"distributeFundsFromCompletedSurvey(uint256)":{"details":"The index of s_completeSurveys is passed in from performUpkeep()."},"performUpkeep(bytes)":{"details":"chainlink automation. perform upkeep fires if checkUpkeep returnstrue."}},"version":1},"evm":{"bytecode":{"linkReferences":{},"object":"60c06040523480156200001157600080fd5b506040516200291b3803806200291b8339818101604052810190620000379190620000cf565b336000806101000a81548173ffffffffffffffffffffffffffffffffffffffff021916908373ffffffffffffffffffffffffffffffffffffffff16021790555081608081815250508060a08181525050505062000116565b600080fd5b6000819050919050565b620000a98162000094565b8114620000b557600080fd5b50565b600081519050620000c9816200009e565b92915050565b60008060408385031215620000e957620000e86200008f565b5b6000620000f985828601620000b8565b92505060206200010c85828601620000b8565b9150509250929050565b60805160a0516127d8620001436000396000610da9015260008181610e5b015261114d01526127d86000f3fe6080604052600436106100fe5760003560e01c806391ad27b411610095578063bab26fd211610064578063bab26fd214610373578063c3b9a2c81461039e578063e1744d72146103c7578063e74b36df14610404578063eb9992c314610441576100fe565b806391ad27b4146102b25780639759ac36146102dd578063ac9d6a2b1461031a578063b374ff2914610336576100fe565b806350597f8a116100d157806350597f8a146101cf578063653cba7d1461020c5780636e04ff0d14610249578063893d20e814610287576100fe565b8063129983011461010357806324405aa91461014057806324445aeb1461017d5780634585e33b146101a6575b600080fd5b34801561010f57600080fd5b5061012a60048036038101906101259190611bab565b610458565b6040516101379190611c48565b60405180910390f35b34801561014c57600080fd5b5061016760048036038101906101629190611bab565b610520565b6040516101749190611ce2565b60405180910390f35b34801561018957600080fd5b506101a4600480360381019061019f9190611d30565b610651565b005b3480156101b257600080fd5b506101cd60048036038101906101c89190611e1b565b6109b6565b005b3480156101db57600080fd5b506101f660048036038101906101f19190611e68565b610b71565b6040516102039190611fbd565b60405180910390f35b34801561021857600080fd5b50610233600480360381019061022e9190611e68565b610ccc565b6040516102409190611fee565b60405180910390f35b34801561025557600080fd5b50610270600480360381019061026b91906120aa565b610d57565b60405161027e929190612163565b60405180910390f35b34801561029357600080fd5b5061029c610d7c565b6040516102a99190611c48565b60405180910390f35b3480156102be57600080fd5b506102c7610da5565b6040516102d49190611fee565b60405180910390f35b3480156102e957600080fd5b5061030460048036038101906102ff9190611e68565b610dcd565b6040516103119190611fee565b60405180910390f35b610334600480360381019061032f9190612193565b610e58565b005b34801561034257600080fd5b5061035d60048036038101906103589190611e68565b6110b1565b60405161036a91906122a9565b60405180910390f35b34801561037f57600080fd5b50610388611149565b6040516103959190611fee565b60405180910390f35b3480156103aa57600080fd5b506103c560048036038101906103c091906122c4565b611171565b005b3480156103d357600080fd5b506103ee60048036038101906103e99190611e68565b611453565b6040516103fb9190611ce2565b60405180910390f35b34801561041057600080fd5b5061042b60048036038101906104269190611e68565b611506565b6040516104389190611fee565b60405180910390f35b34801561044d57600080fd5b506104566115bd565b005b60008060018460405161046b919061232d565b90815260200160405180910390206003015411156104e857600183604051610493919061232d565b908152602001604051809103902060060182815481106104b6576104b5612344565b5b9060005260206000200160009054906101000a900473ffffffffffffffffffffffffffffffffffffffff16905061051a565b6040517fb01e933700000000000000000000000000000000000000000000000000000000815260040160405180910390fd5b92915050565b60606000600184604051610534919061232d565b90815260200160405180910390206003015411156106195760018360405161055c919061232d565b9081526020016040518091039020600501828154811061057f5761057e612344565b5b906000526020600020018054610594906123a2565b80601f01602080910402602001604051908101604052809291908181526020018280546105c0906123a2565b801561060d5780601f106105e25761010080835404028352916020019161060d565b820191906000526020600020905b8154815290600101906020018083116105f057829003601f168201915b5050505050905061064b565b6040517fb01e933700000000000000000000000000000000000000000000000000000000815260040160405180910390fd5b92915050565b60008054906101000a900473ffffffffffffffffffffffffffffffffffffffff1673ffffffffffffffffffffffffffffffffffffffff163373ffffffffffffffffffffffffffffffffffffffff16146106d6576040517fba34867000000000000000000000000000000000000000000000000000000000815260040160405180910390fd5b6001836040516106e6919061232d565b908152602001604051809103902060040154600184604051610708919061232d565b908152602001604051809103902060030154111561097f57600183604051610730919061232d565b908152602001604051809103902060050182908060018154018082558091505060019003906000526020600020016000909190919091509081610773919061257f565b50600183604051610784919061232d565b9081526020016040518091039020600601819080600181540180825580915050600190039060005260206000200160009091909190916101000a81548173ffffffffffffffffffffffffffffffffffffffff021916908373ffffffffffffffffffffffffffffffffffffffff160217905550600183604051610806919061232d565b9081526020016040518091039020600401600081548092919061082890612680565b919050555060018360405161083d919061232d565b90815260200160405180910390206004015460018460405161085f919061232d565b908152602001604051809103902060030154036109375760018084604051610887919061232d565b908152602001604051809103902060080160006101000a81548160ff021916908360018111156108ba576108b9612232565b5b02179055506002839080600181540180825580915050600190039060005260206000200160009091909190915090816108f3919061257f565b5082604051610902919061232d565b60405180910390207fc9629617ac320e57fa622f79c211617de659a3b7cbdda927e47dea5e4c0ab4da60405160405180910390a25b8073ffffffffffffffffffffffffffffffffffffffff167f099cc064944e6569611b439843932fa853d46618d78ca5a8e3989bcc5614853d60405160405180910390a26109b1565b6040517f13c8108e00000000000000000000000000000000000000000000000000000000815260040160405180910390fd5b505050565b60006109d060405180602001604052806000815250610d57565b5090508015610b3a5760006002805480602002602001604051908101604052809291908181526020016000905b82821015610aa9578382906000526020600020018054610a1c906123a2565b80601f0160208091040260200160405190810160405280929190818152602001828054610a48906123a2565b8015610a955780601f10610a6a57610100808354040283529160200191610a95565b820191906000526020600020905b815481529060010190602001808311610a7857829003601f168201915b5050505050815260200190600101906109fd565b50505050905060005b8151811015610b3357610ac481611171565b818181518110610ad757610ad6612344565b5b6020026020010151604051610aec919061232d565b60405180910390207fa7998895d8d2e7856091bd8a5895a54d831c4d6c8bd8a8611ec2c1f873872fef60405160405180910390a28080610b2b90612680565b915050610ab2565b5050610b6c565b6040517fe47d1a5100000000000000000000000000000000000000000000000000000000815260040160405180910390fd5b505050565b60606000600183604051610b85919061232d565b9081526020016040518091039020600301541115610c9557600182604051610bad919061232d565b9081526020016040518091039020600501805480602002602001604051908101604052809291908181526020016000905b82821015610c8a578382906000526020600020018054610bfd906123a2565b80601f0160208091040260200160405190810160405280929190818152602001828054610c29906123a2565b8015610c765780601f10610c4b57610100808354040283529160200191610c76565b820191906000526020600020905b815481529060010190602001808311610c5957829003601f168201915b505050505081526020019060010190610bde565b505050509050610cc7565b6040517fb01e933700000000000000000000000000000000000000000000000000000000815260040160405180910390fd5b919050565b600080600183604051610cdf919061232d565b9081526020016040518091039020600301541115610d2057600182604051610d07919061232d565b9081526020016040518091039020600701549050610d52565b6040517fb01e933700000000000000000000000000000000000000000000000000000000815260040160405180910390fd5b919050565b6000606060006002805490501115610d725760019150610d77565b600091505b915091565b60008060009054906101000a900473ffffffffffffffffffffffffffffffffffffffff16905090565b60007f0000000000000000000000000000000000000000000000000000000000000000905090565b600080600183604051610de0919061232d565b9081526020016040518091039020600301541115610e2157600182604051610e08919061232d565b9081526020016040518091039020600201549050610e53565b6040517fb01e933700000000000000000000000000000000000000000000000000000000815260040160405180910390fd5b919050565b817f0000000000000000000000000000000000000000000000000000000000000000610e8491906126c8565b341015610ebd576040517fc09bb52500000000000000000000000000000000000000000000000000000000815260040160405180910390fd5b610ec5611801565b83816000018190525033816020019073ffffffffffffffffffffffffffffffffffffffff16908173ffffffffffffffffffffffffffffffffffffffff16815250508281604001818152505081816060018181525050428160e001818152505060008161010001906001811115610f3e57610f3d612232565b5b90816001811115610f5257610f51612232565b5b8152505080600186604051610f67919061232d565b90815260200160405180910390206000820151816000019081610f8a919061257f565b5060208201518160010160006101000a81548173ffffffffffffffffffffffffffffffffffffffff021916908373ffffffffffffffffffffffffffffffffffffffff16021790555060408201518160020155606082015181600301556080820151816004015560a082015181600501908051906020019061100c929190611875565b5060c08201518160060190805190602001906110299291906118ce565b5060e082015181600701556101008201518160080160006101000a81548160ff021916908360018111156110605761105f612232565b5b021790555090505084604051611076919061232d565b60405180910390207fcc65c6fb1d804ba1dc418f9e3659483d310357279f035d45b8ea484fd6fe4a2f60405160405180910390a25050505050565b6000806001836040516110c4919061232d565b9081526020016040518091039020600301541115611112576001826040516110ec919061232d565b908152602001604051809103902060080160009054906101000a900460ff169050611144565b6040517fb01e933700000000000000000000000000000000000000000000000000000000815260040160405180910390fd5b919050565b60007f0000000000000000000000000000000000000000000000000000000000000000905090565b60006002805480602002602001604051908101604052809291908181526020016000905b828210156112415783829060005260206000200180546111b4906123a2565b80601f01602080910402602001604051908101604052809291908181526020018280546111e0906123a2565b801561122d5780601f106112025761010080835404028352916020019161122d565b820191906000526020600020905b81548152906001019060200180831161121057829003601f168201915b505050505081526020019060010190611195565b5050505090506000600182848151811061125e5761125d612344565b5b6020026020010151604051611273919061232d565b908152602001604051809103902060040154600183858151811061129a57611299612344565b5b60200260200101516040516112af919061232d565b9081526020016040518091039020600201546112cb919061272b565b905060005b60018385815181106112e5576112e4612344565b5b60200260200101516040516112fa919061232d565b90815260200160405180910390206006018054905081101561144d574782101561143a576000600184868151811061133557611334612344565b5b602002602001015160405161134a919061232d565b9081526020016040518091039020600601828154811061136d5761136c612344565b5b9060005260206000200160009054906101000a900473ffffffffffffffffffffffffffffffffffffffff1673ffffffffffffffffffffffffffffffffffffffff16836040516113bb9061278d565b60006040518083038185875af1925050503d80600081146113f8576040519150601f19603f3d011682016040523d82523d6000602084013e6113fd565b606091505b5050905080611438576040517f09e6a19a00000000000000000000000000000000000000000000000000000000815260040160405180910390fd5b505b808061144590612680565b9150506112d0565b50505050565b6060600182604051611465919061232d565b90815260200160405180910390206000018054611481906123a2565b80601f01602080910402602001604051908101604052809291908181526020018280546114ad906123a2565b80156114fa5780601f106114cf576101008083540402835291602001916114fa565b820191906000526020600020905b8154815290600101906020018083116114dd57829003601f168201915b50505050509050919050565b600080600183604051611519919061232d565b908152602001604051809103902060030154111561158657600182604051611541919061232d565b908152602001604051809103902060030154600183604051611563919061232d565b90815260200160405180910390206002015461157f919061272b565b90506115b8565b6040517fb01e933700000000000000000000000000000000000000000000000000000000815260040160405180910390fd5b919050565b60008054906101000a900473ffffffffffffffffffffffffffffffffffffffff1673ffffffffffffffffffffffffffffffffffffffff163373ffffffffffffffffffffffffffffffffffffffff1614611642576040517fba34867000000000000000000000000000000000000000000000000000000000815260040160405180910390fd5b60006002805480602002602001604051908101604052809291908181526020016000905b82821015611712578382906000526020600020018054611685906123a2565b80601f01602080910402602001604051908101604052809291908181526020018280546116b1906123a2565b80156116fe5780601f106116d3576101008083540402835291602001916116fe565b820191906000526020600020905b8154815290600101906020018083116116e157829003601f168201915b505050505081526020019060010190611666565b50505050905060005b81518110156117fd57600182828151811061173957611738612344565b5b602002602001015160405161174e919061232d565b90815260200160405180910390206000808201600061176d9190611958565b6001820160006101000a81549073ffffffffffffffffffffffffffffffffffffffff02191690556002820160009055600382016000905560048201600090556005820160006117bc9190611998565b6006820160006117cc91906119b9565b60078201600090556008820160006101000a81549060ff0219169055505080806117f590612680565b91505061171b565b5050565b60405180610120016040528060608152602001600073ffffffffffffffffffffffffffffffffffffffff1681526020016000815260200160008152602001600081526020016060815260200160608152602001600081526020016000600181111561186f5761186e612232565b5b81525090565b8280548282559060005260206000209081019282156118bd579160200282015b828111156118bc5782518290816118ac919061257f565b5091602001919060010190611895565b5b5090506118ca91906119da565b5090565b828054828255906000526020600020908101928215611947579160200282015b828111156119465782518260006101000a81548173ffffffffffffffffffffffffffffffffffffffff021916908373ffffffffffffffffffffffffffffffffffffffff160217905550916020019190600101906118ee565b5b50905061195491906119fe565b5090565b508054611964906123a2565b6000825580601f106119765750611995565b601f01602090049060005260206000209081019061199491906119fe565b5b50565b50805460008255906000526020600020908101906119b691906119da565b50565b50805460008255906000526020600020908101906119d791906119fe565b50565b5b808211156119fa57600081816119f19190611958565b506001016119db565b5090565b5b80821115611a175760008160009055506001016119ff565b5090565b6000604051905090565b600080fd5b600080fd5b600080fd5b600080fd5b6000601f19601f8301169050919050565b7f4e487b7100000000000000000000000000000000000000000000000000000000600052604160045260246000fd5b611a8282611a39565b810181811067ffffffffffffffff82111715611aa157611aa0611a4a565b5b80604052505050565b6000611ab4611a1b565b9050611ac08282611a79565b919050565b600067ffffffffffffffff821115611ae057611adf611a4a565b5b611ae982611a39565b9050602081019050919050565b82818337600083830152505050565b6000611b18611b1384611ac5565b611aaa565b905082815260208101848484011115611b3457611b33611a34565b5b611b3f848285611af6565b509392505050565b600082601f830112611b5c57611b5b611a2f565b5b8135611b6c848260208601611b05565b91505092915050565b6000819050919050565b611b8881611b75565b8114611b9357600080fd5b50565b600081359050611ba581611b7f565b92915050565b60008060408385031215611bc257611bc1611a25565b5b600083013567ffffffffffffffff811115611be057611bdf611a2a565b5b611bec85828601611b47565b9250506020611bfd85828601611b96565b9150509250929050565b600073ffffffffffffffffffffffffffffffffffffffff82169050919050565b6000611c3282611c07565b9050919050565b611c4281611c27565b82525050565b6000602082019050611c5d6000830184611c39565b92915050565b600081519050919050565b600082825260208201905092915050565b60005b83811015611c9d578082015181840152602081019050611c82565b60008484015250505050565b6000611cb482611c63565b611cbe8185611c6e565b9350611cce818560208601611c7f565b611cd781611a39565b840191505092915050565b60006020820190508181036000830152611cfc8184611ca9565b905092915050565b611d0d81611c27565b8114611d1857600080fd5b50565b600081359050611d2a81611d04565b92915050565b600080600060608486031215611d4957611d48611a25565b5b600084013567ffffffffffffffff811115611d6757611d66611a2a565b5b611d7386828701611b47565b935050602084013567ffffffffffffffff811115611d9457611d93611a2a565b5b611da086828701611b47565b9250506040611db186828701611d1b565b9150509250925092565b600080fd5b600080fd5b60008083601f840112611ddb57611dda611a2f565b5b8235905067ffffffffffffffff811115611df857611df7611dbb565b5b602083019150836001820283011115611e1457611e13611dc0565b5b9250929050565b60008060208385031215611e3257611e31611a25565b5b600083013567ffffffffffffffff811115611e5057611e4f611a2a565b5b611e5c85828601611dc5565b92509250509250929050565b600060208284031215611e7e57611e7d611a25565b5b600082013567ffffffffffffffff811115611e9c57611e9b611a2a565b5b611ea884828501611b47565b91505092915050565b600081519050919050565b600082825260208201905092915050565b6000819050602082019050919050565b600082825260208201905092915050565b6000611ef982611c63565b611f038185611edd565b9350611f13818560208601611c7f565b611f1c81611a39565b840191505092915050565b6000611f338383611eee565b905092915050565b6000602082019050919050565b6000611f5382611eb1565b611f5d8185611ebc565b935083602082028501611f6f85611ecd565b8060005b85811015611fab5784840389528151611f8c8582611f27565b9450611f9783611f3b565b925060208a01995050600181019050611f73565b50829750879550505050505092915050565b60006020820190508181036000830152611fd78184611f48565b905092915050565b611fe881611b75565b82525050565b60006020820190506120036000830184611fdf565b92915050565b600067ffffffffffffffff82111561202457612023611a4a565b5b61202d82611a39565b9050602081019050919050565b600061204d61204884612009565b611aaa565b90508281526020810184848401111561206957612068611a34565b5b612074848285611af6565b509392505050565b600082601f83011261209157612090611a2f565b5b81356120a184826020860161203a565b91505092915050565b6000602082840312156120c0576120bf611a25565b5b600082013567ffffffffffffffff8111156120de576120dd611a2a565b5b6120ea8482850161207c565b91505092915050565b60008115159050919050565b612108816120f3565b82525050565b600081519050919050565b600082825260208201905092915050565b60006121358261210e565b61213f8185612119565b935061214f818560208601611c7f565b61215881611a39565b840191505092915050565b600060408201905061217860008301856120ff565b818103602083015261218a818461212a565b90509392505050565b600080600080608085870312156121ad576121ac611a25565b5b600085013567ffffffffffffffff8111156121cb576121ca611a2a565b5b6121d787828801611b47565b945050602085013567ffffffffffffffff8111156121f8576121f7611a2a565b5b61220487828801611b47565b935050604061221587828801611b96565b925050606061222687828801611b96565b91505092959194509250565b7f4e487b7100000000000000000000000000000000000000000000000000000000600052602160045260246000fd5b6002811061227257612271612232565b5b50565b600081905061228382612261565b919050565b600061229382612275565b9050919050565b6122a381612288565b82525050565b60006020820190506122be600083018461229a565b92915050565b6000602082840312156122da576122d9611a25565b5b60006122e884828501611b96565b91505092915050565b600081905092915050565b600061230782611c63565b61231181856122f1565b9350612321818560208601611c7f565b80840191505092915050565b600061233982846122fc565b915081905092915050565b7f4e487b7100000000000000000000000000000000000000000000000000000000600052603260045260246000fd5b7f4e487b7100000000000000000000000000000000000000000000000000000000600052602260045260246000fd5b600060028204905060018216806123ba57607f821691505b6020821081036123cd576123cc612373565b5b50919050565b60008190508160005260206000209050919050565b60006020601f8301049050919050565b600082821b905092915050565b6000600883026124357fffffffffffffffffffffffffffffffffffffffffffffffffffffffffffffffff826123f8565b61243f86836123f8565b95508019841693508086168417925050509392505050565b6000819050919050565b600061247c61247761247284611b75565b612457565b611b75565b9050919050565b6000819050919050565b61249683612461565b6124aa6124a282612483565b848454612405565b825550505050565b600090565b6124bf6124b2565b6124ca81848461248d565b505050565b5b818110156124ee576124e36000826124b7565b6001810190506124d0565b5050565b601f82111561253357612504816123d3565b61250d846123e8565b8101602085101561251c578190505b612530612528856123e8565b8301826124cf565b50505b505050565b600082821c905092915050565b600061255660001984600802612538565b1980831691505092915050565b600061256f8383612545565b9150826002028217905092915050565b61258882611c63565b67ffffffffffffffff8111156125a1576125a0611a4a565b5b6125ab82546123a2565b6125b68282856124f2565b600060209050601f8311600181146125e957600084156125d7578287015190505b6125e18582612563565b865550612649565b601f1984166125f7866123d3565b60005b8281101561261f578489015182556001820191506020850194506020810190506125fa565b8683101561263c5784890151612638601f891682612545565b8355505b6001600288020188555050505b505050505050565b7f4e487b7100000000000000000000000000000000000000000000000000000000600052601160045260246000fd5b600061268b82611b75565b91507fffffffffffffffffffffffffffffffffffffffffffffffffffffffffffffffff82036126bd576126bc612651565b5b600182019050919050565b60006126d382611b75565b91506126de83611b75565b92508282019050808211156126f6576126f5612651565b5b92915050565b7f4e487b7100000000000000000000000000000000000000000000000000000000600052601260045260246000fd5b600061273682611b75565b915061274183611b75565b925082612751576127506126fc565b5b828204905092915050565b600081905092915050565b50565b600061277760008361275c565b915061278282612767565b600082019050919050565b60006127988261276a565b915081905091905056fea2646970667358221220d18365c8a74aa3302bb88e99168d8a5ccd62dbbcaaf7c2d0c7d6bdb79143a19e64736f6c63430008110033","opcodes":"PUSH1 0xC0 PUSH1 0x40 MSTORE CALLVALUE DUP1 ISZERO PUSH3 0x11 JUMPI PUSH1 0x0 DUP1 REVERT JUMPDEST POP PUSH1 0x40 MLOAD PUSH3 0x291B CODESIZE SUB DUP1 PUSH3 0x291B DUP4 CODECOPY DUP2 DUP2 ADD PUSH1 0x40 MSTORE DUP2 ADD SWAP1 PUSH3 0x37 SWAP2 SWAP1 PUSH3 0xCF JUMP JUMPDEST CALLER PUSH1 0x0 DUP1 PUSH2 0x100 EXP DUP2 SLOAD DUP2 PUSH20 0xFFFFFFFFFFFFFFFFFFFFFFFFFFFFFFFFFFFFFFFF MUL NOT AND SWAP1 DUP4 PUSH20 0xFFFFFFFFFFFFFFFFFFFFFFFFFFFFFFFFFFFFFFFF AND MUL OR SWAP1 SSTORE POP DUP2 PUSH1 0x80 DUP2 DUP2 MSTORE POP POP DUP1 PUSH1 0xA0 DUP2 DUP2 MSTORE POP POP POP POP PUSH3 0x116 JUMP JUMPDEST PUSH1 0x0 DUP1 REVERT JUMPDEST PUSH1 0x0 DUP2 SWAP1 POP SWAP2 SWAP1 POP JUMP JUMPDEST PUSH3 0xA9 DUP2 PUSH3 0x94 JUMP JUMPDEST DUP2 EQ PUSH3 0xB5 JUMPI PUSH1 0x0 DUP1 REVERT JUMPDEST POP JUMP JUMPDEST PUSH1 0x0 DUP2 MLOAD SWAP1 POP PUSH3 0xC9 DUP2 PUSH3 0x9E JUMP JUMPDEST SWAP3 SWAP2 POP POP JUMP JUMPDEST PUSH1 0x0 DUP1 PUSH1 0x40 DUP4 DUP6 SUB SLT ISZERO PUSH3 0xE9 JUMPI PUSH3 0xE8 PUSH3 0x8F JUMP JUMPDEST JUMPDEST PUSH1 0x0 PUSH3 0xF9 DUP6 DUP3 DUP7 ADD PUSH3 0xB8 JUMP JUMPDEST SWAP3 POP POP PUSH1 0x20 PUSH3 0x10C DUP6 DUP3 DUP7 ADD PUSH3 0xB8 JUMP JUMPDEST SWAP2 POP POP SWAP3 POP SWAP3 SWAP1 POP JUMP JUMPDEST PUSH1 0x80 MLOAD PUSH1 0xA0 MLOAD PUSH2 0x27D8 PUSH3 0x143 PUSH1 0x0 CODECOPY PUSH1 0x0 PUSH2 0xDA9 ADD MSTORE PUSH1 0x0 DUP2 DUP2 PUSH2 0xE5B ADD MSTORE PUSH2 0x114D ADD MSTORE PUSH2 0x27D8 PUSH1 0x0 RETURN INVALID PUSH1 0x80 PUSH1 0x40 MSTORE PUSH1 0x4 CALLDATASIZE LT PUSH2 0xFE JUMPI PUSH1 0x0 CALLDATALOAD PUSH1 0xE0 SHR DUP1 PUSH4 0x91AD27B4 GT PUSH2 0x95 JUMPI DUP1 PUSH4 0xBAB26FD2 GT PUSH2 0x64 JUMPI DUP1 PUSH4 0xBAB26FD2 EQ PUSH2 0x373 JUMPI DUP1 PUSH4 0xC3B9A2C8 EQ PUSH2 0x39E JUMPI DUP1 PUSH4 0xE1744D72 EQ PUSH2 0x3C7 JUMPI DUP1 PUSH4 0xE74B36DF EQ PUSH2 0x404 JUMPI DUP1 PUSH4 0xEB9992C3 EQ PUSH2 0x441 JUMPI PUSH2 0xFE JUMP JUMPDEST DUP1 PUSH4 0x91AD27B4 EQ PUSH2 0x2B2 JUMPI DUP1 PUSH4 0x9759AC36 EQ PUSH2 0x2DD JUMPI DUP1 PUSH4 0xAC9D6A2B EQ PUSH2 0x31A JUMPI DUP1 PUSH4 0xB374FF29 EQ PUSH2 0x336 JUMPI PUSH2 0xFE JUMP JUMPDEST DUP1 PUSH4 0x50597F8A GT PUSH2 0xD1 JUMPI DUP1 PUSH4 0x50597F8A EQ PUSH2 0x1CF JUMPI DUP1 PUSH4 0x653CBA7D EQ PUSH2 0x20C JUMPI DUP1 PUSH4 0x6E04FF0D EQ PUSH2 0x249 JUMPI DUP1 PUSH4 0x893D20E8 EQ PUSH2 0x287 JUMPI PUSH2 0xFE JUMP JUMPDEST DUP1 PUSH4 0x12998301 EQ PUSH2 0x103 JUMPI DUP1 PUSH4 0x24405AA9 EQ PUSH2 0x140 JUMPI DUP1 PUSH4 0x24445AEB EQ PUSH2 0x17D JUMPI DUP1 PUSH4 0x4585E33B EQ PUSH2 0x1A6 JUMPI JUMPDEST PUSH1 0x0 DUP1 REVERT JUMPDEST CALLVALUE DUP1 ISZERO PUSH2 0x10F JUMPI PUSH1 0x0 DUP1 REVERT JUMPDEST POP PUSH2 0x12A PUSH1 0x4 DUP1 CALLDATASIZE SUB DUP2 ADD SWAP1 PUSH2 0x125 SWAP2 SWAP1 PUSH2 0x1BAB JUMP JUMPDEST PUSH2 0x458 JUMP JUMPDEST PUSH1 0x40 MLOAD PUSH2 0x137 SWAP2 SWAP1 PUSH2 0x1C48 JUMP JUMPDEST PUSH1 0x40 MLOAD DUP1 SWAP2 SUB SWAP1 RETURN JUMPDEST CALLVALUE DUP1 ISZERO PUSH2 0x14C JUMPI PUSH1 0x0 DUP1 REVERT JUMPDEST POP PUSH2 0x167 PUSH1 0x4 DUP1 CALLDATASIZE SUB DUP2 ADD SWAP1 PUSH2 0x162 SWAP2 SWAP1 PUSH2 0x1BAB JUMP JUMPDEST PUSH2 0x520 JUMP JUMPDEST PUSH1 0x40 MLOAD PUSH2 0x174 SWAP2 SWAP1 PUSH2 0x1CE2 JUMP JUMPDEST PUSH1 0x40 MLOAD DUP1 SWAP2 SUB SWAP1 RETURN JUMPDEST CALLVALUE DUP1 ISZERO PUSH2 0x189 JUMPI PUSH1 0x0 DUP1 REVERT JUMPDEST POP PUSH2 0x1A4 PUSH1 0x4 DUP1 CALLDATASIZE SUB DUP2 ADD SWAP1 PUSH2 0x19F SWAP2 SWAP1 PUSH2 0x1D30 JUMP JUMPDEST PUSH2 0x651 JUMP JUMPDEST STOP JUMPDEST CALLVALUE DUP1 ISZERO PUSH2 0x1B2 JUMPI PUSH1 0x0 DUP1 REVERT JUMPDEST POP PUSH2 0x1CD PUSH1 0x4 DUP1 CALLDATASIZE SUB DUP2 ADD SWAP1 PUSH2 0x1C8 SWAP2 SWAP1 PUSH2 0x1E1B JUMP JUMPDEST PUSH2 0x9B6 JUMP JUMPDEST STOP JUMPDEST CALLVALUE DUP1 ISZERO PUSH2 0x1DB JUMPI PUSH1 0x0 DUP1 REVERT JUMPDEST POP PUSH2 0x1F6 PUSH1 0x4 DUP1 CALLDATASIZE SUB DUP2 ADD SWAP1 PUSH2 0x1F1 SWAP2 SWAP1 PUSH2 0x1E68 JUMP JUMPDEST PUSH2 0xB71 JUMP JUMPDEST PUSH1 0x40 MLOAD PUSH2 0x203 SWAP2 SWAP1 PUSH2 0x1FBD JUMP JUMPDEST PUSH1 0x40 MLOAD DUP1 SWAP2 SUB SWAP1 RETURN JUMPDEST CALLVALUE DUP1 ISZERO PUSH2 0x218 JUMPI PUSH1 0x0 DUP1 REVERT JUMPDEST POP PUSH2 0x233 PUSH1 0x4 DUP1 CALLDATASIZE SUB DUP2 ADD SWAP1 PUSH2 0x22E SWAP2 SWAP1 PUSH2 0x1E68 JUMP JUMPDEST PUSH2 0xCCC JUMP JUMPDEST PUSH1 0x40 MLOAD PUSH2 0x240 SWAP2 SWAP1 PUSH2 0x1FEE JUMP JUMPDEST PUSH1 0x40 MLOAD DUP1 SWAP2 SUB SWAP1 RETURN JUMPDEST CALLVALUE DUP1 ISZERO PUSH2 0x255 JUMPI PUSH1 0x0 DUP1 REVERT JUMPDEST POP PUSH2 0x270 PUSH1 0x4 DUP1 CALLDATASIZE SUB DUP2 ADD SWAP1 PUSH2 0x26B SWAP2 SWAP1 PUSH2 0x20AA JUMP JUMPDEST PUSH2 0xD57 JUMP JUMPDEST PUSH1 0x40 MLOAD PUSH2 0x27E SWAP3 SWAP2 SWAP1 PUSH2 0x2163 JUMP JUMPDEST PUSH1 0x40 MLOAD DUP1 SWAP2 SUB SWAP1 RETURN JUMPDEST CALLVALUE DUP1 ISZERO PUSH2 0x293 JUMPI PUSH1 0x0 DUP1 REVERT JUMPDEST POP PUSH2 0x29C PUSH2 0xD7C JUMP JUMPDEST PUSH1 0x40 MLOAD PUSH2 0x2A9 SWAP2 SWAP1 PUSH2 0x1C48 JUMP JUMPDEST PUSH1 0x40 MLOAD DUP1 SWAP2 SUB SWAP1 RETURN JUMPDEST CALLVALUE DUP1 ISZERO PUSH2 0x2BE JUMPI PUSH1 0x0 DUP1 REVERT JUMPDEST POP PUSH2 0x2C7 PUSH2 0xDA5 JUMP JUMPDEST PUSH1 0x40 MLOAD PUSH2 0x2D4 SWAP2 SWAP1 PUSH2 0x1FEE JUMP JUMPDEST PUSH1 0x40 MLOAD DUP1 SWAP2 SUB SWAP1 RETURN JUMPDEST CALLVALUE DUP1 ISZERO PUSH2 0x2E9 JUMPI PUSH1 0x0 DUP1 REVERT JUMPDEST POP PUSH2 0x304 PUSH1 0x4 DUP1 CALLDATASIZE SUB DUP2 ADD SWAP1 PUSH2 0x2FF SWAP2 SWAP1 PUSH2 0x1E68 JUMP JUMPDEST PUSH2 0xDCD JUMP JUMPDEST PUSH1 0x40 MLOAD PUSH2 0x311 SWAP2 SWAP1 PUSH2 0x1FEE JUMP JUMPDEST PUSH1 0x40 MLOAD DUP1 SWAP2 SUB SWAP1 RETURN JUMPDEST PUSH2 0x334 PUSH1 0x4 DUP1 CALLDATASIZE SUB DUP2 ADD SWAP1 PUSH2 0x32F SWAP2 SWAP1 PUSH2 0x2193 JUMP JUMPDEST PUSH2 0xE58 JUMP JUMPDEST STOP JUMPDEST CALLVALUE DUP1 ISZERO PUSH2 0x342 JUMPI PUSH1 0x0 DUP1 REVERT JUMPDEST POP PUSH2 0x35D PUSH1 0x4 DUP1 CALLDATASIZE SUB DUP2 ADD SWAP1 PUSH2 0x358 SWAP2 SWAP1 PUSH2 0x1E68 JUMP JUMPDEST PUSH2 0x10B1 JUMP JUMPDEST PUSH1 0x40 MLOAD PUSH2 0x36A SWAP2 SWAP1 PUSH2 0x22A9 JUMP JUMPDEST PUSH1 0x40 MLOAD DUP1 SWAP2 SUB SWAP1 RETURN JUMPDEST CALLVALUE DUP1 ISZERO PUSH2 0x37F JUMPI PUSH1 0x0 DUP1 REVERT JUMPDEST POP PUSH2 0x388 PUSH2 0x1149 JUMP JUMPDEST PUSH1 0x40 MLOAD PUSH2 0x395 SWAP2 SWAP1 PUSH2 0x1FEE JUMP JUMPDEST PUSH1 0x40 MLOAD DUP1 SWAP2 SUB SWAP1 RETURN JUMPDEST CALLVALUE DUP1 ISZERO PUSH2 0x3AA JUMPI PUSH1 0x0 DUP1 REVERT JUMPDEST POP PUSH2 0x3C5 PUSH1 0x4 DUP1 CALLDATASIZE SUB DUP2 ADD SWAP1 PUSH2 0x3C0 SWAP2 SWAP1 PUSH2 0x22C4 JUMP JUMPDEST PUSH2 0x1171 JUMP JUMPDEST STOP JUMPDEST CALLVALUE DUP1 ISZERO PUSH2 0x3D3 JUMPI PUSH1 0x0 DUP1 REVERT JUMPDEST POP PUSH2 0x3EE PUSH1 0x4 DUP1 CALLDATASIZE SUB DUP2 ADD SWAP1 PUSH2 0x3E9 SWAP2 SWAP1 PUSH2 0x1E68 JUMP JUMPDEST PUSH2 0x1453 JUMP JUMPDEST PUSH1 0x40 MLOAD PUSH2 0x3FB SWAP2 SWAP1 PUSH2 0x1CE2 JUMP JUMPDEST PUSH1 0x40 MLOAD DUP1 SWAP2 SUB SWAP1 RETURN JUMPDEST CALLVALUE DUP1 ISZERO PUSH2 0x410 JUMPI PUSH1 0x0 DUP1 REVERT JUMPDEST POP PUSH2 0x42B PUSH1 0x4 DUP1 CALLDATASIZE SUB DUP2 ADD SWAP1 PUSH2 0x426 SWAP2 SWAP1 PUSH2 0x1E68 JUMP JUMPDEST PUSH2 0x1506 JUMP JUMPDEST PUSH1 0x40 MLOAD PUSH2 0x438 SWAP2 SWAP1 PUSH2 0x1FEE JUMP JUMPDEST PUSH1 0x40 MLOAD DUP1 SWAP2 SUB SWAP1 RETURN JUMPDEST CALLVALUE DUP1 ISZERO PUSH2 0x44D JUMPI PUSH1 0x0 DUP1 REVERT JUMPDEST POP PUSH2 0x456 PUSH2 0x15BD JUMP JUMPDEST STOP JUMPDEST PUSH1 0x0 DUP1 PUSH1 0x1 DUP5 PUSH1 0x40 MLOAD PUSH2 0x46B SWAP2 SWAP1 PUSH2 0x232D JUMP JUMPDEST SWAP1 DUP2 MSTORE PUSH1 0x20 ADD PUSH1 0x40 MLOAD DUP1 SWAP2 SUB SWAP1 KECCAK256 PUSH1 0x3 ADD SLOAD GT ISZERO PUSH2 0x4E8 JUMPI PUSH1 0x1 DUP4 PUSH1 0x40 MLOAD PUSH2 0x493 SWAP2 SWAP1 PUSH2 0x232D JUMP JUMPDEST SWAP1 DUP2 MSTORE PUSH1 0x20 ADD PUSH1 0x40 MLOAD DUP1 SWAP2 SUB SWAP1 KECCAK256 PUSH1 0x6 ADD DUP3 DUP2 SLOAD DUP2 LT PUSH2 0x4B6 JUMPI PUSH2 0x4B5 PUSH2 0x2344 JUMP JUMPDEST JUMPDEST SWAP1 PUSH1 0x0 MSTORE PUSH1 0x20 PUSH1 0x0 KECCAK256 ADD PUSH1 0x0 SWAP1 SLOAD SWAP1 PUSH2 0x100 EXP SWAP1 DIV PUSH20 0xFFFFFFFFFFFFFFFFFFFFFFFFFFFFFFFFFFFFFFFF AND SWAP1 POP PUSH2 0x51A JUMP JUMPDEST PUSH1 0x40 MLOAD PUSH32 0xB01E933700000000000000000000000000000000000000000000000000000000 DUP2 MSTORE PUSH1 0x4 ADD PUSH1 0x40 MLOAD DUP1 SWAP2 SUB SWAP1 REVERT JUMPDEST SWAP3 SWAP2 POP POP JUMP JUMPDEST PUSH1 0x60 PUSH1 0x0 PUSH1 0x1 DUP5 PUSH1 0x40 MLOAD PUSH2 0x534 SWAP2 SWAP1 PUSH2 0x232D JUMP JUMPDEST SWAP1 DUP2 MSTORE PUSH1 0x20 ADD PUSH1 0x40 MLOAD DUP1 SWAP2 SUB SWAP1 KECCAK256 PUSH1 0x3 ADD SLOAD GT ISZERO PUSH2 0x619 JUMPI PUSH1 0x1 DUP4 PUSH1 0x40 MLOAD PUSH2 0x55C SWAP2 SWAP1 PUSH2 0x232D JUMP JUMPDEST SWAP1 DUP2 MSTORE PUSH1 0x20 ADD PUSH1 0x40 MLOAD DUP1 SWAP2 SUB SWAP1 KECCAK256 PUSH1 0x5 ADD DUP3 DUP2 SLOAD DUP2 LT PUSH2 0x57F JUMPI PUSH2 0x57E PUSH2 0x2344 JUMP JUMPDEST JUMPDEST SWAP1 PUSH1 0x0 MSTORE PUSH1 0x20 PUSH1 0x0 KECCAK256 ADD DUP1 SLOAD PUSH2 0x594 SWAP1 PUSH2 0x23A2 JUMP JUMPDEST DUP1 PUSH1 0x1F ADD PUSH1 0x20 DUP1 SWAP2 DIV MUL PUSH1 0x20 ADD PUSH1 0x40 MLOAD SWAP1 DUP2 ADD PUSH1 0x40 MSTORE DUP1 SWAP3 SWAP2 SWAP1 DUP2 DUP2 MSTORE PUSH1 0x20 ADD DUP3 DUP1 SLOAD PUSH2 0x5C0 SWAP1 PUSH2 0x23A2 JUMP JUMPDEST DUP1 ISZERO PUSH2 0x60D JUMPI DUP1 PUSH1 0x1F LT PUSH2 0x5E2 JUMPI PUSH2 0x100 DUP1 DUP4 SLOAD DIV MUL DUP4 MSTORE SWAP2 PUSH1 0x20 ADD SWAP2 PUSH2 0x60D JUMP JUMPDEST DUP3 ADD SWAP2 SWAP1 PUSH1 0x0 MSTORE PUSH1 0x20 PUSH1 0x0 KECCAK256 SWAP1 JUMPDEST DUP2 SLOAD DUP2 MSTORE SWAP1 PUSH1 0x1 ADD SWAP1 PUSH1 0x20 ADD DUP1 DUP4 GT PUSH2 0x5F0 JUMPI DUP3 SWAP1 SUB PUSH1 0x1F AND DUP3 ADD SWAP2 JUMPDEST POP POP POP POP POP SWAP1 POP PUSH2 0x64B JUMP JUMPDEST PUSH1 0x40 MLOAD PUSH32 0xB01E933700000000000000000000000000000000000000000000000000000000 DUP2 MSTORE PUSH1 0x4 ADD PUSH1 0x40 MLOAD DUP1 SWAP2 SUB SWAP1 REVERT JUMPDEST SWAP3 SWAP2 POP POP JUMP JUMPDEST PUSH1 0x0 DUP1 SLOAD SWAP1 PUSH2 0x100 EXP SWAP1 DIV PUSH20 0xFFFFFFFFFFFFFFFFFFFFFFFFFFFFFFFFFFFFFFFF AND PUSH20 0xFFFFFFFFFFFFFFFFFFFFFFFFFFFFFFFFFFFFFFFF AND CALLER PUSH20 0xFFFFFFFFFFFFFFFFFFFFFFFFFFFFFFFFFFFFFFFF AND EQ PUSH2 0x6D6 JUMPI PUSH1 0x40 MLOAD PUSH32 0xBA34867000000000000000000000000000000000000000000000000000000000 DUP2 MSTORE PUSH1 0x4 ADD PUSH1 0x40 MLOAD DUP1 SWAP2 SUB SWAP1 REVERT JUMPDEST PUSH1 0x1 DUP4 PUSH1 0x40 MLOAD PUSH2 0x6E6 SWAP2 SWAP1 PUSH2 0x232D JUMP JUMPDEST SWAP1 DUP2 MSTORE PUSH1 0x20 ADD PUSH1 0x40 MLOAD DUP1 SWAP2 SUB SWAP1 KECCAK256 PUSH1 0x4 ADD SLOAD PUSH1 0x1 DUP5 PUSH1 0x40 MLOAD PUSH2 0x708 SWAP2 SWAP1 PUSH2 0x232D JUMP JUMPDEST SWAP1 DUP2 MSTORE PUSH1 0x20 ADD PUSH1 0x40 MLOAD DUP1 SWAP2 SUB SWAP1 KECCAK256 PUSH1 0x3 ADD SLOAD GT ISZERO PUSH2 0x97F JUMPI PUSH1 0x1 DUP4 PUSH1 0x40 MLOAD PUSH2 0x730 SWAP2 SWAP1 PUSH2 0x232D JUMP JUMPDEST SWAP1 DUP2 MSTORE PUSH1 0x20 ADD PUSH1 0x40 MLOAD DUP1 SWAP2 SUB SWAP1 KECCAK256 PUSH1 0x5 ADD DUP3 SWAP1 DUP1 PUSH1 0x1 DUP2 SLOAD ADD DUP1 DUP3 SSTORE DUP1 SWAP2 POP POP PUSH1 0x1 SWAP1 SUB SWAP1 PUSH1 0x0 MSTORE PUSH1 0x20 PUSH1 0x0 KECCAK256 ADD PUSH1 0x0 SWAP1 SWAP2 SWAP1 SWAP2 SWAP1 SWAP2 POP SWAP1 DUP2 PUSH2 0x773 SWAP2 SWAP1 PUSH2 0x257F JUMP JUMPDEST POP PUSH1 0x1 DUP4 PUSH1 0x40 MLOAD PUSH2 0x784 SWAP2 SWAP1 PUSH2 0x232D JUMP JUMPDEST SWAP1 DUP2 MSTORE PUSH1 0x20 ADD PUSH1 0x40 MLOAD DUP1 SWAP2 SUB SWAP1 KECCAK256 PUSH1 0x6 ADD DUP2 SWAP1 DUP1 PUSH1 0x1 DUP2 SLOAD ADD DUP1 DUP3 SSTORE DUP1 SWAP2 POP POP PUSH1 0x1 SWAP1 SUB SWAP1 PUSH1 0x0 MSTORE PUSH1 0x20 PUSH1 0x0 KECCAK256 ADD PUSH1 0x0 SWAP1 SWAP2 SWAP1 SWAP2 SWAP1 SWAP2 PUSH2 0x100 EXP DUP2 SLOAD DUP2 PUSH20 0xFFFFFFFFFFFFFFFFFFFFFFFFFFFFFFFFFFFFFFFF MUL NOT AND SWAP1 DUP4 PUSH20 0xFFFFFFFFFFFFFFFFFFFFFFFFFFFFFFFFFFFFFFFF AND MUL OR SWAP1 SSTORE POP PUSH1 0x1 DUP4 PUSH1 0x40 MLOAD PUSH2 0x806 SWAP2 SWAP1 PUSH2 0x232D JUMP JUMPDEST SWAP1 DUP2 MSTORE PUSH1 0x20 ADD PUSH1 0x40 MLOAD DUP1 SWAP2 SUB SWAP1 KECCAK256 PUSH1 0x4 ADD PUSH1 0x0 DUP2 SLOAD DUP1 SWAP3 SWAP2 SWAP1 PUSH2 0x828 SWAP1 PUSH2 0x2680 JUMP JUMPDEST SWAP2 SWAP1 POP SSTORE POP PUSH1 0x1 DUP4 PUSH1 0x40 MLOAD PUSH2 0x83D SWAP2 SWAP1 PUSH2 0x232D JUMP JUMPDEST SWAP1 DUP2 MSTORE PUSH1 0x20 ADD PUSH1 0x40 MLOAD DUP1 SWAP2 SUB SWAP1 KECCAK256 PUSH1 0x4 ADD SLOAD PUSH1 0x1 DUP5 PUSH1 0x40 MLOAD PUSH2 0x85F SWAP2 SWAP1 PUSH2 0x232D JUMP JUMPDEST SWAP1 DUP2 MSTORE PUSH1 0x20 ADD PUSH1 0x40 MLOAD DUP1 SWAP2 SUB SWAP1 KECCAK256 PUSH1 0x3 ADD SLOAD SUB PUSH2 0x937 JUMPI PUSH1 0x1 DUP1 DUP5 PUSH1 0x40 MLOAD PUSH2 0x887 SWAP2 SWAP1 PUSH2 0x232D JUMP JUMPDEST SWAP1 DUP2 MSTORE PUSH1 0x20 ADD PUSH1 0x40 MLOAD DUP1 SWAP2 SUB SWAP1 KECCAK256 PUSH1 0x8 ADD PUSH1 0x0 PUSH2 0x100 EXP DUP2 SLOAD DUP2 PUSH1 0xFF MUL NOT AND SWAP1 DUP4 PUSH1 0x1 DUP2 GT ISZERO PUSH2 0x8BA JUMPI PUSH2 0x8B9 PUSH2 0x2232 JUMP JUMPDEST JUMPDEST MUL OR SWAP1 SSTORE POP PUSH1 0x2 DUP4 SWAP1 DUP1 PUSH1 0x1 DUP2 SLOAD ADD DUP1 DUP3 SSTORE DUP1 SWAP2 POP POP PUSH1 0x1 SWAP1 SUB SWAP1 PUSH1 0x0 MSTORE PUSH1 0x20 PUSH1 0x0 KECCAK256 ADD PUSH1 0x0 SWAP1 SWAP2 SWAP1 SWAP2 SWAP1 SWAP2 POP SWAP1 DUP2 PUSH2 0x8F3 SWAP2 SWAP1 PUSH2 0x257F JUMP JUMPDEST POP DUP3 PUSH1 0x40 MLOAD PUSH2 0x902 SWAP2 SWAP1 PUSH2 0x232D JUMP JUMPDEST PUSH1 0x40 MLOAD DUP1 SWAP2 SUB SWAP1 KECCAK256 PUSH32 0xC9629617AC320E57FA622F79C211617DE659A3B7CBDDA927E47DEA5E4C0AB4DA PUSH1 0x40 MLOAD PUSH1 0x40 MLOAD DUP1 SWAP2 SUB SWAP1 LOG2 JUMPDEST DUP1 PUSH20 0xFFFFFFFFFFFFFFFFFFFFFFFFFFFFFFFFFFFFFFFF AND PUSH32 0x99CC064944E6569611B439843932FA853D46618D78CA5A8E3989BCC5614853D PUSH1 0x40 MLOAD PUSH1 0x40 MLOAD DUP1 SWAP2 SUB SWAP1 LOG2 PUSH2 0x9B1 JUMP JUMPDEST PUSH1 0x40 MLOAD PUSH32 0x13C8108E00000000000000000000000000000000000000000000000000000000 DUP2 MSTORE PUSH1 0x4 ADD PUSH1 0x40 MLOAD DUP1 SWAP2 SUB SWAP1 REVERT JUMPDEST POP POP POP JUMP JUMPDEST PUSH1 0x0 PUSH2 0x9D0 PUSH1 0x40 MLOAD DUP1 PUSH1 0x20 ADD PUSH1 0x40 MSTORE DUP1 PUSH1 0x0 DUP2 MSTORE POP PUSH2 0xD57 JUMP JUMPDEST POP SWAP1 POP DUP1 ISZERO PUSH2 0xB3A JUMPI PUSH1 0x0 PUSH1 0x2 DUP1 SLOAD DUP1 PUSH1 0x20 MUL PUSH1 0x20 ADD PUSH1 0x40 MLOAD SWAP1 DUP2 ADD PUSH1 0x40 MSTORE DUP1 SWAP3 SWAP2 SWAP1 DUP2 DUP2 MSTORE PUSH1 0x20 ADD PUSH1 0x0 SWAP1 JUMPDEST DUP3 DUP3 LT ISZERO PUSH2 0xAA9 JUMPI DUP4 DUP3 SWAP1 PUSH1 0x0 MSTORE PUSH1 0x20 PUSH1 0x0 KECCAK256 ADD DUP1 SLOAD PUSH2 0xA1C SWAP1 PUSH2 0x23A2 JUMP JUMPDEST DUP1 PUSH1 0x1F ADD PUSH1 0x20 DUP1 SWAP2 DIV MUL PUSH1 0x20 ADD PUSH1 0x40 MLOAD SWAP1 DUP2 ADD PUSH1 0x40 MSTORE DUP1 SWAP3 SWAP2 SWAP1 DUP2 DUP2 MSTORE PUSH1 0x20 ADD DUP3 DUP1 SLOAD PUSH2 0xA48 SWAP1 PUSH2 0x23A2 JUMP JUMPDEST DUP1 ISZERO PUSH2 0xA95 JUMPI DUP1 PUSH1 0x1F LT PUSH2 0xA6A JUMPI PUSH2 0x100 DUP1 DUP4 SLOAD DIV MUL DUP4 MSTORE SWAP2 PUSH1 0x20 ADD SWAP2 PUSH2 0xA95 JUMP JUMPDEST DUP3 ADD SWAP2 SWAP1 PUSH1 0x0 MSTORE PUSH1 0x20 PUSH1 0x0 KECCAK256 SWAP1 JUMPDEST DUP2 SLOAD DUP2 MSTORE SWAP1 PUSH1 0x1 ADD SWAP1 PUSH1 0x20 ADD DUP1 DUP4 GT PUSH2 0xA78 JUMPI DUP3 SWAP1 SUB PUSH1 0x1F AND DUP3 ADD SWAP2 JUMPDEST POP POP POP POP POP DUP2 MSTORE PUSH1 0x20 ADD SWAP1 PUSH1 0x1 ADD SWAP1 PUSH2 0x9FD JUMP JUMPDEST POP POP POP POP SWAP1 POP PUSH1 0x0 JUMPDEST DUP2 MLOAD DUP2 LT ISZERO PUSH2 0xB33 JUMPI PUSH2 0xAC4 DUP2 PUSH2 0x1171 JUMP JUMPDEST DUP2 DUP2 DUP2 MLOAD DUP2 LT PUSH2 0xAD7 JUMPI PUSH2 0xAD6 PUSH2 0x2344 JUMP JUMPDEST JUMPDEST PUSH1 0x20 MUL PUSH1 0x20 ADD ADD MLOAD PUSH1 0x40 MLOAD PUSH2 0xAEC SWAP2 SWAP1 PUSH2 0x232D JUMP JUMPDEST PUSH1 0x40 MLOAD DUP1 SWAP2 SUB SWAP1 KECCAK256 PUSH32 0xA7998895D8D2E7856091BD8A5895A54D831C4D6C8BD8A8611EC2C1F873872FEF PUSH1 0x40 MLOAD PUSH1 0x40 MLOAD DUP1 SWAP2 SUB SWAP1 LOG2 DUP1 DUP1 PUSH2 0xB2B SWAP1 PUSH2 0x2680 JUMP JUMPDEST SWAP2 POP POP PUSH2 0xAB2 JUMP JUMPDEST POP POP PUSH2 0xB6C JUMP JUMPDEST PUSH1 0x40 MLOAD PUSH32 0xE47D1A5100000000000000000000000000000000000000000000000000000000 DUP2 MSTORE PUSH1 0x4 ADD PUSH1 0x40 MLOAD DUP1 SWAP2 SUB SWAP1 REVERT JUMPDEST POP POP POP JUMP JUMPDEST PUSH1 0x60 PUSH1 0x0 PUSH1 0x1 DUP4 PUSH1 0x40 MLOAD PUSH2 0xB85 SWAP2 SWAP1 PUSH2 0x232D JUMP JUMPDEST SWAP1 DUP2 MSTORE PUSH1 0x20 ADD PUSH1 0x40 MLOAD DUP1 SWAP2 SUB SWAP1 KECCAK256 PUSH1 0x3 ADD SLOAD GT ISZERO PUSH2 0xC95 JUMPI PUSH1 0x1 DUP3 PUSH1 0x40 MLOAD PUSH2 0xBAD SWAP2 SWAP1 PUSH2 0x232D JUMP JUMPDEST SWAP1 DUP2 MSTORE PUSH1 0x20 ADD PUSH1 0x40 MLOAD DUP1 SWAP2 SUB SWAP1 KECCAK256 PUSH1 0x5 ADD DUP1 SLOAD DUP1 PUSH1 0x20 MUL PUSH1 0x20 ADD PUSH1 0x40 MLOAD SWAP1 DUP2 ADD PUSH1 0x40 MSTORE DUP1 SWAP3 SWAP2 SWAP1 DUP2 DUP2 MSTORE PUSH1 0x20 ADD PUSH1 0x0 SWAP1 JUMPDEST DUP3 DUP3 LT ISZERO PUSH2 0xC8A JUMPI DUP4 DUP3 SWAP1 PUSH1 0x0 MSTORE PUSH1 0x20 PUSH1 0x0 KECCAK256 ADD DUP1 SLOAD PUSH2 0xBFD SWAP1 PUSH2 0x23A2 JUMP JUMPDEST DUP1 PUSH1 0x1F ADD PUSH1 0x20 DUP1 SWAP2 DIV MUL PUSH1 0x20 ADD PUSH1 0x40 MLOAD SWAP1 DUP2 ADD PUSH1 0x40 MSTORE DUP1 SWAP3 SWAP2 SWAP1 DUP2 DUP2 MSTORE PUSH1 0x20 ADD DUP3 DUP1 SLOAD PUSH2 0xC29 SWAP1 PUSH2 0x23A2 JUMP JUMPDEST DUP1 ISZERO PUSH2 0xC76 JUMPI DUP1 PUSH1 0x1F LT PUSH2 0xC4B JUMPI PUSH2 0x100 DUP1 DUP4 SLOAD DIV MUL DUP4 MSTORE SWAP2 PUSH1 0x20 ADD SWAP2 PUSH2 0xC76 JUMP JUMPDEST DUP3 ADD SWAP2 SWAP1 PUSH1 0x0 MSTORE PUSH1 0x20 PUSH1 0x0 KECCAK256 SWAP1 JUMPDEST DUP2 SLOAD DUP2 MSTORE SWAP1 PUSH1 0x1 ADD SWAP1 PUSH1 0x20 ADD DUP1 DUP4 GT PUSH2 0xC59 JUMPI DUP3 SWAP1 SUB PUSH1 0x1F AND DUP3 ADD SWAP2 JUMPDEST POP POP POP POP POP DUP2 MSTORE PUSH1 0x20 ADD SWAP1 PUSH1 0x1 ADD SWAP1 PUSH2 0xBDE JUMP JUMPDEST POP POP POP POP SWAP1 POP PUSH2 0xCC7 JUMP JUMPDEST PUSH1 0x40 MLOAD PUSH32 0xB01E933700000000000000000000000000000000000000000000000000000000 DUP2 MSTORE PUSH1 0x4 ADD PUSH1 0x40 MLOAD DUP1 SWAP2 SUB SWAP1 REVERT JUMPDEST SWAP2 SWAP1 POP JUMP JUMPDEST PUSH1 0x0 DUP1 PUSH1 0x1 DUP4 PUSH1 0x40 MLOAD PUSH2 0xCDF SWAP2 SWAP1 PUSH2 0x232D JUMP JUMPDEST SWAP1 DUP2 MSTORE PUSH1 0x20 ADD PUSH1 0x40 MLOAD DUP1 SWAP2 SUB SWAP1 KECCAK256 PUSH1 0x3 ADD SLOAD GT ISZERO PUSH2 0xD20 JUMPI PUSH1 0x1 DUP3 PUSH1 0x40 MLOAD PUSH2 0xD07 SWAP2 SWAP1 PUSH2 0x232D JUMP JUMPDEST SWAP1 DUP2 MSTORE PUSH1 0x20 ADD PUSH1 0x40 MLOAD DUP1 SWAP2 SUB SWAP1 KECCAK256 PUSH1 0x7 ADD SLOAD SWAP1 POP PUSH2 0xD52 JUMP JUMPDEST PUSH1 0x40 MLOAD PUSH32 0xB01E933700000000000000000000000000000000000000000000000000000000 DUP2 MSTORE PUSH1 0x4 ADD PUSH1 0x40 MLOAD DUP1 SWAP2 SUB SWAP1 REVERT JUMPDEST SWAP2 SWAP1 POP JUMP JUMPDEST PUSH1 0x0 PUSH1 0x60 PUSH1 0x0 PUSH1 0x2 DUP1 SLOAD SWAP1 POP GT ISZERO PUSH2 0xD72 JUMPI PUSH1 0x1 SWAP2 POP PUSH2 0xD77 JUMP JUMPDEST PUSH1 0x0 SWAP2 POP JUMPDEST SWAP2 POP SWAP2 JUMP JUMPDEST PUSH1 0x0 DUP1 PUSH1 0x0 SWAP1 SLOAD SWAP1 PUSH2 0x100 EXP SWAP1 DIV PUSH20 0xFFFFFFFFFFFFFFFFFFFFFFFFFFFFFFFFFFFFFFFF AND SWAP1 POP SWAP1 JUMP JUMPDEST PUSH1 0x0 PUSH32 0x0 SWAP1 POP SWAP1 JUMP JUMPDEST PUSH1 0x0 DUP1 PUSH1 0x1 DUP4 PUSH1 0x40 MLOAD PUSH2 0xDE0 SWAP2 SWAP1 PUSH2 0x232D JUMP JUMPDEST SWAP1 DUP2 MSTORE PUSH1 0x20 ADD PUSH1 0x40 MLOAD DUP1 SWAP2 SUB SWAP1 KECCAK256 PUSH1 0x3 ADD SLOAD GT ISZERO PUSH2 0xE21 JUMPI PUSH1 0x1 DUP3 PUSH1 0x40 MLOAD PUSH2 0xE08 SWAP2 SWAP1 PUSH2 0x232D JUMP JUMPDEST SWAP1 DUP2 MSTORE PUSH1 0x20 ADD PUSH1 0x40 MLOAD DUP1 SWAP2 SUB SWAP1 KECCAK256 PUSH1 0x2 ADD SLOAD SWAP1 POP PUSH2 0xE53 JUMP JUMPDEST PUSH1 0x40 MLOAD PUSH32 0xB01E933700000000000000000000000000000000000000000000000000000000 DUP2 MSTORE PUSH1 0x4 ADD PUSH1 0x40 MLOAD DUP1 SWAP2 SUB SWAP1 REVERT JUMPDEST SWAP2 SWAP1 POP JUMP JUMPDEST DUP2 PUSH32 0x0 PUSH2 0xE84 SWAP2 SWAP1 PUSH2 0x26C8 JUMP JUMPDEST CALLVALUE LT ISZERO PUSH2 0xEBD JUMPI PUSH1 0x40 MLOAD PUSH32 0xC09BB52500000000000000000000000000000000000000000000000000000000 DUP2 MSTORE PUSH1 0x4 ADD PUSH1 0x40 MLOAD DUP1 SWAP2 SUB SWAP1 REVERT JUMPDEST PUSH2 0xEC5 PUSH2 0x1801 JUMP JUMPDEST DUP4 DUP2 PUSH1 0x0 ADD DUP2 SWAP1 MSTORE POP CALLER DUP2 PUSH1 0x20 ADD SWAP1 PUSH20 0xFFFFFFFFFFFFFFFFFFFFFFFFFFFFFFFFFFFFFFFF AND SWAP1 DUP2 PUSH20 0xFFFFFFFFFFFFFFFFFFFFFFFFFFFFFFFFFFFFFFFF AND DUP2 MSTORE POP POP DUP3 DUP2 PUSH1 0x40 ADD DUP2 DUP2 MSTORE POP POP DUP2 DUP2 PUSH1 0x60 ADD DUP2 DUP2 MSTORE POP POP TIMESTAMP DUP2 PUSH1 0xE0 ADD DUP2 DUP2 MSTORE POP POP PUSH1 0x0 DUP2 PUSH2 0x100 ADD SWAP1 PUSH1 0x1 DUP2 GT ISZERO PUSH2 0xF3E JUMPI PUSH2 0xF3D PUSH2 0x2232 JUMP JUMPDEST JUMPDEST SWAP1 DUP2 PUSH1 0x1 DUP2 GT ISZERO PUSH2 0xF52 JUMPI PUSH2 0xF51 PUSH2 0x2232 JUMP JUMPDEST JUMPDEST DUP2 MSTORE POP POP DUP1 PUSH1 0x1 DUP7 PUSH1 0x40 MLOAD PUSH2 0xF67 SWAP2 SWAP1 PUSH2 0x232D JUMP JUMPDEST SWAP1 DUP2 MSTORE PUSH1 0x20 ADD PUSH1 0x40 MLOAD DUP1 SWAP2 SUB SWAP1 KECCAK256 PUSH1 0x0 DUP3 ADD MLOAD DUP2 PUSH1 0x0 ADD SWAP1 DUP2 PUSH2 0xF8A SWAP2 SWAP1 PUSH2 0x257F JUMP JUMPDEST POP PUSH1 0x20 DUP3 ADD MLOAD DUP2 PUSH1 0x1 ADD PUSH1 0x0 PUSH2 0x100 EXP DUP2 SLOAD DUP2 PUSH20 0xFFFFFFFFFFFFFFFFFFFFFFFFFFFFFFFFFFFFFFFF MUL NOT AND SWAP1 DUP4 PUSH20 0xFFFFFFFFFFFFFFFFFFFFFFFFFFFFFFFFFFFFFFFF AND MUL OR SWAP1 SSTORE POP PUSH1 0x40 DUP3 ADD MLOAD DUP2 PUSH1 0x2 ADD SSTORE PUSH1 0x60 DUP3 ADD MLOAD DUP2 PUSH1 0x3 ADD SSTORE PUSH1 0x80 DUP3 ADD MLOAD DUP2 PUSH1 0x4 ADD SSTORE PUSH1 0xA0 DUP3 ADD MLOAD DUP2 PUSH1 0x5 ADD SWAP1 DUP1 MLOAD SWAP1 PUSH1 0x20 ADD SWAP1 PUSH2 0x100C SWAP3 SWAP2 SWAP1 PUSH2 0x1875 JUMP JUMPDEST POP PUSH1 0xC0 DUP3 ADD MLOAD DUP2 PUSH1 0x6 ADD SWAP1 DUP1 MLOAD SWAP1 PUSH1 0x20 ADD SWAP1 PUSH2 0x1029 SWAP3 SWAP2 SWAP1 PUSH2 0x18CE JUMP JUMPDEST POP PUSH1 0xE0 DUP3 ADD MLOAD DUP2 PUSH1 0x7 ADD SSTORE PUSH2 0x100 DUP3 ADD MLOAD DUP2 PUSH1 0x8 ADD PUSH1 0x0 PUSH2 0x100 EXP DUP2 SLOAD DUP2 PUSH1 0xFF MUL NOT AND SWAP1 DUP4 PUSH1 0x1 DUP2 GT ISZERO PUSH2 0x1060 JUMPI PUSH2 0x105F PUSH2 0x2232 JUMP JUMPDEST JUMPDEST MUL OR SWAP1 SSTORE POP SWAP1 POP POP DUP5 PUSH1 0x40 MLOAD PUSH2 0x1076 SWAP2 SWAP1 PUSH2 0x232D JUMP JUMPDEST PUSH1 0x40 MLOAD DUP1 SWAP2 SUB SWAP1 KECCAK256 PUSH32 0xCC65C6FB1D804BA1DC418F9E3659483D310357279F035D45B8EA484FD6FE4A2F PUSH1 0x40 MLOAD PUSH1 0x40 MLOAD DUP1 SWAP2 SUB SWAP1 LOG2 POP POP POP POP POP JUMP JUMPDEST PUSH1 0x0 DUP1 PUSH1 0x1 DUP4 PUSH1 0x40 MLOAD PUSH2 0x10C4 SWAP2 SWAP1 PUSH2 0x232D JUMP JUMPDEST SWAP1 DUP2 MSTORE PUSH1 0x20 ADD PUSH1 0x40 MLOAD DUP1 SWAP2 SUB SWAP1 KECCAK256 PUSH1 0x3 ADD SLOAD GT ISZERO PUSH2 0x1112 JUMPI PUSH1 0x1 DUP3 PUSH1 0x40 MLOAD PUSH2 0x10EC SWAP2 SWAP1 PUSH2 0x232D JUMP JUMPDEST SWAP1 DUP2 MSTORE PUSH1 0x20 ADD PUSH1 0x40 MLOAD DUP1 SWAP2 SUB SWAP1 KECCAK256 PUSH1 0x8 ADD PUSH1 0x0 SWAP1 SLOAD SWAP1 PUSH2 0x100 EXP SWAP1 DIV PUSH1 0xFF AND SWAP1 POP PUSH2 0x1144 JUMP JUMPDEST PUSH1 0x40 MLOAD PUSH32 0xB01E933700000000000000000000000000000000000000000000000000000000 DUP2 MSTORE PUSH1 0x4 ADD PUSH1 0x40 MLOAD DUP1 SWAP2 SUB SWAP1 REVERT JUMPDEST SWAP2 SWAP1 POP JUMP JUMPDEST PUSH1 0x0 PUSH32 0x0 SWAP1 POP SWAP1 JUMP JUMPDEST PUSH1 0x0 PUSH1 0x2 DUP1 SLOAD DUP1 PUSH1 0x20 MUL PUSH1 0x20 ADD PUSH1 0x40 MLOAD SWAP1 DUP2 ADD PUSH1 0x40 MSTORE DUP1 SWAP3 SWAP2 SWAP1 DUP2 DUP2 MSTORE PUSH1 0x20 ADD PUSH1 0x0 SWAP1 JUMPDEST DUP3 DUP3 LT ISZERO PUSH2 0x1241 JUMPI DUP4 DUP3 SWAP1 PUSH1 0x0 MSTORE PUSH1 0x20 PUSH1 0x0 KECCAK256 ADD DUP1 SLOAD PUSH2 0x11B4 SWAP1 PUSH2 0x23A2 JUMP JUMPDEST DUP1 PUSH1 0x1F ADD PUSH1 0x20 DUP1 SWAP2 DIV MUL PUSH1 0x20 ADD PUSH1 0x40 MLOAD SWAP1 DUP2 ADD PUSH1 0x40 MSTORE DUP1 SWAP3 SWAP2 SWAP1 DUP2 DUP2 MSTORE PUSH1 0x20 ADD DUP3 DUP1 SLOAD PUSH2 0x11E0 SWAP1 PUSH2 0x23A2 JUMP JUMPDEST DUP1 ISZERO PUSH2 0x122D JUMPI DUP1 PUSH1 0x1F LT PUSH2 0x1202 JUMPI PUSH2 0x100 DUP1 DUP4 SLOAD DIV MUL DUP4 MSTORE SWAP2 PUSH1 0x20 ADD SWAP2 PUSH2 0x122D JUMP JUMPDEST DUP3 ADD SWAP2 SWAP1 PUSH1 0x0 MSTORE PUSH1 0x20 PUSH1 0x0 KECCAK256 SWAP1 JUMPDEST DUP2 SLOAD DUP2 MSTORE SWAP1 PUSH1 0x1 ADD SWAP1 PUSH1 0x20 ADD DUP1 DUP4 GT PUSH2 0x1210 JUMPI DUP3 SWAP1 SUB PUSH1 0x1F AND DUP3 ADD SWAP2 JUMPDEST POP POP POP POP POP DUP2 MSTORE PUSH1 0x20 ADD SWAP1 PUSH1 0x1 ADD SWAP1 PUSH2 0x1195 JUMP JUMPDEST POP POP POP POP SWAP1 POP PUSH1 0x0 PUSH1 0x1 DUP3 DUP5 DUP2 MLOAD DUP2 LT PUSH2 0x125E JUMPI PUSH2 0x125D PUSH2 0x2344 JUMP JUMPDEST JUMPDEST PUSH1 0x20 MUL PUSH1 0x20 ADD ADD MLOAD PUSH1 0x40 MLOAD PUSH2 0x1273 SWAP2 SWAP1 PUSH2 0x232D JUMP JUMPDEST SWAP1 DUP2 MSTORE PUSH1 0x20 ADD PUSH1 0x40 MLOAD DUP1 SWAP2 SUB SWAP1 KECCAK256 PUSH1 0x4 ADD SLOAD PUSH1 0x1 DUP4 DUP6 DUP2 MLOAD DUP2 LT PUSH2 0x129A JUMPI PUSH2 0x1299 PUSH2 0x2344 JUMP JUMPDEST JUMPDEST PUSH1 0x20 MUL PUSH1 0x20 ADD ADD MLOAD PUSH1 0x40 MLOAD PUSH2 0x12AF SWAP2 SWAP1 PUSH2 0x232D JUMP JUMPDEST SWAP1 DUP2 MSTORE PUSH1 0x20 ADD PUSH1 0x40 MLOAD DUP1 SWAP2 SUB SWAP1 KECCAK256 PUSH1 0x2 ADD SLOAD PUSH2 0x12CB SWAP2 SWAP1 PUSH2 0x272B JUMP JUMPDEST SWAP1 POP PUSH1 0x0 JUMPDEST PUSH1 0x1 DUP4 DUP6 DUP2 MLOAD DUP2 LT PUSH2 0x12E5 JUMPI PUSH2 0x12E4 PUSH2 0x2344 JUMP JUMPDEST JUMPDEST PUSH1 0x20 MUL PUSH1 0x20 ADD ADD MLOAD PUSH1 0x40 MLOAD PUSH2 0x12FA SWAP2 SWAP1 PUSH2 0x232D JUMP JUMPDEST SWAP1 DUP2 MSTORE PUSH1 0x20 ADD PUSH1 0x40 MLOAD DUP1 SWAP2 SUB SWAP1 KECCAK256 PUSH1 0x6 ADD DUP1 SLOAD SWAP1 POP DUP2 LT ISZERO PUSH2 0x144D JUMPI SELFBALANCE DUP3 LT ISZERO PUSH2 0x143A JUMPI PUSH1 0x0 PUSH1 0x1 DUP5 DUP7 DUP2 MLOAD DUP2 LT PUSH2 0x1335 JUMPI PUSH2 0x1334 PUSH2 0x2344 JUMP JUMPDEST JUMPDEST PUSH1 0x20 MUL PUSH1 0x20 ADD ADD MLOAD PUSH1 0x40 MLOAD PUSH2 0x134A SWAP2 SWAP1 PUSH2 0x232D JUMP JUMPDEST SWAP1 DUP2 MSTORE PUSH1 0x20 ADD PUSH1 0x40 MLOAD DUP1 SWAP2 SUB SWAP1 KECCAK256 PUSH1 0x6 ADD DUP3 DUP2 SLOAD DUP2 LT PUSH2 0x136D JUMPI PUSH2 0x136C PUSH2 0x2344 JUMP JUMPDEST JUMPDEST SWAP1 PUSH1 0x0 MSTORE PUSH1 0x20 PUSH1 0x0 KECCAK256 ADD PUSH1 0x0 SWAP1 SLOAD SWAP1 PUSH2 0x100 EXP SWAP1 DIV PUSH20 0xFFFFFFFFFFFFFFFFFFFFFFFFFFFFFFFFFFFFFFFF AND PUSH20 0xFFFFFFFFFFFFFFFFFFFFFFFFFFFFFFFFFFFFFFFF AND DUP4 PUSH1 0x40 MLOAD PUSH2 0x13BB SWAP1 PUSH2 0x278D JUMP JUMPDEST PUSH1 0x0 PUSH1 0x40 MLOAD DUP1 DUP4 SUB DUP2 DUP6 DUP8 GAS CALL SWAP3 POP POP POP RETURNDATASIZE DUP1 PUSH1 0x0 DUP2 EQ PUSH2 0x13F8 JUMPI PUSH1 0x40 MLOAD SWAP2 POP PUSH1 0x1F NOT PUSH1 0x3F RETURNDATASIZE ADD AND DUP3 ADD PUSH1 0x40 MSTORE RETURNDATASIZE DUP3 MSTORE RETURNDATASIZE PUSH1 0x0 PUSH1 0x20 DUP5 ADD RETURNDATACOPY PUSH2 0x13FD JUMP JUMPDEST PUSH1 0x60 SWAP2 POP JUMPDEST POP POP SWAP1 POP DUP1 PUSH2 0x1438 JUMPI PUSH1 0x40 MLOAD PUSH32 0x9E6A19A00000000000000000000000000000000000000000000000000000000 DUP2 MSTORE PUSH1 0x4 ADD PUSH1 0x40 MLOAD DUP1 SWAP2 SUB SWAP1 REVERT JUMPDEST POP JUMPDEST DUP1 DUP1 PUSH2 0x1445 SWAP1 PUSH2 0x2680 JUMP JUMPDEST SWAP2 POP POP PUSH2 0x12D0 JUMP JUMPDEST POP POP POP POP JUMP JUMPDEST PUSH1 0x60 PUSH1 0x1 DUP3 PUSH1 0x40 MLOAD PUSH2 0x1465 SWAP2 SWAP1 PUSH2 0x232D JUMP JUMPDEST SWAP1 DUP2 MSTORE PUSH1 0x20 ADD PUSH1 0x40 MLOAD DUP1 SWAP2 SUB SWAP1 KECCAK256 PUSH1 0x0 ADD DUP1 SLOAD PUSH2 0x1481 SWAP1 PUSH2 0x23A2 JUMP JUMPDEST DUP1 PUSH1 0x1F ADD PUSH1 0x20 DUP1 SWAP2 DIV MUL PUSH1 0x20 ADD PUSH1 0x40 MLOAD SWAP1 DUP2 ADD PUSH1 0x40 MSTORE DUP1 SWAP3 SWAP2 SWAP1 DUP2 DUP2 MSTORE PUSH1 0x20 ADD DUP3 DUP1 SLOAD PUSH2 0x14AD SWAP1 PUSH2 0x23A2 JUMP JUMPDEST DUP1 ISZERO PUSH2 0x14FA JUMPI DUP1 PUSH1 0x1F LT PUSH2 0x14CF JUMPI PUSH2 0x100 DUP1 DUP4 SLOAD DIV MUL DUP4 MSTORE SWAP2 PUSH1 0x20 ADD SWAP2 PUSH2 0x14FA JUMP JUMPDEST DUP3 ADD SWAP2 SWAP1 PUSH1 0x0 MSTORE PUSH1 0x20 PUSH1 0x0 KECCAK256 SWAP1 JUMPDEST DUP2 SLOAD DUP2 MSTORE SWAP1 PUSH1 0x1 ADD SWAP1 PUSH1 0x20 ADD DUP1 DUP4 GT PUSH2 0x14DD JUMPI DUP3 SWAP1 SUB PUSH1 0x1F AND DUP3 ADD SWAP2 JUMPDEST POP POP POP POP POP SWAP1 POP SWAP2 SWAP1 POP JUMP JUMPDEST PUSH1 0x0 DUP1 PUSH1 0x1 DUP4 PUSH1 0x40 MLOAD PUSH2 0x1519 SWAP2 SWAP1 PUSH2 0x232D JUMP JUMPDEST SWAP1 DUP2 MSTORE PUSH1 0x20 ADD PUSH1 0x40 MLOAD DUP1 SWAP2 SUB SWAP1 KECCAK256 PUSH1 0x3 ADD SLOAD GT ISZERO PUSH2 0x1586 JUMPI PUSH1 0x1 DUP3 PUSH1 0x40 MLOAD PUSH2 0x1541 SWAP2 SWAP1 PUSH2 0x232D JUMP JUMPDEST SWAP1 DUP2 MSTORE PUSH1 0x20 ADD PUSH1 0x40 MLOAD DUP1 SWAP2 SUB SWAP1 KECCAK256 PUSH1 0x3 ADD SLOAD PUSH1 0x1 DUP4 PUSH1 0x40 MLOAD PUSH2 0x1563 SWAP2 SWAP1 PUSH2 0x232D JUMP JUMPDEST SWAP1 DUP2 MSTORE PUSH1 0x20 ADD PUSH1 0x40 MLOAD DUP1 SWAP2 SUB SWAP1 KECCAK256 PUSH1 0x2 ADD SLOAD PUSH2 0x157F SWAP2 SWAP1 PUSH2 0x272B JUMP JUMPDEST SWAP1 POP PUSH2 0x15B8 JUMP JUMPDEST PUSH1 0x40 MLOAD PUSH32 0xB01E933700000000000000000000000000000000000000000000000000000000 DUP2 MSTORE PUSH1 0x4 ADD PUSH1 0x40 MLOAD DUP1 SWAP2 SUB SWAP1 REVERT JUMPDEST SWAP2 SWAP1 POP JUMP JUMPDEST PUSH1 0x0 DUP1 SLOAD SWAP1 PUSH2 0x100 EXP SWAP1 DIV PUSH20 0xFFFFFFFFFFFFFFFFFFFFFFFFFFFFFFFFFFFFFFFF AND PUSH20 0xFFFFFFFFFFFFFFFFFFFFFFFFFFFFFFFFFFFFFFFF AND CALLER PUSH20 0xFFFFFFFFFFFFFFFFFFFFFFFFFFFFFFFFFFFFFFFF AND EQ PUSH2 0x1642 JUMPI PUSH1 0x40 MLOAD PUSH32 0xBA34867000000000000000000000000000000000000000000000000000000000 DUP2 MSTORE PUSH1 0x4 ADD PUSH1 0x40 MLOAD DUP1 SWAP2 SUB SWAP1 REVERT JUMPDEST PUSH1 0x0 PUSH1 0x2 DUP1 SLOAD DUP1 PUSH1 0x20 MUL PUSH1 0x20 ADD PUSH1 0x40 MLOAD SWAP1 DUP2 ADD PUSH1 0x40 MSTORE DUP1 SWAP3 SWAP2 SWAP1 DUP2 DUP2 MSTORE PUSH1 0x20 ADD PUSH1 0x0 SWAP1 JUMPDEST DUP3 DUP3 LT ISZERO PUSH2 0x1712 JUMPI DUP4 DUP3 SWAP1 PUSH1 0x0 MSTORE PUSH1 0x20 PUSH1 0x0 KECCAK256 ADD DUP1 SLOAD PUSH2 0x1685 SWAP1 PUSH2 0x23A2 JUMP JUMPDEST DUP1 PUSH1 0x1F ADD PUSH1 0x20 DUP1 SWAP2 DIV MUL PUSH1 0x20 ADD PUSH1 0x40 MLOAD SWAP1 DUP2 ADD PUSH1 0x40 MSTORE DUP1 SWAP3 SWAP2 SWAP1 DUP2 DUP2 MSTORE PUSH1 0x20 ADD DUP3 DUP1 SLOAD PUSH2 0x16B1 SWAP1 PUSH2 0x23A2 JUMP JUMPDEST DUP1 ISZERO PUSH2 0x16FE JUMPI DUP1 PUSH1 0x1F LT PUSH2 0x16D3 JUMPI PUSH2 0x100 DUP1 DUP4 SLOAD DIV MUL DUP4 MSTORE SWAP2 PUSH1 0x20 ADD SWAP2 PUSH2 0x16FE JUMP JUMPDEST DUP3 ADD SWAP2 SWAP1 PUSH1 0x0 MSTORE PUSH1 0x20 PUSH1 0x0 KECCAK256 SWAP1 JUMPDEST DUP2 SLOAD DUP2 MSTORE SWAP1 PUSH1 0x1 ADD SWAP1 PUSH1 0x20 ADD DUP1 DUP4 GT PUSH2 0x16E1 JUMPI DUP3 SWAP1 SUB PUSH1 0x1F AND DUP3 ADD SWAP2 JUMPDEST POP POP POP POP POP DUP2 MSTORE PUSH1 0x20 ADD SWAP1 PUSH1 0x1 ADD SWAP1 PUSH2 0x1666 JUMP JUMPDEST POP POP POP POP SWAP1 POP PUSH1 0x0 JUMPDEST DUP2 MLOAD DUP2 LT ISZERO PUSH2 0x17FD JUMPI PUSH1 0x1 DUP3 DUP3 DUP2 MLOAD DUP2 LT PUSH2 0x1739 JUMPI PUSH2 0x1738 PUSH2 0x2344 JUMP JUMPDEST JUMPDEST PUSH1 0x20 MUL PUSH1 0x20 ADD ADD MLOAD PUSH1 0x40 MLOAD PUSH2 0x174E SWAP2 SWAP1 PUSH2 0x232D JUMP JUMPDEST SWAP1 DUP2 MSTORE PUSH1 0x20 ADD PUSH1 0x40 MLOAD DUP1 SWAP2 SUB SWAP1 KECCAK256 PUSH1 0x0 DUP1 DUP3 ADD PUSH1 0x0 PUSH2 0x176D SWAP2 SWAP1 PUSH2 0x1958 JUMP JUMPDEST PUSH1 0x1 DUP3 ADD PUSH1 0x0 PUSH2 0x100 EXP DUP2 SLOAD SWAP1 PUSH20 0xFFFFFFFFFFFFFFFFFFFFFFFFFFFFFFFFFFFFFFFF MUL NOT AND SWAP1 SSTORE PUSH1 0x2 DUP3 ADD PUSH1 0x0 SWAP1 SSTORE PUSH1 0x3 DUP3 ADD PUSH1 0x0 SWAP1 SSTORE PUSH1 0x4 DUP3 ADD PUSH1 0x0 SWAP1 SSTORE PUSH1 0x5 DUP3 ADD PUSH1 0x0 PUSH2 0x17BC SWAP2 SWAP1 PUSH2 0x1998 JUMP JUMPDEST PUSH1 0x6 DUP3 ADD PUSH1 0x0 PUSH2 0x17CC SWAP2 SWAP1 PUSH2 0x19B9 JUMP JUMPDEST PUSH1 0x7 DUP3 ADD PUSH1 0x0 SWAP1 SSTORE PUSH1 0x8 DUP3 ADD PUSH1 0x0 PUSH2 0x100 EXP DUP2 SLOAD SWAP1 PUSH1 0xFF MUL NOT AND SWAP1 SSTORE POP POP DUP1 DUP1 PUSH2 0x17F5 SWAP1 PUSH2 0x2680 JUMP JUMPDEST SWAP2 POP POP PUSH2 0x171B JUMP JUMPDEST POP POP JUMP JUMPDEST PUSH1 0x40 MLOAD DUP1 PUSH2 0x120 ADD PUSH1 0x40 MSTORE DUP1 PUSH1 0x60 DUP2 MSTORE PUSH1 0x20 ADD PUSH1 0x0 PUSH20 0xFFFFFFFFFFFFFFFFFFFFFFFFFFFFFFFFFFFFFFFF AND DUP2 MSTORE PUSH1 0x20 ADD PUSH1 0x0 DUP2 MSTORE PUSH1 0x20 ADD PUSH1 0x0 DUP2 MSTORE PUSH1 0x20 ADD PUSH1 0x0 DUP2 MSTORE PUSH1 0x20 ADD PUSH1 0x60 DUP2 MSTORE PUSH1 0x20 ADD PUSH1 0x60 DUP2 MSTORE PUSH1 0x20 ADD PUSH1 0x0 DUP2 MSTORE PUSH1 0x20 ADD PUSH1 0x0 PUSH1 0x1 DUP2 GT ISZERO PUSH2 0x186F JUMPI PUSH2 0x186E PUSH2 0x2232 JUMP JUMPDEST JUMPDEST DUP2 MSTORE POP SWAP1 JUMP JUMPDEST DUP3 DUP1 SLOAD DUP3 DUP3 SSTORE SWAP1 PUSH1 0x0 MSTORE PUSH1 0x20 PUSH1 0x0 KECCAK256 SWAP1 DUP2 ADD SWAP3 DUP3 ISZERO PUSH2 0x18BD JUMPI SWAP2 PUSH1 0x20 MUL DUP3 ADD JUMPDEST DUP3 DUP2 GT ISZERO PUSH2 0x18BC JUMPI DUP3 MLOAD DUP3 SWAP1 DUP2 PUSH2 0x18AC SWAP2 SWAP1 PUSH2 0x257F JUMP JUMPDEST POP SWAP2 PUSH1 0x20 ADD SWAP2 SWAP1 PUSH1 0x1 ADD SWAP1 PUSH2 0x1895 JUMP JUMPDEST JUMPDEST POP SWAP1 POP PUSH2 0x18CA SWAP2 SWAP1 PUSH2 0x19DA JUMP JUMPDEST POP SWAP1 JUMP JUMPDEST DUP3 DUP1 SLOAD DUP3 DUP3 SSTORE SWAP1 PUSH1 0x0 MSTORE PUSH1 0x20 PUSH1 0x0 KECCAK256 SWAP1 DUP2 ADD SWAP3 DUP3 ISZERO PUSH2 0x1947 JUMPI SWAP2 PUSH1 0x20 MUL DUP3 ADD JUMPDEST DUP3 DUP2 GT ISZERO PUSH2 0x1946 JUMPI DUP3 MLOAD DUP3 PUSH1 0x0 PUSH2 0x100 EXP DUP2 SLOAD DUP2 PUSH20 0xFFFFFFFFFFFFFFFFFFFFFFFFFFFFFFFFFFFFFFFF MUL NOT AND SWAP1 DUP4 PUSH20 0xFFFFFFFFFFFFFFFFFFFFFFFFFFFFFFFFFFFFFFFF AND MUL OR SWAP1 SSTORE POP SWAP2 PUSH1 0x20 ADD SWAP2 SWAP1 PUSH1 0x1 ADD SWAP1 PUSH2 0x18EE JUMP JUMPDEST JUMPDEST POP SWAP1 POP PUSH2 0x1954 SWAP2 SWAP1 PUSH2 0x19FE JUMP JUMPDEST POP SWAP1 JUMP JUMPDEST POP DUP1 SLOAD PUSH2 0x1964 SWAP1 PUSH2 0x23A2 JUMP JUMPDEST PUSH1 0x0 DUP3 SSTORE DUP1 PUSH1 0x1F LT PUSH2 0x1976 JUMPI POP PUSH2 0x1995 JUMP JUMPDEST PUSH1 0x1F ADD PUSH1 0x20 SWAP1 DIV SWAP1 PUSH1 0x0 MSTORE PUSH1 0x20 PUSH1 0x0 KECCAK256 SWAP1 DUP2 ADD SWAP1 PUSH2 0x1994 SWAP2 SWAP1 PUSH2 0x19FE JUMP JUMPDEST JUMPDEST POP JUMP JUMPDEST POP DUP1 SLOAD PUSH1 0x0 DUP3 SSTORE SWAP1 PUSH1 0x0 MSTORE PUSH1 0x20 PUSH1 0x0 KECCAK256 SWAP1 DUP2 ADD SWAP1 PUSH2 0x19B6 SWAP2 SWAP1 PUSH2 0x19DA JUMP JUMPDEST POP JUMP JUMPDEST POP DUP1 SLOAD PUSH1 0x0 DUP3 SSTORE SWAP1 PUSH1 0x0 MSTORE PUSH1 0x20 PUSH1 0x0 KECCAK256 SWAP1 DUP2 ADD SWAP1 PUSH2 0x19D7 SWAP2 SWAP1 PUSH2 0x19FE JUMP JUMPDEST POP JUMP JUMPDEST JUMPDEST DUP1 DUP3 GT ISZERO PUSH2 0x19FA JUMPI PUSH1 0x0 DUP2 DUP2 PUSH2 0x19F1 SWAP2 SWAP1 PUSH2 0x1958 JUMP JUMPDEST POP PUSH1 0x1 ADD PUSH2 0x19DB JUMP JUMPDEST POP SWAP1 JUMP JUMPDEST JUMPDEST DUP1 DUP3 GT ISZERO PUSH2 0x1A17 JUMPI PUSH1 0x0 DUP2 PUSH1 0x0 SWAP1 SSTORE POP PUSH1 0x1 ADD PUSH2 0x19FF JUMP JUMPDEST POP SWAP1 JUMP JUMPDEST PUSH1 0x0 PUSH1 0x40 MLOAD SWAP1 POP SWAP1 JUMP JUMPDEST PUSH1 0x0 DUP1 REVERT JUMPDEST PUSH1 0x0 DUP1 REVERT JUMPDEST PUSH1 0x0 DUP1 REVERT JUMPDEST PUSH1 0x0 DUP1 REVERT JUMPDEST PUSH1 0x0 PUSH1 0x1F NOT PUSH1 0x1F DUP4 ADD AND SWAP1 POP SWAP2 SWAP1 POP JUMP JUMPDEST PUSH32 0x4E487B7100000000000000000000000000000000000000000000000000000000 PUSH1 0x0 MSTORE PUSH1 0x41 PUSH1 0x4 MSTORE PUSH1 0x24 PUSH1 0x0 REVERT JUMPDEST PUSH2 0x1A82 DUP3 PUSH2 0x1A39 JUMP JUMPDEST DUP2 ADD DUP2 DUP2 LT PUSH8 0xFFFFFFFFFFFFFFFF DUP3 GT OR ISZERO PUSH2 0x1AA1 JUMPI PUSH2 0x1AA0 PUSH2 0x1A4A JUMP JUMPDEST JUMPDEST DUP1 PUSH1 0x40 MSTORE POP POP POP JUMP JUMPDEST PUSH1 0x0 PUSH2 0x1AB4 PUSH2 0x1A1B JUMP JUMPDEST SWAP1 POP PUSH2 0x1AC0 DUP3 DUP3 PUSH2 0x1A79 JUMP JUMPDEST SWAP2 SWAP1 POP JUMP JUMPDEST PUSH1 0x0 PUSH8 0xFFFFFFFFFFFFFFFF DUP3 GT ISZERO PUSH2 0x1AE0 JUMPI PUSH2 0x1ADF PUSH2 0x1A4A JUMP JUMPDEST JUMPDEST PUSH2 0x1AE9 DUP3 PUSH2 0x1A39 JUMP JUMPDEST SWAP1 POP PUSH1 0x20 DUP2 ADD SWAP1 POP SWAP2 SWAP1 POP JUMP JUMPDEST DUP3 DUP2 DUP4 CALLDATACOPY PUSH1 0x0 DUP4 DUP4 ADD MSTORE POP POP POP JUMP JUMPDEST PUSH1 0x0 PUSH2 0x1B18 PUSH2 0x1B13 DUP5 PUSH2 0x1AC5 JUMP JUMPDEST PUSH2 0x1AAA JUMP JUMPDEST SWAP1 POP DUP3 DUP2 MSTORE PUSH1 0x20 DUP2 ADD DUP5 DUP5 DUP5 ADD GT ISZERO PUSH2 0x1B34 JUMPI PUSH2 0x1B33 PUSH2 0x1A34 JUMP JUMPDEST JUMPDEST PUSH2 0x1B3F DUP5 DUP3 DUP6 PUSH2 0x1AF6 JUMP JUMPDEST POP SWAP4 SWAP3 POP POP POP JUMP JUMPDEST PUSH1 0x0 DUP3 PUSH1 0x1F DUP4 ADD SLT PUSH2 0x1B5C JUMPI PUSH2 0x1B5B PUSH2 0x1A2F JUMP JUMPDEST JUMPDEST DUP2 CALLDATALOAD PUSH2 0x1B6C DUP5 DUP3 PUSH1 0x20 DUP7 ADD PUSH2 0x1B05 JUMP JUMPDEST SWAP2 POP POP SWAP3 SWAP2 POP POP JUMP JUMPDEST PUSH1 0x0 DUP2 SWAP1 POP SWAP2 SWAP1 POP JUMP JUMPDEST PUSH2 0x1B88 DUP2 PUSH2 0x1B75 JUMP JUMPDEST DUP2 EQ PUSH2 0x1B93 JUMPI PUSH1 0x0 DUP1 REVERT JUMPDEST POP JUMP JUMPDEST PUSH1 0x0 DUP2 CALLDATALOAD SWAP1 POP PUSH2 0x1BA5 DUP2 PUSH2 0x1B7F JUMP JUMPDEST SWAP3 SWAP2 POP POP JUMP JUMPDEST PUSH1 0x0 DUP1 PUSH1 0x40 DUP4 DUP6 SUB SLT ISZERO PUSH2 0x1BC2 JUMPI PUSH2 0x1BC1 PUSH2 0x1A25 JUMP JUMPDEST JUMPDEST PUSH1 0x0 DUP4 ADD CALLDATALOAD PUSH8 0xFFFFFFFFFFFFFFFF DUP2 GT ISZERO PUSH2 0x1BE0 JUMPI PUSH2 0x1BDF PUSH2 0x1A2A JUMP JUMPDEST JUMPDEST PUSH2 0x1BEC DUP6 DUP3 DUP7 ADD PUSH2 0x1B47 JUMP JUMPDEST SWAP3 POP POP PUSH1 0x20 PUSH2 0x1BFD DUP6 DUP3 DUP7 ADD PUSH2 0x1B96 JUMP JUMPDEST SWAP2 POP POP SWAP3 POP SWAP3 SWAP1 POP JUMP JUMPDEST PUSH1 0x0 PUSH20 0xFFFFFFFFFFFFFFFFFFFFFFFFFFFFFFFFFFFFFFFF DUP3 AND SWAP1 POP SWAP2 SWAP1 POP JUMP JUMPDEST PUSH1 0x0 PUSH2 0x1C32 DUP3 PUSH2 0x1C07 JUMP JUMPDEST SWAP1 POP SWAP2 SWAP1 POP JUMP JUMPDEST PUSH2 0x1C42 DUP2 PUSH2 0x1C27 JUMP JUMPDEST DUP3 MSTORE POP POP JUMP JUMPDEST PUSH1 0x0 PUSH1 0x20 DUP3 ADD SWAP1 POP PUSH2 0x1C5D PUSH1 0x0 DUP4 ADD DUP5 PUSH2 0x1C39 JUMP JUMPDEST SWAP3 SWAP2 POP POP JUMP JUMPDEST PUSH1 0x0 DUP2 MLOAD SWAP1 POP SWAP2 SWAP1 POP JUMP JUMPDEST PUSH1 0x0 DUP3 DUP3 MSTORE PUSH1 0x20 DUP3 ADD SWAP1 POP SWAP3 SWAP2 POP POP JUMP JUMPDEST PUSH1 0x0 JUMPDEST DUP4 DUP2 LT ISZERO PUSH2 0x1C9D JUMPI DUP1 DUP3 ADD MLOAD DUP2 DUP5 ADD MSTORE PUSH1 0x20 DUP2 ADD SWAP1 POP PUSH2 0x1C82 JUMP JUMPDEST PUSH1 0x0 DUP5 DUP5 ADD MSTORE POP POP POP POP JUMP JUMPDEST PUSH1 0x0 PUSH2 0x1CB4 DUP3 PUSH2 0x1C63 JUMP JUMPDEST PUSH2 0x1CBE DUP2 DUP6 PUSH2 0x1C6E JUMP JUMPDEST SWAP4 POP PUSH2 0x1CCE DUP2 DUP6 PUSH1 0x20 DUP7 ADD PUSH2 0x1C7F JUMP JUMPDEST PUSH2 0x1CD7 DUP2 PUSH2 0x1A39 JUMP JUMPDEST DUP5 ADD SWAP2 POP POP SWAP3 SWAP2 POP POP JUMP JUMPDEST PUSH1 0x0 PUSH1 0x20 DUP3 ADD SWAP1 POP DUP2 DUP2 SUB PUSH1 0x0 DUP4 ADD MSTORE PUSH2 0x1CFC DUP2 DUP5 PUSH2 0x1CA9 JUMP JUMPDEST SWAP1 POP SWAP3 SWAP2 POP POP JUMP JUMPDEST PUSH2 0x1D0D DUP2 PUSH2 0x1C27 JUMP JUMPDEST DUP2 EQ PUSH2 0x1D18 JUMPI PUSH1 0x0 DUP1 REVERT JUMPDEST POP JUMP JUMPDEST PUSH1 0x0 DUP2 CALLDATALOAD SWAP1 POP PUSH2 0x1D2A DUP2 PUSH2 0x1D04 JUMP JUMPDEST SWAP3 SWAP2 POP POP JUMP JUMPDEST PUSH1 0x0 DUP1 PUSH1 0x0 PUSH1 0x60 DUP5 DUP7 SUB SLT ISZERO PUSH2 0x1D49 JUMPI PUSH2 0x1D48 PUSH2 0x1A25 JUMP JUMPDEST JUMPDEST PUSH1 0x0 DUP5 ADD CALLDATALOAD PUSH8 0xFFFFFFFFFFFFFFFF DUP2 GT ISZERO PUSH2 0x1D67 JUMPI PUSH2 0x1D66 PUSH2 0x1A2A JUMP JUMPDEST JUMPDEST PUSH2 0x1D73 DUP7 DUP3 DUP8 ADD PUSH2 0x1B47 JUMP JUMPDEST SWAP4 POP POP PUSH1 0x20 DUP5 ADD CALLDATALOAD PUSH8 0xFFFFFFFFFFFFFFFF DUP2 GT ISZERO PUSH2 0x1D94 JUMPI PUSH2 0x1D93 PUSH2 0x1A2A JUMP JUMPDEST JUMPDEST PUSH2 0x1DA0 DUP7 DUP3 DUP8 ADD PUSH2 0x1B47 JUMP JUMPDEST SWAP3 POP POP PUSH1 0x40 PUSH2 0x1DB1 DUP7 DUP3 DUP8 ADD PUSH2 0x1D1B JUMP JUMPDEST SWAP2 POP POP SWAP3 POP SWAP3 POP SWAP3 JUMP JUMPDEST PUSH1 0x0 DUP1 REVERT JUMPDEST PUSH1 0x0 DUP1 REVERT JUMPDEST PUSH1 0x0 DUP1 DUP4 PUSH1 0x1F DUP5 ADD SLT PUSH2 0x1DDB JUMPI PUSH2 0x1DDA PUSH2 0x1A2F JUMP JUMPDEST JUMPDEST DUP3 CALLDATALOAD SWAP1 POP PUSH8 0xFFFFFFFFFFFFFFFF DUP2 GT ISZERO PUSH2 0x1DF8 JUMPI PUSH2 0x1DF7 PUSH2 0x1DBB JUMP JUMPDEST JUMPDEST PUSH1 0x20 DUP4 ADD SWAP2 POP DUP4 PUSH1 0x1 DUP3 MUL DUP4 ADD GT ISZERO PUSH2 0x1E14 JUMPI PUSH2 0x1E13 PUSH2 0x1DC0 JUMP JUMPDEST JUMPDEST SWAP3 POP SWAP3 SWAP1 POP JUMP JUMPDEST PUSH1 0x0 DUP1 PUSH1 0x20 DUP4 DUP6 SUB SLT ISZERO PUSH2 0x1E32 JUMPI PUSH2 0x1E31 PUSH2 0x1A25 JUMP JUMPDEST JUMPDEST PUSH1 0x0 DUP4 ADD CALLDATALOAD PUSH8 0xFFFFFFFFFFFFFFFF DUP2 GT ISZERO PUSH2 0x1E50 JUMPI PUSH2 0x1E4F PUSH2 0x1A2A JUMP JUMPDEST JUMPDEST PUSH2 0x1E5C DUP6 DUP3 DUP7 ADD PUSH2 0x1DC5 JUMP JUMPDEST SWAP3 POP SWAP3 POP POP SWAP3 POP SWAP3 SWAP1 POP JUMP JUMPDEST PUSH1 0x0 PUSH1 0x20 DUP3 DUP5 SUB SLT ISZERO PUSH2 0x1E7E JUMPI PUSH2 0x1E7D PUSH2 0x1A25 JUMP JUMPDEST JUMPDEST PUSH1 0x0 DUP3 ADD CALLDATALOAD PUSH8 0xFFFFFFFFFFFFFFFF DUP2 GT ISZERO PUSH2 0x1E9C JUMPI PUSH2 0x1E9B PUSH2 0x1A2A JUMP JUMPDEST JUMPDEST PUSH2 0x1EA8 DUP5 DUP3 DUP6 ADD PUSH2 0x1B47 JUMP JUMPDEST SWAP2 POP POP SWAP3 SWAP2 POP POP JUMP JUMPDEST PUSH1 0x0 DUP2 MLOAD SWAP1 POP SWAP2 SWAP1 POP JUMP JUMPDEST PUSH1 0x0 DUP3 DUP3 MSTORE PUSH1 0x20 DUP3 ADD SWAP1 POP SWAP3 SWAP2 POP POP JUMP JUMPDEST PUSH1 0x0 DUP2 SWAP1 POP PUSH1 0x20 DUP3 ADD SWAP1 POP SWAP2 SWAP1 POP JUMP JUMPDEST PUSH1 0x0 DUP3 DUP3 MSTORE PUSH1 0x20 DUP3 ADD SWAP1 POP SWAP3 SWAP2 POP POP JUMP JUMPDEST PUSH1 0x0 PUSH2 0x1EF9 DUP3 PUSH2 0x1C63 JUMP JUMPDEST PUSH2 0x1F03 DUP2 DUP6 PUSH2 0x1EDD JUMP JUMPDEST SWAP4 POP PUSH2 0x1F13 DUP2 DUP6 PUSH1 0x20 DUP7 ADD PUSH2 0x1C7F JUMP JUMPDEST PUSH2 0x1F1C DUP2 PUSH2 0x1A39 JUMP JUMPDEST DUP5 ADD SWAP2 POP POP SWAP3 SWAP2 POP POP JUMP JUMPDEST PUSH1 0x0 PUSH2 0x1F33 DUP4 DUP4 PUSH2 0x1EEE JUMP JUMPDEST SWAP1 POP SWAP3 SWAP2 POP POP JUMP JUMPDEST PUSH1 0x0 PUSH1 0x20 DUP3 ADD SWAP1 POP SWAP2 SWAP1 POP JUMP JUMPDEST PUSH1 0x0 PUSH2 0x1F53 DUP3 PUSH2 0x1EB1 JUMP JUMPDEST PUSH2 0x1F5D DUP2 DUP6 PUSH2 0x1EBC JUMP JUMPDEST SWAP4 POP DUP4 PUSH1 0x20 DUP3 MUL DUP6 ADD PUSH2 0x1F6F DUP6 PUSH2 0x1ECD JUMP JUMPDEST DUP1 PUSH1 0x0 JUMPDEST DUP6 DUP2 LT ISZERO PUSH2 0x1FAB JUMPI DUP5 DUP5 SUB DUP10 MSTORE DUP2 MLOAD PUSH2 0x1F8C DUP6 DUP3 PUSH2 0x1F27 JUMP JUMPDEST SWAP5 POP PUSH2 0x1F97 DUP4 PUSH2 0x1F3B JUMP JUMPDEST SWAP3 POP PUSH1 0x20 DUP11 ADD SWAP10 POP POP PUSH1 0x1 DUP2 ADD SWAP1 POP PUSH2 0x1F73 JUMP JUMPDEST POP DUP3 SWAP8 POP DUP8 SWAP6 POP POP POP POP POP POP SWAP3 SWAP2 POP POP JUMP JUMPDEST PUSH1 0x0 PUSH1 0x20 DUP3 ADD SWAP1 POP DUP2 DUP2 SUB PUSH1 0x0 DUP4 ADD MSTORE PUSH2 0x1FD7 DUP2 DUP5 PUSH2 0x1F48 JUMP JUMPDEST SWAP1 POP SWAP3 SWAP2 POP POP JUMP JUMPDEST PUSH2 0x1FE8 DUP2 PUSH2 0x1B75 JUMP JUMPDEST DUP3 MSTORE POP POP JUMP JUMPDEST PUSH1 0x0 PUSH1 0x20 DUP3 ADD SWAP1 POP PUSH2 0x2003 PUSH1 0x0 DUP4 ADD DUP5 PUSH2 0x1FDF JUMP JUMPDEST SWAP3 SWAP2 POP POP JUMP JUMPDEST PUSH1 0x0 PUSH8 0xFFFFFFFFFFFFFFFF DUP3 GT ISZERO PUSH2 0x2024 JUMPI PUSH2 0x2023 PUSH2 0x1A4A JUMP JUMPDEST JUMPDEST PUSH2 0x202D DUP3 PUSH2 0x1A39 JUMP JUMPDEST SWAP1 POP PUSH1 0x20 DUP2 ADD SWAP1 POP SWAP2 SWAP1 POP JUMP JUMPDEST PUSH1 0x0 PUSH2 0x204D PUSH2 0x2048 DUP5 PUSH2 0x2009 JUMP JUMPDEST PUSH2 0x1AAA JUMP JUMPDEST SWAP1 POP DUP3 DUP2 MSTORE PUSH1 0x20 DUP2 ADD DUP5 DUP5 DUP5 ADD GT ISZERO PUSH2 0x2069 JUMPI PUSH2 0x2068 PUSH2 0x1A34 JUMP JUMPDEST JUMPDEST PUSH2 0x2074 DUP5 DUP3 DUP6 PUSH2 0x1AF6 JUMP JUMPDEST POP SWAP4 SWAP3 POP POP POP JUMP JUMPDEST PUSH1 0x0 DUP3 PUSH1 0x1F DUP4 ADD SLT PUSH2 0x2091 JUMPI PUSH2 0x2090 PUSH2 0x1A2F JUMP JUMPDEST JUMPDEST DUP2 CALLDATALOAD PUSH2 0x20A1 DUP5 DUP3 PUSH1 0x20 DUP7 ADD PUSH2 0x203A JUMP JUMPDEST SWAP2 POP POP SWAP3 SWAP2 POP POP JUMP JUMPDEST PUSH1 0x0 PUSH1 0x20 DUP3 DUP5 SUB SLT ISZERO PUSH2 0x20C0 JUMPI PUSH2 0x20BF PUSH2 0x1A25 JUMP JUMPDEST JUMPDEST PUSH1 0x0 DUP3 ADD CALLDATALOAD PUSH8 0xFFFFFFFFFFFFFFFF DUP2 GT ISZERO PUSH2 0x20DE JUMPI PUSH2 0x20DD PUSH2 0x1A2A JUMP JUMPDEST JUMPDEST PUSH2 0x20EA DUP5 DUP3 DUP6 ADD PUSH2 0x207C JUMP JUMPDEST SWAP2 POP POP SWAP3 SWAP2 POP POP JUMP JUMPDEST PUSH1 0x0 DUP2 ISZERO ISZERO SWAP1 POP SWAP2 SWAP1 POP JUMP JUMPDEST PUSH2 0x2108 DUP2 PUSH2 0x20F3 JUMP JUMPDEST DUP3 MSTORE POP POP JUMP JUMPDEST PUSH1 0x0 DUP2 MLOAD SWAP1 POP SWAP2 SWAP1 POP JUMP JUMPDEST PUSH1 0x0 DUP3 DUP3 MSTORE PUSH1 0x20 DUP3 ADD SWAP1 POP SWAP3 SWAP2 POP POP JUMP JUMPDEST PUSH1 0x0 PUSH2 0x2135 DUP3 PUSH2 0x210E JUMP JUMPDEST PUSH2 0x213F DUP2 DUP6 PUSH2 0x2119 JUMP JUMPDEST SWAP4 POP PUSH2 0x214F DUP2 DUP6 PUSH1 0x20 DUP7 ADD PUSH2 0x1C7F JUMP JUMPDEST PUSH2 0x2158 DUP2 PUSH2 0x1A39 JUMP JUMPDEST DUP5 ADD SWAP2 POP POP SWAP3 SWAP2 POP POP JUMP JUMPDEST PUSH1 0x0 PUSH1 0x40 DUP3 ADD SWAP1 POP PUSH2 0x2178 PUSH1 0x0 DUP4 ADD DUP6 PUSH2 0x20FF JUMP JUMPDEST DUP2 DUP2 SUB PUSH1 0x20 DUP4 ADD MSTORE PUSH2 0x218A DUP2 DUP5 PUSH2 0x212A JUMP JUMPDEST SWAP1 POP SWAP4 SWAP3 POP POP POP JUMP JUMPDEST PUSH1 0x0 DUP1 PUSH1 0x0 DUP1 PUSH1 0x80 DUP6 DUP8 SUB SLT ISZERO PUSH2 0x21AD JUMPI PUSH2 0x21AC PUSH2 0x1A25 JUMP JUMPDEST JUMPDEST PUSH1 0x0 DUP6 ADD CALLDATALOAD PUSH8 0xFFFFFFFFFFFFFFFF DUP2 GT ISZERO PUSH2 0x21CB JUMPI PUSH2 0x21CA PUSH2 0x1A2A JUMP JUMPDEST JUMPDEST PUSH2 0x21D7 DUP8 DUP3 DUP9 ADD PUSH2 0x1B47 JUMP JUMPDEST SWAP5 POP POP PUSH1 0x20 DUP6 ADD CALLDATALOAD PUSH8 0xFFFFFFFFFFFFFFFF DUP2 GT ISZERO PUSH2 0x21F8 JUMPI PUSH2 0x21F7 PUSH2 0x1A2A JUMP JUMPDEST JUMPDEST PUSH2 0x2204 DUP8 DUP3 DUP9 ADD PUSH2 0x1B47 JUMP JUMPDEST SWAP4 POP POP PUSH1 0x40 PUSH2 0x2215 DUP8 DUP3 DUP9 ADD PUSH2 0x1B96 JUMP JUMPDEST SWAP3 POP POP PUSH1 0x60 PUSH2 0x2226 DUP8 DUP3 DUP9 ADD PUSH2 0x1B96 JUMP JUMPDEST SWAP2 POP POP SWAP3 SWAP6 SWAP2 SWAP5 POP SWAP3 POP JUMP JUMPDEST PUSH32 0x4E487B7100000000000000000000000000000000000000000000000000000000 PUSH1 0x0 MSTORE PUSH1 0x21 PUSH1 0x4 MSTORE PUSH1 0x24 PUSH1 0x0 REVERT JUMPDEST PUSH1 0x2 DUP2 LT PUSH2 0x2272 JUMPI PUSH2 0x2271 PUSH2 0x2232 JUMP JUMPDEST JUMPDEST POP JUMP JUMPDEST PUSH1 0x0 DUP2 SWAP1 POP PUSH2 0x2283 DUP3 PUSH2 0x2261 JUMP JUMPDEST SWAP2 SWAP1 POP JUMP JUMPDEST PUSH1 0x0 PUSH2 0x2293 DUP3 PUSH2 0x2275 JUMP JUMPDEST SWAP1 POP SWAP2 SWAP1 POP JUMP JUMPDEST PUSH2 0x22A3 DUP2 PUSH2 0x2288 JUMP JUMPDEST DUP3 MSTORE POP POP JUMP JUMPDEST PUSH1 0x0 PUSH1 0x20 DUP3 ADD SWAP1 POP PUSH2 0x22BE PUSH1 0x0 DUP4 ADD DUP5 PUSH2 0x229A JUMP JUMPDEST SWAP3 SWAP2 POP POP JUMP JUMPDEST PUSH1 0x0 PUSH1 0x20 DUP3 DUP5 SUB SLT ISZERO PUSH2 0x22DA JUMPI PUSH2 0x22D9 PUSH2 0x1A25 JUMP JUMPDEST JUMPDEST PUSH1 0x0 PUSH2 0x22E8 DUP5 DUP3 DUP6 ADD PUSH2 0x1B96 JUMP JUMPDEST SWAP2 POP POP SWAP3 SWAP2 POP POP JUMP JUMPDEST PUSH1 0x0 DUP2 SWAP1 POP SWAP3 SWAP2 POP POP JUMP JUMPDEST PUSH1 0x0 PUSH2 0x2307 DUP3 PUSH2 0x1C63 JUMP JUMPDEST PUSH2 0x2311 DUP2 DUP6 PUSH2 0x22F1 JUMP JUMPDEST SWAP4 POP PUSH2 0x2321 DUP2 DUP6 PUSH1 0x20 DUP7 ADD PUSH2 0x1C7F JUMP JUMPDEST DUP1 DUP5 ADD SWAP2 POP POP SWAP3 SWAP2 POP POP JUMP JUMPDEST PUSH1 0x0 PUSH2 0x2339 DUP3 DUP5 PUSH2 0x22FC JUMP JUMPDEST SWAP2 POP DUP2 SWAP1 POP SWAP3 SWAP2 POP POP JUMP JUMPDEST PUSH32 0x4E487B7100000000000000000000000000000000000000000000000000000000 PUSH1 0x0 MSTORE PUSH1 0x32 PUSH1 0x4 MSTORE PUSH1 0x24 PUSH1 0x0 REVERT JUMPDEST PUSH32 0x4E487B7100000000000000000000000000000000000000000000000000000000 PUSH1 0x0 MSTORE PUSH1 0x22 PUSH1 0x4 MSTORE PUSH1 0x24 PUSH1 0x0 REVERT JUMPDEST PUSH1 0x0 PUSH1 0x2 DUP3 DIV SWAP1 POP PUSH1 0x1 DUP3 AND DUP1 PUSH2 0x23BA JUMPI PUSH1 0x7F DUP3 AND SWAP2 POP JUMPDEST PUSH1 0x20 DUP3 LT DUP2 SUB PUSH2 0x23CD JUMPI PUSH2 0x23CC PUSH2 0x2373 JUMP JUMPDEST JUMPDEST POP SWAP2 SWAP1 POP JUMP JUMPDEST PUSH1 0x0 DUP2 SWAP1 POP DUP2 PUSH1 0x0 MSTORE PUSH1 0x20 PUSH1 0x0 KECCAK256 SWAP1 POP SWAP2 SWAP1 POP JUMP JUMPDEST PUSH1 0x0 PUSH1 0x20 PUSH1 0x1F DUP4 ADD DIV SWAP1 POP SWAP2 SWAP1 POP JUMP JUMPDEST PUSH1 0x0 DUP3 DUP3 SHL SWAP1 POP SWAP3 SWAP2 POP POP JUMP JUMPDEST PUSH1 0x0 PUSH1 0x8 DUP4 MUL PUSH2 0x2435 PUSH32 0xFFFFFFFFFFFFFFFFFFFFFFFFFFFFFFFFFFFFFFFFFFFFFFFFFFFFFFFFFFFFFFFF DUP3 PUSH2 0x23F8 JUMP JUMPDEST PUSH2 0x243F DUP7 DUP4 PUSH2 0x23F8 JUMP JUMPDEST SWAP6 POP DUP1 NOT DUP5 AND SWAP4 POP DUP1 DUP7 AND DUP5 OR SWAP3 POP POP POP SWAP4 SWAP3 POP POP POP JUMP JUMPDEST PUSH1 0x0 DUP2 SWAP1 POP SWAP2 SWAP1 POP JUMP JUMPDEST PUSH1 0x0 PUSH2 0x247C PUSH2 0x2477 PUSH2 0x2472 DUP5 PUSH2 0x1B75 JUMP JUMPDEST PUSH2 0x2457 JUMP JUMPDEST PUSH2 0x1B75 JUMP JUMPDEST SWAP1 POP SWAP2 SWAP1 POP JUMP JUMPDEST PUSH1 0x0 DUP2 SWAP1 POP SWAP2 SWAP1 POP JUMP JUMPDEST PUSH2 0x2496 DUP4 PUSH2 0x2461 JUMP JUMPDEST PUSH2 0x24AA PUSH2 0x24A2 DUP3 PUSH2 0x2483 JUMP JUMPDEST DUP5 DUP5 SLOAD PUSH2 0x2405 JUMP JUMPDEST DUP3 SSTORE POP POP POP POP JUMP JUMPDEST PUSH1 0x0 SWAP1 JUMP JUMPDEST PUSH2 0x24BF PUSH2 0x24B2 JUMP JUMPDEST PUSH2 0x24CA DUP2 DUP5 DUP5 PUSH2 0x248D JUMP JUMPDEST POP POP POP JUMP JUMPDEST JUMPDEST DUP2 DUP2 LT ISZERO PUSH2 0x24EE JUMPI PUSH2 0x24E3 PUSH1 0x0 DUP3 PUSH2 0x24B7 JUMP JUMPDEST PUSH1 0x1 DUP2 ADD SWAP1 POP PUSH2 0x24D0 JUMP JUMPDEST POP POP JUMP JUMPDEST PUSH1 0x1F DUP3 GT ISZERO PUSH2 0x2533 JUMPI PUSH2 0x2504 DUP2 PUSH2 0x23D3 JUMP JUMPDEST PUSH2 0x250D DUP5 PUSH2 0x23E8 JUMP JUMPDEST DUP2 ADD PUSH1 0x20 DUP6 LT ISZERO PUSH2 0x251C JUMPI DUP2 SWAP1 POP JUMPDEST PUSH2 0x2530 PUSH2 0x2528 DUP6 PUSH2 0x23E8 JUMP JUMPDEST DUP4 ADD DUP3 PUSH2 0x24CF JUMP JUMPDEST POP POP JUMPDEST POP POP POP JUMP JUMPDEST PUSH1 0x0 DUP3 DUP3 SHR SWAP1 POP SWAP3 SWAP2 POP POP JUMP JUMPDEST PUSH1 0x0 PUSH2 0x2556 PUSH1 0x0 NOT DUP5 PUSH1 0x8 MUL PUSH2 0x2538 JUMP JUMPDEST NOT DUP1 DUP4 AND SWAP2 POP POP SWAP3 SWAP2 POP POP JUMP JUMPDEST PUSH1 0x0 PUSH2 0x256F DUP4 DUP4 PUSH2 0x2545 JUMP JUMPDEST SWAP2 POP DUP3 PUSH1 0x2 MUL DUP3 OR SWAP1 POP SWAP3 SWAP2 POP POP JUMP JUMPDEST PUSH2 0x2588 DUP3 PUSH2 0x1C63 JUMP JUMPDEST PUSH8 0xFFFFFFFFFFFFFFFF DUP2 GT ISZERO PUSH2 0x25A1 JUMPI PUSH2 0x25A0 PUSH2 0x1A4A JUMP JUMPDEST JUMPDEST PUSH2 0x25AB DUP3 SLOAD PUSH2 0x23A2 JUMP JUMPDEST PUSH2 0x25B6 DUP3 DUP3 DUP6 PUSH2 0x24F2 JUMP JUMPDEST PUSH1 0x0 PUSH1 0x20 SWAP1 POP PUSH1 0x1F DUP4 GT PUSH1 0x1 DUP2 EQ PUSH2 0x25E9 JUMPI PUSH1 0x0 DUP5 ISZERO PUSH2 0x25D7 JUMPI DUP3 DUP8 ADD MLOAD SWAP1 POP JUMPDEST PUSH2 0x25E1 DUP6 DUP3 PUSH2 0x2563 JUMP JUMPDEST DUP7 SSTORE POP PUSH2 0x2649 JUMP JUMPDEST PUSH1 0x1F NOT DUP5 AND PUSH2 0x25F7 DUP7 PUSH2 0x23D3 JUMP JUMPDEST PUSH1 0x0 JUMPDEST DUP3 DUP2 LT ISZERO PUSH2 0x261F JUMPI DUP5 DUP10 ADD MLOAD DUP3 SSTORE PUSH1 0x1 DUP3 ADD SWAP2 POP PUSH1 0x20 DUP6 ADD SWAP5 POP PUSH1 0x20 DUP2 ADD SWAP1 POP PUSH2 0x25FA JUMP JUMPDEST DUP7 DUP4 LT ISZERO PUSH2 0x263C JUMPI DUP5 DUP10 ADD MLOAD PUSH2 0x2638 PUSH1 0x1F DUP10 AND DUP3 PUSH2 0x2545 JUMP JUMPDEST DUP4 SSTORE POP JUMPDEST PUSH1 0x1 PUSH1 0x2 DUP9 MUL ADD DUP9 SSTORE POP POP POP JUMPDEST POP POP POP POP POP POP JUMP JUMPDEST PUSH32 0x4E487B7100000000000000000000000000000000000000000000000000000000 PUSH1 0x0 MSTORE PUSH1 0x11 PUSH1 0x4 MSTORE PUSH1 0x24 PUSH1 0x0 REVERT JUMPDEST PUSH1 0x0 PUSH2 0x268B DUP3 PUSH2 0x1B75 JUMP JUMPDEST SWAP2 POP PUSH32 0xFFFFFFFFFFFFFFFFFFFFFFFFFFFFFFFFFFFFFFFFFFFFFFFFFFFFFFFFFFFFFFFF DUP3 SUB PUSH2 0x26BD JUMPI PUSH2 0x26BC PUSH2 0x2651 JUMP JUMPDEST JUMPDEST PUSH1 0x1 DUP3 ADD SWAP1 POP SWAP2 SWAP1 POP JUMP JUMPDEST PUSH1 0x0 PUSH2 0x26D3 DUP3 PUSH2 0x1B75 JUMP JUMPDEST SWAP2 POP PUSH2 0x26DE DUP4 PUSH2 0x1B75 JUMP JUMPDEST SWAP3 POP DUP3 DUP3 ADD SWAP1 POP DUP1 DUP3 GT ISZERO PUSH2 0x26F6 JUMPI PUSH2 0x26F5 PUSH2 0x2651 JUMP JUMPDEST JUMPDEST SWAP3 SWAP2 POP POP JUMP JUMPDEST PUSH32 0x4E487B7100000000000000000000000000000000000000000000000000000000 PUSH1 0x0 MSTORE PUSH1 0x12 PUSH1 0x4 MSTORE PUSH1 0x24 PUSH1 0x0 REVERT JUMPDEST PUSH1 0x0 PUSH2 0x2736 DUP3 PUSH2 0x1B75 JUMP JUMPDEST SWAP2 POP PUSH2 0x2741 DUP4 PUSH2 0x1B75 JUMP JUMPDEST SWAP3 POP DUP3 PUSH2 0x2751 JUMPI PUSH2 0x2750 PUSH2 0x26FC JUMP JUMPDEST JUMPDEST DUP3 DUP3 DIV SWAP1 POP SWAP3 SWAP2 POP POP JUMP JUMPDEST PUSH1 0x0 DUP2 SWAP1 POP SWAP3 SWAP2 POP POP JUMP JUMPDEST POP JUMP JUMPDEST PUSH1 0x0 PUSH2 0x2777 PUSH1 0x0 DUP4 PUSH2 0x275C JUMP JUMPDEST SWAP2 POP PUSH2 0x2782 DUP3 PUSH2 0x2767 JUMP JUMPDEST PUSH1 0x0 DUP3 ADD SWAP1 POP SWAP2 SWAP1 POP JUMP JUMPDEST PUSH1 0x0 PUSH2 0x2798 DUP3 PUSH2 0x276A JUMP JUMPDEST SWAP2 POP DUP2 SWAP1 POP SWAP2 SWAP1 POP JUMP INVALID LOG2 PUSH5 0x6970667358 0x22 SLT KECCAK256 0xD1 DUP4 PUSH6 0xC8A74AA3302B 0xB8 DUP15 SWAP10 AND DUP14 DUP11 0x5C 0xCD PUSH3 0xDBBCAA 0xF7 0xC2 0xD0 0xC7 0xD6 0xBD 0xB7 SWAP2 NUMBER LOG1 SWAP15 PUSH5 0x736F6C6343 STOP ADDMOD GT STOP CALLER "},"gasEstimates":{"creation":{"codeDepositCost":"2040000","executionCost":"infinite","totalCost":"infinite"},"external":{"checkUpkeep(bytes)":"infinite","createSurvey(string,string,uint256,uint256)":"infinite","distributeFundsFromCompletedSurvey(uint256)":"infinite","getAllSurveyResponseData(string)":"infinite","getCompanyId(string)":"infinite","getInterval()":"infinite","getLastTimeStamp(string)":"infinite","getOwner()":"2611","getPayoutPerPersonBySurveyId(string)":"infinite","getSurveyCreationFee()":"infinite","getSurveyPayoutAmount(string)":"infinite","getSurveyResponseData(string,uint256)":"infinite","getSurveyState(string)":"infinite","getSurveyTaker(string,uint256)":"infinite","performUpkeep(bytes)":"infinite","removeCompletedSurveys()":"infinite","sendUserSurveyData(string,string,address)":"infinite"}},"methodIdentifiers":{"checkUpkeep(bytes)":"6e04ff0d","createSurvey(string,string,uint256,uint256)":"ac9d6a2b","distributeFundsFromCompletedSurvey(uint256)":"c3b9a2c8","getAllSurveyResponseData(string)":"50597f8a","getCompanyId(string)":"e1744d72","getInterval()":"91ad27b4","getLastTimeStamp(string)":"653cba7d","getOwner()":"893d20e8","getPayoutPerPersonBySurveyId(string)":"e74b36df","getSurveyCreationFee()":"bab26fd2","getSurveyPayoutAmount(string)":"9759ac36","getSurveyResponseData(string,uint256)":"24405aa9","getSurveyState(string)":"b374ff29","getSurveyTaker(string,uint256)":"12998301","performUpkeep(bytes)":"4585e33b","removeCompletedSurveys()":"eb9992c3","sendUserSurveyData(string,string,address)":"24445aeb"}},"storageLayout":{"storage":[{"astId":64,"contract":"contracts/Surpay.sol:Surpay","label":"i_owner","offset":0,"slot":"0","type":"t_address"},{"astId":69,"contract":"contracts/Surpay.sol:Surpay","label":"s_surveys","offset":0,"slot":"1","type":"t_mapping(t_string_memory_ptr,t_struct(Survey)59_storage)"},{"astId":72,"contract":"contracts/Surpay.sol:Surpay","label":"s_completedSurveys","offset":0,"slot":"2","type":"t_array(t_string_storage)dyn_storage"}],"types":{"t_address":{"encoding":"inplace","label":"address","numberOfBytes":"20"},"t_address_payable":{"encoding":"inplace","label":"address payable","numberOfBytes":"20"},"t_array(t_address_payable)dyn_storage":{"base":"t_address_payable","encoding":"dynamic_array","label":"address payable[]","numberOfBytes":"32"},"t_array(t_string_storage)dyn_storage":{"base":"t_string_storage","encoding":"dynamic_array","label":"string[]","numberOfBytes":"32"},"t_enum(SurveyState)62":{"encoding":"inplace","label":"enum Surpay.SurveyState","numberOfBytes":"1"},"t_mapping(t_string_memory_ptr,t_struct(Survey)59_storage)":{"encoding":"mapping","key":"t_string_memory_ptr","label":"mapping(string => struct Surpay.Survey)","numberOfBytes":"32","value":"t_struct(Survey)59_storage"},"t_string_memory_ptr":{"encoding":"bytes","label":"string","numberOfBytes":"32"},"t_string_storage":{"encoding":"bytes","label":"string","numberOfBytes":"32"},"t_struct(Survey)59_storage":{"encoding":"inplace","label":"struct Surpay.Survey","members":[{"astId":39,"contract":"contracts/Surpay.sol:Surpay","label":"companyId","offset":0,"slot":"0","type":"t_string_storage"},{"astId":41,"contract":"contracts/Surpay.sol:Surpay","label":"companyAddress","offset":0,"slot":"1","type":"t_address"},{"astId":43,"contract":"contracts/Surpay.sol:Surpay","label":"totalPayoutAmount","offset":0,"slot":"2","type":"t_uint256"},{"astId":45,"contract":"contracts/Surpay.sol:Surpay","label":"numOfParticipantsDesired","offset":0,"slot":"3","type":"t_uint256"},{"astId":47,"contract":"contracts/Surpay.sol:Surpay","label":"numOfParticipantsFulfilled","offset":0,"slot":"4","type":"t_uint256"},{"astId":50,"contract":"contracts/Surpay.sol:Surpay","label":"surveyResponseData","offset":0,"slot":"5","type":"t_array(t_string_storage)dyn_storage"},{"astId":53,"contract":"contracts/Surpay.sol:Surpay","label":"surveyTakers","offset":0,"slot":"6","type":"t_array(t_address_payable)dyn_storage"},{"astId":55,"contract":"contracts/Surpay.sol:Surpay","label":"startTimeStamp","offset":0,"slot":"7","type":"t_uint256"},{"astId":58,"contract":"contracts/Surpay.sol:Surpay","label":"surveyState","offset":0,"slot":"8","type":"t_enum(SurveyState)62"}],"numberOfBytes":"288"},"t_uint256":{"encoding":"inplace","label":"uint256","numberOfBytes":"32"}}},"userdoc":{"kind":"user","methods":{"sendUserSurveyData(string,string,address)":{"notice":"Function can only be called by the contract owner.This was neccissary to ensure that the user data wasa valid response to the survey."}},"version":1}}}}