{"contracts/Surpay.sol":{"Surpay":{"abi":[{"inputs":[{"internalType":"uint256","name":"_surveyCreationFee","type":"uint256"},{"internalType":"uint256","name":"_interval","type":"uint256"}],"stateMutability":"nonpayable","type":"constructor"},{"inputs":[],"name":"Surpay__MaximumRespondantsReached","type":"error"},{"inputs":[],"name":"Surpay__NotEnoughFunds","type":"error"},{"inputs":[],"name":"Surpay__NotOwner","type":"error"},{"inputs":[],"name":"Surpay__SurveyNotFound","type":"error"},{"inputs":[],"name":"Surpay__TransferFailed","type":"error"},{"inputs":[],"name":"Surpay__UpkeepNotNeeded","type":"error"},{"anonymous":false,"inputs":[{"indexed":true,"internalType":"string","name":"surveyId","type":"string"}],"name":"SurveyCompleted","type":"event"},{"anonymous":false,"inputs":[{"indexed":true,"internalType":"string","name":"surveyId","type":"string"}],"name":"SurveyCreated","type":"event"},{"anonymous":false,"inputs":[{"indexed":true,"internalType":"string","name":"surveyId","type":"string"}],"name":"SurveyTakersPaid","type":"event"},{"anonymous":false,"inputs":[{"indexed":true,"internalType":"address","name":"surveyTaker","type":"address"}],"name":"UserAddedToSurvey","type":"event"},{"inputs":[{"internalType":"bytes","name":"","type":"bytes"}],"name":"checkUpkeep","outputs":[{"internalType":"bool","name":"upkeepNeeded","type":"bool"},{"internalType":"bytes","name":"","type":"bytes"}],"stateMutability":"nonpayable","type":"function"},{"inputs":[{"internalType":"string","name":"_surveyId","type":"string"},{"internalType":"string","name":"_companyId","type":"string"},{"internalType":"uint256","name":"_totalPayoutAmount","type":"uint256"},{"internalType":"uint256","name":"_numOfParticipantsDesired","type":"uint256"}],"name":"createSurvey","outputs":[],"stateMutability":"payable","type":"function"},{"inputs":[{"internalType":"uint256","name":"index","type":"uint256"}],"name":"distributeFundsFromCompletedSurvey","outputs":[],"stateMutability":"nonpayable","type":"function"},{"inputs":[{"internalType":"string","name":"surveyId","type":"string"}],"name":"getAllSurveyResponseData","outputs":[{"internalType":"string[]","name":"","type":"string[]"}],"stateMutability":"view","type":"function"},{"inputs":[{"internalType":"string","name":"surveyId","type":"string"}],"name":"getCompanyId","outputs":[{"internalType":"string","name":"","type":"string"}],"stateMutability":"view","type":"function"},{"inputs":[],"name":"getInterval","outputs":[{"internalType":"uint256","name":"","type":"uint256"}],"stateMutability":"view","type":"function"},{"inputs":[{"internalType":"string","name":"surveyId","type":"string"}],"name":"getLastTimeStamp","outputs":[{"internalType":"uint256","name":"","type":"uint256"}],"stateMutability":"view","type":"function"},{"inputs":[],"name":"getOwner","outputs":[{"internalType":"address","name":"","type":"address"}],"stateMutability":"view","type":"function"},{"inputs":[{"internalType":"string","name":"surveyId","type":"string"}],"name":"getPayoutPerPersonBySurveyId","outputs":[{"internalType":"uint256","name":"","type":"uint256"}],"stateMutability":"view","type":"function"},{"inputs":[],"name":"getSurveyCreationFee","outputs":[{"internalType":"uint256","name":"","type":"uint256"}],"stateMutability":"view","type":"function"},{"inputs":[{"internalType":"string","name":"_surveyId","type":"string"}],"name":"getSurveyPayoutAmount","outputs":[{"internalType":"uint256","name":"","type":"uint256"}],"stateMutability":"view","type":"function"},{"inputs":[{"internalType":"string","name":"surveyId","type":"string"},{"internalType":"uint256","name":"responseIndex","type":"uint256"}],"name":"getSurveyResponseData","outputs":[{"internalType":"string","name":"","type":"string"}],"stateMutability":"view","type":"function"},{"inputs":[{"internalType":"string","name":"_surveyId","type":"string"}],"name":"getSurveyState","outputs":[{"internalType":"enum Surpay.SurveyState","name":"","type":"uint8"}],"stateMutability":"view","type":"function"},{"inputs":[{"internalType":"string","name":"surveyId","type":"string"},{"internalType":"uint256","name":"userIndex","type":"uint256"}],"name":"getSurveyTaker","outputs":[{"internalType":"address","name":"","type":"address"}],"stateMutability":"view","type":"function"},{"inputs":[{"internalType":"bytes","name":"","type":"bytes"}],"name":"performUpkeep","outputs":[],"stateMutability":"nonpayable","type":"function"},{"inputs":[],"name":"removeCompletedSurveys","outputs":[],"stateMutability":"nonpayable","type":"function"},{"inputs":[{"internalType":"string","name":"_surveyId","type":"string"},{"internalType":"string","name":"_surveyData","type":"string"},{"internalType":"address","name":"userAddress","type":"address"}],"name":"sendUserSurveyData","outputs":[],"stateMutability":"nonpayable","type":"function"}],"devdoc":{"kind":"dev","methods":{"distributeFundsFromCompletedSurvey(uint256)":{"details":"The index of s_completeSurveys is passed in from performUpkeep()."}},"version":1},"evm":{"bytecode":{"linkReferences":{},"object":"60c06040523480156200001157600080fd5b50604051620028dc380380620028dc8339818101604052810190620000379190620000cf565b336000806101000a81548173ffffffffffffffffffffffffffffffffffffffff021916908373ffffffffffffffffffffffffffffffffffffffff16021790555081608081815250508060a08181525050505062000116565b600080fd5b6000819050919050565b620000a98162000094565b8114620000b557600080fd5b50565b600081519050620000c9816200009e565b92915050565b60008060408385031215620000e957620000e86200008f565b5b6000620000f985828601620000b8565b92505060206200010c85828601620000b8565b9150509250929050565b60805160a051612799620001436000396000610da9015260008181610e5a015261114201526127996000f3fe6080604052600436106100fe5760003560e01c806391ad27b411610095578063bab26fd211610064578063bab26fd214610373578063c3b9a2c81461039e578063e1744d72146103c7578063e74b36df14610404578063eb9992c314610441576100fe565b806391ad27b4146102b25780639759ac36146102dd578063ac9d6a2b1461031a578063b374ff2914610336576100fe565b806350597f8a116100d157806350597f8a146101cf578063653cba7d1461020c5780636e04ff0d14610249578063893d20e814610287576100fe565b8063129983011461010357806324405aa91461014057806324445aeb1461017d5780634585e33b146101a6575b600080fd5b34801561010f57600080fd5b5061012a60048036038101906101259190611ba0565b610458565b6040516101379190611c3d565b60405180910390f35b34801561014c57600080fd5b5061016760048036038101906101629190611ba0565b610520565b6040516101749190611cd7565b60405180910390f35b34801561018957600080fd5b506101a4600480360381019061019f9190611d25565b610651565b005b3480156101b257600080fd5b506101cd60048036038101906101c89190611e10565b6109b6565b005b3480156101db57600080fd5b506101f660048036038101906101f19190611e5d565b610b71565b6040516102039190611fb2565b60405180910390f35b34801561021857600080fd5b50610233600480360381019061022e9190611e5d565b610ccc565b6040516102409190611fe3565b60405180910390f35b34801561025557600080fd5b50610270600480360381019061026b919061209f565b610d57565b60405161027e929190612158565b60405180910390f35b34801561029357600080fd5b5061029c610d7c565b6040516102a99190611c3d565b60405180910390f35b3480156102be57600080fd5b506102c7610da5565b6040516102d49190611fe3565b60405180910390f35b3480156102e957600080fd5b5061030460048036038101906102ff9190611e5d565b610dcd565b6040516103119190611fe3565b60405180910390f35b610334600480360381019061032f9190612188565b610e58565b005b34801561034257600080fd5b5061035d60048036038101906103589190611e5d565b6110a6565b60405161036a919061229e565b60405180910390f35b34801561037f57600080fd5b5061038861113e565b6040516103959190611fe3565b60405180910390f35b3480156103aa57600080fd5b506103c560048036038101906103c091906122b9565b611166565b005b3480156103d357600080fd5b506103ee60048036038101906103e99190611e5d565b611448565b6040516103fb9190611cd7565b60405180910390f35b34801561041057600080fd5b5061042b60048036038101906104269190611e5d565b6114fb565b6040516104389190611fe3565b60405180910390f35b34801561044d57600080fd5b506104566115b2565b005b60008060018460405161046b9190612322565b90815260200160405180910390206003015411156104e8576001836040516104939190612322565b908152602001604051809103902060060182815481106104b6576104b5612339565b5b9060005260206000200160009054906101000a900473ffffffffffffffffffffffffffffffffffffffff16905061051a565b6040517fb01e933700000000000000000000000000000000000000000000000000000000815260040160405180910390fd5b92915050565b606060006001846040516105349190612322565b90815260200160405180910390206003015411156106195760018360405161055c9190612322565b9081526020016040518091039020600501828154811061057f5761057e612339565b5b90600052602060002001805461059490612397565b80601f01602080910402602001604051908101604052809291908181526020018280546105c090612397565b801561060d5780601f106105e25761010080835404028352916020019161060d565b820191906000526020600020905b8154815290600101906020018083116105f057829003601f168201915b5050505050905061064b565b6040517fb01e933700000000000000000000000000000000000000000000000000000000815260040160405180910390fd5b92915050565b60008054906101000a900473ffffffffffffffffffffffffffffffffffffffff1673ffffffffffffffffffffffffffffffffffffffff163373ffffffffffffffffffffffffffffffffffffffff16146106d6576040517fba34867000000000000000000000000000000000000000000000000000000000815260040160405180910390fd5b6001836040516106e69190612322565b9081526020016040518091039020600401546001846040516107089190612322565b908152602001604051809103902060030154111561097f576001836040516107309190612322565b9081526020016040518091039020600501829080600181540180825580915050600190039060005260206000200160009091909190915090816107739190612574565b506001836040516107849190612322565b9081526020016040518091039020600601819080600181540180825580915050600190039060005260206000200160009091909190916101000a81548173ffffffffffffffffffffffffffffffffffffffff021916908373ffffffffffffffffffffffffffffffffffffffff1602179055506001836040516108069190612322565b9081526020016040518091039020600401600081548092919061082890612675565b919050555060018360405161083d9190612322565b90815260200160405180910390206004015460018460405161085f9190612322565b9081526020016040518091039020600301540361093757600180846040516108879190612322565b908152602001604051809103902060080160006101000a81548160ff021916908360018111156108ba576108b9612227565b5b02179055506002839080600181540180825580915050600190039060005260206000200160009091909190915090816108f39190612574565b50826040516109029190612322565b60405180910390207fc9629617ac320e57fa622f79c211617de659a3b7cbdda927e47dea5e4c0ab4da60405160405180910390a25b8073ffffffffffffffffffffffffffffffffffffffff167f099cc064944e6569611b439843932fa853d46618d78ca5a8e3989bcc5614853d60405160405180910390a26109b1565b6040517f13c8108e00000000000000000000000000000000000000000000000000000000815260040160405180910390fd5b505050565b60006109d060405180602001604052806000815250610d57565b5090508015610b3a5760006002805480602002602001604051908101604052809291908181526020016000905b82821015610aa9578382906000526020600020018054610a1c90612397565b80601f0160208091040260200160405190810160405280929190818152602001828054610a4890612397565b8015610a955780601f10610a6a57610100808354040283529160200191610a95565b820191906000526020600020905b815481529060010190602001808311610a7857829003601f168201915b5050505050815260200190600101906109fd565b50505050905060005b8151811015610b3357610ac481611166565b818181518110610ad757610ad6612339565b5b6020026020010151604051610aec9190612322565b60405180910390207fa7998895d8d2e7856091bd8a5895a54d831c4d6c8bd8a8611ec2c1f873872fef60405160405180910390a28080610b2b90612675565b915050610ab2565b5050610b6c565b6040517fe47d1a5100000000000000000000000000000000000000000000000000000000815260040160405180910390fd5b505050565b60606000600183604051610b859190612322565b9081526020016040518091039020600301541115610c9557600182604051610bad9190612322565b9081526020016040518091039020600501805480602002602001604051908101604052809291908181526020016000905b82821015610c8a578382906000526020600020018054610bfd90612397565b80601f0160208091040260200160405190810160405280929190818152602001828054610c2990612397565b8015610c765780601f10610c4b57610100808354040283529160200191610c76565b820191906000526020600020905b815481529060010190602001808311610c5957829003601f168201915b505050505081526020019060010190610bde565b505050509050610cc7565b6040517fb01e933700000000000000000000000000000000000000000000000000000000815260040160405180910390fd5b919050565b600080600183604051610cdf9190612322565b9081526020016040518091039020600301541115610d2057600182604051610d079190612322565b9081526020016040518091039020600701549050610d52565b6040517fb01e933700000000000000000000000000000000000000000000000000000000815260040160405180910390fd5b919050565b6000606060006002805490501115610d725760019150610d77565b600091505b915091565b60008060009054906101000a900473ffffffffffffffffffffffffffffffffffffffff16905090565b60007f0000000000000000000000000000000000000000000000000000000000000000905090565b600080600183604051610de09190612322565b9081526020016040518091039020600301541115610e2157600182604051610e089190612322565b9081526020016040518091039020600201549050610e53565b6040517fb01e933700000000000000000000000000000000000000000000000000000000815260040160405180910390fd5b919050565b7f0000000000000000000000000000000000000000000000000000000000000000341015610eb2576040517fc09bb52500000000000000000000000000000000000000000000000000000000815260040160405180910390fd5b610eba6117f6565b83816000018190525033816020019073ffffffffffffffffffffffffffffffffffffffff16908173ffffffffffffffffffffffffffffffffffffffff16815250508281604001818152505081816060018181525050428160e001818152505060008161010001906001811115610f3357610f32612227565b5b90816001811115610f4757610f46612227565b5b8152505080600186604051610f5c9190612322565b90815260200160405180910390206000820151816000019081610f7f9190612574565b5060208201518160010160006101000a81548173ffffffffffffffffffffffffffffffffffffffff021916908373ffffffffffffffffffffffffffffffffffffffff16021790555060408201518160020155606082015181600301556080820151816004015560a082015181600501908051906020019061100192919061186a565b5060c082015181600601908051906020019061101e9291906118c3565b5060e082015181600701556101008201518160080160006101000a81548160ff0219169083600181111561105557611054612227565b5b02179055509050508460405161106b9190612322565b60405180910390207fcc65c6fb1d804ba1dc418f9e3659483d310357279f035d45b8ea484fd6fe4a2f60405160405180910390a25050505050565b6000806001836040516110b99190612322565b9081526020016040518091039020600301541115611107576001826040516110e19190612322565b908152602001604051809103902060080160009054906101000a900460ff169050611139565b6040517fb01e933700000000000000000000000000000000000000000000000000000000815260040160405180910390fd5b919050565b60007f0000000000000000000000000000000000000000000000000000000000000000905090565b60006002805480602002602001604051908101604052809291908181526020016000905b828210156112365783829060005260206000200180546111a990612397565b80601f01602080910402602001604051908101604052809291908181526020018280546111d590612397565b80156112225780601f106111f757610100808354040283529160200191611222565b820191906000526020600020905b81548152906001019060200180831161120557829003601f168201915b50505050508152602001906001019061118a565b5050505090506000600182848151811061125357611252612339565b5b60200260200101516040516112689190612322565b908152602001604051809103902060040154600183858151811061128f5761128e612339565b5b60200260200101516040516112a49190612322565b9081526020016040518091039020600201546112c091906126ec565b905060005b60018385815181106112da576112d9612339565b5b60200260200101516040516112ef9190612322565b908152602001604051809103902060060180549050811015611442574782101561142f576000600184868151811061132a57611329612339565b5b602002602001015160405161133f9190612322565b9081526020016040518091039020600601828154811061136257611361612339565b5b9060005260206000200160009054906101000a900473ffffffffffffffffffffffffffffffffffffffff1673ffffffffffffffffffffffffffffffffffffffff16836040516113b09061274e565b60006040518083038185875af1925050503d80600081146113ed576040519150601f19603f3d011682016040523d82523d6000602084013e6113f2565b606091505b505090508061142d576040517f09e6a19a00000000000000000000000000000000000000000000000000000000815260040160405180910390fd5b505b808061143a90612675565b9150506112c5565b50505050565b606060018260405161145a9190612322565b9081526020016040518091039020600001805461147690612397565b80601f01602080910402602001604051908101604052809291908181526020018280546114a290612397565b80156114ef5780601f106114c4576101008083540402835291602001916114ef565b820191906000526020600020905b8154815290600101906020018083116114d257829003601f168201915b50505050509050919050565b60008060018360405161150e9190612322565b908152602001604051809103902060030154111561157b576001826040516115369190612322565b9081526020016040518091039020600301546001836040516115589190612322565b90815260200160405180910390206002015461157491906126ec565b90506115ad565b6040517fb01e933700000000000000000000000000000000000000000000000000000000815260040160405180910390fd5b919050565b60008054906101000a900473ffffffffffffffffffffffffffffffffffffffff1673ffffffffffffffffffffffffffffffffffffffff163373ffffffffffffffffffffffffffffffffffffffff1614611637576040517fba34867000000000000000000000000000000000000000000000000000000000815260040160405180910390fd5b60006002805480602002602001604051908101604052809291908181526020016000905b8282101561170757838290600052602060002001805461167a90612397565b80601f01602080910402602001604051908101604052809291908181526020018280546116a690612397565b80156116f35780601f106116c8576101008083540402835291602001916116f3565b820191906000526020600020905b8154815290600101906020018083116116d657829003601f168201915b50505050508152602001906001019061165b565b50505050905060005b81518110156117f257600182828151811061172e5761172d612339565b5b60200260200101516040516117439190612322565b908152602001604051809103902060008082016000611762919061194d565b6001820160006101000a81549073ffffffffffffffffffffffffffffffffffffffff02191690556002820160009055600382016000905560048201600090556005820160006117b1919061198d565b6006820160006117c191906119ae565b60078201600090556008820160006101000a81549060ff0219169055505080806117ea90612675565b915050611710565b5050565b60405180610120016040528060608152602001600073ffffffffffffffffffffffffffffffffffffffff1681526020016000815260200160008152602001600081526020016060815260200160608152602001600081526020016000600181111561186457611863612227565b5b81525090565b8280548282559060005260206000209081019282156118b2579160200282015b828111156118b15782518290816118a19190612574565b509160200191906001019061188a565b5b5090506118bf91906119cf565b5090565b82805482825590600052602060002090810192821561193c579160200282015b8281111561193b5782518260006101000a81548173ffffffffffffffffffffffffffffffffffffffff021916908373ffffffffffffffffffffffffffffffffffffffff160217905550916020019190600101906118e3565b5b50905061194991906119f3565b5090565b50805461195990612397565b6000825580601f1061196b575061198a565b601f01602090049060005260206000209081019061198991906119f3565b5b50565b50805460008255906000526020600020908101906119ab91906119cf565b50565b50805460008255906000526020600020908101906119cc91906119f3565b50565b5b808211156119ef57600081816119e6919061194d565b506001016119d0565b5090565b5b80821115611a0c5760008160009055506001016119f4565b5090565b6000604051905090565b600080fd5b600080fd5b600080fd5b600080fd5b6000601f19601f8301169050919050565b7f4e487b7100000000000000000000000000000000000000000000000000000000600052604160045260246000fd5b611a7782611a2e565b810181811067ffffffffffffffff82111715611a9657611a95611a3f565b5b80604052505050565b6000611aa9611a10565b9050611ab58282611a6e565b919050565b600067ffffffffffffffff821115611ad557611ad4611a3f565b5b611ade82611a2e565b9050602081019050919050565b82818337600083830152505050565b6000611b0d611b0884611aba565b611a9f565b905082815260208101848484011115611b2957611b28611a29565b5b611b34848285611aeb565b509392505050565b600082601f830112611b5157611b50611a24565b5b8135611b61848260208601611afa565b91505092915050565b6000819050919050565b611b7d81611b6a565b8114611b8857600080fd5b50565b600081359050611b9a81611b74565b92915050565b60008060408385031215611bb757611bb6611a1a565b5b600083013567ffffffffffffffff811115611bd557611bd4611a1f565b5b611be185828601611b3c565b9250506020611bf285828601611b8b565b9150509250929050565b600073ffffffffffffffffffffffffffffffffffffffff82169050919050565b6000611c2782611bfc565b9050919050565b611c3781611c1c565b82525050565b6000602082019050611c526000830184611c2e565b92915050565b600081519050919050565b600082825260208201905092915050565b60005b83811015611c92578082015181840152602081019050611c77565b60008484015250505050565b6000611ca982611c58565b611cb38185611c63565b9350611cc3818560208601611c74565b611ccc81611a2e565b840191505092915050565b60006020820190508181036000830152611cf18184611c9e565b905092915050565b611d0281611c1c565b8114611d0d57600080fd5b50565b600081359050611d1f81611cf9565b92915050565b600080600060608486031215611d3e57611d3d611a1a565b5b600084013567ffffffffffffffff811115611d5c57611d5b611a1f565b5b611d6886828701611b3c565b935050602084013567ffffffffffffffff811115611d8957611d88611a1f565b5b611d9586828701611b3c565b9250506040611da686828701611d10565b9150509250925092565b600080fd5b600080fd5b60008083601f840112611dd057611dcf611a24565b5b8235905067ffffffffffffffff811115611ded57611dec611db0565b5b602083019150836001820283011115611e0957611e08611db5565b5b9250929050565b60008060208385031215611e2757611e26611a1a565b5b600083013567ffffffffffffffff811115611e4557611e44611a1f565b5b611e5185828601611dba565b92509250509250929050565b600060208284031215611e7357611e72611a1a565b5b600082013567ffffffffffffffff811115611e9157611e90611a1f565b5b611e9d84828501611b3c565b91505092915050565b600081519050919050565b600082825260208201905092915050565b6000819050602082019050919050565b600082825260208201905092915050565b6000611eee82611c58565b611ef88185611ed2565b9350611f08818560208601611c74565b611f1181611a2e565b840191505092915050565b6000611f288383611ee3565b905092915050565b6000602082019050919050565b6000611f4882611ea6565b611f528185611eb1565b935083602082028501611f6485611ec2565b8060005b85811015611fa05784840389528151611f818582611f1c565b9450611f8c83611f30565b925060208a01995050600181019050611f68565b50829750879550505050505092915050565b60006020820190508181036000830152611fcc8184611f3d565b905092915050565b611fdd81611b6a565b82525050565b6000602082019050611ff86000830184611fd4565b92915050565b600067ffffffffffffffff82111561201957612018611a3f565b5b61202282611a2e565b9050602081019050919050565b600061204261203d84611ffe565b611a9f565b90508281526020810184848401111561205e5761205d611a29565b5b612069848285611aeb565b509392505050565b600082601f83011261208657612085611a24565b5b813561209684826020860161202f565b91505092915050565b6000602082840312156120b5576120b4611a1a565b5b600082013567ffffffffffffffff8111156120d3576120d2611a1f565b5b6120df84828501612071565b91505092915050565b60008115159050919050565b6120fd816120e8565b82525050565b600081519050919050565b600082825260208201905092915050565b600061212a82612103565b612134818561210e565b9350612144818560208601611c74565b61214d81611a2e565b840191505092915050565b600060408201905061216d60008301856120f4565b818103602083015261217f818461211f565b90509392505050565b600080600080608085870312156121a2576121a1611a1a565b5b600085013567ffffffffffffffff8111156121c0576121bf611a1f565b5b6121cc87828801611b3c565b945050602085013567ffffffffffffffff8111156121ed576121ec611a1f565b5b6121f987828801611b3c565b935050604061220a87828801611b8b565b925050606061221b87828801611b8b565b91505092959194509250565b7f4e487b7100000000000000000000000000000000000000000000000000000000600052602160045260246000fd5b6002811061226757612266612227565b5b50565b600081905061227882612256565b919050565b60006122888261226a565b9050919050565b6122988161227d565b82525050565b60006020820190506122b3600083018461228f565b92915050565b6000602082840312156122cf576122ce611a1a565b5b60006122dd84828501611b8b565b91505092915050565b600081905092915050565b60006122fc82611c58565b61230681856122e6565b9350612316818560208601611c74565b80840191505092915050565b600061232e82846122f1565b915081905092915050565b7f4e487b7100000000000000000000000000000000000000000000000000000000600052603260045260246000fd5b7f4e487b7100000000000000000000000000000000000000000000000000000000600052602260045260246000fd5b600060028204905060018216806123af57607f821691505b6020821081036123c2576123c1612368565b5b50919050565b60008190508160005260206000209050919050565b60006020601f8301049050919050565b600082821b905092915050565b60006008830261242a7fffffffffffffffffffffffffffffffffffffffffffffffffffffffffffffffff826123ed565b61243486836123ed565b95508019841693508086168417925050509392505050565b6000819050919050565b600061247161246c61246784611b6a565b61244c565b611b6a565b9050919050565b6000819050919050565b61248b83612456565b61249f61249782612478565b8484546123fa565b825550505050565b600090565b6124b46124a7565b6124bf818484612482565b505050565b5b818110156124e3576124d86000826124ac565b6001810190506124c5565b5050565b601f821115612528576124f9816123c8565b612502846123dd565b81016020851015612511578190505b61252561251d856123dd565b8301826124c4565b50505b505050565b600082821c905092915050565b600061254b6000198460080261252d565b1980831691505092915050565b6000612564838361253a565b9150826002028217905092915050565b61257d82611c58565b67ffffffffffffffff81111561259657612595611a3f565b5b6125a08254612397565b6125ab8282856124e7565b600060209050601f8311600181146125de57600084156125cc578287015190505b6125d68582612558565b86555061263e565b601f1984166125ec866123c8565b60005b82811015612614578489015182556001820191506020850194506020810190506125ef565b86831015612631578489015161262d601f89168261253a565b8355505b6001600288020188555050505b505050505050565b7f4e487b7100000000000000000000000000000000000000000000000000000000600052601160045260246000fd5b600061268082611b6a565b91507fffffffffffffffffffffffffffffffffffffffffffffffffffffffffffffffff82036126b2576126b1612646565b5b600182019050919050565b7f4e487b7100000000000000000000000000000000000000000000000000000000600052601260045260246000fd5b60006126f782611b6a565b915061270283611b6a565b925082612712576127116126bd565b5b828204905092915050565b600081905092915050565b50565b600061273860008361271d565b915061274382612728565b600082019050919050565b60006127598261272b565b915081905091905056fea26469706673582212201a69406156257767972e6ce5575554ef4a6dffb335d2968435a1c79c803e7ec364736f6c63430008110033","opcodes":"PUSH1 0xC0 PUSH1 0x40 MSTORE CALLVALUE DUP1 ISZERO PUSH3 0x11 JUMPI PUSH1 0x0 DUP1 REVERT JUMPDEST POP PUSH1 0x40 MLOAD PUSH3 0x28DC CODESIZE SUB DUP1 PUSH3 0x28DC DUP4 CODECOPY DUP2 DUP2 ADD PUSH1 0x40 MSTORE DUP2 ADD SWAP1 PUSH3 0x37 SWAP2 SWAP1 PUSH3 0xCF JUMP JUMPDEST CALLER PUSH1 0x0 DUP1 PUSH2 0x100 EXP DUP2 SLOAD DUP2 PUSH20 0xFFFFFFFFFFFFFFFFFFFFFFFFFFFFFFFFFFFFFFFF MUL NOT AND SWAP1 DUP4 PUSH20 0xFFFFFFFFFFFFFFFFFFFFFFFFFFFFFFFFFFFFFFFF AND MUL OR SWAP1 SSTORE POP DUP2 PUSH1 0x80 DUP2 DUP2 MSTORE POP POP DUP1 PUSH1 0xA0 DUP2 DUP2 MSTORE POP POP POP POP PUSH3 0x116 JUMP JUMPDEST PUSH1 0x0 DUP1 REVERT JUMPDEST PUSH1 0x0 DUP2 SWAP1 POP SWAP2 SWAP1 POP JUMP JUMPDEST PUSH3 0xA9 DUP2 PUSH3 0x94 JUMP JUMPDEST DUP2 EQ PUSH3 0xB5 JUMPI PUSH1 0x0 DUP1 REVERT JUMPDEST POP JUMP JUMPDEST PUSH1 0x0 DUP2 MLOAD SWAP1 POP PUSH3 0xC9 DUP2 PUSH3 0x9E JUMP JUMPDEST SWAP3 SWAP2 POP POP JUMP JUMPDEST PUSH1 0x0 DUP1 PUSH1 0x40 DUP4 DUP6 SUB SLT ISZERO PUSH3 0xE9 JUMPI PUSH3 0xE8 PUSH3 0x8F JUMP JUMPDEST JUMPDEST PUSH1 0x0 PUSH3 0xF9 DUP6 DUP3 DUP7 ADD PUSH3 0xB8 JUMP JUMPDEST SWAP3 POP POP PUSH1 0x20 PUSH3 0x10C DUP6 DUP3 DUP7 ADD PUSH3 0xB8 JUMP JUMPDEST SWAP2 POP POP SWAP3 POP SWAP3 SWAP1 POP JUMP JUMPDEST PUSH1 0x80 MLOAD PUSH1 0xA0 MLOAD PUSH2 0x2799 PUSH3 0x143 PUSH1 0x0 CODECOPY PUSH1 0x0 PUSH2 0xDA9 ADD MSTORE PUSH1 0x0 DUP2 DUP2 PUSH2 0xE5A ADD MSTORE PUSH2 0x1142 ADD MSTORE PUSH2 0x2799 PUSH1 0x0 RETURN INVALID PUSH1 0x80 PUSH1 0x40 MSTORE PUSH1 0x4 CALLDATASIZE LT PUSH2 0xFE JUMPI PUSH1 0x0 CALLDATALOAD PUSH1 0xE0 SHR DUP1 PUSH4 0x91AD27B4 GT PUSH2 0x95 JUMPI DUP1 PUSH4 0xBAB26FD2 GT PUSH2 0x64 JUMPI DUP1 PUSH4 0xBAB26FD2 EQ PUSH2 0x373 JUMPI DUP1 PUSH4 0xC3B9A2C8 EQ PUSH2 0x39E JUMPI DUP1 PUSH4 0xE1744D72 EQ PUSH2 0x3C7 JUMPI DUP1 PUSH4 0xE74B36DF EQ PUSH2 0x404 JUMPI DUP1 PUSH4 0xEB9992C3 EQ PUSH2 0x441 JUMPI PUSH2 0xFE JUMP JUMPDEST DUP1 PUSH4 0x91AD27B4 EQ PUSH2 0x2B2 JUMPI DUP1 PUSH4 0x9759AC36 EQ PUSH2 0x2DD JUMPI DUP1 PUSH4 0xAC9D6A2B EQ PUSH2 0x31A JUMPI DUP1 PUSH4 0xB374FF29 EQ PUSH2 0x336 JUMPI PUSH2 0xFE JUMP JUMPDEST DUP1 PUSH4 0x50597F8A GT PUSH2 0xD1 JUMPI DUP1 PUSH4 0x50597F8A EQ PUSH2 0x1CF JUMPI DUP1 PUSH4 0x653CBA7D EQ PUSH2 0x20C JUMPI DUP1 PUSH4 0x6E04FF0D EQ PUSH2 0x249 JUMPI DUP1 PUSH4 0x893D20E8 EQ PUSH2 0x287 JUMPI PUSH2 0xFE JUMP JUMPDEST DUP1 PUSH4 0x12998301 EQ PUSH2 0x103 JUMPI DUP1 PUSH4 0x24405AA9 EQ PUSH2 0x140 JUMPI DUP1 PUSH4 0x24445AEB EQ PUSH2 0x17D JUMPI DUP1 PUSH4 0x4585E33B EQ PUSH2 0x1A6 JUMPI JUMPDEST PUSH1 0x0 DUP1 REVERT JUMPDEST CALLVALUE DUP1 ISZERO PUSH2 0x10F JUMPI PUSH1 0x0 DUP1 REVERT JUMPDEST POP PUSH2 0x12A PUSH1 0x4 DUP1 CALLDATASIZE SUB DUP2 ADD SWAP1 PUSH2 0x125 SWAP2 SWAP1 PUSH2 0x1BA0 JUMP JUMPDEST PUSH2 0x458 JUMP JUMPDEST PUSH1 0x40 MLOAD PUSH2 0x137 SWAP2 SWAP1 PUSH2 0x1C3D JUMP JUMPDEST PUSH1 0x40 MLOAD DUP1 SWAP2 SUB SWAP1 RETURN JUMPDEST CALLVALUE DUP1 ISZERO PUSH2 0x14C JUMPI PUSH1 0x0 DUP1 REVERT JUMPDEST POP PUSH2 0x167 PUSH1 0x4 DUP1 CALLDATASIZE SUB DUP2 ADD SWAP1 PUSH2 0x162 SWAP2 SWAP1 PUSH2 0x1BA0 JUMP JUMPDEST PUSH2 0x520 JUMP JUMPDEST PUSH1 0x40 MLOAD PUSH2 0x174 SWAP2 SWAP1 PUSH2 0x1CD7 JUMP JUMPDEST PUSH1 0x40 MLOAD DUP1 SWAP2 SUB SWAP1 RETURN JUMPDEST CALLVALUE DUP1 ISZERO PUSH2 0x189 JUMPI PUSH1 0x0 DUP1 REVERT JUMPDEST POP PUSH2 0x1A4 PUSH1 0x4 DUP1 CALLDATASIZE SUB DUP2 ADD SWAP1 PUSH2 0x19F SWAP2 SWAP1 PUSH2 0x1D25 JUMP JUMPDEST PUSH2 0x651 JUMP JUMPDEST STOP JUMPDEST CALLVALUE DUP1 ISZERO PUSH2 0x1B2 JUMPI PUSH1 0x0 DUP1 REVERT JUMPDEST POP PUSH2 0x1CD PUSH1 0x4 DUP1 CALLDATASIZE SUB DUP2 ADD SWAP1 PUSH2 0x1C8 SWAP2 SWAP1 PUSH2 0x1E10 JUMP JUMPDEST PUSH2 0x9B6 JUMP JUMPDEST STOP JUMPDEST CALLVALUE DUP1 ISZERO PUSH2 0x1DB JUMPI PUSH1 0x0 DUP1 REVERT JUMPDEST POP PUSH2 0x1F6 PUSH1 0x4 DUP1 CALLDATASIZE SUB DUP2 ADD SWAP1 PUSH2 0x1F1 SWAP2 SWAP1 PUSH2 0x1E5D JUMP JUMPDEST PUSH2 0xB71 JUMP JUMPDEST PUSH1 0x40 MLOAD PUSH2 0x203 SWAP2 SWAP1 PUSH2 0x1FB2 JUMP JUMPDEST PUSH1 0x40 MLOAD DUP1 SWAP2 SUB SWAP1 RETURN JUMPDEST CALLVALUE DUP1 ISZERO PUSH2 0x218 JUMPI PUSH1 0x0 DUP1 REVERT JUMPDEST POP PUSH2 0x233 PUSH1 0x4 DUP1 CALLDATASIZE SUB DUP2 ADD SWAP1 PUSH2 0x22E SWAP2 SWAP1 PUSH2 0x1E5D JUMP JUMPDEST PUSH2 0xCCC JUMP JUMPDEST PUSH1 0x40 MLOAD PUSH2 0x240 SWAP2 SWAP1 PUSH2 0x1FE3 JUMP JUMPDEST PUSH1 0x40 MLOAD DUP1 SWAP2 SUB SWAP1 RETURN JUMPDEST CALLVALUE DUP1 ISZERO PUSH2 0x255 JUMPI PUSH1 0x0 DUP1 REVERT JUMPDEST POP PUSH2 0x270 PUSH1 0x4 DUP1 CALLDATASIZE SUB DUP2 ADD SWAP1 PUSH2 0x26B SWAP2 SWAP1 PUSH2 0x209F JUMP JUMPDEST PUSH2 0xD57 JUMP JUMPDEST PUSH1 0x40 MLOAD PUSH2 0x27E SWAP3 SWAP2 SWAP1 PUSH2 0x2158 JUMP JUMPDEST PUSH1 0x40 MLOAD DUP1 SWAP2 SUB SWAP1 RETURN JUMPDEST CALLVALUE DUP1 ISZERO PUSH2 0x293 JUMPI PUSH1 0x0 DUP1 REVERT JUMPDEST POP PUSH2 0x29C PUSH2 0xD7C JUMP JUMPDEST PUSH1 0x40 MLOAD PUSH2 0x2A9 SWAP2 SWAP1 PUSH2 0x1C3D JUMP JUMPDEST PUSH1 0x40 MLOAD DUP1 SWAP2 SUB SWAP1 RETURN JUMPDEST CALLVALUE DUP1 ISZERO PUSH2 0x2BE JUMPI PUSH1 0x0 DUP1 REVERT JUMPDEST POP PUSH2 0x2C7 PUSH2 0xDA5 JUMP JUMPDEST PUSH1 0x40 MLOAD PUSH2 0x2D4 SWAP2 SWAP1 PUSH2 0x1FE3 JUMP JUMPDEST PUSH1 0x40 MLOAD DUP1 SWAP2 SUB SWAP1 RETURN JUMPDEST CALLVALUE DUP1 ISZERO PUSH2 0x2E9 JUMPI PUSH1 0x0 DUP1 REVERT JUMPDEST POP PUSH2 0x304 PUSH1 0x4 DUP1 CALLDATASIZE SUB DUP2 ADD SWAP1 PUSH2 0x2FF SWAP2 SWAP1 PUSH2 0x1E5D JUMP JUMPDEST PUSH2 0xDCD JUMP JUMPDEST PUSH1 0x40 MLOAD PUSH2 0x311 SWAP2 SWAP1 PUSH2 0x1FE3 JUMP JUMPDEST PUSH1 0x40 MLOAD DUP1 SWAP2 SUB SWAP1 RETURN JUMPDEST PUSH2 0x334 PUSH1 0x4 DUP1 CALLDATASIZE SUB DUP2 ADD SWAP1 PUSH2 0x32F SWAP2 SWAP1 PUSH2 0x2188 JUMP JUMPDEST PUSH2 0xE58 JUMP JUMPDEST STOP JUMPDEST CALLVALUE DUP1 ISZERO PUSH2 0x342 JUMPI PUSH1 0x0 DUP1 REVERT JUMPDEST POP PUSH2 0x35D PUSH1 0x4 DUP1 CALLDATASIZE SUB DUP2 ADD SWAP1 PUSH2 0x358 SWAP2 SWAP1 PUSH2 0x1E5D JUMP JUMPDEST PUSH2 0x10A6 JUMP JUMPDEST PUSH1 0x40 MLOAD PUSH2 0x36A SWAP2 SWAP1 PUSH2 0x229E JUMP JUMPDEST PUSH1 0x40 MLOAD DUP1 SWAP2 SUB SWAP1 RETURN JUMPDEST CALLVALUE DUP1 ISZERO PUSH2 0x37F JUMPI PUSH1 0x0 DUP1 REVERT JUMPDEST POP PUSH2 0x388 PUSH2 0x113E JUMP JUMPDEST PUSH1 0x40 MLOAD PUSH2 0x395 SWAP2 SWAP1 PUSH2 0x1FE3 JUMP JUMPDEST PUSH1 0x40 MLOAD DUP1 SWAP2 SUB SWAP1 RETURN JUMPDEST CALLVALUE DUP1 ISZERO PUSH2 0x3AA JUMPI PUSH1 0x0 DUP1 REVERT JUMPDEST POP PUSH2 0x3C5 PUSH1 0x4 DUP1 CALLDATASIZE SUB DUP2 ADD SWAP1 PUSH2 0x3C0 SWAP2 SWAP1 PUSH2 0x22B9 JUMP JUMPDEST PUSH2 0x1166 JUMP JUMPDEST STOP JUMPDEST CALLVALUE DUP1 ISZERO PUSH2 0x3D3 JUMPI PUSH1 0x0 DUP1 REVERT JUMPDEST POP PUSH2 0x3EE PUSH1 0x4 DUP1 CALLDATASIZE SUB DUP2 ADD SWAP1 PUSH2 0x3E9 SWAP2 SWAP1 PUSH2 0x1E5D JUMP JUMPDEST PUSH2 0x1448 JUMP JUMPDEST PUSH1 0x40 MLOAD PUSH2 0x3FB SWAP2 SWAP1 PUSH2 0x1CD7 JUMP JUMPDEST PUSH1 0x40 MLOAD DUP1 SWAP2 SUB SWAP1 RETURN JUMPDEST CALLVALUE DUP1 ISZERO PUSH2 0x410 JUMPI PUSH1 0x0 DUP1 REVERT JUMPDEST POP PUSH2 0x42B PUSH1 0x4 DUP1 CALLDATASIZE SUB DUP2 ADD SWAP1 PUSH2 0x426 SWAP2 SWAP1 PUSH2 0x1E5D JUMP JUMPDEST PUSH2 0x14FB JUMP JUMPDEST PUSH1 0x40 MLOAD PUSH2 0x438 SWAP2 SWAP1 PUSH2 0x1FE3 JUMP JUMPDEST PUSH1 0x40 MLOAD DUP1 SWAP2 SUB SWAP1 RETURN JUMPDEST CALLVALUE DUP1 ISZERO PUSH2 0x44D JUMPI PUSH1 0x0 DUP1 REVERT JUMPDEST POP PUSH2 0x456 PUSH2 0x15B2 JUMP JUMPDEST STOP JUMPDEST PUSH1 0x0 DUP1 PUSH1 0x1 DUP5 PUSH1 0x40 MLOAD PUSH2 0x46B SWAP2 SWAP1 PUSH2 0x2322 JUMP JUMPDEST SWAP1 DUP2 MSTORE PUSH1 0x20 ADD PUSH1 0x40 MLOAD DUP1 SWAP2 SUB SWAP1 KECCAK256 PUSH1 0x3 ADD SLOAD GT ISZERO PUSH2 0x4E8 JUMPI PUSH1 0x1 DUP4 PUSH1 0x40 MLOAD PUSH2 0x493 SWAP2 SWAP1 PUSH2 0x2322 JUMP JUMPDEST SWAP1 DUP2 MSTORE PUSH1 0x20 ADD PUSH1 0x40 MLOAD DUP1 SWAP2 SUB SWAP1 KECCAK256 PUSH1 0x6 ADD DUP3 DUP2 SLOAD DUP2 LT PUSH2 0x4B6 JUMPI PUSH2 0x4B5 PUSH2 0x2339 JUMP JUMPDEST JUMPDEST SWAP1 PUSH1 0x0 MSTORE PUSH1 0x20 PUSH1 0x0 KECCAK256 ADD PUSH1 0x0 SWAP1 SLOAD SWAP1 PUSH2 0x100 EXP SWAP1 DIV PUSH20 0xFFFFFFFFFFFFFFFFFFFFFFFFFFFFFFFFFFFFFFFF AND SWAP1 POP PUSH2 0x51A JUMP JUMPDEST PUSH1 0x40 MLOAD PUSH32 0xB01E933700000000000000000000000000000000000000000000000000000000 DUP2 MSTORE PUSH1 0x4 ADD PUSH1 0x40 MLOAD DUP1 SWAP2 SUB SWAP1 REVERT JUMPDEST SWAP3 SWAP2 POP POP JUMP JUMPDEST PUSH1 0x60 PUSH1 0x0 PUSH1 0x1 DUP5 PUSH1 0x40 MLOAD PUSH2 0x534 SWAP2 SWAP1 PUSH2 0x2322 JUMP JUMPDEST SWAP1 DUP2 MSTORE PUSH1 0x20 ADD PUSH1 0x40 MLOAD DUP1 SWAP2 SUB SWAP1 KECCAK256 PUSH1 0x3 ADD SLOAD GT ISZERO PUSH2 0x619 JUMPI PUSH1 0x1 DUP4 PUSH1 0x40 MLOAD PUSH2 0x55C SWAP2 SWAP1 PUSH2 0x2322 JUMP JUMPDEST SWAP1 DUP2 MSTORE PUSH1 0x20 ADD PUSH1 0x40 MLOAD DUP1 SWAP2 SUB SWAP1 KECCAK256 PUSH1 0x5 ADD DUP3 DUP2 SLOAD DUP2 LT PUSH2 0x57F JUMPI PUSH2 0x57E PUSH2 0x2339 JUMP JUMPDEST JUMPDEST SWAP1 PUSH1 0x0 MSTORE PUSH1 0x20 PUSH1 0x0 KECCAK256 ADD DUP1 SLOAD PUSH2 0x594 SWAP1 PUSH2 0x2397 JUMP JUMPDEST DUP1 PUSH1 0x1F ADD PUSH1 0x20 DUP1 SWAP2 DIV MUL PUSH1 0x20 ADD PUSH1 0x40 MLOAD SWAP1 DUP2 ADD PUSH1 0x40 MSTORE DUP1 SWAP3 SWAP2 SWAP1 DUP2 DUP2 MSTORE PUSH1 0x20 ADD DUP3 DUP1 SLOAD PUSH2 0x5C0 SWAP1 PUSH2 0x2397 JUMP JUMPDEST DUP1 ISZERO PUSH2 0x60D JUMPI DUP1 PUSH1 0x1F LT PUSH2 0x5E2 JUMPI PUSH2 0x100 DUP1 DUP4 SLOAD DIV MUL DUP4 MSTORE SWAP2 PUSH1 0x20 ADD SWAP2 PUSH2 0x60D JUMP JUMPDEST DUP3 ADD SWAP2 SWAP1 PUSH1 0x0 MSTORE PUSH1 0x20 PUSH1 0x0 KECCAK256 SWAP1 JUMPDEST DUP2 SLOAD DUP2 MSTORE SWAP1 PUSH1 0x1 ADD SWAP1 PUSH1 0x20 ADD DUP1 DUP4 GT PUSH2 0x5F0 JUMPI DUP3 SWAP1 SUB PUSH1 0x1F AND DUP3 ADD SWAP2 JUMPDEST POP POP POP POP POP SWAP1 POP PUSH2 0x64B JUMP JUMPDEST PUSH1 0x40 MLOAD PUSH32 0xB01E933700000000000000000000000000000000000000000000000000000000 DUP2 MSTORE PUSH1 0x4 ADD PUSH1 0x40 MLOAD DUP1 SWAP2 SUB SWAP1 REVERT JUMPDEST SWAP3 SWAP2 POP POP JUMP JUMPDEST PUSH1 0x0 DUP1 SLOAD SWAP1 PUSH2 0x100 EXP SWAP1 DIV PUSH20 0xFFFFFFFFFFFFFFFFFFFFFFFFFFFFFFFFFFFFFFFF AND PUSH20 0xFFFFFFFFFFFFFFFFFFFFFFFFFFFFFFFFFFFFFFFF AND CALLER PUSH20 0xFFFFFFFFFFFFFFFFFFFFFFFFFFFFFFFFFFFFFFFF AND EQ PUSH2 0x6D6 JUMPI PUSH1 0x40 MLOAD PUSH32 0xBA34867000000000000000000000000000000000000000000000000000000000 DUP2 MSTORE PUSH1 0x4 ADD PUSH1 0x40 MLOAD DUP1 SWAP2 SUB SWAP1 REVERT JUMPDEST PUSH1 0x1 DUP4 PUSH1 0x40 MLOAD PUSH2 0x6E6 SWAP2 SWAP1 PUSH2 0x2322 JUMP JUMPDEST SWAP1 DUP2 MSTORE PUSH1 0x20 ADD PUSH1 0x40 MLOAD DUP1 SWAP2 SUB SWAP1 KECCAK256 PUSH1 0x4 ADD SLOAD PUSH1 0x1 DUP5 PUSH1 0x40 MLOAD PUSH2 0x708 SWAP2 SWAP1 PUSH2 0x2322 JUMP JUMPDEST SWAP1 DUP2 MSTORE PUSH1 0x20 ADD PUSH1 0x40 MLOAD DUP1 SWAP2 SUB SWAP1 KECCAK256 PUSH1 0x3 ADD SLOAD GT ISZERO PUSH2 0x97F JUMPI PUSH1 0x1 DUP4 PUSH1 0x40 MLOAD PUSH2 0x730 SWAP2 SWAP1 PUSH2 0x2322 JUMP JUMPDEST SWAP1 DUP2 MSTORE PUSH1 0x20 ADD PUSH1 0x40 MLOAD DUP1 SWAP2 SUB SWAP1 KECCAK256 PUSH1 0x5 ADD DUP3 SWAP1 DUP1 PUSH1 0x1 DUP2 SLOAD ADD DUP1 DUP3 SSTORE DUP1 SWAP2 POP POP PUSH1 0x1 SWAP1 SUB SWAP1 PUSH1 0x0 MSTORE PUSH1 0x20 PUSH1 0x0 KECCAK256 ADD PUSH1 0x0 SWAP1 SWAP2 SWAP1 SWAP2 SWAP1 SWAP2 POP SWAP1 DUP2 PUSH2 0x773 SWAP2 SWAP1 PUSH2 0x2574 JUMP JUMPDEST POP PUSH1 0x1 DUP4 PUSH1 0x40 MLOAD PUSH2 0x784 SWAP2 SWAP1 PUSH2 0x2322 JUMP JUMPDEST SWAP1 DUP2 MSTORE PUSH1 0x20 ADD PUSH1 0x40 MLOAD DUP1 SWAP2 SUB SWAP1 KECCAK256 PUSH1 0x6 ADD DUP2 SWAP1 DUP1 PUSH1 0x1 DUP2 SLOAD ADD DUP1 DUP3 SSTORE DUP1 SWAP2 POP POP PUSH1 0x1 SWAP1 SUB SWAP1 PUSH1 0x0 MSTORE PUSH1 0x20 PUSH1 0x0 KECCAK256 ADD PUSH1 0x0 SWAP1 SWAP2 SWAP1 SWAP2 SWAP1 SWAP2 PUSH2 0x100 EXP DUP2 SLOAD DUP2 PUSH20 0xFFFFFFFFFFFFFFFFFFFFFFFFFFFFFFFFFFFFFFFF MUL NOT AND SWAP1 DUP4 PUSH20 0xFFFFFFFFFFFFFFFFFFFFFFFFFFFFFFFFFFFFFFFF AND MUL OR SWAP1 SSTORE POP PUSH1 0x1 DUP4 PUSH1 0x40 MLOAD PUSH2 0x806 SWAP2 SWAP1 PUSH2 0x2322 JUMP JUMPDEST SWAP1 DUP2 MSTORE PUSH1 0x20 ADD PUSH1 0x40 MLOAD DUP1 SWAP2 SUB SWAP1 KECCAK256 PUSH1 0x4 ADD PUSH1 0x0 DUP2 SLOAD DUP1 SWAP3 SWAP2 SWAP1 PUSH2 0x828 SWAP1 PUSH2 0x2675 JUMP JUMPDEST SWAP2 SWAP1 POP SSTORE POP PUSH1 0x1 DUP4 PUSH1 0x40 MLOAD PUSH2 0x83D SWAP2 SWAP1 PUSH2 0x2322 JUMP JUMPDEST SWAP1 DUP2 MSTORE PUSH1 0x20 ADD PUSH1 0x40 MLOAD DUP1 SWAP2 SUB SWAP1 KECCAK256 PUSH1 0x4 ADD SLOAD PUSH1 0x1 DUP5 PUSH1 0x40 MLOAD PUSH2 0x85F SWAP2 SWAP1 PUSH2 0x2322 JUMP JUMPDEST SWAP1 DUP2 MSTORE PUSH1 0x20 ADD PUSH1 0x40 MLOAD DUP1 SWAP2 SUB SWAP1 KECCAK256 PUSH1 0x3 ADD SLOAD SUB PUSH2 0x937 JUMPI PUSH1 0x1 DUP1 DUP5 PUSH1 0x40 MLOAD PUSH2 0x887 SWAP2 SWAP1 PUSH2 0x2322 JUMP JUMPDEST SWAP1 DUP2 MSTORE PUSH1 0x20 ADD PUSH1 0x40 MLOAD DUP1 SWAP2 SUB SWAP1 KECCAK256 PUSH1 0x8 ADD PUSH1 0x0 PUSH2 0x100 EXP DUP2 SLOAD DUP2 PUSH1 0xFF MUL NOT AND SWAP1 DUP4 PUSH1 0x1 DUP2 GT ISZERO PUSH2 0x8BA JUMPI PUSH2 0x8B9 PUSH2 0x2227 JUMP JUMPDEST JUMPDEST MUL OR SWAP1 SSTORE POP PUSH1 0x2 DUP4 SWAP1 DUP1 PUSH1 0x1 DUP2 SLOAD ADD DUP1 DUP3 SSTORE DUP1 SWAP2 POP POP PUSH1 0x1 SWAP1 SUB SWAP1 PUSH1 0x0 MSTORE PUSH1 0x20 PUSH1 0x0 KECCAK256 ADD PUSH1 0x0 SWAP1 SWAP2 SWAP1 SWAP2 SWAP1 SWAP2 POP SWAP1 DUP2 PUSH2 0x8F3 SWAP2 SWAP1 PUSH2 0x2574 JUMP JUMPDEST POP DUP3 PUSH1 0x40 MLOAD PUSH2 0x902 SWAP2 SWAP1 PUSH2 0x2322 JUMP JUMPDEST PUSH1 0x40 MLOAD DUP1 SWAP2 SUB SWAP1 KECCAK256 PUSH32 0xC9629617AC320E57FA622F79C211617DE659A3B7CBDDA927E47DEA5E4C0AB4DA PUSH1 0x40 MLOAD PUSH1 0x40 MLOAD DUP1 SWAP2 SUB SWAP1 LOG2 JUMPDEST DUP1 PUSH20 0xFFFFFFFFFFFFFFFFFFFFFFFFFFFFFFFFFFFFFFFF AND PUSH32 0x99CC064944E6569611B439843932FA853D46618D78CA5A8E3989BCC5614853D PUSH1 0x40 MLOAD PUSH1 0x40 MLOAD DUP1 SWAP2 SUB SWAP1 LOG2 PUSH2 0x9B1 JUMP JUMPDEST PUSH1 0x40 MLOAD PUSH32 0x13C8108E00000000000000000000000000000000000000000000000000000000 DUP2 MSTORE PUSH1 0x4 ADD PUSH1 0x40 MLOAD DUP1 SWAP2 SUB SWAP1 REVERT JUMPDEST POP POP POP JUMP JUMPDEST PUSH1 0x0 PUSH2 0x9D0 PUSH1 0x40 MLOAD DUP1 PUSH1 0x20 ADD PUSH1 0x40 MSTORE DUP1 PUSH1 0x0 DUP2 MSTORE POP PUSH2 0xD57 JUMP JUMPDEST POP SWAP1 POP DUP1 ISZERO PUSH2 0xB3A JUMPI PUSH1 0x0 PUSH1 0x2 DUP1 SLOAD DUP1 PUSH1 0x20 MUL PUSH1 0x20 ADD PUSH1 0x40 MLOAD SWAP1 DUP2 ADD PUSH1 0x40 MSTORE DUP1 SWAP3 SWAP2 SWAP1 DUP2 DUP2 MSTORE PUSH1 0x20 ADD PUSH1 0x0 SWAP1 JUMPDEST DUP3 DUP3 LT ISZERO PUSH2 0xAA9 JUMPI DUP4 DUP3 SWAP1 PUSH1 0x0 MSTORE PUSH1 0x20 PUSH1 0x0 KECCAK256 ADD DUP1 SLOAD PUSH2 0xA1C SWAP1 PUSH2 0x2397 JUMP JUMPDEST DUP1 PUSH1 0x1F ADD PUSH1 0x20 DUP1 SWAP2 DIV MUL PUSH1 0x20 ADD PUSH1 0x40 MLOAD SWAP1 DUP2 ADD PUSH1 0x40 MSTORE DUP1 SWAP3 SWAP2 SWAP1 DUP2 DUP2 MSTORE PUSH1 0x20 ADD DUP3 DUP1 SLOAD PUSH2 0xA48 SWAP1 PUSH2 0x2397 JUMP JUMPDEST DUP1 ISZERO PUSH2 0xA95 JUMPI DUP1 PUSH1 0x1F LT PUSH2 0xA6A JUMPI PUSH2 0x100 DUP1 DUP4 SLOAD DIV MUL DUP4 MSTORE SWAP2 PUSH1 0x20 ADD SWAP2 PUSH2 0xA95 JUMP JUMPDEST DUP3 ADD SWAP2 SWAP1 PUSH1 0x0 MSTORE PUSH1 0x20 PUSH1 0x0 KECCAK256 SWAP1 JUMPDEST DUP2 SLOAD DUP2 MSTORE SWAP1 PUSH1 0x1 ADD SWAP1 PUSH1 0x20 ADD DUP1 DUP4 GT PUSH2 0xA78 JUMPI DUP3 SWAP1 SUB PUSH1 0x1F AND DUP3 ADD SWAP2 JUMPDEST POP POP POP POP POP DUP2 MSTORE PUSH1 0x20 ADD SWAP1 PUSH1 0x1 ADD SWAP1 PUSH2 0x9FD JUMP JUMPDEST POP POP POP POP SWAP1 POP PUSH1 0x0 JUMPDEST DUP2 MLOAD DUP2 LT ISZERO PUSH2 0xB33 JUMPI PUSH2 0xAC4 DUP2 PUSH2 0x1166 JUMP JUMPDEST DUP2 DUP2 DUP2 MLOAD DUP2 LT PUSH2 0xAD7 JUMPI PUSH2 0xAD6 PUSH2 0x2339 JUMP JUMPDEST JUMPDEST PUSH1 0x20 MUL PUSH1 0x20 ADD ADD MLOAD PUSH1 0x40 MLOAD PUSH2 0xAEC SWAP2 SWAP1 PUSH2 0x2322 JUMP JUMPDEST PUSH1 0x40 MLOAD DUP1 SWAP2 SUB SWAP1 KECCAK256 PUSH32 0xA7998895D8D2E7856091BD8A5895A54D831C4D6C8BD8A8611EC2C1F873872FEF PUSH1 0x40 MLOAD PUSH1 0x40 MLOAD DUP1 SWAP2 SUB SWAP1 LOG2 DUP1 DUP1 PUSH2 0xB2B SWAP1 PUSH2 0x2675 JUMP JUMPDEST SWAP2 POP POP PUSH2 0xAB2 JUMP JUMPDEST POP POP PUSH2 0xB6C JUMP JUMPDEST PUSH1 0x40 MLOAD PUSH32 0xE47D1A5100000000000000000000000000000000000000000000000000000000 DUP2 MSTORE PUSH1 0x4 ADD PUSH1 0x40 MLOAD DUP1 SWAP2 SUB SWAP1 REVERT JUMPDEST POP POP POP JUMP JUMPDEST PUSH1 0x60 PUSH1 0x0 PUSH1 0x1 DUP4 PUSH1 0x40 MLOAD PUSH2 0xB85 SWAP2 SWAP1 PUSH2 0x2322 JUMP JUMPDEST SWAP1 DUP2 MSTORE PUSH1 0x20 ADD PUSH1 0x40 MLOAD DUP1 SWAP2 SUB SWAP1 KECCAK256 PUSH1 0x3 ADD SLOAD GT ISZERO PUSH2 0xC95 JUMPI PUSH1 0x1 DUP3 PUSH1 0x40 MLOAD PUSH2 0xBAD SWAP2 SWAP1 PUSH2 0x2322 JUMP JUMPDEST SWAP1 DUP2 MSTORE PUSH1 0x20 ADD PUSH1 0x40 MLOAD DUP1 SWAP2 SUB SWAP1 KECCAK256 PUSH1 0x5 ADD DUP1 SLOAD DUP1 PUSH1 0x20 MUL PUSH1 0x20 ADD PUSH1 0x40 MLOAD SWAP1 DUP2 ADD PUSH1 0x40 MSTORE DUP1 SWAP3 SWAP2 SWAP1 DUP2 DUP2 MSTORE PUSH1 0x20 ADD PUSH1 0x0 SWAP1 JUMPDEST DUP3 DUP3 LT ISZERO PUSH2 0xC8A JUMPI DUP4 DUP3 SWAP1 PUSH1 0x0 MSTORE PUSH1 0x20 PUSH1 0x0 KECCAK256 ADD DUP1 SLOAD PUSH2 0xBFD SWAP1 PUSH2 0x2397 JUMP JUMPDEST DUP1 PUSH1 0x1F ADD PUSH1 0x20 DUP1 SWAP2 DIV MUL PUSH1 0x20 ADD PUSH1 0x40 MLOAD SWAP1 DUP2 ADD PUSH1 0x40 MSTORE DUP1 SWAP3 SWAP2 SWAP1 DUP2 DUP2 MSTORE PUSH1 0x20 ADD DUP3 DUP1 SLOAD PUSH2 0xC29 SWAP1 PUSH2 0x2397 JUMP JUMPDEST DUP1 ISZERO PUSH2 0xC76 JUMPI DUP1 PUSH1 0x1F LT PUSH2 0xC4B JUMPI PUSH2 0x100 DUP1 DUP4 SLOAD DIV MUL DUP4 MSTORE SWAP2 PUSH1 0x20 ADD SWAP2 PUSH2 0xC76 JUMP JUMPDEST DUP3 ADD SWAP2 SWAP1 PUSH1 0x0 MSTORE PUSH1 0x20 PUSH1 0x0 KECCAK256 SWAP1 JUMPDEST DUP2 SLOAD DUP2 MSTORE SWAP1 PUSH1 0x1 ADD SWAP1 PUSH1 0x20 ADD DUP1 DUP4 GT PUSH2 0xC59 JUMPI DUP3 SWAP1 SUB PUSH1 0x1F AND DUP3 ADD SWAP2 JUMPDEST POP POP POP POP POP DUP2 MSTORE PUSH1 0x20 ADD SWAP1 PUSH1 0x1 ADD SWAP1 PUSH2 0xBDE JUMP JUMPDEST POP POP POP POP SWAP1 POP PUSH2 0xCC7 JUMP JUMPDEST PUSH1 0x40 MLOAD PUSH32 0xB01E933700000000000000000000000000000000000000000000000000000000 DUP2 MSTORE PUSH1 0x4 ADD PUSH1 0x40 MLOAD DUP1 SWAP2 SUB SWAP1 REVERT JUMPDEST SWAP2 SWAP1 POP JUMP JUMPDEST PUSH1 0x0 DUP1 PUSH1 0x1 DUP4 PUSH1 0x40 MLOAD PUSH2 0xCDF SWAP2 SWAP1 PUSH2 0x2322 JUMP JUMPDEST SWAP1 DUP2 MSTORE PUSH1 0x20 ADD PUSH1 0x40 MLOAD DUP1 SWAP2 SUB SWAP1 KECCAK256 PUSH1 0x3 ADD SLOAD GT ISZERO PUSH2 0xD20 JUMPI PUSH1 0x1 DUP3 PUSH1 0x40 MLOAD PUSH2 0xD07 SWAP2 SWAP1 PUSH2 0x2322 JUMP JUMPDEST SWAP1 DUP2 MSTORE PUSH1 0x20 ADD PUSH1 0x40 MLOAD DUP1 SWAP2 SUB SWAP1 KECCAK256 PUSH1 0x7 ADD SLOAD SWAP1 POP PUSH2 0xD52 JUMP JUMPDEST PUSH1 0x40 MLOAD PUSH32 0xB01E933700000000000000000000000000000000000000000000000000000000 DUP2 MSTORE PUSH1 0x4 ADD PUSH1 0x40 MLOAD DUP1 SWAP2 SUB SWAP1 REVERT JUMPDEST SWAP2 SWAP1 POP JUMP JUMPDEST PUSH1 0x0 PUSH1 0x60 PUSH1 0x0 PUSH1 0x2 DUP1 SLOAD SWAP1 POP GT ISZERO PUSH2 0xD72 JUMPI PUSH1 0x1 SWAP2 POP PUSH2 0xD77 JUMP JUMPDEST PUSH1 0x0 SWAP2 POP JUMPDEST SWAP2 POP SWAP2 JUMP JUMPDEST PUSH1 0x0 DUP1 PUSH1 0x0 SWAP1 SLOAD SWAP1 PUSH2 0x100 EXP SWAP1 DIV PUSH20 0xFFFFFFFFFFFFFFFFFFFFFFFFFFFFFFFFFFFFFFFF AND SWAP1 POP SWAP1 JUMP JUMPDEST PUSH1 0x0 PUSH32 0x0 SWAP1 POP SWAP1 JUMP JUMPDEST PUSH1 0x0 DUP1 PUSH1 0x1 DUP4 PUSH1 0x40 MLOAD PUSH2 0xDE0 SWAP2 SWAP1 PUSH2 0x2322 JUMP JUMPDEST SWAP1 DUP2 MSTORE PUSH1 0x20 ADD PUSH1 0x40 MLOAD DUP1 SWAP2 SUB SWAP1 KECCAK256 PUSH1 0x3 ADD SLOAD GT ISZERO PUSH2 0xE21 JUMPI PUSH1 0x1 DUP3 PUSH1 0x40 MLOAD PUSH2 0xE08 SWAP2 SWAP1 PUSH2 0x2322 JUMP JUMPDEST SWAP1 DUP2 MSTORE PUSH1 0x20 ADD PUSH1 0x40 MLOAD DUP1 SWAP2 SUB SWAP1 KECCAK256 PUSH1 0x2 ADD SLOAD SWAP1 POP PUSH2 0xE53 JUMP JUMPDEST PUSH1 0x40 MLOAD PUSH32 0xB01E933700000000000000000000000000000000000000000000000000000000 DUP2 MSTORE PUSH1 0x4 ADD PUSH1 0x40 MLOAD DUP1 SWAP2 SUB SWAP1 REVERT JUMPDEST SWAP2 SWAP1 POP JUMP JUMPDEST PUSH32 0x0 CALLVALUE LT ISZERO PUSH2 0xEB2 JUMPI PUSH1 0x40 MLOAD PUSH32 0xC09BB52500000000000000000000000000000000000000000000000000000000 DUP2 MSTORE PUSH1 0x4 ADD PUSH1 0x40 MLOAD DUP1 SWAP2 SUB SWAP1 REVERT JUMPDEST PUSH2 0xEBA PUSH2 0x17F6 JUMP JUMPDEST DUP4 DUP2 PUSH1 0x0 ADD DUP2 SWAP1 MSTORE POP CALLER DUP2 PUSH1 0x20 ADD SWAP1 PUSH20 0xFFFFFFFFFFFFFFFFFFFFFFFFFFFFFFFFFFFFFFFF AND SWAP1 DUP2 PUSH20 0xFFFFFFFFFFFFFFFFFFFFFFFFFFFFFFFFFFFFFFFF AND DUP2 MSTORE POP POP DUP3 DUP2 PUSH1 0x40 ADD DUP2 DUP2 MSTORE POP POP DUP2 DUP2 PUSH1 0x60 ADD DUP2 DUP2 MSTORE POP POP TIMESTAMP DUP2 PUSH1 0xE0 ADD DUP2 DUP2 MSTORE POP POP PUSH1 0x0 DUP2 PUSH2 0x100 ADD SWAP1 PUSH1 0x1 DUP2 GT ISZERO PUSH2 0xF33 JUMPI PUSH2 0xF32 PUSH2 0x2227 JUMP JUMPDEST JUMPDEST SWAP1 DUP2 PUSH1 0x1 DUP2 GT ISZERO PUSH2 0xF47 JUMPI PUSH2 0xF46 PUSH2 0x2227 JUMP JUMPDEST JUMPDEST DUP2 MSTORE POP POP DUP1 PUSH1 0x1 DUP7 PUSH1 0x40 MLOAD PUSH2 0xF5C SWAP2 SWAP1 PUSH2 0x2322 JUMP JUMPDEST SWAP1 DUP2 MSTORE PUSH1 0x20 ADD PUSH1 0x40 MLOAD DUP1 SWAP2 SUB SWAP1 KECCAK256 PUSH1 0x0 DUP3 ADD MLOAD DUP2 PUSH1 0x0 ADD SWAP1 DUP2 PUSH2 0xF7F SWAP2 SWAP1 PUSH2 0x2574 JUMP JUMPDEST POP PUSH1 0x20 DUP3 ADD MLOAD DUP2 PUSH1 0x1 ADD PUSH1 0x0 PUSH2 0x100 EXP DUP2 SLOAD DUP2 PUSH20 0xFFFFFFFFFFFFFFFFFFFFFFFFFFFFFFFFFFFFFFFF MUL NOT AND SWAP1 DUP4 PUSH20 0xFFFFFFFFFFFFFFFFFFFFFFFFFFFFFFFFFFFFFFFF AND MUL OR SWAP1 SSTORE POP PUSH1 0x40 DUP3 ADD MLOAD DUP2 PUSH1 0x2 ADD SSTORE PUSH1 0x60 DUP3 ADD MLOAD DUP2 PUSH1 0x3 ADD SSTORE PUSH1 0x80 DUP3 ADD MLOAD DUP2 PUSH1 0x4 ADD SSTORE PUSH1 0xA0 DUP3 ADD MLOAD DUP2 PUSH1 0x5 ADD SWAP1 DUP1 MLOAD SWAP1 PUSH1 0x20 ADD SWAP1 PUSH2 0x1001 SWAP3 SWAP2 SWAP1 PUSH2 0x186A JUMP JUMPDEST POP PUSH1 0xC0 DUP3 ADD MLOAD DUP2 PUSH1 0x6 ADD SWAP1 DUP1 MLOAD SWAP1 PUSH1 0x20 ADD SWAP1 PUSH2 0x101E SWAP3 SWAP2 SWAP1 PUSH2 0x18C3 JUMP JUMPDEST POP PUSH1 0xE0 DUP3 ADD MLOAD DUP2 PUSH1 0x7 ADD SSTORE PUSH2 0x100 DUP3 ADD MLOAD DUP2 PUSH1 0x8 ADD PUSH1 0x0 PUSH2 0x100 EXP DUP2 SLOAD DUP2 PUSH1 0xFF MUL NOT AND SWAP1 DUP4 PUSH1 0x1 DUP2 GT ISZERO PUSH2 0x1055 JUMPI PUSH2 0x1054 PUSH2 0x2227 JUMP JUMPDEST JUMPDEST MUL OR SWAP1 SSTORE POP SWAP1 POP POP DUP5 PUSH1 0x40 MLOAD PUSH2 0x106B SWAP2 SWAP1 PUSH2 0x2322 JUMP JUMPDEST PUSH1 0x40 MLOAD DUP1 SWAP2 SUB SWAP1 KECCAK256 PUSH32 0xCC65C6FB1D804BA1DC418F9E3659483D310357279F035D45B8EA484FD6FE4A2F PUSH1 0x40 MLOAD PUSH1 0x40 MLOAD DUP1 SWAP2 SUB SWAP1 LOG2 POP POP POP POP POP JUMP JUMPDEST PUSH1 0x0 DUP1 PUSH1 0x1 DUP4 PUSH1 0x40 MLOAD PUSH2 0x10B9 SWAP2 SWAP1 PUSH2 0x2322 JUMP JUMPDEST SWAP1 DUP2 MSTORE PUSH1 0x20 ADD PUSH1 0x40 MLOAD DUP1 SWAP2 SUB SWAP1 KECCAK256 PUSH1 0x3 ADD SLOAD GT ISZERO PUSH2 0x1107 JUMPI PUSH1 0x1 DUP3 PUSH1 0x40 MLOAD PUSH2 0x10E1 SWAP2 SWAP1 PUSH2 0x2322 JUMP JUMPDEST SWAP1 DUP2 MSTORE PUSH1 0x20 ADD PUSH1 0x40 MLOAD DUP1 SWAP2 SUB SWAP1 KECCAK256 PUSH1 0x8 ADD PUSH1 0x0 SWAP1 SLOAD SWAP1 PUSH2 0x100 EXP SWAP1 DIV PUSH1 0xFF AND SWAP1 POP PUSH2 0x1139 JUMP JUMPDEST PUSH1 0x40 MLOAD PUSH32 0xB01E933700000000000000000000000000000000000000000000000000000000 DUP2 MSTORE PUSH1 0x4 ADD PUSH1 0x40 MLOAD DUP1 SWAP2 SUB SWAP1 REVERT JUMPDEST SWAP2 SWAP1 POP JUMP JUMPDEST PUSH1 0x0 PUSH32 0x0 SWAP1 POP SWAP1 JUMP JUMPDEST PUSH1 0x0 PUSH1 0x2 DUP1 SLOAD DUP1 PUSH1 0x20 MUL PUSH1 0x20 ADD PUSH1 0x40 MLOAD SWAP1 DUP2 ADD PUSH1 0x40 MSTORE DUP1 SWAP3 SWAP2 SWAP1 DUP2 DUP2 MSTORE PUSH1 0x20 ADD PUSH1 0x0 SWAP1 JUMPDEST DUP3 DUP3 LT ISZERO PUSH2 0x1236 JUMPI DUP4 DUP3 SWAP1 PUSH1 0x0 MSTORE PUSH1 0x20 PUSH1 0x0 KECCAK256 ADD DUP1 SLOAD PUSH2 0x11A9 SWAP1 PUSH2 0x2397 JUMP JUMPDEST DUP1 PUSH1 0x1F ADD PUSH1 0x20 DUP1 SWAP2 DIV MUL PUSH1 0x20 ADD PUSH1 0x40 MLOAD SWAP1 DUP2 ADD PUSH1 0x40 MSTORE DUP1 SWAP3 SWAP2 SWAP1 DUP2 DUP2 MSTORE PUSH1 0x20 ADD DUP3 DUP1 SLOAD PUSH2 0x11D5 SWAP1 PUSH2 0x2397 JUMP JUMPDEST DUP1 ISZERO PUSH2 0x1222 JUMPI DUP1 PUSH1 0x1F LT PUSH2 0x11F7 JUMPI PUSH2 0x100 DUP1 DUP4 SLOAD DIV MUL DUP4 MSTORE SWAP2 PUSH1 0x20 ADD SWAP2 PUSH2 0x1222 JUMP JUMPDEST DUP3 ADD SWAP2 SWAP1 PUSH1 0x0 MSTORE PUSH1 0x20 PUSH1 0x0 KECCAK256 SWAP1 JUMPDEST DUP2 SLOAD DUP2 MSTORE SWAP1 PUSH1 0x1 ADD SWAP1 PUSH1 0x20 ADD DUP1 DUP4 GT PUSH2 0x1205 JUMPI DUP3 SWAP1 SUB PUSH1 0x1F AND DUP3 ADD SWAP2 JUMPDEST POP POP POP POP POP DUP2 MSTORE PUSH1 0x20 ADD SWAP1 PUSH1 0x1 ADD SWAP1 PUSH2 0x118A JUMP JUMPDEST POP POP POP POP SWAP1 POP PUSH1 0x0 PUSH1 0x1 DUP3 DUP5 DUP2 MLOAD DUP2 LT PUSH2 0x1253 JUMPI PUSH2 0x1252 PUSH2 0x2339 JUMP JUMPDEST JUMPDEST PUSH1 0x20 MUL PUSH1 0x20 ADD ADD MLOAD PUSH1 0x40 MLOAD PUSH2 0x1268 SWAP2 SWAP1 PUSH2 0x2322 JUMP JUMPDEST SWAP1 DUP2 MSTORE PUSH1 0x20 ADD PUSH1 0x40 MLOAD DUP1 SWAP2 SUB SWAP1 KECCAK256 PUSH1 0x4 ADD SLOAD PUSH1 0x1 DUP4 DUP6 DUP2 MLOAD DUP2 LT PUSH2 0x128F JUMPI PUSH2 0x128E PUSH2 0x2339 JUMP JUMPDEST JUMPDEST PUSH1 0x20 MUL PUSH1 0x20 ADD ADD MLOAD PUSH1 0x40 MLOAD PUSH2 0x12A4 SWAP2 SWAP1 PUSH2 0x2322 JUMP JUMPDEST SWAP1 DUP2 MSTORE PUSH1 0x20 ADD PUSH1 0x40 MLOAD DUP1 SWAP2 SUB SWAP1 KECCAK256 PUSH1 0x2 ADD SLOAD PUSH2 0x12C0 SWAP2 SWAP1 PUSH2 0x26EC JUMP JUMPDEST SWAP1 POP PUSH1 0x0 JUMPDEST PUSH1 0x1 DUP4 DUP6 DUP2 MLOAD DUP2 LT PUSH2 0x12DA JUMPI PUSH2 0x12D9 PUSH2 0x2339 JUMP JUMPDEST JUMPDEST PUSH1 0x20 MUL PUSH1 0x20 ADD ADD MLOAD PUSH1 0x40 MLOAD PUSH2 0x12EF SWAP2 SWAP1 PUSH2 0x2322 JUMP JUMPDEST SWAP1 DUP2 MSTORE PUSH1 0x20 ADD PUSH1 0x40 MLOAD DUP1 SWAP2 SUB SWAP1 KECCAK256 PUSH1 0x6 ADD DUP1 SLOAD SWAP1 POP DUP2 LT ISZERO PUSH2 0x1442 JUMPI SELFBALANCE DUP3 LT ISZERO PUSH2 0x142F JUMPI PUSH1 0x0 PUSH1 0x1 DUP5 DUP7 DUP2 MLOAD DUP2 LT PUSH2 0x132A JUMPI PUSH2 0x1329 PUSH2 0x2339 JUMP JUMPDEST JUMPDEST PUSH1 0x20 MUL PUSH1 0x20 ADD ADD MLOAD PUSH1 0x40 MLOAD PUSH2 0x133F SWAP2 SWAP1 PUSH2 0x2322 JUMP JUMPDEST SWAP1 DUP2 MSTORE PUSH1 0x20 ADD PUSH1 0x40 MLOAD DUP1 SWAP2 SUB SWAP1 KECCAK256 PUSH1 0x6 ADD DUP3 DUP2 SLOAD DUP2 LT PUSH2 0x1362 JUMPI PUSH2 0x1361 PUSH2 0x2339 JUMP JUMPDEST JUMPDEST SWAP1 PUSH1 0x0 MSTORE PUSH1 0x20 PUSH1 0x0 KECCAK256 ADD PUSH1 0x0 SWAP1 SLOAD SWAP1 PUSH2 0x100 EXP SWAP1 DIV PUSH20 0xFFFFFFFFFFFFFFFFFFFFFFFFFFFFFFFFFFFFFFFF AND PUSH20 0xFFFFFFFFFFFFFFFFFFFFFFFFFFFFFFFFFFFFFFFF AND DUP4 PUSH1 0x40 MLOAD PUSH2 0x13B0 SWAP1 PUSH2 0x274E JUMP JUMPDEST PUSH1 0x0 PUSH1 0x40 MLOAD DUP1 DUP4 SUB DUP2 DUP6 DUP8 GAS CALL SWAP3 POP POP POP RETURNDATASIZE DUP1 PUSH1 0x0 DUP2 EQ PUSH2 0x13ED JUMPI PUSH1 0x40 MLOAD SWAP2 POP PUSH1 0x1F NOT PUSH1 0x3F RETURNDATASIZE ADD AND DUP3 ADD PUSH1 0x40 MSTORE RETURNDATASIZE DUP3 MSTORE RETURNDATASIZE PUSH1 0x0 PUSH1 0x20 DUP5 ADD RETURNDATACOPY PUSH2 0x13F2 JUMP JUMPDEST PUSH1 0x60 SWAP2 POP JUMPDEST POP POP SWAP1 POP DUP1 PUSH2 0x142D JUMPI PUSH1 0x40 MLOAD PUSH32 0x9E6A19A00000000000000000000000000000000000000000000000000000000 DUP2 MSTORE PUSH1 0x4 ADD PUSH1 0x40 MLOAD DUP1 SWAP2 SUB SWAP1 REVERT JUMPDEST POP JUMPDEST DUP1 DUP1 PUSH2 0x143A SWAP1 PUSH2 0x2675 JUMP JUMPDEST SWAP2 POP POP PUSH2 0x12C5 JUMP JUMPDEST POP POP POP POP JUMP JUMPDEST PUSH1 0x60 PUSH1 0x1 DUP3 PUSH1 0x40 MLOAD PUSH2 0x145A SWAP2 SWAP1 PUSH2 0x2322 JUMP JUMPDEST SWAP1 DUP2 MSTORE PUSH1 0x20 ADD PUSH1 0x40 MLOAD DUP1 SWAP2 SUB SWAP1 KECCAK256 PUSH1 0x0 ADD DUP1 SLOAD PUSH2 0x1476 SWAP1 PUSH2 0x2397 JUMP JUMPDEST DUP1 PUSH1 0x1F ADD PUSH1 0x20 DUP1 SWAP2 DIV MUL PUSH1 0x20 ADD PUSH1 0x40 MLOAD SWAP1 DUP2 ADD PUSH1 0x40 MSTORE DUP1 SWAP3 SWAP2 SWAP1 DUP2 DUP2 MSTORE PUSH1 0x20 ADD DUP3 DUP1 SLOAD PUSH2 0x14A2 SWAP1 PUSH2 0x2397 JUMP JUMPDEST DUP1 ISZERO PUSH2 0x14EF JUMPI DUP1 PUSH1 0x1F LT PUSH2 0x14C4 JUMPI PUSH2 0x100 DUP1 DUP4 SLOAD DIV MUL DUP4 MSTORE SWAP2 PUSH1 0x20 ADD SWAP2 PUSH2 0x14EF JUMP JUMPDEST DUP3 ADD SWAP2 SWAP1 PUSH1 0x0 MSTORE PUSH1 0x20 PUSH1 0x0 KECCAK256 SWAP1 JUMPDEST DUP2 SLOAD DUP2 MSTORE SWAP1 PUSH1 0x1 ADD SWAP1 PUSH1 0x20 ADD DUP1 DUP4 GT PUSH2 0x14D2 JUMPI DUP3 SWAP1 SUB PUSH1 0x1F AND DUP3 ADD SWAP2 JUMPDEST POP POP POP POP POP SWAP1 POP SWAP2 SWAP1 POP JUMP JUMPDEST PUSH1 0x0 DUP1 PUSH1 0x1 DUP4 PUSH1 0x40 MLOAD PUSH2 0x150E SWAP2 SWAP1 PUSH2 0x2322 JUMP JUMPDEST SWAP1 DUP2 MSTORE PUSH1 0x20 ADD PUSH1 0x40 MLOAD DUP1 SWAP2 SUB SWAP1 KECCAK256 PUSH1 0x3 ADD SLOAD GT ISZERO PUSH2 0x157B JUMPI PUSH1 0x1 DUP3 PUSH1 0x40 MLOAD PUSH2 0x1536 SWAP2 SWAP1 PUSH2 0x2322 JUMP JUMPDEST SWAP1 DUP2 MSTORE PUSH1 0x20 ADD PUSH1 0x40 MLOAD DUP1 SWAP2 SUB SWAP1 KECCAK256 PUSH1 0x3 ADD SLOAD PUSH1 0x1 DUP4 PUSH1 0x40 MLOAD PUSH2 0x1558 SWAP2 SWAP1 PUSH2 0x2322 JUMP JUMPDEST SWAP1 DUP2 MSTORE PUSH1 0x20 ADD PUSH1 0x40 MLOAD DUP1 SWAP2 SUB SWAP1 KECCAK256 PUSH1 0x2 ADD SLOAD PUSH2 0x1574 SWAP2 SWAP1 PUSH2 0x26EC JUMP JUMPDEST SWAP1 POP PUSH2 0x15AD JUMP JUMPDEST PUSH1 0x40 MLOAD PUSH32 0xB01E933700000000000000000000000000000000000000000000000000000000 DUP2 MSTORE PUSH1 0x4 ADD PUSH1 0x40 MLOAD DUP1 SWAP2 SUB SWAP1 REVERT JUMPDEST SWAP2 SWAP1 POP JUMP JUMPDEST PUSH1 0x0 DUP1 SLOAD SWAP1 PUSH2 0x100 EXP SWAP1 DIV PUSH20 0xFFFFFFFFFFFFFFFFFFFFFFFFFFFFFFFFFFFFFFFF AND PUSH20 0xFFFFFFFFFFFFFFFFFFFFFFFFFFFFFFFFFFFFFFFF AND CALLER PUSH20 0xFFFFFFFFFFFFFFFFFFFFFFFFFFFFFFFFFFFFFFFF AND EQ PUSH2 0x1637 JUMPI PUSH1 0x40 MLOAD PUSH32 0xBA34867000000000000000000000000000000000000000000000000000000000 DUP2 MSTORE PUSH1 0x4 ADD PUSH1 0x40 MLOAD DUP1 SWAP2 SUB SWAP1 REVERT JUMPDEST PUSH1 0x0 PUSH1 0x2 DUP1 SLOAD DUP1 PUSH1 0x20 MUL PUSH1 0x20 ADD PUSH1 0x40 MLOAD SWAP1 DUP2 ADD PUSH1 0x40 MSTORE DUP1 SWAP3 SWAP2 SWAP1 DUP2 DUP2 MSTORE PUSH1 0x20 ADD PUSH1 0x0 SWAP1 JUMPDEST DUP3 DUP3 LT ISZERO PUSH2 0x1707 JUMPI DUP4 DUP3 SWAP1 PUSH1 0x0 MSTORE PUSH1 0x20 PUSH1 0x0 KECCAK256 ADD DUP1 SLOAD PUSH2 0x167A SWAP1 PUSH2 0x2397 JUMP JUMPDEST DUP1 PUSH1 0x1F ADD PUSH1 0x20 DUP1 SWAP2 DIV MUL PUSH1 0x20 ADD PUSH1 0x40 MLOAD SWAP1 DUP2 ADD PUSH1 0x40 MSTORE DUP1 SWAP3 SWAP2 SWAP1 DUP2 DUP2 MSTORE PUSH1 0x20 ADD DUP3 DUP1 SLOAD PUSH2 0x16A6 SWAP1 PUSH2 0x2397 JUMP JUMPDEST DUP1 ISZERO PUSH2 0x16F3 JUMPI DUP1 PUSH1 0x1F LT PUSH2 0x16C8 JUMPI PUSH2 0x100 DUP1 DUP4 SLOAD DIV MUL DUP4 MSTORE SWAP2 PUSH1 0x20 ADD SWAP2 PUSH2 0x16F3 JUMP JUMPDEST DUP3 ADD SWAP2 SWAP1 PUSH1 0x0 MSTORE PUSH1 0x20 PUSH1 0x0 KECCAK256 SWAP1 JUMPDEST DUP2 SLOAD DUP2 MSTORE SWAP1 PUSH1 0x1 ADD SWAP1 PUSH1 0x20 ADD DUP1 DUP4 GT PUSH2 0x16D6 JUMPI DUP3 SWAP1 SUB PUSH1 0x1F AND DUP3 ADD SWAP2 JUMPDEST POP POP POP POP POP DUP2 MSTORE PUSH1 0x20 ADD SWAP1 PUSH1 0x1 ADD SWAP1 PUSH2 0x165B JUMP JUMPDEST POP POP POP POP SWAP1 POP PUSH1 0x0 JUMPDEST DUP2 MLOAD DUP2 LT ISZERO PUSH2 0x17F2 JUMPI PUSH1 0x1 DUP3 DUP3 DUP2 MLOAD DUP2 LT PUSH2 0x172E JUMPI PUSH2 0x172D PUSH2 0x2339 JUMP JUMPDEST JUMPDEST PUSH1 0x20 MUL PUSH1 0x20 ADD ADD MLOAD PUSH1 0x40 MLOAD PUSH2 0x1743 SWAP2 SWAP1 PUSH2 0x2322 JUMP JUMPDEST SWAP1 DUP2 MSTORE PUSH1 0x20 ADD PUSH1 0x40 MLOAD DUP1 SWAP2 SUB SWAP1 KECCAK256 PUSH1 0x0 DUP1 DUP3 ADD PUSH1 0x0 PUSH2 0x1762 SWAP2 SWAP1 PUSH2 0x194D JUMP JUMPDEST PUSH1 0x1 DUP3 ADD PUSH1 0x0 PUSH2 0x100 EXP DUP2 SLOAD SWAP1 PUSH20 0xFFFFFFFFFFFFFFFFFFFFFFFFFFFFFFFFFFFFFFFF MUL NOT AND SWAP1 SSTORE PUSH1 0x2 DUP3 ADD PUSH1 0x0 SWAP1 SSTORE PUSH1 0x3 DUP3 ADD PUSH1 0x0 SWAP1 SSTORE PUSH1 0x4 DUP3 ADD PUSH1 0x0 SWAP1 SSTORE PUSH1 0x5 DUP3 ADD PUSH1 0x0 PUSH2 0x17B1 SWAP2 SWAP1 PUSH2 0x198D JUMP JUMPDEST PUSH1 0x6 DUP3 ADD PUSH1 0x0 PUSH2 0x17C1 SWAP2 SWAP1 PUSH2 0x19AE JUMP JUMPDEST PUSH1 0x7 DUP3 ADD PUSH1 0x0 SWAP1 SSTORE PUSH1 0x8 DUP3 ADD PUSH1 0x0 PUSH2 0x100 EXP DUP2 SLOAD SWAP1 PUSH1 0xFF MUL NOT AND SWAP1 SSTORE POP POP DUP1 DUP1 PUSH2 0x17EA SWAP1 PUSH2 0x2675 JUMP JUMPDEST SWAP2 POP POP PUSH2 0x1710 JUMP JUMPDEST POP POP JUMP JUMPDEST PUSH1 0x40 MLOAD DUP1 PUSH2 0x120 ADD PUSH1 0x40 MSTORE DUP1 PUSH1 0x60 DUP2 MSTORE PUSH1 0x20 ADD PUSH1 0x0 PUSH20 0xFFFFFFFFFFFFFFFFFFFFFFFFFFFFFFFFFFFFFFFF AND DUP2 MSTORE PUSH1 0x20 ADD PUSH1 0x0 DUP2 MSTORE PUSH1 0x20 ADD PUSH1 0x0 DUP2 MSTORE PUSH1 0x20 ADD PUSH1 0x0 DUP2 MSTORE PUSH1 0x20 ADD PUSH1 0x60 DUP2 MSTORE PUSH1 0x20 ADD PUSH1 0x60 DUP2 MSTORE PUSH1 0x20 ADD PUSH1 0x0 DUP2 MSTORE PUSH1 0x20 ADD PUSH1 0x0 PUSH1 0x1 DUP2 GT ISZERO PUSH2 0x1864 JUMPI PUSH2 0x1863 PUSH2 0x2227 JUMP JUMPDEST JUMPDEST DUP2 MSTORE POP SWAP1 JUMP JUMPDEST DUP3 DUP1 SLOAD DUP3 DUP3 SSTORE SWAP1 PUSH1 0x0 MSTORE PUSH1 0x20 PUSH1 0x0 KECCAK256 SWAP1 DUP2 ADD SWAP3 DUP3 ISZERO PUSH2 0x18B2 JUMPI SWAP2 PUSH1 0x20 MUL DUP3 ADD JUMPDEST DUP3 DUP2 GT ISZERO PUSH2 0x18B1 JUMPI DUP3 MLOAD DUP3 SWAP1 DUP2 PUSH2 0x18A1 SWAP2 SWAP1 PUSH2 0x2574 JUMP JUMPDEST POP SWAP2 PUSH1 0x20 ADD SWAP2 SWAP1 PUSH1 0x1 ADD SWAP1 PUSH2 0x188A JUMP JUMPDEST JUMPDEST POP SWAP1 POP PUSH2 0x18BF SWAP2 SWAP1 PUSH2 0x19CF JUMP JUMPDEST POP SWAP1 JUMP JUMPDEST DUP3 DUP1 SLOAD DUP3 DUP3 SSTORE SWAP1 PUSH1 0x0 MSTORE PUSH1 0x20 PUSH1 0x0 KECCAK256 SWAP1 DUP2 ADD SWAP3 DUP3 ISZERO PUSH2 0x193C JUMPI SWAP2 PUSH1 0x20 MUL DUP3 ADD JUMPDEST DUP3 DUP2 GT ISZERO PUSH2 0x193B JUMPI DUP3 MLOAD DUP3 PUSH1 0x0 PUSH2 0x100 EXP DUP2 SLOAD DUP2 PUSH20 0xFFFFFFFFFFFFFFFFFFFFFFFFFFFFFFFFFFFFFFFF MUL NOT AND SWAP1 DUP4 PUSH20 0xFFFFFFFFFFFFFFFFFFFFFFFFFFFFFFFFFFFFFFFF AND MUL OR SWAP1 SSTORE POP SWAP2 PUSH1 0x20 ADD SWAP2 SWAP1 PUSH1 0x1 ADD SWAP1 PUSH2 0x18E3 JUMP JUMPDEST JUMPDEST POP SWAP1 POP PUSH2 0x1949 SWAP2 SWAP1 PUSH2 0x19F3 JUMP JUMPDEST POP SWAP1 JUMP JUMPDEST POP DUP1 SLOAD PUSH2 0x1959 SWAP1 PUSH2 0x2397 JUMP JUMPDEST PUSH1 0x0 DUP3 SSTORE DUP1 PUSH1 0x1F LT PUSH2 0x196B JUMPI POP PUSH2 0x198A JUMP JUMPDEST PUSH1 0x1F ADD PUSH1 0x20 SWAP1 DIV SWAP1 PUSH1 0x0 MSTORE PUSH1 0x20 PUSH1 0x0 KECCAK256 SWAP1 DUP2 ADD SWAP1 PUSH2 0x1989 SWAP2 SWAP1 PUSH2 0x19F3 JUMP JUMPDEST JUMPDEST POP JUMP JUMPDEST POP DUP1 SLOAD PUSH1 0x0 DUP3 SSTORE SWAP1 PUSH1 0x0 MSTORE PUSH1 0x20 PUSH1 0x0 KECCAK256 SWAP1 DUP2 ADD SWAP1 PUSH2 0x19AB SWAP2 SWAP1 PUSH2 0x19CF JUMP JUMPDEST POP JUMP JUMPDEST POP DUP1 SLOAD PUSH1 0x0 DUP3 SSTORE SWAP1 PUSH1 0x0 MSTORE PUSH1 0x20 PUSH1 0x0 KECCAK256 SWAP1 DUP2 ADD SWAP1 PUSH2 0x19CC SWAP2 SWAP1 PUSH2 0x19F3 JUMP JUMPDEST POP JUMP JUMPDEST JUMPDEST DUP1 DUP3 GT ISZERO PUSH2 0x19EF JUMPI PUSH1 0x0 DUP2 DUP2 PUSH2 0x19E6 SWAP2 SWAP1 PUSH2 0x194D JUMP JUMPDEST POP PUSH1 0x1 ADD PUSH2 0x19D0 JUMP JUMPDEST POP SWAP1 JUMP JUMPDEST JUMPDEST DUP1 DUP3 GT ISZERO PUSH2 0x1A0C JUMPI PUSH1 0x0 DUP2 PUSH1 0x0 SWAP1 SSTORE POP PUSH1 0x1 ADD PUSH2 0x19F4 JUMP JUMPDEST POP SWAP1 JUMP JUMPDEST PUSH1 0x0 PUSH1 0x40 MLOAD SWAP1 POP SWAP1 JUMP JUMPDEST PUSH1 0x0 DUP1 REVERT JUMPDEST PUSH1 0x0 DUP1 REVERT JUMPDEST PUSH1 0x0 DUP1 REVERT JUMPDEST PUSH1 0x0 DUP1 REVERT JUMPDEST PUSH1 0x0 PUSH1 0x1F NOT PUSH1 0x1F DUP4 ADD AND SWAP1 POP SWAP2 SWAP1 POP JUMP JUMPDEST PUSH32 0x4E487B7100000000000000000000000000000000000000000000000000000000 PUSH1 0x0 MSTORE PUSH1 0x41 PUSH1 0x4 MSTORE PUSH1 0x24 PUSH1 0x0 REVERT JUMPDEST PUSH2 0x1A77 DUP3 PUSH2 0x1A2E JUMP JUMPDEST DUP2 ADD DUP2 DUP2 LT PUSH8 0xFFFFFFFFFFFFFFFF DUP3 GT OR ISZERO PUSH2 0x1A96 JUMPI PUSH2 0x1A95 PUSH2 0x1A3F JUMP JUMPDEST JUMPDEST DUP1 PUSH1 0x40 MSTORE POP POP POP JUMP JUMPDEST PUSH1 0x0 PUSH2 0x1AA9 PUSH2 0x1A10 JUMP JUMPDEST SWAP1 POP PUSH2 0x1AB5 DUP3 DUP3 PUSH2 0x1A6E JUMP JUMPDEST SWAP2 SWAP1 POP JUMP JUMPDEST PUSH1 0x0 PUSH8 0xFFFFFFFFFFFFFFFF DUP3 GT ISZERO PUSH2 0x1AD5 JUMPI PUSH2 0x1AD4 PUSH2 0x1A3F JUMP JUMPDEST JUMPDEST PUSH2 0x1ADE DUP3 PUSH2 0x1A2E JUMP JUMPDEST SWAP1 POP PUSH1 0x20 DUP2 ADD SWAP1 POP SWAP2 SWAP1 POP JUMP JUMPDEST DUP3 DUP2 DUP4 CALLDATACOPY PUSH1 0x0 DUP4 DUP4 ADD MSTORE POP POP POP JUMP JUMPDEST PUSH1 0x0 PUSH2 0x1B0D PUSH2 0x1B08 DUP5 PUSH2 0x1ABA JUMP JUMPDEST PUSH2 0x1A9F JUMP JUMPDEST SWAP1 POP DUP3 DUP2 MSTORE PUSH1 0x20 DUP2 ADD DUP5 DUP5 DUP5 ADD GT ISZERO PUSH2 0x1B29 JUMPI PUSH2 0x1B28 PUSH2 0x1A29 JUMP JUMPDEST JUMPDEST PUSH2 0x1B34 DUP5 DUP3 DUP6 PUSH2 0x1AEB JUMP JUMPDEST POP SWAP4 SWAP3 POP POP POP JUMP JUMPDEST PUSH1 0x0 DUP3 PUSH1 0x1F DUP4 ADD SLT PUSH2 0x1B51 JUMPI PUSH2 0x1B50 PUSH2 0x1A24 JUMP JUMPDEST JUMPDEST DUP2 CALLDATALOAD PUSH2 0x1B61 DUP5 DUP3 PUSH1 0x20 DUP7 ADD PUSH2 0x1AFA JUMP JUMPDEST SWAP2 POP POP SWAP3 SWAP2 POP POP JUMP JUMPDEST PUSH1 0x0 DUP2 SWAP1 POP SWAP2 SWAP1 POP JUMP JUMPDEST PUSH2 0x1B7D DUP2 PUSH2 0x1B6A JUMP JUMPDEST DUP2 EQ PUSH2 0x1B88 JUMPI PUSH1 0x0 DUP1 REVERT JUMPDEST POP JUMP JUMPDEST PUSH1 0x0 DUP2 CALLDATALOAD SWAP1 POP PUSH2 0x1B9A DUP2 PUSH2 0x1B74 JUMP JUMPDEST SWAP3 SWAP2 POP POP JUMP JUMPDEST PUSH1 0x0 DUP1 PUSH1 0x40 DUP4 DUP6 SUB SLT ISZERO PUSH2 0x1BB7 JUMPI PUSH2 0x1BB6 PUSH2 0x1A1A JUMP JUMPDEST JUMPDEST PUSH1 0x0 DUP4 ADD CALLDATALOAD PUSH8 0xFFFFFFFFFFFFFFFF DUP2 GT ISZERO PUSH2 0x1BD5 JUMPI PUSH2 0x1BD4 PUSH2 0x1A1F JUMP JUMPDEST JUMPDEST PUSH2 0x1BE1 DUP6 DUP3 DUP7 ADD PUSH2 0x1B3C JUMP JUMPDEST SWAP3 POP POP PUSH1 0x20 PUSH2 0x1BF2 DUP6 DUP3 DUP7 ADD PUSH2 0x1B8B JUMP JUMPDEST SWAP2 POP POP SWAP3 POP SWAP3 SWAP1 POP JUMP JUMPDEST PUSH1 0x0 PUSH20 0xFFFFFFFFFFFFFFFFFFFFFFFFFFFFFFFFFFFFFFFF DUP3 AND SWAP1 POP SWAP2 SWAP1 POP JUMP JUMPDEST PUSH1 0x0 PUSH2 0x1C27 DUP3 PUSH2 0x1BFC JUMP JUMPDEST SWAP1 POP SWAP2 SWAP1 POP JUMP JUMPDEST PUSH2 0x1C37 DUP2 PUSH2 0x1C1C JUMP JUMPDEST DUP3 MSTORE POP POP JUMP JUMPDEST PUSH1 0x0 PUSH1 0x20 DUP3 ADD SWAP1 POP PUSH2 0x1C52 PUSH1 0x0 DUP4 ADD DUP5 PUSH2 0x1C2E JUMP JUMPDEST SWAP3 SWAP2 POP POP JUMP JUMPDEST PUSH1 0x0 DUP2 MLOAD SWAP1 POP SWAP2 SWAP1 POP JUMP JUMPDEST PUSH1 0x0 DUP3 DUP3 MSTORE PUSH1 0x20 DUP3 ADD SWAP1 POP SWAP3 SWAP2 POP POP JUMP JUMPDEST PUSH1 0x0 JUMPDEST DUP4 DUP2 LT ISZERO PUSH2 0x1C92 JUMPI DUP1 DUP3 ADD MLOAD DUP2 DUP5 ADD MSTORE PUSH1 0x20 DUP2 ADD SWAP1 POP PUSH2 0x1C77 JUMP JUMPDEST PUSH1 0x0 DUP5 DUP5 ADD MSTORE POP POP POP POP JUMP JUMPDEST PUSH1 0x0 PUSH2 0x1CA9 DUP3 PUSH2 0x1C58 JUMP JUMPDEST PUSH2 0x1CB3 DUP2 DUP6 PUSH2 0x1C63 JUMP JUMPDEST SWAP4 POP PUSH2 0x1CC3 DUP2 DUP6 PUSH1 0x20 DUP7 ADD PUSH2 0x1C74 JUMP JUMPDEST PUSH2 0x1CCC DUP2 PUSH2 0x1A2E JUMP JUMPDEST DUP5 ADD SWAP2 POP POP SWAP3 SWAP2 POP POP JUMP JUMPDEST PUSH1 0x0 PUSH1 0x20 DUP3 ADD SWAP1 POP DUP2 DUP2 SUB PUSH1 0x0 DUP4 ADD MSTORE PUSH2 0x1CF1 DUP2 DUP5 PUSH2 0x1C9E JUMP JUMPDEST SWAP1 POP SWAP3 SWAP2 POP POP JUMP JUMPDEST PUSH2 0x1D02 DUP2 PUSH2 0x1C1C JUMP JUMPDEST DUP2 EQ PUSH2 0x1D0D JUMPI PUSH1 0x0 DUP1 REVERT JUMPDEST POP JUMP JUMPDEST PUSH1 0x0 DUP2 CALLDATALOAD SWAP1 POP PUSH2 0x1D1F DUP2 PUSH2 0x1CF9 JUMP JUMPDEST SWAP3 SWAP2 POP POP JUMP JUMPDEST PUSH1 0x0 DUP1 PUSH1 0x0 PUSH1 0x60 DUP5 DUP7 SUB SLT ISZERO PUSH2 0x1D3E JUMPI PUSH2 0x1D3D PUSH2 0x1A1A JUMP JUMPDEST JUMPDEST PUSH1 0x0 DUP5 ADD CALLDATALOAD PUSH8 0xFFFFFFFFFFFFFFFF DUP2 GT ISZERO PUSH2 0x1D5C JUMPI PUSH2 0x1D5B PUSH2 0x1A1F JUMP JUMPDEST JUMPDEST PUSH2 0x1D68 DUP7 DUP3 DUP8 ADD PUSH2 0x1B3C JUMP JUMPDEST SWAP4 POP POP PUSH1 0x20 DUP5 ADD CALLDATALOAD PUSH8 0xFFFFFFFFFFFFFFFF DUP2 GT ISZERO PUSH2 0x1D89 JUMPI PUSH2 0x1D88 PUSH2 0x1A1F JUMP JUMPDEST JUMPDEST PUSH2 0x1D95 DUP7 DUP3 DUP8 ADD PUSH2 0x1B3C JUMP JUMPDEST SWAP3 POP POP PUSH1 0x40 PUSH2 0x1DA6 DUP7 DUP3 DUP8 ADD PUSH2 0x1D10 JUMP JUMPDEST SWAP2 POP POP SWAP3 POP SWAP3 POP SWAP3 JUMP JUMPDEST PUSH1 0x0 DUP1 REVERT JUMPDEST PUSH1 0x0 DUP1 REVERT JUMPDEST PUSH1 0x0 DUP1 DUP4 PUSH1 0x1F DUP5 ADD SLT PUSH2 0x1DD0 JUMPI PUSH2 0x1DCF PUSH2 0x1A24 JUMP JUMPDEST JUMPDEST DUP3 CALLDATALOAD SWAP1 POP PUSH8 0xFFFFFFFFFFFFFFFF DUP2 GT ISZERO PUSH2 0x1DED JUMPI PUSH2 0x1DEC PUSH2 0x1DB0 JUMP JUMPDEST JUMPDEST PUSH1 0x20 DUP4 ADD SWAP2 POP DUP4 PUSH1 0x1 DUP3 MUL DUP4 ADD GT ISZERO PUSH2 0x1E09 JUMPI PUSH2 0x1E08 PUSH2 0x1DB5 JUMP JUMPDEST JUMPDEST SWAP3 POP SWAP3 SWAP1 POP JUMP JUMPDEST PUSH1 0x0 DUP1 PUSH1 0x20 DUP4 DUP6 SUB SLT ISZERO PUSH2 0x1E27 JUMPI PUSH2 0x1E26 PUSH2 0x1A1A JUMP JUMPDEST JUMPDEST PUSH1 0x0 DUP4 ADD CALLDATALOAD PUSH8 0xFFFFFFFFFFFFFFFF DUP2 GT ISZERO PUSH2 0x1E45 JUMPI PUSH2 0x1E44 PUSH2 0x1A1F JUMP JUMPDEST JUMPDEST PUSH2 0x1E51 DUP6 DUP3 DUP7 ADD PUSH2 0x1DBA JUMP JUMPDEST SWAP3 POP SWAP3 POP POP SWAP3 POP SWAP3 SWAP1 POP JUMP JUMPDEST PUSH1 0x0 PUSH1 0x20 DUP3 DUP5 SUB SLT ISZERO PUSH2 0x1E73 JUMPI PUSH2 0x1E72 PUSH2 0x1A1A JUMP JUMPDEST JUMPDEST PUSH1 0x0 DUP3 ADD CALLDATALOAD PUSH8 0xFFFFFFFFFFFFFFFF DUP2 GT ISZERO PUSH2 0x1E91 JUMPI PUSH2 0x1E90 PUSH2 0x1A1F JUMP JUMPDEST JUMPDEST PUSH2 0x1E9D DUP5 DUP3 DUP6 ADD PUSH2 0x1B3C JUMP JUMPDEST SWAP2 POP POP SWAP3 SWAP2 POP POP JUMP JUMPDEST PUSH1 0x0 DUP2 MLOAD SWAP1 POP SWAP2 SWAP1 POP JUMP JUMPDEST PUSH1 0x0 DUP3 DUP3 MSTORE PUSH1 0x20 DUP3 ADD SWAP1 POP SWAP3 SWAP2 POP POP JUMP JUMPDEST PUSH1 0x0 DUP2 SWAP1 POP PUSH1 0x20 DUP3 ADD SWAP1 POP SWAP2 SWAP1 POP JUMP JUMPDEST PUSH1 0x0 DUP3 DUP3 MSTORE PUSH1 0x20 DUP3 ADD SWAP1 POP SWAP3 SWAP2 POP POP JUMP JUMPDEST PUSH1 0x0 PUSH2 0x1EEE DUP3 PUSH2 0x1C58 JUMP JUMPDEST PUSH2 0x1EF8 DUP2 DUP6 PUSH2 0x1ED2 JUMP JUMPDEST SWAP4 POP PUSH2 0x1F08 DUP2 DUP6 PUSH1 0x20 DUP7 ADD PUSH2 0x1C74 JUMP JUMPDEST PUSH2 0x1F11 DUP2 PUSH2 0x1A2E JUMP JUMPDEST DUP5 ADD SWAP2 POP POP SWAP3 SWAP2 POP POP JUMP JUMPDEST PUSH1 0x0 PUSH2 0x1F28 DUP4 DUP4 PUSH2 0x1EE3 JUMP JUMPDEST SWAP1 POP SWAP3 SWAP2 POP POP JUMP JUMPDEST PUSH1 0x0 PUSH1 0x20 DUP3 ADD SWAP1 POP SWAP2 SWAP1 POP JUMP JUMPDEST PUSH1 0x0 PUSH2 0x1F48 DUP3 PUSH2 0x1EA6 JUMP JUMPDEST PUSH2 0x1F52 DUP2 DUP6 PUSH2 0x1EB1 JUMP JUMPDEST SWAP4 POP DUP4 PUSH1 0x20 DUP3 MUL DUP6 ADD PUSH2 0x1F64 DUP6 PUSH2 0x1EC2 JUMP JUMPDEST DUP1 PUSH1 0x0 JUMPDEST DUP6 DUP2 LT ISZERO PUSH2 0x1FA0 JUMPI DUP5 DUP5 SUB DUP10 MSTORE DUP2 MLOAD PUSH2 0x1F81 DUP6 DUP3 PUSH2 0x1F1C JUMP JUMPDEST SWAP5 POP PUSH2 0x1F8C DUP4 PUSH2 0x1F30 JUMP JUMPDEST SWAP3 POP PUSH1 0x20 DUP11 ADD SWAP10 POP POP PUSH1 0x1 DUP2 ADD SWAP1 POP PUSH2 0x1F68 JUMP JUMPDEST POP DUP3 SWAP8 POP DUP8 SWAP6 POP POP POP POP POP POP SWAP3 SWAP2 POP POP JUMP JUMPDEST PUSH1 0x0 PUSH1 0x20 DUP3 ADD SWAP1 POP DUP2 DUP2 SUB PUSH1 0x0 DUP4 ADD MSTORE PUSH2 0x1FCC DUP2 DUP5 PUSH2 0x1F3D JUMP JUMPDEST SWAP1 POP SWAP3 SWAP2 POP POP JUMP JUMPDEST PUSH2 0x1FDD DUP2 PUSH2 0x1B6A JUMP JUMPDEST DUP3 MSTORE POP POP JUMP JUMPDEST PUSH1 0x0 PUSH1 0x20 DUP3 ADD SWAP1 POP PUSH2 0x1FF8 PUSH1 0x0 DUP4 ADD DUP5 PUSH2 0x1FD4 JUMP JUMPDEST SWAP3 SWAP2 POP POP JUMP JUMPDEST PUSH1 0x0 PUSH8 0xFFFFFFFFFFFFFFFF DUP3 GT ISZERO PUSH2 0x2019 JUMPI PUSH2 0x2018 PUSH2 0x1A3F JUMP JUMPDEST JUMPDEST PUSH2 0x2022 DUP3 PUSH2 0x1A2E JUMP JUMPDEST SWAP1 POP PUSH1 0x20 DUP2 ADD SWAP1 POP SWAP2 SWAP1 POP JUMP JUMPDEST PUSH1 0x0 PUSH2 0x2042 PUSH2 0x203D DUP5 PUSH2 0x1FFE JUMP JUMPDEST PUSH2 0x1A9F JUMP JUMPDEST SWAP1 POP DUP3 DUP2 MSTORE PUSH1 0x20 DUP2 ADD DUP5 DUP5 DUP5 ADD GT ISZERO PUSH2 0x205E JUMPI PUSH2 0x205D PUSH2 0x1A29 JUMP JUMPDEST JUMPDEST PUSH2 0x2069 DUP5 DUP3 DUP6 PUSH2 0x1AEB JUMP JUMPDEST POP SWAP4 SWAP3 POP POP POP JUMP JUMPDEST PUSH1 0x0 DUP3 PUSH1 0x1F DUP4 ADD SLT PUSH2 0x2086 JUMPI PUSH2 0x2085 PUSH2 0x1A24 JUMP JUMPDEST JUMPDEST DUP2 CALLDATALOAD PUSH2 0x2096 DUP5 DUP3 PUSH1 0x20 DUP7 ADD PUSH2 0x202F JUMP JUMPDEST SWAP2 POP POP SWAP3 SWAP2 POP POP JUMP JUMPDEST PUSH1 0x0 PUSH1 0x20 DUP3 DUP5 SUB SLT ISZERO PUSH2 0x20B5 JUMPI PUSH2 0x20B4 PUSH2 0x1A1A JUMP JUMPDEST JUMPDEST PUSH1 0x0 DUP3 ADD CALLDATALOAD PUSH8 0xFFFFFFFFFFFFFFFF DUP2 GT ISZERO PUSH2 0x20D3 JUMPI PUSH2 0x20D2 PUSH2 0x1A1F JUMP JUMPDEST JUMPDEST PUSH2 0x20DF DUP5 DUP3 DUP6 ADD PUSH2 0x2071 JUMP JUMPDEST SWAP2 POP POP SWAP3 SWAP2 POP POP JUMP JUMPDEST PUSH1 0x0 DUP2 ISZERO ISZERO SWAP1 POP SWAP2 SWAP1 POP JUMP JUMPDEST PUSH2 0x20FD DUP2 PUSH2 0x20E8 JUMP JUMPDEST DUP3 MSTORE POP POP JUMP JUMPDEST PUSH1 0x0 DUP2 MLOAD SWAP1 POP SWAP2 SWAP1 POP JUMP JUMPDEST PUSH1 0x0 DUP3 DUP3 MSTORE PUSH1 0x20 DUP3 ADD SWAP1 POP SWAP3 SWAP2 POP POP JUMP JUMPDEST PUSH1 0x0 PUSH2 0x212A DUP3 PUSH2 0x2103 JUMP JUMPDEST PUSH2 0x2134 DUP2 DUP6 PUSH2 0x210E JUMP JUMPDEST SWAP4 POP PUSH2 0x2144 DUP2 DUP6 PUSH1 0x20 DUP7 ADD PUSH2 0x1C74 JUMP JUMPDEST PUSH2 0x214D DUP2 PUSH2 0x1A2E JUMP JUMPDEST DUP5 ADD SWAP2 POP POP SWAP3 SWAP2 POP POP JUMP JUMPDEST PUSH1 0x0 PUSH1 0x40 DUP3 ADD SWAP1 POP PUSH2 0x216D PUSH1 0x0 DUP4 ADD DUP6 PUSH2 0x20F4 JUMP JUMPDEST DUP2 DUP2 SUB PUSH1 0x20 DUP4 ADD MSTORE PUSH2 0x217F DUP2 DUP5 PUSH2 0x211F JUMP JUMPDEST SWAP1 POP SWAP4 SWAP3 POP POP POP JUMP JUMPDEST PUSH1 0x0 DUP1 PUSH1 0x0 DUP1 PUSH1 0x80 DUP6 DUP8 SUB SLT ISZERO PUSH2 0x21A2 JUMPI PUSH2 0x21A1 PUSH2 0x1A1A JUMP JUMPDEST JUMPDEST PUSH1 0x0 DUP6 ADD CALLDATALOAD PUSH8 0xFFFFFFFFFFFFFFFF DUP2 GT ISZERO PUSH2 0x21C0 JUMPI PUSH2 0x21BF PUSH2 0x1A1F JUMP JUMPDEST JUMPDEST PUSH2 0x21CC DUP8 DUP3 DUP9 ADD PUSH2 0x1B3C JUMP JUMPDEST SWAP5 POP POP PUSH1 0x20 DUP6 ADD CALLDATALOAD PUSH8 0xFFFFFFFFFFFFFFFF DUP2 GT ISZERO PUSH2 0x21ED JUMPI PUSH2 0x21EC PUSH2 0x1A1F JUMP JUMPDEST JUMPDEST PUSH2 0x21F9 DUP8 DUP3 DUP9 ADD PUSH2 0x1B3C JUMP JUMPDEST SWAP4 POP POP PUSH1 0x40 PUSH2 0x220A DUP8 DUP3 DUP9 ADD PUSH2 0x1B8B JUMP JUMPDEST SWAP3 POP POP PUSH1 0x60 PUSH2 0x221B DUP8 DUP3 DUP9 ADD PUSH2 0x1B8B JUMP JUMPDEST SWAP2 POP POP SWAP3 SWAP6 SWAP2 SWAP5 POP SWAP3 POP JUMP JUMPDEST PUSH32 0x4E487B7100000000000000000000000000000000000000000000000000000000 PUSH1 0x0 MSTORE PUSH1 0x21 PUSH1 0x4 MSTORE PUSH1 0x24 PUSH1 0x0 REVERT JUMPDEST PUSH1 0x2 DUP2 LT PUSH2 0x2267 JUMPI PUSH2 0x2266 PUSH2 0x2227 JUMP JUMPDEST JUMPDEST POP JUMP JUMPDEST PUSH1 0x0 DUP2 SWAP1 POP PUSH2 0x2278 DUP3 PUSH2 0x2256 JUMP JUMPDEST SWAP2 SWAP1 POP JUMP JUMPDEST PUSH1 0x0 PUSH2 0x2288 DUP3 PUSH2 0x226A JUMP JUMPDEST SWAP1 POP SWAP2 SWAP1 POP JUMP JUMPDEST PUSH2 0x2298 DUP2 PUSH2 0x227D JUMP JUMPDEST DUP3 MSTORE POP POP JUMP JUMPDEST PUSH1 0x0 PUSH1 0x20 DUP3 ADD SWAP1 POP PUSH2 0x22B3 PUSH1 0x0 DUP4 ADD DUP5 PUSH2 0x228F JUMP JUMPDEST SWAP3 SWAP2 POP POP JUMP JUMPDEST PUSH1 0x0 PUSH1 0x20 DUP3 DUP5 SUB SLT ISZERO PUSH2 0x22CF JUMPI PUSH2 0x22CE PUSH2 0x1A1A JUMP JUMPDEST JUMPDEST PUSH1 0x0 PUSH2 0x22DD DUP5 DUP3 DUP6 ADD PUSH2 0x1B8B JUMP JUMPDEST SWAP2 POP POP SWAP3 SWAP2 POP POP JUMP JUMPDEST PUSH1 0x0 DUP2 SWAP1 POP SWAP3 SWAP2 POP POP JUMP JUMPDEST PUSH1 0x0 PUSH2 0x22FC DUP3 PUSH2 0x1C58 JUMP JUMPDEST PUSH2 0x2306 DUP2 DUP6 PUSH2 0x22E6 JUMP JUMPDEST SWAP4 POP PUSH2 0x2316 DUP2 DUP6 PUSH1 0x20 DUP7 ADD PUSH2 0x1C74 JUMP JUMPDEST DUP1 DUP5 ADD SWAP2 POP POP SWAP3 SWAP2 POP POP JUMP JUMPDEST PUSH1 0x0 PUSH2 0x232E DUP3 DUP5 PUSH2 0x22F1 JUMP JUMPDEST SWAP2 POP DUP2 SWAP1 POP SWAP3 SWAP2 POP POP JUMP JUMPDEST PUSH32 0x4E487B7100000000000000000000000000000000000000000000000000000000 PUSH1 0x0 MSTORE PUSH1 0x32 PUSH1 0x4 MSTORE PUSH1 0x24 PUSH1 0x0 REVERT JUMPDEST PUSH32 0x4E487B7100000000000000000000000000000000000000000000000000000000 PUSH1 0x0 MSTORE PUSH1 0x22 PUSH1 0x4 MSTORE PUSH1 0x24 PUSH1 0x0 REVERT JUMPDEST PUSH1 0x0 PUSH1 0x2 DUP3 DIV SWAP1 POP PUSH1 0x1 DUP3 AND DUP1 PUSH2 0x23AF JUMPI PUSH1 0x7F DUP3 AND SWAP2 POP JUMPDEST PUSH1 0x20 DUP3 LT DUP2 SUB PUSH2 0x23C2 JUMPI PUSH2 0x23C1 PUSH2 0x2368 JUMP JUMPDEST JUMPDEST POP SWAP2 SWAP1 POP JUMP JUMPDEST PUSH1 0x0 DUP2 SWAP1 POP DUP2 PUSH1 0x0 MSTORE PUSH1 0x20 PUSH1 0x0 KECCAK256 SWAP1 POP SWAP2 SWAP1 POP JUMP JUMPDEST PUSH1 0x0 PUSH1 0x20 PUSH1 0x1F DUP4 ADD DIV SWAP1 POP SWAP2 SWAP1 POP JUMP JUMPDEST PUSH1 0x0 DUP3 DUP3 SHL SWAP1 POP SWAP3 SWAP2 POP POP JUMP JUMPDEST PUSH1 0x0 PUSH1 0x8 DUP4 MUL PUSH2 0x242A PUSH32 0xFFFFFFFFFFFFFFFFFFFFFFFFFFFFFFFFFFFFFFFFFFFFFFFFFFFFFFFFFFFFFFFF DUP3 PUSH2 0x23ED JUMP JUMPDEST PUSH2 0x2434 DUP7 DUP4 PUSH2 0x23ED JUMP JUMPDEST SWAP6 POP DUP1 NOT DUP5 AND SWAP4 POP DUP1 DUP7 AND DUP5 OR SWAP3 POP POP POP SWAP4 SWAP3 POP POP POP JUMP JUMPDEST PUSH1 0x0 DUP2 SWAP1 POP SWAP2 SWAP1 POP JUMP JUMPDEST PUSH1 0x0 PUSH2 0x2471 PUSH2 0x246C PUSH2 0x2467 DUP5 PUSH2 0x1B6A JUMP JUMPDEST PUSH2 0x244C JUMP JUMPDEST PUSH2 0x1B6A JUMP JUMPDEST SWAP1 POP SWAP2 SWAP1 POP JUMP JUMPDEST PUSH1 0x0 DUP2 SWAP1 POP SWAP2 SWAP1 POP JUMP JUMPDEST PUSH2 0x248B DUP4 PUSH2 0x2456 JUMP JUMPDEST PUSH2 0x249F PUSH2 0x2497 DUP3 PUSH2 0x2478 JUMP JUMPDEST DUP5 DUP5 SLOAD PUSH2 0x23FA JUMP JUMPDEST DUP3 SSTORE POP POP POP POP JUMP JUMPDEST PUSH1 0x0 SWAP1 JUMP JUMPDEST PUSH2 0x24B4 PUSH2 0x24A7 JUMP JUMPDEST PUSH2 0x24BF DUP2 DUP5 DUP5 PUSH2 0x2482 JUMP JUMPDEST POP POP POP JUMP JUMPDEST JUMPDEST DUP2 DUP2 LT ISZERO PUSH2 0x24E3 JUMPI PUSH2 0x24D8 PUSH1 0x0 DUP3 PUSH2 0x24AC JUMP JUMPDEST PUSH1 0x1 DUP2 ADD SWAP1 POP PUSH2 0x24C5 JUMP JUMPDEST POP POP JUMP JUMPDEST PUSH1 0x1F DUP3 GT ISZERO PUSH2 0x2528 JUMPI PUSH2 0x24F9 DUP2 PUSH2 0x23C8 JUMP JUMPDEST PUSH2 0x2502 DUP5 PUSH2 0x23DD JUMP JUMPDEST DUP2 ADD PUSH1 0x20 DUP6 LT ISZERO PUSH2 0x2511 JUMPI DUP2 SWAP1 POP JUMPDEST PUSH2 0x2525 PUSH2 0x251D DUP6 PUSH2 0x23DD JUMP JUMPDEST DUP4 ADD DUP3 PUSH2 0x24C4 JUMP JUMPDEST POP POP JUMPDEST POP POP POP JUMP JUMPDEST PUSH1 0x0 DUP3 DUP3 SHR SWAP1 POP SWAP3 SWAP2 POP POP JUMP JUMPDEST PUSH1 0x0 PUSH2 0x254B PUSH1 0x0 NOT DUP5 PUSH1 0x8 MUL PUSH2 0x252D JUMP JUMPDEST NOT DUP1 DUP4 AND SWAP2 POP POP SWAP3 SWAP2 POP POP JUMP JUMPDEST PUSH1 0x0 PUSH2 0x2564 DUP4 DUP4 PUSH2 0x253A JUMP JUMPDEST SWAP2 POP DUP3 PUSH1 0x2 MUL DUP3 OR SWAP1 POP SWAP3 SWAP2 POP POP JUMP JUMPDEST PUSH2 0x257D DUP3 PUSH2 0x1C58 JUMP JUMPDEST PUSH8 0xFFFFFFFFFFFFFFFF DUP2 GT ISZERO PUSH2 0x2596 JUMPI PUSH2 0x2595 PUSH2 0x1A3F JUMP JUMPDEST JUMPDEST PUSH2 0x25A0 DUP3 SLOAD PUSH2 0x2397 JUMP JUMPDEST PUSH2 0x25AB DUP3 DUP3 DUP6 PUSH2 0x24E7 JUMP JUMPDEST PUSH1 0x0 PUSH1 0x20 SWAP1 POP PUSH1 0x1F DUP4 GT PUSH1 0x1 DUP2 EQ PUSH2 0x25DE JUMPI PUSH1 0x0 DUP5 ISZERO PUSH2 0x25CC JUMPI DUP3 DUP8 ADD MLOAD SWAP1 POP JUMPDEST PUSH2 0x25D6 DUP6 DUP3 PUSH2 0x2558 JUMP JUMPDEST DUP7 SSTORE POP PUSH2 0x263E JUMP JUMPDEST PUSH1 0x1F NOT DUP5 AND PUSH2 0x25EC DUP7 PUSH2 0x23C8 JUMP JUMPDEST PUSH1 0x0 JUMPDEST DUP3 DUP2 LT ISZERO PUSH2 0x2614 JUMPI DUP5 DUP10 ADD MLOAD DUP3 SSTORE PUSH1 0x1 DUP3 ADD SWAP2 POP PUSH1 0x20 DUP6 ADD SWAP5 POP PUSH1 0x20 DUP2 ADD SWAP1 POP PUSH2 0x25EF JUMP JUMPDEST DUP7 DUP4 LT ISZERO PUSH2 0x2631 JUMPI DUP5 DUP10 ADD MLOAD PUSH2 0x262D PUSH1 0x1F DUP10 AND DUP3 PUSH2 0x253A JUMP JUMPDEST DUP4 SSTORE POP JUMPDEST PUSH1 0x1 PUSH1 0x2 DUP9 MUL ADD DUP9 SSTORE POP POP POP JUMPDEST POP POP POP POP POP POP JUMP JUMPDEST PUSH32 0x4E487B7100000000000000000000000000000000000000000000000000000000 PUSH1 0x0 MSTORE PUSH1 0x11 PUSH1 0x4 MSTORE PUSH1 0x24 PUSH1 0x0 REVERT JUMPDEST PUSH1 0x0 PUSH2 0x2680 DUP3 PUSH2 0x1B6A JUMP JUMPDEST SWAP2 POP PUSH32 0xFFFFFFFFFFFFFFFFFFFFFFFFFFFFFFFFFFFFFFFFFFFFFFFFFFFFFFFFFFFFFFFF DUP3 SUB PUSH2 0x26B2 JUMPI PUSH2 0x26B1 PUSH2 0x2646 JUMP JUMPDEST JUMPDEST PUSH1 0x1 DUP3 ADD SWAP1 POP SWAP2 SWAP1 POP JUMP JUMPDEST PUSH32 0x4E487B7100000000000000000000000000000000000000000000000000000000 PUSH1 0x0 MSTORE PUSH1 0x12 PUSH1 0x4 MSTORE PUSH1 0x24 PUSH1 0x0 REVERT JUMPDEST PUSH1 0x0 PUSH2 0x26F7 DUP3 PUSH2 0x1B6A JUMP JUMPDEST SWAP2 POP PUSH2 0x2702 DUP4 PUSH2 0x1B6A JUMP JUMPDEST SWAP3 POP DUP3 PUSH2 0x2712 JUMPI PUSH2 0x2711 PUSH2 0x26BD JUMP JUMPDEST JUMPDEST DUP3 DUP3 DIV SWAP1 POP SWAP3 SWAP2 POP POP JUMP JUMPDEST PUSH1 0x0 DUP2 SWAP1 POP SWAP3 SWAP2 POP POP JUMP JUMPDEST POP JUMP JUMPDEST PUSH1 0x0 PUSH2 0x2738 PUSH1 0x0 DUP4 PUSH2 0x271D JUMP JUMPDEST SWAP2 POP PUSH2 0x2743 DUP3 PUSH2 0x2728 JUMP JUMPDEST PUSH1 0x0 DUP3 ADD SWAP1 POP SWAP2 SWAP1 POP JUMP JUMPDEST PUSH1 0x0 PUSH2 0x2759 DUP3 PUSH2 0x272B JUMP JUMPDEST SWAP2 POP DUP2 SWAP1 POP SWAP2 SWAP1 POP JUMP INVALID LOG2 PUSH5 0x6970667358 0x22 SLT KECCAK256 BYTE PUSH10 0x406156257767972E6CE5 JUMPI SSTORE SLOAD 0xEF 0x4A PUSH14 0xFFB335D2968435A1C79C803E7EC3 PUSH5 0x736F6C6343 STOP ADDMOD GT STOP CALLER "},"gasEstimates":{"creation":{"codeDepositCost":"2027400","executionCost":"infinite","totalCost":"infinite"},"external":{"checkUpkeep(bytes)":"infinite","createSurvey(string,string,uint256,uint256)":"infinite","distributeFundsFromCompletedSurvey(uint256)":"infinite","getAllSurveyResponseData(string)":"infinite","getCompanyId(string)":"infinite","getInterval()":"infinite","getLastTimeStamp(string)":"infinite","getOwner()":"2611","getPayoutPerPersonBySurveyId(string)":"infinite","getSurveyCreationFee()":"infinite","getSurveyPayoutAmount(string)":"infinite","getSurveyResponseData(string,uint256)":"infinite","getSurveyState(string)":"infinite","getSurveyTaker(string,uint256)":"infinite","performUpkeep(bytes)":"infinite","removeCompletedSurveys()":"infinite","sendUserSurveyData(string,string,address)":"infinite"}},"methodIdentifiers":{"checkUpkeep(bytes)":"6e04ff0d","createSurvey(string,string,uint256,uint256)":"ac9d6a2b","distributeFundsFromCompletedSurvey(uint256)":"c3b9a2c8","getAllSurveyResponseData(string)":"50597f8a","getCompanyId(string)":"e1744d72","getInterval()":"91ad27b4","getLastTimeStamp(string)":"653cba7d","getOwner()":"893d20e8","getPayoutPerPersonBySurveyId(string)":"e74b36df","getSurveyCreationFee()":"bab26fd2","getSurveyPayoutAmount(string)":"9759ac36","getSurveyResponseData(string,uint256)":"24405aa9","getSurveyState(string)":"b374ff29","getSurveyTaker(string,uint256)":"12998301","performUpkeep(bytes)":"4585e33b","removeCompletedSurveys()":"eb9992c3","sendUserSurveyData(string,string,address)":"24445aeb"}},"storageLayout":{"storage":[{"astId":64,"contract":"contracts/Surpay.sol:Surpay","label":"i_owner","offset":0,"slot":"0","type":"t_address"},{"astId":69,"contract":"contracts/Surpay.sol:Surpay","label":"s_surveys","offset":0,"slot":"1","type":"t_mapping(t_string_memory_ptr,t_struct(Survey)59_storage)"},{"astId":72,"contract":"contracts/Surpay.sol:Surpay","label":"s_completedSurveys","offset":0,"slot":"2","type":"t_array(t_string_storage)dyn_storage"}],"types":{"t_address":{"encoding":"inplace","label":"address","numberOfBytes":"20"},"t_address_payable":{"encoding":"inplace","label":"address payable","numberOfBytes":"20"},"t_array(t_address_payable)dyn_storage":{"base":"t_address_payable","encoding":"dynamic_array","label":"address payable[]","numberOfBytes":"32"},"t_array(t_string_storage)dyn_storage":{"base":"t_string_storage","encoding":"dynamic_array","label":"string[]","numberOfBytes":"32"},"t_enum(SurveyState)62":{"encoding":"inplace","label":"enum Surpay.SurveyState","numberOfBytes":"1"},"t_mapping(t_string_memory_ptr,t_struct(Survey)59_storage)":{"encoding":"mapping","key":"t_string_memory_ptr","label":"mapping(string => struct Surpay.Survey)","numberOfBytes":"32","value":"t_struct(Survey)59_storage"},"t_string_memory_ptr":{"encoding":"bytes","label":"string","numberOfBytes":"32"},"t_string_storage":{"encoding":"bytes","label":"string","numberOfBytes":"32"},"t_struct(Survey)59_storage":{"encoding":"inplace","label":"struct Surpay.Survey","members":[{"astId":39,"contract":"contracts/Surpay.sol:Surpay","label":"companyId","offset":0,"slot":"0","type":"t_string_storage"},{"astId":41,"contract":"contracts/Surpay.sol:Surpay","label":"companyAddress","offset":0,"slot":"1","type":"t_address"},{"astId":43,"contract":"contracts/Surpay.sol:Surpay","label":"totalPayoutAmount","offset":0,"slot":"2","type":"t_uint256"},{"astId":45,"contract":"contracts/Surpay.sol:Surpay","label":"numOfParticipantsDesired","offset":0,"slot":"3","type":"t_uint256"},{"astId":47,"contract":"contracts/Surpay.sol:Surpay","label":"numOfParticipantsFulfilled","offset":0,"slot":"4","type":"t_uint256"},{"astId":50,"contract":"contracts/Surpay.sol:Surpay","label":"surveyResponseData","offset":0,"slot":"5","type":"t_array(t_string_storage)dyn_storage"},{"astId":53,"contract":"contracts/Surpay.sol:Surpay","label":"surveyTakers","offset":0,"slot":"6","type":"t_array(t_address_payable)dyn_storage"},{"astId":55,"contract":"contracts/Surpay.sol:Surpay","label":"startTimeStamp","offset":0,"slot":"7","type":"t_uint256"},{"astId":58,"contract":"contracts/Surpay.sol:Surpay","label":"surveyState","offset":0,"slot":"8","type":"t_enum(SurveyState)62"}],"numberOfBytes":"288"},"t_uint256":{"encoding":"inplace","label":"uint256","numberOfBytes":"32"}}},"userdoc":{"kind":"user","methods":{"sendUserSurveyData(string,string,address)":{"notice":"Function can only be called by the contract owner.This was neccissary to ensure that the user data wasa valid response to the survey."}},"version":1}}}}