{"contracts/Surpay.sol":{"Surpay":{"abi":[{"inputs":[{"internalType":"uint256","name":"_surveyCreationFee","type":"uint256"},{"internalType":"uint256","name":"_interval","type":"uint256"}],"stateMutability":"nonpayable","type":"constructor"},{"inputs":[],"name":"Surpay__NotEnoughFunds","type":"error"},{"inputs":[],"name":"Surpay__SurveyNotFound","type":"error"},{"anonymous":false,"inputs":[{"indexed":true,"internalType":"string","name":"surveyData","type":"string"}],"name":"SurveyCompleted","type":"event"},{"anonymous":false,"inputs":[{"indexed":true,"internalType":"string","name":"surveyId","type":"string"}],"name":"SurveyCreated","type":"event"},{"anonymous":false,"inputs":[{"indexed":true,"internalType":"address","name":"paidSurveyTaker","type":"address"}],"name":"SurveyTakerPaid","type":"event"},{"anonymous":false,"inputs":[{"indexed":true,"internalType":"address","name":"surveyTaker","type":"address"}],"name":"UserAddedToSurvey","type":"event"},{"inputs":[{"internalType":"bytes","name":"","type":"bytes"}],"name":"checkUpkeep","outputs":[{"internalType":"bool","name":"upkeepNeeded","type":"bool"},{"internalType":"bytes","name":"","type":"bytes"}],"stateMutability":"nonpayable","type":"function"},{"inputs":[{"internalType":"string","name":"_surveyId","type":"string"},{"internalType":"string","name":"_companyId","type":"string"},{"internalType":"uint256","name":"_totalPayoutAmount","type":"uint256"},{"internalType":"uint256","name":"_numOfParticipantsDesired","type":"uint256"}],"name":"createSurvey","outputs":[],"stateMutability":"payable","type":"function"},{"inputs":[],"name":"getInterval","outputs":[{"internalType":"uint256","name":"","type":"uint256"}],"stateMutability":"view","type":"function"},{"inputs":[{"internalType":"uint256","name":"index","type":"uint256"}],"name":"getPayoutByIndex","outputs":[{"internalType":"uint256","name":"","type":"uint256"}],"stateMutability":"view","type":"function"},{"inputs":[{"internalType":"uint256","name":"index","type":"uint256"}],"name":"getSurveyByIndex","outputs":[{"internalType":"string","name":"","type":"string"}],"stateMutability":"view","type":"function"},{"inputs":[],"name":"getSurveyCreationFee","outputs":[{"internalType":"uint256","name":"","type":"uint256"}],"stateMutability":"view","type":"function"},{"inputs":[{"internalType":"uint256","name":"surveyIndex","type":"uint256"},{"internalType":"uint256","name":"responseIndex","type":"uint256"}],"name":"getSurveyResponseDataByIndex","outputs":[{"internalType":"string","name":"","type":"string"}],"stateMutability":"view","type":"function"},{"inputs":[{"internalType":"string","name":"_surveyId","type":"string"}],"name":"getSurveyState","outputs":[{"internalType":"enum Surpay.SurveyState","name":"","type":"uint8"}],"stateMutability":"view","type":"function"},{"inputs":[{"internalType":"uint256","name":"surveyIndex","type":"uint256"},{"internalType":"uint256","name":"userIndex","type":"uint256"}],"name":"getSurveyTakerByIndex","outputs":[{"internalType":"address","name":"","type":"address"}],"stateMutability":"view","type":"function"},{"inputs":[{"internalType":"bytes","name":"","type":"bytes"}],"name":"performUpkeep","outputs":[],"stateMutability":"nonpayable","type":"function"},{"inputs":[{"internalType":"string","name":"_surveyId","type":"string"},{"internalType":"string","name":"_surveyData","type":"string"}],"name":"sendUserSurveyData","outputs":[],"stateMutability":"nonpayable","type":"function"}],"devdoc":{"kind":"dev","methods":{},"version":1},"evm":{"bytecode":{"linkReferences":{},"object":"60c06040523480156200001157600080fd5b5060405162001f7938038062001f7983398181016040528101906200003791906200008f565b81608081815250508060a081815250505050620000d6565b600080fd5b6000819050919050565b620000698162000054565b81146200007557600080fd5b50565b60008151905062000089816200005e565b92915050565b60008060408385031215620000a957620000a86200004f565b5b6000620000b98582860162000078565b9250506020620000cc8582860162000078565b9150509250929050565b60805160a051611e76620001036000396000610ae2015260008181610c470152610f8b0152611e766000f3fe60806040526004361061009c5760003560e01c80639f5922a7116100645780639f5922a714610199578063ab279df4146101d6578063ac9d6a2b14610213578063b374ff291461022f578063bab26fd21461026c578063f3207403146102975761009c565b80632b5f2325146100a15780634585e33b146100de5780636e04ff0d1461010757806377b5df8e1461014557806391ad27b41461016e575b600080fd5b3480156100ad57600080fd5b506100c860048036038101906100c391906112cc565b6102d4565b6040516100d59190611308565b60405180910390f35b3480156100ea57600080fd5b5061010560048036038101906101009190611388565b610346565b005b34801561011357600080fd5b5061012e60048036038101906101299190611516565b610368565b60405161013c9291906115f9565b60405180910390f35b34801561015157600080fd5b5061016c600480360381019061016791906116ca565b610917565b005b34801561017a57600080fd5b50610183610ade565b6040516101909190611308565b60405180910390f35b3480156101a557600080fd5b506101c060048036038101906101bb9190611742565b610b06565b6040516101cd91906117c3565b60405180910390f35b3480156101e257600080fd5b506101fd60048036038101906101f89190611742565b610b71565b60405161020a9190611833565b60405180910390f35b61022d60048036038101906102289190611855565b610c45565b005b34801561023b57600080fd5b50610256600480360381019061025191906118f4565b610eaa565b60405161026391906119b4565b60405180910390f35b34801561027857600080fd5b50610281610f87565b60405161028e9190611308565b60405180910390f35b3480156102a357600080fd5b506102be60048036038101906102b991906112cc565b610faf565b6040516102cb9190611833565b60405180910390f35b6000808054905082101561030f57600082815481106102f6576102f56119cf565b5b9060005260206000209060090201600301549050610341565b6040517fb01e933700000000000000000000000000000000000000000000000000000000815260040160405180910390fd5b919050565b600061036060405180602001604052806000815250610368565b509050505050565b60006060600080805480602002602001604051908101604052809291908181526020016000905b828210156106fc5783829060005260206000209060090201604051806101200160405290816000820180546103c390611a2d565b80601f01602080910402602001604051908101604052809291908181526020018280546103ef90611a2d565b801561043c5780601f106104115761010080835404028352916020019161043c565b820191906000526020600020905b81548152906001019060200180831161041f57829003601f168201915b5050505050815260200160018201805461045590611a2d565b80601f016020809104026020016040519081016040528092919081815260200182805461048190611a2d565b80156104ce5780601f106104a3576101008083540402835291602001916104ce565b820191906000526020600020905b8154815290600101906020018083116104b157829003601f168201915b505050505081526020016002820160009054906101000a900473ffffffffffffffffffffffffffffffffffffffff1673ffffffffffffffffffffffffffffffffffffffff1673ffffffffffffffffffffffffffffffffffffffff16815260200160038201548152602001600482015481526020016005820154815260200160068201805480602002602001604051908101604052809291908181526020016000905b8282101561061c57838290600052602060002001805461058f90611a2d565b80601f01602080910402602001604051908101604052809291908181526020018280546105bb90611a2d565b80156106085780601f106105dd57610100808354040283529160200191610608565b820191906000526020600020905b8154815290600101906020018083116105eb57829003601f168201915b505050505081526020019060010190610570565b505050508152602001600782018054806020026020016040519081016040528092919081815260200182805480156106a957602002820191906000526020600020905b8160009054906101000a900473ffffffffffffffffffffffffffffffffffffffff1673ffffffffffffffffffffffffffffffffffffffff168152602001906001019080831161065f575b505050505081526020016008820160009054906101000a900460ff1660028111156106d7576106d661193d565b5b60028111156106e9576106e861193d565b5b815250508152602001906001019061038f565b50505050905060005b81518110156108fd57600160028111156107225761072161193d565b5b828281518110610735576107346119cf565b5b6020026020010151610100015160028111156107545761075361193d565b5b036108ea57600182828151811061076e5761076d6119cf565b5b6020026020010151908060018154018082558091505060019003906000526020600020906009020160009091909190915060008201518160000190816107b49190611c0a565b5060208201518160010190816107ca9190611c0a565b5060408201518160020160006101000a81548173ffffffffffffffffffffffffffffffffffffffff021916908373ffffffffffffffffffffffffffffffffffffffff160217905550606082015181600301556080820151816004015560a0820151816005015560c082015181600601908051906020019061084c9291906110aa565b5060e0820151816007019080519060200190610869929190611103565b506101008201518160080160006101000a81548160ff021916908360028111156108965761089561193d565b5b0217905550505060028282815181106108b2576108b16119cf565b5b6020026020010151610100019060028111156108d1576108d061193d565b5b908160028111156108e5576108e461193d565b5b815250505b80806108f590611d0b565b915050610705565b506000600180549050111561091157600192505b50915091565b60005b600080549050811015610ad857826040516020016109389190611d8f565b6040516020818303038152906040528051906020012060008281548110610962576109616119cf565b5b90600052602060002090600902016000016040516020016109839190611e29565b6040516020818303038152906040528051906020012003610ac557600081815481106109b2576109b16119cf565b5b9060005260206000209060090201600601829080600181540180825580915050600190039060005260206000200160009091909190915090816109f59190611c0a565b5060008181548110610a0a57610a096119cf565b5b9060005260206000209060090201600701339080600181540180825580915050600190039060005260206000200160009091909190916101000a81548173ffffffffffffffffffffffffffffffffffffffff021916908373ffffffffffffffffffffffffffffffffffffffff1602179055503373ffffffffffffffffffffffffffffffffffffffff167f099cc064944e6569611b439843932fa853d46618d78ca5a8e3989bcc5614853d60405160405180910390a250610ada565b8080610ad090611d0b565b91505061091a565b505b5050565b60007f0000000000000000000000000000000000000000000000000000000000000000905090565b6000808381548110610b1b57610b1a6119cf565b5b90600052602060002090600902016007018281548110610b3e57610b3d6119cf565b5b9060005260206000200160009054906101000a900473ffffffffffffffffffffffffffffffffffffffff16905092915050565b606060008381548110610b8757610b866119cf565b5b90600052602060002090600902016006018281548110610baa57610ba96119cf565b5b906000526020600020018054610bbf90611a2d565b80601f0160208091040260200160405190810160405280929190818152602001828054610beb90611a2d565b8015610c385780601f10610c0d57610100808354040283529160200191610c38565b820191906000526020600020905b815481529060010190602001808311610c1b57829003601f168201915b5050505050905092915050565b7f0000000000000000000000000000000000000000000000000000000000000000341015610c9f576040517fc09bb52500000000000000000000000000000000000000000000000000000000815260040160405180910390fd5b610ca761118d565b84816000018190525083816020018190525033816040019073ffffffffffffffffffffffffffffffffffffffff16908173ffffffffffffffffffffffffffffffffffffffff1681525050828160600181815250508181608001818152505060008161010001906002811115610d1f57610d1e61193d565b5b90816002811115610d3357610d3261193d565b5b8152505060008190806001815401808255809150506001900390600052602060002090600902016000909190919091506000820151816000019081610d789190611c0a565b506020820151816001019081610d8e9190611c0a565b5060408201518160020160006101000a81548173ffffffffffffffffffffffffffffffffffffffff021916908373ffffffffffffffffffffffffffffffffffffffff160217905550606082015181600301556080820151816004015560a0820151816005015560c0820151816006019080519060200190610e109291906110aa565b5060e0820151816007019080519060200190610e2d929190611103565b506101008201518160080160006101000a81548160ff02191690836002811115610e5a57610e5961193d565b5b0217905550505084604051610e6f9190611d8f565b60405180910390207fcc65c6fb1d804ba1dc418f9e3659483d310357279f035d45b8ea484fd6fe4a2f60405160405180910390a25050505050565b60008060005b600080549050811015610f7d5783604051602001610ece9190611d8f565b6040516020818303038152906040528051906020012060008281548110610ef857610ef76119cf565b5b9060005260206000209060090201600001604051602001610f199190611e29565b6040516020818303038152906040528051906020012003610f6a5760008181548110610f4857610f476119cf565b5b906000526020600020906009020160080160009054906101000a900460ff1691505b8080610f7590611d0b565b915050610eb0565b5080915050919050565b60007f0000000000000000000000000000000000000000000000000000000000000000905090565b60606000805490508210156110735760008281548110610fd257610fd16119cf565b5b90600052602060002090600902016000018054610fee90611a2d565b80601f016020809104026020016040519081016040528092919081815260200182805461101a90611a2d565b80156110675780601f1061103c57610100808354040283529160200191611067565b820191906000526020600020905b81548152906001019060200180831161104a57829003601f168201915b505050505090506110a5565b6040517fb01e933700000000000000000000000000000000000000000000000000000000815260040160405180910390fd5b919050565b8280548282559060005260206000209081019282156110f2579160200282015b828111156110f15782518290816110e19190611c0a565b50916020019190600101906110ca565b5b5090506110ff9190611201565b5090565b82805482825590600052602060002090810192821561117c579160200282015b8281111561117b5782518260006101000a81548173ffffffffffffffffffffffffffffffffffffffff021916908373ffffffffffffffffffffffffffffffffffffffff16021790555091602001919060010190611123565b5b5090506111899190611225565b5090565b6040518061012001604052806060815260200160608152602001600073ffffffffffffffffffffffffffffffffffffffff1681526020016000815260200160008152602001600081526020016060815260200160608152602001600060028111156111fb576111fa61193d565b5b81525090565b5b8082111561122157600081816112189190611242565b50600101611202565b5090565b5b8082111561123e576000816000905550600101611226565b5090565b50805461124e90611a2d565b6000825580601f10611260575061127f565b601f01602090049060005260206000209081019061127e9190611225565b5b50565b6000604051905090565b600080fd5b600080fd5b6000819050919050565b6112a981611296565b81146112b457600080fd5b50565b6000813590506112c6816112a0565b92915050565b6000602082840312156112e2576112e161128c565b5b60006112f0848285016112b7565b91505092915050565b61130281611296565b82525050565b600060208201905061131d60008301846112f9565b92915050565b600080fd5b600080fd5b600080fd5b60008083601f84011261134857611347611323565b5b8235905067ffffffffffffffff81111561136557611364611328565b5b6020830191508360018202830111156113815761138061132d565b5b9250929050565b6000806020838503121561139f5761139e61128c565b5b600083013567ffffffffffffffff8111156113bd576113bc611291565b5b6113c985828601611332565b92509250509250929050565b600080fd5b6000601f19601f8301169050919050565b7f4e487b7100000000000000000000000000000000000000000000000000000000600052604160045260246000fd5b611423826113da565b810181811067ffffffffffffffff82111715611442576114416113eb565b5b80604052505050565b6000611455611282565b9050611461828261141a565b919050565b600067ffffffffffffffff821115611481576114806113eb565b5b61148a826113da565b9050602081019050919050565b82818337600083830152505050565b60006114b96114b484611466565b61144b565b9050828152602081018484840111156114d5576114d46113d5565b5b6114e0848285611497565b509392505050565b600082601f8301126114fd576114fc611323565b5b813561150d8482602086016114a6565b91505092915050565b60006020828403121561152c5761152b61128c565b5b600082013567ffffffffffffffff81111561154a57611549611291565b5b611556848285016114e8565b91505092915050565b60008115159050919050565b6115748161155f565b82525050565b600081519050919050565b600082825260208201905092915050565b60005b838110156115b4578082015181840152602081019050611599565b60008484015250505050565b60006115cb8261157a565b6115d58185611585565b93506115e5818560208601611596565b6115ee816113da565b840191505092915050565b600060408201905061160e600083018561156b565b818103602083015261162081846115c0565b90509392505050565b600067ffffffffffffffff821115611644576116436113eb565b5b61164d826113da565b9050602081019050919050565b600061166d61166884611629565b61144b565b905082815260208101848484011115611689576116886113d5565b5b611694848285611497565b509392505050565b600082601f8301126116b1576116b0611323565b5b81356116c184826020860161165a565b91505092915050565b600080604083850312156116e1576116e061128c565b5b600083013567ffffffffffffffff8111156116ff576116fe611291565b5b61170b8582860161169c565b925050602083013567ffffffffffffffff81111561172c5761172b611291565b5b6117388582860161169c565b9150509250929050565b600080604083850312156117595761175861128c565b5b6000611767858286016112b7565b9250506020611778858286016112b7565b9150509250929050565b600073ffffffffffffffffffffffffffffffffffffffff82169050919050565b60006117ad82611782565b9050919050565b6117bd816117a2565b82525050565b60006020820190506117d860008301846117b4565b92915050565b600081519050919050565b600082825260208201905092915050565b6000611805826117de565b61180f81856117e9565b935061181f818560208601611596565b611828816113da565b840191505092915050565b6000602082019050818103600083015261184d81846117fa565b905092915050565b6000806000806080858703121561186f5761186e61128c565b5b600085013567ffffffffffffffff81111561188d5761188c611291565b5b6118998782880161169c565b945050602085013567ffffffffffffffff8111156118ba576118b9611291565b5b6118c68782880161169c565b93505060406118d7878288016112b7565b92505060606118e8878288016112b7565b91505092959194509250565b60006020828403121561190a5761190961128c565b5b600082013567ffffffffffffffff81111561192857611927611291565b5b6119348482850161169c565b91505092915050565b7f4e487b7100000000000000000000000000000000000000000000000000000000600052602160045260246000fd5b6003811061197d5761197c61193d565b5b50565b600081905061198e8261196c565b919050565b600061199e82611980565b9050919050565b6119ae81611993565b82525050565b60006020820190506119c960008301846119a5565b92915050565b7f4e487b7100000000000000000000000000000000000000000000000000000000600052603260045260246000fd5b7f4e487b7100000000000000000000000000000000000000000000000000000000600052602260045260246000fd5b60006002820490506001821680611a4557607f821691505b602082108103611a5857611a576119fe565b5b50919050565b60008190508160005260206000209050919050565b60006020601f8301049050919050565b600082821b905092915050565b600060088302611ac07fffffffffffffffffffffffffffffffffffffffffffffffffffffffffffffffff82611a83565b611aca8683611a83565b95508019841693508086168417925050509392505050565b6000819050919050565b6000611b07611b02611afd84611296565b611ae2565b611296565b9050919050565b6000819050919050565b611b2183611aec565b611b35611b2d82611b0e565b848454611a90565b825550505050565b600090565b611b4a611b3d565b611b55818484611b18565b505050565b5b81811015611b7957611b6e600082611b42565b600181019050611b5b565b5050565b601f821115611bbe57611b8f81611a5e565b611b9884611a73565b81016020851015611ba7578190505b611bbb611bb385611a73565b830182611b5a565b50505b505050565b600082821c905092915050565b6000611be160001984600802611bc3565b1980831691505092915050565b6000611bfa8383611bd0565b9150826002028217905092915050565b611c13826117de565b67ffffffffffffffff811115611c2c57611c2b6113eb565b5b611c368254611a2d565b611c41828285611b7d565b600060209050601f831160018114611c745760008415611c62578287015190505b611c6c8582611bee565b865550611cd4565b601f198416611c8286611a5e565b60005b82811015611caa57848901518255600182019150602085019450602081019050611c85565b86831015611cc75784890151611cc3601f891682611bd0565b8355505b6001600288020188555050505b505050505050565b7f4e487b7100000000000000000000000000000000000000000000000000000000600052601160045260246000fd5b6000611d1682611296565b91507fffffffffffffffffffffffffffffffffffffffffffffffffffffffffffffffff8203611d4857611d47611cdc565b5b600182019050919050565b600081905092915050565b6000611d69826117de565b611d738185611d53565b9350611d83818560208601611596565b80840191505092915050565b6000611d9b8284611d5e565b915081905092915050565b60008154611db381611a2d565b611dbd8186611d53565b94506001821660008114611dd85760018114611ded57611e20565b60ff1983168652811515820286019350611e20565b611df685611a5e565b60005b83811015611e1857815481890152600182019150602081019050611df9565b838801955050505b50505092915050565b6000611e358284611da6565b91508190509291505056fea26469706673582212207531c8542a23020c3fc7440037e2ff9ae6ceec319c357b227849d22af30a1c7364736f6c63430008110033","opcodes":"PUSH1 0xC0 PUSH1 0x40 MSTORE CALLVALUE DUP1 ISZERO PUSH3 0x11 JUMPI PUSH1 0x0 DUP1 REVERT JUMPDEST POP PUSH1 0x40 MLOAD PUSH3 0x1F79 CODESIZE SUB DUP1 PUSH3 0x1F79 DUP4 CODECOPY DUP2 DUP2 ADD PUSH1 0x40 MSTORE DUP2 ADD SWAP1 PUSH3 0x37 SWAP2 SWAP1 PUSH3 0x8F JUMP JUMPDEST DUP2 PUSH1 0x80 DUP2 DUP2 MSTORE POP POP DUP1 PUSH1 0xA0 DUP2 DUP2 MSTORE POP POP POP POP PUSH3 0xD6 JUMP JUMPDEST PUSH1 0x0 DUP1 REVERT JUMPDEST PUSH1 0x0 DUP2 SWAP1 POP SWAP2 SWAP1 POP JUMP JUMPDEST PUSH3 0x69 DUP2 PUSH3 0x54 JUMP JUMPDEST DUP2 EQ PUSH3 0x75 JUMPI PUSH1 0x0 DUP1 REVERT JUMPDEST POP JUMP JUMPDEST PUSH1 0x0 DUP2 MLOAD SWAP1 POP PUSH3 0x89 DUP2 PUSH3 0x5E JUMP JUMPDEST SWAP3 SWAP2 POP POP JUMP JUMPDEST PUSH1 0x0 DUP1 PUSH1 0x40 DUP4 DUP6 SUB SLT ISZERO PUSH3 0xA9 JUMPI PUSH3 0xA8 PUSH3 0x4F JUMP JUMPDEST JUMPDEST PUSH1 0x0 PUSH3 0xB9 DUP6 DUP3 DUP7 ADD PUSH3 0x78 JUMP JUMPDEST SWAP3 POP POP PUSH1 0x20 PUSH3 0xCC DUP6 DUP3 DUP7 ADD PUSH3 0x78 JUMP JUMPDEST SWAP2 POP POP SWAP3 POP SWAP3 SWAP1 POP JUMP JUMPDEST PUSH1 0x80 MLOAD PUSH1 0xA0 MLOAD PUSH2 0x1E76 PUSH3 0x103 PUSH1 0x0 CODECOPY PUSH1 0x0 PUSH2 0xAE2 ADD MSTORE PUSH1 0x0 DUP2 DUP2 PUSH2 0xC47 ADD MSTORE PUSH2 0xF8B ADD MSTORE PUSH2 0x1E76 PUSH1 0x0 RETURN INVALID PUSH1 0x80 PUSH1 0x40 MSTORE PUSH1 0x4 CALLDATASIZE LT PUSH2 0x9C JUMPI PUSH1 0x0 CALLDATALOAD PUSH1 0xE0 SHR DUP1 PUSH4 0x9F5922A7 GT PUSH2 0x64 JUMPI DUP1 PUSH4 0x9F5922A7 EQ PUSH2 0x199 JUMPI DUP1 PUSH4 0xAB279DF4 EQ PUSH2 0x1D6 JUMPI DUP1 PUSH4 0xAC9D6A2B EQ PUSH2 0x213 JUMPI DUP1 PUSH4 0xB374FF29 EQ PUSH2 0x22F JUMPI DUP1 PUSH4 0xBAB26FD2 EQ PUSH2 0x26C JUMPI DUP1 PUSH4 0xF3207403 EQ PUSH2 0x297 JUMPI PUSH2 0x9C JUMP JUMPDEST DUP1 PUSH4 0x2B5F2325 EQ PUSH2 0xA1 JUMPI DUP1 PUSH4 0x4585E33B EQ PUSH2 0xDE JUMPI DUP1 PUSH4 0x6E04FF0D EQ PUSH2 0x107 JUMPI DUP1 PUSH4 0x77B5DF8E EQ PUSH2 0x145 JUMPI DUP1 PUSH4 0x91AD27B4 EQ PUSH2 0x16E JUMPI JUMPDEST PUSH1 0x0 DUP1 REVERT JUMPDEST CALLVALUE DUP1 ISZERO PUSH2 0xAD JUMPI PUSH1 0x0 DUP1 REVERT JUMPDEST POP PUSH2 0xC8 PUSH1 0x4 DUP1 CALLDATASIZE SUB DUP2 ADD SWAP1 PUSH2 0xC3 SWAP2 SWAP1 PUSH2 0x12CC JUMP JUMPDEST PUSH2 0x2D4 JUMP JUMPDEST PUSH1 0x40 MLOAD PUSH2 0xD5 SWAP2 SWAP1 PUSH2 0x1308 JUMP JUMPDEST PUSH1 0x40 MLOAD DUP1 SWAP2 SUB SWAP1 RETURN JUMPDEST CALLVALUE DUP1 ISZERO PUSH2 0xEA JUMPI PUSH1 0x0 DUP1 REVERT JUMPDEST POP PUSH2 0x105 PUSH1 0x4 DUP1 CALLDATASIZE SUB DUP2 ADD SWAP1 PUSH2 0x100 SWAP2 SWAP1 PUSH2 0x1388 JUMP JUMPDEST PUSH2 0x346 JUMP JUMPDEST STOP JUMPDEST CALLVALUE DUP1 ISZERO PUSH2 0x113 JUMPI PUSH1 0x0 DUP1 REVERT JUMPDEST POP PUSH2 0x12E PUSH1 0x4 DUP1 CALLDATASIZE SUB DUP2 ADD SWAP1 PUSH2 0x129 SWAP2 SWAP1 PUSH2 0x1516 JUMP JUMPDEST PUSH2 0x368 JUMP JUMPDEST PUSH1 0x40 MLOAD PUSH2 0x13C SWAP3 SWAP2 SWAP1 PUSH2 0x15F9 JUMP JUMPDEST PUSH1 0x40 MLOAD DUP1 SWAP2 SUB SWAP1 RETURN JUMPDEST CALLVALUE DUP1 ISZERO PUSH2 0x151 JUMPI PUSH1 0x0 DUP1 REVERT JUMPDEST POP PUSH2 0x16C PUSH1 0x4 DUP1 CALLDATASIZE SUB DUP2 ADD SWAP1 PUSH2 0x167 SWAP2 SWAP1 PUSH2 0x16CA JUMP JUMPDEST PUSH2 0x917 JUMP JUMPDEST STOP JUMPDEST CALLVALUE DUP1 ISZERO PUSH2 0x17A JUMPI PUSH1 0x0 DUP1 REVERT JUMPDEST POP PUSH2 0x183 PUSH2 0xADE JUMP JUMPDEST PUSH1 0x40 MLOAD PUSH2 0x190 SWAP2 SWAP1 PUSH2 0x1308 JUMP JUMPDEST PUSH1 0x40 MLOAD DUP1 SWAP2 SUB SWAP1 RETURN JUMPDEST CALLVALUE DUP1 ISZERO PUSH2 0x1A5 JUMPI PUSH1 0x0 DUP1 REVERT JUMPDEST POP PUSH2 0x1C0 PUSH1 0x4 DUP1 CALLDATASIZE SUB DUP2 ADD SWAP1 PUSH2 0x1BB SWAP2 SWAP1 PUSH2 0x1742 JUMP JUMPDEST PUSH2 0xB06 JUMP JUMPDEST PUSH1 0x40 MLOAD PUSH2 0x1CD SWAP2 SWAP1 PUSH2 0x17C3 JUMP JUMPDEST PUSH1 0x40 MLOAD DUP1 SWAP2 SUB SWAP1 RETURN JUMPDEST CALLVALUE DUP1 ISZERO PUSH2 0x1E2 JUMPI PUSH1 0x0 DUP1 REVERT JUMPDEST POP PUSH2 0x1FD PUSH1 0x4 DUP1 CALLDATASIZE SUB DUP2 ADD SWAP1 PUSH2 0x1F8 SWAP2 SWAP1 PUSH2 0x1742 JUMP JUMPDEST PUSH2 0xB71 JUMP JUMPDEST PUSH1 0x40 MLOAD PUSH2 0x20A SWAP2 SWAP1 PUSH2 0x1833 JUMP JUMPDEST PUSH1 0x40 MLOAD DUP1 SWAP2 SUB SWAP1 RETURN JUMPDEST PUSH2 0x22D PUSH1 0x4 DUP1 CALLDATASIZE SUB DUP2 ADD SWAP1 PUSH2 0x228 SWAP2 SWAP1 PUSH2 0x1855 JUMP JUMPDEST PUSH2 0xC45 JUMP JUMPDEST STOP JUMPDEST CALLVALUE DUP1 ISZERO PUSH2 0x23B JUMPI PUSH1 0x0 DUP1 REVERT JUMPDEST POP PUSH2 0x256 PUSH1 0x4 DUP1 CALLDATASIZE SUB DUP2 ADD SWAP1 PUSH2 0x251 SWAP2 SWAP1 PUSH2 0x18F4 JUMP JUMPDEST PUSH2 0xEAA JUMP JUMPDEST PUSH1 0x40 MLOAD PUSH2 0x263 SWAP2 SWAP1 PUSH2 0x19B4 JUMP JUMPDEST PUSH1 0x40 MLOAD DUP1 SWAP2 SUB SWAP1 RETURN JUMPDEST CALLVALUE DUP1 ISZERO PUSH2 0x278 JUMPI PUSH1 0x0 DUP1 REVERT JUMPDEST POP PUSH2 0x281 PUSH2 0xF87 JUMP JUMPDEST PUSH1 0x40 MLOAD PUSH2 0x28E SWAP2 SWAP1 PUSH2 0x1308 JUMP JUMPDEST PUSH1 0x40 MLOAD DUP1 SWAP2 SUB SWAP1 RETURN JUMPDEST CALLVALUE DUP1 ISZERO PUSH2 0x2A3 JUMPI PUSH1 0x0 DUP1 REVERT JUMPDEST POP PUSH2 0x2BE PUSH1 0x4 DUP1 CALLDATASIZE SUB DUP2 ADD SWAP1 PUSH2 0x2B9 SWAP2 SWAP1 PUSH2 0x12CC JUMP JUMPDEST PUSH2 0xFAF JUMP JUMPDEST PUSH1 0x40 MLOAD PUSH2 0x2CB SWAP2 SWAP1 PUSH2 0x1833 JUMP JUMPDEST PUSH1 0x40 MLOAD DUP1 SWAP2 SUB SWAP1 RETURN JUMPDEST PUSH1 0x0 DUP1 DUP1 SLOAD SWAP1 POP DUP3 LT ISZERO PUSH2 0x30F JUMPI PUSH1 0x0 DUP3 DUP2 SLOAD DUP2 LT PUSH2 0x2F6 JUMPI PUSH2 0x2F5 PUSH2 0x19CF JUMP JUMPDEST JUMPDEST SWAP1 PUSH1 0x0 MSTORE PUSH1 0x20 PUSH1 0x0 KECCAK256 SWAP1 PUSH1 0x9 MUL ADD PUSH1 0x3 ADD SLOAD SWAP1 POP PUSH2 0x341 JUMP JUMPDEST PUSH1 0x40 MLOAD PUSH32 0xB01E933700000000000000000000000000000000000000000000000000000000 DUP2 MSTORE PUSH1 0x4 ADD PUSH1 0x40 MLOAD DUP1 SWAP2 SUB SWAP1 REVERT JUMPDEST SWAP2 SWAP1 POP JUMP JUMPDEST PUSH1 0x0 PUSH2 0x360 PUSH1 0x40 MLOAD DUP1 PUSH1 0x20 ADD PUSH1 0x40 MSTORE DUP1 PUSH1 0x0 DUP2 MSTORE POP PUSH2 0x368 JUMP JUMPDEST POP SWAP1 POP POP POP POP JUMP JUMPDEST PUSH1 0x0 PUSH1 0x60 PUSH1 0x0 DUP1 DUP1 SLOAD DUP1 PUSH1 0x20 MUL PUSH1 0x20 ADD PUSH1 0x40 MLOAD SWAP1 DUP2 ADD PUSH1 0x40 MSTORE DUP1 SWAP3 SWAP2 SWAP1 DUP2 DUP2 MSTORE PUSH1 0x20 ADD PUSH1 0x0 SWAP1 JUMPDEST DUP3 DUP3 LT ISZERO PUSH2 0x6FC JUMPI DUP4 DUP3 SWAP1 PUSH1 0x0 MSTORE PUSH1 0x20 PUSH1 0x0 KECCAK256 SWAP1 PUSH1 0x9 MUL ADD PUSH1 0x40 MLOAD DUP1 PUSH2 0x120 ADD PUSH1 0x40 MSTORE SWAP1 DUP2 PUSH1 0x0 DUP3 ADD DUP1 SLOAD PUSH2 0x3C3 SWAP1 PUSH2 0x1A2D JUMP JUMPDEST DUP1 PUSH1 0x1F ADD PUSH1 0x20 DUP1 SWAP2 DIV MUL PUSH1 0x20 ADD PUSH1 0x40 MLOAD SWAP1 DUP2 ADD PUSH1 0x40 MSTORE DUP1 SWAP3 SWAP2 SWAP1 DUP2 DUP2 MSTORE PUSH1 0x20 ADD DUP3 DUP1 SLOAD PUSH2 0x3EF SWAP1 PUSH2 0x1A2D JUMP JUMPDEST DUP1 ISZERO PUSH2 0x43C JUMPI DUP1 PUSH1 0x1F LT PUSH2 0x411 JUMPI PUSH2 0x100 DUP1 DUP4 SLOAD DIV MUL DUP4 MSTORE SWAP2 PUSH1 0x20 ADD SWAP2 PUSH2 0x43C JUMP JUMPDEST DUP3 ADD SWAP2 SWAP1 PUSH1 0x0 MSTORE PUSH1 0x20 PUSH1 0x0 KECCAK256 SWAP1 JUMPDEST DUP2 SLOAD DUP2 MSTORE SWAP1 PUSH1 0x1 ADD SWAP1 PUSH1 0x20 ADD DUP1 DUP4 GT PUSH2 0x41F JUMPI DUP3 SWAP1 SUB PUSH1 0x1F AND DUP3 ADD SWAP2 JUMPDEST POP POP POP POP POP DUP2 MSTORE PUSH1 0x20 ADD PUSH1 0x1 DUP3 ADD DUP1 SLOAD PUSH2 0x455 SWAP1 PUSH2 0x1A2D JUMP JUMPDEST DUP1 PUSH1 0x1F ADD PUSH1 0x20 DUP1 SWAP2 DIV MUL PUSH1 0x20 ADD PUSH1 0x40 MLOAD SWAP1 DUP2 ADD PUSH1 0x40 MSTORE DUP1 SWAP3 SWAP2 SWAP1 DUP2 DUP2 MSTORE PUSH1 0x20 ADD DUP3 DUP1 SLOAD PUSH2 0x481 SWAP1 PUSH2 0x1A2D JUMP JUMPDEST DUP1 ISZERO PUSH2 0x4CE JUMPI DUP1 PUSH1 0x1F LT PUSH2 0x4A3 JUMPI PUSH2 0x100 DUP1 DUP4 SLOAD DIV MUL DUP4 MSTORE SWAP2 PUSH1 0x20 ADD SWAP2 PUSH2 0x4CE JUMP JUMPDEST DUP3 ADD SWAP2 SWAP1 PUSH1 0x0 MSTORE PUSH1 0x20 PUSH1 0x0 KECCAK256 SWAP1 JUMPDEST DUP2 SLOAD DUP2 MSTORE SWAP1 PUSH1 0x1 ADD SWAP1 PUSH1 0x20 ADD DUP1 DUP4 GT PUSH2 0x4B1 JUMPI DUP3 SWAP1 SUB PUSH1 0x1F AND DUP3 ADD SWAP2 JUMPDEST POP POP POP POP POP DUP2 MSTORE PUSH1 0x20 ADD PUSH1 0x2 DUP3 ADD PUSH1 0x0 SWAP1 SLOAD SWAP1 PUSH2 0x100 EXP SWAP1 DIV PUSH20 0xFFFFFFFFFFFFFFFFFFFFFFFFFFFFFFFFFFFFFFFF AND PUSH20 0xFFFFFFFFFFFFFFFFFFFFFFFFFFFFFFFFFFFFFFFF AND PUSH20 0xFFFFFFFFFFFFFFFFFFFFFFFFFFFFFFFFFFFFFFFF AND DUP2 MSTORE PUSH1 0x20 ADD PUSH1 0x3 DUP3 ADD SLOAD DUP2 MSTORE PUSH1 0x20 ADD PUSH1 0x4 DUP3 ADD SLOAD DUP2 MSTORE PUSH1 0x20 ADD PUSH1 0x5 DUP3 ADD SLOAD DUP2 MSTORE PUSH1 0x20 ADD PUSH1 0x6 DUP3 ADD DUP1 SLOAD DUP1 PUSH1 0x20 MUL PUSH1 0x20 ADD PUSH1 0x40 MLOAD SWAP1 DUP2 ADD PUSH1 0x40 MSTORE DUP1 SWAP3 SWAP2 SWAP1 DUP2 DUP2 MSTORE PUSH1 0x20 ADD PUSH1 0x0 SWAP1 JUMPDEST DUP3 DUP3 LT ISZERO PUSH2 0x61C JUMPI DUP4 DUP3 SWAP1 PUSH1 0x0 MSTORE PUSH1 0x20 PUSH1 0x0 KECCAK256 ADD DUP1 SLOAD PUSH2 0x58F SWAP1 PUSH2 0x1A2D JUMP JUMPDEST DUP1 PUSH1 0x1F ADD PUSH1 0x20 DUP1 SWAP2 DIV MUL PUSH1 0x20 ADD PUSH1 0x40 MLOAD SWAP1 DUP2 ADD PUSH1 0x40 MSTORE DUP1 SWAP3 SWAP2 SWAP1 DUP2 DUP2 MSTORE PUSH1 0x20 ADD DUP3 DUP1 SLOAD PUSH2 0x5BB SWAP1 PUSH2 0x1A2D JUMP JUMPDEST DUP1 ISZERO PUSH2 0x608 JUMPI DUP1 PUSH1 0x1F LT PUSH2 0x5DD JUMPI PUSH2 0x100 DUP1 DUP4 SLOAD DIV MUL DUP4 MSTORE SWAP2 PUSH1 0x20 ADD SWAP2 PUSH2 0x608 JUMP JUMPDEST DUP3 ADD SWAP2 SWAP1 PUSH1 0x0 MSTORE PUSH1 0x20 PUSH1 0x0 KECCAK256 SWAP1 JUMPDEST DUP2 SLOAD DUP2 MSTORE SWAP1 PUSH1 0x1 ADD SWAP1 PUSH1 0x20 ADD DUP1 DUP4 GT PUSH2 0x5EB JUMPI DUP3 SWAP1 SUB PUSH1 0x1F AND DUP3 ADD SWAP2 JUMPDEST POP POP POP POP POP DUP2 MSTORE PUSH1 0x20 ADD SWAP1 PUSH1 0x1 ADD SWAP1 PUSH2 0x570 JUMP JUMPDEST POP POP POP POP DUP2 MSTORE PUSH1 0x20 ADD PUSH1 0x7 DUP3 ADD DUP1 SLOAD DUP1 PUSH1 0x20 MUL PUSH1 0x20 ADD PUSH1 0x40 MLOAD SWAP1 DUP2 ADD PUSH1 0x40 MSTORE DUP1 SWAP3 SWAP2 SWAP1 DUP2 DUP2 MSTORE PUSH1 0x20 ADD DUP3 DUP1 SLOAD DUP1 ISZERO PUSH2 0x6A9 JUMPI PUSH1 0x20 MUL DUP3 ADD SWAP2 SWAP1 PUSH1 0x0 MSTORE PUSH1 0x20 PUSH1 0x0 KECCAK256 SWAP1 JUMPDEST DUP2 PUSH1 0x0 SWAP1 SLOAD SWAP1 PUSH2 0x100 EXP SWAP1 DIV PUSH20 0xFFFFFFFFFFFFFFFFFFFFFFFFFFFFFFFFFFFFFFFF AND PUSH20 0xFFFFFFFFFFFFFFFFFFFFFFFFFFFFFFFFFFFFFFFF AND DUP2 MSTORE PUSH1 0x20 ADD SWAP1 PUSH1 0x1 ADD SWAP1 DUP1 DUP4 GT PUSH2 0x65F JUMPI JUMPDEST POP POP POP POP POP DUP2 MSTORE PUSH1 0x20 ADD PUSH1 0x8 DUP3 ADD PUSH1 0x0 SWAP1 SLOAD SWAP1 PUSH2 0x100 EXP SWAP1 DIV PUSH1 0xFF AND PUSH1 0x2 DUP2 GT ISZERO PUSH2 0x6D7 JUMPI PUSH2 0x6D6 PUSH2 0x193D JUMP JUMPDEST JUMPDEST PUSH1 0x2 DUP2 GT ISZERO PUSH2 0x6E9 JUMPI PUSH2 0x6E8 PUSH2 0x193D JUMP JUMPDEST JUMPDEST DUP2 MSTORE POP POP DUP2 MSTORE PUSH1 0x20 ADD SWAP1 PUSH1 0x1 ADD SWAP1 PUSH2 0x38F JUMP JUMPDEST POP POP POP POP SWAP1 POP PUSH1 0x0 JUMPDEST DUP2 MLOAD DUP2 LT ISZERO PUSH2 0x8FD JUMPI PUSH1 0x1 PUSH1 0x2 DUP2 GT ISZERO PUSH2 0x722 JUMPI PUSH2 0x721 PUSH2 0x193D JUMP JUMPDEST JUMPDEST DUP3 DUP3 DUP2 MLOAD DUP2 LT PUSH2 0x735 JUMPI PUSH2 0x734 PUSH2 0x19CF JUMP JUMPDEST JUMPDEST PUSH1 0x20 MUL PUSH1 0x20 ADD ADD MLOAD PUSH2 0x100 ADD MLOAD PUSH1 0x2 DUP2 GT ISZERO PUSH2 0x754 JUMPI PUSH2 0x753 PUSH2 0x193D JUMP JUMPDEST JUMPDEST SUB PUSH2 0x8EA JUMPI PUSH1 0x1 DUP3 DUP3 DUP2 MLOAD DUP2 LT PUSH2 0x76E JUMPI PUSH2 0x76D PUSH2 0x19CF JUMP JUMPDEST JUMPDEST PUSH1 0x20 MUL PUSH1 0x20 ADD ADD MLOAD SWAP1 DUP1 PUSH1 0x1 DUP2 SLOAD ADD DUP1 DUP3 SSTORE DUP1 SWAP2 POP POP PUSH1 0x1 SWAP1 SUB SWAP1 PUSH1 0x0 MSTORE PUSH1 0x20 PUSH1 0x0 KECCAK256 SWAP1 PUSH1 0x9 MUL ADD PUSH1 0x0 SWAP1 SWAP2 SWAP1 SWAP2 SWAP1 SWAP2 POP PUSH1 0x0 DUP3 ADD MLOAD DUP2 PUSH1 0x0 ADD SWAP1 DUP2 PUSH2 0x7B4 SWAP2 SWAP1 PUSH2 0x1C0A JUMP JUMPDEST POP PUSH1 0x20 DUP3 ADD MLOAD DUP2 PUSH1 0x1 ADD SWAP1 DUP2 PUSH2 0x7CA SWAP2 SWAP1 PUSH2 0x1C0A JUMP JUMPDEST POP PUSH1 0x40 DUP3 ADD MLOAD DUP2 PUSH1 0x2 ADD PUSH1 0x0 PUSH2 0x100 EXP DUP2 SLOAD DUP2 PUSH20 0xFFFFFFFFFFFFFFFFFFFFFFFFFFFFFFFFFFFFFFFF MUL NOT AND SWAP1 DUP4 PUSH20 0xFFFFFFFFFFFFFFFFFFFFFFFFFFFFFFFFFFFFFFFF AND MUL OR SWAP1 SSTORE POP PUSH1 0x60 DUP3 ADD MLOAD DUP2 PUSH1 0x3 ADD SSTORE PUSH1 0x80 DUP3 ADD MLOAD DUP2 PUSH1 0x4 ADD SSTORE PUSH1 0xA0 DUP3 ADD MLOAD DUP2 PUSH1 0x5 ADD SSTORE PUSH1 0xC0 DUP3 ADD MLOAD DUP2 PUSH1 0x6 ADD SWAP1 DUP1 MLOAD SWAP1 PUSH1 0x20 ADD SWAP1 PUSH2 0x84C SWAP3 SWAP2 SWAP1 PUSH2 0x10AA JUMP JUMPDEST POP PUSH1 0xE0 DUP3 ADD MLOAD DUP2 PUSH1 0x7 ADD SWAP1 DUP1 MLOAD SWAP1 PUSH1 0x20 ADD SWAP1 PUSH2 0x869 SWAP3 SWAP2 SWAP1 PUSH2 0x1103 JUMP JUMPDEST POP PUSH2 0x100 DUP3 ADD MLOAD DUP2 PUSH1 0x8 ADD PUSH1 0x0 PUSH2 0x100 EXP DUP2 SLOAD DUP2 PUSH1 0xFF MUL NOT AND SWAP1 DUP4 PUSH1 0x2 DUP2 GT ISZERO PUSH2 0x896 JUMPI PUSH2 0x895 PUSH2 0x193D JUMP JUMPDEST JUMPDEST MUL OR SWAP1 SSTORE POP POP POP PUSH1 0x2 DUP3 DUP3 DUP2 MLOAD DUP2 LT PUSH2 0x8B2 JUMPI PUSH2 0x8B1 PUSH2 0x19CF JUMP JUMPDEST JUMPDEST PUSH1 0x20 MUL PUSH1 0x20 ADD ADD MLOAD PUSH2 0x100 ADD SWAP1 PUSH1 0x2 DUP2 GT ISZERO PUSH2 0x8D1 JUMPI PUSH2 0x8D0 PUSH2 0x193D JUMP JUMPDEST JUMPDEST SWAP1 DUP2 PUSH1 0x2 DUP2 GT ISZERO PUSH2 0x8E5 JUMPI PUSH2 0x8E4 PUSH2 0x193D JUMP JUMPDEST JUMPDEST DUP2 MSTORE POP POP JUMPDEST DUP1 DUP1 PUSH2 0x8F5 SWAP1 PUSH2 0x1D0B JUMP JUMPDEST SWAP2 POP POP PUSH2 0x705 JUMP JUMPDEST POP PUSH1 0x0 PUSH1 0x1 DUP1 SLOAD SWAP1 POP GT ISZERO PUSH2 0x911 JUMPI PUSH1 0x1 SWAP3 POP JUMPDEST POP SWAP2 POP SWAP2 JUMP JUMPDEST PUSH1 0x0 JUMPDEST PUSH1 0x0 DUP1 SLOAD SWAP1 POP DUP2 LT ISZERO PUSH2 0xAD8 JUMPI DUP3 PUSH1 0x40 MLOAD PUSH1 0x20 ADD PUSH2 0x938 SWAP2 SWAP1 PUSH2 0x1D8F JUMP JUMPDEST PUSH1 0x40 MLOAD PUSH1 0x20 DUP2 DUP4 SUB SUB DUP2 MSTORE SWAP1 PUSH1 0x40 MSTORE DUP1 MLOAD SWAP1 PUSH1 0x20 ADD KECCAK256 PUSH1 0x0 DUP3 DUP2 SLOAD DUP2 LT PUSH2 0x962 JUMPI PUSH2 0x961 PUSH2 0x19CF JUMP JUMPDEST JUMPDEST SWAP1 PUSH1 0x0 MSTORE PUSH1 0x20 PUSH1 0x0 KECCAK256 SWAP1 PUSH1 0x9 MUL ADD PUSH1 0x0 ADD PUSH1 0x40 MLOAD PUSH1 0x20 ADD PUSH2 0x983 SWAP2 SWAP1 PUSH2 0x1E29 JUMP JUMPDEST PUSH1 0x40 MLOAD PUSH1 0x20 DUP2 DUP4 SUB SUB DUP2 MSTORE SWAP1 PUSH1 0x40 MSTORE DUP1 MLOAD SWAP1 PUSH1 0x20 ADD KECCAK256 SUB PUSH2 0xAC5 JUMPI PUSH1 0x0 DUP2 DUP2 SLOAD DUP2 LT PUSH2 0x9B2 JUMPI PUSH2 0x9B1 PUSH2 0x19CF JUMP JUMPDEST JUMPDEST SWAP1 PUSH1 0x0 MSTORE PUSH1 0x20 PUSH1 0x0 KECCAK256 SWAP1 PUSH1 0x9 MUL ADD PUSH1 0x6 ADD DUP3 SWAP1 DUP1 PUSH1 0x1 DUP2 SLOAD ADD DUP1 DUP3 SSTORE DUP1 SWAP2 POP POP PUSH1 0x1 SWAP1 SUB SWAP1 PUSH1 0x0 MSTORE PUSH1 0x20 PUSH1 0x0 KECCAK256 ADD PUSH1 0x0 SWAP1 SWAP2 SWAP1 SWAP2 SWAP1 SWAP2 POP SWAP1 DUP2 PUSH2 0x9F5 SWAP2 SWAP1 PUSH2 0x1C0A JUMP JUMPDEST POP PUSH1 0x0 DUP2 DUP2 SLOAD DUP2 LT PUSH2 0xA0A JUMPI PUSH2 0xA09 PUSH2 0x19CF JUMP JUMPDEST JUMPDEST SWAP1 PUSH1 0x0 MSTORE PUSH1 0x20 PUSH1 0x0 KECCAK256 SWAP1 PUSH1 0x9 MUL ADD PUSH1 0x7 ADD CALLER SWAP1 DUP1 PUSH1 0x1 DUP2 SLOAD ADD DUP1 DUP3 SSTORE DUP1 SWAP2 POP POP PUSH1 0x1 SWAP1 SUB SWAP1 PUSH1 0x0 MSTORE PUSH1 0x20 PUSH1 0x0 KECCAK256 ADD PUSH1 0x0 SWAP1 SWAP2 SWAP1 SWAP2 SWAP1 SWAP2 PUSH2 0x100 EXP DUP2 SLOAD DUP2 PUSH20 0xFFFFFFFFFFFFFFFFFFFFFFFFFFFFFFFFFFFFFFFF MUL NOT AND SWAP1 DUP4 PUSH20 0xFFFFFFFFFFFFFFFFFFFFFFFFFFFFFFFFFFFFFFFF AND MUL OR SWAP1 SSTORE POP CALLER PUSH20 0xFFFFFFFFFFFFFFFFFFFFFFFFFFFFFFFFFFFFFFFF AND PUSH32 0x99CC064944E6569611B439843932FA853D46618D78CA5A8E3989BCC5614853D PUSH1 0x40 MLOAD PUSH1 0x40 MLOAD DUP1 SWAP2 SUB SWAP1 LOG2 POP PUSH2 0xADA JUMP JUMPDEST DUP1 DUP1 PUSH2 0xAD0 SWAP1 PUSH2 0x1D0B JUMP JUMPDEST SWAP2 POP POP PUSH2 0x91A JUMP JUMPDEST POP JUMPDEST POP POP JUMP JUMPDEST PUSH1 0x0 PUSH32 0x0 SWAP1 POP SWAP1 JUMP JUMPDEST PUSH1 0x0 DUP1 DUP4 DUP2 SLOAD DUP2 LT PUSH2 0xB1B JUMPI PUSH2 0xB1A PUSH2 0x19CF JUMP JUMPDEST JUMPDEST SWAP1 PUSH1 0x0 MSTORE PUSH1 0x20 PUSH1 0x0 KECCAK256 SWAP1 PUSH1 0x9 MUL ADD PUSH1 0x7 ADD DUP3 DUP2 SLOAD DUP2 LT PUSH2 0xB3E JUMPI PUSH2 0xB3D PUSH2 0x19CF JUMP JUMPDEST JUMPDEST SWAP1 PUSH1 0x0 MSTORE PUSH1 0x20 PUSH1 0x0 KECCAK256 ADD PUSH1 0x0 SWAP1 SLOAD SWAP1 PUSH2 0x100 EXP SWAP1 DIV PUSH20 0xFFFFFFFFFFFFFFFFFFFFFFFFFFFFFFFFFFFFFFFF AND SWAP1 POP SWAP3 SWAP2 POP POP JUMP JUMPDEST PUSH1 0x60 PUSH1 0x0 DUP4 DUP2 SLOAD DUP2 LT PUSH2 0xB87 JUMPI PUSH2 0xB86 PUSH2 0x19CF JUMP JUMPDEST JUMPDEST SWAP1 PUSH1 0x0 MSTORE PUSH1 0x20 PUSH1 0x0 KECCAK256 SWAP1 PUSH1 0x9 MUL ADD PUSH1 0x6 ADD DUP3 DUP2 SLOAD DUP2 LT PUSH2 0xBAA JUMPI PUSH2 0xBA9 PUSH2 0x19CF JUMP JUMPDEST JUMPDEST SWAP1 PUSH1 0x0 MSTORE PUSH1 0x20 PUSH1 0x0 KECCAK256 ADD DUP1 SLOAD PUSH2 0xBBF SWAP1 PUSH2 0x1A2D JUMP JUMPDEST DUP1 PUSH1 0x1F ADD PUSH1 0x20 DUP1 SWAP2 DIV MUL PUSH1 0x20 ADD PUSH1 0x40 MLOAD SWAP1 DUP2 ADD PUSH1 0x40 MSTORE DUP1 SWAP3 SWAP2 SWAP1 DUP2 DUP2 MSTORE PUSH1 0x20 ADD DUP3 DUP1 SLOAD PUSH2 0xBEB SWAP1 PUSH2 0x1A2D JUMP JUMPDEST DUP1 ISZERO PUSH2 0xC38 JUMPI DUP1 PUSH1 0x1F LT PUSH2 0xC0D JUMPI PUSH2 0x100 DUP1 DUP4 SLOAD DIV MUL DUP4 MSTORE SWAP2 PUSH1 0x20 ADD SWAP2 PUSH2 0xC38 JUMP JUMPDEST DUP3 ADD SWAP2 SWAP1 PUSH1 0x0 MSTORE PUSH1 0x20 PUSH1 0x0 KECCAK256 SWAP1 JUMPDEST DUP2 SLOAD DUP2 MSTORE SWAP1 PUSH1 0x1 ADD SWAP1 PUSH1 0x20 ADD DUP1 DUP4 GT PUSH2 0xC1B JUMPI DUP3 SWAP1 SUB PUSH1 0x1F AND DUP3 ADD SWAP2 JUMPDEST POP POP POP POP POP SWAP1 POP SWAP3 SWAP2 POP POP JUMP JUMPDEST PUSH32 0x0 CALLVALUE LT ISZERO PUSH2 0xC9F JUMPI PUSH1 0x40 MLOAD PUSH32 0xC09BB52500000000000000000000000000000000000000000000000000000000 DUP2 MSTORE PUSH1 0x4 ADD PUSH1 0x40 MLOAD DUP1 SWAP2 SUB SWAP1 REVERT JUMPDEST PUSH2 0xCA7 PUSH2 0x118D JUMP JUMPDEST DUP5 DUP2 PUSH1 0x0 ADD DUP2 SWAP1 MSTORE POP DUP4 DUP2 PUSH1 0x20 ADD DUP2 SWAP1 MSTORE POP CALLER DUP2 PUSH1 0x40 ADD SWAP1 PUSH20 0xFFFFFFFFFFFFFFFFFFFFFFFFFFFFFFFFFFFFFFFF AND SWAP1 DUP2 PUSH20 0xFFFFFFFFFFFFFFFFFFFFFFFFFFFFFFFFFFFFFFFF AND DUP2 MSTORE POP POP DUP3 DUP2 PUSH1 0x60 ADD DUP2 DUP2 MSTORE POP POP DUP2 DUP2 PUSH1 0x80 ADD DUP2 DUP2 MSTORE POP POP PUSH1 0x0 DUP2 PUSH2 0x100 ADD SWAP1 PUSH1 0x2 DUP2 GT ISZERO PUSH2 0xD1F JUMPI PUSH2 0xD1E PUSH2 0x193D JUMP JUMPDEST JUMPDEST SWAP1 DUP2 PUSH1 0x2 DUP2 GT ISZERO PUSH2 0xD33 JUMPI PUSH2 0xD32 PUSH2 0x193D JUMP JUMPDEST JUMPDEST DUP2 MSTORE POP POP PUSH1 0x0 DUP2 SWAP1 DUP1 PUSH1 0x1 DUP2 SLOAD ADD DUP1 DUP3 SSTORE DUP1 SWAP2 POP POP PUSH1 0x1 SWAP1 SUB SWAP1 PUSH1 0x0 MSTORE PUSH1 0x20 PUSH1 0x0 KECCAK256 SWAP1 PUSH1 0x9 MUL ADD PUSH1 0x0 SWAP1 SWAP2 SWAP1 SWAP2 SWAP1 SWAP2 POP PUSH1 0x0 DUP3 ADD MLOAD DUP2 PUSH1 0x0 ADD SWAP1 DUP2 PUSH2 0xD78 SWAP2 SWAP1 PUSH2 0x1C0A JUMP JUMPDEST POP PUSH1 0x20 DUP3 ADD MLOAD DUP2 PUSH1 0x1 ADD SWAP1 DUP2 PUSH2 0xD8E SWAP2 SWAP1 PUSH2 0x1C0A JUMP JUMPDEST POP PUSH1 0x40 DUP3 ADD MLOAD DUP2 PUSH1 0x2 ADD PUSH1 0x0 PUSH2 0x100 EXP DUP2 SLOAD DUP2 PUSH20 0xFFFFFFFFFFFFFFFFFFFFFFFFFFFFFFFFFFFFFFFF MUL NOT AND SWAP1 DUP4 PUSH20 0xFFFFFFFFFFFFFFFFFFFFFFFFFFFFFFFFFFFFFFFF AND MUL OR SWAP1 SSTORE POP PUSH1 0x60 DUP3 ADD MLOAD DUP2 PUSH1 0x3 ADD SSTORE PUSH1 0x80 DUP3 ADD MLOAD DUP2 PUSH1 0x4 ADD SSTORE PUSH1 0xA0 DUP3 ADD MLOAD DUP2 PUSH1 0x5 ADD SSTORE PUSH1 0xC0 DUP3 ADD MLOAD DUP2 PUSH1 0x6 ADD SWAP1 DUP1 MLOAD SWAP1 PUSH1 0x20 ADD SWAP1 PUSH2 0xE10 SWAP3 SWAP2 SWAP1 PUSH2 0x10AA JUMP JUMPDEST POP PUSH1 0xE0 DUP3 ADD MLOAD DUP2 PUSH1 0x7 ADD SWAP1 DUP1 MLOAD SWAP1 PUSH1 0x20 ADD SWAP1 PUSH2 0xE2D SWAP3 SWAP2 SWAP1 PUSH2 0x1103 JUMP JUMPDEST POP PUSH2 0x100 DUP3 ADD MLOAD DUP2 PUSH1 0x8 ADD PUSH1 0x0 PUSH2 0x100 EXP DUP2 SLOAD DUP2 PUSH1 0xFF MUL NOT AND SWAP1 DUP4 PUSH1 0x2 DUP2 GT ISZERO PUSH2 0xE5A JUMPI PUSH2 0xE59 PUSH2 0x193D JUMP JUMPDEST JUMPDEST MUL OR SWAP1 SSTORE POP POP POP DUP5 PUSH1 0x40 MLOAD PUSH2 0xE6F SWAP2 SWAP1 PUSH2 0x1D8F JUMP JUMPDEST PUSH1 0x40 MLOAD DUP1 SWAP2 SUB SWAP1 KECCAK256 PUSH32 0xCC65C6FB1D804BA1DC418F9E3659483D310357279F035D45B8EA484FD6FE4A2F PUSH1 0x40 MLOAD PUSH1 0x40 MLOAD DUP1 SWAP2 SUB SWAP1 LOG2 POP POP POP POP POP JUMP JUMPDEST PUSH1 0x0 DUP1 PUSH1 0x0 JUMPDEST PUSH1 0x0 DUP1 SLOAD SWAP1 POP DUP2 LT ISZERO PUSH2 0xF7D JUMPI DUP4 PUSH1 0x40 MLOAD PUSH1 0x20 ADD PUSH2 0xECE SWAP2 SWAP1 PUSH2 0x1D8F JUMP JUMPDEST PUSH1 0x40 MLOAD PUSH1 0x20 DUP2 DUP4 SUB SUB DUP2 MSTORE SWAP1 PUSH1 0x40 MSTORE DUP1 MLOAD SWAP1 PUSH1 0x20 ADD KECCAK256 PUSH1 0x0 DUP3 DUP2 SLOAD DUP2 LT PUSH2 0xEF8 JUMPI PUSH2 0xEF7 PUSH2 0x19CF JUMP JUMPDEST JUMPDEST SWAP1 PUSH1 0x0 MSTORE PUSH1 0x20 PUSH1 0x0 KECCAK256 SWAP1 PUSH1 0x9 MUL ADD PUSH1 0x0 ADD PUSH1 0x40 MLOAD PUSH1 0x20 ADD PUSH2 0xF19 SWAP2 SWAP1 PUSH2 0x1E29 JUMP JUMPDEST PUSH1 0x40 MLOAD PUSH1 0x20 DUP2 DUP4 SUB SUB DUP2 MSTORE SWAP1 PUSH1 0x40 MSTORE DUP1 MLOAD SWAP1 PUSH1 0x20 ADD KECCAK256 SUB PUSH2 0xF6A JUMPI PUSH1 0x0 DUP2 DUP2 SLOAD DUP2 LT PUSH2 0xF48 JUMPI PUSH2 0xF47 PUSH2 0x19CF JUMP JUMPDEST JUMPDEST SWAP1 PUSH1 0x0 MSTORE PUSH1 0x20 PUSH1 0x0 KECCAK256 SWAP1 PUSH1 0x9 MUL ADD PUSH1 0x8 ADD PUSH1 0x0 SWAP1 SLOAD SWAP1 PUSH2 0x100 EXP SWAP1 DIV PUSH1 0xFF AND SWAP2 POP JUMPDEST DUP1 DUP1 PUSH2 0xF75 SWAP1 PUSH2 0x1D0B JUMP JUMPDEST SWAP2 POP POP PUSH2 0xEB0 JUMP JUMPDEST POP DUP1 SWAP2 POP POP SWAP2 SWAP1 POP JUMP JUMPDEST PUSH1 0x0 PUSH32 0x0 SWAP1 POP SWAP1 JUMP JUMPDEST PUSH1 0x60 PUSH1 0x0 DUP1 SLOAD SWAP1 POP DUP3 LT ISZERO PUSH2 0x1073 JUMPI PUSH1 0x0 DUP3 DUP2 SLOAD DUP2 LT PUSH2 0xFD2 JUMPI PUSH2 0xFD1 PUSH2 0x19CF JUMP JUMPDEST JUMPDEST SWAP1 PUSH1 0x0 MSTORE PUSH1 0x20 PUSH1 0x0 KECCAK256 SWAP1 PUSH1 0x9 MUL ADD PUSH1 0x0 ADD DUP1 SLOAD PUSH2 0xFEE SWAP1 PUSH2 0x1A2D JUMP JUMPDEST DUP1 PUSH1 0x1F ADD PUSH1 0x20 DUP1 SWAP2 DIV MUL PUSH1 0x20 ADD PUSH1 0x40 MLOAD SWAP1 DUP2 ADD PUSH1 0x40 MSTORE DUP1 SWAP3 SWAP2 SWAP1 DUP2 DUP2 MSTORE PUSH1 0x20 ADD DUP3 DUP1 SLOAD PUSH2 0x101A SWAP1 PUSH2 0x1A2D JUMP JUMPDEST DUP1 ISZERO PUSH2 0x1067 JUMPI DUP1 PUSH1 0x1F LT PUSH2 0x103C JUMPI PUSH2 0x100 DUP1 DUP4 SLOAD DIV MUL DUP4 MSTORE SWAP2 PUSH1 0x20 ADD SWAP2 PUSH2 0x1067 JUMP JUMPDEST DUP3 ADD SWAP2 SWAP1 PUSH1 0x0 MSTORE PUSH1 0x20 PUSH1 0x0 KECCAK256 SWAP1 JUMPDEST DUP2 SLOAD DUP2 MSTORE SWAP1 PUSH1 0x1 ADD SWAP1 PUSH1 0x20 ADD DUP1 DUP4 GT PUSH2 0x104A JUMPI DUP3 SWAP1 SUB PUSH1 0x1F AND DUP3 ADD SWAP2 JUMPDEST POP POP POP POP POP SWAP1 POP PUSH2 0x10A5 JUMP JUMPDEST PUSH1 0x40 MLOAD PUSH32 0xB01E933700000000000000000000000000000000000000000000000000000000 DUP2 MSTORE PUSH1 0x4 ADD PUSH1 0x40 MLOAD DUP1 SWAP2 SUB SWAP1 REVERT JUMPDEST SWAP2 SWAP1 POP JUMP JUMPDEST DUP3 DUP1 SLOAD DUP3 DUP3 SSTORE SWAP1 PUSH1 0x0 MSTORE PUSH1 0x20 PUSH1 0x0 KECCAK256 SWAP1 DUP2 ADD SWAP3 DUP3 ISZERO PUSH2 0x10F2 JUMPI SWAP2 PUSH1 0x20 MUL DUP3 ADD JUMPDEST DUP3 DUP2 GT ISZERO PUSH2 0x10F1 JUMPI DUP3 MLOAD DUP3 SWAP1 DUP2 PUSH2 0x10E1 SWAP2 SWAP1 PUSH2 0x1C0A JUMP JUMPDEST POP SWAP2 PUSH1 0x20 ADD SWAP2 SWAP1 PUSH1 0x1 ADD SWAP1 PUSH2 0x10CA JUMP JUMPDEST JUMPDEST POP SWAP1 POP PUSH2 0x10FF SWAP2 SWAP1 PUSH2 0x1201 JUMP JUMPDEST POP SWAP1 JUMP JUMPDEST DUP3 DUP1 SLOAD DUP3 DUP3 SSTORE SWAP1 PUSH1 0x0 MSTORE PUSH1 0x20 PUSH1 0x0 KECCAK256 SWAP1 DUP2 ADD SWAP3 DUP3 ISZERO PUSH2 0x117C JUMPI SWAP2 PUSH1 0x20 MUL DUP3 ADD JUMPDEST DUP3 DUP2 GT ISZERO PUSH2 0x117B JUMPI DUP3 MLOAD DUP3 PUSH1 0x0 PUSH2 0x100 EXP DUP2 SLOAD DUP2 PUSH20 0xFFFFFFFFFFFFFFFFFFFFFFFFFFFFFFFFFFFFFFFF MUL NOT AND SWAP1 DUP4 PUSH20 0xFFFFFFFFFFFFFFFFFFFFFFFFFFFFFFFFFFFFFFFF AND MUL OR SWAP1 SSTORE POP SWAP2 PUSH1 0x20 ADD SWAP2 SWAP1 PUSH1 0x1 ADD SWAP1 PUSH2 0x1123 JUMP JUMPDEST JUMPDEST POP SWAP1 POP PUSH2 0x1189 SWAP2 SWAP1 PUSH2 0x1225 JUMP JUMPDEST POP SWAP1 JUMP JUMPDEST PUSH1 0x40 MLOAD DUP1 PUSH2 0x120 ADD PUSH1 0x40 MSTORE DUP1 PUSH1 0x60 DUP2 MSTORE PUSH1 0x20 ADD PUSH1 0x60 DUP2 MSTORE PUSH1 0x20 ADD PUSH1 0x0 PUSH20 0xFFFFFFFFFFFFFFFFFFFFFFFFFFFFFFFFFFFFFFFF AND DUP2 MSTORE PUSH1 0x20 ADD PUSH1 0x0 DUP2 MSTORE PUSH1 0x20 ADD PUSH1 0x0 DUP2 MSTORE PUSH1 0x20 ADD PUSH1 0x0 DUP2 MSTORE PUSH1 0x20 ADD PUSH1 0x60 DUP2 MSTORE PUSH1 0x20 ADD PUSH1 0x60 DUP2 MSTORE PUSH1 0x20 ADD PUSH1 0x0 PUSH1 0x2 DUP2 GT ISZERO PUSH2 0x11FB JUMPI PUSH2 0x11FA PUSH2 0x193D JUMP JUMPDEST JUMPDEST DUP2 MSTORE POP SWAP1 JUMP JUMPDEST JUMPDEST DUP1 DUP3 GT ISZERO PUSH2 0x1221 JUMPI PUSH1 0x0 DUP2 DUP2 PUSH2 0x1218 SWAP2 SWAP1 PUSH2 0x1242 JUMP JUMPDEST POP PUSH1 0x1 ADD PUSH2 0x1202 JUMP JUMPDEST POP SWAP1 JUMP JUMPDEST JUMPDEST DUP1 DUP3 GT ISZERO PUSH2 0x123E JUMPI PUSH1 0x0 DUP2 PUSH1 0x0 SWAP1 SSTORE POP PUSH1 0x1 ADD PUSH2 0x1226 JUMP JUMPDEST POP SWAP1 JUMP JUMPDEST POP DUP1 SLOAD PUSH2 0x124E SWAP1 PUSH2 0x1A2D JUMP JUMPDEST PUSH1 0x0 DUP3 SSTORE DUP1 PUSH1 0x1F LT PUSH2 0x1260 JUMPI POP PUSH2 0x127F JUMP JUMPDEST PUSH1 0x1F ADD PUSH1 0x20 SWAP1 DIV SWAP1 PUSH1 0x0 MSTORE PUSH1 0x20 PUSH1 0x0 KECCAK256 SWAP1 DUP2 ADD SWAP1 PUSH2 0x127E SWAP2 SWAP1 PUSH2 0x1225 JUMP JUMPDEST JUMPDEST POP JUMP JUMPDEST PUSH1 0x0 PUSH1 0x40 MLOAD SWAP1 POP SWAP1 JUMP JUMPDEST PUSH1 0x0 DUP1 REVERT JUMPDEST PUSH1 0x0 DUP1 REVERT JUMPDEST PUSH1 0x0 DUP2 SWAP1 POP SWAP2 SWAP1 POP JUMP JUMPDEST PUSH2 0x12A9 DUP2 PUSH2 0x1296 JUMP JUMPDEST DUP2 EQ PUSH2 0x12B4 JUMPI PUSH1 0x0 DUP1 REVERT JUMPDEST POP JUMP JUMPDEST PUSH1 0x0 DUP2 CALLDATALOAD SWAP1 POP PUSH2 0x12C6 DUP2 PUSH2 0x12A0 JUMP JUMPDEST SWAP3 SWAP2 POP POP JUMP JUMPDEST PUSH1 0x0 PUSH1 0x20 DUP3 DUP5 SUB SLT ISZERO PUSH2 0x12E2 JUMPI PUSH2 0x12E1 PUSH2 0x128C JUMP JUMPDEST JUMPDEST PUSH1 0x0 PUSH2 0x12F0 DUP5 DUP3 DUP6 ADD PUSH2 0x12B7 JUMP JUMPDEST SWAP2 POP POP SWAP3 SWAP2 POP POP JUMP JUMPDEST PUSH2 0x1302 DUP2 PUSH2 0x1296 JUMP JUMPDEST DUP3 MSTORE POP POP JUMP JUMPDEST PUSH1 0x0 PUSH1 0x20 DUP3 ADD SWAP1 POP PUSH2 0x131D PUSH1 0x0 DUP4 ADD DUP5 PUSH2 0x12F9 JUMP JUMPDEST SWAP3 SWAP2 POP POP JUMP JUMPDEST PUSH1 0x0 DUP1 REVERT JUMPDEST PUSH1 0x0 DUP1 REVERT JUMPDEST PUSH1 0x0 DUP1 REVERT JUMPDEST PUSH1 0x0 DUP1 DUP4 PUSH1 0x1F DUP5 ADD SLT PUSH2 0x1348 JUMPI PUSH2 0x1347 PUSH2 0x1323 JUMP JUMPDEST JUMPDEST DUP3 CALLDATALOAD SWAP1 POP PUSH8 0xFFFFFFFFFFFFFFFF DUP2 GT ISZERO PUSH2 0x1365 JUMPI PUSH2 0x1364 PUSH2 0x1328 JUMP JUMPDEST JUMPDEST PUSH1 0x20 DUP4 ADD SWAP2 POP DUP4 PUSH1 0x1 DUP3 MUL DUP4 ADD GT ISZERO PUSH2 0x1381 JUMPI PUSH2 0x1380 PUSH2 0x132D JUMP JUMPDEST JUMPDEST SWAP3 POP SWAP3 SWAP1 POP JUMP JUMPDEST PUSH1 0x0 DUP1 PUSH1 0x20 DUP4 DUP6 SUB SLT ISZERO PUSH2 0x139F JUMPI PUSH2 0x139E PUSH2 0x128C JUMP JUMPDEST JUMPDEST PUSH1 0x0 DUP4 ADD CALLDATALOAD PUSH8 0xFFFFFFFFFFFFFFFF DUP2 GT ISZERO PUSH2 0x13BD JUMPI PUSH2 0x13BC PUSH2 0x1291 JUMP JUMPDEST JUMPDEST PUSH2 0x13C9 DUP6 DUP3 DUP7 ADD PUSH2 0x1332 JUMP JUMPDEST SWAP3 POP SWAP3 POP POP SWAP3 POP SWAP3 SWAP1 POP JUMP JUMPDEST PUSH1 0x0 DUP1 REVERT JUMPDEST PUSH1 0x0 PUSH1 0x1F NOT PUSH1 0x1F DUP4 ADD AND SWAP1 POP SWAP2 SWAP1 POP JUMP JUMPDEST PUSH32 0x4E487B7100000000000000000000000000000000000000000000000000000000 PUSH1 0x0 MSTORE PUSH1 0x41 PUSH1 0x4 MSTORE PUSH1 0x24 PUSH1 0x0 REVERT JUMPDEST PUSH2 0x1423 DUP3 PUSH2 0x13DA JUMP JUMPDEST DUP2 ADD DUP2 DUP2 LT PUSH8 0xFFFFFFFFFFFFFFFF DUP3 GT OR ISZERO PUSH2 0x1442 JUMPI PUSH2 0x1441 PUSH2 0x13EB JUMP JUMPDEST JUMPDEST DUP1 PUSH1 0x40 MSTORE POP POP POP JUMP JUMPDEST PUSH1 0x0 PUSH2 0x1455 PUSH2 0x1282 JUMP JUMPDEST SWAP1 POP PUSH2 0x1461 DUP3 DUP3 PUSH2 0x141A JUMP JUMPDEST SWAP2 SWAP1 POP JUMP JUMPDEST PUSH1 0x0 PUSH8 0xFFFFFFFFFFFFFFFF DUP3 GT ISZERO PUSH2 0x1481 JUMPI PUSH2 0x1480 PUSH2 0x13EB JUMP JUMPDEST JUMPDEST PUSH2 0x148A DUP3 PUSH2 0x13DA JUMP JUMPDEST SWAP1 POP PUSH1 0x20 DUP2 ADD SWAP1 POP SWAP2 SWAP1 POP JUMP JUMPDEST DUP3 DUP2 DUP4 CALLDATACOPY PUSH1 0x0 DUP4 DUP4 ADD MSTORE POP POP POP JUMP JUMPDEST PUSH1 0x0 PUSH2 0x14B9 PUSH2 0x14B4 DUP5 PUSH2 0x1466 JUMP JUMPDEST PUSH2 0x144B JUMP JUMPDEST SWAP1 POP DUP3 DUP2 MSTORE PUSH1 0x20 DUP2 ADD DUP5 DUP5 DUP5 ADD GT ISZERO PUSH2 0x14D5 JUMPI PUSH2 0x14D4 PUSH2 0x13D5 JUMP JUMPDEST JUMPDEST PUSH2 0x14E0 DUP5 DUP3 DUP6 PUSH2 0x1497 JUMP JUMPDEST POP SWAP4 SWAP3 POP POP POP JUMP JUMPDEST PUSH1 0x0 DUP3 PUSH1 0x1F DUP4 ADD SLT PUSH2 0x14FD JUMPI PUSH2 0x14FC PUSH2 0x1323 JUMP JUMPDEST JUMPDEST DUP2 CALLDATALOAD PUSH2 0x150D DUP5 DUP3 PUSH1 0x20 DUP7 ADD PUSH2 0x14A6 JUMP JUMPDEST SWAP2 POP POP SWAP3 SWAP2 POP POP JUMP JUMPDEST PUSH1 0x0 PUSH1 0x20 DUP3 DUP5 SUB SLT ISZERO PUSH2 0x152C JUMPI PUSH2 0x152B PUSH2 0x128C JUMP JUMPDEST JUMPDEST PUSH1 0x0 DUP3 ADD CALLDATALOAD PUSH8 0xFFFFFFFFFFFFFFFF DUP2 GT ISZERO PUSH2 0x154A JUMPI PUSH2 0x1549 PUSH2 0x1291 JUMP JUMPDEST JUMPDEST PUSH2 0x1556 DUP5 DUP3 DUP6 ADD PUSH2 0x14E8 JUMP JUMPDEST SWAP2 POP POP SWAP3 SWAP2 POP POP JUMP JUMPDEST PUSH1 0x0 DUP2 ISZERO ISZERO SWAP1 POP SWAP2 SWAP1 POP JUMP JUMPDEST PUSH2 0x1574 DUP2 PUSH2 0x155F JUMP JUMPDEST DUP3 MSTORE POP POP JUMP JUMPDEST PUSH1 0x0 DUP2 MLOAD SWAP1 POP SWAP2 SWAP1 POP JUMP JUMPDEST PUSH1 0x0 DUP3 DUP3 MSTORE PUSH1 0x20 DUP3 ADD SWAP1 POP SWAP3 SWAP2 POP POP JUMP JUMPDEST PUSH1 0x0 JUMPDEST DUP4 DUP2 LT ISZERO PUSH2 0x15B4 JUMPI DUP1 DUP3 ADD MLOAD DUP2 DUP5 ADD MSTORE PUSH1 0x20 DUP2 ADD SWAP1 POP PUSH2 0x1599 JUMP JUMPDEST PUSH1 0x0 DUP5 DUP5 ADD MSTORE POP POP POP POP JUMP JUMPDEST PUSH1 0x0 PUSH2 0x15CB DUP3 PUSH2 0x157A JUMP JUMPDEST PUSH2 0x15D5 DUP2 DUP6 PUSH2 0x1585 JUMP JUMPDEST SWAP4 POP PUSH2 0x15E5 DUP2 DUP6 PUSH1 0x20 DUP7 ADD PUSH2 0x1596 JUMP JUMPDEST PUSH2 0x15EE DUP2 PUSH2 0x13DA JUMP JUMPDEST DUP5 ADD SWAP2 POP POP SWAP3 SWAP2 POP POP JUMP JUMPDEST PUSH1 0x0 PUSH1 0x40 DUP3 ADD SWAP1 POP PUSH2 0x160E PUSH1 0x0 DUP4 ADD DUP6 PUSH2 0x156B JUMP JUMPDEST DUP2 DUP2 SUB PUSH1 0x20 DUP4 ADD MSTORE PUSH2 0x1620 DUP2 DUP5 PUSH2 0x15C0 JUMP JUMPDEST SWAP1 POP SWAP4 SWAP3 POP POP POP JUMP JUMPDEST PUSH1 0x0 PUSH8 0xFFFFFFFFFFFFFFFF DUP3 GT ISZERO PUSH2 0x1644 JUMPI PUSH2 0x1643 PUSH2 0x13EB JUMP JUMPDEST JUMPDEST PUSH2 0x164D DUP3 PUSH2 0x13DA JUMP JUMPDEST SWAP1 POP PUSH1 0x20 DUP2 ADD SWAP1 POP SWAP2 SWAP1 POP JUMP JUMPDEST PUSH1 0x0 PUSH2 0x166D PUSH2 0x1668 DUP5 PUSH2 0x1629 JUMP JUMPDEST PUSH2 0x144B JUMP JUMPDEST SWAP1 POP DUP3 DUP2 MSTORE PUSH1 0x20 DUP2 ADD DUP5 DUP5 DUP5 ADD GT ISZERO PUSH2 0x1689 JUMPI PUSH2 0x1688 PUSH2 0x13D5 JUMP JUMPDEST JUMPDEST PUSH2 0x1694 DUP5 DUP3 DUP6 PUSH2 0x1497 JUMP JUMPDEST POP SWAP4 SWAP3 POP POP POP JUMP JUMPDEST PUSH1 0x0 DUP3 PUSH1 0x1F DUP4 ADD SLT PUSH2 0x16B1 JUMPI PUSH2 0x16B0 PUSH2 0x1323 JUMP JUMPDEST JUMPDEST DUP2 CALLDATALOAD PUSH2 0x16C1 DUP5 DUP3 PUSH1 0x20 DUP7 ADD PUSH2 0x165A JUMP JUMPDEST SWAP2 POP POP SWAP3 SWAP2 POP POP JUMP JUMPDEST PUSH1 0x0 DUP1 PUSH1 0x40 DUP4 DUP6 SUB SLT ISZERO PUSH2 0x16E1 JUMPI PUSH2 0x16E0 PUSH2 0x128C JUMP JUMPDEST JUMPDEST PUSH1 0x0 DUP4 ADD CALLDATALOAD PUSH8 0xFFFFFFFFFFFFFFFF DUP2 GT ISZERO PUSH2 0x16FF JUMPI PUSH2 0x16FE PUSH2 0x1291 JUMP JUMPDEST JUMPDEST PUSH2 0x170B DUP6 DUP3 DUP7 ADD PUSH2 0x169C JUMP JUMPDEST SWAP3 POP POP PUSH1 0x20 DUP4 ADD CALLDATALOAD PUSH8 0xFFFFFFFFFFFFFFFF DUP2 GT ISZERO PUSH2 0x172C JUMPI PUSH2 0x172B PUSH2 0x1291 JUMP JUMPDEST JUMPDEST PUSH2 0x1738 DUP6 DUP3 DUP7 ADD PUSH2 0x169C JUMP JUMPDEST SWAP2 POP POP SWAP3 POP SWAP3 SWAP1 POP JUMP JUMPDEST PUSH1 0x0 DUP1 PUSH1 0x40 DUP4 DUP6 SUB SLT ISZERO PUSH2 0x1759 JUMPI PUSH2 0x1758 PUSH2 0x128C JUMP JUMPDEST JUMPDEST PUSH1 0x0 PUSH2 0x1767 DUP6 DUP3 DUP7 ADD PUSH2 0x12B7 JUMP JUMPDEST SWAP3 POP POP PUSH1 0x20 PUSH2 0x1778 DUP6 DUP3 DUP7 ADD PUSH2 0x12B7 JUMP JUMPDEST SWAP2 POP POP SWAP3 POP SWAP3 SWAP1 POP JUMP JUMPDEST PUSH1 0x0 PUSH20 0xFFFFFFFFFFFFFFFFFFFFFFFFFFFFFFFFFFFFFFFF DUP3 AND SWAP1 POP SWAP2 SWAP1 POP JUMP JUMPDEST PUSH1 0x0 PUSH2 0x17AD DUP3 PUSH2 0x1782 JUMP JUMPDEST SWAP1 POP SWAP2 SWAP1 POP JUMP JUMPDEST PUSH2 0x17BD DUP2 PUSH2 0x17A2 JUMP JUMPDEST DUP3 MSTORE POP POP JUMP JUMPDEST PUSH1 0x0 PUSH1 0x20 DUP3 ADD SWAP1 POP PUSH2 0x17D8 PUSH1 0x0 DUP4 ADD DUP5 PUSH2 0x17B4 JUMP JUMPDEST SWAP3 SWAP2 POP POP JUMP JUMPDEST PUSH1 0x0 DUP2 MLOAD SWAP1 POP SWAP2 SWAP1 POP JUMP JUMPDEST PUSH1 0x0 DUP3 DUP3 MSTORE PUSH1 0x20 DUP3 ADD SWAP1 POP SWAP3 SWAP2 POP POP JUMP JUMPDEST PUSH1 0x0 PUSH2 0x1805 DUP3 PUSH2 0x17DE JUMP JUMPDEST PUSH2 0x180F DUP2 DUP6 PUSH2 0x17E9 JUMP JUMPDEST SWAP4 POP PUSH2 0x181F DUP2 DUP6 PUSH1 0x20 DUP7 ADD PUSH2 0x1596 JUMP JUMPDEST PUSH2 0x1828 DUP2 PUSH2 0x13DA JUMP JUMPDEST DUP5 ADD SWAP2 POP POP SWAP3 SWAP2 POP POP JUMP JUMPDEST PUSH1 0x0 PUSH1 0x20 DUP3 ADD SWAP1 POP DUP2 DUP2 SUB PUSH1 0x0 DUP4 ADD MSTORE PUSH2 0x184D DUP2 DUP5 PUSH2 0x17FA JUMP JUMPDEST SWAP1 POP SWAP3 SWAP2 POP POP JUMP JUMPDEST PUSH1 0x0 DUP1 PUSH1 0x0 DUP1 PUSH1 0x80 DUP6 DUP8 SUB SLT ISZERO PUSH2 0x186F JUMPI PUSH2 0x186E PUSH2 0x128C JUMP JUMPDEST JUMPDEST PUSH1 0x0 DUP6 ADD CALLDATALOAD PUSH8 0xFFFFFFFFFFFFFFFF DUP2 GT ISZERO PUSH2 0x188D JUMPI PUSH2 0x188C PUSH2 0x1291 JUMP JUMPDEST JUMPDEST PUSH2 0x1899 DUP8 DUP3 DUP9 ADD PUSH2 0x169C JUMP JUMPDEST SWAP5 POP POP PUSH1 0x20 DUP6 ADD CALLDATALOAD PUSH8 0xFFFFFFFFFFFFFFFF DUP2 GT ISZERO PUSH2 0x18BA JUMPI PUSH2 0x18B9 PUSH2 0x1291 JUMP JUMPDEST JUMPDEST PUSH2 0x18C6 DUP8 DUP3 DUP9 ADD PUSH2 0x169C JUMP JUMPDEST SWAP4 POP POP PUSH1 0x40 PUSH2 0x18D7 DUP8 DUP3 DUP9 ADD PUSH2 0x12B7 JUMP JUMPDEST SWAP3 POP POP PUSH1 0x60 PUSH2 0x18E8 DUP8 DUP3 DUP9 ADD PUSH2 0x12B7 JUMP JUMPDEST SWAP2 POP POP SWAP3 SWAP6 SWAP2 SWAP5 POP SWAP3 POP JUMP JUMPDEST PUSH1 0x0 PUSH1 0x20 DUP3 DUP5 SUB SLT ISZERO PUSH2 0x190A JUMPI PUSH2 0x1909 PUSH2 0x128C JUMP JUMPDEST JUMPDEST PUSH1 0x0 DUP3 ADD CALLDATALOAD PUSH8 0xFFFFFFFFFFFFFFFF DUP2 GT ISZERO PUSH2 0x1928 JUMPI PUSH2 0x1927 PUSH2 0x1291 JUMP JUMPDEST JUMPDEST PUSH2 0x1934 DUP5 DUP3 DUP6 ADD PUSH2 0x169C JUMP JUMPDEST SWAP2 POP POP SWAP3 SWAP2 POP POP JUMP JUMPDEST PUSH32 0x4E487B7100000000000000000000000000000000000000000000000000000000 PUSH1 0x0 MSTORE PUSH1 0x21 PUSH1 0x4 MSTORE PUSH1 0x24 PUSH1 0x0 REVERT JUMPDEST PUSH1 0x3 DUP2 LT PUSH2 0x197D JUMPI PUSH2 0x197C PUSH2 0x193D JUMP JUMPDEST JUMPDEST POP JUMP JUMPDEST PUSH1 0x0 DUP2 SWAP1 POP PUSH2 0x198E DUP3 PUSH2 0x196C JUMP JUMPDEST SWAP2 SWAP1 POP JUMP JUMPDEST PUSH1 0x0 PUSH2 0x199E DUP3 PUSH2 0x1980 JUMP JUMPDEST SWAP1 POP SWAP2 SWAP1 POP JUMP JUMPDEST PUSH2 0x19AE DUP2 PUSH2 0x1993 JUMP JUMPDEST DUP3 MSTORE POP POP JUMP JUMPDEST PUSH1 0x0 PUSH1 0x20 DUP3 ADD SWAP1 POP PUSH2 0x19C9 PUSH1 0x0 DUP4 ADD DUP5 PUSH2 0x19A5 JUMP JUMPDEST SWAP3 SWAP2 POP POP JUMP JUMPDEST PUSH32 0x4E487B7100000000000000000000000000000000000000000000000000000000 PUSH1 0x0 MSTORE PUSH1 0x32 PUSH1 0x4 MSTORE PUSH1 0x24 PUSH1 0x0 REVERT JUMPDEST PUSH32 0x4E487B7100000000000000000000000000000000000000000000000000000000 PUSH1 0x0 MSTORE PUSH1 0x22 PUSH1 0x4 MSTORE PUSH1 0x24 PUSH1 0x0 REVERT JUMPDEST PUSH1 0x0 PUSH1 0x2 DUP3 DIV SWAP1 POP PUSH1 0x1 DUP3 AND DUP1 PUSH2 0x1A45 JUMPI PUSH1 0x7F DUP3 AND SWAP2 POP JUMPDEST PUSH1 0x20 DUP3 LT DUP2 SUB PUSH2 0x1A58 JUMPI PUSH2 0x1A57 PUSH2 0x19FE JUMP JUMPDEST JUMPDEST POP SWAP2 SWAP1 POP JUMP JUMPDEST PUSH1 0x0 DUP2 SWAP1 POP DUP2 PUSH1 0x0 MSTORE PUSH1 0x20 PUSH1 0x0 KECCAK256 SWAP1 POP SWAP2 SWAP1 POP JUMP JUMPDEST PUSH1 0x0 PUSH1 0x20 PUSH1 0x1F DUP4 ADD DIV SWAP1 POP SWAP2 SWAP1 POP JUMP JUMPDEST PUSH1 0x0 DUP3 DUP3 SHL SWAP1 POP SWAP3 SWAP2 POP POP JUMP JUMPDEST PUSH1 0x0 PUSH1 0x8 DUP4 MUL PUSH2 0x1AC0 PUSH32 0xFFFFFFFFFFFFFFFFFFFFFFFFFFFFFFFFFFFFFFFFFFFFFFFFFFFFFFFFFFFFFFFF DUP3 PUSH2 0x1A83 JUMP JUMPDEST PUSH2 0x1ACA DUP7 DUP4 PUSH2 0x1A83 JUMP JUMPDEST SWAP6 POP DUP1 NOT DUP5 AND SWAP4 POP DUP1 DUP7 AND DUP5 OR SWAP3 POP POP POP SWAP4 SWAP3 POP POP POP JUMP JUMPDEST PUSH1 0x0 DUP2 SWAP1 POP SWAP2 SWAP1 POP JUMP JUMPDEST PUSH1 0x0 PUSH2 0x1B07 PUSH2 0x1B02 PUSH2 0x1AFD DUP5 PUSH2 0x1296 JUMP JUMPDEST PUSH2 0x1AE2 JUMP JUMPDEST PUSH2 0x1296 JUMP JUMPDEST SWAP1 POP SWAP2 SWAP1 POP JUMP JUMPDEST PUSH1 0x0 DUP2 SWAP1 POP SWAP2 SWAP1 POP JUMP JUMPDEST PUSH2 0x1B21 DUP4 PUSH2 0x1AEC JUMP JUMPDEST PUSH2 0x1B35 PUSH2 0x1B2D DUP3 PUSH2 0x1B0E JUMP JUMPDEST DUP5 DUP5 SLOAD PUSH2 0x1A90 JUMP JUMPDEST DUP3 SSTORE POP POP POP POP JUMP JUMPDEST PUSH1 0x0 SWAP1 JUMP JUMPDEST PUSH2 0x1B4A PUSH2 0x1B3D JUMP JUMPDEST PUSH2 0x1B55 DUP2 DUP5 DUP5 PUSH2 0x1B18 JUMP JUMPDEST POP POP POP JUMP JUMPDEST JUMPDEST DUP2 DUP2 LT ISZERO PUSH2 0x1B79 JUMPI PUSH2 0x1B6E PUSH1 0x0 DUP3 PUSH2 0x1B42 JUMP JUMPDEST PUSH1 0x1 DUP2 ADD SWAP1 POP PUSH2 0x1B5B JUMP JUMPDEST POP POP JUMP JUMPDEST PUSH1 0x1F DUP3 GT ISZERO PUSH2 0x1BBE JUMPI PUSH2 0x1B8F DUP2 PUSH2 0x1A5E JUMP JUMPDEST PUSH2 0x1B98 DUP5 PUSH2 0x1A73 JUMP JUMPDEST DUP2 ADD PUSH1 0x20 DUP6 LT ISZERO PUSH2 0x1BA7 JUMPI DUP2 SWAP1 POP JUMPDEST PUSH2 0x1BBB PUSH2 0x1BB3 DUP6 PUSH2 0x1A73 JUMP JUMPDEST DUP4 ADD DUP3 PUSH2 0x1B5A JUMP JUMPDEST POP POP JUMPDEST POP POP POP JUMP JUMPDEST PUSH1 0x0 DUP3 DUP3 SHR SWAP1 POP SWAP3 SWAP2 POP POP JUMP JUMPDEST PUSH1 0x0 PUSH2 0x1BE1 PUSH1 0x0 NOT DUP5 PUSH1 0x8 MUL PUSH2 0x1BC3 JUMP JUMPDEST NOT DUP1 DUP4 AND SWAP2 POP POP SWAP3 SWAP2 POP POP JUMP JUMPDEST PUSH1 0x0 PUSH2 0x1BFA DUP4 DUP4 PUSH2 0x1BD0 JUMP JUMPDEST SWAP2 POP DUP3 PUSH1 0x2 MUL DUP3 OR SWAP1 POP SWAP3 SWAP2 POP POP JUMP JUMPDEST PUSH2 0x1C13 DUP3 PUSH2 0x17DE JUMP JUMPDEST PUSH8 0xFFFFFFFFFFFFFFFF DUP2 GT ISZERO PUSH2 0x1C2C JUMPI PUSH2 0x1C2B PUSH2 0x13EB JUMP JUMPDEST JUMPDEST PUSH2 0x1C36 DUP3 SLOAD PUSH2 0x1A2D JUMP JUMPDEST PUSH2 0x1C41 DUP3 DUP3 DUP6 PUSH2 0x1B7D JUMP JUMPDEST PUSH1 0x0 PUSH1 0x20 SWAP1 POP PUSH1 0x1F DUP4 GT PUSH1 0x1 DUP2 EQ PUSH2 0x1C74 JUMPI PUSH1 0x0 DUP5 ISZERO PUSH2 0x1C62 JUMPI DUP3 DUP8 ADD MLOAD SWAP1 POP JUMPDEST PUSH2 0x1C6C DUP6 DUP3 PUSH2 0x1BEE JUMP JUMPDEST DUP7 SSTORE POP PUSH2 0x1CD4 JUMP JUMPDEST PUSH1 0x1F NOT DUP5 AND PUSH2 0x1C82 DUP7 PUSH2 0x1A5E JUMP JUMPDEST PUSH1 0x0 JUMPDEST DUP3 DUP2 LT ISZERO PUSH2 0x1CAA JUMPI DUP5 DUP10 ADD MLOAD DUP3 SSTORE PUSH1 0x1 DUP3 ADD SWAP2 POP PUSH1 0x20 DUP6 ADD SWAP5 POP PUSH1 0x20 DUP2 ADD SWAP1 POP PUSH2 0x1C85 JUMP JUMPDEST DUP7 DUP4 LT ISZERO PUSH2 0x1CC7 JUMPI DUP5 DUP10 ADD MLOAD PUSH2 0x1CC3 PUSH1 0x1F DUP10 AND DUP3 PUSH2 0x1BD0 JUMP JUMPDEST DUP4 SSTORE POP JUMPDEST PUSH1 0x1 PUSH1 0x2 DUP9 MUL ADD DUP9 SSTORE POP POP POP JUMPDEST POP POP POP POP POP POP JUMP JUMPDEST PUSH32 0x4E487B7100000000000000000000000000000000000000000000000000000000 PUSH1 0x0 MSTORE PUSH1 0x11 PUSH1 0x4 MSTORE PUSH1 0x24 PUSH1 0x0 REVERT JUMPDEST PUSH1 0x0 PUSH2 0x1D16 DUP3 PUSH2 0x1296 JUMP JUMPDEST SWAP2 POP PUSH32 0xFFFFFFFFFFFFFFFFFFFFFFFFFFFFFFFFFFFFFFFFFFFFFFFFFFFFFFFFFFFFFFFF DUP3 SUB PUSH2 0x1D48 JUMPI PUSH2 0x1D47 PUSH2 0x1CDC JUMP JUMPDEST JUMPDEST PUSH1 0x1 DUP3 ADD SWAP1 POP SWAP2 SWAP1 POP JUMP JUMPDEST PUSH1 0x0 DUP2 SWAP1 POP SWAP3 SWAP2 POP POP JUMP JUMPDEST PUSH1 0x0 PUSH2 0x1D69 DUP3 PUSH2 0x17DE JUMP JUMPDEST PUSH2 0x1D73 DUP2 DUP6 PUSH2 0x1D53 JUMP JUMPDEST SWAP4 POP PUSH2 0x1D83 DUP2 DUP6 PUSH1 0x20 DUP7 ADD PUSH2 0x1596 JUMP JUMPDEST DUP1 DUP5 ADD SWAP2 POP POP SWAP3 SWAP2 POP POP JUMP JUMPDEST PUSH1 0x0 PUSH2 0x1D9B DUP3 DUP5 PUSH2 0x1D5E JUMP JUMPDEST SWAP2 POP DUP2 SWAP1 POP SWAP3 SWAP2 POP POP JUMP JUMPDEST PUSH1 0x0 DUP2 SLOAD PUSH2 0x1DB3 DUP2 PUSH2 0x1A2D JUMP JUMPDEST PUSH2 0x1DBD DUP2 DUP7 PUSH2 0x1D53 JUMP JUMPDEST SWAP5 POP PUSH1 0x1 DUP3 AND PUSH1 0x0 DUP2 EQ PUSH2 0x1DD8 JUMPI PUSH1 0x1 DUP2 EQ PUSH2 0x1DED JUMPI PUSH2 0x1E20 JUMP JUMPDEST PUSH1 0xFF NOT DUP4 AND DUP7 MSTORE DUP2 ISZERO ISZERO DUP3 MUL DUP7 ADD SWAP4 POP PUSH2 0x1E20 JUMP JUMPDEST PUSH2 0x1DF6 DUP6 PUSH2 0x1A5E JUMP JUMPDEST PUSH1 0x0 JUMPDEST DUP4 DUP2 LT ISZERO PUSH2 0x1E18 JUMPI DUP2 SLOAD DUP2 DUP10 ADD MSTORE PUSH1 0x1 DUP3 ADD SWAP2 POP PUSH1 0x20 DUP2 ADD SWAP1 POP PUSH2 0x1DF9 JUMP JUMPDEST DUP4 DUP9 ADD SWAP6 POP POP POP JUMPDEST POP POP POP SWAP3 SWAP2 POP POP JUMP JUMPDEST PUSH1 0x0 PUSH2 0x1E35 DUP3 DUP5 PUSH2 0x1DA6 JUMP JUMPDEST SWAP2 POP DUP2 SWAP1 POP SWAP3 SWAP2 POP POP JUMP INVALID LOG2 PUSH5 0x6970667358 0x22 SLT KECCAK256 PUSH22 0x31C8542A23020C3FC7440037E2FF9AE6CEEC319C357B 0x22 PUSH25 0x49D22AF30A1C7364736F6C6343000811003300000000000000 "},"gasEstimates":{"creation":{"codeDepositCost":"1559600","executionCost":"infinite","totalCost":"infinite"},"external":{"checkUpkeep(bytes)":"infinite","createSurvey(string,string,uint256,uint256)":"infinite","getInterval()":"infinite","getPayoutByIndex(uint256)":"infinite","getSurveyByIndex(uint256)":"infinite","getSurveyCreationFee()":"infinite","getSurveyResponseDataByIndex(uint256,uint256)":"infinite","getSurveyState(string)":"infinite","getSurveyTakerByIndex(uint256,uint256)":"infinite","performUpkeep(bytes)":"infinite","sendUserSurveyData(string,string)":"infinite"},"internal":{"distributeFundsFromCompletedSurvey(string memory)":"infinite"}},"methodIdentifiers":{"checkUpkeep(bytes)":"6e04ff0d","createSurvey(string,string,uint256,uint256)":"ac9d6a2b","getInterval()":"91ad27b4","getPayoutByIndex(uint256)":"2b5f2325","getSurveyByIndex(uint256)":"f3207403","getSurveyCreationFee()":"bab26fd2","getSurveyResponseDataByIndex(uint256,uint256)":"ab279df4","getSurveyState(string)":"b374ff29","getSurveyTakerByIndex(uint256,uint256)":"9f5922a7","performUpkeep(bytes)":"4585e33b","sendUserSurveyData(string,string)":"77b5df8e"}},"storageLayout":{"storage":[{"astId":61,"contract":"contracts/Surpay.sol:Surpay","label":"s_surveys","offset":0,"slot":"0","type":"t_array(t_struct(Survey)53_storage)dyn_storage"},{"astId":65,"contract":"contracts/Surpay.sol:Surpay","label":"s_completeSurveys","offset":0,"slot":"1","type":"t_array(t_struct(Survey)53_storage)dyn_storage"}],"types":{"t_address":{"encoding":"inplace","label":"address","numberOfBytes":"20"},"t_address_payable":{"encoding":"inplace","label":"address payable","numberOfBytes":"20"},"t_array(t_address_payable)dyn_storage":{"base":"t_address_payable","encoding":"dynamic_array","label":"address payable[]","numberOfBytes":"32"},"t_array(t_string_storage)dyn_storage":{"base":"t_string_storage","encoding":"dynamic_array","label":"string[]","numberOfBytes":"32"},"t_array(t_struct(Survey)53_storage)dyn_storage":{"base":"t_struct(Survey)53_storage","encoding":"dynamic_array","label":"struct Surpay.Survey[]","numberOfBytes":"32"},"t_enum(SurveyState)57":{"encoding":"inplace","label":"enum Surpay.SurveyState","numberOfBytes":"1"},"t_string_storage":{"encoding":"bytes","label":"string","numberOfBytes":"32"},"t_struct(Survey)53_storage":{"encoding":"inplace","label":"struct Surpay.Survey","members":[{"astId":33,"contract":"contracts/Surpay.sol:Surpay","label":"surveyId","offset":0,"slot":"0","type":"t_string_storage"},{"astId":35,"contract":"contracts/Surpay.sol:Surpay","label":"companyId","offset":0,"slot":"1","type":"t_string_storage"},{"astId":37,"contract":"contracts/Surpay.sol:Surpay","label":"companyAddress","offset":0,"slot":"2","type":"t_address"},{"astId":39,"contract":"contracts/Surpay.sol:Surpay","label":"totalPayoutAmount","offset":0,"slot":"3","type":"t_uint256"},{"astId":41,"contract":"contracts/Surpay.sol:Surpay","label":"numOfParticipantsDesired","offset":0,"slot":"4","type":"t_uint256"},{"astId":43,"contract":"contracts/Surpay.sol:Surpay","label":"numOfParticipantsFulfilled","offset":0,"slot":"5","type":"t_uint256"},{"astId":46,"contract":"contracts/Surpay.sol:Surpay","label":"surveyResponseData","offset":0,"slot":"6","type":"t_array(t_string_storage)dyn_storage"},{"astId":49,"contract":"contracts/Surpay.sol:Surpay","label":"surveyTakers","offset":0,"slot":"7","type":"t_array(t_address_payable)dyn_storage"},{"astId":52,"contract":"contracts/Surpay.sol:Surpay","label":"surveyState","offset":0,"slot":"8","type":"t_enum(SurveyState)57"}],"numberOfBytes":"288"},"t_uint256":{"encoding":"inplace","label":"uint256","numberOfBytes":"32"}}},"userdoc":{"kind":"user","methods":{},"version":1}}}}