{"contracts/Surpay.sol":{"Surpay":{"abi":[{"inputs":[{"internalType":"uint256","name":"","type":"uint256"}],"name":"companies","outputs":[{"internalType":"string","name":"id","type":"string"},{"internalType":"address","name":"companyAddress","type":"address"}],"stateMutability":"view","type":"function"}],"devdoc":{"kind":"dev","methods":{},"version":1},"evm":{"bytecode":{"linkReferences":{},"object":"608060405234801561001057600080fd5b5061033c806100206000396000f3fe608060405234801561001057600080fd5b506004361061002b5760003560e01c80632813d19d14610030575b600080fd5b61004a60048036038101906100459190610178565b610061565b604051610058929190610276565b60405180910390f35b6000818154811061007157600080fd5b9060005260206000209060030201600091509050806000018054610094906102d5565b80601f01602080910402602001604051908101604052809291908181526020018280546100c0906102d5565b801561010d5780601f106100e25761010080835404028352916020019161010d565b820191906000526020600020905b8154815290600101906020018083116100f057829003601f168201915b5050505050908060010160009054906101000a900473ffffffffffffffffffffffffffffffffffffffff16905082565b600080fd5b6000819050919050565b61015581610142565b811461016057600080fd5b50565b6000813590506101728161014c565b92915050565b60006020828403121561018e5761018d61013d565b5b600061019c84828501610163565b91505092915050565b600081519050919050565b600082825260208201905092915050565b60005b838110156101df5780820151818401526020810190506101c4565b60008484015250505050565b6000601f19601f8301169050919050565b6000610207826101a5565b61021181856101b0565b93506102218185602086016101c1565b61022a816101eb565b840191505092915050565b600073ffffffffffffffffffffffffffffffffffffffff82169050919050565b600061026082610235565b9050919050565b61027081610255565b82525050565b6000604082019050818103600083015261029081856101fc565b905061029f6020830184610267565b9392505050565b7f4e487b7100000000000000000000000000000000000000000000000000000000600052602260045260246000fd5b600060028204905060018216806102ed57607f821691505b602082108103610300576102ff6102a6565b5b5091905056fea264697066735822122004389cbee7e1ec03185488e66c9a66efc4e8d7d8a62a50a91666c8db5911c8ec64736f6c63430008110033","opcodes":"PUSH1 0x80 PUSH1 0x40 MSTORE CALLVALUE DUP1 ISZERO PUSH2 0x10 JUMPI PUSH1 0x0 DUP1 REVERT JUMPDEST POP PUSH2 0x33C DUP1 PUSH2 0x20 PUSH1 0x0 CODECOPY PUSH1 0x0 RETURN INVALID PUSH1 0x80 PUSH1 0x40 MSTORE CALLVALUE DUP1 ISZERO PUSH2 0x10 JUMPI PUSH1 0x0 DUP1 REVERT JUMPDEST POP PUSH1 0x4 CALLDATASIZE LT PUSH2 0x2B JUMPI PUSH1 0x0 CALLDATALOAD PUSH1 0xE0 SHR DUP1 PUSH4 0x2813D19D EQ PUSH2 0x30 JUMPI JUMPDEST PUSH1 0x0 DUP1 REVERT JUMPDEST PUSH2 0x4A PUSH1 0x4 DUP1 CALLDATASIZE SUB DUP2 ADD SWAP1 PUSH2 0x45 SWAP2 SWAP1 PUSH2 0x178 JUMP JUMPDEST PUSH2 0x61 JUMP JUMPDEST PUSH1 0x40 MLOAD PUSH2 0x58 SWAP3 SWAP2 SWAP1 PUSH2 0x276 JUMP JUMPDEST PUSH1 0x40 MLOAD DUP1 SWAP2 SUB SWAP1 RETURN JUMPDEST PUSH1 0x0 DUP2 DUP2 SLOAD DUP2 LT PUSH2 0x71 JUMPI PUSH1 0x0 DUP1 REVERT JUMPDEST SWAP1 PUSH1 0x0 MSTORE PUSH1 0x20 PUSH1 0x0 KECCAK256 SWAP1 PUSH1 0x3 MUL ADD PUSH1 0x0 SWAP2 POP SWAP1 POP DUP1 PUSH1 0x0 ADD DUP1 SLOAD PUSH2 0x94 SWAP1 PUSH2 0x2D5 JUMP JUMPDEST DUP1 PUSH1 0x1F ADD PUSH1 0x20 DUP1 SWAP2 DIV MUL PUSH1 0x20 ADD PUSH1 0x40 MLOAD SWAP1 DUP2 ADD PUSH1 0x40 MSTORE DUP1 SWAP3 SWAP2 SWAP1 DUP2 DUP2 MSTORE PUSH1 0x20 ADD DUP3 DUP1 SLOAD PUSH2 0xC0 SWAP1 PUSH2 0x2D5 JUMP JUMPDEST DUP1 ISZERO PUSH2 0x10D JUMPI DUP1 PUSH1 0x1F LT PUSH2 0xE2 JUMPI PUSH2 0x100 DUP1 DUP4 SLOAD DIV MUL DUP4 MSTORE SWAP2 PUSH1 0x20 ADD SWAP2 PUSH2 0x10D JUMP JUMPDEST DUP3 ADD SWAP2 SWAP1 PUSH1 0x0 MSTORE PUSH1 0x20 PUSH1 0x0 KECCAK256 SWAP1 JUMPDEST DUP2 SLOAD DUP2 MSTORE SWAP1 PUSH1 0x1 ADD SWAP1 PUSH1 0x20 ADD DUP1 DUP4 GT PUSH2 0xF0 JUMPI DUP3 SWAP1 SUB PUSH1 0x1F AND DUP3 ADD SWAP2 JUMPDEST POP POP POP POP POP SWAP1 DUP1 PUSH1 0x1 ADD PUSH1 0x0 SWAP1 SLOAD SWAP1 PUSH2 0x100 EXP SWAP1 DIV PUSH20 0xFFFFFFFFFFFFFFFFFFFFFFFFFFFFFFFFFFFFFFFF AND SWAP1 POP DUP3 JUMP JUMPDEST PUSH1 0x0 DUP1 REVERT JUMPDEST PUSH1 0x0 DUP2 SWAP1 POP SWAP2 SWAP1 POP JUMP JUMPDEST PUSH2 0x155 DUP2 PUSH2 0x142 JUMP JUMPDEST DUP2 EQ PUSH2 0x160 JUMPI PUSH1 0x0 DUP1 REVERT JUMPDEST POP JUMP JUMPDEST PUSH1 0x0 DUP2 CALLDATALOAD SWAP1 POP PUSH2 0x172 DUP2 PUSH2 0x14C JUMP JUMPDEST SWAP3 SWAP2 POP POP JUMP JUMPDEST PUSH1 0x0 PUSH1 0x20 DUP3 DUP5 SUB SLT ISZERO PUSH2 0x18E JUMPI PUSH2 0x18D PUSH2 0x13D JUMP JUMPDEST JUMPDEST PUSH1 0x0 PUSH2 0x19C DUP5 DUP3 DUP6 ADD PUSH2 0x163 JUMP JUMPDEST SWAP2 POP POP SWAP3 SWAP2 POP POP JUMP JUMPDEST PUSH1 0x0 DUP2 MLOAD SWAP1 POP SWAP2 SWAP1 POP JUMP JUMPDEST PUSH1 0x0 DUP3 DUP3 MSTORE PUSH1 0x20 DUP3 ADD SWAP1 POP SWAP3 SWAP2 POP POP JUMP JUMPDEST PUSH1 0x0 JUMPDEST DUP4 DUP2 LT ISZERO PUSH2 0x1DF JUMPI DUP1 DUP3 ADD MLOAD DUP2 DUP5 ADD MSTORE PUSH1 0x20 DUP2 ADD SWAP1 POP PUSH2 0x1C4 JUMP JUMPDEST PUSH1 0x0 DUP5 DUP5 ADD MSTORE POP POP POP POP JUMP JUMPDEST PUSH1 0x0 PUSH1 0x1F NOT PUSH1 0x1F DUP4 ADD AND SWAP1 POP SWAP2 SWAP1 POP JUMP JUMPDEST PUSH1 0x0 PUSH2 0x207 DUP3 PUSH2 0x1A5 JUMP JUMPDEST PUSH2 0x211 DUP2 DUP6 PUSH2 0x1B0 JUMP JUMPDEST SWAP4 POP PUSH2 0x221 DUP2 DUP6 PUSH1 0x20 DUP7 ADD PUSH2 0x1C1 JUMP JUMPDEST PUSH2 0x22A DUP2 PUSH2 0x1EB JUMP JUMPDEST DUP5 ADD SWAP2 POP POP SWAP3 SWAP2 POP POP JUMP JUMPDEST PUSH1 0x0 PUSH20 0xFFFFFFFFFFFFFFFFFFFFFFFFFFFFFFFFFFFFFFFF DUP3 AND SWAP1 POP SWAP2 SWAP1 POP JUMP JUMPDEST PUSH1 0x0 PUSH2 0x260 DUP3 PUSH2 0x235 JUMP JUMPDEST SWAP1 POP SWAP2 SWAP1 POP JUMP JUMPDEST PUSH2 0x270 DUP2 PUSH2 0x255 JUMP JUMPDEST DUP3 MSTORE POP POP JUMP JUMPDEST PUSH1 0x0 PUSH1 0x40 DUP3 ADD SWAP1 POP DUP2 DUP2 SUB PUSH1 0x0 DUP4 ADD MSTORE PUSH2 0x290 DUP2 DUP6 PUSH2 0x1FC JUMP JUMPDEST SWAP1 POP PUSH2 0x29F PUSH1 0x20 DUP4 ADD DUP5 PUSH2 0x267 JUMP JUMPDEST SWAP4 SWAP3 POP POP POP JUMP JUMPDEST PUSH32 0x4E487B7100000000000000000000000000000000000000000000000000000000 PUSH1 0x0 MSTORE PUSH1 0x22 PUSH1 0x4 MSTORE PUSH1 0x24 PUSH1 0x0 REVERT JUMPDEST PUSH1 0x0 PUSH1 0x2 DUP3 DIV SWAP1 POP PUSH1 0x1 DUP3 AND DUP1 PUSH2 0x2ED JUMPI PUSH1 0x7F DUP3 AND SWAP2 POP JUMPDEST PUSH1 0x20 DUP3 LT DUP2 SUB PUSH2 0x300 JUMPI PUSH2 0x2FF PUSH2 0x2A6 JUMP JUMPDEST JUMPDEST POP SWAP2 SWAP1 POP JUMP INVALID LOG2 PUSH5 0x6970667358 0x22 SLT KECCAK256 DIV CODESIZE SWAP13 0xBE 0xE7 0xE1 0xEC SUB XOR SLOAD DUP9 0xE6 PUSH13 0x9A66EFC4E8D7D8A62A50A91666 0xC8 0xDB MSIZE GT 0xC8 0xEC PUSH5 0x736F6C6343 STOP ADDMOD GT STOP CALLER "},"gasEstimates":{"creation":{"codeDepositCost":"165600","executionCost":"208","totalCost":"165808"},"external":{"companies(uint256)":"infinite"}},"methodIdentifiers":{"companies(uint256)":"2813d19d"}},"storageLayout":{"storage":[{"astId":44,"contract":"contracts/Surpay.sol:Surpay","label":"companies","offset":0,"slot":"0","type":"t_array(t_struct(Company)30_storage)dyn_storage"}],"types":{"t_address":{"encoding":"inplace","label":"address","numberOfBytes":"20"},"t_address_payable":{"encoding":"inplace","label":"address payable","numberOfBytes":"20"},"t_array(t_address_payable)dyn_storage":{"base":"t_address_payable","encoding":"dynamic_array","label":"address payable[]","numberOfBytes":"32"},"t_array(t_struct(Company)30_storage)dyn_storage":{"base":"t_struct(Company)30_storage","encoding":"dynamic_array","label":"struct Surpay.Company[]","numberOfBytes":"32"},"t_array(t_struct(Survey)40_storage)dyn_storage":{"base":"t_struct(Survey)40_storage","encoding":"dynamic_array","label":"struct Surpay.Survey[]","numberOfBytes":"32"},"t_string_storage":{"encoding":"bytes","label":"string","numberOfBytes":"32"},"t_struct(Company)30_storage":{"encoding":"inplace","label":"struct Surpay.Company","members":[{"astId":23,"contract":"contracts/Surpay.sol:Surpay","label":"id","offset":0,"slot":"0","type":"t_string_storage"},{"astId":25,"contract":"contracts/Surpay.sol:Surpay","label":"companyAddress","offset":0,"slot":"1","type":"t_address"},{"astId":29,"contract":"contracts/Surpay.sol:Surpay","label":"surveys","offset":0,"slot":"2","type":"t_array(t_struct(Survey)40_storage)dyn_storage"}],"numberOfBytes":"96"},"t_struct(Survey)40_storage":{"encoding":"inplace","label":"struct Surpay.Survey","members":[{"astId":32,"contract":"contracts/Surpay.sol:Surpay","label":"id","offset":0,"slot":"0","type":"t_string_storage"},{"astId":34,"contract":"contracts/Surpay.sol:Surpay","label":"payoutAmount","offset":0,"slot":"1","type":"t_uint256"},{"astId":36,"contract":"contracts/Surpay.sol:Surpay","label":"surveyResponseData","offset":0,"slot":"2","type":"t_string_storage"},{"astId":39,"contract":"contracts/Surpay.sol:Surpay","label":"surveyTakers","offset":0,"slot":"3","type":"t_array(t_address_payable)dyn_storage"}],"numberOfBytes":"128"},"t_uint256":{"encoding":"inplace","label":"uint256","numberOfBytes":"32"}}},"userdoc":{"kind":"user","methods":{},"version":1}}}}