{"contracts/Surpay.sol":{"Surpay":{"abi":[{"inputs":[{"internalType":"uint256","name":"_surveyCreationFee","type":"uint256"},{"internalType":"uint256","name":"_interval","type":"uint256"}],"stateMutability":"nonpayable","type":"constructor"},{"inputs":[],"name":"Surpay__MaximumRespondantsReached","type":"error"},{"inputs":[],"name":"Surpay__NotEnoughFunds","type":"error"},{"inputs":[],"name":"Surpay__NotOwner","type":"error"},{"inputs":[],"name":"Surpay__SurveyAlreadyConcluded","type":"error"},{"inputs":[],"name":"Surpay__SurveyNotFound","type":"error"},{"inputs":[],"name":"Surpay__TransferFailed","type":"error"},{"inputs":[],"name":"Surpay__UpkeepNotNeeded","type":"error"},{"anonymous":false,"inputs":[{"indexed":true,"internalType":"uint256","name":"amount","type":"uint256"}],"name":"FundsWithdrawn","type":"event"},{"anonymous":false,"inputs":[{"indexed":true,"internalType":"string","name":"surveyId","type":"string"}],"name":"SurveyCompleted","type":"event"},{"anonymous":false,"inputs":[{"indexed":true,"internalType":"string","name":"surveyId","type":"string"}],"name":"SurveyCreated","type":"event"},{"anonymous":false,"inputs":[{"indexed":true,"internalType":"string","name":"surveyId","type":"string"}],"name":"SurveyTakersPaid","type":"event"},{"anonymous":false,"inputs":[{"indexed":true,"internalType":"address","name":"surveyTaker","type":"address"}],"name":"UserAddedToSurvey","type":"event"},{"inputs":[{"internalType":"bytes","name":"","type":"bytes"}],"name":"checkUpkeep","outputs":[{"internalType":"bool","name":"upkeepNeeded","type":"bool"},{"internalType":"bytes","name":"","type":"bytes"}],"stateMutability":"nonpayable","type":"function"},{"inputs":[{"internalType":"string","name":"_surveyId","type":"string"},{"internalType":"string","name":"_companyId","type":"string"},{"internalType":"uint256","name":"_totalPayoutAmount","type":"uint256"},{"internalType":"uint256","name":"_numOfParticipantsDesired","type":"uint256"}],"name":"createSurvey","outputs":[],"stateMutability":"payable","type":"function"},{"inputs":[{"internalType":"uint256","name":"index","type":"uint256"}],"name":"distributeFundsFromCompletedSurvey","outputs":[],"stateMutability":"nonpayable","type":"function"},{"inputs":[{"internalType":"string","name":"surveyId","type":"string"}],"name":"getAllSurveyResponseData","outputs":[{"internalType":"string[]","name":"","type":"string[]"}],"stateMutability":"view","type":"function"},{"inputs":[{"internalType":"string","name":"surveyId","type":"string"}],"name":"getCompanyId","outputs":[{"internalType":"string","name":"","type":"string"}],"stateMutability":"view","type":"function"},{"inputs":[],"name":"getFeeHolderAmount","outputs":[{"internalType":"uint256","name":"","type":"uint256"}],"stateMutability":"view","type":"function"},{"inputs":[],"name":"getInterval","outputs":[{"internalType":"uint256","name":"","type":"uint256"}],"stateMutability":"view","type":"function"},{"inputs":[{"internalType":"string","name":"surveyId","type":"string"}],"name":"getLastTimeStamp","outputs":[{"internalType":"uint256","name":"","type":"uint256"}],"stateMutability":"view","type":"function"},{"inputs":[],"name":"getOwner","outputs":[{"internalType":"address","name":"","type":"address"}],"stateMutability":"view","type":"function"},{"inputs":[{"internalType":"string","name":"surveyId","type":"string"}],"name":"getPayoutPerPersonBySurveyId","outputs":[{"internalType":"uint256","name":"","type":"uint256"}],"stateMutability":"view","type":"function"},{"inputs":[],"name":"getSurveyCreationFee","outputs":[{"internalType":"uint256","name":"","type":"uint256"}],"stateMutability":"view","type":"function"},{"inputs":[{"internalType":"string","name":"_surveyId","type":"string"}],"name":"getSurveyPayoutAmount","outputs":[{"internalType":"uint256","name":"","type":"uint256"}],"stateMutability":"view","type":"function"},{"inputs":[{"internalType":"string","name":"surveyId","type":"string"},{"internalType":"uint256","name":"responseIndex","type":"uint256"}],"name":"getSurveyResponseData","outputs":[{"internalType":"string","name":"","type":"string"}],"stateMutability":"view","type":"function"},{"inputs":[{"internalType":"string","name":"_surveyId","type":"string"}],"name":"getSurveyState","outputs":[{"internalType":"enum Surpay.SurveyState","name":"","type":"uint8"}],"stateMutability":"view","type":"function"},{"inputs":[{"internalType":"string","name":"surveyId","type":"string"},{"internalType":"uint256","name":"userIndex","type":"uint256"}],"name":"getSurveyTaker","outputs":[{"internalType":"address","name":"","type":"address"}],"stateMutability":"view","type":"function"},{"inputs":[{"internalType":"bytes","name":"","type":"bytes"}],"name":"performUpkeep","outputs":[],"stateMutability":"nonpayable","type":"function"},{"inputs":[],"name":"removeCompletedSurveys","outputs":[],"stateMutability":"nonpayable","type":"function"},{"inputs":[{"internalType":"string","name":"_surveyId","type":"string"},{"internalType":"string","name":"_surveyData","type":"string"},{"internalType":"address","name":"userAddress","type":"address"}],"name":"sendUserSurveyData","outputs":[],"stateMutability":"nonpayable","type":"function"},{"inputs":[{"internalType":"uint256","name":"amount","type":"uint256"}],"name":"withdrawFromFeeHolder","outputs":[],"stateMutability":"nonpayable","type":"function"}],"devdoc":{"kind":"dev","methods":{"checkUpkeep(bytes)":{"details":"Returns true only if there are any complete surveys."},"createSurvey(string,string,uint256,uint256)":{"details":"A survey can be created by anyone, but it must be calledwith both the total payout amount and the survey creationfee. The current fee is 0.01 ETH. "},"distributeFundsFromCompletedSurvey(uint256)":{"details":"The index of s_completeSurveys is passed in from performUpkeep()."},"performUpkeep(bytes)":{"details":"chainlink automation. perform upkeep fires if checkUpkeep returnstrue."},"sendUserSurveyData(string,string,address)":{"details":"The SurveyCompleted event is the event listener"}},"stateVariables":{"i_owner":{"details":"s_surveys holds all survey data, with the surveyId as the key. completed surveys stors the surveyIds for all completed surveysThe surveyCreationFee is required for all new surveys.The surveyCreationFee is for tx fees and revenue for the service"}},"version":1},"evm":{"bytecode":{"linkReferences":{},"object":"60c06040523480156200001157600080fd5b5060405162003d6938038062003d69833981810160405281019062000037919062000142565b620000536796c04f72ded5802660c01b620000ff60201b60201c565b6200006f67a91d1a31886a9d6960c01b620000ff60201b60201c565b336000806101000a81548173ffffffffffffffffffffffffffffffffffffffff021916908373ffffffffffffffffffffffffffffffffffffffff160217905550620000cb67502caa07572f0b0f60c01b620000ff60201b60201c565b8160808181525050620000ef671660f2bbd59aa0f960c01b620000ff60201b60201c565b8060a08181525050505062000189565b50565b600080fd5b6000819050919050565b6200011c8162000107565b81146200012857600080fd5b50565b6000815190506200013c8162000111565b92915050565b600080604083850312156200015c576200015b62000102565b5b60006200016c858286016200012b565b92505060206200017f858286016200012b565b9150509250929050565b60805160a051613bac620001bd600039600061157b01526000818161170a015281816117be0152611c3e0152613bac6000f3fe6080604052600436106101145760003560e01c806391ad27b4116100a0578063c3b9a2c811610064578063c3b9a2c8146103df578063e1744d7214610408578063e46552c914610445578063e74b36df1461046e578063eb9992c3146104ab57610114565b806391ad27b4146102f35780639759ac361461031e578063ac9d6a2b1461035b578063b374ff2914610377578063bab26fd2146103b457610114565b80634585e33b116100e75780634585e33b146101e757806350597f8a14610210578063653cba7d1461024d5780636e04ff0d1461028a578063893d20e8146102c857610114565b806301b43c3e14610119578063129983011461014457806324405aa91461018157806324445aeb146101be575b600080fd5b34801561012557600080fd5b5061012e6104c2565b60405161013b9190612dd4565b60405180910390f35b34801561015057600080fd5b5061016b60048036038101906101669190612f75565b610508565b6040516101789190613012565b60405180910390f35b34801561018d57600080fd5b506101a860048036038101906101a39190612f75565b610671565b6040516101b591906130ac565b60405180910390f35b3480156101ca57600080fd5b506101e560048036038101906101e091906130fa565b610842565b005b3480156101f357600080fd5b5061020e600480360381019061020991906131e5565b610e04565b005b34801561021c57600080fd5b5061023760048036038101906102329190613232565b6110ff565b6040516102449190613387565b60405180910390f35b34801561025957600080fd5b50610274600480360381019061026f9190613232565b6112fa565b6040516102819190612dd4565b60405180910390f35b34801561029657600080fd5b506102b160048036038101906102ac919061344a565b611426565b6040516102bf929190613503565b60405180910390f35b3480156102d457600080fd5b506102dd6114d7565b6040516102ea9190613012565b60405180910390f35b3480156102ff57600080fd5b5061030861153b565b6040516103159190612dd4565b60405180910390f35b34801561032a57600080fd5b5061034560048036038101906103409190613232565b61159f565b6040516103529190612dd4565b60405180910390f35b61037560048036038101906103709190613533565b6116cb565b005b34801561038357600080fd5b5061039e60048036038101906103999190613232565b611ac5565b6040516103ab9190613649565b60405180910390f35b3480156103c057600080fd5b506103c9611bfe565b6040516103d69190612dd4565b60405180910390f35b3480156103eb57600080fd5b5061040660048036038101906104019190613664565b611c62565b005b34801561041457600080fd5b5061042f600480360381019061042a9190613232565b612246565b60405161043c91906130ac565b60405180910390f35b34801561045157600080fd5b5061046c60048036038101906104679190613664565b612335565b005b34801561047a57600080fd5b5061049560048036038101906104909190613232565b6126ea565b6040516104a29190612dd4565b60405180910390f35b3480156104b757600080fd5b506104c0612842565b005b60006104d867ab627533b723266e60c01b612b9e565b6104ec679ed9970bd766bba560c01b612b9e565b61050067acd79ac79c4550d960c01b612b9e565b600354905090565b600061051e67778bdba04d75676060c01b612b9e565b6105326792801325cdd8b4ed60c01b612b9e565b610546677658a90913e5516460c01b612b9e565b600060018460405161055891906136cd565b908152602001604051809103902060030154111561061157610584674d2c5c89cfb36abe60c01b612b9e565b61059867f170ddc137aac67760c01b612b9e565b6105ac6796646caac8a21a3b60c01b612b9e565b6001836040516105bc91906136cd565b908152602001604051809103902060060182815481106105df576105de6136e4565b5b9060005260206000200160009054906101000a900473ffffffffffffffffffffffffffffffffffffffff16905061066b565b6106256728996b3655ba793460c01b612b9e565b610639675aed686079627ef960c01b612b9e565b6040517fb01e933700000000000000000000000000000000000000000000000000000000815260040160405180910390fd5b92915050565b606061068767d7bfcc717ee1323860c01b612b9e565b61069b676d7166fcd866395560c01b612b9e565b6106af674daee8c2a40ab66760c01b612b9e565b60006001846040516106c191906136cd565b90815260200160405180910390206003015411156107e2576106ed678759afa93314ea9c60c01b612b9e565b6107016752432c97d3367aad60c01b612b9e565b61071567b95d96dbbf0af4f660c01b612b9e565b60018360405161072591906136cd565b90815260200160405180910390206005018281548110610748576107476136e4565b5b90600052602060002001805461075d90613742565b80601f016020809104026020016040519081016040528092919081815260200182805461078990613742565b80156107d65780601f106107ab576101008083540402835291602001916107d6565b820191906000526020600020905b8154815290600101906020018083116107b957829003601f168201915b5050505050905061083c565b6107f6677bbe46a62332877060c01b612b9e565b61080a679dc9623edb8db00760c01b612b9e565b6040517fb01e933700000000000000000000000000000000000000000000000000000000815260040160405180910390fd5b92915050565b61085667054aa59c0d549a1f60c01b612b9e565b61086a67b7a8048e78e7d9a860c01b612b9e565b61087e6757411ebf80be98d960c01b612b9e565b61089267a7aef1ba4e5635dd60c01b612b9e565b60008054906101000a900473ffffffffffffffffffffffffffffffffffffffff1673ffffffffffffffffffffffffffffffffffffffff163373ffffffffffffffffffffffffffffffffffffffff161461092b576108f9670f9b7cbd78159ea560c01b612b9e565b6040517fba34867000000000000000000000000000000000000000000000000000000000815260040160405180910390fd5b61093f67b6029ce5811a7e7560c01b612b9e565b6109536733f251feaa0c087160c01b612b9e565b610967678d30af0d524b171160c01b612b9e565b61097b678866f175895e52c060c01b612b9e565b61098f670d9761718ebb8db360c01b612b9e565b6109a367e83a0b71075018e360c01b612b9e565b6001836040516109b391906136cd565b9081526020016040518091039020600401546001846040516109d591906136cd565b9081526020016040518091039020600301541115610da557610a016729ab741f23805e2660c01b612b9e565b610a156799cda007d8d8c24660c01b612b9e565b610a29673a2921694939a9df60c01b612b9e565b600183604051610a3991906136cd565b908152602001604051809103902060050182908060018154018082558091505060019003906000526020600020016000909190919091509081610a7c919061391f565b50610a91670381eceee2fea3ee60c01b612b9e565b610aa5670d4016976ba9261660c01b612b9e565b600183604051610ab591906136cd565b9081526020016040518091039020600601819080600181540180825580915050600190039060005260206000200160009091909190916101000a81548173ffffffffffffffffffffffffffffffffffffffff021916908373ffffffffffffffffffffffffffffffffffffffff160217905550610b3b67bcc3ecdf369bed9d60c01b612b9e565b600183604051610b4b91906136cd565b90815260200160405180910390206004016000815480929190610b6d90613a20565b9190505550610b8667654e94b83abc923160c01b612b9e565b610b9a67eb708cfc10328b7360c01b612b9e565b600183604051610baa91906136cd565b908152602001604051809103902060040154600184604051610bcc91906136cd565b90815260200160405180910390206003015403610d2057610bf76763d832b157a4f7b160c01b612b9e565b610c0b6734368c1a13f8169060c01b612b9e565b60018084604051610c1c91906136cd565b908152602001604051809103902060080160006101000a81548160ff02191690836002811115610c4f57610c4e6135d2565b5b0217905550610c6867eeffeae193c930b360c01b612b9e565b610c7c6794d5a7c67606c48260c01b612b9e565b600283908060018154018082558091505060019003906000526020600020016000909190919091509081610cb0919061391f565b50610cc5671d6c78d53dde654160c01b612b9e565b610cd9671597318b8e431bd660c01b612b9e565b82604051610ce791906136cd565b60405180910390207fc9629617ac320e57fa622f79c211617de659a3b7cbdda927e47dea5e4c0ab4da60405160405180910390a2610d35565b610d3467bda666f3315852e560c01b612b9e565b5b610d4967ab45506ece85437b60c01b612b9e565b610d5d67a35f21e0d76c89be60c01b612b9e565b8073ffffffffffffffffffffffffffffffffffffffff167f099cc064944e6569611b439843932fa853d46618d78ca5a8e3989bcc5614853d60405160405180910390a2610dff565b610db967dd563d93c1e6525b60c01b612b9e565b610dcd67ac7271ffe9e9f45660c01b612b9e565b6040517f13c8108e00000000000000000000000000000000000000000000000000000000815260040160405180910390fd5b505050565b610e186718539c59df80c48160c01b612b9e565b610e2c676fc6ebfdc420c85860c01b612b9e565b610e40676a69b4969928a5c760c01b612b9e565b6000610e5a60405180602001604052806000815250611426565b509050610e7167e1d12ad76a7c3fba60c01b612b9e565b610e8567ff9eaefbecb3c3e160c01b612b9e565b80156110a057610e9f6713bf16335c64408c60c01b612b9e565b610eb3675f1e57e14de968e160c01b612b9e565b610ec767ec29f0fecbdb11ed60c01b612b9e565b60006002805480602002602001604051908101604052809291908181526020016000905b82821015610f97578382906000526020600020018054610f0a90613742565b80601f0160208091040260200160405190810160405280929190818152602001828054610f3690613742565b8015610f835780601f10610f5857610100808354040283529160200191610f83565b820191906000526020600020905b815481529060010190602001808311610f6657829003601f168201915b505050505081526020019060010190610eeb565b505050509050610fb1672c91c22797b97faf60c01b612b9e565b610fc5678055612a90fefdef60c01b612b9e565b60005b815181101561109957610fe56742077510b6bf9f9d60c01b612b9e565b610ff967660c28708d98eb5a60c01b612b9e565b61100281611c62565b6110166725dd81091cd7958360c01b612b9e565b61102a67fcbc2b0d338f377660c01b612b9e565b81818151811061103d5761103c6136e4565b5b602002602001015160405161105291906136cd565b60405180910390207fa7998895d8d2e7856091bd8a5895a54d831c4d6c8bd8a8611ec2c1f873872fef60405160405180910390a2808061109190613a20565b915050610fc8565b50506110fa565b6110b46713f6b0e9873ee7c360c01b612b9e565b6110c8674db99566fe5eaf2660c01b612b9e565b6040517fe47d1a5100000000000000000000000000000000000000000000000000000000815260040160405180910390fd5b505050565b60606111156778744ec521704a8c60c01b612b9e565b61112967fe2cf83670ca832b60c01b612b9e565b61113d67415f03b9f2ad95c660c01b612b9e565b600060018360405161114f91906136cd565b908152602001604051809103902060030154111561129b5761117b67be022897753ea36a60c01b612b9e565b61118f67d020301591df588160c01b612b9e565b6111a36703c0672cac9ebcc160c01b612b9e565b6001826040516111b391906136cd565b9081526020016040518091039020600501805480602002602001604051908101604052809291908181526020016000905b8282101561129057838290600052602060002001805461120390613742565b80601f016020809104026020016040519081016040528092919081815260200182805461122f90613742565b801561127c5780601f106112515761010080835404028352916020019161127c565b820191906000526020600020905b81548152906001019060200180831161125f57829003601f168201915b5050505050815260200190600101906111e4565b5050505090506112f5565b6112af6792db10bf1f22c74460c01b612b9e565b6112c3675c39234eb8785ac460c01b612b9e565b6040517fb01e933700000000000000000000000000000000000000000000000000000000815260040160405180910390fd5b919050565b6000611310673befd3112ee20d6260c01b612b9e565b61132467d14c8c72f4c0563d60c01b612b9e565b611338678c7292e21770c48c60c01b612b9e565b600060018360405161134a91906136cd565b90815260200160405180910390206003015411156113c75761137667a960b765d2e6e7f460c01b612b9e565b61138a67d3e8a5b0967f9c0460c01b612b9e565b61139e67301f4aa5e45e1f4860c01b612b9e565b6001826040516113ae91906136cd565b9081526020016040518091039020600701549050611421565b6113db67219880c82c69596260c01b612b9e565b6113ef672b1870e844037d5160c01b612b9e565b6040517fb01e933700000000000000000000000000000000000000000000000000000000815260040160405180910390fd5b919050565b6000606061143e6784525c8f29aa48ee60c01b612b9e565b61145267de200875fb75add960c01b612b9e565b61146667957bc792c8b9aaed60c01b612b9e565b600060028054905011156114a55761148867befba7da156d041d60c01b612b9e565b61149c67366eb439436bcd9460c01b612b9e565b600191506114d2565b6114b96772a70a9a980cc86b60c01b612b9e565b6114cd67df01289cf90053f760c01b612b9e565b600091505b915091565b60006114ed67dc3f933b9462726f60c01b612b9e565b611501673edf9fb0f7e7619960c01b612b9e565b61151567092f05c48a90f97560c01b612b9e565b60008054906101000a900473ffffffffffffffffffffffffffffffffffffffff16905090565b6000611551677fbf1b05c13cf25860c01b612b9e565b61156567327ddfef8472216460c01b612b9e565b611579673aeafd8e8921396660c01b612b9e565b7f0000000000000000000000000000000000000000000000000000000000000000905090565b60006115b567caee7449bdefe7e260c01b612b9e565b6115c967284f5db1dc84df1f60c01b612b9e565b6115dd6760df4b5a4937817860c01b612b9e565b60006001836040516115ef91906136cd565b908152602001604051809103902060030154111561166c5761161b67315e58c82261be0c60c01b612b9e565b61162f67343a579791512b9660c01b612b9e565b61164367dcdefd7196d31b4060c01b612b9e565b60018260405161165391906136cd565b90815260200160405180910390206002015490506116c6565b611680677673ad7650f5e54f60c01b612b9e565b611694677c879a38c0a6765660c01b612b9e565b6040517fb01e933700000000000000000000000000000000000000000000000000000000815260040160405180910390fd5b919050565b6116df67564d2b4ee72d8de760c01b612b9e565b6116f3678abb624fad84b11f60c01b612b9e565b61170767f443f7e07c7f861160c01b612b9e565b817f00000000000000000000000000000000000000000000000000000000000000006117339190613a68565b3410156117945761174e67ef1d874ce10f6f2660c01b612b9e565b611762672f88d6a067197d9c60c01b612b9e565b6040517fc09bb52500000000000000000000000000000000000000000000000000000000815260040160405180910390fd5b6117a867751d39b91bf27ff960c01b612b9e565b6117bc67e7af04fd3bef132760c01b612b9e565b7f0000000000000000000000000000000000000000000000000000000000000000600360008282546117ee9190613a68565b9250508190555061180967620fefe08661f4f360c01b612b9e565b61181d677995638dcaf1a91960c01b612b9e565b611825612ba1565b611839676a770bdc540760a960c01b612b9e565b83816000018190525061185667139c1e74324e911860c01b612b9e565b33816020019073ffffffffffffffffffffffffffffffffffffffff16908173ffffffffffffffffffffffffffffffffffffffff16815250506118a2677d8daeaaec14259f60c01b612b9e565b828160400181815250506118c06708d9cc6e88138bd460c01b612b9e565b818160600181815250506118de67daa8781a8b456f9860c01b612b9e565b428160e00181815250506118fc67b417a554820cc63660c01b612b9e565b60008161010001906002811115611916576119156135d2565b5b9081600281111561192a576119296135d2565b5b8152505061194267961e3172421a9f1260c01b612b9e565b8060018660405161195391906136cd565b90815260200160405180910390206000820151816000019081611976919061391f565b5060208201518160010160006101000a81548173ffffffffffffffffffffffffffffffffffffffff021916908373ffffffffffffffffffffffffffffffffffffffff16021790555060408201518160020155606082015181600301556080820151816004015560a08201518160050190805190602001906119f8929190612c15565b5060c0820151816006019080519060200190611a15929190612c6e565b5060e082015181600701556101008201518160080160006101000a81548160ff02191690836002811115611a4c57611a4b6135d2565b5b0217905550905050611a6867bb426b1583f5b0ee60c01b612b9e565b611a7c67f7c9d919987d231560c01b612b9e565b84604051611a8a91906136cd565b60405180910390207fcc65c6fb1d804ba1dc418f9e3659483d310357279f035d45b8ea484fd6fe4a2f60405160405180910390a25050505050565b6000611adb67c593ea2958d6fed660c01b612b9e565b611aef679dae1c4ee7f8c21660c01b612b9e565b611b0367f9662b1708f753da60c01b612b9e565b6000600183604051611b1591906136cd565b9081526020016040518091039020600301541115611b9f57611b416793b1a961691bcf4d60c01b612b9e565b611b5567a04f4172eab1255760c01b612b9e565b611b696770d519cdca98767e60c01b612b9e565b600182604051611b7991906136cd565b908152602001604051809103902060080160009054906101000a900460ff169050611bf9565b611bb36723917a732604f25460c01b612b9e565b611bc7674571ea5d2fac95b860c01b612b9e565b6040517fb01e933700000000000000000000000000000000000000000000000000000000815260040160405180910390fd5b919050565b6000611c146715d33888b66df8fa60c01b612b9e565b611c2867903fb0d824fbf60060c01b612b9e565b611c3c6789b0f51280965ab260c01b612b9e565b7f0000000000000000000000000000000000000000000000000000000000000000905090565b611c7667689e60937cc7c4d260c01b612b9e565b611c8a6793afbb912a5fc05a60c01b612b9e565b611c9e67f977e88171ec364560c01b612b9e565b60006002805480602002602001604051908101604052809291908181526020016000905b82821015611d6e578382906000526020600020018054611ce190613742565b80601f0160208091040260200160405190810160405280929190818152602001828054611d0d90613742565b8015611d5a5780601f10611d2f57610100808354040283529160200191611d5a565b820191906000526020600020905b815481529060010190602001808311611d3d57829003601f168201915b505050505081526020019060010190611cc2565b505050509050611d8867afcd135fcba3093360c01b612b9e565b611d9c67cb17cae9bd78a28c60c01b612b9e565b600280811115611daf57611dae6135d2565b5b6001828481518110611dc457611dc36136e4565b5b6020026020010151604051611dd991906136cd565b908152602001604051809103902060080160009054906101000a900460ff166002811115611e0a57611e096135d2565b5b03611e6957611e23673652dda1d8056abf60c01b612b9e565b611e376757ac4f71057c7aaf60c01b612b9e565b6040517f4fc98f3b00000000000000000000000000000000000000000000000000000000815260040160405180910390fd5b611e7d677d84521368aed47960c01b612b9e565b611e91678c3f4ffbf2b2cbd160c01b612b9e565b611ea567a77e1705466e741f60c01b612b9e565b6000611ebb679a241cd0e483dc3460c01b612b9e565b6001828481518110611ed057611ecf6136e4565b5b6020026020010151604051611ee591906136cd565b9081526020016040518091039020600401546001838581518110611f0c57611f0b6136e4565b5b6020026020010151604051611f2191906136cd565b908152602001604051809103902060020154611f3d9190613acb565b9050611f5367843ccb70ba651d7e60c01b612b9e565b611f67672476911ea1738fd760c01b612b9e565b60005b6001838581518110611f7f57611f7e6136e4565b5b6020026020010151604051611f9491906136cd565b9081526020016040518091039020600601805490508110156121c857611fc4675474655a418bd73060c01b612b9e565b611fd867b596b30801891ee860c01b612b9e565b478210156121a057611ff46717993b4af5fd15c860c01b612b9e565b612008679224ad284ed5739860c01b612b9e565b61201c67177470341d73d50660c01b612b9e565b60006001848681518110612033576120326136e4565b5b602002602001015160405161204891906136cd565b9081526020016040518091039020600601828154811061206b5761206a6136e4565b5b9060005260206000200160009054906101000a900473ffffffffffffffffffffffffffffffffffffffff1673ffffffffffffffffffffffffffffffffffffffff16836040516120b990613b2d565b60006040518083038185875af1925050503d80600081146120f6576040519150601f19603f3d011682016040523d82523d6000602084013e6120fb565b606091505b50509050612113679378679612b988fa60c01b612b9e565b612127670b8a150bcad15c6260c01b612b9e565b80612186576121406782f4d451c719a39d60c01b612b9e565b61215467356e12e681e6b73160c01b612b9e565b6040517f09e6a19a00000000000000000000000000000000000000000000000000000000815260040160405180910390fd5b61219a679a7f61c10a9f665460c01b612b9e565b506121b5565b6121b467fb6409d6a10e5b6e60c01b612b9e565b5b80806121c090613a20565b915050611f6a565b506121dd67a4dc35adc197cd2560c01b612b9e565b600260018385815181106121f4576121f36136e4565b5b602002602001015160405161220991906136cd565b908152602001604051809103902060080160006101000a81548160ff0219169083600281111561223c5761223b6135d2565b5b0217905550505050565b606061225c67eeb199026ada09d560c01b612b9e565b61227067e26bbb2714b76eb560c01b612b9e565b612284677dee9b8c1ecd5c5460c01b612b9e565b60018260405161229491906136cd565b908152602001604051809103902060000180546122b090613742565b80601f01602080910402602001604051908101604052809291908181526020018280546122dc90613742565b80156123295780601f106122fe57610100808354040283529160200191612329565b820191906000526020600020905b81548152906001019060200180831161230c57829003601f168201915b50505050509050919050565b6123496726fc756aca5fd7c960c01b612b9e565b61235d67b7a8048e78e7d9a860c01b612b9e565b6123716757411ebf80be98d960c01b612b9e565b61238567a7aef1ba4e5635dd60c01b612b9e565b60008054906101000a900473ffffffffffffffffffffffffffffffffffffffff1673ffffffffffffffffffffffffffffffffffffffff163373ffffffffffffffffffffffffffffffffffffffff161461241e576123ec670f9b7cbd78159ea560c01b612b9e565b6040517fba34867000000000000000000000000000000000000000000000000000000000815260040160405180910390fd5b61243267b6029ce5811a7e7560c01b612b9e565b6124466733f251feaa0c087160c01b612b9e565b61245a676f41fe2788113b3c60c01b612b9e565b61246e67ef21b24f5c9382e060c01b612b9e565b612482675ee0142443ebf4eb60c01b612b9e565b6124966746e40f1e51885fd260c01b612b9e565b6003548111156124fa576124b46701d2acd4520ed22260c01b612b9e565b6124c8670d17869a7bf5f91b60c01b612b9e565b6040517fc09bb52500000000000000000000000000000000000000000000000000000000815260040160405180910390fd5b61250e67fbb93246f059eb0b60c01b612b9e565b61252267551479f43f408b3c60c01b612b9e565b612536672ee7b5e03201427060c01b612b9e565b60008060009054906101000a900473ffffffffffffffffffffffffffffffffffffffff1673ffffffffffffffffffffffffffffffffffffffff168260405161257d90613b2d565b60006040518083038185875af1925050503d80600081146125ba576040519150601f19603f3d011682016040523d82523d6000602084013e6125bf565b606091505b505090506125d7676a941b523b272d8960c01b612b9e565b6125eb678ff8bc93b427054860c01b612b9e565b801561268c5761260567bde2477a8fd6165760c01b612b9e565b61261967b04080004f98d66660c01b612b9e565b816003600082825461262b9190613b42565b9250508190555061264667f64daa219582432e60c01b612b9e565b61265a6724f8091feacbeec560c01b612b9e565b817f4a37b25aab49761ecf63117fe82b98d750917451133cf797507bc9fb5b96044a60405160405180910390a26126e6565b6126a067646cb14ef805668d60c01b612b9e565b6126b46707967049778e3c0260c01b612b9e565b6040517f09e6a19a00000000000000000000000000000000000000000000000000000000815260040160405180910390fd5b5050565b60006127006724804863e5fba7ff60c01b612b9e565b61271467640d3dbd976239f660c01b612b9e565b612728673bb9021dbc7070bf60c01b612b9e565b600060018360405161273a91906136cd565b90815260200160405180910390206003015411156127e357612766679d4252910f97aeb760c01b612b9e565b61277a67bd3cb21073304ab560c01b612b9e565b61278e67868f4a477cc09f1660c01b612b9e565b60018260405161279e91906136cd565b9081526020016040518091039020600301546001836040516127c091906136cd565b9081526020016040518091039020600201546127dc9190613acb565b905061283d565b6127f7670ce849a84c39fd2f60c01b612b9e565b61280b678f796a72c6cc1e6860c01b612b9e565b6040517fb01e933700000000000000000000000000000000000000000000000000000000815260040160405180910390fd5b919050565b61285667986a8a3478662c7a60c01b612b9e565b61286a67b7a8048e78e7d9a860c01b612b9e565b61287e6757411ebf80be98d960c01b612b9e565b61289267a7aef1ba4e5635dd60c01b612b9e565b60008054906101000a900473ffffffffffffffffffffffffffffffffffffffff1673ffffffffffffffffffffffffffffffffffffffff163373ffffffffffffffffffffffffffffffffffffffff161461292b576128f9670f9b7cbd78159ea560c01b612b9e565b6040517fba34867000000000000000000000000000000000000000000000000000000000815260040160405180910390fd5b61293f67b6029ce5811a7e7560c01b612b9e565b6129536733f251feaa0c087160c01b612b9e565b61296767898ea0684eeaeb4760c01b612b9e565b61297b6765daa93d039b6a5e60c01b612b9e565b61298f676b42c66df84c218360c01b612b9e565b6129a3674558a5c00be7f3e760c01b612b9e565b60006002805480602002602001604051908101604052809291908181526020016000905b82821015612a735783829060005260206000200180546129e690613742565b80601f0160208091040260200160405190810160405280929190818152602001828054612a1290613742565b8015612a5f5780601f10612a3457610100808354040283529160200191612a5f565b820191906000526020600020905b815481529060010190602001808311612a4257829003601f168201915b5050505050815260200190600101906129c7565b505050509050612a8d672989598b22f8336560c01b612b9e565b612aa167c712d5468c48218960c01b612b9e565b60005b8151811015612b9a57612ac167a205a2c6ca126ff360c01b612b9e565b6001828281518110612ad657612ad56136e4565b5b6020026020010151604051612aeb91906136cd565b908152602001604051809103902060008082016000612b0a9190612cf8565b6001820160006101000a81549073ffffffffffffffffffffffffffffffffffffffff0219169055600282016000905560038201600090556004820160009055600582016000612b599190612d38565b600682016000612b699190612d59565b60078201600090556008820160006101000a81549060ff021916905550508080612b9290613a20565b915050612aa4565b5050565b50565b60405180610120016040528060608152602001600073ffffffffffffffffffffffffffffffffffffffff16815260200160008152602001600081526020016000815260200160608152602001606081526020016000815260200160006002811115612c0f57612c0e6135d2565b5b81525090565b828054828255906000526020600020908101928215612c5d579160200282015b82811115612c5c578251829081612c4c919061391f565b5091602001919060010190612c35565b5b509050612c6a9190612d7a565b5090565b828054828255906000526020600020908101928215612ce7579160200282015b82811115612ce65782518260006101000a81548173ffffffffffffffffffffffffffffffffffffffff021916908373ffffffffffffffffffffffffffffffffffffffff16021790555091602001919060010190612c8e565b5b509050612cf49190612d9e565b5090565b508054612d0490613742565b6000825580601f10612d165750612d35565b601f016020900490600052602060002090810190612d349190612d9e565b5b50565b5080546000825590600052602060002090810190612d569190612d7a565b50565b5080546000825590600052602060002090810190612d779190612d9e565b50565b5b80821115612d9a5760008181612d919190612cf8565b50600101612d7b565b5090565b5b80821115612db7576000816000905550600101612d9f565b5090565b6000819050919050565b612dce81612dbb565b82525050565b6000602082019050612de96000830184612dc5565b92915050565b6000604051905090565b600080fd5b600080fd5b600080fd5b600080fd5b6000601f19601f8301169050919050565b7f4e487b7100000000000000000000000000000000000000000000000000000000600052604160045260246000fd5b612e5682612e0d565b810181811067ffffffffffffffff82111715612e7557612e74612e1e565b5b80604052505050565b6000612e88612def565b9050612e948282612e4d565b919050565b600067ffffffffffffffff821115612eb457612eb3612e1e565b5b612ebd82612e0d565b9050602081019050919050565b82818337600083830152505050565b6000612eec612ee784612e99565b612e7e565b905082815260208101848484011115612f0857612f07612e08565b5b612f13848285612eca565b509392505050565b600082601f830112612f3057612f2f612e03565b5b8135612f40848260208601612ed9565b91505092915050565b612f5281612dbb565b8114612f5d57600080fd5b50565b600081359050612f6f81612f49565b92915050565b60008060408385031215612f8c57612f8b612df9565b5b600083013567ffffffffffffffff811115612faa57612fa9612dfe565b5b612fb685828601612f1b565b9250506020612fc785828601612f60565b9150509250929050565b600073ffffffffffffffffffffffffffffffffffffffff82169050919050565b6000612ffc82612fd1565b9050919050565b61300c81612ff1565b82525050565b60006020820190506130276000830184613003565b92915050565b600081519050919050565b600082825260208201905092915050565b60005b8381101561306757808201518184015260208101905061304c565b60008484015250505050565b600061307e8261302d565b6130888185613038565b9350613098818560208601613049565b6130a181612e0d565b840191505092915050565b600060208201905081810360008301526130c68184613073565b905092915050565b6130d781612ff1565b81146130e257600080fd5b50565b6000813590506130f4816130ce565b92915050565b60008060006060848603121561311357613112612df9565b5b600084013567ffffffffffffffff81111561313157613130612dfe565b5b61313d86828701612f1b565b935050602084013567ffffffffffffffff81111561315e5761315d612dfe565b5b61316a86828701612f1b565b925050604061317b868287016130e5565b9150509250925092565b600080fd5b600080fd5b60008083601f8401126131a5576131a4612e03565b5b8235905067ffffffffffffffff8111156131c2576131c1613185565b5b6020830191508360018202830111156131de576131dd61318a565b5b9250929050565b600080602083850312156131fc576131fb612df9565b5b600083013567ffffffffffffffff81111561321a57613219612dfe565b5b6132268582860161318f565b92509250509250929050565b60006020828403121561324857613247612df9565b5b600082013567ffffffffffffffff81111561326657613265612dfe565b5b61327284828501612f1b565b91505092915050565b600081519050919050565b600082825260208201905092915050565b6000819050602082019050919050565b600082825260208201905092915050565b60006132c38261302d565b6132cd81856132a7565b93506132dd818560208601613049565b6132e681612e0d565b840191505092915050565b60006132fd83836132b8565b905092915050565b6000602082019050919050565b600061331d8261327b565b6133278185613286565b93508360208202850161333985613297565b8060005b85811015613375578484038952815161335685826132f1565b945061336183613305565b925060208a0199505060018101905061333d565b50829750879550505050505092915050565b600060208201905081810360008301526133a18184613312565b905092915050565b600067ffffffffffffffff8211156133c4576133c3612e1e565b5b6133cd82612e0d565b9050602081019050919050565b60006133ed6133e8846133a9565b612e7e565b90508281526020810184848401111561340957613408612e08565b5b613414848285612eca565b509392505050565b600082601f83011261343157613430612e03565b5b81356134418482602086016133da565b91505092915050565b6000602082840312156134605761345f612df9565b5b600082013567ffffffffffffffff81111561347e5761347d612dfe565b5b61348a8482850161341c565b91505092915050565b60008115159050919050565b6134a881613493565b82525050565b600081519050919050565b600082825260208201905092915050565b60006134d5826134ae565b6134df81856134b9565b93506134ef818560208601613049565b6134f881612e0d565b840191505092915050565b6000604082019050613518600083018561349f565b818103602083015261352a81846134ca565b90509392505050565b6000806000806080858703121561354d5761354c612df9565b5b600085013567ffffffffffffffff81111561356b5761356a612dfe565b5b61357787828801612f1b565b945050602085013567ffffffffffffffff81111561359857613597612dfe565b5b6135a487828801612f1b565b93505060406135b587828801612f60565b92505060606135c687828801612f60565b91505092959194509250565b7f4e487b7100000000000000000000000000000000000000000000000000000000600052602160045260246000fd5b60038110613612576136116135d2565b5b50565b600081905061362382613601565b919050565b600061363382613615565b9050919050565b61364381613628565b82525050565b600060208201905061365e600083018461363a565b92915050565b60006020828403121561367a57613679612df9565b5b600061368884828501612f60565b91505092915050565b600081905092915050565b60006136a78261302d565b6136b18185613691565b93506136c1818560208601613049565b80840191505092915050565b60006136d9828461369c565b915081905092915050565b7f4e487b7100000000000000000000000000000000000000000000000000000000600052603260045260246000fd5b7f4e487b7100000000000000000000000000000000000000000000000000000000600052602260045260246000fd5b6000600282049050600182168061375a57607f821691505b60208210810361376d5761376c613713565b5b50919050565b60008190508160005260206000209050919050565b60006020601f8301049050919050565b600082821b905092915050565b6000600883026137d57fffffffffffffffffffffffffffffffffffffffffffffffffffffffffffffffff82613798565b6137df8683613798565b95508019841693508086168417925050509392505050565b6000819050919050565b600061381c61381761381284612dbb565b6137f7565b612dbb565b9050919050565b6000819050919050565b61383683613801565b61384a61384282613823565b8484546137a5565b825550505050565b600090565b61385f613852565b61386a81848461382d565b505050565b5b8181101561388e57613883600082613857565b600181019050613870565b5050565b601f8211156138d3576138a481613773565b6138ad84613788565b810160208510156138bc578190505b6138d06138c885613788565b83018261386f565b50505b505050565b600082821c905092915050565b60006138f6600019846008026138d8565b1980831691505092915050565b600061390f83836138e5565b9150826002028217905092915050565b6139288261302d565b67ffffffffffffffff81111561394157613940612e1e565b5b61394b8254613742565b613956828285613892565b600060209050601f8311600181146139895760008415613977578287015190505b6139818582613903565b8655506139e9565b601f19841661399786613773565b60005b828110156139bf5784890151825560018201915060208501945060208101905061399a565b868310156139dc57848901516139d8601f8916826138e5565b8355505b6001600288020188555050505b505050505050565b7f4e487b7100000000000000000000000000000000000000000000000000000000600052601160045260246000fd5b6000613a2b82612dbb565b91507fffffffffffffffffffffffffffffffffffffffffffffffffffffffffffffffff8203613a5d57613a5c6139f1565b5b600182019050919050565b6000613a7382612dbb565b9150613a7e83612dbb565b9250828201905080821115613a9657613a956139f1565b5b92915050565b7f4e487b7100000000000000000000000000000000000000000000000000000000600052601260045260246000fd5b6000613ad682612dbb565b9150613ae183612dbb565b925082613af157613af0613a9c565b5b828204905092915050565b600081905092915050565b50565b6000613b17600083613afc565b9150613b2282613b07565b600082019050919050565b6000613b3882613b0a565b9150819050919050565b6000613b4d82612dbb565b9150613b5883612dbb565b9250828203905081811115613b7057613b6f6139f1565b5b9291505056fea2646970667358221220ee601afdad00399af532cfda576ab393d92601b705a9ddc6b4e5a69931af600364736f6c63430008110033","opcodes":"PUSH1 0xC0 PUSH1 0x40 MSTORE CALLVALUE DUP1 ISZERO PUSH3 0x11 JUMPI PUSH1 0x0 DUP1 REVERT JUMPDEST POP PUSH1 0x40 MLOAD PUSH3 0x3D69 CODESIZE SUB DUP1 PUSH3 0x3D69 DUP4 CODECOPY DUP2 DUP2 ADD PUSH1 0x40 MSTORE DUP2 ADD SWAP1 PUSH3 0x37 SWAP2 SWAP1 PUSH3 0x142 JUMP JUMPDEST PUSH3 0x53 PUSH8 0x96C04F72DED58026 PUSH1 0xC0 SHL PUSH3 0xFF PUSH1 0x20 SHL PUSH1 0x20 SHR JUMP JUMPDEST PUSH3 0x6F PUSH8 0xA91D1A31886A9D69 PUSH1 0xC0 SHL PUSH3 0xFF PUSH1 0x20 SHL PUSH1 0x20 SHR JUMP JUMPDEST CALLER PUSH1 0x0 DUP1 PUSH2 0x100 EXP DUP2 SLOAD DUP2 PUSH20 0xFFFFFFFFFFFFFFFFFFFFFFFFFFFFFFFFFFFFFFFF MUL NOT AND SWAP1 DUP4 PUSH20 0xFFFFFFFFFFFFFFFFFFFFFFFFFFFFFFFFFFFFFFFF AND MUL OR SWAP1 SSTORE POP PUSH3 0xCB PUSH8 0x502CAA07572F0B0F PUSH1 0xC0 SHL PUSH3 0xFF PUSH1 0x20 SHL PUSH1 0x20 SHR JUMP JUMPDEST DUP2 PUSH1 0x80 DUP2 DUP2 MSTORE POP POP PUSH3 0xEF PUSH8 0x1660F2BBD59AA0F9 PUSH1 0xC0 SHL PUSH3 0xFF PUSH1 0x20 SHL PUSH1 0x20 SHR JUMP JUMPDEST DUP1 PUSH1 0xA0 DUP2 DUP2 MSTORE POP POP POP POP PUSH3 0x189 JUMP JUMPDEST POP JUMP JUMPDEST PUSH1 0x0 DUP1 REVERT JUMPDEST PUSH1 0x0 DUP2 SWAP1 POP SWAP2 SWAP1 POP JUMP JUMPDEST PUSH3 0x11C DUP2 PUSH3 0x107 JUMP JUMPDEST DUP2 EQ PUSH3 0x128 JUMPI PUSH1 0x0 DUP1 REVERT JUMPDEST POP JUMP JUMPDEST PUSH1 0x0 DUP2 MLOAD SWAP1 POP PUSH3 0x13C DUP2 PUSH3 0x111 JUMP JUMPDEST SWAP3 SWAP2 POP POP JUMP JUMPDEST PUSH1 0x0 DUP1 PUSH1 0x40 DUP4 DUP6 SUB SLT ISZERO PUSH3 0x15C JUMPI PUSH3 0x15B PUSH3 0x102 JUMP JUMPDEST JUMPDEST PUSH1 0x0 PUSH3 0x16C DUP6 DUP3 DUP7 ADD PUSH3 0x12B JUMP JUMPDEST SWAP3 POP POP PUSH1 0x20 PUSH3 0x17F DUP6 DUP3 DUP7 ADD PUSH3 0x12B JUMP JUMPDEST SWAP2 POP POP SWAP3 POP SWAP3 SWAP1 POP JUMP JUMPDEST PUSH1 0x80 MLOAD PUSH1 0xA0 MLOAD PUSH2 0x3BAC PUSH3 0x1BD PUSH1 0x0 CODECOPY PUSH1 0x0 PUSH2 0x157B ADD MSTORE PUSH1 0x0 DUP2 DUP2 PUSH2 0x170A ADD MSTORE DUP2 DUP2 PUSH2 0x17BE ADD MSTORE PUSH2 0x1C3E ADD MSTORE PUSH2 0x3BAC PUSH1 0x0 RETURN INVALID PUSH1 0x80 PUSH1 0x40 MSTORE PUSH1 0x4 CALLDATASIZE LT PUSH2 0x114 JUMPI PUSH1 0x0 CALLDATALOAD PUSH1 0xE0 SHR DUP1 PUSH4 0x91AD27B4 GT PUSH2 0xA0 JUMPI DUP1 PUSH4 0xC3B9A2C8 GT PUSH2 0x64 JUMPI DUP1 PUSH4 0xC3B9A2C8 EQ PUSH2 0x3DF JUMPI DUP1 PUSH4 0xE1744D72 EQ PUSH2 0x408 JUMPI DUP1 PUSH4 0xE46552C9 EQ PUSH2 0x445 JUMPI DUP1 PUSH4 0xE74B36DF EQ PUSH2 0x46E JUMPI DUP1 PUSH4 0xEB9992C3 EQ PUSH2 0x4AB JUMPI PUSH2 0x114 JUMP JUMPDEST DUP1 PUSH4 0x91AD27B4 EQ PUSH2 0x2F3 JUMPI DUP1 PUSH4 0x9759AC36 EQ PUSH2 0x31E JUMPI DUP1 PUSH4 0xAC9D6A2B EQ PUSH2 0x35B JUMPI DUP1 PUSH4 0xB374FF29 EQ PUSH2 0x377 JUMPI DUP1 PUSH4 0xBAB26FD2 EQ PUSH2 0x3B4 JUMPI PUSH2 0x114 JUMP JUMPDEST DUP1 PUSH4 0x4585E33B GT PUSH2 0xE7 JUMPI DUP1 PUSH4 0x4585E33B EQ PUSH2 0x1E7 JUMPI DUP1 PUSH4 0x50597F8A EQ PUSH2 0x210 JUMPI DUP1 PUSH4 0x653CBA7D EQ PUSH2 0x24D JUMPI DUP1 PUSH4 0x6E04FF0D EQ PUSH2 0x28A JUMPI DUP1 PUSH4 0x893D20E8 EQ PUSH2 0x2C8 JUMPI PUSH2 0x114 JUMP JUMPDEST DUP1 PUSH4 0x1B43C3E EQ PUSH2 0x119 JUMPI DUP1 PUSH4 0x12998301 EQ PUSH2 0x144 JUMPI DUP1 PUSH4 0x24405AA9 EQ PUSH2 0x181 JUMPI DUP1 PUSH4 0x24445AEB EQ PUSH2 0x1BE JUMPI JUMPDEST PUSH1 0x0 DUP1 REVERT JUMPDEST CALLVALUE DUP1 ISZERO PUSH2 0x125 JUMPI PUSH1 0x0 DUP1 REVERT JUMPDEST POP PUSH2 0x12E PUSH2 0x4C2 JUMP JUMPDEST PUSH1 0x40 MLOAD PUSH2 0x13B SWAP2 SWAP1 PUSH2 0x2DD4 JUMP JUMPDEST PUSH1 0x40 MLOAD DUP1 SWAP2 SUB SWAP1 RETURN JUMPDEST CALLVALUE DUP1 ISZERO PUSH2 0x150 JUMPI PUSH1 0x0 DUP1 REVERT JUMPDEST POP PUSH2 0x16B PUSH1 0x4 DUP1 CALLDATASIZE SUB DUP2 ADD SWAP1 PUSH2 0x166 SWAP2 SWAP1 PUSH2 0x2F75 JUMP JUMPDEST PUSH2 0x508 JUMP JUMPDEST PUSH1 0x40 MLOAD PUSH2 0x178 SWAP2 SWAP1 PUSH2 0x3012 JUMP JUMPDEST PUSH1 0x40 MLOAD DUP1 SWAP2 SUB SWAP1 RETURN JUMPDEST CALLVALUE DUP1 ISZERO PUSH2 0x18D JUMPI PUSH1 0x0 DUP1 REVERT JUMPDEST POP PUSH2 0x1A8 PUSH1 0x4 DUP1 CALLDATASIZE SUB DUP2 ADD SWAP1 PUSH2 0x1A3 SWAP2 SWAP1 PUSH2 0x2F75 JUMP JUMPDEST PUSH2 0x671 JUMP JUMPDEST PUSH1 0x40 MLOAD PUSH2 0x1B5 SWAP2 SWAP1 PUSH2 0x30AC JUMP JUMPDEST PUSH1 0x40 MLOAD DUP1 SWAP2 SUB SWAP1 RETURN JUMPDEST CALLVALUE DUP1 ISZERO PUSH2 0x1CA JUMPI PUSH1 0x0 DUP1 REVERT JUMPDEST POP PUSH2 0x1E5 PUSH1 0x4 DUP1 CALLDATASIZE SUB DUP2 ADD SWAP1 PUSH2 0x1E0 SWAP2 SWAP1 PUSH2 0x30FA JUMP JUMPDEST PUSH2 0x842 JUMP JUMPDEST STOP JUMPDEST CALLVALUE DUP1 ISZERO PUSH2 0x1F3 JUMPI PUSH1 0x0 DUP1 REVERT JUMPDEST POP PUSH2 0x20E PUSH1 0x4 DUP1 CALLDATASIZE SUB DUP2 ADD SWAP1 PUSH2 0x209 SWAP2 SWAP1 PUSH2 0x31E5 JUMP JUMPDEST PUSH2 0xE04 JUMP JUMPDEST STOP JUMPDEST CALLVALUE DUP1 ISZERO PUSH2 0x21C JUMPI PUSH1 0x0 DUP1 REVERT JUMPDEST POP PUSH2 0x237 PUSH1 0x4 DUP1 CALLDATASIZE SUB DUP2 ADD SWAP1 PUSH2 0x232 SWAP2 SWAP1 PUSH2 0x3232 JUMP JUMPDEST PUSH2 0x10FF JUMP JUMPDEST PUSH1 0x40 MLOAD PUSH2 0x244 SWAP2 SWAP1 PUSH2 0x3387 JUMP JUMPDEST PUSH1 0x40 MLOAD DUP1 SWAP2 SUB SWAP1 RETURN JUMPDEST CALLVALUE DUP1 ISZERO PUSH2 0x259 JUMPI PUSH1 0x0 DUP1 REVERT JUMPDEST POP PUSH2 0x274 PUSH1 0x4 DUP1 CALLDATASIZE SUB DUP2 ADD SWAP1 PUSH2 0x26F SWAP2 SWAP1 PUSH2 0x3232 JUMP JUMPDEST PUSH2 0x12FA JUMP JUMPDEST PUSH1 0x40 MLOAD PUSH2 0x281 SWAP2 SWAP1 PUSH2 0x2DD4 JUMP JUMPDEST PUSH1 0x40 MLOAD DUP1 SWAP2 SUB SWAP1 RETURN JUMPDEST CALLVALUE DUP1 ISZERO PUSH2 0x296 JUMPI PUSH1 0x0 DUP1 REVERT JUMPDEST POP PUSH2 0x2B1 PUSH1 0x4 DUP1 CALLDATASIZE SUB DUP2 ADD SWAP1 PUSH2 0x2AC SWAP2 SWAP1 PUSH2 0x344A JUMP JUMPDEST PUSH2 0x1426 JUMP JUMPDEST PUSH1 0x40 MLOAD PUSH2 0x2BF SWAP3 SWAP2 SWAP1 PUSH2 0x3503 JUMP JUMPDEST PUSH1 0x40 MLOAD DUP1 SWAP2 SUB SWAP1 RETURN JUMPDEST CALLVALUE DUP1 ISZERO PUSH2 0x2D4 JUMPI PUSH1 0x0 DUP1 REVERT JUMPDEST POP PUSH2 0x2DD PUSH2 0x14D7 JUMP JUMPDEST PUSH1 0x40 MLOAD PUSH2 0x2EA SWAP2 SWAP1 PUSH2 0x3012 JUMP JUMPDEST PUSH1 0x40 MLOAD DUP1 SWAP2 SUB SWAP1 RETURN JUMPDEST CALLVALUE DUP1 ISZERO PUSH2 0x2FF JUMPI PUSH1 0x0 DUP1 REVERT JUMPDEST POP PUSH2 0x308 PUSH2 0x153B JUMP JUMPDEST PUSH1 0x40 MLOAD PUSH2 0x315 SWAP2 SWAP1 PUSH2 0x2DD4 JUMP JUMPDEST PUSH1 0x40 MLOAD DUP1 SWAP2 SUB SWAP1 RETURN JUMPDEST CALLVALUE DUP1 ISZERO PUSH2 0x32A JUMPI PUSH1 0x0 DUP1 REVERT JUMPDEST POP PUSH2 0x345 PUSH1 0x4 DUP1 CALLDATASIZE SUB DUP2 ADD SWAP1 PUSH2 0x340 SWAP2 SWAP1 PUSH2 0x3232 JUMP JUMPDEST PUSH2 0x159F JUMP JUMPDEST PUSH1 0x40 MLOAD PUSH2 0x352 SWAP2 SWAP1 PUSH2 0x2DD4 JUMP JUMPDEST PUSH1 0x40 MLOAD DUP1 SWAP2 SUB SWAP1 RETURN JUMPDEST PUSH2 0x375 PUSH1 0x4 DUP1 CALLDATASIZE SUB DUP2 ADD SWAP1 PUSH2 0x370 SWAP2 SWAP1 PUSH2 0x3533 JUMP JUMPDEST PUSH2 0x16CB JUMP JUMPDEST STOP JUMPDEST CALLVALUE DUP1 ISZERO PUSH2 0x383 JUMPI PUSH1 0x0 DUP1 REVERT JUMPDEST POP PUSH2 0x39E PUSH1 0x4 DUP1 CALLDATASIZE SUB DUP2 ADD SWAP1 PUSH2 0x399 SWAP2 SWAP1 PUSH2 0x3232 JUMP JUMPDEST PUSH2 0x1AC5 JUMP JUMPDEST PUSH1 0x40 MLOAD PUSH2 0x3AB SWAP2 SWAP1 PUSH2 0x3649 JUMP JUMPDEST PUSH1 0x40 MLOAD DUP1 SWAP2 SUB SWAP1 RETURN JUMPDEST CALLVALUE DUP1 ISZERO PUSH2 0x3C0 JUMPI PUSH1 0x0 DUP1 REVERT JUMPDEST POP PUSH2 0x3C9 PUSH2 0x1BFE JUMP JUMPDEST PUSH1 0x40 MLOAD PUSH2 0x3D6 SWAP2 SWAP1 PUSH2 0x2DD4 JUMP JUMPDEST PUSH1 0x40 MLOAD DUP1 SWAP2 SUB SWAP1 RETURN JUMPDEST CALLVALUE DUP1 ISZERO PUSH2 0x3EB JUMPI PUSH1 0x0 DUP1 REVERT JUMPDEST POP PUSH2 0x406 PUSH1 0x4 DUP1 CALLDATASIZE SUB DUP2 ADD SWAP1 PUSH2 0x401 SWAP2 SWAP1 PUSH2 0x3664 JUMP JUMPDEST PUSH2 0x1C62 JUMP JUMPDEST STOP JUMPDEST CALLVALUE DUP1 ISZERO PUSH2 0x414 JUMPI PUSH1 0x0 DUP1 REVERT JUMPDEST POP PUSH2 0x42F PUSH1 0x4 DUP1 CALLDATASIZE SUB DUP2 ADD SWAP1 PUSH2 0x42A SWAP2 SWAP1 PUSH2 0x3232 JUMP JUMPDEST PUSH2 0x2246 JUMP JUMPDEST PUSH1 0x40 MLOAD PUSH2 0x43C SWAP2 SWAP1 PUSH2 0x30AC JUMP JUMPDEST PUSH1 0x40 MLOAD DUP1 SWAP2 SUB SWAP1 RETURN JUMPDEST CALLVALUE DUP1 ISZERO PUSH2 0x451 JUMPI PUSH1 0x0 DUP1 REVERT JUMPDEST POP PUSH2 0x46C PUSH1 0x4 DUP1 CALLDATASIZE SUB DUP2 ADD SWAP1 PUSH2 0x467 SWAP2 SWAP1 PUSH2 0x3664 JUMP JUMPDEST PUSH2 0x2335 JUMP JUMPDEST STOP JUMPDEST CALLVALUE DUP1 ISZERO PUSH2 0x47A JUMPI PUSH1 0x0 DUP1 REVERT JUMPDEST POP PUSH2 0x495 PUSH1 0x4 DUP1 CALLDATASIZE SUB DUP2 ADD SWAP1 PUSH2 0x490 SWAP2 SWAP1 PUSH2 0x3232 JUMP JUMPDEST PUSH2 0x26EA JUMP JUMPDEST PUSH1 0x40 MLOAD PUSH2 0x4A2 SWAP2 SWAP1 PUSH2 0x2DD4 JUMP JUMPDEST PUSH1 0x40 MLOAD DUP1 SWAP2 SUB SWAP1 RETURN JUMPDEST CALLVALUE DUP1 ISZERO PUSH2 0x4B7 JUMPI PUSH1 0x0 DUP1 REVERT JUMPDEST POP PUSH2 0x4C0 PUSH2 0x2842 JUMP JUMPDEST STOP JUMPDEST PUSH1 0x0 PUSH2 0x4D8 PUSH8 0xAB627533B723266E PUSH1 0xC0 SHL PUSH2 0x2B9E JUMP JUMPDEST PUSH2 0x4EC PUSH8 0x9ED9970BD766BBA5 PUSH1 0xC0 SHL PUSH2 0x2B9E JUMP JUMPDEST PUSH2 0x500 PUSH8 0xACD79AC79C4550D9 PUSH1 0xC0 SHL PUSH2 0x2B9E JUMP JUMPDEST PUSH1 0x3 SLOAD SWAP1 POP SWAP1 JUMP JUMPDEST PUSH1 0x0 PUSH2 0x51E PUSH8 0x778BDBA04D756760 PUSH1 0xC0 SHL PUSH2 0x2B9E JUMP JUMPDEST PUSH2 0x532 PUSH8 0x92801325CDD8B4ED PUSH1 0xC0 SHL PUSH2 0x2B9E JUMP JUMPDEST PUSH2 0x546 PUSH8 0x7658A90913E55164 PUSH1 0xC0 SHL PUSH2 0x2B9E JUMP JUMPDEST PUSH1 0x0 PUSH1 0x1 DUP5 PUSH1 0x40 MLOAD PUSH2 0x558 SWAP2 SWAP1 PUSH2 0x36CD JUMP JUMPDEST SWAP1 DUP2 MSTORE PUSH1 0x20 ADD PUSH1 0x40 MLOAD DUP1 SWAP2 SUB SWAP1 KECCAK256 PUSH1 0x3 ADD SLOAD GT ISZERO PUSH2 0x611 JUMPI PUSH2 0x584 PUSH8 0x4D2C5C89CFB36ABE PUSH1 0xC0 SHL PUSH2 0x2B9E JUMP JUMPDEST PUSH2 0x598 PUSH8 0xF170DDC137AAC677 PUSH1 0xC0 SHL PUSH2 0x2B9E JUMP JUMPDEST PUSH2 0x5AC PUSH8 0x96646CAAC8A21A3B PUSH1 0xC0 SHL PUSH2 0x2B9E JUMP JUMPDEST PUSH1 0x1 DUP4 PUSH1 0x40 MLOAD PUSH2 0x5BC SWAP2 SWAP1 PUSH2 0x36CD JUMP JUMPDEST SWAP1 DUP2 MSTORE PUSH1 0x20 ADD PUSH1 0x40 MLOAD DUP1 SWAP2 SUB SWAP1 KECCAK256 PUSH1 0x6 ADD DUP3 DUP2 SLOAD DUP2 LT PUSH2 0x5DF JUMPI PUSH2 0x5DE PUSH2 0x36E4 JUMP JUMPDEST JUMPDEST SWAP1 PUSH1 0x0 MSTORE PUSH1 0x20 PUSH1 0x0 KECCAK256 ADD PUSH1 0x0 SWAP1 SLOAD SWAP1 PUSH2 0x100 EXP SWAP1 DIV PUSH20 0xFFFFFFFFFFFFFFFFFFFFFFFFFFFFFFFFFFFFFFFF AND SWAP1 POP PUSH2 0x66B JUMP JUMPDEST PUSH2 0x625 PUSH8 0x28996B3655BA7934 PUSH1 0xC0 SHL PUSH2 0x2B9E JUMP JUMPDEST PUSH2 0x639 PUSH8 0x5AED686079627EF9 PUSH1 0xC0 SHL PUSH2 0x2B9E JUMP JUMPDEST PUSH1 0x40 MLOAD PUSH32 0xB01E933700000000000000000000000000000000000000000000000000000000 DUP2 MSTORE PUSH1 0x4 ADD PUSH1 0x40 MLOAD DUP1 SWAP2 SUB SWAP1 REVERT JUMPDEST SWAP3 SWAP2 POP POP JUMP JUMPDEST PUSH1 0x60 PUSH2 0x687 PUSH8 0xD7BFCC717EE13238 PUSH1 0xC0 SHL PUSH2 0x2B9E JUMP JUMPDEST PUSH2 0x69B PUSH8 0x6D7166FCD8663955 PUSH1 0xC0 SHL PUSH2 0x2B9E JUMP JUMPDEST PUSH2 0x6AF PUSH8 0x4DAEE8C2A40AB667 PUSH1 0xC0 SHL PUSH2 0x2B9E JUMP JUMPDEST PUSH1 0x0 PUSH1 0x1 DUP5 PUSH1 0x40 MLOAD PUSH2 0x6C1 SWAP2 SWAP1 PUSH2 0x36CD JUMP JUMPDEST SWAP1 DUP2 MSTORE PUSH1 0x20 ADD PUSH1 0x40 MLOAD DUP1 SWAP2 SUB SWAP1 KECCAK256 PUSH1 0x3 ADD SLOAD GT ISZERO PUSH2 0x7E2 JUMPI PUSH2 0x6ED PUSH8 0x8759AFA93314EA9C PUSH1 0xC0 SHL PUSH2 0x2B9E JUMP JUMPDEST PUSH2 0x701 PUSH8 0x52432C97D3367AAD PUSH1 0xC0 SHL PUSH2 0x2B9E JUMP JUMPDEST PUSH2 0x715 PUSH8 0xB95D96DBBF0AF4F6 PUSH1 0xC0 SHL PUSH2 0x2B9E JUMP JUMPDEST PUSH1 0x1 DUP4 PUSH1 0x40 MLOAD PUSH2 0x725 SWAP2 SWAP1 PUSH2 0x36CD JUMP JUMPDEST SWAP1 DUP2 MSTORE PUSH1 0x20 ADD PUSH1 0x40 MLOAD DUP1 SWAP2 SUB SWAP1 KECCAK256 PUSH1 0x5 ADD DUP3 DUP2 SLOAD DUP2 LT PUSH2 0x748 JUMPI PUSH2 0x747 PUSH2 0x36E4 JUMP JUMPDEST JUMPDEST SWAP1 PUSH1 0x0 MSTORE PUSH1 0x20 PUSH1 0x0 KECCAK256 ADD DUP1 SLOAD PUSH2 0x75D SWAP1 PUSH2 0x3742 JUMP JUMPDEST DUP1 PUSH1 0x1F ADD PUSH1 0x20 DUP1 SWAP2 DIV MUL PUSH1 0x20 ADD PUSH1 0x40 MLOAD SWAP1 DUP2 ADD PUSH1 0x40 MSTORE DUP1 SWAP3 SWAP2 SWAP1 DUP2 DUP2 MSTORE PUSH1 0x20 ADD DUP3 DUP1 SLOAD PUSH2 0x789 SWAP1 PUSH2 0x3742 JUMP JUMPDEST DUP1 ISZERO PUSH2 0x7D6 JUMPI DUP1 PUSH1 0x1F LT PUSH2 0x7AB JUMPI PUSH2 0x100 DUP1 DUP4 SLOAD DIV MUL DUP4 MSTORE SWAP2 PUSH1 0x20 ADD SWAP2 PUSH2 0x7D6 JUMP JUMPDEST DUP3 ADD SWAP2 SWAP1 PUSH1 0x0 MSTORE PUSH1 0x20 PUSH1 0x0 KECCAK256 SWAP1 JUMPDEST DUP2 SLOAD DUP2 MSTORE SWAP1 PUSH1 0x1 ADD SWAP1 PUSH1 0x20 ADD DUP1 DUP4 GT PUSH2 0x7B9 JUMPI DUP3 SWAP1 SUB PUSH1 0x1F AND DUP3 ADD SWAP2 JUMPDEST POP POP POP POP POP SWAP1 POP PUSH2 0x83C JUMP JUMPDEST PUSH2 0x7F6 PUSH8 0x7BBE46A623328770 PUSH1 0xC0 SHL PUSH2 0x2B9E JUMP JUMPDEST PUSH2 0x80A PUSH8 0x9DC9623EDB8DB007 PUSH1 0xC0 SHL PUSH2 0x2B9E JUMP JUMPDEST PUSH1 0x40 MLOAD PUSH32 0xB01E933700000000000000000000000000000000000000000000000000000000 DUP2 MSTORE PUSH1 0x4 ADD PUSH1 0x40 MLOAD DUP1 SWAP2 SUB SWAP1 REVERT JUMPDEST SWAP3 SWAP2 POP POP JUMP JUMPDEST PUSH2 0x856 PUSH8 0x54AA59C0D549A1F PUSH1 0xC0 SHL PUSH2 0x2B9E JUMP JUMPDEST PUSH2 0x86A PUSH8 0xB7A8048E78E7D9A8 PUSH1 0xC0 SHL PUSH2 0x2B9E JUMP JUMPDEST PUSH2 0x87E PUSH8 0x57411EBF80BE98D9 PUSH1 0xC0 SHL PUSH2 0x2B9E JUMP JUMPDEST PUSH2 0x892 PUSH8 0xA7AEF1BA4E5635DD PUSH1 0xC0 SHL PUSH2 0x2B9E JUMP JUMPDEST PUSH1 0x0 DUP1 SLOAD SWAP1 PUSH2 0x100 EXP SWAP1 DIV PUSH20 0xFFFFFFFFFFFFFFFFFFFFFFFFFFFFFFFFFFFFFFFF AND PUSH20 0xFFFFFFFFFFFFFFFFFFFFFFFFFFFFFFFFFFFFFFFF AND CALLER PUSH20 0xFFFFFFFFFFFFFFFFFFFFFFFFFFFFFFFFFFFFFFFF AND EQ PUSH2 0x92B JUMPI PUSH2 0x8F9 PUSH8 0xF9B7CBD78159EA5 PUSH1 0xC0 SHL PUSH2 0x2B9E JUMP JUMPDEST PUSH1 0x40 MLOAD PUSH32 0xBA34867000000000000000000000000000000000000000000000000000000000 DUP2 MSTORE PUSH1 0x4 ADD PUSH1 0x40 MLOAD DUP1 SWAP2 SUB SWAP1 REVERT JUMPDEST PUSH2 0x93F PUSH8 0xB6029CE5811A7E75 PUSH1 0xC0 SHL PUSH2 0x2B9E JUMP JUMPDEST PUSH2 0x953 PUSH8 0x33F251FEAA0C0871 PUSH1 0xC0 SHL PUSH2 0x2B9E JUMP JUMPDEST PUSH2 0x967 PUSH8 0x8D30AF0D524B1711 PUSH1 0xC0 SHL PUSH2 0x2B9E JUMP JUMPDEST PUSH2 0x97B PUSH8 0x8866F175895E52C0 PUSH1 0xC0 SHL PUSH2 0x2B9E JUMP JUMPDEST PUSH2 0x98F PUSH8 0xD9761718EBB8DB3 PUSH1 0xC0 SHL PUSH2 0x2B9E JUMP JUMPDEST PUSH2 0x9A3 PUSH8 0xE83A0B71075018E3 PUSH1 0xC0 SHL PUSH2 0x2B9E JUMP JUMPDEST PUSH1 0x1 DUP4 PUSH1 0x40 MLOAD PUSH2 0x9B3 SWAP2 SWAP1 PUSH2 0x36CD JUMP JUMPDEST SWAP1 DUP2 MSTORE PUSH1 0x20 ADD PUSH1 0x40 MLOAD DUP1 SWAP2 SUB SWAP1 KECCAK256 PUSH1 0x4 ADD SLOAD PUSH1 0x1 DUP5 PUSH1 0x40 MLOAD PUSH2 0x9D5 SWAP2 SWAP1 PUSH2 0x36CD JUMP JUMPDEST SWAP1 DUP2 MSTORE PUSH1 0x20 ADD PUSH1 0x40 MLOAD DUP1 SWAP2 SUB SWAP1 KECCAK256 PUSH1 0x3 ADD SLOAD GT ISZERO PUSH2 0xDA5 JUMPI PUSH2 0xA01 PUSH8 0x29AB741F23805E26 PUSH1 0xC0 SHL PUSH2 0x2B9E JUMP JUMPDEST PUSH2 0xA15 PUSH8 0x99CDA007D8D8C246 PUSH1 0xC0 SHL PUSH2 0x2B9E JUMP JUMPDEST PUSH2 0xA29 PUSH8 0x3A2921694939A9DF PUSH1 0xC0 SHL PUSH2 0x2B9E JUMP JUMPDEST PUSH1 0x1 DUP4 PUSH1 0x40 MLOAD PUSH2 0xA39 SWAP2 SWAP1 PUSH2 0x36CD JUMP JUMPDEST SWAP1 DUP2 MSTORE PUSH1 0x20 ADD PUSH1 0x40 MLOAD DUP1 SWAP2 SUB SWAP1 KECCAK256 PUSH1 0x5 ADD DUP3 SWAP1 DUP1 PUSH1 0x1 DUP2 SLOAD ADD DUP1 DUP3 SSTORE DUP1 SWAP2 POP POP PUSH1 0x1 SWAP1 SUB SWAP1 PUSH1 0x0 MSTORE PUSH1 0x20 PUSH1 0x0 KECCAK256 ADD PUSH1 0x0 SWAP1 SWAP2 SWAP1 SWAP2 SWAP1 SWAP2 POP SWAP1 DUP2 PUSH2 0xA7C SWAP2 SWAP1 PUSH2 0x391F JUMP JUMPDEST POP PUSH2 0xA91 PUSH8 0x381ECEEE2FEA3EE PUSH1 0xC0 SHL PUSH2 0x2B9E JUMP JUMPDEST PUSH2 0xAA5 PUSH8 0xD4016976BA92616 PUSH1 0xC0 SHL PUSH2 0x2B9E JUMP JUMPDEST PUSH1 0x1 DUP4 PUSH1 0x40 MLOAD PUSH2 0xAB5 SWAP2 SWAP1 PUSH2 0x36CD JUMP JUMPDEST SWAP1 DUP2 MSTORE PUSH1 0x20 ADD PUSH1 0x40 MLOAD DUP1 SWAP2 SUB SWAP1 KECCAK256 PUSH1 0x6 ADD DUP2 SWAP1 DUP1 PUSH1 0x1 DUP2 SLOAD ADD DUP1 DUP3 SSTORE DUP1 SWAP2 POP POP PUSH1 0x1 SWAP1 SUB SWAP1 PUSH1 0x0 MSTORE PUSH1 0x20 PUSH1 0x0 KECCAK256 ADD PUSH1 0x0 SWAP1 SWAP2 SWAP1 SWAP2 SWAP1 SWAP2 PUSH2 0x100 EXP DUP2 SLOAD DUP2 PUSH20 0xFFFFFFFFFFFFFFFFFFFFFFFFFFFFFFFFFFFFFFFF MUL NOT AND SWAP1 DUP4 PUSH20 0xFFFFFFFFFFFFFFFFFFFFFFFFFFFFFFFFFFFFFFFF AND MUL OR SWAP1 SSTORE POP PUSH2 0xB3B PUSH8 0xBCC3ECDF369BED9D PUSH1 0xC0 SHL PUSH2 0x2B9E JUMP JUMPDEST PUSH1 0x1 DUP4 PUSH1 0x40 MLOAD PUSH2 0xB4B SWAP2 SWAP1 PUSH2 0x36CD JUMP JUMPDEST SWAP1 DUP2 MSTORE PUSH1 0x20 ADD PUSH1 0x40 MLOAD DUP1 SWAP2 SUB SWAP1 KECCAK256 PUSH1 0x4 ADD PUSH1 0x0 DUP2 SLOAD DUP1 SWAP3 SWAP2 SWAP1 PUSH2 0xB6D SWAP1 PUSH2 0x3A20 JUMP JUMPDEST SWAP2 SWAP1 POP SSTORE POP PUSH2 0xB86 PUSH8 0x654E94B83ABC9231 PUSH1 0xC0 SHL PUSH2 0x2B9E JUMP JUMPDEST PUSH2 0xB9A PUSH8 0xEB708CFC10328B73 PUSH1 0xC0 SHL PUSH2 0x2B9E JUMP JUMPDEST PUSH1 0x1 DUP4 PUSH1 0x40 MLOAD PUSH2 0xBAA SWAP2 SWAP1 PUSH2 0x36CD JUMP JUMPDEST SWAP1 DUP2 MSTORE PUSH1 0x20 ADD PUSH1 0x40 MLOAD DUP1 SWAP2 SUB SWAP1 KECCAK256 PUSH1 0x4 ADD SLOAD PUSH1 0x1 DUP5 PUSH1 0x40 MLOAD PUSH2 0xBCC SWAP2 SWAP1 PUSH2 0x36CD JUMP JUMPDEST SWAP1 DUP2 MSTORE PUSH1 0x20 ADD PUSH1 0x40 MLOAD DUP1 SWAP2 SUB SWAP1 KECCAK256 PUSH1 0x3 ADD SLOAD SUB PUSH2 0xD20 JUMPI PUSH2 0xBF7 PUSH8 0x63D832B157A4F7B1 PUSH1 0xC0 SHL PUSH2 0x2B9E JUMP JUMPDEST PUSH2 0xC0B PUSH8 0x34368C1A13F81690 PUSH1 0xC0 SHL PUSH2 0x2B9E JUMP JUMPDEST PUSH1 0x1 DUP1 DUP5 PUSH1 0x40 MLOAD PUSH2 0xC1C SWAP2 SWAP1 PUSH2 0x36CD JUMP JUMPDEST SWAP1 DUP2 MSTORE PUSH1 0x20 ADD PUSH1 0x40 MLOAD DUP1 SWAP2 SUB SWAP1 KECCAK256 PUSH1 0x8 ADD PUSH1 0x0 PUSH2 0x100 EXP DUP2 SLOAD DUP2 PUSH1 0xFF MUL NOT AND SWAP1 DUP4 PUSH1 0x2 DUP2 GT ISZERO PUSH2 0xC4F JUMPI PUSH2 0xC4E PUSH2 0x35D2 JUMP JUMPDEST JUMPDEST MUL OR SWAP1 SSTORE POP PUSH2 0xC68 PUSH8 0xEEFFEAE193C930B3 PUSH1 0xC0 SHL PUSH2 0x2B9E JUMP JUMPDEST PUSH2 0xC7C PUSH8 0x94D5A7C67606C482 PUSH1 0xC0 SHL PUSH2 0x2B9E JUMP JUMPDEST PUSH1 0x2 DUP4 SWAP1 DUP1 PUSH1 0x1 DUP2 SLOAD ADD DUP1 DUP3 SSTORE DUP1 SWAP2 POP POP PUSH1 0x1 SWAP1 SUB SWAP1 PUSH1 0x0 MSTORE PUSH1 0x20 PUSH1 0x0 KECCAK256 ADD PUSH1 0x0 SWAP1 SWAP2 SWAP1 SWAP2 SWAP1 SWAP2 POP SWAP1 DUP2 PUSH2 0xCB0 SWAP2 SWAP1 PUSH2 0x391F JUMP JUMPDEST POP PUSH2 0xCC5 PUSH8 0x1D6C78D53DDE6541 PUSH1 0xC0 SHL PUSH2 0x2B9E JUMP JUMPDEST PUSH2 0xCD9 PUSH8 0x1597318B8E431BD6 PUSH1 0xC0 SHL PUSH2 0x2B9E JUMP JUMPDEST DUP3 PUSH1 0x40 MLOAD PUSH2 0xCE7 SWAP2 SWAP1 PUSH2 0x36CD JUMP JUMPDEST PUSH1 0x40 MLOAD DUP1 SWAP2 SUB SWAP1 KECCAK256 PUSH32 0xC9629617AC320E57FA622F79C211617DE659A3B7CBDDA927E47DEA5E4C0AB4DA PUSH1 0x40 MLOAD PUSH1 0x40 MLOAD DUP1 SWAP2 SUB SWAP1 LOG2 PUSH2 0xD35 JUMP JUMPDEST PUSH2 0xD34 PUSH8 0xBDA666F3315852E5 PUSH1 0xC0 SHL PUSH2 0x2B9E JUMP JUMPDEST JUMPDEST PUSH2 0xD49 PUSH8 0xAB45506ECE85437B PUSH1 0xC0 SHL PUSH2 0x2B9E JUMP JUMPDEST PUSH2 0xD5D PUSH8 0xA35F21E0D76C89BE PUSH1 0xC0 SHL PUSH2 0x2B9E JUMP JUMPDEST DUP1 PUSH20 0xFFFFFFFFFFFFFFFFFFFFFFFFFFFFFFFFFFFFFFFF AND PUSH32 0x99CC064944E6569611B439843932FA853D46618D78CA5A8E3989BCC5614853D PUSH1 0x40 MLOAD PUSH1 0x40 MLOAD DUP1 SWAP2 SUB SWAP1 LOG2 PUSH2 0xDFF JUMP JUMPDEST PUSH2 0xDB9 PUSH8 0xDD563D93C1E6525B PUSH1 0xC0 SHL PUSH2 0x2B9E JUMP JUMPDEST PUSH2 0xDCD PUSH8 0xAC7271FFE9E9F456 PUSH1 0xC0 SHL PUSH2 0x2B9E JUMP JUMPDEST PUSH1 0x40 MLOAD PUSH32 0x13C8108E00000000000000000000000000000000000000000000000000000000 DUP2 MSTORE PUSH1 0x4 ADD PUSH1 0x40 MLOAD DUP1 SWAP2 SUB SWAP1 REVERT JUMPDEST POP POP POP JUMP JUMPDEST PUSH2 0xE18 PUSH8 0x18539C59DF80C481 PUSH1 0xC0 SHL PUSH2 0x2B9E JUMP JUMPDEST PUSH2 0xE2C PUSH8 0x6FC6EBFDC420C858 PUSH1 0xC0 SHL PUSH2 0x2B9E JUMP JUMPDEST PUSH2 0xE40 PUSH8 0x6A69B4969928A5C7 PUSH1 0xC0 SHL PUSH2 0x2B9E JUMP JUMPDEST PUSH1 0x0 PUSH2 0xE5A PUSH1 0x40 MLOAD DUP1 PUSH1 0x20 ADD PUSH1 0x40 MSTORE DUP1 PUSH1 0x0 DUP2 MSTORE POP PUSH2 0x1426 JUMP JUMPDEST POP SWAP1 POP PUSH2 0xE71 PUSH8 0xE1D12AD76A7C3FBA PUSH1 0xC0 SHL PUSH2 0x2B9E JUMP JUMPDEST PUSH2 0xE85 PUSH8 0xFF9EAEFBECB3C3E1 PUSH1 0xC0 SHL PUSH2 0x2B9E JUMP JUMPDEST DUP1 ISZERO PUSH2 0x10A0 JUMPI PUSH2 0xE9F PUSH8 0x13BF16335C64408C PUSH1 0xC0 SHL PUSH2 0x2B9E JUMP JUMPDEST PUSH2 0xEB3 PUSH8 0x5F1E57E14DE968E1 PUSH1 0xC0 SHL PUSH2 0x2B9E JUMP JUMPDEST PUSH2 0xEC7 PUSH8 0xEC29F0FECBDB11ED PUSH1 0xC0 SHL PUSH2 0x2B9E JUMP JUMPDEST PUSH1 0x0 PUSH1 0x2 DUP1 SLOAD DUP1 PUSH1 0x20 MUL PUSH1 0x20 ADD PUSH1 0x40 MLOAD SWAP1 DUP2 ADD PUSH1 0x40 MSTORE DUP1 SWAP3 SWAP2 SWAP1 DUP2 DUP2 MSTORE PUSH1 0x20 ADD PUSH1 0x0 SWAP1 JUMPDEST DUP3 DUP3 LT ISZERO PUSH2 0xF97 JUMPI DUP4 DUP3 SWAP1 PUSH1 0x0 MSTORE PUSH1 0x20 PUSH1 0x0 KECCAK256 ADD DUP1 SLOAD PUSH2 0xF0A SWAP1 PUSH2 0x3742 JUMP JUMPDEST DUP1 PUSH1 0x1F ADD PUSH1 0x20 DUP1 SWAP2 DIV MUL PUSH1 0x20 ADD PUSH1 0x40 MLOAD SWAP1 DUP2 ADD PUSH1 0x40 MSTORE DUP1 SWAP3 SWAP2 SWAP1 DUP2 DUP2 MSTORE PUSH1 0x20 ADD DUP3 DUP1 SLOAD PUSH2 0xF36 SWAP1 PUSH2 0x3742 JUMP JUMPDEST DUP1 ISZERO PUSH2 0xF83 JUMPI DUP1 PUSH1 0x1F LT PUSH2 0xF58 JUMPI PUSH2 0x100 DUP1 DUP4 SLOAD DIV MUL DUP4 MSTORE SWAP2 PUSH1 0x20 ADD SWAP2 PUSH2 0xF83 JUMP JUMPDEST DUP3 ADD SWAP2 SWAP1 PUSH1 0x0 MSTORE PUSH1 0x20 PUSH1 0x0 KECCAK256 SWAP1 JUMPDEST DUP2 SLOAD DUP2 MSTORE SWAP1 PUSH1 0x1 ADD SWAP1 PUSH1 0x20 ADD DUP1 DUP4 GT PUSH2 0xF66 JUMPI DUP3 SWAP1 SUB PUSH1 0x1F AND DUP3 ADD SWAP2 JUMPDEST POP POP POP POP POP DUP2 MSTORE PUSH1 0x20 ADD SWAP1 PUSH1 0x1 ADD SWAP1 PUSH2 0xEEB JUMP JUMPDEST POP POP POP POP SWAP1 POP PUSH2 0xFB1 PUSH8 0x2C91C22797B97FAF PUSH1 0xC0 SHL PUSH2 0x2B9E JUMP JUMPDEST PUSH2 0xFC5 PUSH8 0x8055612A90FEFDEF PUSH1 0xC0 SHL PUSH2 0x2B9E JUMP JUMPDEST PUSH1 0x0 JUMPDEST DUP2 MLOAD DUP2 LT ISZERO PUSH2 0x1099 JUMPI PUSH2 0xFE5 PUSH8 0x42077510B6BF9F9D PUSH1 0xC0 SHL PUSH2 0x2B9E JUMP JUMPDEST PUSH2 0xFF9 PUSH8 0x660C28708D98EB5A PUSH1 0xC0 SHL PUSH2 0x2B9E JUMP JUMPDEST PUSH2 0x1002 DUP2 PUSH2 0x1C62 JUMP JUMPDEST PUSH2 0x1016 PUSH8 0x25DD81091CD79583 PUSH1 0xC0 SHL PUSH2 0x2B9E JUMP JUMPDEST PUSH2 0x102A PUSH8 0xFCBC2B0D338F3776 PUSH1 0xC0 SHL PUSH2 0x2B9E JUMP JUMPDEST DUP2 DUP2 DUP2 MLOAD DUP2 LT PUSH2 0x103D JUMPI PUSH2 0x103C PUSH2 0x36E4 JUMP JUMPDEST JUMPDEST PUSH1 0x20 MUL PUSH1 0x20 ADD ADD MLOAD PUSH1 0x40 MLOAD PUSH2 0x1052 SWAP2 SWAP1 PUSH2 0x36CD JUMP JUMPDEST PUSH1 0x40 MLOAD DUP1 SWAP2 SUB SWAP1 KECCAK256 PUSH32 0xA7998895D8D2E7856091BD8A5895A54D831C4D6C8BD8A8611EC2C1F873872FEF PUSH1 0x40 MLOAD PUSH1 0x40 MLOAD DUP1 SWAP2 SUB SWAP1 LOG2 DUP1 DUP1 PUSH2 0x1091 SWAP1 PUSH2 0x3A20 JUMP JUMPDEST SWAP2 POP POP PUSH2 0xFC8 JUMP JUMPDEST POP POP PUSH2 0x10FA JUMP JUMPDEST PUSH2 0x10B4 PUSH8 0x13F6B0E9873EE7C3 PUSH1 0xC0 SHL PUSH2 0x2B9E JUMP JUMPDEST PUSH2 0x10C8 PUSH8 0x4DB99566FE5EAF26 PUSH1 0xC0 SHL PUSH2 0x2B9E JUMP JUMPDEST PUSH1 0x40 MLOAD PUSH32 0xE47D1A5100000000000000000000000000000000000000000000000000000000 DUP2 MSTORE PUSH1 0x4 ADD PUSH1 0x40 MLOAD DUP1 SWAP2 SUB SWAP1 REVERT JUMPDEST POP POP POP JUMP JUMPDEST PUSH1 0x60 PUSH2 0x1115 PUSH8 0x78744EC521704A8C PUSH1 0xC0 SHL PUSH2 0x2B9E JUMP JUMPDEST PUSH2 0x1129 PUSH8 0xFE2CF83670CA832B PUSH1 0xC0 SHL PUSH2 0x2B9E JUMP JUMPDEST PUSH2 0x113D PUSH8 0x415F03B9F2AD95C6 PUSH1 0xC0 SHL PUSH2 0x2B9E JUMP JUMPDEST PUSH1 0x0 PUSH1 0x1 DUP4 PUSH1 0x40 MLOAD PUSH2 0x114F SWAP2 SWAP1 PUSH2 0x36CD JUMP JUMPDEST SWAP1 DUP2 MSTORE PUSH1 0x20 ADD PUSH1 0x40 MLOAD DUP1 SWAP2 SUB SWAP1 KECCAK256 PUSH1 0x3 ADD SLOAD GT ISZERO PUSH2 0x129B JUMPI PUSH2 0x117B PUSH8 0xBE022897753EA36A PUSH1 0xC0 SHL PUSH2 0x2B9E JUMP JUMPDEST PUSH2 0x118F PUSH8 0xD020301591DF5881 PUSH1 0xC0 SHL PUSH2 0x2B9E JUMP JUMPDEST PUSH2 0x11A3 PUSH8 0x3C0672CAC9EBCC1 PUSH1 0xC0 SHL PUSH2 0x2B9E JUMP JUMPDEST PUSH1 0x1 DUP3 PUSH1 0x40 MLOAD PUSH2 0x11B3 SWAP2 SWAP1 PUSH2 0x36CD JUMP JUMPDEST SWAP1 DUP2 MSTORE PUSH1 0x20 ADD PUSH1 0x40 MLOAD DUP1 SWAP2 SUB SWAP1 KECCAK256 PUSH1 0x5 ADD DUP1 SLOAD DUP1 PUSH1 0x20 MUL PUSH1 0x20 ADD PUSH1 0x40 MLOAD SWAP1 DUP2 ADD PUSH1 0x40 MSTORE DUP1 SWAP3 SWAP2 SWAP1 DUP2 DUP2 MSTORE PUSH1 0x20 ADD PUSH1 0x0 SWAP1 JUMPDEST DUP3 DUP3 LT ISZERO PUSH2 0x1290 JUMPI DUP4 DUP3 SWAP1 PUSH1 0x0 MSTORE PUSH1 0x20 PUSH1 0x0 KECCAK256 ADD DUP1 SLOAD PUSH2 0x1203 SWAP1 PUSH2 0x3742 JUMP JUMPDEST DUP1 PUSH1 0x1F ADD PUSH1 0x20 DUP1 SWAP2 DIV MUL PUSH1 0x20 ADD PUSH1 0x40 MLOAD SWAP1 DUP2 ADD PUSH1 0x40 MSTORE DUP1 SWAP3 SWAP2 SWAP1 DUP2 DUP2 MSTORE PUSH1 0x20 ADD DUP3 DUP1 SLOAD PUSH2 0x122F SWAP1 PUSH2 0x3742 JUMP JUMPDEST DUP1 ISZERO PUSH2 0x127C JUMPI DUP1 PUSH1 0x1F LT PUSH2 0x1251 JUMPI PUSH2 0x100 DUP1 DUP4 SLOAD DIV MUL DUP4 MSTORE SWAP2 PUSH1 0x20 ADD SWAP2 PUSH2 0x127C JUMP JUMPDEST DUP3 ADD SWAP2 SWAP1 PUSH1 0x0 MSTORE PUSH1 0x20 PUSH1 0x0 KECCAK256 SWAP1 JUMPDEST DUP2 SLOAD DUP2 MSTORE SWAP1 PUSH1 0x1 ADD SWAP1 PUSH1 0x20 ADD DUP1 DUP4 GT PUSH2 0x125F JUMPI DUP3 SWAP1 SUB PUSH1 0x1F AND DUP3 ADD SWAP2 JUMPDEST POP POP POP POP POP DUP2 MSTORE PUSH1 0x20 ADD SWAP1 PUSH1 0x1 ADD SWAP1 PUSH2 0x11E4 JUMP JUMPDEST POP POP POP POP SWAP1 POP PUSH2 0x12F5 JUMP JUMPDEST PUSH2 0x12AF PUSH8 0x92DB10BF1F22C744 PUSH1 0xC0 SHL PUSH2 0x2B9E JUMP JUMPDEST PUSH2 0x12C3 PUSH8 0x5C39234EB8785AC4 PUSH1 0xC0 SHL PUSH2 0x2B9E JUMP JUMPDEST PUSH1 0x40 MLOAD PUSH32 0xB01E933700000000000000000000000000000000000000000000000000000000 DUP2 MSTORE PUSH1 0x4 ADD PUSH1 0x40 MLOAD DUP1 SWAP2 SUB SWAP1 REVERT JUMPDEST SWAP2 SWAP1 POP JUMP JUMPDEST PUSH1 0x0 PUSH2 0x1310 PUSH8 0x3BEFD3112EE20D62 PUSH1 0xC0 SHL PUSH2 0x2B9E JUMP JUMPDEST PUSH2 0x1324 PUSH8 0xD14C8C72F4C0563D PUSH1 0xC0 SHL PUSH2 0x2B9E JUMP JUMPDEST PUSH2 0x1338 PUSH8 0x8C7292E21770C48C PUSH1 0xC0 SHL PUSH2 0x2B9E JUMP JUMPDEST PUSH1 0x0 PUSH1 0x1 DUP4 PUSH1 0x40 MLOAD PUSH2 0x134A SWAP2 SWAP1 PUSH2 0x36CD JUMP JUMPDEST SWAP1 DUP2 MSTORE PUSH1 0x20 ADD PUSH1 0x40 MLOAD DUP1 SWAP2 SUB SWAP1 KECCAK256 PUSH1 0x3 ADD SLOAD GT ISZERO PUSH2 0x13C7 JUMPI PUSH2 0x1376 PUSH8 0xA960B765D2E6E7F4 PUSH1 0xC0 SHL PUSH2 0x2B9E JUMP JUMPDEST PUSH2 0x138A PUSH8 0xD3E8A5B0967F9C04 PUSH1 0xC0 SHL PUSH2 0x2B9E JUMP JUMPDEST PUSH2 0x139E PUSH8 0x301F4AA5E45E1F48 PUSH1 0xC0 SHL PUSH2 0x2B9E JUMP JUMPDEST PUSH1 0x1 DUP3 PUSH1 0x40 MLOAD PUSH2 0x13AE SWAP2 SWAP1 PUSH2 0x36CD JUMP JUMPDEST SWAP1 DUP2 MSTORE PUSH1 0x20 ADD PUSH1 0x40 MLOAD DUP1 SWAP2 SUB SWAP1 KECCAK256 PUSH1 0x7 ADD SLOAD SWAP1 POP PUSH2 0x1421 JUMP JUMPDEST PUSH2 0x13DB PUSH8 0x219880C82C695962 PUSH1 0xC0 SHL PUSH2 0x2B9E JUMP JUMPDEST PUSH2 0x13EF PUSH8 0x2B1870E844037D51 PUSH1 0xC0 SHL PUSH2 0x2B9E JUMP JUMPDEST PUSH1 0x40 MLOAD PUSH32 0xB01E933700000000000000000000000000000000000000000000000000000000 DUP2 MSTORE PUSH1 0x4 ADD PUSH1 0x40 MLOAD DUP1 SWAP2 SUB SWAP1 REVERT JUMPDEST SWAP2 SWAP1 POP JUMP JUMPDEST PUSH1 0x0 PUSH1 0x60 PUSH2 0x143E PUSH8 0x84525C8F29AA48EE PUSH1 0xC0 SHL PUSH2 0x2B9E JUMP JUMPDEST PUSH2 0x1452 PUSH8 0xDE200875FB75ADD9 PUSH1 0xC0 SHL PUSH2 0x2B9E JUMP JUMPDEST PUSH2 0x1466 PUSH8 0x957BC792C8B9AAED PUSH1 0xC0 SHL PUSH2 0x2B9E JUMP JUMPDEST PUSH1 0x0 PUSH1 0x2 DUP1 SLOAD SWAP1 POP GT ISZERO PUSH2 0x14A5 JUMPI PUSH2 0x1488 PUSH8 0xBEFBA7DA156D041D PUSH1 0xC0 SHL PUSH2 0x2B9E JUMP JUMPDEST PUSH2 0x149C PUSH8 0x366EB439436BCD94 PUSH1 0xC0 SHL PUSH2 0x2B9E JUMP JUMPDEST PUSH1 0x1 SWAP2 POP PUSH2 0x14D2 JUMP JUMPDEST PUSH2 0x14B9 PUSH8 0x72A70A9A980CC86B PUSH1 0xC0 SHL PUSH2 0x2B9E JUMP JUMPDEST PUSH2 0x14CD PUSH8 0xDF01289CF90053F7 PUSH1 0xC0 SHL PUSH2 0x2B9E JUMP JUMPDEST PUSH1 0x0 SWAP2 POP JUMPDEST SWAP2 POP SWAP2 JUMP JUMPDEST PUSH1 0x0 PUSH2 0x14ED PUSH8 0xDC3F933B9462726F PUSH1 0xC0 SHL PUSH2 0x2B9E JUMP JUMPDEST PUSH2 0x1501 PUSH8 0x3EDF9FB0F7E76199 PUSH1 0xC0 SHL PUSH2 0x2B9E JUMP JUMPDEST PUSH2 0x1515 PUSH8 0x92F05C48A90F975 PUSH1 0xC0 SHL PUSH2 0x2B9E JUMP JUMPDEST PUSH1 0x0 DUP1 SLOAD SWAP1 PUSH2 0x100 EXP SWAP1 DIV PUSH20 0xFFFFFFFFFFFFFFFFFFFFFFFFFFFFFFFFFFFFFFFF AND SWAP1 POP SWAP1 JUMP JUMPDEST PUSH1 0x0 PUSH2 0x1551 PUSH8 0x7FBF1B05C13CF258 PUSH1 0xC0 SHL PUSH2 0x2B9E JUMP JUMPDEST PUSH2 0x1565 PUSH8 0x327DDFEF84722164 PUSH1 0xC0 SHL PUSH2 0x2B9E JUMP JUMPDEST PUSH2 0x1579 PUSH8 0x3AEAFD8E89213966 PUSH1 0xC0 SHL PUSH2 0x2B9E JUMP JUMPDEST PUSH32 0x0 SWAP1 POP SWAP1 JUMP JUMPDEST PUSH1 0x0 PUSH2 0x15B5 PUSH8 0xCAEE7449BDEFE7E2 PUSH1 0xC0 SHL PUSH2 0x2B9E JUMP JUMPDEST PUSH2 0x15C9 PUSH8 0x284F5DB1DC84DF1F PUSH1 0xC0 SHL PUSH2 0x2B9E JUMP JUMPDEST PUSH2 0x15DD PUSH8 0x60DF4B5A49378178 PUSH1 0xC0 SHL PUSH2 0x2B9E JUMP JUMPDEST PUSH1 0x0 PUSH1 0x1 DUP4 PUSH1 0x40 MLOAD PUSH2 0x15EF SWAP2 SWAP1 PUSH2 0x36CD JUMP JUMPDEST SWAP1 DUP2 MSTORE PUSH1 0x20 ADD PUSH1 0x40 MLOAD DUP1 SWAP2 SUB SWAP1 KECCAK256 PUSH1 0x3 ADD SLOAD GT ISZERO PUSH2 0x166C JUMPI PUSH2 0x161B PUSH8 0x315E58C82261BE0C PUSH1 0xC0 SHL PUSH2 0x2B9E JUMP JUMPDEST PUSH2 0x162F PUSH8 0x343A579791512B96 PUSH1 0xC0 SHL PUSH2 0x2B9E JUMP JUMPDEST PUSH2 0x1643 PUSH8 0xDCDEFD7196D31B40 PUSH1 0xC0 SHL PUSH2 0x2B9E JUMP JUMPDEST PUSH1 0x1 DUP3 PUSH1 0x40 MLOAD PUSH2 0x1653 SWAP2 SWAP1 PUSH2 0x36CD JUMP JUMPDEST SWAP1 DUP2 MSTORE PUSH1 0x20 ADD PUSH1 0x40 MLOAD DUP1 SWAP2 SUB SWAP1 KECCAK256 PUSH1 0x2 ADD SLOAD SWAP1 POP PUSH2 0x16C6 JUMP JUMPDEST PUSH2 0x1680 PUSH8 0x7673AD7650F5E54F PUSH1 0xC0 SHL PUSH2 0x2B9E JUMP JUMPDEST PUSH2 0x1694 PUSH8 0x7C879A38C0A67656 PUSH1 0xC0 SHL PUSH2 0x2B9E JUMP JUMPDEST PUSH1 0x40 MLOAD PUSH32 0xB01E933700000000000000000000000000000000000000000000000000000000 DUP2 MSTORE PUSH1 0x4 ADD PUSH1 0x40 MLOAD DUP1 SWAP2 SUB SWAP1 REVERT JUMPDEST SWAP2 SWAP1 POP JUMP JUMPDEST PUSH2 0x16DF PUSH8 0x564D2B4EE72D8DE7 PUSH1 0xC0 SHL PUSH2 0x2B9E JUMP JUMPDEST PUSH2 0x16F3 PUSH8 0x8ABB624FAD84B11F PUSH1 0xC0 SHL PUSH2 0x2B9E JUMP JUMPDEST PUSH2 0x1707 PUSH8 0xF443F7E07C7F8611 PUSH1 0xC0 SHL PUSH2 0x2B9E JUMP JUMPDEST DUP2 PUSH32 0x0 PUSH2 0x1733 SWAP2 SWAP1 PUSH2 0x3A68 JUMP JUMPDEST CALLVALUE LT ISZERO PUSH2 0x1794 JUMPI PUSH2 0x174E PUSH8 0xEF1D874CE10F6F26 PUSH1 0xC0 SHL PUSH2 0x2B9E JUMP JUMPDEST PUSH2 0x1762 PUSH8 0x2F88D6A067197D9C PUSH1 0xC0 SHL PUSH2 0x2B9E JUMP JUMPDEST PUSH1 0x40 MLOAD PUSH32 0xC09BB52500000000000000000000000000000000000000000000000000000000 DUP2 MSTORE PUSH1 0x4 ADD PUSH1 0x40 MLOAD DUP1 SWAP2 SUB SWAP1 REVERT JUMPDEST PUSH2 0x17A8 PUSH8 0x751D39B91BF27FF9 PUSH1 0xC0 SHL PUSH2 0x2B9E JUMP JUMPDEST PUSH2 0x17BC PUSH8 0xE7AF04FD3BEF1327 PUSH1 0xC0 SHL PUSH2 0x2B9E JUMP JUMPDEST PUSH32 0x0 PUSH1 0x3 PUSH1 0x0 DUP3 DUP3 SLOAD PUSH2 0x17EE SWAP2 SWAP1 PUSH2 0x3A68 JUMP JUMPDEST SWAP3 POP POP DUP2 SWAP1 SSTORE POP PUSH2 0x1809 PUSH8 0x620FEFE08661F4F3 PUSH1 0xC0 SHL PUSH2 0x2B9E JUMP JUMPDEST PUSH2 0x181D PUSH8 0x7995638DCAF1A919 PUSH1 0xC0 SHL PUSH2 0x2B9E JUMP JUMPDEST PUSH2 0x1825 PUSH2 0x2BA1 JUMP JUMPDEST PUSH2 0x1839 PUSH8 0x6A770BDC540760A9 PUSH1 0xC0 SHL PUSH2 0x2B9E JUMP JUMPDEST DUP4 DUP2 PUSH1 0x0 ADD DUP2 SWAP1 MSTORE POP PUSH2 0x1856 PUSH8 0x139C1E74324E9118 PUSH1 0xC0 SHL PUSH2 0x2B9E JUMP JUMPDEST CALLER DUP2 PUSH1 0x20 ADD SWAP1 PUSH20 0xFFFFFFFFFFFFFFFFFFFFFFFFFFFFFFFFFFFFFFFF AND SWAP1 DUP2 PUSH20 0xFFFFFFFFFFFFFFFFFFFFFFFFFFFFFFFFFFFFFFFF AND DUP2 MSTORE POP POP PUSH2 0x18A2 PUSH8 0x7D8DAEAAEC14259F PUSH1 0xC0 SHL PUSH2 0x2B9E JUMP JUMPDEST DUP3 DUP2 PUSH1 0x40 ADD DUP2 DUP2 MSTORE POP POP PUSH2 0x18C0 PUSH8 0x8D9CC6E88138BD4 PUSH1 0xC0 SHL PUSH2 0x2B9E JUMP JUMPDEST DUP2 DUP2 PUSH1 0x60 ADD DUP2 DUP2 MSTORE POP POP PUSH2 0x18DE PUSH8 0xDAA8781A8B456F98 PUSH1 0xC0 SHL PUSH2 0x2B9E JUMP JUMPDEST TIMESTAMP DUP2 PUSH1 0xE0 ADD DUP2 DUP2 MSTORE POP POP PUSH2 0x18FC PUSH8 0xB417A554820CC636 PUSH1 0xC0 SHL PUSH2 0x2B9E JUMP JUMPDEST PUSH1 0x0 DUP2 PUSH2 0x100 ADD SWAP1 PUSH1 0x2 DUP2 GT ISZERO PUSH2 0x1916 JUMPI PUSH2 0x1915 PUSH2 0x35D2 JUMP JUMPDEST JUMPDEST SWAP1 DUP2 PUSH1 0x2 DUP2 GT ISZERO PUSH2 0x192A JUMPI PUSH2 0x1929 PUSH2 0x35D2 JUMP JUMPDEST JUMPDEST DUP2 MSTORE POP POP PUSH2 0x1942 PUSH8 0x961E3172421A9F12 PUSH1 0xC0 SHL PUSH2 0x2B9E JUMP JUMPDEST DUP1 PUSH1 0x1 DUP7 PUSH1 0x40 MLOAD PUSH2 0x1953 SWAP2 SWAP1 PUSH2 0x36CD JUMP JUMPDEST SWAP1 DUP2 MSTORE PUSH1 0x20 ADD PUSH1 0x40 MLOAD DUP1 SWAP2 SUB SWAP1 KECCAK256 PUSH1 0x0 DUP3 ADD MLOAD DUP2 PUSH1 0x0 ADD SWAP1 DUP2 PUSH2 0x1976 SWAP2 SWAP1 PUSH2 0x391F JUMP JUMPDEST POP PUSH1 0x20 DUP3 ADD MLOAD DUP2 PUSH1 0x1 ADD PUSH1 0x0 PUSH2 0x100 EXP DUP2 SLOAD DUP2 PUSH20 0xFFFFFFFFFFFFFFFFFFFFFFFFFFFFFFFFFFFFFFFF MUL NOT AND SWAP1 DUP4 PUSH20 0xFFFFFFFFFFFFFFFFFFFFFFFFFFFFFFFFFFFFFFFF AND MUL OR SWAP1 SSTORE POP PUSH1 0x40 DUP3 ADD MLOAD DUP2 PUSH1 0x2 ADD SSTORE PUSH1 0x60 DUP3 ADD MLOAD DUP2 PUSH1 0x3 ADD SSTORE PUSH1 0x80 DUP3 ADD MLOAD DUP2 PUSH1 0x4 ADD SSTORE PUSH1 0xA0 DUP3 ADD MLOAD DUP2 PUSH1 0x5 ADD SWAP1 DUP1 MLOAD SWAP1 PUSH1 0x20 ADD SWAP1 PUSH2 0x19F8 SWAP3 SWAP2 SWAP1 PUSH2 0x2C15 JUMP JUMPDEST POP PUSH1 0xC0 DUP3 ADD MLOAD DUP2 PUSH1 0x6 ADD SWAP1 DUP1 MLOAD SWAP1 PUSH1 0x20 ADD SWAP1 PUSH2 0x1A15 SWAP3 SWAP2 SWAP1 PUSH2 0x2C6E JUMP JUMPDEST POP PUSH1 0xE0 DUP3 ADD MLOAD DUP2 PUSH1 0x7 ADD SSTORE PUSH2 0x100 DUP3 ADD MLOAD DUP2 PUSH1 0x8 ADD PUSH1 0x0 PUSH2 0x100 EXP DUP2 SLOAD DUP2 PUSH1 0xFF MUL NOT AND SWAP1 DUP4 PUSH1 0x2 DUP2 GT ISZERO PUSH2 0x1A4C JUMPI PUSH2 0x1A4B PUSH2 0x35D2 JUMP JUMPDEST JUMPDEST MUL OR SWAP1 SSTORE POP SWAP1 POP POP PUSH2 0x1A68 PUSH8 0xBB426B1583F5B0EE PUSH1 0xC0 SHL PUSH2 0x2B9E JUMP JUMPDEST PUSH2 0x1A7C PUSH8 0xF7C9D919987D2315 PUSH1 0xC0 SHL PUSH2 0x2B9E JUMP JUMPDEST DUP5 PUSH1 0x40 MLOAD PUSH2 0x1A8A SWAP2 SWAP1 PUSH2 0x36CD JUMP JUMPDEST PUSH1 0x40 MLOAD DUP1 SWAP2 SUB SWAP1 KECCAK256 PUSH32 0xCC65C6FB1D804BA1DC418F9E3659483D310357279F035D45B8EA484FD6FE4A2F PUSH1 0x40 MLOAD PUSH1 0x40 MLOAD DUP1 SWAP2 SUB SWAP1 LOG2 POP POP POP POP POP JUMP JUMPDEST PUSH1 0x0 PUSH2 0x1ADB PUSH8 0xC593EA2958D6FED6 PUSH1 0xC0 SHL PUSH2 0x2B9E JUMP JUMPDEST PUSH2 0x1AEF PUSH8 0x9DAE1C4EE7F8C216 PUSH1 0xC0 SHL PUSH2 0x2B9E JUMP JUMPDEST PUSH2 0x1B03 PUSH8 0xF9662B1708F753DA PUSH1 0xC0 SHL PUSH2 0x2B9E JUMP JUMPDEST PUSH1 0x0 PUSH1 0x1 DUP4 PUSH1 0x40 MLOAD PUSH2 0x1B15 SWAP2 SWAP1 PUSH2 0x36CD JUMP JUMPDEST SWAP1 DUP2 MSTORE PUSH1 0x20 ADD PUSH1 0x40 MLOAD DUP1 SWAP2 SUB SWAP1 KECCAK256 PUSH1 0x3 ADD SLOAD GT ISZERO PUSH2 0x1B9F JUMPI PUSH2 0x1B41 PUSH8 0x93B1A961691BCF4D PUSH1 0xC0 SHL PUSH2 0x2B9E JUMP JUMPDEST PUSH2 0x1B55 PUSH8 0xA04F4172EAB12557 PUSH1 0xC0 SHL PUSH2 0x2B9E JUMP JUMPDEST PUSH2 0x1B69 PUSH8 0x70D519CDCA98767E PUSH1 0xC0 SHL PUSH2 0x2B9E JUMP JUMPDEST PUSH1 0x1 DUP3 PUSH1 0x40 MLOAD PUSH2 0x1B79 SWAP2 SWAP1 PUSH2 0x36CD JUMP JUMPDEST SWAP1 DUP2 MSTORE PUSH1 0x20 ADD PUSH1 0x40 MLOAD DUP1 SWAP2 SUB SWAP1 KECCAK256 PUSH1 0x8 ADD PUSH1 0x0 SWAP1 SLOAD SWAP1 PUSH2 0x100 EXP SWAP1 DIV PUSH1 0xFF AND SWAP1 POP PUSH2 0x1BF9 JUMP JUMPDEST PUSH2 0x1BB3 PUSH8 0x23917A732604F254 PUSH1 0xC0 SHL PUSH2 0x2B9E JUMP JUMPDEST PUSH2 0x1BC7 PUSH8 0x4571EA5D2FAC95B8 PUSH1 0xC0 SHL PUSH2 0x2B9E JUMP JUMPDEST PUSH1 0x40 MLOAD PUSH32 0xB01E933700000000000000000000000000000000000000000000000000000000 DUP2 MSTORE PUSH1 0x4 ADD PUSH1 0x40 MLOAD DUP1 SWAP2 SUB SWAP1 REVERT JUMPDEST SWAP2 SWAP1 POP JUMP JUMPDEST PUSH1 0x0 PUSH2 0x1C14 PUSH8 0x15D33888B66DF8FA PUSH1 0xC0 SHL PUSH2 0x2B9E JUMP JUMPDEST PUSH2 0x1C28 PUSH8 0x903FB0D824FBF600 PUSH1 0xC0 SHL PUSH2 0x2B9E JUMP JUMPDEST PUSH2 0x1C3C PUSH8 0x89B0F51280965AB2 PUSH1 0xC0 SHL PUSH2 0x2B9E JUMP JUMPDEST PUSH32 0x0 SWAP1 POP SWAP1 JUMP JUMPDEST PUSH2 0x1C76 PUSH8 0x689E60937CC7C4D2 PUSH1 0xC0 SHL PUSH2 0x2B9E JUMP JUMPDEST PUSH2 0x1C8A PUSH8 0x93AFBB912A5FC05A PUSH1 0xC0 SHL PUSH2 0x2B9E JUMP JUMPDEST PUSH2 0x1C9E PUSH8 0xF977E88171EC3645 PUSH1 0xC0 SHL PUSH2 0x2B9E JUMP JUMPDEST PUSH1 0x0 PUSH1 0x2 DUP1 SLOAD DUP1 PUSH1 0x20 MUL PUSH1 0x20 ADD PUSH1 0x40 MLOAD SWAP1 DUP2 ADD PUSH1 0x40 MSTORE DUP1 SWAP3 SWAP2 SWAP1 DUP2 DUP2 MSTORE PUSH1 0x20 ADD PUSH1 0x0 SWAP1 JUMPDEST DUP3 DUP3 LT ISZERO PUSH2 0x1D6E JUMPI DUP4 DUP3 SWAP1 PUSH1 0x0 MSTORE PUSH1 0x20 PUSH1 0x0 KECCAK256 ADD DUP1 SLOAD PUSH2 0x1CE1 SWAP1 PUSH2 0x3742 JUMP JUMPDEST DUP1 PUSH1 0x1F ADD PUSH1 0x20 DUP1 SWAP2 DIV MUL PUSH1 0x20 ADD PUSH1 0x40 MLOAD SWAP1 DUP2 ADD PUSH1 0x40 MSTORE DUP1 SWAP3 SWAP2 SWAP1 DUP2 DUP2 MSTORE PUSH1 0x20 ADD DUP3 DUP1 SLOAD PUSH2 0x1D0D SWAP1 PUSH2 0x3742 JUMP JUMPDEST DUP1 ISZERO PUSH2 0x1D5A JUMPI DUP1 PUSH1 0x1F LT PUSH2 0x1D2F JUMPI PUSH2 0x100 DUP1 DUP4 SLOAD DIV MUL DUP4 MSTORE SWAP2 PUSH1 0x20 ADD SWAP2 PUSH2 0x1D5A JUMP JUMPDEST DUP3 ADD SWAP2 SWAP1 PUSH1 0x0 MSTORE PUSH1 0x20 PUSH1 0x0 KECCAK256 SWAP1 JUMPDEST DUP2 SLOAD DUP2 MSTORE SWAP1 PUSH1 0x1 ADD SWAP1 PUSH1 0x20 ADD DUP1 DUP4 GT PUSH2 0x1D3D JUMPI DUP3 SWAP1 SUB PUSH1 0x1F AND DUP3 ADD SWAP2 JUMPDEST POP POP POP POP POP DUP2 MSTORE PUSH1 0x20 ADD SWAP1 PUSH1 0x1 ADD SWAP1 PUSH2 0x1CC2 JUMP JUMPDEST POP POP POP POP SWAP1 POP PUSH2 0x1D88 PUSH8 0xAFCD135FCBA30933 PUSH1 0xC0 SHL PUSH2 0x2B9E JUMP JUMPDEST PUSH2 0x1D9C PUSH8 0xCB17CAE9BD78A28C PUSH1 0xC0 SHL PUSH2 0x2B9E JUMP JUMPDEST PUSH1 0x2 DUP1 DUP2 GT ISZERO PUSH2 0x1DAF JUMPI PUSH2 0x1DAE PUSH2 0x35D2 JUMP JUMPDEST JUMPDEST PUSH1 0x1 DUP3 DUP5 DUP2 MLOAD DUP2 LT PUSH2 0x1DC4 JUMPI PUSH2 0x1DC3 PUSH2 0x36E4 JUMP JUMPDEST JUMPDEST PUSH1 0x20 MUL PUSH1 0x20 ADD ADD MLOAD PUSH1 0x40 MLOAD PUSH2 0x1DD9 SWAP2 SWAP1 PUSH2 0x36CD JUMP JUMPDEST SWAP1 DUP2 MSTORE PUSH1 0x20 ADD PUSH1 0x40 MLOAD DUP1 SWAP2 SUB SWAP1 KECCAK256 PUSH1 0x8 ADD PUSH1 0x0 SWAP1 SLOAD SWAP1 PUSH2 0x100 EXP SWAP1 DIV PUSH1 0xFF AND PUSH1 0x2 DUP2 GT ISZERO PUSH2 0x1E0A JUMPI PUSH2 0x1E09 PUSH2 0x35D2 JUMP JUMPDEST JUMPDEST SUB PUSH2 0x1E69 JUMPI PUSH2 0x1E23 PUSH8 0x3652DDA1D8056ABF PUSH1 0xC0 SHL PUSH2 0x2B9E JUMP JUMPDEST PUSH2 0x1E37 PUSH8 0x57AC4F71057C7AAF PUSH1 0xC0 SHL PUSH2 0x2B9E JUMP JUMPDEST PUSH1 0x40 MLOAD PUSH32 0x4FC98F3B00000000000000000000000000000000000000000000000000000000 DUP2 MSTORE PUSH1 0x4 ADD PUSH1 0x40 MLOAD DUP1 SWAP2 SUB SWAP1 REVERT JUMPDEST PUSH2 0x1E7D PUSH8 0x7D84521368AED479 PUSH1 0xC0 SHL PUSH2 0x2B9E JUMP JUMPDEST PUSH2 0x1E91 PUSH8 0x8C3F4FFBF2B2CBD1 PUSH1 0xC0 SHL PUSH2 0x2B9E JUMP JUMPDEST PUSH2 0x1EA5 PUSH8 0xA77E1705466E741F PUSH1 0xC0 SHL PUSH2 0x2B9E JUMP JUMPDEST PUSH1 0x0 PUSH2 0x1EBB PUSH8 0x9A241CD0E483DC34 PUSH1 0xC0 SHL PUSH2 0x2B9E JUMP JUMPDEST PUSH1 0x1 DUP3 DUP5 DUP2 MLOAD DUP2 LT PUSH2 0x1ED0 JUMPI PUSH2 0x1ECF PUSH2 0x36E4 JUMP JUMPDEST JUMPDEST PUSH1 0x20 MUL PUSH1 0x20 ADD ADD MLOAD PUSH1 0x40 MLOAD PUSH2 0x1EE5 SWAP2 SWAP1 PUSH2 0x36CD JUMP JUMPDEST SWAP1 DUP2 MSTORE PUSH1 0x20 ADD PUSH1 0x40 MLOAD DUP1 SWAP2 SUB SWAP1 KECCAK256 PUSH1 0x4 ADD SLOAD PUSH1 0x1 DUP4 DUP6 DUP2 MLOAD DUP2 LT PUSH2 0x1F0C JUMPI PUSH2 0x1F0B PUSH2 0x36E4 JUMP JUMPDEST JUMPDEST PUSH1 0x20 MUL PUSH1 0x20 ADD ADD MLOAD PUSH1 0x40 MLOAD PUSH2 0x1F21 SWAP2 SWAP1 PUSH2 0x36CD JUMP JUMPDEST SWAP1 DUP2 MSTORE PUSH1 0x20 ADD PUSH1 0x40 MLOAD DUP1 SWAP2 SUB SWAP1 KECCAK256 PUSH1 0x2 ADD SLOAD PUSH2 0x1F3D SWAP2 SWAP1 PUSH2 0x3ACB JUMP JUMPDEST SWAP1 POP PUSH2 0x1F53 PUSH8 0x843CCB70BA651D7E PUSH1 0xC0 SHL PUSH2 0x2B9E JUMP JUMPDEST PUSH2 0x1F67 PUSH8 0x2476911EA1738FD7 PUSH1 0xC0 SHL PUSH2 0x2B9E JUMP JUMPDEST PUSH1 0x0 JUMPDEST PUSH1 0x1 DUP4 DUP6 DUP2 MLOAD DUP2 LT PUSH2 0x1F7F JUMPI PUSH2 0x1F7E PUSH2 0x36E4 JUMP JUMPDEST JUMPDEST PUSH1 0x20 MUL PUSH1 0x20 ADD ADD MLOAD PUSH1 0x40 MLOAD PUSH2 0x1F94 SWAP2 SWAP1 PUSH2 0x36CD JUMP JUMPDEST SWAP1 DUP2 MSTORE PUSH1 0x20 ADD PUSH1 0x40 MLOAD DUP1 SWAP2 SUB SWAP1 KECCAK256 PUSH1 0x6 ADD DUP1 SLOAD SWAP1 POP DUP2 LT ISZERO PUSH2 0x21C8 JUMPI PUSH2 0x1FC4 PUSH8 0x5474655A418BD730 PUSH1 0xC0 SHL PUSH2 0x2B9E JUMP JUMPDEST PUSH2 0x1FD8 PUSH8 0xB596B30801891EE8 PUSH1 0xC0 SHL PUSH2 0x2B9E JUMP JUMPDEST SELFBALANCE DUP3 LT ISZERO PUSH2 0x21A0 JUMPI PUSH2 0x1FF4 PUSH8 0x17993B4AF5FD15C8 PUSH1 0xC0 SHL PUSH2 0x2B9E JUMP JUMPDEST PUSH2 0x2008 PUSH8 0x9224AD284ED57398 PUSH1 0xC0 SHL PUSH2 0x2B9E JUMP JUMPDEST PUSH2 0x201C PUSH8 0x177470341D73D506 PUSH1 0xC0 SHL PUSH2 0x2B9E JUMP JUMPDEST PUSH1 0x0 PUSH1 0x1 DUP5 DUP7 DUP2 MLOAD DUP2 LT PUSH2 0x2033 JUMPI PUSH2 0x2032 PUSH2 0x36E4 JUMP JUMPDEST JUMPDEST PUSH1 0x20 MUL PUSH1 0x20 ADD ADD MLOAD PUSH1 0x40 MLOAD PUSH2 0x2048 SWAP2 SWAP1 PUSH2 0x36CD JUMP JUMPDEST SWAP1 DUP2 MSTORE PUSH1 0x20 ADD PUSH1 0x40 MLOAD DUP1 SWAP2 SUB SWAP1 KECCAK256 PUSH1 0x6 ADD DUP3 DUP2 SLOAD DUP2 LT PUSH2 0x206B JUMPI PUSH2 0x206A PUSH2 0x36E4 JUMP JUMPDEST JUMPDEST SWAP1 PUSH1 0x0 MSTORE PUSH1 0x20 PUSH1 0x0 KECCAK256 ADD PUSH1 0x0 SWAP1 SLOAD SWAP1 PUSH2 0x100 EXP SWAP1 DIV PUSH20 0xFFFFFFFFFFFFFFFFFFFFFFFFFFFFFFFFFFFFFFFF AND PUSH20 0xFFFFFFFFFFFFFFFFFFFFFFFFFFFFFFFFFFFFFFFF AND DUP4 PUSH1 0x40 MLOAD PUSH2 0x20B9 SWAP1 PUSH2 0x3B2D JUMP JUMPDEST PUSH1 0x0 PUSH1 0x40 MLOAD DUP1 DUP4 SUB DUP2 DUP6 DUP8 GAS CALL SWAP3 POP POP POP RETURNDATASIZE DUP1 PUSH1 0x0 DUP2 EQ PUSH2 0x20F6 JUMPI PUSH1 0x40 MLOAD SWAP2 POP PUSH1 0x1F NOT PUSH1 0x3F RETURNDATASIZE ADD AND DUP3 ADD PUSH1 0x40 MSTORE RETURNDATASIZE DUP3 MSTORE RETURNDATASIZE PUSH1 0x0 PUSH1 0x20 DUP5 ADD RETURNDATACOPY PUSH2 0x20FB JUMP JUMPDEST PUSH1 0x60 SWAP2 POP JUMPDEST POP POP SWAP1 POP PUSH2 0x2113 PUSH8 0x9378679612B988FA PUSH1 0xC0 SHL PUSH2 0x2B9E JUMP JUMPDEST PUSH2 0x2127 PUSH8 0xB8A150BCAD15C62 PUSH1 0xC0 SHL PUSH2 0x2B9E JUMP JUMPDEST DUP1 PUSH2 0x2186 JUMPI PUSH2 0x2140 PUSH8 0x82F4D451C719A39D PUSH1 0xC0 SHL PUSH2 0x2B9E JUMP JUMPDEST PUSH2 0x2154 PUSH8 0x356E12E681E6B731 PUSH1 0xC0 SHL PUSH2 0x2B9E JUMP JUMPDEST PUSH1 0x40 MLOAD PUSH32 0x9E6A19A00000000000000000000000000000000000000000000000000000000 DUP2 MSTORE PUSH1 0x4 ADD PUSH1 0x40 MLOAD DUP1 SWAP2 SUB SWAP1 REVERT JUMPDEST PUSH2 0x219A PUSH8 0x9A7F61C10A9F6654 PUSH1 0xC0 SHL PUSH2 0x2B9E JUMP JUMPDEST POP PUSH2 0x21B5 JUMP JUMPDEST PUSH2 0x21B4 PUSH8 0xFB6409D6A10E5B6E PUSH1 0xC0 SHL PUSH2 0x2B9E JUMP JUMPDEST JUMPDEST DUP1 DUP1 PUSH2 0x21C0 SWAP1 PUSH2 0x3A20 JUMP JUMPDEST SWAP2 POP POP PUSH2 0x1F6A JUMP JUMPDEST POP PUSH2 0x21DD PUSH8 0xA4DC35ADC197CD25 PUSH1 0xC0 SHL PUSH2 0x2B9E JUMP JUMPDEST PUSH1 0x2 PUSH1 0x1 DUP4 DUP6 DUP2 MLOAD DUP2 LT PUSH2 0x21F4 JUMPI PUSH2 0x21F3 PUSH2 0x36E4 JUMP JUMPDEST JUMPDEST PUSH1 0x20 MUL PUSH1 0x20 ADD ADD MLOAD PUSH1 0x40 MLOAD PUSH2 0x2209 SWAP2 SWAP1 PUSH2 0x36CD JUMP JUMPDEST SWAP1 DUP2 MSTORE PUSH1 0x20 ADD PUSH1 0x40 MLOAD DUP1 SWAP2 SUB SWAP1 KECCAK256 PUSH1 0x8 ADD PUSH1 0x0 PUSH2 0x100 EXP DUP2 SLOAD DUP2 PUSH1 0xFF MUL NOT AND SWAP1 DUP4 PUSH1 0x2 DUP2 GT ISZERO PUSH2 0x223C JUMPI PUSH2 0x223B PUSH2 0x35D2 JUMP JUMPDEST JUMPDEST MUL OR SWAP1 SSTORE POP POP POP POP JUMP JUMPDEST PUSH1 0x60 PUSH2 0x225C PUSH8 0xEEB199026ADA09D5 PUSH1 0xC0 SHL PUSH2 0x2B9E JUMP JUMPDEST PUSH2 0x2270 PUSH8 0xE26BBB2714B76EB5 PUSH1 0xC0 SHL PUSH2 0x2B9E JUMP JUMPDEST PUSH2 0x2284 PUSH8 0x7DEE9B8C1ECD5C54 PUSH1 0xC0 SHL PUSH2 0x2B9E JUMP JUMPDEST PUSH1 0x1 DUP3 PUSH1 0x40 MLOAD PUSH2 0x2294 SWAP2 SWAP1 PUSH2 0x36CD JUMP JUMPDEST SWAP1 DUP2 MSTORE PUSH1 0x20 ADD PUSH1 0x40 MLOAD DUP1 SWAP2 SUB SWAP1 KECCAK256 PUSH1 0x0 ADD DUP1 SLOAD PUSH2 0x22B0 SWAP1 PUSH2 0x3742 JUMP JUMPDEST DUP1 PUSH1 0x1F ADD PUSH1 0x20 DUP1 SWAP2 DIV MUL PUSH1 0x20 ADD PUSH1 0x40 MLOAD SWAP1 DUP2 ADD PUSH1 0x40 MSTORE DUP1 SWAP3 SWAP2 SWAP1 DUP2 DUP2 MSTORE PUSH1 0x20 ADD DUP3 DUP1 SLOAD PUSH2 0x22DC SWAP1 PUSH2 0x3742 JUMP JUMPDEST DUP1 ISZERO PUSH2 0x2329 JUMPI DUP1 PUSH1 0x1F LT PUSH2 0x22FE JUMPI PUSH2 0x100 DUP1 DUP4 SLOAD DIV MUL DUP4 MSTORE SWAP2 PUSH1 0x20 ADD SWAP2 PUSH2 0x2329 JUMP JUMPDEST DUP3 ADD SWAP2 SWAP1 PUSH1 0x0 MSTORE PUSH1 0x20 PUSH1 0x0 KECCAK256 SWAP1 JUMPDEST DUP2 SLOAD DUP2 MSTORE SWAP1 PUSH1 0x1 ADD SWAP1 PUSH1 0x20 ADD DUP1 DUP4 GT PUSH2 0x230C JUMPI DUP3 SWAP1 SUB PUSH1 0x1F AND DUP3 ADD SWAP2 JUMPDEST POP POP POP POP POP SWAP1 POP SWAP2 SWAP1 POP JUMP JUMPDEST PUSH2 0x2349 PUSH8 0x26FC756ACA5FD7C9 PUSH1 0xC0 SHL PUSH2 0x2B9E JUMP JUMPDEST PUSH2 0x235D PUSH8 0xB7A8048E78E7D9A8 PUSH1 0xC0 SHL PUSH2 0x2B9E JUMP JUMPDEST PUSH2 0x2371 PUSH8 0x57411EBF80BE98D9 PUSH1 0xC0 SHL PUSH2 0x2B9E JUMP JUMPDEST PUSH2 0x2385 PUSH8 0xA7AEF1BA4E5635DD PUSH1 0xC0 SHL PUSH2 0x2B9E JUMP JUMPDEST PUSH1 0x0 DUP1 SLOAD SWAP1 PUSH2 0x100 EXP SWAP1 DIV PUSH20 0xFFFFFFFFFFFFFFFFFFFFFFFFFFFFFFFFFFFFFFFF AND PUSH20 0xFFFFFFFFFFFFFFFFFFFFFFFFFFFFFFFFFFFFFFFF AND CALLER PUSH20 0xFFFFFFFFFFFFFFFFFFFFFFFFFFFFFFFFFFFFFFFF AND EQ PUSH2 0x241E JUMPI PUSH2 0x23EC PUSH8 0xF9B7CBD78159EA5 PUSH1 0xC0 SHL PUSH2 0x2B9E JUMP JUMPDEST PUSH1 0x40 MLOAD PUSH32 0xBA34867000000000000000000000000000000000000000000000000000000000 DUP2 MSTORE PUSH1 0x4 ADD PUSH1 0x40 MLOAD DUP1 SWAP2 SUB SWAP1 REVERT JUMPDEST PUSH2 0x2432 PUSH8 0xB6029CE5811A7E75 PUSH1 0xC0 SHL PUSH2 0x2B9E JUMP JUMPDEST PUSH2 0x2446 PUSH8 0x33F251FEAA0C0871 PUSH1 0xC0 SHL PUSH2 0x2B9E JUMP JUMPDEST PUSH2 0x245A PUSH8 0x6F41FE2788113B3C PUSH1 0xC0 SHL PUSH2 0x2B9E JUMP JUMPDEST PUSH2 0x246E PUSH8 0xEF21B24F5C9382E0 PUSH1 0xC0 SHL PUSH2 0x2B9E JUMP JUMPDEST PUSH2 0x2482 PUSH8 0x5EE0142443EBF4EB PUSH1 0xC0 SHL PUSH2 0x2B9E JUMP JUMPDEST PUSH2 0x2496 PUSH8 0x46E40F1E51885FD2 PUSH1 0xC0 SHL PUSH2 0x2B9E JUMP JUMPDEST PUSH1 0x3 SLOAD DUP2 GT ISZERO PUSH2 0x24FA JUMPI PUSH2 0x24B4 PUSH8 0x1D2ACD4520ED222 PUSH1 0xC0 SHL PUSH2 0x2B9E JUMP JUMPDEST PUSH2 0x24C8 PUSH8 0xD17869A7BF5F91B PUSH1 0xC0 SHL PUSH2 0x2B9E JUMP JUMPDEST PUSH1 0x40 MLOAD PUSH32 0xC09BB52500000000000000000000000000000000000000000000000000000000 DUP2 MSTORE PUSH1 0x4 ADD PUSH1 0x40 MLOAD DUP1 SWAP2 SUB SWAP1 REVERT JUMPDEST PUSH2 0x250E PUSH8 0xFBB93246F059EB0B PUSH1 0xC0 SHL PUSH2 0x2B9E JUMP JUMPDEST PUSH2 0x2522 PUSH8 0x551479F43F408B3C PUSH1 0xC0 SHL PUSH2 0x2B9E JUMP JUMPDEST PUSH2 0x2536 PUSH8 0x2EE7B5E032014270 PUSH1 0xC0 SHL PUSH2 0x2B9E JUMP JUMPDEST PUSH1 0x0 DUP1 PUSH1 0x0 SWAP1 SLOAD SWAP1 PUSH2 0x100 EXP SWAP1 DIV PUSH20 0xFFFFFFFFFFFFFFFFFFFFFFFFFFFFFFFFFFFFFFFF AND PUSH20 0xFFFFFFFFFFFFFFFFFFFFFFFFFFFFFFFFFFFFFFFF AND DUP3 PUSH1 0x40 MLOAD PUSH2 0x257D SWAP1 PUSH2 0x3B2D JUMP JUMPDEST PUSH1 0x0 PUSH1 0x40 MLOAD DUP1 DUP4 SUB DUP2 DUP6 DUP8 GAS CALL SWAP3 POP POP POP RETURNDATASIZE DUP1 PUSH1 0x0 DUP2 EQ PUSH2 0x25BA JUMPI PUSH1 0x40 MLOAD SWAP2 POP PUSH1 0x1F NOT PUSH1 0x3F RETURNDATASIZE ADD AND DUP3 ADD PUSH1 0x40 MSTORE RETURNDATASIZE DUP3 MSTORE RETURNDATASIZE PUSH1 0x0 PUSH1 0x20 DUP5 ADD RETURNDATACOPY PUSH2 0x25BF JUMP JUMPDEST PUSH1 0x60 SWAP2 POP JUMPDEST POP POP SWAP1 POP PUSH2 0x25D7 PUSH8 0x6A941B523B272D89 PUSH1 0xC0 SHL PUSH2 0x2B9E JUMP JUMPDEST PUSH2 0x25EB PUSH8 0x8FF8BC93B4270548 PUSH1 0xC0 SHL PUSH2 0x2B9E JUMP JUMPDEST DUP1 ISZERO PUSH2 0x268C JUMPI PUSH2 0x2605 PUSH8 0xBDE2477A8FD61657 PUSH1 0xC0 SHL PUSH2 0x2B9E JUMP JUMPDEST PUSH2 0x2619 PUSH8 0xB04080004F98D666 PUSH1 0xC0 SHL PUSH2 0x2B9E JUMP JUMPDEST DUP2 PUSH1 0x3 PUSH1 0x0 DUP3 DUP3 SLOAD PUSH2 0x262B SWAP2 SWAP1 PUSH2 0x3B42 JUMP JUMPDEST SWAP3 POP POP DUP2 SWAP1 SSTORE POP PUSH2 0x2646 PUSH8 0xF64DAA219582432E PUSH1 0xC0 SHL PUSH2 0x2B9E JUMP JUMPDEST PUSH2 0x265A PUSH8 0x24F8091FEACBEEC5 PUSH1 0xC0 SHL PUSH2 0x2B9E JUMP JUMPDEST DUP2 PUSH32 0x4A37B25AAB49761ECF63117FE82B98D750917451133CF797507BC9FB5B96044A PUSH1 0x40 MLOAD PUSH1 0x40 MLOAD DUP1 SWAP2 SUB SWAP1 LOG2 PUSH2 0x26E6 JUMP JUMPDEST PUSH2 0x26A0 PUSH8 0x646CB14EF805668D PUSH1 0xC0 SHL PUSH2 0x2B9E JUMP JUMPDEST PUSH2 0x26B4 PUSH8 0x7967049778E3C02 PUSH1 0xC0 SHL PUSH2 0x2B9E JUMP JUMPDEST PUSH1 0x40 MLOAD PUSH32 0x9E6A19A00000000000000000000000000000000000000000000000000000000 DUP2 MSTORE PUSH1 0x4 ADD PUSH1 0x40 MLOAD DUP1 SWAP2 SUB SWAP1 REVERT JUMPDEST POP POP JUMP JUMPDEST PUSH1 0x0 PUSH2 0x2700 PUSH8 0x24804863E5FBA7FF PUSH1 0xC0 SHL PUSH2 0x2B9E JUMP JUMPDEST PUSH2 0x2714 PUSH8 0x640D3DBD976239F6 PUSH1 0xC0 SHL PUSH2 0x2B9E JUMP JUMPDEST PUSH2 0x2728 PUSH8 0x3BB9021DBC7070BF PUSH1 0xC0 SHL PUSH2 0x2B9E JUMP JUMPDEST PUSH1 0x0 PUSH1 0x1 DUP4 PUSH1 0x40 MLOAD PUSH2 0x273A SWAP2 SWAP1 PUSH2 0x36CD JUMP JUMPDEST SWAP1 DUP2 MSTORE PUSH1 0x20 ADD PUSH1 0x40 MLOAD DUP1 SWAP2 SUB SWAP1 KECCAK256 PUSH1 0x3 ADD SLOAD GT ISZERO PUSH2 0x27E3 JUMPI PUSH2 0x2766 PUSH8 0x9D4252910F97AEB7 PUSH1 0xC0 SHL PUSH2 0x2B9E JUMP JUMPDEST PUSH2 0x277A PUSH8 0xBD3CB21073304AB5 PUSH1 0xC0 SHL PUSH2 0x2B9E JUMP JUMPDEST PUSH2 0x278E PUSH8 0x868F4A477CC09F16 PUSH1 0xC0 SHL PUSH2 0x2B9E JUMP JUMPDEST PUSH1 0x1 DUP3 PUSH1 0x40 MLOAD PUSH2 0x279E SWAP2 SWAP1 PUSH2 0x36CD JUMP JUMPDEST SWAP1 DUP2 MSTORE PUSH1 0x20 ADD PUSH1 0x40 MLOAD DUP1 SWAP2 SUB SWAP1 KECCAK256 PUSH1 0x3 ADD SLOAD PUSH1 0x1 DUP4 PUSH1 0x40 MLOAD PUSH2 0x27C0 SWAP2 SWAP1 PUSH2 0x36CD JUMP JUMPDEST SWAP1 DUP2 MSTORE PUSH1 0x20 ADD PUSH1 0x40 MLOAD DUP1 SWAP2 SUB SWAP1 KECCAK256 PUSH1 0x2 ADD SLOAD PUSH2 0x27DC SWAP2 SWAP1 PUSH2 0x3ACB JUMP JUMPDEST SWAP1 POP PUSH2 0x283D JUMP JUMPDEST PUSH2 0x27F7 PUSH8 0xCE849A84C39FD2F PUSH1 0xC0 SHL PUSH2 0x2B9E JUMP JUMPDEST PUSH2 0x280B PUSH8 0x8F796A72C6CC1E68 PUSH1 0xC0 SHL PUSH2 0x2B9E JUMP JUMPDEST PUSH1 0x40 MLOAD PUSH32 0xB01E933700000000000000000000000000000000000000000000000000000000 DUP2 MSTORE PUSH1 0x4 ADD PUSH1 0x40 MLOAD DUP1 SWAP2 SUB SWAP1 REVERT JUMPDEST SWAP2 SWAP1 POP JUMP JUMPDEST PUSH2 0x2856 PUSH8 0x986A8A3478662C7A PUSH1 0xC0 SHL PUSH2 0x2B9E JUMP JUMPDEST PUSH2 0x286A PUSH8 0xB7A8048E78E7D9A8 PUSH1 0xC0 SHL PUSH2 0x2B9E JUMP JUMPDEST PUSH2 0x287E PUSH8 0x57411EBF80BE98D9 PUSH1 0xC0 SHL PUSH2 0x2B9E JUMP JUMPDEST PUSH2 0x2892 PUSH8 0xA7AEF1BA4E5635DD PUSH1 0xC0 SHL PUSH2 0x2B9E JUMP JUMPDEST PUSH1 0x0 DUP1 SLOAD SWAP1 PUSH2 0x100 EXP SWAP1 DIV PUSH20 0xFFFFFFFFFFFFFFFFFFFFFFFFFFFFFFFFFFFFFFFF AND PUSH20 0xFFFFFFFFFFFFFFFFFFFFFFFFFFFFFFFFFFFFFFFF AND CALLER PUSH20 0xFFFFFFFFFFFFFFFFFFFFFFFFFFFFFFFFFFFFFFFF AND EQ PUSH2 0x292B JUMPI PUSH2 0x28F9 PUSH8 0xF9B7CBD78159EA5 PUSH1 0xC0 SHL PUSH2 0x2B9E JUMP JUMPDEST PUSH1 0x40 MLOAD PUSH32 0xBA34867000000000000000000000000000000000000000000000000000000000 DUP2 MSTORE PUSH1 0x4 ADD PUSH1 0x40 MLOAD DUP1 SWAP2 SUB SWAP1 REVERT JUMPDEST PUSH2 0x293F PUSH8 0xB6029CE5811A7E75 PUSH1 0xC0 SHL PUSH2 0x2B9E JUMP JUMPDEST PUSH2 0x2953 PUSH8 0x33F251FEAA0C0871 PUSH1 0xC0 SHL PUSH2 0x2B9E JUMP JUMPDEST PUSH2 0x2967 PUSH8 0x898EA0684EEAEB47 PUSH1 0xC0 SHL PUSH2 0x2B9E JUMP JUMPDEST PUSH2 0x297B PUSH8 0x65DAA93D039B6A5E PUSH1 0xC0 SHL PUSH2 0x2B9E JUMP JUMPDEST PUSH2 0x298F PUSH8 0x6B42C66DF84C2183 PUSH1 0xC0 SHL PUSH2 0x2B9E JUMP JUMPDEST PUSH2 0x29A3 PUSH8 0x4558A5C00BE7F3E7 PUSH1 0xC0 SHL PUSH2 0x2B9E JUMP JUMPDEST PUSH1 0x0 PUSH1 0x2 DUP1 SLOAD DUP1 PUSH1 0x20 MUL PUSH1 0x20 ADD PUSH1 0x40 MLOAD SWAP1 DUP2 ADD PUSH1 0x40 MSTORE DUP1 SWAP3 SWAP2 SWAP1 DUP2 DUP2 MSTORE PUSH1 0x20 ADD PUSH1 0x0 SWAP1 JUMPDEST DUP3 DUP3 LT ISZERO PUSH2 0x2A73 JUMPI DUP4 DUP3 SWAP1 PUSH1 0x0 MSTORE PUSH1 0x20 PUSH1 0x0 KECCAK256 ADD DUP1 SLOAD PUSH2 0x29E6 SWAP1 PUSH2 0x3742 JUMP JUMPDEST DUP1 PUSH1 0x1F ADD PUSH1 0x20 DUP1 SWAP2 DIV MUL PUSH1 0x20 ADD PUSH1 0x40 MLOAD SWAP1 DUP2 ADD PUSH1 0x40 MSTORE DUP1 SWAP3 SWAP2 SWAP1 DUP2 DUP2 MSTORE PUSH1 0x20 ADD DUP3 DUP1 SLOAD PUSH2 0x2A12 SWAP1 PUSH2 0x3742 JUMP JUMPDEST DUP1 ISZERO PUSH2 0x2A5F JUMPI DUP1 PUSH1 0x1F LT PUSH2 0x2A34 JUMPI PUSH2 0x100 DUP1 DUP4 SLOAD DIV MUL DUP4 MSTORE SWAP2 PUSH1 0x20 ADD SWAP2 PUSH2 0x2A5F JUMP JUMPDEST DUP3 ADD SWAP2 SWAP1 PUSH1 0x0 MSTORE PUSH1 0x20 PUSH1 0x0 KECCAK256 SWAP1 JUMPDEST DUP2 SLOAD DUP2 MSTORE SWAP1 PUSH1 0x1 ADD SWAP1 PUSH1 0x20 ADD DUP1 DUP4 GT PUSH2 0x2A42 JUMPI DUP3 SWAP1 SUB PUSH1 0x1F AND DUP3 ADD SWAP2 JUMPDEST POP POP POP POP POP DUP2 MSTORE PUSH1 0x20 ADD SWAP1 PUSH1 0x1 ADD SWAP1 PUSH2 0x29C7 JUMP JUMPDEST POP POP POP POP SWAP1 POP PUSH2 0x2A8D PUSH8 0x2989598B22F83365 PUSH1 0xC0 SHL PUSH2 0x2B9E JUMP JUMPDEST PUSH2 0x2AA1 PUSH8 0xC712D5468C482189 PUSH1 0xC0 SHL PUSH2 0x2B9E JUMP JUMPDEST PUSH1 0x0 JUMPDEST DUP2 MLOAD DUP2 LT ISZERO PUSH2 0x2B9A JUMPI PUSH2 0x2AC1 PUSH8 0xA205A2C6CA126FF3 PUSH1 0xC0 SHL PUSH2 0x2B9E JUMP JUMPDEST PUSH1 0x1 DUP3 DUP3 DUP2 MLOAD DUP2 LT PUSH2 0x2AD6 JUMPI PUSH2 0x2AD5 PUSH2 0x36E4 JUMP JUMPDEST JUMPDEST PUSH1 0x20 MUL PUSH1 0x20 ADD ADD MLOAD PUSH1 0x40 MLOAD PUSH2 0x2AEB SWAP2 SWAP1 PUSH2 0x36CD JUMP JUMPDEST SWAP1 DUP2 MSTORE PUSH1 0x20 ADD PUSH1 0x40 MLOAD DUP1 SWAP2 SUB SWAP1 KECCAK256 PUSH1 0x0 DUP1 DUP3 ADD PUSH1 0x0 PUSH2 0x2B0A SWAP2 SWAP1 PUSH2 0x2CF8 JUMP JUMPDEST PUSH1 0x1 DUP3 ADD PUSH1 0x0 PUSH2 0x100 EXP DUP2 SLOAD SWAP1 PUSH20 0xFFFFFFFFFFFFFFFFFFFFFFFFFFFFFFFFFFFFFFFF MUL NOT AND SWAP1 SSTORE PUSH1 0x2 DUP3 ADD PUSH1 0x0 SWAP1 SSTORE PUSH1 0x3 DUP3 ADD PUSH1 0x0 SWAP1 SSTORE PUSH1 0x4 DUP3 ADD PUSH1 0x0 SWAP1 SSTORE PUSH1 0x5 DUP3 ADD PUSH1 0x0 PUSH2 0x2B59 SWAP2 SWAP1 PUSH2 0x2D38 JUMP JUMPDEST PUSH1 0x6 DUP3 ADD PUSH1 0x0 PUSH2 0x2B69 SWAP2 SWAP1 PUSH2 0x2D59 JUMP JUMPDEST PUSH1 0x7 DUP3 ADD PUSH1 0x0 SWAP1 SSTORE PUSH1 0x8 DUP3 ADD PUSH1 0x0 PUSH2 0x100 EXP DUP2 SLOAD SWAP1 PUSH1 0xFF MUL NOT AND SWAP1 SSTORE POP POP DUP1 DUP1 PUSH2 0x2B92 SWAP1 PUSH2 0x3A20 JUMP JUMPDEST SWAP2 POP POP PUSH2 0x2AA4 JUMP JUMPDEST POP POP JUMP JUMPDEST POP JUMP JUMPDEST PUSH1 0x40 MLOAD DUP1 PUSH2 0x120 ADD PUSH1 0x40 MSTORE DUP1 PUSH1 0x60 DUP2 MSTORE PUSH1 0x20 ADD PUSH1 0x0 PUSH20 0xFFFFFFFFFFFFFFFFFFFFFFFFFFFFFFFFFFFFFFFF AND DUP2 MSTORE PUSH1 0x20 ADD PUSH1 0x0 DUP2 MSTORE PUSH1 0x20 ADD PUSH1 0x0 DUP2 MSTORE PUSH1 0x20 ADD PUSH1 0x0 DUP2 MSTORE PUSH1 0x20 ADD PUSH1 0x60 DUP2 MSTORE PUSH1 0x20 ADD PUSH1 0x60 DUP2 MSTORE PUSH1 0x20 ADD PUSH1 0x0 DUP2 MSTORE PUSH1 0x20 ADD PUSH1 0x0 PUSH1 0x2 DUP2 GT ISZERO PUSH2 0x2C0F JUMPI PUSH2 0x2C0E PUSH2 0x35D2 JUMP JUMPDEST JUMPDEST DUP2 MSTORE POP SWAP1 JUMP JUMPDEST DUP3 DUP1 SLOAD DUP3 DUP3 SSTORE SWAP1 PUSH1 0x0 MSTORE PUSH1 0x20 PUSH1 0x0 KECCAK256 SWAP1 DUP2 ADD SWAP3 DUP3 ISZERO PUSH2 0x2C5D JUMPI SWAP2 PUSH1 0x20 MUL DUP3 ADD JUMPDEST DUP3 DUP2 GT ISZERO PUSH2 0x2C5C JUMPI DUP3 MLOAD DUP3 SWAP1 DUP2 PUSH2 0x2C4C SWAP2 SWAP1 PUSH2 0x391F JUMP JUMPDEST POP SWAP2 PUSH1 0x20 ADD SWAP2 SWAP1 PUSH1 0x1 ADD SWAP1 PUSH2 0x2C35 JUMP JUMPDEST JUMPDEST POP SWAP1 POP PUSH2 0x2C6A SWAP2 SWAP1 PUSH2 0x2D7A JUMP JUMPDEST POP SWAP1 JUMP JUMPDEST DUP3 DUP1 SLOAD DUP3 DUP3 SSTORE SWAP1 PUSH1 0x0 MSTORE PUSH1 0x20 PUSH1 0x0 KECCAK256 SWAP1 DUP2 ADD SWAP3 DUP3 ISZERO PUSH2 0x2CE7 JUMPI SWAP2 PUSH1 0x20 MUL DUP3 ADD JUMPDEST DUP3 DUP2 GT ISZERO PUSH2 0x2CE6 JUMPI DUP3 MLOAD DUP3 PUSH1 0x0 PUSH2 0x100 EXP DUP2 SLOAD DUP2 PUSH20 0xFFFFFFFFFFFFFFFFFFFFFFFFFFFFFFFFFFFFFFFF MUL NOT AND SWAP1 DUP4 PUSH20 0xFFFFFFFFFFFFFFFFFFFFFFFFFFFFFFFFFFFFFFFF AND MUL OR SWAP1 SSTORE POP SWAP2 PUSH1 0x20 ADD SWAP2 SWAP1 PUSH1 0x1 ADD SWAP1 PUSH2 0x2C8E JUMP JUMPDEST JUMPDEST POP SWAP1 POP PUSH2 0x2CF4 SWAP2 SWAP1 PUSH2 0x2D9E JUMP JUMPDEST POP SWAP1 JUMP JUMPDEST POP DUP1 SLOAD PUSH2 0x2D04 SWAP1 PUSH2 0x3742 JUMP JUMPDEST PUSH1 0x0 DUP3 SSTORE DUP1 PUSH1 0x1F LT PUSH2 0x2D16 JUMPI POP PUSH2 0x2D35 JUMP JUMPDEST PUSH1 0x1F ADD PUSH1 0x20 SWAP1 DIV SWAP1 PUSH1 0x0 MSTORE PUSH1 0x20 PUSH1 0x0 KECCAK256 SWAP1 DUP2 ADD SWAP1 PUSH2 0x2D34 SWAP2 SWAP1 PUSH2 0x2D9E JUMP JUMPDEST JUMPDEST POP JUMP JUMPDEST POP DUP1 SLOAD PUSH1 0x0 DUP3 SSTORE SWAP1 PUSH1 0x0 MSTORE PUSH1 0x20 PUSH1 0x0 KECCAK256 SWAP1 DUP2 ADD SWAP1 PUSH2 0x2D56 SWAP2 SWAP1 PUSH2 0x2D7A JUMP JUMPDEST POP JUMP JUMPDEST POP DUP1 SLOAD PUSH1 0x0 DUP3 SSTORE SWAP1 PUSH1 0x0 MSTORE PUSH1 0x20 PUSH1 0x0 KECCAK256 SWAP1 DUP2 ADD SWAP1 PUSH2 0x2D77 SWAP2 SWAP1 PUSH2 0x2D9E JUMP JUMPDEST POP JUMP JUMPDEST JUMPDEST DUP1 DUP3 GT ISZERO PUSH2 0x2D9A JUMPI PUSH1 0x0 DUP2 DUP2 PUSH2 0x2D91 SWAP2 SWAP1 PUSH2 0x2CF8 JUMP JUMPDEST POP PUSH1 0x1 ADD PUSH2 0x2D7B JUMP JUMPDEST POP SWAP1 JUMP JUMPDEST JUMPDEST DUP1 DUP3 GT ISZERO PUSH2 0x2DB7 JUMPI PUSH1 0x0 DUP2 PUSH1 0x0 SWAP1 SSTORE POP PUSH1 0x1 ADD PUSH2 0x2D9F JUMP JUMPDEST POP SWAP1 JUMP JUMPDEST PUSH1 0x0 DUP2 SWAP1 POP SWAP2 SWAP1 POP JUMP JUMPDEST PUSH2 0x2DCE DUP2 PUSH2 0x2DBB JUMP JUMPDEST DUP3 MSTORE POP POP JUMP JUMPDEST PUSH1 0x0 PUSH1 0x20 DUP3 ADD SWAP1 POP PUSH2 0x2DE9 PUSH1 0x0 DUP4 ADD DUP5 PUSH2 0x2DC5 JUMP JUMPDEST SWAP3 SWAP2 POP POP JUMP JUMPDEST PUSH1 0x0 PUSH1 0x40 MLOAD SWAP1 POP SWAP1 JUMP JUMPDEST PUSH1 0x0 DUP1 REVERT JUMPDEST PUSH1 0x0 DUP1 REVERT JUMPDEST PUSH1 0x0 DUP1 REVERT JUMPDEST PUSH1 0x0 DUP1 REVERT JUMPDEST PUSH1 0x0 PUSH1 0x1F NOT PUSH1 0x1F DUP4 ADD AND SWAP1 POP SWAP2 SWAP1 POP JUMP JUMPDEST PUSH32 0x4E487B7100000000000000000000000000000000000000000000000000000000 PUSH1 0x0 MSTORE PUSH1 0x41 PUSH1 0x4 MSTORE PUSH1 0x24 PUSH1 0x0 REVERT JUMPDEST PUSH2 0x2E56 DUP3 PUSH2 0x2E0D JUMP JUMPDEST DUP2 ADD DUP2 DUP2 LT PUSH8 0xFFFFFFFFFFFFFFFF DUP3 GT OR ISZERO PUSH2 0x2E75 JUMPI PUSH2 0x2E74 PUSH2 0x2E1E JUMP JUMPDEST JUMPDEST DUP1 PUSH1 0x40 MSTORE POP POP POP JUMP JUMPDEST PUSH1 0x0 PUSH2 0x2E88 PUSH2 0x2DEF JUMP JUMPDEST SWAP1 POP PUSH2 0x2E94 DUP3 DUP3 PUSH2 0x2E4D JUMP JUMPDEST SWAP2 SWAP1 POP JUMP JUMPDEST PUSH1 0x0 PUSH8 0xFFFFFFFFFFFFFFFF DUP3 GT ISZERO PUSH2 0x2EB4 JUMPI PUSH2 0x2EB3 PUSH2 0x2E1E JUMP JUMPDEST JUMPDEST PUSH2 0x2EBD DUP3 PUSH2 0x2E0D JUMP JUMPDEST SWAP1 POP PUSH1 0x20 DUP2 ADD SWAP1 POP SWAP2 SWAP1 POP JUMP JUMPDEST DUP3 DUP2 DUP4 CALLDATACOPY PUSH1 0x0 DUP4 DUP4 ADD MSTORE POP POP POP JUMP JUMPDEST PUSH1 0x0 PUSH2 0x2EEC PUSH2 0x2EE7 DUP5 PUSH2 0x2E99 JUMP JUMPDEST PUSH2 0x2E7E JUMP JUMPDEST SWAP1 POP DUP3 DUP2 MSTORE PUSH1 0x20 DUP2 ADD DUP5 DUP5 DUP5 ADD GT ISZERO PUSH2 0x2F08 JUMPI PUSH2 0x2F07 PUSH2 0x2E08 JUMP JUMPDEST JUMPDEST PUSH2 0x2F13 DUP5 DUP3 DUP6 PUSH2 0x2ECA JUMP JUMPDEST POP SWAP4 SWAP3 POP POP POP JUMP JUMPDEST PUSH1 0x0 DUP3 PUSH1 0x1F DUP4 ADD SLT PUSH2 0x2F30 JUMPI PUSH2 0x2F2F PUSH2 0x2E03 JUMP JUMPDEST JUMPDEST DUP2 CALLDATALOAD PUSH2 0x2F40 DUP5 DUP3 PUSH1 0x20 DUP7 ADD PUSH2 0x2ED9 JUMP JUMPDEST SWAP2 POP POP SWAP3 SWAP2 POP POP JUMP JUMPDEST PUSH2 0x2F52 DUP2 PUSH2 0x2DBB JUMP JUMPDEST DUP2 EQ PUSH2 0x2F5D JUMPI PUSH1 0x0 DUP1 REVERT JUMPDEST POP JUMP JUMPDEST PUSH1 0x0 DUP2 CALLDATALOAD SWAP1 POP PUSH2 0x2F6F DUP2 PUSH2 0x2F49 JUMP JUMPDEST SWAP3 SWAP2 POP POP JUMP JUMPDEST PUSH1 0x0 DUP1 PUSH1 0x40 DUP4 DUP6 SUB SLT ISZERO PUSH2 0x2F8C JUMPI PUSH2 0x2F8B PUSH2 0x2DF9 JUMP JUMPDEST JUMPDEST PUSH1 0x0 DUP4 ADD CALLDATALOAD PUSH8 0xFFFFFFFFFFFFFFFF DUP2 GT ISZERO PUSH2 0x2FAA JUMPI PUSH2 0x2FA9 PUSH2 0x2DFE JUMP JUMPDEST JUMPDEST PUSH2 0x2FB6 DUP6 DUP3 DUP7 ADD PUSH2 0x2F1B JUMP JUMPDEST SWAP3 POP POP PUSH1 0x20 PUSH2 0x2FC7 DUP6 DUP3 DUP7 ADD PUSH2 0x2F60 JUMP JUMPDEST SWAP2 POP POP SWAP3 POP SWAP3 SWAP1 POP JUMP JUMPDEST PUSH1 0x0 PUSH20 0xFFFFFFFFFFFFFFFFFFFFFFFFFFFFFFFFFFFFFFFF DUP3 AND SWAP1 POP SWAP2 SWAP1 POP JUMP JUMPDEST PUSH1 0x0 PUSH2 0x2FFC DUP3 PUSH2 0x2FD1 JUMP JUMPDEST SWAP1 POP SWAP2 SWAP1 POP JUMP JUMPDEST PUSH2 0x300C DUP2 PUSH2 0x2FF1 JUMP JUMPDEST DUP3 MSTORE POP POP JUMP JUMPDEST PUSH1 0x0 PUSH1 0x20 DUP3 ADD SWAP1 POP PUSH2 0x3027 PUSH1 0x0 DUP4 ADD DUP5 PUSH2 0x3003 JUMP JUMPDEST SWAP3 SWAP2 POP POP JUMP JUMPDEST PUSH1 0x0 DUP2 MLOAD SWAP1 POP SWAP2 SWAP1 POP JUMP JUMPDEST PUSH1 0x0 DUP3 DUP3 MSTORE PUSH1 0x20 DUP3 ADD SWAP1 POP SWAP3 SWAP2 POP POP JUMP JUMPDEST PUSH1 0x0 JUMPDEST DUP4 DUP2 LT ISZERO PUSH2 0x3067 JUMPI DUP1 DUP3 ADD MLOAD DUP2 DUP5 ADD MSTORE PUSH1 0x20 DUP2 ADD SWAP1 POP PUSH2 0x304C JUMP JUMPDEST PUSH1 0x0 DUP5 DUP5 ADD MSTORE POP POP POP POP JUMP JUMPDEST PUSH1 0x0 PUSH2 0x307E DUP3 PUSH2 0x302D JUMP JUMPDEST PUSH2 0x3088 DUP2 DUP6 PUSH2 0x3038 JUMP JUMPDEST SWAP4 POP PUSH2 0x3098 DUP2 DUP6 PUSH1 0x20 DUP7 ADD PUSH2 0x3049 JUMP JUMPDEST PUSH2 0x30A1 DUP2 PUSH2 0x2E0D JUMP JUMPDEST DUP5 ADD SWAP2 POP POP SWAP3 SWAP2 POP POP JUMP JUMPDEST PUSH1 0x0 PUSH1 0x20 DUP3 ADD SWAP1 POP DUP2 DUP2 SUB PUSH1 0x0 DUP4 ADD MSTORE PUSH2 0x30C6 DUP2 DUP5 PUSH2 0x3073 JUMP JUMPDEST SWAP1 POP SWAP3 SWAP2 POP POP JUMP JUMPDEST PUSH2 0x30D7 DUP2 PUSH2 0x2FF1 JUMP JUMPDEST DUP2 EQ PUSH2 0x30E2 JUMPI PUSH1 0x0 DUP1 REVERT JUMPDEST POP JUMP JUMPDEST PUSH1 0x0 DUP2 CALLDATALOAD SWAP1 POP PUSH2 0x30F4 DUP2 PUSH2 0x30CE JUMP JUMPDEST SWAP3 SWAP2 POP POP JUMP JUMPDEST PUSH1 0x0 DUP1 PUSH1 0x0 PUSH1 0x60 DUP5 DUP7 SUB SLT ISZERO PUSH2 0x3113 JUMPI PUSH2 0x3112 PUSH2 0x2DF9 JUMP JUMPDEST JUMPDEST PUSH1 0x0 DUP5 ADD CALLDATALOAD PUSH8 0xFFFFFFFFFFFFFFFF DUP2 GT ISZERO PUSH2 0x3131 JUMPI PUSH2 0x3130 PUSH2 0x2DFE JUMP JUMPDEST JUMPDEST PUSH2 0x313D DUP7 DUP3 DUP8 ADD PUSH2 0x2F1B JUMP JUMPDEST SWAP4 POP POP PUSH1 0x20 DUP5 ADD CALLDATALOAD PUSH8 0xFFFFFFFFFFFFFFFF DUP2 GT ISZERO PUSH2 0x315E JUMPI PUSH2 0x315D PUSH2 0x2DFE JUMP JUMPDEST JUMPDEST PUSH2 0x316A DUP7 DUP3 DUP8 ADD PUSH2 0x2F1B JUMP JUMPDEST SWAP3 POP POP PUSH1 0x40 PUSH2 0x317B DUP7 DUP3 DUP8 ADD PUSH2 0x30E5 JUMP JUMPDEST SWAP2 POP POP SWAP3 POP SWAP3 POP SWAP3 JUMP JUMPDEST PUSH1 0x0 DUP1 REVERT JUMPDEST PUSH1 0x0 DUP1 REVERT JUMPDEST PUSH1 0x0 DUP1 DUP4 PUSH1 0x1F DUP5 ADD SLT PUSH2 0x31A5 JUMPI PUSH2 0x31A4 PUSH2 0x2E03 JUMP JUMPDEST JUMPDEST DUP3 CALLDATALOAD SWAP1 POP PUSH8 0xFFFFFFFFFFFFFFFF DUP2 GT ISZERO PUSH2 0x31C2 JUMPI PUSH2 0x31C1 PUSH2 0x3185 JUMP JUMPDEST JUMPDEST PUSH1 0x20 DUP4 ADD SWAP2 POP DUP4 PUSH1 0x1 DUP3 MUL DUP4 ADD GT ISZERO PUSH2 0x31DE JUMPI PUSH2 0x31DD PUSH2 0x318A JUMP JUMPDEST JUMPDEST SWAP3 POP SWAP3 SWAP1 POP JUMP JUMPDEST PUSH1 0x0 DUP1 PUSH1 0x20 DUP4 DUP6 SUB SLT ISZERO PUSH2 0x31FC JUMPI PUSH2 0x31FB PUSH2 0x2DF9 JUMP JUMPDEST JUMPDEST PUSH1 0x0 DUP4 ADD CALLDATALOAD PUSH8 0xFFFFFFFFFFFFFFFF DUP2 GT ISZERO PUSH2 0x321A JUMPI PUSH2 0x3219 PUSH2 0x2DFE JUMP JUMPDEST JUMPDEST PUSH2 0x3226 DUP6 DUP3 DUP7 ADD PUSH2 0x318F JUMP JUMPDEST SWAP3 POP SWAP3 POP POP SWAP3 POP SWAP3 SWAP1 POP JUMP JUMPDEST PUSH1 0x0 PUSH1 0x20 DUP3 DUP5 SUB SLT ISZERO PUSH2 0x3248 JUMPI PUSH2 0x3247 PUSH2 0x2DF9 JUMP JUMPDEST JUMPDEST PUSH1 0x0 DUP3 ADD CALLDATALOAD PUSH8 0xFFFFFFFFFFFFFFFF DUP2 GT ISZERO PUSH2 0x3266 JUMPI PUSH2 0x3265 PUSH2 0x2DFE JUMP JUMPDEST JUMPDEST PUSH2 0x3272 DUP5 DUP3 DUP6 ADD PUSH2 0x2F1B JUMP JUMPDEST SWAP2 POP POP SWAP3 SWAP2 POP POP JUMP JUMPDEST PUSH1 0x0 DUP2 MLOAD SWAP1 POP SWAP2 SWAP1 POP JUMP JUMPDEST PUSH1 0x0 DUP3 DUP3 MSTORE PUSH1 0x20 DUP3 ADD SWAP1 POP SWAP3 SWAP2 POP POP JUMP JUMPDEST PUSH1 0x0 DUP2 SWAP1 POP PUSH1 0x20 DUP3 ADD SWAP1 POP SWAP2 SWAP1 POP JUMP JUMPDEST PUSH1 0x0 DUP3 DUP3 MSTORE PUSH1 0x20 DUP3 ADD SWAP1 POP SWAP3 SWAP2 POP POP JUMP JUMPDEST PUSH1 0x0 PUSH2 0x32C3 DUP3 PUSH2 0x302D JUMP JUMPDEST PUSH2 0x32CD DUP2 DUP6 PUSH2 0x32A7 JUMP JUMPDEST SWAP4 POP PUSH2 0x32DD DUP2 DUP6 PUSH1 0x20 DUP7 ADD PUSH2 0x3049 JUMP JUMPDEST PUSH2 0x32E6 DUP2 PUSH2 0x2E0D JUMP JUMPDEST DUP5 ADD SWAP2 POP POP SWAP3 SWAP2 POP POP JUMP JUMPDEST PUSH1 0x0 PUSH2 0x32FD DUP4 DUP4 PUSH2 0x32B8 JUMP JUMPDEST SWAP1 POP SWAP3 SWAP2 POP POP JUMP JUMPDEST PUSH1 0x0 PUSH1 0x20 DUP3 ADD SWAP1 POP SWAP2 SWAP1 POP JUMP JUMPDEST PUSH1 0x0 PUSH2 0x331D DUP3 PUSH2 0x327B JUMP JUMPDEST PUSH2 0x3327 DUP2 DUP6 PUSH2 0x3286 JUMP JUMPDEST SWAP4 POP DUP4 PUSH1 0x20 DUP3 MUL DUP6 ADD PUSH2 0x3339 DUP6 PUSH2 0x3297 JUMP JUMPDEST DUP1 PUSH1 0x0 JUMPDEST DUP6 DUP2 LT ISZERO PUSH2 0x3375 JUMPI DUP5 DUP5 SUB DUP10 MSTORE DUP2 MLOAD PUSH2 0x3356 DUP6 DUP3 PUSH2 0x32F1 JUMP JUMPDEST SWAP5 POP PUSH2 0x3361 DUP4 PUSH2 0x3305 JUMP JUMPDEST SWAP3 POP PUSH1 0x20 DUP11 ADD SWAP10 POP POP PUSH1 0x1 DUP2 ADD SWAP1 POP PUSH2 0x333D JUMP JUMPDEST POP DUP3 SWAP8 POP DUP8 SWAP6 POP POP POP POP POP POP SWAP3 SWAP2 POP POP JUMP JUMPDEST PUSH1 0x0 PUSH1 0x20 DUP3 ADD SWAP1 POP DUP2 DUP2 SUB PUSH1 0x0 DUP4 ADD MSTORE PUSH2 0x33A1 DUP2 DUP5 PUSH2 0x3312 JUMP JUMPDEST SWAP1 POP SWAP3 SWAP2 POP POP JUMP JUMPDEST PUSH1 0x0 PUSH8 0xFFFFFFFFFFFFFFFF DUP3 GT ISZERO PUSH2 0x33C4 JUMPI PUSH2 0x33C3 PUSH2 0x2E1E JUMP JUMPDEST JUMPDEST PUSH2 0x33CD DUP3 PUSH2 0x2E0D JUMP JUMPDEST SWAP1 POP PUSH1 0x20 DUP2 ADD SWAP1 POP SWAP2 SWAP1 POP JUMP JUMPDEST PUSH1 0x0 PUSH2 0x33ED PUSH2 0x33E8 DUP5 PUSH2 0x33A9 JUMP JUMPDEST PUSH2 0x2E7E JUMP JUMPDEST SWAP1 POP DUP3 DUP2 MSTORE PUSH1 0x20 DUP2 ADD DUP5 DUP5 DUP5 ADD GT ISZERO PUSH2 0x3409 JUMPI PUSH2 0x3408 PUSH2 0x2E08 JUMP JUMPDEST JUMPDEST PUSH2 0x3414 DUP5 DUP3 DUP6 PUSH2 0x2ECA JUMP JUMPDEST POP SWAP4 SWAP3 POP POP POP JUMP JUMPDEST PUSH1 0x0 DUP3 PUSH1 0x1F DUP4 ADD SLT PUSH2 0x3431 JUMPI PUSH2 0x3430 PUSH2 0x2E03 JUMP JUMPDEST JUMPDEST DUP2 CALLDATALOAD PUSH2 0x3441 DUP5 DUP3 PUSH1 0x20 DUP7 ADD PUSH2 0x33DA JUMP JUMPDEST SWAP2 POP POP SWAP3 SWAP2 POP POP JUMP JUMPDEST PUSH1 0x0 PUSH1 0x20 DUP3 DUP5 SUB SLT ISZERO PUSH2 0x3460 JUMPI PUSH2 0x345F PUSH2 0x2DF9 JUMP JUMPDEST JUMPDEST PUSH1 0x0 DUP3 ADD CALLDATALOAD PUSH8 0xFFFFFFFFFFFFFFFF DUP2 GT ISZERO PUSH2 0x347E JUMPI PUSH2 0x347D PUSH2 0x2DFE JUMP JUMPDEST JUMPDEST PUSH2 0x348A DUP5 DUP3 DUP6 ADD PUSH2 0x341C JUMP JUMPDEST SWAP2 POP POP SWAP3 SWAP2 POP POP JUMP JUMPDEST PUSH1 0x0 DUP2 ISZERO ISZERO SWAP1 POP SWAP2 SWAP1 POP JUMP JUMPDEST PUSH2 0x34A8 DUP2 PUSH2 0x3493 JUMP JUMPDEST DUP3 MSTORE POP POP JUMP JUMPDEST PUSH1 0x0 DUP2 MLOAD SWAP1 POP SWAP2 SWAP1 POP JUMP JUMPDEST PUSH1 0x0 DUP3 DUP3 MSTORE PUSH1 0x20 DUP3 ADD SWAP1 POP SWAP3 SWAP2 POP POP JUMP JUMPDEST PUSH1 0x0 PUSH2 0x34D5 DUP3 PUSH2 0x34AE JUMP JUMPDEST PUSH2 0x34DF DUP2 DUP6 PUSH2 0x34B9 JUMP JUMPDEST SWAP4 POP PUSH2 0x34EF DUP2 DUP6 PUSH1 0x20 DUP7 ADD PUSH2 0x3049 JUMP JUMPDEST PUSH2 0x34F8 DUP2 PUSH2 0x2E0D JUMP JUMPDEST DUP5 ADD SWAP2 POP POP SWAP3 SWAP2 POP POP JUMP JUMPDEST PUSH1 0x0 PUSH1 0x40 DUP3 ADD SWAP1 POP PUSH2 0x3518 PUSH1 0x0 DUP4 ADD DUP6 PUSH2 0x349F JUMP JUMPDEST DUP2 DUP2 SUB PUSH1 0x20 DUP4 ADD MSTORE PUSH2 0x352A DUP2 DUP5 PUSH2 0x34CA JUMP JUMPDEST SWAP1 POP SWAP4 SWAP3 POP POP POP JUMP JUMPDEST PUSH1 0x0 DUP1 PUSH1 0x0 DUP1 PUSH1 0x80 DUP6 DUP8 SUB SLT ISZERO PUSH2 0x354D JUMPI PUSH2 0x354C PUSH2 0x2DF9 JUMP JUMPDEST JUMPDEST PUSH1 0x0 DUP6 ADD CALLDATALOAD PUSH8 0xFFFFFFFFFFFFFFFF DUP2 GT ISZERO PUSH2 0x356B JUMPI PUSH2 0x356A PUSH2 0x2DFE JUMP JUMPDEST JUMPDEST PUSH2 0x3577 DUP8 DUP3 DUP9 ADD PUSH2 0x2F1B JUMP JUMPDEST SWAP5 POP POP PUSH1 0x20 DUP6 ADD CALLDATALOAD PUSH8 0xFFFFFFFFFFFFFFFF DUP2 GT ISZERO PUSH2 0x3598 JUMPI PUSH2 0x3597 PUSH2 0x2DFE JUMP JUMPDEST JUMPDEST PUSH2 0x35A4 DUP8 DUP3 DUP9 ADD PUSH2 0x2F1B JUMP JUMPDEST SWAP4 POP POP PUSH1 0x40 PUSH2 0x35B5 DUP8 DUP3 DUP9 ADD PUSH2 0x2F60 JUMP JUMPDEST SWAP3 POP POP PUSH1 0x60 PUSH2 0x35C6 DUP8 DUP3 DUP9 ADD PUSH2 0x2F60 JUMP JUMPDEST SWAP2 POP POP SWAP3 SWAP6 SWAP2 SWAP5 POP SWAP3 POP JUMP JUMPDEST PUSH32 0x4E487B7100000000000000000000000000000000000000000000000000000000 PUSH1 0x0 MSTORE PUSH1 0x21 PUSH1 0x4 MSTORE PUSH1 0x24 PUSH1 0x0 REVERT JUMPDEST PUSH1 0x3 DUP2 LT PUSH2 0x3612 JUMPI PUSH2 0x3611 PUSH2 0x35D2 JUMP JUMPDEST JUMPDEST POP JUMP JUMPDEST PUSH1 0x0 DUP2 SWAP1 POP PUSH2 0x3623 DUP3 PUSH2 0x3601 JUMP JUMPDEST SWAP2 SWAP1 POP JUMP JUMPDEST PUSH1 0x0 PUSH2 0x3633 DUP3 PUSH2 0x3615 JUMP JUMPDEST SWAP1 POP SWAP2 SWAP1 POP JUMP JUMPDEST PUSH2 0x3643 DUP2 PUSH2 0x3628 JUMP JUMPDEST DUP3 MSTORE POP POP JUMP JUMPDEST PUSH1 0x0 PUSH1 0x20 DUP3 ADD SWAP1 POP PUSH2 0x365E PUSH1 0x0 DUP4 ADD DUP5 PUSH2 0x363A JUMP JUMPDEST SWAP3 SWAP2 POP POP JUMP JUMPDEST PUSH1 0x0 PUSH1 0x20 DUP3 DUP5 SUB SLT ISZERO PUSH2 0x367A JUMPI PUSH2 0x3679 PUSH2 0x2DF9 JUMP JUMPDEST JUMPDEST PUSH1 0x0 PUSH2 0x3688 DUP5 DUP3 DUP6 ADD PUSH2 0x2F60 JUMP JUMPDEST SWAP2 POP POP SWAP3 SWAP2 POP POP JUMP JUMPDEST PUSH1 0x0 DUP2 SWAP1 POP SWAP3 SWAP2 POP POP JUMP JUMPDEST PUSH1 0x0 PUSH2 0x36A7 DUP3 PUSH2 0x302D JUMP JUMPDEST PUSH2 0x36B1 DUP2 DUP6 PUSH2 0x3691 JUMP JUMPDEST SWAP4 POP PUSH2 0x36C1 DUP2 DUP6 PUSH1 0x20 DUP7 ADD PUSH2 0x3049 JUMP JUMPDEST DUP1 DUP5 ADD SWAP2 POP POP SWAP3 SWAP2 POP POP JUMP JUMPDEST PUSH1 0x0 PUSH2 0x36D9 DUP3 DUP5 PUSH2 0x369C JUMP JUMPDEST SWAP2 POP DUP2 SWAP1 POP SWAP3 SWAP2 POP POP JUMP JUMPDEST PUSH32 0x4E487B7100000000000000000000000000000000000000000000000000000000 PUSH1 0x0 MSTORE PUSH1 0x32 PUSH1 0x4 MSTORE PUSH1 0x24 PUSH1 0x0 REVERT JUMPDEST PUSH32 0x4E487B7100000000000000000000000000000000000000000000000000000000 PUSH1 0x0 MSTORE PUSH1 0x22 PUSH1 0x4 MSTORE PUSH1 0x24 PUSH1 0x0 REVERT JUMPDEST PUSH1 0x0 PUSH1 0x2 DUP3 DIV SWAP1 POP PUSH1 0x1 DUP3 AND DUP1 PUSH2 0x375A JUMPI PUSH1 0x7F DUP3 AND SWAP2 POP JUMPDEST PUSH1 0x20 DUP3 LT DUP2 SUB PUSH2 0x376D JUMPI PUSH2 0x376C PUSH2 0x3713 JUMP JUMPDEST JUMPDEST POP SWAP2 SWAP1 POP JUMP JUMPDEST PUSH1 0x0 DUP2 SWAP1 POP DUP2 PUSH1 0x0 MSTORE PUSH1 0x20 PUSH1 0x0 KECCAK256 SWAP1 POP SWAP2 SWAP1 POP JUMP JUMPDEST PUSH1 0x0 PUSH1 0x20 PUSH1 0x1F DUP4 ADD DIV SWAP1 POP SWAP2 SWAP1 POP JUMP JUMPDEST PUSH1 0x0 DUP3 DUP3 SHL SWAP1 POP SWAP3 SWAP2 POP POP JUMP JUMPDEST PUSH1 0x0 PUSH1 0x8 DUP4 MUL PUSH2 0x37D5 PUSH32 0xFFFFFFFFFFFFFFFFFFFFFFFFFFFFFFFFFFFFFFFFFFFFFFFFFFFFFFFFFFFFFFFF DUP3 PUSH2 0x3798 JUMP JUMPDEST PUSH2 0x37DF DUP7 DUP4 PUSH2 0x3798 JUMP JUMPDEST SWAP6 POP DUP1 NOT DUP5 AND SWAP4 POP DUP1 DUP7 AND DUP5 OR SWAP3 POP POP POP SWAP4 SWAP3 POP POP POP JUMP JUMPDEST PUSH1 0x0 DUP2 SWAP1 POP SWAP2 SWAP1 POP JUMP JUMPDEST PUSH1 0x0 PUSH2 0x381C PUSH2 0x3817 PUSH2 0x3812 DUP5 PUSH2 0x2DBB JUMP JUMPDEST PUSH2 0x37F7 JUMP JUMPDEST PUSH2 0x2DBB JUMP JUMPDEST SWAP1 POP SWAP2 SWAP1 POP JUMP JUMPDEST PUSH1 0x0 DUP2 SWAP1 POP SWAP2 SWAP1 POP JUMP JUMPDEST PUSH2 0x3836 DUP4 PUSH2 0x3801 JUMP JUMPDEST PUSH2 0x384A PUSH2 0x3842 DUP3 PUSH2 0x3823 JUMP JUMPDEST DUP5 DUP5 SLOAD PUSH2 0x37A5 JUMP JUMPDEST DUP3 SSTORE POP POP POP POP JUMP JUMPDEST PUSH1 0x0 SWAP1 JUMP JUMPDEST PUSH2 0x385F PUSH2 0x3852 JUMP JUMPDEST PUSH2 0x386A DUP2 DUP5 DUP5 PUSH2 0x382D JUMP JUMPDEST POP POP POP JUMP JUMPDEST JUMPDEST DUP2 DUP2 LT ISZERO PUSH2 0x388E JUMPI PUSH2 0x3883 PUSH1 0x0 DUP3 PUSH2 0x3857 JUMP JUMPDEST PUSH1 0x1 DUP2 ADD SWAP1 POP PUSH2 0x3870 JUMP JUMPDEST POP POP JUMP JUMPDEST PUSH1 0x1F DUP3 GT ISZERO PUSH2 0x38D3 JUMPI PUSH2 0x38A4 DUP2 PUSH2 0x3773 JUMP JUMPDEST PUSH2 0x38AD DUP5 PUSH2 0x3788 JUMP JUMPDEST DUP2 ADD PUSH1 0x20 DUP6 LT ISZERO PUSH2 0x38BC JUMPI DUP2 SWAP1 POP JUMPDEST PUSH2 0x38D0 PUSH2 0x38C8 DUP6 PUSH2 0x3788 JUMP JUMPDEST DUP4 ADD DUP3 PUSH2 0x386F JUMP JUMPDEST POP POP JUMPDEST POP POP POP JUMP JUMPDEST PUSH1 0x0 DUP3 DUP3 SHR SWAP1 POP SWAP3 SWAP2 POP POP JUMP JUMPDEST PUSH1 0x0 PUSH2 0x38F6 PUSH1 0x0 NOT DUP5 PUSH1 0x8 MUL PUSH2 0x38D8 JUMP JUMPDEST NOT DUP1 DUP4 AND SWAP2 POP POP SWAP3 SWAP2 POP POP JUMP JUMPDEST PUSH1 0x0 PUSH2 0x390F DUP4 DUP4 PUSH2 0x38E5 JUMP JUMPDEST SWAP2 POP DUP3 PUSH1 0x2 MUL DUP3 OR SWAP1 POP SWAP3 SWAP2 POP POP JUMP JUMPDEST PUSH2 0x3928 DUP3 PUSH2 0x302D JUMP JUMPDEST PUSH8 0xFFFFFFFFFFFFFFFF DUP2 GT ISZERO PUSH2 0x3941 JUMPI PUSH2 0x3940 PUSH2 0x2E1E JUMP JUMPDEST JUMPDEST PUSH2 0x394B DUP3 SLOAD PUSH2 0x3742 JUMP JUMPDEST PUSH2 0x3956 DUP3 DUP3 DUP6 PUSH2 0x3892 JUMP JUMPDEST PUSH1 0x0 PUSH1 0x20 SWAP1 POP PUSH1 0x1F DUP4 GT PUSH1 0x1 DUP2 EQ PUSH2 0x3989 JUMPI PUSH1 0x0 DUP5 ISZERO PUSH2 0x3977 JUMPI DUP3 DUP8 ADD MLOAD SWAP1 POP JUMPDEST PUSH2 0x3981 DUP6 DUP3 PUSH2 0x3903 JUMP JUMPDEST DUP7 SSTORE POP PUSH2 0x39E9 JUMP JUMPDEST PUSH1 0x1F NOT DUP5 AND PUSH2 0x3997 DUP7 PUSH2 0x3773 JUMP JUMPDEST PUSH1 0x0 JUMPDEST DUP3 DUP2 LT ISZERO PUSH2 0x39BF JUMPI DUP5 DUP10 ADD MLOAD DUP3 SSTORE PUSH1 0x1 DUP3 ADD SWAP2 POP PUSH1 0x20 DUP6 ADD SWAP5 POP PUSH1 0x20 DUP2 ADD SWAP1 POP PUSH2 0x399A JUMP JUMPDEST DUP7 DUP4 LT ISZERO PUSH2 0x39DC JUMPI DUP5 DUP10 ADD MLOAD PUSH2 0x39D8 PUSH1 0x1F DUP10 AND DUP3 PUSH2 0x38E5 JUMP JUMPDEST DUP4 SSTORE POP JUMPDEST PUSH1 0x1 PUSH1 0x2 DUP9 MUL ADD DUP9 SSTORE POP POP POP JUMPDEST POP POP POP POP POP POP JUMP JUMPDEST PUSH32 0x4E487B7100000000000000000000000000000000000000000000000000000000 PUSH1 0x0 MSTORE PUSH1 0x11 PUSH1 0x4 MSTORE PUSH1 0x24 PUSH1 0x0 REVERT JUMPDEST PUSH1 0x0 PUSH2 0x3A2B DUP3 PUSH2 0x2DBB JUMP JUMPDEST SWAP2 POP PUSH32 0xFFFFFFFFFFFFFFFFFFFFFFFFFFFFFFFFFFFFFFFFFFFFFFFFFFFFFFFFFFFFFFFF DUP3 SUB PUSH2 0x3A5D JUMPI PUSH2 0x3A5C PUSH2 0x39F1 JUMP JUMPDEST JUMPDEST PUSH1 0x1 DUP3 ADD SWAP1 POP SWAP2 SWAP1 POP JUMP JUMPDEST PUSH1 0x0 PUSH2 0x3A73 DUP3 PUSH2 0x2DBB JUMP JUMPDEST SWAP2 POP PUSH2 0x3A7E DUP4 PUSH2 0x2DBB JUMP JUMPDEST SWAP3 POP DUP3 DUP3 ADD SWAP1 POP DUP1 DUP3 GT ISZERO PUSH2 0x3A96 JUMPI PUSH2 0x3A95 PUSH2 0x39F1 JUMP JUMPDEST JUMPDEST SWAP3 SWAP2 POP POP JUMP JUMPDEST PUSH32 0x4E487B7100000000000000000000000000000000000000000000000000000000 PUSH1 0x0 MSTORE PUSH1 0x12 PUSH1 0x4 MSTORE PUSH1 0x24 PUSH1 0x0 REVERT JUMPDEST PUSH1 0x0 PUSH2 0x3AD6 DUP3 PUSH2 0x2DBB JUMP JUMPDEST SWAP2 POP PUSH2 0x3AE1 DUP4 PUSH2 0x2DBB JUMP JUMPDEST SWAP3 POP DUP3 PUSH2 0x3AF1 JUMPI PUSH2 0x3AF0 PUSH2 0x3A9C JUMP JUMPDEST JUMPDEST DUP3 DUP3 DIV SWAP1 POP SWAP3 SWAP2 POP POP JUMP JUMPDEST PUSH1 0x0 DUP2 SWAP1 POP SWAP3 SWAP2 POP POP JUMP JUMPDEST POP JUMP JUMPDEST PUSH1 0x0 PUSH2 0x3B17 PUSH1 0x0 DUP4 PUSH2 0x3AFC JUMP JUMPDEST SWAP2 POP PUSH2 0x3B22 DUP3 PUSH2 0x3B07 JUMP JUMPDEST PUSH1 0x0 DUP3 ADD SWAP1 POP SWAP2 SWAP1 POP JUMP JUMPDEST PUSH1 0x0 PUSH2 0x3B38 DUP3 PUSH2 0x3B0A JUMP JUMPDEST SWAP2 POP DUP2 SWAP1 POP SWAP2 SWAP1 POP JUMP JUMPDEST PUSH1 0x0 PUSH2 0x3B4D DUP3 PUSH2 0x2DBB JUMP JUMPDEST SWAP2 POP PUSH2 0x3B58 DUP4 PUSH2 0x2DBB JUMP JUMPDEST SWAP3 POP DUP3 DUP3 SUB SWAP1 POP DUP2 DUP2 GT ISZERO PUSH2 0x3B70 JUMPI PUSH2 0x3B6F PUSH2 0x39F1 JUMP JUMPDEST JUMPDEST SWAP3 SWAP2 POP POP JUMP INVALID LOG2 PUSH5 0x6970667358 0x22 SLT KECCAK256 0xEE PUSH1 0x1A REVERT 0xAD STOP CODECOPY SWAP11 CREATE2 ORIGIN 0xCF 0xDA JUMPI PUSH11 0xB393D92601B705A9DDC6B4 0xE5 0xA6 SWAP10 BALANCE 0xAF PUSH1 0x3 PUSH5 0x736F6C6343 STOP ADDMOD GT STOP CALLER "},"gasEstimates":{"creation":{"codeDepositCost":"3055200","executionCost":"infinite","totalCost":"infinite"},"external":{"checkUpkeep(bytes)":"infinite","createSurvey(string,string,uint256,uint256)":"infinite","distributeFundsFromCompletedSurvey(uint256)":"infinite","getAllSurveyResponseData(string)":"infinite","getCompanyId(string)":"infinite","getFeeHolderAmount()":"infinite","getInterval()":"infinite","getLastTimeStamp(string)":"infinite","getOwner()":"infinite","getPayoutPerPersonBySurveyId(string)":"infinite","getSurveyCreationFee()":"infinite","getSurveyPayoutAmount(string)":"infinite","getSurveyResponseData(string,uint256)":"infinite","getSurveyState(string)":"infinite","getSurveyTaker(string,uint256)":"infinite","performUpkeep(bytes)":"infinite","removeCompletedSurveys()":"infinite","sendUserSurveyData(string,string,address)":"infinite","withdrawFromFeeHolder(uint256)":"infinite"},"internal":{"c_9b9af3cf(bytes8)":"11","c_false9b9af3cf(bytes8)":"infinite","c_true9b9af3cf(bytes8)":"infinite"}},"methodIdentifiers":{"checkUpkeep(bytes)":"6e04ff0d","createSurvey(string,string,uint256,uint256)":"ac9d6a2b","distributeFundsFromCompletedSurvey(uint256)":"c3b9a2c8","getAllSurveyResponseData(string)":"50597f8a","getCompanyId(string)":"e1744d72","getFeeHolderAmount()":"01b43c3e","getInterval()":"91ad27b4","getLastTimeStamp(string)":"653cba7d","getOwner()":"893d20e8","getPayoutPerPersonBySurveyId(string)":"e74b36df","getSurveyCreationFee()":"bab26fd2","getSurveyPayoutAmount(string)":"9759ac36","getSurveyResponseData(string,uint256)":"24405aa9","getSurveyState(string)":"b374ff29","getSurveyTaker(string,uint256)":"12998301","performUpkeep(bytes)":"4585e33b","removeCompletedSurveys()":"eb9992c3","sendUserSurveyData(string,string,address)":"24445aeb","withdrawFromFeeHolder(uint256)":"e46552c9"}},"storageLayout":{"storage":[{"astId":168,"contract":"contracts/Surpay.sol:Surpay","label":"i_owner","offset":0,"slot":"0","type":"t_address"},{"astId":173,"contract":"contracts/Surpay.sol:Surpay","label":"s_surveys","offset":0,"slot":"1","type":"t_mapping(t_string_memory_ptr,t_struct(Survey)161_storage)"},{"astId":176,"contract":"contracts/Surpay.sol:Surpay","label":"s_completedSurveys","offset":0,"slot":"2","type":"t_array(t_string_storage)dyn_storage"},{"astId":180,"contract":"contracts/Surpay.sol:Surpay","label":"s_feeHolder","offset":0,"slot":"3","type":"t_uint256"}],"types":{"t_address":{"encoding":"inplace","label":"address","numberOfBytes":"20"},"t_address_payable":{"encoding":"inplace","label":"address payable","numberOfBytes":"20"},"t_array(t_address_payable)dyn_storage":{"base":"t_address_payable","encoding":"dynamic_array","label":"address payable[]","numberOfBytes":"32"},"t_array(t_string_storage)dyn_storage":{"base":"t_string_storage","encoding":"dynamic_array","label":"string[]","numberOfBytes":"32"},"t_enum(SurveyState)165":{"encoding":"inplace","label":"enum Surpay.SurveyState","numberOfBytes":"1"},"t_mapping(t_string_memory_ptr,t_struct(Survey)161_storage)":{"encoding":"mapping","key":"t_string_memory_ptr","label":"mapping(string => struct Surpay.Survey)","numberOfBytes":"32","value":"t_struct(Survey)161_storage"},"t_string_memory_ptr":{"encoding":"bytes","label":"string","numberOfBytes":"32"},"t_string_storage":{"encoding":"bytes","label":"string","numberOfBytes":"32"},"t_struct(Survey)161_storage":{"encoding":"inplace","label":"struct Surpay.Survey","members":[{"astId":141,"contract":"contracts/Surpay.sol:Surpay","label":"companyId","offset":0,"slot":"0","type":"t_string_storage"},{"astId":143,"contract":"contracts/Surpay.sol:Surpay","label":"companyAddress","offset":0,"slot":"1","type":"t_address"},{"astId":145,"contract":"contracts/Surpay.sol:Surpay","label":"totalPayoutAmount","offset":0,"slot":"2","type":"t_uint256"},{"astId":147,"contract":"contracts/Surpay.sol:Surpay","label":"numOfParticipantsDesired","offset":0,"slot":"3","type":"t_uint256"},{"astId":149,"contract":"contracts/Surpay.sol:Surpay","label":"numOfParticipantsFulfilled","offset":0,"slot":"4","type":"t_uint256"},{"astId":152,"contract":"contracts/Surpay.sol:Surpay","label":"surveyResponseData","offset":0,"slot":"5","type":"t_array(t_string_storage)dyn_storage"},{"astId":155,"contract":"contracts/Surpay.sol:Surpay","label":"surveyTakers","offset":0,"slot":"6","type":"t_array(t_address_payable)dyn_storage"},{"astId":157,"contract":"contracts/Surpay.sol:Surpay","label":"startTimeStamp","offset":0,"slot":"7","type":"t_uint256"},{"astId":160,"contract":"contracts/Surpay.sol:Surpay","label":"surveyState","offset":0,"slot":"8","type":"t_enum(SurveyState)165"}],"numberOfBytes":"288"},"t_uint256":{"encoding":"inplace","label":"uint256","numberOfBytes":"32"}}},"userdoc":{"kind":"user","methods":{"sendUserSurveyData(string,string,address)":{"notice":"Function can only be called by the contract owner.This was neccissary to ensure that the user data wasa valid response to the survey. "}},"version":1}}}}