{
  "_format": "hh-sol-artifact-1",
  "contractName": "Surpay",
  "sourceName": "contracts/Surpay.sol",
  "abi": [
    {
      "inputs": [
        {
          "internalType": "uint256",
          "name": "_surveyCreationFee",
          "type": "uint256"
        },
        {
          "internalType": "uint256",
          "name": "_interval",
          "type": "uint256"
        }
      ],
      "stateMutability": "nonpayable",
      "type": "constructor"
    },
    {
      "inputs": [],
      "name": "Surpay__MaximumRespondantsReached",
      "type": "error"
    },
    {
      "inputs": [],
      "name": "Surpay__NotEnoughFunds",
      "type": "error"
    },
    {
      "inputs": [],
      "name": "Surpay__SurveyNotFound",
      "type": "error"
    },
    {
      "inputs": [],
      "name": "Surpay__TransferFailed",
      "type": "error"
    },
    {
      "anonymous": false,
      "inputs": [
        {
          "indexed": true,
          "internalType": "string",
          "name": "surveyId",
          "type": "string"
        }
      ],
      "name": "SurveyCompleted",
      "type": "event"
    },
    {
      "anonymous": false,
      "inputs": [
        {
          "indexed": true,
          "internalType": "string",
          "name": "surveyId",
          "type": "string"
        }
      ],
      "name": "SurveyCreated",
      "type": "event"
    },
    {
      "anonymous": false,
      "inputs": [
        {
          "indexed": true,
          "internalType": "string",
          "name": "surveyId",
          "type": "string"
        }
      ],
      "name": "SurveyTakersPaid",
      "type": "event"
    },
    {
      "anonymous": false,
      "inputs": [
        {
          "indexed": true,
          "internalType": "address",
          "name": "surveyTaker",
          "type": "address"
        }
      ],
      "name": "UserAddedToSurvey",
      "type": "event"
    },
    {
      "inputs": [
        {
          "internalType": "bytes",
          "name": "",
          "type": "bytes"
        }
      ],
      "name": "checkUpkeep",
      "outputs": [
        {
          "internalType": "bool",
          "name": "upkeepNeeded",
          "type": "bool"
        },
        {
          "internalType": "bytes",
          "name": "",
          "type": "bytes"
        }
      ],
      "stateMutability": "nonpayable",
      "type": "function"
    },
    {
      "inputs": [
        {
          "internalType": "string",
          "name": "_surveyId",
          "type": "string"
        },
        {
          "internalType": "string",
          "name": "_companyId",
          "type": "string"
        },
        {
          "internalType": "uint256",
          "name": "_totalPayoutAmount",
          "type": "uint256"
        },
        {
          "internalType": "uint256",
          "name": "_numOfParticipantsDesired",
          "type": "uint256"
        }
      ],
      "name": "createSurvey",
      "outputs": [],
      "stateMutability": "payable",
      "type": "function"
    },
    {
      "inputs": [],
      "name": "getInterval",
      "outputs": [
        {
          "internalType": "uint256",
          "name": "",
          "type": "uint256"
        }
      ],
      "stateMutability": "view",
      "type": "function"
    },
    {
      "inputs": [
        {
          "internalType": "uint256",
          "name": "surveyIndex",
          "type": "uint256"
        }
      ],
      "name": "getLastTimeStampBySurveyIndex",
      "outputs": [
        {
          "internalType": "uint256",
          "name": "",
          "type": "uint256"
        }
      ],
      "stateMutability": "view",
      "type": "function"
    },
    {
      "inputs": [
        {
          "internalType": "uint256",
          "name": "index",
          "type": "uint256"
        }
      ],
      "name": "getPayoutByIndex",
      "outputs": [
        {
          "internalType": "uint256",
          "name": "",
          "type": "uint256"
        }
      ],
      "stateMutability": "view",
      "type": "function"
    },
    {
      "inputs": [
        {
          "internalType": "uint256",
          "name": "index",
          "type": "uint256"
        }
      ],
      "name": "getSurveyByIndex",
      "outputs": [
        {
          "internalType": "string",
          "name": "",
          "type": "string"
        }
      ],
      "stateMutability": "view",
      "type": "function"
    },
    {
      "inputs": [],
      "name": "getSurveyCreationFee",
      "outputs": [
        {
          "internalType": "uint256",
          "name": "",
          "type": "uint256"
        }
      ],
      "stateMutability": "view",
      "type": "function"
    },
    {
      "inputs": [
        {
          "internalType": "uint256",
          "name": "surveyIndex",
          "type": "uint256"
        },
        {
          "internalType": "uint256",
          "name": "responseIndex",
          "type": "uint256"
        }
      ],
      "name": "getSurveyResponseDataByIndex",
      "outputs": [
        {
          "internalType": "string",
          "name": "",
          "type": "string"
        }
      ],
      "stateMutability": "view",
      "type": "function"
    },
    {
      "inputs": [
        {
          "internalType": "string",
          "name": "_surveyId",
          "type": "string"
        }
      ],
      "name": "getSurveyState",
      "outputs": [
        {
          "internalType": "enum Surpay.SurveyState",
          "name": "",
          "type": "uint8"
        }
      ],
      "stateMutability": "view",
      "type": "function"
    },
    {
      "inputs": [
        {
          "internalType": "uint256",
          "name": "surveyIndex",
          "type": "uint256"
        },
        {
          "internalType": "uint256",
          "name": "userIndex",
          "type": "uint256"
        }
      ],
      "name": "getSurveyTakerByIndex",
      "outputs": [
        {
          "internalType": "address",
          "name": "",
          "type": "address"
        }
      ],
      "stateMutability": "view",
      "type": "function"
    },
    {
      "inputs": [
        {
          "internalType": "bytes",
          "name": "",
          "type": "bytes"
        }
      ],
      "name": "performUpkeep",
      "outputs": [],
      "stateMutability": "nonpayable",
      "type": "function"
    },
    {
      "inputs": [
        {
          "internalType": "string",
          "name": "_surveyId",
          "type": "string"
        },
        {
          "internalType": "string",
          "name": "_surveyData",
          "type": "string"
        }
      ],
      "name": "sendUserSurveyData",
      "outputs": [],
      "stateMutability": "nonpayable",
      "type": "function"
    }
  ],
  "bytecode": "0x60c06040523480156200001157600080fd5b5060405162002b8d38038062002b8d83398181016040528101906200003791906200008f565b81608081815250508060a081815250505050620000d6565b600080fd5b6000819050919050565b620000698162000054565b81146200007557600080fd5b50565b60008151905062000089816200005e565b92915050565b60008060408385031215620000a957620000a86200004f565b5b6000620000b98582860162000078565b9250506020620000cc8582860162000078565b9150509250929050565b60805160a051612a8a62000103600039600061111e01526000818161128301526115dd0152612a8a6000f3fe6080604052600436106100a75760003560e01c80639f5922a7116100645780639f5922a7146101e1578063ab279df41461021e578063ac9d6a2b1461025b578063b374ff2914610277578063bab26fd2146102b4578063f3207403146102df576100a7565b80632b5f2325146100ac5780634585e33b146100e95780636e04ff0d1461011257806377b5df8e146101505780638beb80da1461017957806391ad27b4146101b6575b600080fd5b3480156100b857600080fd5b506100d360048036038101906100ce9190611e3a565b61031c565b6040516100e09190611e76565b60405180910390f35b3480156100f557600080fd5b50610110600480360381019061010b9190611ef6565b61038e565b005b34801561011e57600080fd5b5061013960048036038101906101349190612084565b6107e2565b604051610147929190612167565b60405180910390f35b34801561015c57600080fd5b5061017760048036038101906101729190612238565b610d62565b005b34801561018557600080fd5b506101a0600480360381019061019b9190611e3a565b6110ec565b6040516101ad9190611e76565b60405180910390f35b3480156101c257600080fd5b506101cb61111a565b6040516101d89190611e76565b60405180910390f35b3480156101ed57600080fd5b50610208600480360381019061020391906122b0565b611142565b6040516102159190612331565b60405180910390f35b34801561022a57600080fd5b50610245600480360381019061024091906122b0565b6111ad565b60405161025291906123a1565b60405180910390f35b610275600480360381019061027091906123c3565b611281565b005b34801561028357600080fd5b5061029e60048036038101906102999190612462565b6114fc565b6040516102ab9190612522565b60405180910390f35b3480156102c057600080fd5b506102c96115d9565b6040516102d69190611e76565b60405180910390f35b3480156102eb57600080fd5b5061030660048036038101906103019190611e3a565b611601565b60405161031391906123a1565b60405180910390f35b60008080549050821015610357576000828154811061033e5761033d61253d565b5b90600052602060002090600a0201600301549050610389565b6040517fb01e933700000000000000000000000000000000000000000000000000000000815260040160405180910390fd5b919050565b60006103a8604051806020016040528060008152506107e2565b50905080156107dd5760006001805480602002602001604051908101604052809291908181526020016000905b8282101561074c57838290600052602060002090600a0201604051806101400160405290816000820180546104099061259b565b80601f01602080910402602001604051908101604052809291908181526020018280546104359061259b565b80156104825780601f1061045757610100808354040283529160200191610482565b820191906000526020600020905b81548152906001019060200180831161046557829003601f168201915b5050505050815260200160018201805461049b9061259b565b80601f01602080910402602001604051908101604052809291908181526020018280546104c79061259b565b80156105145780601f106104e957610100808354040283529160200191610514565b820191906000526020600020905b8154815290600101906020018083116104f757829003601f168201915b505050505081526020016002820160009054906101000a900473ffffffffffffffffffffffffffffffffffffffff1673ffffffffffffffffffffffffffffffffffffffff1673ffffffffffffffffffffffffffffffffffffffff16815260200160038201548152602001600482015481526020016005820154815260200160068201805480602002602001604051908101604052809291908181526020016000905b828210156106625783829060005260206000200180546105d59061259b565b80601f01602080910402602001604051908101604052809291908181526020018280546106019061259b565b801561064e5780601f106106235761010080835404028352916020019161064e565b820191906000526020600020905b81548152906001019060200180831161063157829003601f168201915b5050505050815260200190600101906105b6565b505050508152602001600782018054806020026020016040519081016040528092919081815260200182805480156106ef57602002820191906000526020600020905b8160009054906101000a900473ffffffffffffffffffffffffffffffffffffffff1673ffffffffffffffffffffffffffffffffffffffff16815260200190600101908083116106a5575b50505050508152602001600882015481526020016009820160009054906101000a900460ff166001811115610727576107266124ab565b5b6001811115610739576107386124ab565b5b81525050815260200190600101906103d5565b50505050905060005b81518110156107da57610767816116fc565b81818151811061077a5761077961253d565b5b6020026020010151600001516040516107939190612608565b60405180910390207fa7998895d8d2e7856091bd8a5895a54d831c4d6c8bd8a8611ec2c1f873872fef60405160405180910390a280806107d29061264e565b915050610755565b50505b505050565b60006060600080805480602002602001604051908101604052809291908181526020016000905b82821015610b8057838290600052602060002090600a02016040518061014001604052908160008201805461083d9061259b565b80601f01602080910402602001604051908101604052809291908181526020018280546108699061259b565b80156108b65780601f1061088b576101008083540402835291602001916108b6565b820191906000526020600020905b81548152906001019060200180831161089957829003601f168201915b505050505081526020016001820180546108cf9061259b565b80601f01602080910402602001604051908101604052809291908181526020018280546108fb9061259b565b80156109485780601f1061091d57610100808354040283529160200191610948565b820191906000526020600020905b81548152906001019060200180831161092b57829003601f168201915b505050505081526020016002820160009054906101000a900473ffffffffffffffffffffffffffffffffffffffff1673ffffffffffffffffffffffffffffffffffffffff1673ffffffffffffffffffffffffffffffffffffffff16815260200160038201548152602001600482015481526020016005820154815260200160068201805480602002602001604051908101604052809291908181526020016000905b82821015610a96578382906000526020600020018054610a099061259b565b80601f0160208091040260200160405190810160405280929190818152602001828054610a359061259b565b8015610a825780601f10610a5757610100808354040283529160200191610a82565b820191906000526020600020905b815481529060010190602001808311610a6557829003601f168201915b5050505050815260200190600101906109ea565b50505050815260200160078201805480602002602001604051908101604052809291908181526020018280548015610b2357602002820191906000526020600020905b8160009054906101000a900473ffffffffffffffffffffffffffffffffffffffff1673ffffffffffffffffffffffffffffffffffffffff1681526020019060010190808311610ad9575b50505050508152602001600882015481526020016009820160009054906101000a900460ff166001811115610b5b57610b5a6124ab565b5b6001811115610b6d57610b6c6124ab565b5b8152505081526020019060010190610809565b50505050905060005b8151811015610d3f57600180811115610ba557610ba46124ab565b5b828281518110610bb857610bb761253d565b5b602002602001015161012001516001811115610bd757610bd66124ab565b5b03610d2c576001828281518110610bf157610bf061253d565b5b602002602001015190806001815401808255809150506001900390600052602060002090600a02016000909190919091506000820151816000019081610c379190612842565b506020820151816001019081610c4d9190612842565b5060408201518160020160006101000a81548173ffffffffffffffffffffffffffffffffffffffff021916908373ffffffffffffffffffffffffffffffffffffffff160217905550606082015181600301556080820151816004015560a0820151816005015560c0820151816006019080519060200190610ccf929190611c11565b5060e0820151816007019080519060200190610cec929190611c6a565b5061010082015181600801556101208201518160090160006101000a81548160ff02191690836001811115610d2457610d236124ab565b5b021790555050505b8080610d379061264e565b915050610b89565b5060006001805490501115610d575760019250610d5c565b600092505b50915091565b60005b6000805490508110156110e75782604051602001610d839190612608565b6040516020818303038152906040528051906020012060008281548110610dad57610dac61253d565b5b90600052602060002090600a0201600001604051602001610dce9190612997565b60405160208183030381529060405280519060200120036110d45760008181548110610dfd57610dfc61253d565b5b90600052602060002090600a02016005015460008281548110610e2357610e2261253d565b5b90600052602060002090600a02016004015411156110a25760008181548110610e4f57610e4e61253d565b5b90600052602060002090600a020160060182908060018154018082558091505060019003906000526020600020016000909190919091509081610e929190612842565b5060008181548110610ea757610ea661253d565b5b90600052602060002090600a0201600701339080600181540180825580915050600190039060005260206000200160009091909190916101000a81548173ffffffffffffffffffffffffffffffffffffffff021916908373ffffffffffffffffffffffffffffffffffffffff16021790555060008181548110610f2d57610f2c61253d565b5b90600052602060002090600a02016005016000815480929190610f4f9061264e565b919050555060008181548110610f6857610f6761253d565b5b90600052602060002090600a02016005015460008281548110610f8e57610f8d61253d565b5b90600052602060002090600a0201600401540361105a57600160008281548110610fbb57610fba61253d565b5b90600052602060002090600a020160090160006101000a81548160ff02191690836001811115610fee57610fed6124ab565b5b0217905550600081815481106110075761100661253d565b5b90600052602060002090600a02016000016040516110259190612997565b60405180910390207fc9629617ac320e57fa622f79c211617de659a3b7cbdda927e47dea5e4c0ab4da60405160405180910390a25b3373ffffffffffffffffffffffffffffffffffffffff167f099cc064944e6569611b439843932fa853d46618d78ca5a8e3989bcc5614853d60405160405180910390a26110e7565b6040517f13c8108e00000000000000000000000000000000000000000000000000000000815260040160405180910390fd5b80806110df9061264e565b915050610d65565b505050565b60008082815481106111015761110061253d565b5b90600052602060002090600a0201600801549050919050565b60007f0000000000000000000000000000000000000000000000000000000000000000905090565b60008083815481106111575761115661253d565b5b90600052602060002090600a0201600701828154811061117a5761117961253d565b5b9060005260206000200160009054906101000a900473ffffffffffffffffffffffffffffffffffffffff16905092915050565b6060600083815481106111c3576111c261253d565b5b90600052602060002090600a020160060182815481106111e6576111e561253d565b5b9060005260206000200180546111fb9061259b565b80601f01602080910402602001604051908101604052809291908181526020018280546112279061259b565b80156112745780601f1061124957610100808354040283529160200191611274565b820191906000526020600020905b81548152906001019060200180831161125757829003601f168201915b5050505050905092915050565b7f00000000000000000000000000000000000000000000000000000000000000003410156112db576040517fc09bb52500000000000000000000000000000000000000000000000000000000815260040160405180910390fd5b6112e3611cf4565b84816000018190525083816020018190525033816040019073ffffffffffffffffffffffffffffffffffffffff16908173ffffffffffffffffffffffffffffffffffffffff16815250508281606001818152505081816080018181525050428161010001818152505060008161012001906001811115611366576113656124ab565b5b9081600181111561137a576113796124ab565b5b8152505060008190806001815401808255809150506001900390600052602060002090600a020160009091909190915060008201518160000190816113bf9190612842565b5060208201518160010190816113d59190612842565b5060408201518160020160006101000a81548173ffffffffffffffffffffffffffffffffffffffff021916908373ffffffffffffffffffffffffffffffffffffffff160217905550606082015181600301556080820151816004015560a0820151816005015560c0820151816006019080519060200190611457929190611c11565b5060e0820151816007019080519060200190611474929190611c6a565b5061010082015181600801556101208201518160090160006101000a81548160ff021916908360018111156114ac576114ab6124ab565b5b02179055505050846040516114c19190612608565b60405180910390207fcc65c6fb1d804ba1dc418f9e3659483d310357279f035d45b8ea484fd6fe4a2f60405160405180910390a25050505050565b60008060005b6000805490508110156115cf57836040516020016115209190612608565b604051602081830303815290604052805190602001206000828154811061154a5761154961253d565b5b90600052602060002090600a020160000160405160200161156b9190612997565b60405160208183030381529060405280519060200120036115bc576000818154811061159a5761159961253d565b5b90600052602060002090600a020160090160009054906101000a900460ff1691505b80806115c79061264e565b915050611502565b5080915050919050565b60007f0000000000000000000000000000000000000000000000000000000000000000905090565b60606000805490508210156116c557600082815481106116245761162361253d565b5b90600052602060002090600a020160000180546116409061259b565b80601f016020809104026020016040519081016040528092919081815260200182805461166c9061259b565b80156116b95780601f1061168e576101008083540402835291602001916116b9565b820191906000526020600020905b81548152906001019060200180831161169c57829003601f168201915b505050505090506116f7565b6040517fb01e933700000000000000000000000000000000000000000000000000000000815260040160405180910390fd5b919050565b60006001805480602002602001604051908101604052809291908181526020016000905b82821015611a9757838290600052602060002090600a0201604051806101400160405290816000820180546117549061259b565b80601f01602080910402602001604051908101604052809291908181526020018280546117809061259b565b80156117cd5780601f106117a2576101008083540402835291602001916117cd565b820191906000526020600020905b8154815290600101906020018083116117b057829003601f168201915b505050505081526020016001820180546117e69061259b565b80601f01602080910402602001604051908101604052809291908181526020018280546118129061259b565b801561185f5780601f106118345761010080835404028352916020019161185f565b820191906000526020600020905b81548152906001019060200180831161184257829003601f168201915b505050505081526020016002820160009054906101000a900473ffffffffffffffffffffffffffffffffffffffff1673ffffffffffffffffffffffffffffffffffffffff1673ffffffffffffffffffffffffffffffffffffffff16815260200160038201548152602001600482015481526020016005820154815260200160068201805480602002602001604051908101604052809291908181526020016000905b828210156119ad5783829060005260206000200180546119209061259b565b80601f016020809104026020016040519081016040528092919081815260200182805461194c9061259b565b80156119995780601f1061196e57610100808354040283529160200191611999565b820191906000526020600020905b81548152906001019060200180831161197c57829003601f168201915b505050505081526020019060010190611901565b50505050815260200160078201805480602002602001604051908101604052809291908181526020018280548015611a3a57602002820191906000526020600020905b8160009054906101000a900473ffffffffffffffffffffffffffffffffffffffff1673ffffffffffffffffffffffffffffffffffffffff16815260200190600101908083116119f0575b50505050508152602001600882015481526020016009820160009054906101000a900460ff166001811115611a7257611a716124ab565b5b6001811115611a8457611a836124ab565b5b8152505081526020019060010190611720565b5050505090506000818381518110611ab257611ab161253d565b5b602002602001015160a00151828481518110611ad157611ad061253d565b5b602002602001015160600151611ae791906129dd565b905060005b828481518110611aff57611afe61253d565b5b602002602001015160e0015151811015611c0b5747821015611bf8576000838581518110611b3057611b2f61253d565b5b602002602001015160e001518281518110611b4e57611b4d61253d565b5b602002602001015173ffffffffffffffffffffffffffffffffffffffff1683604051611b7990612a3f565b60006040518083038185875af1925050503d8060008114611bb6576040519150601f19603f3d011682016040523d82523d6000602084013e611bbb565b606091505b5050905080611bf6576040517f09e6a19a00000000000000000000000000000000000000000000000000000000815260040160405180910390fd5b505b8080611c039061264e565b915050611aec565b50505050565b828054828255906000526020600020908101928215611c59579160200282015b82811115611c58578251829081611c489190612842565b5091602001919060010190611c31565b5b509050611c669190611d6f565b5090565b828054828255906000526020600020908101928215611ce3579160200282015b82811115611ce25782518260006101000a81548173ffffffffffffffffffffffffffffffffffffffff021916908373ffffffffffffffffffffffffffffffffffffffff16021790555091602001919060010190611c8a565b5b509050611cf09190611d93565b5090565b6040518061014001604052806060815260200160608152602001600073ffffffffffffffffffffffffffffffffffffffff16815260200160008152602001600081526020016000815260200160608152602001606081526020016000815260200160006001811115611d6957611d686124ab565b5b81525090565b5b80821115611d8f5760008181611d869190611db0565b50600101611d70565b5090565b5b80821115611dac576000816000905550600101611d94565b5090565b508054611dbc9061259b565b6000825580601f10611dce5750611ded565b601f016020900490600052602060002090810190611dec9190611d93565b5b50565b6000604051905090565b600080fd5b600080fd5b6000819050919050565b611e1781611e04565b8114611e2257600080fd5b50565b600081359050611e3481611e0e565b92915050565b600060208284031215611e5057611e4f611dfa565b5b6000611e5e84828501611e25565b91505092915050565b611e7081611e04565b82525050565b6000602082019050611e8b6000830184611e67565b92915050565b600080fd5b600080fd5b600080fd5b60008083601f840112611eb657611eb5611e91565b5b8235905067ffffffffffffffff811115611ed357611ed2611e96565b5b602083019150836001820283011115611eef57611eee611e9b565b5b9250929050565b60008060208385031215611f0d57611f0c611dfa565b5b600083013567ffffffffffffffff811115611f2b57611f2a611dff565b5b611f3785828601611ea0565b92509250509250929050565b600080fd5b6000601f19601f8301169050919050565b7f4e487b7100000000000000000000000000000000000000000000000000000000600052604160045260246000fd5b611f9182611f48565b810181811067ffffffffffffffff82111715611fb057611faf611f59565b5b80604052505050565b6000611fc3611df0565b9050611fcf8282611f88565b919050565b600067ffffffffffffffff821115611fef57611fee611f59565b5b611ff882611f48565b9050602081019050919050565b82818337600083830152505050565b600061202761202284611fd4565b611fb9565b90508281526020810184848401111561204357612042611f43565b5b61204e848285612005565b509392505050565b600082601f83011261206b5761206a611e91565b5b813561207b848260208601612014565b91505092915050565b60006020828403121561209a57612099611dfa565b5b600082013567ffffffffffffffff8111156120b8576120b7611dff565b5b6120c484828501612056565b91505092915050565b60008115159050919050565b6120e2816120cd565b82525050565b600081519050919050565b600082825260208201905092915050565b60005b83811015612122578082015181840152602081019050612107565b60008484015250505050565b6000612139826120e8565b61214381856120f3565b9350612153818560208601612104565b61215c81611f48565b840191505092915050565b600060408201905061217c60008301856120d9565b818103602083015261218e818461212e565b90509392505050565b600067ffffffffffffffff8211156121b2576121b1611f59565b5b6121bb82611f48565b9050602081019050919050565b60006121db6121d684612197565b611fb9565b9050828152602081018484840111156121f7576121f6611f43565b5b612202848285612005565b509392505050565b600082601f83011261221f5761221e611e91565b5b813561222f8482602086016121c8565b91505092915050565b6000806040838503121561224f5761224e611dfa565b5b600083013567ffffffffffffffff81111561226d5761226c611dff565b5b6122798582860161220a565b925050602083013567ffffffffffffffff81111561229a57612299611dff565b5b6122a68582860161220a565b9150509250929050565b600080604083850312156122c7576122c6611dfa565b5b60006122d585828601611e25565b92505060206122e685828601611e25565b9150509250929050565b600073ffffffffffffffffffffffffffffffffffffffff82169050919050565b600061231b826122f0565b9050919050565b61232b81612310565b82525050565b60006020820190506123466000830184612322565b92915050565b600081519050919050565b600082825260208201905092915050565b60006123738261234c565b61237d8185612357565b935061238d818560208601612104565b61239681611f48565b840191505092915050565b600060208201905081810360008301526123bb8184612368565b905092915050565b600080600080608085870312156123dd576123dc611dfa565b5b600085013567ffffffffffffffff8111156123fb576123fa611dff565b5b6124078782880161220a565b945050602085013567ffffffffffffffff81111561242857612427611dff565b5b6124348782880161220a565b935050604061244587828801611e25565b925050606061245687828801611e25565b91505092959194509250565b60006020828403121561247857612477611dfa565b5b600082013567ffffffffffffffff81111561249657612495611dff565b5b6124a28482850161220a565b91505092915050565b7f4e487b7100000000000000000000000000000000000000000000000000000000600052602160045260246000fd5b600281106124eb576124ea6124ab565b5b50565b60008190506124fc826124da565b919050565b600061250c826124ee565b9050919050565b61251c81612501565b82525050565b60006020820190506125376000830184612513565b92915050565b7f4e487b7100000000000000000000000000000000000000000000000000000000600052603260045260246000fd5b7f4e487b7100000000000000000000000000000000000000000000000000000000600052602260045260246000fd5b600060028204905060018216806125b357607f821691505b6020821081036125c6576125c561256c565b5b50919050565b600081905092915050565b60006125e28261234c565b6125ec81856125cc565b93506125fc818560208601612104565b80840191505092915050565b600061261482846125d7565b915081905092915050565b7f4e487b7100000000000000000000000000000000000000000000000000000000600052601160045260246000fd5b600061265982611e04565b91507fffffffffffffffffffffffffffffffffffffffffffffffffffffffffffffffff820361268b5761268a61261f565b5b600182019050919050565b60008190508160005260206000209050919050565b60006020601f8301049050919050565b600082821b905092915050565b6000600883026126f87fffffffffffffffffffffffffffffffffffffffffffffffffffffffffffffffff826126bb565b61270286836126bb565b95508019841693508086168417925050509392505050565b6000819050919050565b600061273f61273a61273584611e04565b61271a565b611e04565b9050919050565b6000819050919050565b61275983612724565b61276d61276582612746565b8484546126c8565b825550505050565b600090565b612782612775565b61278d818484612750565b505050565b5b818110156127b1576127a660008261277a565b600181019050612793565b5050565b601f8211156127f6576127c781612696565b6127d0846126ab565b810160208510156127df578190505b6127f36127eb856126ab565b830182612792565b50505b505050565b600082821c905092915050565b6000612819600019846008026127fb565b1980831691505092915050565b60006128328383612808565b9150826002028217905092915050565b61284b8261234c565b67ffffffffffffffff81111561286457612863611f59565b5b61286e825461259b565b6128798282856127b5565b600060209050601f8311600181146128ac576000841561289a578287015190505b6128a48582612826565b86555061290c565b601f1984166128ba86612696565b60005b828110156128e2578489015182556001820191506020850194506020810190506128bd565b868310156128ff57848901516128fb601f891682612808565b8355505b6001600288020188555050505b505050505050565b600081546129218161259b565b61292b81866125cc565b94506001821660008114612946576001811461295b5761298e565b60ff198316865281151582028601935061298e565b61296485612696565b60005b8381101561298657815481890152600182019150602081019050612967565b838801955050505b50505092915050565b60006129a38284612914565b915081905092915050565b7f4e487b7100000000000000000000000000000000000000000000000000000000600052601260045260246000fd5b60006129e882611e04565b91506129f383611e04565b925082612a0357612a026129ae565b5b828204905092915050565b600081905092915050565b50565b6000612a29600083612a0e565b9150612a3482612a19565b600082019050919050565b6000612a4a82612a1c565b915081905091905056fea2646970667358221220452de4054ee8e742021a7ad475481e3228b320f818b47985a038fce08eadd0e764736f6c63430008110033",
  "linkReferences": {},
  "deployedLinkReferences": {}
}