{
  "_format": "hh-sol-artifact-1",
  "contractName": "Surpay",
  "sourceName": "contracts/Surpay.sol",
  "abi": [
    {
      "inputs": [
        {
          "internalType": "uint256",
          "name": "_surveyCreationFee",
          "type": "uint256"
        },
        {
          "internalType": "uint256",
          "name": "_interval",
          "type": "uint256"
        }
      ],
      "stateMutability": "nonpayable",
      "type": "constructor"
    },
    {
      "inputs": [],
      "name": "Surpay__MaximumRespondantsReached",
      "type": "error"
    },
    {
      "inputs": [],
      "name": "Surpay__NotEnoughFunds",
      "type": "error"
    },
    {
      "inputs": [],
      "name": "Surpay__NotOwner",
      "type": "error"
    },
    {
      "inputs": [],
      "name": "Surpay__SurveyNotFound",
      "type": "error"
    },
    {
      "inputs": [],
      "name": "Surpay__TransferFailed",
      "type": "error"
    },
    {
      "inputs": [],
      "name": "Surpay__UpkeepNotNeeded",
      "type": "error"
    },
    {
      "anonymous": false,
      "inputs": [
        {
          "indexed": true,
          "internalType": "string",
          "name": "surveyId",
          "type": "string"
        }
      ],
      "name": "SurveyCompleted",
      "type": "event"
    },
    {
      "anonymous": false,
      "inputs": [
        {
          "indexed": true,
          "internalType": "string",
          "name": "surveyId",
          "type": "string"
        }
      ],
      "name": "SurveyCreated",
      "type": "event"
    },
    {
      "anonymous": false,
      "inputs": [
        {
          "indexed": true,
          "internalType": "string",
          "name": "surveyId",
          "type": "string"
        }
      ],
      "name": "SurveyTakersPaid",
      "type": "event"
    },
    {
      "anonymous": false,
      "inputs": [
        {
          "indexed": true,
          "internalType": "address",
          "name": "surveyTaker",
          "type": "address"
        }
      ],
      "name": "UserAddedToSurvey",
      "type": "event"
    },
    {
      "inputs": [
        {
          "internalType": "bytes",
          "name": "",
          "type": "bytes"
        }
      ],
      "name": "checkUpkeep",
      "outputs": [
        {
          "internalType": "bool",
          "name": "upkeepNeeded",
          "type": "bool"
        },
        {
          "internalType": "bytes",
          "name": "",
          "type": "bytes"
        }
      ],
      "stateMutability": "nonpayable",
      "type": "function"
    },
    {
      "inputs": [
        {
          "internalType": "string",
          "name": "_surveyId",
          "type": "string"
        },
        {
          "internalType": "string",
          "name": "_companyId",
          "type": "string"
        },
        {
          "internalType": "uint256",
          "name": "_totalPayoutAmount",
          "type": "uint256"
        },
        {
          "internalType": "uint256",
          "name": "_numOfParticipantsDesired",
          "type": "uint256"
        }
      ],
      "name": "createSurvey",
      "outputs": [],
      "stateMutability": "payable",
      "type": "function"
    },
    {
      "inputs": [
        {
          "internalType": "uint256",
          "name": "index",
          "type": "uint256"
        }
      ],
      "name": "distributeFundsFromCompletedSurvey",
      "outputs": [],
      "stateMutability": "nonpayable",
      "type": "function"
    },
    {
      "inputs": [
        {
          "internalType": "string",
          "name": "surveyId",
          "type": "string"
        }
      ],
      "name": "getAllSurveyResponseData",
      "outputs": [
        {
          "internalType": "string[]",
          "name": "",
          "type": "string[]"
        }
      ],
      "stateMutability": "view",
      "type": "function"
    },
    {
      "inputs": [
        {
          "internalType": "string",
          "name": "surveyId",
          "type": "string"
        }
      ],
      "name": "getCompanyId",
      "outputs": [
        {
          "internalType": "string",
          "name": "",
          "type": "string"
        }
      ],
      "stateMutability": "view",
      "type": "function"
    },
    {
      "inputs": [],
      "name": "getInterval",
      "outputs": [
        {
          "internalType": "uint256",
          "name": "",
          "type": "uint256"
        }
      ],
      "stateMutability": "view",
      "type": "function"
    },
    {
      "inputs": [
        {
          "internalType": "string",
          "name": "surveyId",
          "type": "string"
        }
      ],
      "name": "getLastTimeStamp",
      "outputs": [
        {
          "internalType": "uint256",
          "name": "",
          "type": "uint256"
        }
      ],
      "stateMutability": "view",
      "type": "function"
    },
    {
      "inputs": [],
      "name": "getOwner",
      "outputs": [
        {
          "internalType": "address",
          "name": "",
          "type": "address"
        }
      ],
      "stateMutability": "view",
      "type": "function"
    },
    {
      "inputs": [
        {
          "internalType": "string",
          "name": "surveyId",
          "type": "string"
        }
      ],
      "name": "getPayoutPerPersonBySurveyId",
      "outputs": [
        {
          "internalType": "uint256",
          "name": "",
          "type": "uint256"
        }
      ],
      "stateMutability": "view",
      "type": "function"
    },
    {
      "inputs": [],
      "name": "getSurveyCreationFee",
      "outputs": [
        {
          "internalType": "uint256",
          "name": "",
          "type": "uint256"
        }
      ],
      "stateMutability": "view",
      "type": "function"
    },
    {
      "inputs": [
        {
          "internalType": "string",
          "name": "_surveyId",
          "type": "string"
        }
      ],
      "name": "getSurveyPayoutAmount",
      "outputs": [
        {
          "internalType": "uint256",
          "name": "",
          "type": "uint256"
        }
      ],
      "stateMutability": "view",
      "type": "function"
    },
    {
      "inputs": [
        {
          "internalType": "string",
          "name": "surveyId",
          "type": "string"
        },
        {
          "internalType": "uint256",
          "name": "responseIndex",
          "type": "uint256"
        }
      ],
      "name": "getSurveyResponseData",
      "outputs": [
        {
          "internalType": "string",
          "name": "",
          "type": "string"
        }
      ],
      "stateMutability": "view",
      "type": "function"
    },
    {
      "inputs": [
        {
          "internalType": "string",
          "name": "_surveyId",
          "type": "string"
        }
      ],
      "name": "getSurveyState",
      "outputs": [
        {
          "internalType": "enum Surpay.SurveyState",
          "name": "",
          "type": "uint8"
        }
      ],
      "stateMutability": "view",
      "type": "function"
    },
    {
      "inputs": [
        {
          "internalType": "string",
          "name": "surveyId",
          "type": "string"
        },
        {
          "internalType": "uint256",
          "name": "userIndex",
          "type": "uint256"
        }
      ],
      "name": "getSurveyTaker",
      "outputs": [
        {
          "internalType": "address",
          "name": "",
          "type": "address"
        }
      ],
      "stateMutability": "view",
      "type": "function"
    },
    {
      "inputs": [
        {
          "internalType": "bytes",
          "name": "",
          "type": "bytes"
        }
      ],
      "name": "performUpkeep",
      "outputs": [],
      "stateMutability": "nonpayable",
      "type": "function"
    },
    {
      "inputs": [],
      "name": "removeCompletedSurveys",
      "outputs": [],
      "stateMutability": "nonpayable",
      "type": "function"
    },
    {
      "inputs": [
        {
          "internalType": "string",
          "name": "_surveyId",
          "type": "string"
        },
        {
          "internalType": "string",
          "name": "_surveyData",
          "type": "string"
        },
        {
          "internalType": "address",
          "name": "userAddress",
          "type": "address"
        }
      ],
      "name": "sendUserSurveyData",
      "outputs": [],
      "stateMutability": "nonpayable",
      "type": "function"
    }
  ],
  "bytecode": "0x60c06040523480156200001157600080fd5b50604051620028dc380380620028dc8339818101604052810190620000379190620000cf565b336000806101000a81548173ffffffffffffffffffffffffffffffffffffffff021916908373ffffffffffffffffffffffffffffffffffffffff16021790555081608081815250508060a08181525050505062000116565b600080fd5b6000819050919050565b620000a98162000094565b8114620000b557600080fd5b50565b600081519050620000c9816200009e565b92915050565b60008060408385031215620000e957620000e86200008f565b5b6000620000f985828601620000b8565b92505060206200010c85828601620000b8565b9150509250929050565b60805160a051612799620001436000396000610da9015260008181610e5a015261114201526127996000f3fe6080604052600436106100fe5760003560e01c806391ad27b411610095578063bab26fd211610064578063bab26fd214610373578063c3b9a2c81461039e578063e1744d72146103c7578063e74b36df14610404578063eb9992c314610441576100fe565b806391ad27b4146102b25780639759ac36146102dd578063ac9d6a2b1461031a578063b374ff2914610336576100fe565b806350597f8a116100d157806350597f8a146101cf578063653cba7d1461020c5780636e04ff0d14610249578063893d20e814610287576100fe565b8063129983011461010357806324405aa91461014057806324445aeb1461017d5780634585e33b146101a6575b600080fd5b34801561010f57600080fd5b5061012a60048036038101906101259190611ba0565b610458565b6040516101379190611c3d565b60405180910390f35b34801561014c57600080fd5b5061016760048036038101906101629190611ba0565b610520565b6040516101749190611cd7565b60405180910390f35b34801561018957600080fd5b506101a4600480360381019061019f9190611d25565b610651565b005b3480156101b257600080fd5b506101cd60048036038101906101c89190611e10565b6109b6565b005b3480156101db57600080fd5b506101f660048036038101906101f19190611e5d565b610b71565b6040516102039190611fb2565b60405180910390f35b34801561021857600080fd5b50610233600480360381019061022e9190611e5d565b610ccc565b6040516102409190611fe3565b60405180910390f35b34801561025557600080fd5b50610270600480360381019061026b919061209f565b610d57565b60405161027e929190612158565b60405180910390f35b34801561029357600080fd5b5061029c610d7c565b6040516102a99190611c3d565b60405180910390f35b3480156102be57600080fd5b506102c7610da5565b6040516102d49190611fe3565b60405180910390f35b3480156102e957600080fd5b5061030460048036038101906102ff9190611e5d565b610dcd565b6040516103119190611fe3565b60405180910390f35b610334600480360381019061032f9190612188565b610e58565b005b34801561034257600080fd5b5061035d60048036038101906103589190611e5d565b6110a6565b60405161036a919061229e565b60405180910390f35b34801561037f57600080fd5b5061038861113e565b6040516103959190611fe3565b60405180910390f35b3480156103aa57600080fd5b506103c560048036038101906103c091906122b9565b611166565b005b3480156103d357600080fd5b506103ee60048036038101906103e99190611e5d565b611448565b6040516103fb9190611cd7565b60405180910390f35b34801561041057600080fd5b5061042b60048036038101906104269190611e5d565b6114fb565b6040516104389190611fe3565b60405180910390f35b34801561044d57600080fd5b506104566115b2565b005b60008060018460405161046b9190612322565b90815260200160405180910390206003015411156104e8576001836040516104939190612322565b908152602001604051809103902060060182815481106104b6576104b5612339565b5b9060005260206000200160009054906101000a900473ffffffffffffffffffffffffffffffffffffffff16905061051a565b6040517fb01e933700000000000000000000000000000000000000000000000000000000815260040160405180910390fd5b92915050565b606060006001846040516105349190612322565b90815260200160405180910390206003015411156106195760018360405161055c9190612322565b9081526020016040518091039020600501828154811061057f5761057e612339565b5b90600052602060002001805461059490612397565b80601f01602080910402602001604051908101604052809291908181526020018280546105c090612397565b801561060d5780601f106105e25761010080835404028352916020019161060d565b820191906000526020600020905b8154815290600101906020018083116105f057829003601f168201915b5050505050905061064b565b6040517fb01e933700000000000000000000000000000000000000000000000000000000815260040160405180910390fd5b92915050565b60008054906101000a900473ffffffffffffffffffffffffffffffffffffffff1673ffffffffffffffffffffffffffffffffffffffff163373ffffffffffffffffffffffffffffffffffffffff16146106d6576040517fba34867000000000000000000000000000000000000000000000000000000000815260040160405180910390fd5b6001836040516106e69190612322565b9081526020016040518091039020600401546001846040516107089190612322565b908152602001604051809103902060030154111561097f576001836040516107309190612322565b9081526020016040518091039020600501829080600181540180825580915050600190039060005260206000200160009091909190915090816107739190612574565b506001836040516107849190612322565b9081526020016040518091039020600601819080600181540180825580915050600190039060005260206000200160009091909190916101000a81548173ffffffffffffffffffffffffffffffffffffffff021916908373ffffffffffffffffffffffffffffffffffffffff1602179055506001836040516108069190612322565b9081526020016040518091039020600401600081548092919061082890612675565b919050555060018360405161083d9190612322565b90815260200160405180910390206004015460018460405161085f9190612322565b9081526020016040518091039020600301540361093757600180846040516108879190612322565b908152602001604051809103902060080160006101000a81548160ff021916908360018111156108ba576108b9612227565b5b02179055506002839080600181540180825580915050600190039060005260206000200160009091909190915090816108f39190612574565b50826040516109029190612322565b60405180910390207fc9629617ac320e57fa622f79c211617de659a3b7cbdda927e47dea5e4c0ab4da60405160405180910390a25b8073ffffffffffffffffffffffffffffffffffffffff167f099cc064944e6569611b439843932fa853d46618d78ca5a8e3989bcc5614853d60405160405180910390a26109b1565b6040517f13c8108e00000000000000000000000000000000000000000000000000000000815260040160405180910390fd5b505050565b60006109d060405180602001604052806000815250610d57565b5090508015610b3a5760006002805480602002602001604051908101604052809291908181526020016000905b82821015610aa9578382906000526020600020018054610a1c90612397565b80601f0160208091040260200160405190810160405280929190818152602001828054610a4890612397565b8015610a955780601f10610a6a57610100808354040283529160200191610a95565b820191906000526020600020905b815481529060010190602001808311610a7857829003601f168201915b5050505050815260200190600101906109fd565b50505050905060005b8151811015610b3357610ac481611166565b818181518110610ad757610ad6612339565b5b6020026020010151604051610aec9190612322565b60405180910390207fa7998895d8d2e7856091bd8a5895a54d831c4d6c8bd8a8611ec2c1f873872fef60405160405180910390a28080610b2b90612675565b915050610ab2565b5050610b6c565b6040517fe47d1a5100000000000000000000000000000000000000000000000000000000815260040160405180910390fd5b505050565b60606000600183604051610b859190612322565b9081526020016040518091039020600301541115610c9557600182604051610bad9190612322565b9081526020016040518091039020600501805480602002602001604051908101604052809291908181526020016000905b82821015610c8a578382906000526020600020018054610bfd90612397565b80601f0160208091040260200160405190810160405280929190818152602001828054610c2990612397565b8015610c765780601f10610c4b57610100808354040283529160200191610c76565b820191906000526020600020905b815481529060010190602001808311610c5957829003601f168201915b505050505081526020019060010190610bde565b505050509050610cc7565b6040517fb01e933700000000000000000000000000000000000000000000000000000000815260040160405180910390fd5b919050565b600080600183604051610cdf9190612322565b9081526020016040518091039020600301541115610d2057600182604051610d079190612322565b9081526020016040518091039020600701549050610d52565b6040517fb01e933700000000000000000000000000000000000000000000000000000000815260040160405180910390fd5b919050565b6000606060006002805490501115610d725760019150610d77565b600091505b915091565b60008060009054906101000a900473ffffffffffffffffffffffffffffffffffffffff16905090565b60007f0000000000000000000000000000000000000000000000000000000000000000905090565b600080600183604051610de09190612322565b9081526020016040518091039020600301541115610e2157600182604051610e089190612322565b9081526020016040518091039020600201549050610e53565b6040517fb01e933700000000000000000000000000000000000000000000000000000000815260040160405180910390fd5b919050565b7f0000000000000000000000000000000000000000000000000000000000000000341015610eb2576040517fc09bb52500000000000000000000000000000000000000000000000000000000815260040160405180910390fd5b610eba6117f6565b83816000018190525033816020019073ffffffffffffffffffffffffffffffffffffffff16908173ffffffffffffffffffffffffffffffffffffffff16815250508281604001818152505081816060018181525050428160e001818152505060008161010001906001811115610f3357610f32612227565b5b90816001811115610f4757610f46612227565b5b8152505080600186604051610f5c9190612322565b90815260200160405180910390206000820151816000019081610f7f9190612574565b5060208201518160010160006101000a81548173ffffffffffffffffffffffffffffffffffffffff021916908373ffffffffffffffffffffffffffffffffffffffff16021790555060408201518160020155606082015181600301556080820151816004015560a082015181600501908051906020019061100192919061186a565b5060c082015181600601908051906020019061101e9291906118c3565b5060e082015181600701556101008201518160080160006101000a81548160ff0219169083600181111561105557611054612227565b5b02179055509050508460405161106b9190612322565b60405180910390207fcc65c6fb1d804ba1dc418f9e3659483d310357279f035d45b8ea484fd6fe4a2f60405160405180910390a25050505050565b6000806001836040516110b99190612322565b9081526020016040518091039020600301541115611107576001826040516110e19190612322565b908152602001604051809103902060080160009054906101000a900460ff169050611139565b6040517fb01e933700000000000000000000000000000000000000000000000000000000815260040160405180910390fd5b919050565b60007f0000000000000000000000000000000000000000000000000000000000000000905090565b60006002805480602002602001604051908101604052809291908181526020016000905b828210156112365783829060005260206000200180546111a990612397565b80601f01602080910402602001604051908101604052809291908181526020018280546111d590612397565b80156112225780601f106111f757610100808354040283529160200191611222565b820191906000526020600020905b81548152906001019060200180831161120557829003601f168201915b50505050508152602001906001019061118a565b5050505090506000600182848151811061125357611252612339565b5b60200260200101516040516112689190612322565b908152602001604051809103902060040154600183858151811061128f5761128e612339565b5b60200260200101516040516112a49190612322565b9081526020016040518091039020600201546112c091906126ec565b905060005b60018385815181106112da576112d9612339565b5b60200260200101516040516112ef9190612322565b908152602001604051809103902060060180549050811015611442574782101561142f576000600184868151811061132a57611329612339565b5b602002602001015160405161133f9190612322565b9081526020016040518091039020600601828154811061136257611361612339565b5b9060005260206000200160009054906101000a900473ffffffffffffffffffffffffffffffffffffffff1673ffffffffffffffffffffffffffffffffffffffff16836040516113b09061274e565b60006040518083038185875af1925050503d80600081146113ed576040519150601f19603f3d011682016040523d82523d6000602084013e6113f2565b606091505b505090508061142d576040517f09e6a19a00000000000000000000000000000000000000000000000000000000815260040160405180910390fd5b505b808061143a90612675565b9150506112c5565b50505050565b606060018260405161145a9190612322565b9081526020016040518091039020600001805461147690612397565b80601f01602080910402602001604051908101604052809291908181526020018280546114a290612397565b80156114ef5780601f106114c4576101008083540402835291602001916114ef565b820191906000526020600020905b8154815290600101906020018083116114d257829003601f168201915b50505050509050919050565b60008060018360405161150e9190612322565b908152602001604051809103902060030154111561157b576001826040516115369190612322565b9081526020016040518091039020600301546001836040516115589190612322565b90815260200160405180910390206002015461157491906126ec565b90506115ad565b6040517fb01e933700000000000000000000000000000000000000000000000000000000815260040160405180910390fd5b919050565b60008054906101000a900473ffffffffffffffffffffffffffffffffffffffff1673ffffffffffffffffffffffffffffffffffffffff163373ffffffffffffffffffffffffffffffffffffffff1614611637576040517fba34867000000000000000000000000000000000000000000000000000000000815260040160405180910390fd5b60006002805480602002602001604051908101604052809291908181526020016000905b8282101561170757838290600052602060002001805461167a90612397565b80601f01602080910402602001604051908101604052809291908181526020018280546116a690612397565b80156116f35780601f106116c8576101008083540402835291602001916116f3565b820191906000526020600020905b8154815290600101906020018083116116d657829003601f168201915b50505050508152602001906001019061165b565b50505050905060005b81518110156117f257600182828151811061172e5761172d612339565b5b60200260200101516040516117439190612322565b908152602001604051809103902060008082016000611762919061194d565b6001820160006101000a81549073ffffffffffffffffffffffffffffffffffffffff02191690556002820160009055600382016000905560048201600090556005820160006117b1919061198d565b6006820160006117c191906119ae565b60078201600090556008820160006101000a81549060ff0219169055505080806117ea90612675565b915050611710565b5050565b60405180610120016040528060608152602001600073ffffffffffffffffffffffffffffffffffffffff1681526020016000815260200160008152602001600081526020016060815260200160608152602001600081526020016000600181111561186457611863612227565b5b81525090565b8280548282559060005260206000209081019282156118b2579160200282015b828111156118b15782518290816118a19190612574565b509160200191906001019061188a565b5b5090506118bf91906119cf565b5090565b82805482825590600052602060002090810192821561193c579160200282015b8281111561193b5782518260006101000a81548173ffffffffffffffffffffffffffffffffffffffff021916908373ffffffffffffffffffffffffffffffffffffffff160217905550916020019190600101906118e3565b5b50905061194991906119f3565b5090565b50805461195990612397565b6000825580601f1061196b575061198a565b601f01602090049060005260206000209081019061198991906119f3565b5b50565b50805460008255906000526020600020908101906119ab91906119cf565b50565b50805460008255906000526020600020908101906119cc91906119f3565b50565b5b808211156119ef57600081816119e6919061194d565b506001016119d0565b5090565b5b80821115611a0c5760008160009055506001016119f4565b5090565b6000604051905090565b600080fd5b600080fd5b600080fd5b600080fd5b6000601f19601f8301169050919050565b7f4e487b7100000000000000000000000000000000000000000000000000000000600052604160045260246000fd5b611a7782611a2e565b810181811067ffffffffffffffff82111715611a9657611a95611a3f565b5b80604052505050565b6000611aa9611a10565b9050611ab58282611a6e565b919050565b600067ffffffffffffffff821115611ad557611ad4611a3f565b5b611ade82611a2e565b9050602081019050919050565b82818337600083830152505050565b6000611b0d611b0884611aba565b611a9f565b905082815260208101848484011115611b2957611b28611a29565b5b611b34848285611aeb565b509392505050565b600082601f830112611b5157611b50611a24565b5b8135611b61848260208601611afa565b91505092915050565b6000819050919050565b611b7d81611b6a565b8114611b8857600080fd5b50565b600081359050611b9a81611b74565b92915050565b60008060408385031215611bb757611bb6611a1a565b5b600083013567ffffffffffffffff811115611bd557611bd4611a1f565b5b611be185828601611b3c565b9250506020611bf285828601611b8b565b9150509250929050565b600073ffffffffffffffffffffffffffffffffffffffff82169050919050565b6000611c2782611bfc565b9050919050565b611c3781611c1c565b82525050565b6000602082019050611c526000830184611c2e565b92915050565b600081519050919050565b600082825260208201905092915050565b60005b83811015611c92578082015181840152602081019050611c77565b60008484015250505050565b6000611ca982611c58565b611cb38185611c63565b9350611cc3818560208601611c74565b611ccc81611a2e565b840191505092915050565b60006020820190508181036000830152611cf18184611c9e565b905092915050565b611d0281611c1c565b8114611d0d57600080fd5b50565b600081359050611d1f81611cf9565b92915050565b600080600060608486031215611d3e57611d3d611a1a565b5b600084013567ffffffffffffffff811115611d5c57611d5b611a1f565b5b611d6886828701611b3c565b935050602084013567ffffffffffffffff811115611d8957611d88611a1f565b5b611d9586828701611b3c565b9250506040611da686828701611d10565b9150509250925092565b600080fd5b600080fd5b60008083601f840112611dd057611dcf611a24565b5b8235905067ffffffffffffffff811115611ded57611dec611db0565b5b602083019150836001820283011115611e0957611e08611db5565b5b9250929050565b60008060208385031215611e2757611e26611a1a565b5b600083013567ffffffffffffffff811115611e4557611e44611a1f565b5b611e5185828601611dba565b92509250509250929050565b600060208284031215611e7357611e72611a1a565b5b600082013567ffffffffffffffff811115611e9157611e90611a1f565b5b611e9d84828501611b3c565b91505092915050565b600081519050919050565b600082825260208201905092915050565b6000819050602082019050919050565b600082825260208201905092915050565b6000611eee82611c58565b611ef88185611ed2565b9350611f08818560208601611c74565b611f1181611a2e565b840191505092915050565b6000611f288383611ee3565b905092915050565b6000602082019050919050565b6000611f4882611ea6565b611f528185611eb1565b935083602082028501611f6485611ec2565b8060005b85811015611fa05784840389528151611f818582611f1c565b9450611f8c83611f30565b925060208a01995050600181019050611f68565b50829750879550505050505092915050565b60006020820190508181036000830152611fcc8184611f3d565b905092915050565b611fdd81611b6a565b82525050565b6000602082019050611ff86000830184611fd4565b92915050565b600067ffffffffffffffff82111561201957612018611a3f565b5b61202282611a2e565b9050602081019050919050565b600061204261203d84611ffe565b611a9f565b90508281526020810184848401111561205e5761205d611a29565b5b612069848285611aeb565b509392505050565b600082601f83011261208657612085611a24565b5b813561209684826020860161202f565b91505092915050565b6000602082840312156120b5576120b4611a1a565b5b600082013567ffffffffffffffff8111156120d3576120d2611a1f565b5b6120df84828501612071565b91505092915050565b60008115159050919050565b6120fd816120e8565b82525050565b600081519050919050565b600082825260208201905092915050565b600061212a82612103565b612134818561210e565b9350612144818560208601611c74565b61214d81611a2e565b840191505092915050565b600060408201905061216d60008301856120f4565b818103602083015261217f818461211f565b90509392505050565b600080600080608085870312156121a2576121a1611a1a565b5b600085013567ffffffffffffffff8111156121c0576121bf611a1f565b5b6121cc87828801611b3c565b945050602085013567ffffffffffffffff8111156121ed576121ec611a1f565b5b6121f987828801611b3c565b935050604061220a87828801611b8b565b925050606061221b87828801611b8b565b91505092959194509250565b7f4e487b7100000000000000000000000000000000000000000000000000000000600052602160045260246000fd5b6002811061226757612266612227565b5b50565b600081905061227882612256565b919050565b60006122888261226a565b9050919050565b6122988161227d565b82525050565b60006020820190506122b3600083018461228f565b92915050565b6000602082840312156122cf576122ce611a1a565b5b60006122dd84828501611b8b565b91505092915050565b600081905092915050565b60006122fc82611c58565b61230681856122e6565b9350612316818560208601611c74565b80840191505092915050565b600061232e82846122f1565b915081905092915050565b7f4e487b7100000000000000000000000000000000000000000000000000000000600052603260045260246000fd5b7f4e487b7100000000000000000000000000000000000000000000000000000000600052602260045260246000fd5b600060028204905060018216806123af57607f821691505b6020821081036123c2576123c1612368565b5b50919050565b60008190508160005260206000209050919050565b60006020601f8301049050919050565b600082821b905092915050565b60006008830261242a7fffffffffffffffffffffffffffffffffffffffffffffffffffffffffffffffff826123ed565b61243486836123ed565b95508019841693508086168417925050509392505050565b6000819050919050565b600061247161246c61246784611b6a565b61244c565b611b6a565b9050919050565b6000819050919050565b61248b83612456565b61249f61249782612478565b8484546123fa565b825550505050565b600090565b6124b46124a7565b6124bf818484612482565b505050565b5b818110156124e3576124d86000826124ac565b6001810190506124c5565b5050565b601f821115612528576124f9816123c8565b612502846123dd565b81016020851015612511578190505b61252561251d856123dd565b8301826124c4565b50505b505050565b600082821c905092915050565b600061254b6000198460080261252d565b1980831691505092915050565b6000612564838361253a565b9150826002028217905092915050565b61257d82611c58565b67ffffffffffffffff81111561259657612595611a3f565b5b6125a08254612397565b6125ab8282856124e7565b600060209050601f8311600181146125de57600084156125cc578287015190505b6125d68582612558565b86555061263e565b601f1984166125ec866123c8565b60005b82811015612614578489015182556001820191506020850194506020810190506125ef565b86831015612631578489015161262d601f89168261253a565b8355505b6001600288020188555050505b505050505050565b7f4e487b7100000000000000000000000000000000000000000000000000000000600052601160045260246000fd5b600061268082611b6a565b91507fffffffffffffffffffffffffffffffffffffffffffffffffffffffffffffffff82036126b2576126b1612646565b5b600182019050919050565b7f4e487b7100000000000000000000000000000000000000000000000000000000600052601260045260246000fd5b60006126f782611b6a565b915061270283611b6a565b925082612712576127116126bd565b5b828204905092915050565b600081905092915050565b50565b600061273860008361271d565b915061274382612728565b600082019050919050565b60006127598261272b565b915081905091905056fea26469706673582212201a69406156257767972e6ce5575554ef4a6dffb335d2968435a1c79c803e7ec364736f6c63430008110033",
  "linkReferences": {},
  "deployedLinkReferences": {}
}