{
  "_format": "hh-sol-artifact-1",
  "contractName": "Surpay",
  "sourceName": "contracts/Surpay.sol",
  "abi": [
    {
      "inputs": [
        {
          "internalType": "uint256",
          "name": "_surveyCreationFee",
          "type": "uint256"
        },
        {
          "internalType": "uint256",
          "name": "_interval",
          "type": "uint256"
        }
      ],
      "stateMutability": "nonpayable",
      "type": "constructor"
    },
    {
      "inputs": [],
      "name": "Surpay__MaximumRespondantsReached",
      "type": "error"
    },
    {
      "inputs": [],
      "name": "Surpay__NotEnoughFunds",
      "type": "error"
    },
    {
      "inputs": [],
      "name": "Surpay__SurveyNotFound",
      "type": "error"
    },
    {
      "inputs": [],
      "name": "Surpay__TransferFailed",
      "type": "error"
    },
    {
      "anonymous": false,
      "inputs": [
        {
          "indexed": true,
          "internalType": "string",
          "name": "surveyId",
          "type": "string"
        }
      ],
      "name": "SurveyCompleted",
      "type": "event"
    },
    {
      "anonymous": false,
      "inputs": [
        {
          "indexed": true,
          "internalType": "string",
          "name": "surveyId",
          "type": "string"
        }
      ],
      "name": "SurveyCreated",
      "type": "event"
    },
    {
      "anonymous": false,
      "inputs": [
        {
          "indexed": true,
          "internalType": "string",
          "name": "surveyId",
          "type": "string"
        }
      ],
      "name": "SurveyTakersPaid",
      "type": "event"
    },
    {
      "anonymous": false,
      "inputs": [
        {
          "indexed": true,
          "internalType": "address",
          "name": "surveyTaker",
          "type": "address"
        }
      ],
      "name": "UserAddedToSurvey",
      "type": "event"
    },
    {
      "inputs": [
        {
          "internalType": "bytes",
          "name": "",
          "type": "bytes"
        }
      ],
      "name": "checkUpkeep",
      "outputs": [
        {
          "internalType": "bool",
          "name": "upkeepNeeded",
          "type": "bool"
        },
        {
          "internalType": "bytes",
          "name": "",
          "type": "bytes"
        }
      ],
      "stateMutability": "nonpayable",
      "type": "function"
    },
    {
      "inputs": [
        {
          "internalType": "string",
          "name": "_surveyId",
          "type": "string"
        },
        {
          "internalType": "string",
          "name": "_companyId",
          "type": "string"
        },
        {
          "internalType": "uint256",
          "name": "_totalPayoutAmount",
          "type": "uint256"
        },
        {
          "internalType": "uint256",
          "name": "_numOfParticipantsDesired",
          "type": "uint256"
        }
      ],
      "name": "createSurvey",
      "outputs": [],
      "stateMutability": "payable",
      "type": "function"
    },
    {
      "inputs": [
        {
          "internalType": "string",
          "name": "surveyId",
          "type": "string"
        }
      ],
      "name": "getCompanyId",
      "outputs": [
        {
          "internalType": "string",
          "name": "",
          "type": "string"
        }
      ],
      "stateMutability": "view",
      "type": "function"
    },
    {
      "inputs": [],
      "name": "getInterval",
      "outputs": [
        {
          "internalType": "uint256",
          "name": "",
          "type": "uint256"
        }
      ],
      "stateMutability": "view",
      "type": "function"
    },
    {
      "inputs": [
        {
          "internalType": "string",
          "name": "surveyId",
          "type": "string"
        }
      ],
      "name": "getLastTimeStamp",
      "outputs": [
        {
          "internalType": "uint256",
          "name": "",
          "type": "uint256"
        }
      ],
      "stateMutability": "view",
      "type": "function"
    },
    {
      "inputs": [
        {
          "internalType": "string",
          "name": "surveyId",
          "type": "string"
        }
      ],
      "name": "getPayoutPerPersonBySurveyId",
      "outputs": [
        {
          "internalType": "uint256",
          "name": "",
          "type": "uint256"
        }
      ],
      "stateMutability": "view",
      "type": "function"
    },
    {
      "inputs": [],
      "name": "getSurveyCreationFee",
      "outputs": [
        {
          "internalType": "uint256",
          "name": "",
          "type": "uint256"
        }
      ],
      "stateMutability": "view",
      "type": "function"
    },
    {
      "inputs": [
        {
          "internalType": "string",
          "name": "_surveyId",
          "type": "string"
        }
      ],
      "name": "getSurveyPayoutAmount",
      "outputs": [
        {
          "internalType": "uint256",
          "name": "",
          "type": "uint256"
        }
      ],
      "stateMutability": "view",
      "type": "function"
    },
    {
      "inputs": [
        {
          "internalType": "string",
          "name": "surveyId",
          "type": "string"
        },
        {
          "internalType": "uint256",
          "name": "responseIndex",
          "type": "uint256"
        }
      ],
      "name": "getSurveyResponseData",
      "outputs": [
        {
          "internalType": "string",
          "name": "",
          "type": "string"
        }
      ],
      "stateMutability": "view",
      "type": "function"
    },
    {
      "inputs": [
        {
          "internalType": "string",
          "name": "_surveyId",
          "type": "string"
        }
      ],
      "name": "getSurveyState",
      "outputs": [
        {
          "internalType": "enum Surpay.SurveyState",
          "name": "",
          "type": "uint8"
        }
      ],
      "stateMutability": "view",
      "type": "function"
    },
    {
      "inputs": [
        {
          "internalType": "string",
          "name": "surveyId",
          "type": "string"
        },
        {
          "internalType": "uint256",
          "name": "userIndex",
          "type": "uint256"
        }
      ],
      "name": "getSurveyTaker",
      "outputs": [
        {
          "internalType": "address",
          "name": "",
          "type": "address"
        }
      ],
      "stateMutability": "view",
      "type": "function"
    },
    {
      "inputs": [
        {
          "internalType": "bytes",
          "name": "",
          "type": "bytes"
        }
      ],
      "name": "performUpkeep",
      "outputs": [],
      "stateMutability": "nonpayable",
      "type": "function"
    },
    {
      "inputs": [],
      "name": "removeCompletedSurveys",
      "outputs": [],
      "stateMutability": "nonpayable",
      "type": "function"
    },
    {
      "inputs": [
        {
          "internalType": "string",
          "name": "_surveyId",
          "type": "string"
        },
        {
          "internalType": "string",
          "name": "_surveyData",
          "type": "string"
        }
      ],
      "name": "sendUserSurveyData",
      "outputs": [],
      "stateMutability": "nonpayable",
      "type": "function"
    }
  ],
  "bytecode": "0x60c06040523480156200001157600080fd5b50604051620023913803806200239183398181016040528101906200003791906200008f565b81608081815250508060a081815250505050620000d6565b600080fd5b6000819050919050565b620000698162000054565b81146200007557600080fd5b50565b60008151905062000089816200005e565b92915050565b60008060408385031215620000a957620000a86200004f565b5b6000620000b98582860162000078565b9250506020620000cc8582860162000078565b9150509250929050565b60805160a05161228e620001036000396000610ab7015260008181610b680152610e50015261228e6000f3fe6080604052600436106100dd5760003560e01c80639759ac361161007f578063bab26fd211610059578063bab26fd2146102ea578063e1744d7214610315578063e74b36df14610352578063eb9992c31461038f576100dd565b80639759ac3614610254578063ac9d6a2b14610291578063b374ff29146102ad576100dd565b8063653cba7d116100bb578063653cba7d146101855780636e04ff0d146101c257806377b5df8e1461020057806391ad27b414610229576100dd565b806312998301146100e257806324405aa91461011f5780634585e33b1461015c575b600080fd5b3480156100ee57600080fd5b506101096004803603810190610104919061182f565b6103a6565b60405161011691906118cc565b60405180910390f35b34801561012b57600080fd5b506101466004803603810190610141919061182f565b61046e565b6040516101539190611966565b60405180910390f35b34801561016857600080fd5b50610183600480360381019061017e91906119e8565b61059e565b005b34801561019157600080fd5b506101ac60048036038101906101a79190611a35565b610723565b6040516101b99190611a8d565b60405180910390f35b3480156101ce57600080fd5b506101e960048036038101906101e49190611b49565b6107ae565b6040516101f7929190611c02565b60405180910390f35b34801561020c57600080fd5b5061022760048036038101906102229190611c32565b6107d3565b005b34801561023557600080fd5b5061023e610ab3565b60405161024b9190611a8d565b60405180910390f35b34801561026057600080fd5b5061027b60048036038101906102769190611a35565b610adb565b6040516102889190611a8d565b60405180910390f35b6102ab60048036038101906102a69190611caa565b610b66565b005b3480156102b957600080fd5b506102d460048036038101906102cf9190611a35565b610db4565b6040516102e19190611dc0565b60405180910390f35b3480156102f657600080fd5b506102ff610e4c565b60405161030c9190611a8d565b60405180910390f35b34801561032157600080fd5b5061033c60048036038101906103379190611a35565b610e74565b6040516103499190611966565b60405180910390f35b34801561035e57600080fd5b5061037960048036038101906103749190611a35565b610f27565b6040516103869190611a8d565b60405180910390f35b34801561039b57600080fd5b506103a4610fde565b005b6000806000846040516103b99190611e17565b9081526020016040518091039020600301541115610436576000836040516103e19190611e17565b9081526020016040518091039020600601828154811061040457610403611e2e565b5b9060005260206000200160009054906101000a900473ffffffffffffffffffffffffffffffffffffffff169050610468565b6040517fb01e933700000000000000000000000000000000000000000000000000000000815260040160405180910390fd5b92915050565b6060600080846040516104819190611e17565b9081526020016040518091039020600301541115610566576000836040516104a99190611e17565b908152602001604051809103902060050182815481106104cc576104cb611e2e565b5b9060005260206000200180546104e190611e8c565b80601f016020809104026020016040519081016040528092919081815260200182805461050d90611e8c565b801561055a5780601f1061052f5761010080835404028352916020019161055a565b820191906000526020600020905b81548152906001019060200180831161053d57829003601f168201915b50505050509050610598565b6040517fb01e933700000000000000000000000000000000000000000000000000000000815260040160405180910390fd5b92915050565b60006105b8604051806020016040528060008152506107ae565b509050801561071e5760006001805480602002602001604051908101604052809291908181526020016000905b8282101561069157838290600052602060002001805461060490611e8c565b80601f016020809104026020016040519081016040528092919081815260200182805461063090611e8c565b801561067d5780601f106106525761010080835404028352916020019161067d565b820191906000526020600020905b81548152906001019060200180831161066057829003601f168201915b5050505050815260200190600101906105e5565b50505050905060005b815181101561071b576106ac8161119d565b8181815181106106bf576106be611e2e565b5b60200260200101516040516106d49190611e17565b60405180910390207fa7998895d8d2e7856091bd8a5895a54d831c4d6c8bd8a8611ec2c1f873872fef60405160405180910390a2808061071390611eec565b91505061069a565b50505b505050565b6000806000836040516107369190611e17565b90815260200160405180910390206003015411156107775760008260405161075e9190611e17565b90815260200160405180910390206007015490506107a9565b6040517fb01e933700000000000000000000000000000000000000000000000000000000815260040160405180910390fd5b919050565b60006060600060018054905011156107c957600191506107ce565b600091505b915091565b6000826040516107e39190611e17565b9081526020016040518091039020600401546000836040516108059190611e17565b9081526020016040518091039020600301541115610a7d5760008260405161082d9190611e17565b90815260200160405180910390206005018190806001815401808255809150506001900390600052602060002001600090919091909150908161087091906120e0565b506000826040516108819190611e17565b9081526020016040518091039020600601339080600181540180825580915050600190039060005260206000200160009091909190916101000a81548173ffffffffffffffffffffffffffffffffffffffff021916908373ffffffffffffffffffffffffffffffffffffffff1602179055506000826040516109039190611e17565b9081526020016040518091039020600401600081548092919061092590611eec565b919050555060008260405161093a9190611e17565b90815260200160405180910390206004015460008360405161095c9190611e17565b90815260200160405180910390206003015403610a355760016000836040516109859190611e17565b908152602001604051809103902060080160006101000a81548160ff021916908360018111156109b8576109b7611d49565b5b02179055506001829080600181540180825580915050600190039060005260206000200160009091909190915090816109f191906120e0565b5081604051610a009190611e17565b60405180910390207fc9629617ac320e57fa622f79c211617de659a3b7cbdda927e47dea5e4c0ab4da60405160405180910390a25b3373ffffffffffffffffffffffffffffffffffffffff167f099cc064944e6569611b439843932fa853d46618d78ca5a8e3989bcc5614853d60405160405180910390a2610aaf565b6040517f13c8108e00000000000000000000000000000000000000000000000000000000815260040160405180910390fd5b5050565b60007f0000000000000000000000000000000000000000000000000000000000000000905090565b600080600083604051610aee9190611e17565b9081526020016040518091039020600301541115610b2f57600082604051610b169190611e17565b9081526020016040518091039020600201549050610b61565b6040517fb01e933700000000000000000000000000000000000000000000000000000000815260040160405180910390fd5b919050565b7f0000000000000000000000000000000000000000000000000000000000000000341015610bc0576040517fc09bb52500000000000000000000000000000000000000000000000000000000815260040160405180910390fd5b610bc8611485565b83816000018190525033816020019073ffffffffffffffffffffffffffffffffffffffff16908173ffffffffffffffffffffffffffffffffffffffff16815250508281604001818152505081816060018181525050428160e001818152505060008161010001906001811115610c4157610c40611d49565b5b90816001811115610c5557610c54611d49565b5b8152505080600086604051610c6a9190611e17565b90815260200160405180910390206000820151816000019081610c8d91906120e0565b5060208201518160010160006101000a81548173ffffffffffffffffffffffffffffffffffffffff021916908373ffffffffffffffffffffffffffffffffffffffff16021790555060408201518160020155606082015181600301556080820151816004015560a0820151816005019080519060200190610d0f9291906114f9565b5060c0820151816006019080519060200190610d2c929190611552565b5060e082015181600701556101008201518160080160006101000a81548160ff02191690836001811115610d6357610d62611d49565b5b021790555090505084604051610d799190611e17565b60405180910390207fcc65c6fb1d804ba1dc418f9e3659483d310357279f035d45b8ea484fd6fe4a2f60405160405180910390a25050505050565b600080600083604051610dc79190611e17565b9081526020016040518091039020600301541115610e1557600082604051610def9190611e17565b908152602001604051809103902060080160009054906101000a900460ff169050610e47565b6040517fb01e933700000000000000000000000000000000000000000000000000000000815260040160405180910390fd5b919050565b60007f0000000000000000000000000000000000000000000000000000000000000000905090565b6060600082604051610e869190611e17565b90815260200160405180910390206000018054610ea290611e8c565b80601f0160208091040260200160405190810160405280929190818152602001828054610ece90611e8c565b8015610f1b5780601f10610ef057610100808354040283529160200191610f1b565b820191906000526020600020905b815481529060010190602001808311610efe57829003601f168201915b50505050509050919050565b600080600083604051610f3a9190611e17565b9081526020016040518091039020600301541115610fa757600082604051610f629190611e17565b908152602001604051809103902060030154600083604051610f849190611e17565b908152602001604051809103902060020154610fa091906121e1565b9050610fd9565b6040517fb01e933700000000000000000000000000000000000000000000000000000000815260040160405180910390fd5b919050565b60006001805480602002602001604051908101604052809291908181526020016000905b828210156110ae57838290600052602060002001805461102190611e8c565b80601f016020809104026020016040519081016040528092919081815260200182805461104d90611e8c565b801561109a5780601f1061106f5761010080835404028352916020019161109a565b820191906000526020600020905b81548152906001019060200180831161107d57829003601f168201915b505050505081526020019060010190611002565b50505050905060005b81518110156111995760008282815181106110d5576110d4611e2e565b5b60200260200101516040516110ea9190611e17565b90815260200160405180910390206000808201600061110991906115dc565b6001820160006101000a81549073ffffffffffffffffffffffffffffffffffffffff0219169055600282016000905560038201600090556004820160009055600582016000611158919061161c565b600682016000611168919061163d565b60078201600090556008820160006101000a81549060ff02191690555050808061119190611eec565b9150506110b7565b5050565b60006001805480602002602001604051908101604052809291908181526020016000905b8282101561126d5783829060005260206000200180546111e090611e8c565b80601f016020809104026020016040519081016040528092919081815260200182805461120c90611e8c565b80156112595780601f1061122e57610100808354040283529160200191611259565b820191906000526020600020905b81548152906001019060200180831161123c57829003601f168201915b5050505050815260200190600101906111c1565b50505050905060008082848151811061128957611288611e2e565b5b602002602001015160405161129e9190611e17565b90815260200160405180910390206004015460008385815181106112c5576112c4611e2e565b5b60200260200101516040516112da9190611e17565b9081526020016040518091039020600201546112f691906121e1565b905060005b60008385815181106113105761130f611e2e565b5b60200260200101516040516113259190611e17565b90815260200160405180910390206006018054905081101561147757478210156114645760008084868151811061135f5761135e611e2e565b5b60200260200101516040516113749190611e17565b9081526020016040518091039020600601828154811061139757611396611e2e565b5b9060005260206000200160009054906101000a900473ffffffffffffffffffffffffffffffffffffffff1673ffffffffffffffffffffffffffffffffffffffff16836040516113e590612243565b60006040518083038185875af1925050503d8060008114611422576040519150601f19603f3d011682016040523d82523d6000602084013e611427565b606091505b5050905080611462576040517f09e6a19a00000000000000000000000000000000000000000000000000000000815260040160405180910390fd5b505b808061146f90611eec565b9150506112fb565b50611480610fde565b505050565b60405180610120016040528060608152602001600073ffffffffffffffffffffffffffffffffffffffff168152602001600081526020016000815260200160008152602001606081526020016060815260200160008152602001600060018111156114f3576114f2611d49565b5b81525090565b828054828255906000526020600020908101928215611541579160200282015b8281111561154057825182908161153091906120e0565b5091602001919060010190611519565b5b50905061154e919061165e565b5090565b8280548282559060005260206000209081019282156115cb579160200282015b828111156115ca5782518260006101000a81548173ffffffffffffffffffffffffffffffffffffffff021916908373ffffffffffffffffffffffffffffffffffffffff16021790555091602001919060010190611572565b5b5090506115d89190611682565b5090565b5080546115e890611e8c565b6000825580601f106115fa5750611619565b601f0160209004906000526020600020908101906116189190611682565b5b50565b508054600082559060005260206000209081019061163a919061165e565b50565b508054600082559060005260206000209081019061165b9190611682565b50565b5b8082111561167e576000818161167591906115dc565b5060010161165f565b5090565b5b8082111561169b576000816000905550600101611683565b5090565b6000604051905090565b600080fd5b600080fd5b600080fd5b600080fd5b6000601f19601f8301169050919050565b7f4e487b7100000000000000000000000000000000000000000000000000000000600052604160045260246000fd5b611706826116bd565b810181811067ffffffffffffffff82111715611725576117246116ce565b5b80604052505050565b600061173861169f565b905061174482826116fd565b919050565b600067ffffffffffffffff821115611764576117636116ce565b5b61176d826116bd565b9050602081019050919050565b82818337600083830152505050565b600061179c61179784611749565b61172e565b9050828152602081018484840111156117b8576117b76116b8565b5b6117c384828561177a565b509392505050565b600082601f8301126117e0576117df6116b3565b5b81356117f0848260208601611789565b91505092915050565b6000819050919050565b61180c816117f9565b811461181757600080fd5b50565b60008135905061182981611803565b92915050565b60008060408385031215611846576118456116a9565b5b600083013567ffffffffffffffff811115611864576118636116ae565b5b611870858286016117cb565b92505060206118818582860161181a565b9150509250929050565b600073ffffffffffffffffffffffffffffffffffffffff82169050919050565b60006118b68261188b565b9050919050565b6118c6816118ab565b82525050565b60006020820190506118e160008301846118bd565b92915050565b600081519050919050565b600082825260208201905092915050565b60005b83811015611921578082015181840152602081019050611906565b60008484015250505050565b6000611938826118e7565b61194281856118f2565b9350611952818560208601611903565b61195b816116bd565b840191505092915050565b60006020820190508181036000830152611980818461192d565b905092915050565b600080fd5b600080fd5b60008083601f8401126119a8576119a76116b3565b5b8235905067ffffffffffffffff8111156119c5576119c4611988565b5b6020830191508360018202830111156119e1576119e061198d565b5b9250929050565b600080602083850312156119ff576119fe6116a9565b5b600083013567ffffffffffffffff811115611a1d57611a1c6116ae565b5b611a2985828601611992565b92509250509250929050565b600060208284031215611a4b57611a4a6116a9565b5b600082013567ffffffffffffffff811115611a6957611a686116ae565b5b611a75848285016117cb565b91505092915050565b611a87816117f9565b82525050565b6000602082019050611aa26000830184611a7e565b92915050565b600067ffffffffffffffff821115611ac357611ac26116ce565b5b611acc826116bd565b9050602081019050919050565b6000611aec611ae784611aa8565b61172e565b905082815260208101848484011115611b0857611b076116b8565b5b611b1384828561177a565b509392505050565b600082601f830112611b3057611b2f6116b3565b5b8135611b40848260208601611ad9565b91505092915050565b600060208284031215611b5f57611b5e6116a9565b5b600082013567ffffffffffffffff811115611b7d57611b7c6116ae565b5b611b8984828501611b1b565b91505092915050565b60008115159050919050565b611ba781611b92565b82525050565b600081519050919050565b600082825260208201905092915050565b6000611bd482611bad565b611bde8185611bb8565b9350611bee818560208601611903565b611bf7816116bd565b840191505092915050565b6000604082019050611c176000830185611b9e565b8181036020830152611c298184611bc9565b90509392505050565b60008060408385031215611c4957611c486116a9565b5b600083013567ffffffffffffffff811115611c6757611c666116ae565b5b611c73858286016117cb565b925050602083013567ffffffffffffffff811115611c9457611c936116ae565b5b611ca0858286016117cb565b9150509250929050565b60008060008060808587031215611cc457611cc36116a9565b5b600085013567ffffffffffffffff811115611ce257611ce16116ae565b5b611cee878288016117cb565b945050602085013567ffffffffffffffff811115611d0f57611d0e6116ae565b5b611d1b878288016117cb565b9350506040611d2c8782880161181a565b9250506060611d3d8782880161181a565b91505092959194509250565b7f4e487b7100000000000000000000000000000000000000000000000000000000600052602160045260246000fd5b60028110611d8957611d88611d49565b5b50565b6000819050611d9a82611d78565b919050565b6000611daa82611d8c565b9050919050565b611dba81611d9f565b82525050565b6000602082019050611dd56000830184611db1565b92915050565b600081905092915050565b6000611df1826118e7565b611dfb8185611ddb565b9350611e0b818560208601611903565b80840191505092915050565b6000611e238284611de6565b915081905092915050565b7f4e487b7100000000000000000000000000000000000000000000000000000000600052603260045260246000fd5b7f4e487b7100000000000000000000000000000000000000000000000000000000600052602260045260246000fd5b60006002820490506001821680611ea457607f821691505b602082108103611eb757611eb6611e5d565b5b50919050565b7f4e487b7100000000000000000000000000000000000000000000000000000000600052601160045260246000fd5b6000611ef7826117f9565b91507fffffffffffffffffffffffffffffffffffffffffffffffffffffffffffffffff8203611f2957611f28611ebd565b5b600182019050919050565b60008190508160005260206000209050919050565b60006020601f8301049050919050565b600082821b905092915050565b600060088302611f967fffffffffffffffffffffffffffffffffffffffffffffffffffffffffffffffff82611f59565b611fa08683611f59565b95508019841693508086168417925050509392505050565b6000819050919050565b6000611fdd611fd8611fd3846117f9565b611fb8565b6117f9565b9050919050565b6000819050919050565b611ff783611fc2565b61200b61200382611fe4565b848454611f66565b825550505050565b600090565b612020612013565b61202b818484611fee565b505050565b5b8181101561204f57612044600082612018565b600181019050612031565b5050565b601f8211156120945761206581611f34565b61206e84611f49565b8101602085101561207d578190505b61209161208985611f49565b830182612030565b50505b505050565b600082821c905092915050565b60006120b760001984600802612099565b1980831691505092915050565b60006120d083836120a6565b9150826002028217905092915050565b6120e9826118e7565b67ffffffffffffffff811115612102576121016116ce565b5b61210c8254611e8c565b612117828285612053565b600060209050601f83116001811461214a5760008415612138578287015190505b61214285826120c4565b8655506121aa565b601f19841661215886611f34565b60005b828110156121805784890151825560018201915060208501945060208101905061215b565b8683101561219d5784890151612199601f8916826120a6565b8355505b6001600288020188555050505b505050505050565b7f4e487b7100000000000000000000000000000000000000000000000000000000600052601260045260246000fd5b60006121ec826117f9565b91506121f7836117f9565b925082612207576122066121b2565b5b828204905092915050565b600081905092915050565b50565b600061222d600083612212565b91506122388261221d565b600082019050919050565b600061224e82612220565b915081905091905056fea2646970667358221220eb1eddecb3cb1f6e46fe4e65a08f62c09f9ad2e1a86075030d2ee57e971183bc64736f6c63430008110033",
  "linkReferences": {},
  "deployedLinkReferences": {}
}