{
  "_format": "hh-sol-artifact-1",
  "contractName": "Surpay",
  "sourceName": "contracts/Surpay.sol",
  "abi": [
    {
      "inputs": [
        {
          "internalType": "uint256",
          "name": "_surveyCreationFee",
          "type": "uint256"
        },
        {
          "internalType": "uint256",
          "name": "_interval",
          "type": "uint256"
        }
      ],
      "stateMutability": "nonpayable",
      "type": "constructor"
    },
    {
      "inputs": [],
      "name": "Surpay__NotEnoughFunds",
      "type": "error"
    },
    {
      "anonymous": false,
      "inputs": [
        {
          "indexed": true,
          "internalType": "string",
          "name": "surveyData",
          "type": "string"
        }
      ],
      "name": "SurveyCompleted",
      "type": "event"
    },
    {
      "anonymous": false,
      "inputs": [
        {
          "indexed": true,
          "internalType": "string",
          "name": "surveyId",
          "type": "string"
        }
      ],
      "name": "SurveyCreated",
      "type": "event"
    },
    {
      "anonymous": false,
      "inputs": [
        {
          "indexed": true,
          "internalType": "address",
          "name": "paidSurveyTaker",
          "type": "address"
        }
      ],
      "name": "SurveyTakerPaid",
      "type": "event"
    },
    {
      "inputs": [
        {
          "internalType": "bytes",
          "name": "",
          "type": "bytes"
        }
      ],
      "name": "checkUpkeep",
      "outputs": [
        {
          "internalType": "bool",
          "name": "upkeepNeeded",
          "type": "bool"
        },
        {
          "internalType": "bytes",
          "name": "",
          "type": "bytes"
        }
      ],
      "stateMutability": "nonpayable",
      "type": "function"
    },
    {
      "inputs": [
        {
          "internalType": "string",
          "name": "_surveyId",
          "type": "string"
        },
        {
          "internalType": "string",
          "name": "_companyId",
          "type": "string"
        },
        {
          "internalType": "uint256",
          "name": "_totalPaymentAmount",
          "type": "uint256"
        },
        {
          "internalType": "uint256",
          "name": "_numOfParticipantsDesired",
          "type": "uint256"
        }
      ],
      "name": "createSurvey",
      "outputs": [],
      "stateMutability": "payable",
      "type": "function"
    },
    {
      "inputs": [
        {
          "internalType": "string",
          "name": "_surveyId",
          "type": "string"
        }
      ],
      "name": "getSurveyState",
      "outputs": [
        {
          "internalType": "enum Surpay.SurveyState",
          "name": "",
          "type": "uint8"
        }
      ],
      "stateMutability": "view",
      "type": "function"
    },
    {
      "inputs": [
        {
          "internalType": "bytes",
          "name": "",
          "type": "bytes"
        }
      ],
      "name": "performUpkeep",
      "outputs": [],
      "stateMutability": "nonpayable",
      "type": "function"
    }
  ],
  "bytecode": "0x60c06040523480156200001157600080fd5b50604051620017053803806200170583398181016040528101906200003791906200008f565b81608081815250508060a081815250505050620000d6565b600080fd5b6000819050919050565b620000698162000054565b81146200007557600080fd5b50565b60008151905062000089816200005e565b92915050565b60008060408385031215620000a957620000a86200004f565b5b6000620000b98582860162000078565b9250506020620000cc8582860162000078565b9150509250929050565b60805160a05161160c620000f96000396000505060006106d7015261160c6000f3fe60806040526004361061003f5760003560e01c80634585e33b146100445780636e04ff0d1461006d578063ac9d6a2b146100ab578063b374ff29146100c7575b600080fd5b34801561005057600080fd5b5061006b60048036038101906100669190610c68565b610104565b005b34801561007957600080fd5b50610094600480360381019061008f9190610df6565b610126565b6040516100a2929190610ed9565b60405180910390f35b6100c560048036038101906100c09190610fe0565b6106d5565b005b3480156100d357600080fd5b506100ee60048036038101906100e9919061107f565b61093a565b6040516100fb919061113f565b60405180910390f35b600061011e60405180602001604052806000815250610126565b509050505050565b60006060600080805480602002602001604051908101604052809291908181526020016000905b828210156104ba57838290600052602060002090600902016040518061012001604052908160008201805461018190611189565b80601f01602080910402602001604051908101604052809291908181526020018280546101ad90611189565b80156101fa5780601f106101cf576101008083540402835291602001916101fa565b820191906000526020600020905b8154815290600101906020018083116101dd57829003601f168201915b5050505050815260200160018201805461021390611189565b80601f016020809104026020016040519081016040528092919081815260200182805461023f90611189565b801561028c5780601f106102615761010080835404028352916020019161028c565b820191906000526020600020905b81548152906001019060200180831161026f57829003601f168201915b505050505081526020016002820160009054906101000a900473ffffffffffffffffffffffffffffffffffffffff1673ffffffffffffffffffffffffffffffffffffffff1673ffffffffffffffffffffffffffffffffffffffff16815260200160038201548152602001600482015481526020016005820154815260200160068201805480602002602001604051908101604052809291908181526020016000905b828210156103da57838290600052602060002001805461034d90611189565b80601f016020809104026020016040519081016040528092919081815260200182805461037990611189565b80156103c65780601f1061039b576101008083540402835291602001916103c6565b820191906000526020600020905b8154815290600101906020018083116103a957829003601f168201915b50505050508152602001906001019061032e565b5050505081526020016007820180548060200260200160405190810160405280929190818152602001828054801561046757602002820191906000526020600020905b8160009054906101000a900473ffffffffffffffffffffffffffffffffffffffff1673ffffffffffffffffffffffffffffffffffffffff168152602001906001019080831161041d575b505050505081526020016008820160009054906101000a900460ff166002811115610495576104946110c8565b5b60028111156104a7576104a66110c8565b5b815250508152602001906001019061014d565b50505050905060005b81518110156106bb57600160028111156104e0576104df6110c8565b5b8282815181106104f3576104f26111ba565b5b602002602001015161010001516002811115610512576105116110c8565b5b036106a857600182828151811061052c5761052b6111ba565b5b60200260200101519080600181540180825580915050600190039060005260206000209060090201600090919091909150600082015181600001908161057291906113a0565b50602082015181600101908161058891906113a0565b5060408201518160020160006101000a81548173ffffffffffffffffffffffffffffffffffffffff021916908373ffffffffffffffffffffffffffffffffffffffff160217905550606082015181600301556080820151816004015560a0820151816005015560c082015181600601908051906020019061060a929190610a17565b5060e0820151816007019080519060200190610627929190610a70565b506101008201518160080160006101000a81548160ff02191690836002811115610654576106536110c8565b5b0217905550505060028282815181106106705761066f6111ba565b5b60200260200101516101000190600281111561068f5761068e6110c8565b5b908160028111156106a3576106a26110c8565b5b815250505b80806106b3906114a1565b9150506104c3565b50600060018054905011156106cf57600192505b50915091565b7f000000000000000000000000000000000000000000000000000000000000000034101561072f576040517fc09bb52500000000000000000000000000000000000000000000000000000000815260040160405180910390fd5b610737610afa565b84816000018190525083816020018190525033816040019073ffffffffffffffffffffffffffffffffffffffff16908173ffffffffffffffffffffffffffffffffffffffff16815250508281606001818152505081816080018181525050600081610100019060028111156107af576107ae6110c8565b5b908160028111156107c3576107c26110c8565b5b815250506000819080600181540180825580915050600190039060005260206000209060090201600090919091909150600082015181600001908161080891906113a0565b50602082015181600101908161081e91906113a0565b5060408201518160020160006101000a81548173ffffffffffffffffffffffffffffffffffffffff021916908373ffffffffffffffffffffffffffffffffffffffff160217905550606082015181600301556080820151816004015560a0820151816005015560c08201518160060190805190602001906108a0929190610a17565b5060e08201518160070190805190602001906108bd929190610a70565b506101008201518160080160006101000a81548160ff021916908360028111156108ea576108e96110c8565b5b02179055505050846040516108ff9190611525565b60405180910390207fcc65c6fb1d804ba1dc418f9e3659483d310357279f035d45b8ea484fd6fe4a2f60405160405180910390a25050505050565b60008060005b600080549050811015610a0d578360405160200161095e9190611525565b6040516020818303038152906040528051906020012060008281548110610988576109876111ba565b5b90600052602060002090600902016000016040516020016109a991906115bf565b60405160208183030381529060405280519060200120036109fa57600081815481106109d8576109d76111ba565b5b906000526020600020906009020160080160009054906101000a900460ff1691505b8080610a05906114a1565b915050610940565b5080915050919050565b828054828255906000526020600020908101928215610a5f579160200282015b82811115610a5e578251829081610a4e91906113a0565b5091602001919060010190610a37565b5b509050610a6c9190610b6e565b5090565b828054828255906000526020600020908101928215610ae9579160200282015b82811115610ae85782518260006101000a81548173ffffffffffffffffffffffffffffffffffffffff021916908373ffffffffffffffffffffffffffffffffffffffff16021790555091602001919060010190610a90565b5b509050610af69190610b92565b5090565b6040518061012001604052806060815260200160608152602001600073ffffffffffffffffffffffffffffffffffffffff168152602001600081526020016000815260200160008152602001606081526020016060815260200160006002811115610b6857610b676110c8565b5b81525090565b5b80821115610b8e5760008181610b859190610baf565b50600101610b6f565b5090565b5b80821115610bab576000816000905550600101610b93565b5090565b508054610bbb90611189565b6000825580601f10610bcd5750610bec565b601f016020900490600052602060002090810190610beb9190610b92565b5b50565b6000604051905090565b600080fd5b600080fd5b600080fd5b600080fd5b600080fd5b60008083601f840112610c2857610c27610c03565b5b8235905067ffffffffffffffff811115610c4557610c44610c08565b5b602083019150836001820283011115610c6157610c60610c0d565b5b9250929050565b60008060208385031215610c7f57610c7e610bf9565b5b600083013567ffffffffffffffff811115610c9d57610c9c610bfe565b5b610ca985828601610c12565b92509250509250929050565b600080fd5b6000601f19601f8301169050919050565b7f4e487b7100000000000000000000000000000000000000000000000000000000600052604160045260246000fd5b610d0382610cba565b810181811067ffffffffffffffff82111715610d2257610d21610ccb565b5b80604052505050565b6000610d35610bef565b9050610d418282610cfa565b919050565b600067ffffffffffffffff821115610d6157610d60610ccb565b5b610d6a82610cba565b9050602081019050919050565b82818337600083830152505050565b6000610d99610d9484610d46565b610d2b565b905082815260208101848484011115610db557610db4610cb5565b5b610dc0848285610d77565b509392505050565b600082601f830112610ddd57610ddc610c03565b5b8135610ded848260208601610d86565b91505092915050565b600060208284031215610e0c57610e0b610bf9565b5b600082013567ffffffffffffffff811115610e2a57610e29610bfe565b5b610e3684828501610dc8565b91505092915050565b60008115159050919050565b610e5481610e3f565b82525050565b600081519050919050565b600082825260208201905092915050565b60005b83811015610e94578082015181840152602081019050610e79565b60008484015250505050565b6000610eab82610e5a565b610eb58185610e65565b9350610ec5818560208601610e76565b610ece81610cba565b840191505092915050565b6000604082019050610eee6000830185610e4b565b8181036020830152610f008184610ea0565b90509392505050565b600067ffffffffffffffff821115610f2457610f23610ccb565b5b610f2d82610cba565b9050602081019050919050565b6000610f4d610f4884610f09565b610d2b565b905082815260208101848484011115610f6957610f68610cb5565b5b610f74848285610d77565b509392505050565b600082601f830112610f9157610f90610c03565b5b8135610fa1848260208601610f3a565b91505092915050565b6000819050919050565b610fbd81610faa565b8114610fc857600080fd5b50565b600081359050610fda81610fb4565b92915050565b60008060008060808587031215610ffa57610ff9610bf9565b5b600085013567ffffffffffffffff81111561101857611017610bfe565b5b61102487828801610f7c565b945050602085013567ffffffffffffffff81111561104557611044610bfe565b5b61105187828801610f7c565b935050604061106287828801610fcb565b925050606061107387828801610fcb565b91505092959194509250565b60006020828403121561109557611094610bf9565b5b600082013567ffffffffffffffff8111156110b3576110b2610bfe565b5b6110bf84828501610f7c565b91505092915050565b7f4e487b7100000000000000000000000000000000000000000000000000000000600052602160045260246000fd5b60038110611108576111076110c8565b5b50565b6000819050611119826110f7565b919050565b60006111298261110b565b9050919050565b6111398161111e565b82525050565b60006020820190506111546000830184611130565b92915050565b7f4e487b7100000000000000000000000000000000000000000000000000000000600052602260045260246000fd5b600060028204905060018216806111a157607f821691505b6020821081036111b4576111b361115a565b5b50919050565b7f4e487b7100000000000000000000000000000000000000000000000000000000600052603260045260246000fd5b600081519050919050565b60008190508160005260206000209050919050565b60006020601f8301049050919050565b600082821b905092915050565b6000600883026112567fffffffffffffffffffffffffffffffffffffffffffffffffffffffffffffffff82611219565b6112608683611219565b95508019841693508086168417925050509392505050565b6000819050919050565b600061129d61129861129384610faa565b611278565b610faa565b9050919050565b6000819050919050565b6112b783611282565b6112cb6112c3826112a4565b848454611226565b825550505050565b600090565b6112e06112d3565b6112eb8184846112ae565b505050565b5b8181101561130f576113046000826112d8565b6001810190506112f1565b5050565b601f82111561135457611325816111f4565b61132e84611209565b8101602085101561133d578190505b61135161134985611209565b8301826112f0565b50505b505050565b600082821c905092915050565b600061137760001984600802611359565b1980831691505092915050565b60006113908383611366565b9150826002028217905092915050565b6113a9826111e9565b67ffffffffffffffff8111156113c2576113c1610ccb565b5b6113cc8254611189565b6113d7828285611313565b600060209050601f83116001811461140a57600084156113f8578287015190505b6114028582611384565b86555061146a565b601f198416611418866111f4565b60005b828110156114405784890151825560018201915060208501945060208101905061141b565b8683101561145d5784890151611459601f891682611366565b8355505b6001600288020188555050505b505050505050565b7f4e487b7100000000000000000000000000000000000000000000000000000000600052601160045260246000fd5b60006114ac82610faa565b91507fffffffffffffffffffffffffffffffffffffffffffffffffffffffffffffffff82036114de576114dd611472565b5b600182019050919050565b600081905092915050565b60006114ff826111e9565b61150981856114e9565b9350611519818560208601610e76565b80840191505092915050565b600061153182846114f4565b915081905092915050565b6000815461154981611189565b61155381866114e9565b9450600182166000811461156e5760018114611583576115b6565b60ff19831686528115158202860193506115b6565b61158c856111f4565b60005b838110156115ae5781548189015260018201915060208101905061158f565b838801955050505b50505092915050565b60006115cb828461153c565b91508190509291505056fea2646970667358221220fc0abf030e9ec37fcbd7aa261e34ddd7b2983e4685efa3e6d38bb4daca05d07864736f6c63430008110033",
  "linkReferences": {},
  "deployedLinkReferences": {}
}