{
  "_format": "hh-sol-artifact-1",
  "contractName": "Surpay",
  "sourceName": "contracts/Surpay.sol",
  "abi": [
    {
      "inputs": [
        {
          "internalType": "uint256",
          "name": "_surveyCreationFee",
          "type": "uint256"
        },
        {
          "internalType": "uint256",
          "name": "_interval",
          "type": "uint256"
        }
      ],
      "stateMutability": "nonpayable",
      "type": "constructor"
    },
    {
      "inputs": [],
      "name": "Surpay__NotEnoughFunds",
      "type": "error"
    },
    {
      "anonymous": false,
      "inputs": [
        {
          "indexed": true,
          "internalType": "string",
          "name": "surveyData",
          "type": "string"
        }
      ],
      "name": "SurveyCompleted",
      "type": "event"
    },
    {
      "anonymous": false,
      "inputs": [
        {
          "indexed": true,
          "internalType": "string",
          "name": "surveyId",
          "type": "string"
        }
      ],
      "name": "SurveyCreated",
      "type": "event"
    },
    {
      "anonymous": false,
      "inputs": [
        {
          "indexed": true,
          "internalType": "address",
          "name": "paidSurveyTaker",
          "type": "address"
        }
      ],
      "name": "SurveyTakerPaid",
      "type": "event"
    },
    {
      "inputs": [
        {
          "internalType": "bytes",
          "name": "",
          "type": "bytes"
        }
      ],
      "name": "checkUpkeep",
      "outputs": [
        {
          "internalType": "bool",
          "name": "upkeepNeeded",
          "type": "bool"
        },
        {
          "internalType": "bytes",
          "name": "",
          "type": "bytes"
        }
      ],
      "stateMutability": "nonpayable",
      "type": "function"
    },
    {
      "inputs": [
        {
          "internalType": "string",
          "name": "_surveyId",
          "type": "string"
        },
        {
          "internalType": "string",
          "name": "_companyId",
          "type": "string"
        },
        {
          "internalType": "uint256",
          "name": "_totalPaymentAmount",
          "type": "uint256"
        },
        {
          "internalType": "uint256",
          "name": "_numOfParticipantsDesired",
          "type": "uint256"
        }
      ],
      "name": "createSurvey",
      "outputs": [],
      "stateMutability": "payable",
      "type": "function"
    },
    {
      "inputs": [],
      "name": "getInterval",
      "outputs": [
        {
          "internalType": "uint256",
          "name": "",
          "type": "uint256"
        }
      ],
      "stateMutability": "view",
      "type": "function"
    },
    {
      "inputs": [],
      "name": "getSurveyCreationFee",
      "outputs": [
        {
          "internalType": "uint256",
          "name": "",
          "type": "uint256"
        }
      ],
      "stateMutability": "view",
      "type": "function"
    },
    {
      "inputs": [
        {
          "internalType": "string",
          "name": "_surveyId",
          "type": "string"
        }
      ],
      "name": "getSurveyState",
      "outputs": [
        {
          "internalType": "enum Surpay.SurveyState",
          "name": "",
          "type": "uint8"
        }
      ],
      "stateMutability": "view",
      "type": "function"
    },
    {
      "inputs": [
        {
          "internalType": "bytes",
          "name": "",
          "type": "bytes"
        }
      ],
      "name": "performUpkeep",
      "outputs": [],
      "stateMutability": "nonpayable",
      "type": "function"
    }
  ],
  "bytecode": "0x60c06040523480156200001157600080fd5b50604051620017f5380380620017f583398181016040528101906200003791906200008f565b81608081815250508060a081815250505050620000d6565b600080fd5b6000819050919050565b620000698162000054565b81146200007557600080fd5b50565b60008151905062000089816200005e565b92915050565b60008060408385031215620000a957620000a86200004f565b5b6000620000b98582860162000078565b9250506020620000cc8582860162000078565b9150509250929050565b60805160a0516116f262000103600039600061074501526000818161076b0152610aaf01526116f26000f3fe6080604052600436106100555760003560e01c80634585e33b1461005a5780636e04ff0d1461008357806391ad27b4146100c1578063ac9d6a2b146100ec578063b374ff2914610108578063bab26fd214610145575b600080fd5b34801561006657600080fd5b50610081600480360381019061007c9190610d24565b610170565b005b34801561008f57600080fd5b506100aa60048036038101906100a59190610eb2565b610192565b6040516100b8929190610f95565b60405180910390f35b3480156100cd57600080fd5b506100d6610741565b6040516100e39190610fde565b60405180910390f35b610106600480360381019061010191906110c6565b610769565b005b34801561011457600080fd5b5061012f600480360381019061012a9190611165565b6109ce565b60405161013c9190611225565b60405180910390f35b34801561015157600080fd5b5061015a610aab565b6040516101679190610fde565b60405180910390f35b600061018a60405180602001604052806000815250610192565b509050505050565b60006060600080805480602002602001604051908101604052809291908181526020016000905b828210156105265783829060005260206000209060090201604051806101200160405290816000820180546101ed9061126f565b80601f01602080910402602001604051908101604052809291908181526020018280546102199061126f565b80156102665780601f1061023b57610100808354040283529160200191610266565b820191906000526020600020905b81548152906001019060200180831161024957829003601f168201915b5050505050815260200160018201805461027f9061126f565b80601f01602080910402602001604051908101604052809291908181526020018280546102ab9061126f565b80156102f85780601f106102cd576101008083540402835291602001916102f8565b820191906000526020600020905b8154815290600101906020018083116102db57829003601f168201915b505050505081526020016002820160009054906101000a900473ffffffffffffffffffffffffffffffffffffffff1673ffffffffffffffffffffffffffffffffffffffff1673ffffffffffffffffffffffffffffffffffffffff16815260200160038201548152602001600482015481526020016005820154815260200160068201805480602002602001604051908101604052809291908181526020016000905b828210156104465783829060005260206000200180546103b99061126f565b80601f01602080910402602001604051908101604052809291908181526020018280546103e59061126f565b80156104325780601f1061040757610100808354040283529160200191610432565b820191906000526020600020905b81548152906001019060200180831161041557829003601f168201915b50505050508152602001906001019061039a565b505050508152602001600782018054806020026020016040519081016040528092919081815260200182805480156104d357602002820191906000526020600020905b8160009054906101000a900473ffffffffffffffffffffffffffffffffffffffff1673ffffffffffffffffffffffffffffffffffffffff1681526020019060010190808311610489575b505050505081526020016008820160009054906101000a900460ff166002811115610501576105006111ae565b5b6002811115610513576105126111ae565b5b81525050815260200190600101906101b9565b50505050905060005b8151811015610727576001600281111561054c5761054b6111ae565b5b82828151811061055f5761055e6112a0565b5b60200260200101516101000151600281111561057e5761057d6111ae565b5b03610714576001828281518110610598576105976112a0565b5b6020026020010151908060018154018082558091505060019003906000526020600020906009020160009091909190915060008201518160000190816105de9190611486565b5060208201518160010190816105f49190611486565b5060408201518160020160006101000a81548173ffffffffffffffffffffffffffffffffffffffff021916908373ffffffffffffffffffffffffffffffffffffffff160217905550606082015181600301556080820151816004015560a0820151816005015560c0820151816006019080519060200190610676929190610ad3565b5060e0820151816007019080519060200190610693929190610b2c565b506101008201518160080160006101000a81548160ff021916908360028111156106c0576106bf6111ae565b5b0217905550505060028282815181106106dc576106db6112a0565b5b6020026020010151610100019060028111156106fb576106fa6111ae565b5b9081600281111561070f5761070e6111ae565b5b815250505b808061071f90611587565b91505061052f565b506000600180549050111561073b57600192505b50915091565b60007f0000000000000000000000000000000000000000000000000000000000000000905090565b7f00000000000000000000000000000000000000000000000000000000000000003410156107c3576040517fc09bb52500000000000000000000000000000000000000000000000000000000815260040160405180910390fd5b6107cb610bb6565b84816000018190525083816020018190525033816040019073ffffffffffffffffffffffffffffffffffffffff16908173ffffffffffffffffffffffffffffffffffffffff1681525050828160600181815250508181608001818152505060008161010001906002811115610843576108426111ae565b5b90816002811115610857576108566111ae565b5b815250506000819080600181540180825580915050600190039060005260206000209060090201600090919091909150600082015181600001908161089c9190611486565b5060208201518160010190816108b29190611486565b5060408201518160020160006101000a81548173ffffffffffffffffffffffffffffffffffffffff021916908373ffffffffffffffffffffffffffffffffffffffff160217905550606082015181600301556080820151816004015560a0820151816005015560c0820151816006019080519060200190610934929190610ad3565b5060e0820151816007019080519060200190610951929190610b2c565b506101008201518160080160006101000a81548160ff0219169083600281111561097e5761097d6111ae565b5b0217905550505084604051610993919061160b565b60405180910390207fcc65c6fb1d804ba1dc418f9e3659483d310357279f035d45b8ea484fd6fe4a2f60405160405180910390a25050505050565b60008060005b600080549050811015610aa157836040516020016109f2919061160b565b6040516020818303038152906040528051906020012060008281548110610a1c57610a1b6112a0565b5b9060005260206000209060090201600001604051602001610a3d91906116a5565b6040516020818303038152906040528051906020012003610a8e5760008181548110610a6c57610a6b6112a0565b5b906000526020600020906009020160080160009054906101000a900460ff1691505b8080610a9990611587565b9150506109d4565b5080915050919050565b60007f0000000000000000000000000000000000000000000000000000000000000000905090565b828054828255906000526020600020908101928215610b1b579160200282015b82811115610b1a578251829081610b0a9190611486565b5091602001919060010190610af3565b5b509050610b289190610c2a565b5090565b828054828255906000526020600020908101928215610ba5579160200282015b82811115610ba45782518260006101000a81548173ffffffffffffffffffffffffffffffffffffffff021916908373ffffffffffffffffffffffffffffffffffffffff16021790555091602001919060010190610b4c565b5b509050610bb29190610c4e565b5090565b6040518061012001604052806060815260200160608152602001600073ffffffffffffffffffffffffffffffffffffffff168152602001600081526020016000815260200160008152602001606081526020016060815260200160006002811115610c2457610c236111ae565b5b81525090565b5b80821115610c4a5760008181610c419190610c6b565b50600101610c2b565b5090565b5b80821115610c67576000816000905550600101610c4f565b5090565b508054610c779061126f565b6000825580601f10610c895750610ca8565b601f016020900490600052602060002090810190610ca79190610c4e565b5b50565b6000604051905090565b600080fd5b600080fd5b600080fd5b600080fd5b600080fd5b60008083601f840112610ce457610ce3610cbf565b5b8235905067ffffffffffffffff811115610d0157610d00610cc4565b5b602083019150836001820283011115610d1d57610d1c610cc9565b5b9250929050565b60008060208385031215610d3b57610d3a610cb5565b5b600083013567ffffffffffffffff811115610d5957610d58610cba565b5b610d6585828601610cce565b92509250509250929050565b600080fd5b6000601f19601f8301169050919050565b7f4e487b7100000000000000000000000000000000000000000000000000000000600052604160045260246000fd5b610dbf82610d76565b810181811067ffffffffffffffff82111715610dde57610ddd610d87565b5b80604052505050565b6000610df1610cab565b9050610dfd8282610db6565b919050565b600067ffffffffffffffff821115610e1d57610e1c610d87565b5b610e2682610d76565b9050602081019050919050565b82818337600083830152505050565b6000610e55610e5084610e02565b610de7565b905082815260208101848484011115610e7157610e70610d71565b5b610e7c848285610e33565b509392505050565b600082601f830112610e9957610e98610cbf565b5b8135610ea9848260208601610e42565b91505092915050565b600060208284031215610ec857610ec7610cb5565b5b600082013567ffffffffffffffff811115610ee657610ee5610cba565b5b610ef284828501610e84565b91505092915050565b60008115159050919050565b610f1081610efb565b82525050565b600081519050919050565b600082825260208201905092915050565b60005b83811015610f50578082015181840152602081019050610f35565b60008484015250505050565b6000610f6782610f16565b610f718185610f21565b9350610f81818560208601610f32565b610f8a81610d76565b840191505092915050565b6000604082019050610faa6000830185610f07565b8181036020830152610fbc8184610f5c565b90509392505050565b6000819050919050565b610fd881610fc5565b82525050565b6000602082019050610ff36000830184610fcf565b92915050565b600067ffffffffffffffff82111561101457611013610d87565b5b61101d82610d76565b9050602081019050919050565b600061103d61103884610ff9565b610de7565b90508281526020810184848401111561105957611058610d71565b5b611064848285610e33565b509392505050565b600082601f83011261108157611080610cbf565b5b813561109184826020860161102a565b91505092915050565b6110a381610fc5565b81146110ae57600080fd5b50565b6000813590506110c08161109a565b92915050565b600080600080608085870312156110e0576110df610cb5565b5b600085013567ffffffffffffffff8111156110fe576110fd610cba565b5b61110a8782880161106c565b945050602085013567ffffffffffffffff81111561112b5761112a610cba565b5b6111378782880161106c565b9350506040611148878288016110b1565b9250506060611159878288016110b1565b91505092959194509250565b60006020828403121561117b5761117a610cb5565b5b600082013567ffffffffffffffff81111561119957611198610cba565b5b6111a58482850161106c565b91505092915050565b7f4e487b7100000000000000000000000000000000000000000000000000000000600052602160045260246000fd5b600381106111ee576111ed6111ae565b5b50565b60008190506111ff826111dd565b919050565b600061120f826111f1565b9050919050565b61121f81611204565b82525050565b600060208201905061123a6000830184611216565b92915050565b7f4e487b7100000000000000000000000000000000000000000000000000000000600052602260045260246000fd5b6000600282049050600182168061128757607f821691505b60208210810361129a57611299611240565b5b50919050565b7f4e487b7100000000000000000000000000000000000000000000000000000000600052603260045260246000fd5b600081519050919050565b60008190508160005260206000209050919050565b60006020601f8301049050919050565b600082821b905092915050565b60006008830261133c7fffffffffffffffffffffffffffffffffffffffffffffffffffffffffffffffff826112ff565b61134686836112ff565b95508019841693508086168417925050509392505050565b6000819050919050565b600061138361137e61137984610fc5565b61135e565b610fc5565b9050919050565b6000819050919050565b61139d83611368565b6113b16113a98261138a565b84845461130c565b825550505050565b600090565b6113c66113b9565b6113d1818484611394565b505050565b5b818110156113f5576113ea6000826113be565b6001810190506113d7565b5050565b601f82111561143a5761140b816112da565b611414846112ef565b81016020851015611423578190505b61143761142f856112ef565b8301826113d6565b50505b505050565b600082821c905092915050565b600061145d6000198460080261143f565b1980831691505092915050565b6000611476838361144c565b9150826002028217905092915050565b61148f826112cf565b67ffffffffffffffff8111156114a8576114a7610d87565b5b6114b2825461126f565b6114bd8282856113f9565b600060209050601f8311600181146114f057600084156114de578287015190505b6114e8858261146a565b865550611550565b601f1984166114fe866112da565b60005b8281101561152657848901518255600182019150602085019450602081019050611501565b86831015611543578489015161153f601f89168261144c565b8355505b6001600288020188555050505b505050505050565b7f4e487b7100000000000000000000000000000000000000000000000000000000600052601160045260246000fd5b600061159282610fc5565b91507fffffffffffffffffffffffffffffffffffffffffffffffffffffffffffffffff82036115c4576115c3611558565b5b600182019050919050565b600081905092915050565b60006115e5826112cf565b6115ef81856115cf565b93506115ff818560208601610f32565b80840191505092915050565b600061161782846115da565b915081905092915050565b6000815461162f8161126f565b61163981866115cf565b9450600182166000811461165457600181146116695761169c565b60ff198316865281151582028601935061169c565b611672856112da565b60005b8381101561169457815481890152600182019150602081019050611675565b838801955050505b50505092915050565b60006116b18284611622565b91508190509291505056fea2646970667358221220a0cfc196494392e08616b44e7db92f322a1f2cffe7f318de15f2e6ca3e0613b364736f6c63430008110033",
  "linkReferences": {},
  "deployedLinkReferences": {}
}