{
  "_format": "hh-sol-artifact-1",
  "contractName": "Surpay",
  "sourceName": "contracts/Surpay.sol",
  "abi": [
    {
      "inputs": [
        {
          "internalType": "uint256",
          "name": "_surveyCreationFee",
          "type": "uint256"
        },
        {
          "internalType": "uint256",
          "name": "_interval",
          "type": "uint256"
        }
      ],
      "stateMutability": "nonpayable",
      "type": "constructor"
    },
    {
      "inputs": [],
      "name": "Surpay__NotEnoughFunds",
      "type": "error"
    },
    {
      "inputs": [],
      "name": "Surpay__SurveyNotFound",
      "type": "error"
    },
    {
      "anonymous": false,
      "inputs": [
        {
          "indexed": true,
          "internalType": "string",
          "name": "surveyData",
          "type": "string"
        }
      ],
      "name": "SurveyCompleted",
      "type": "event"
    },
    {
      "anonymous": false,
      "inputs": [
        {
          "indexed": true,
          "internalType": "string",
          "name": "surveyId",
          "type": "string"
        }
      ],
      "name": "SurveyCreated",
      "type": "event"
    },
    {
      "anonymous": false,
      "inputs": [
        {
          "indexed": true,
          "internalType": "address",
          "name": "paidSurveyTaker",
          "type": "address"
        }
      ],
      "name": "SurveyTakerPaid",
      "type": "event"
    },
    {
      "anonymous": false,
      "inputs": [
        {
          "indexed": true,
          "internalType": "address",
          "name": "surveyTaker",
          "type": "address"
        }
      ],
      "name": "UserAddedToSurvey",
      "type": "event"
    },
    {
      "inputs": [
        {
          "internalType": "bytes",
          "name": "",
          "type": "bytes"
        }
      ],
      "name": "checkUpkeep",
      "outputs": [
        {
          "internalType": "bool",
          "name": "upkeepNeeded",
          "type": "bool"
        },
        {
          "internalType": "bytes",
          "name": "",
          "type": "bytes"
        }
      ],
      "stateMutability": "nonpayable",
      "type": "function"
    },
    {
      "inputs": [
        {
          "internalType": "string",
          "name": "_surveyId",
          "type": "string"
        },
        {
          "internalType": "string",
          "name": "_companyId",
          "type": "string"
        },
        {
          "internalType": "uint256",
          "name": "_totalPayoutAmount",
          "type": "uint256"
        },
        {
          "internalType": "uint256",
          "name": "_numOfParticipantsDesired",
          "type": "uint256"
        }
      ],
      "name": "createSurvey",
      "outputs": [],
      "stateMutability": "payable",
      "type": "function"
    },
    {
      "inputs": [],
      "name": "getInterval",
      "outputs": [
        {
          "internalType": "uint256",
          "name": "",
          "type": "uint256"
        }
      ],
      "stateMutability": "view",
      "type": "function"
    },
    {
      "inputs": [
        {
          "internalType": "uint256",
          "name": "index",
          "type": "uint256"
        }
      ],
      "name": "getPayoutByIndex",
      "outputs": [
        {
          "internalType": "uint256",
          "name": "",
          "type": "uint256"
        }
      ],
      "stateMutability": "view",
      "type": "function"
    },
    {
      "inputs": [
        {
          "internalType": "uint256",
          "name": "index",
          "type": "uint256"
        }
      ],
      "name": "getSurveyByIndex",
      "outputs": [
        {
          "internalType": "string",
          "name": "",
          "type": "string"
        }
      ],
      "stateMutability": "view",
      "type": "function"
    },
    {
      "inputs": [],
      "name": "getSurveyCreationFee",
      "outputs": [
        {
          "internalType": "uint256",
          "name": "",
          "type": "uint256"
        }
      ],
      "stateMutability": "view",
      "type": "function"
    },
    {
      "inputs": [
        {
          "internalType": "uint256",
          "name": "surveyIndex",
          "type": "uint256"
        },
        {
          "internalType": "uint256",
          "name": "responseIndex",
          "type": "uint256"
        }
      ],
      "name": "getSurveyResponseDataByIndex",
      "outputs": [
        {
          "internalType": "string",
          "name": "",
          "type": "string"
        }
      ],
      "stateMutability": "view",
      "type": "function"
    },
    {
      "inputs": [
        {
          "internalType": "string",
          "name": "_surveyId",
          "type": "string"
        }
      ],
      "name": "getSurveyState",
      "outputs": [
        {
          "internalType": "enum Surpay.SurveyState",
          "name": "",
          "type": "uint8"
        }
      ],
      "stateMutability": "view",
      "type": "function"
    },
    {
      "inputs": [
        {
          "internalType": "uint256",
          "name": "surveyIndex",
          "type": "uint256"
        },
        {
          "internalType": "uint256",
          "name": "userIndex",
          "type": "uint256"
        }
      ],
      "name": "getSurveyTakerByIndex",
      "outputs": [
        {
          "internalType": "address",
          "name": "",
          "type": "address"
        }
      ],
      "stateMutability": "view",
      "type": "function"
    },
    {
      "inputs": [
        {
          "internalType": "bytes",
          "name": "",
          "type": "bytes"
        }
      ],
      "name": "performUpkeep",
      "outputs": [],
      "stateMutability": "nonpayable",
      "type": "function"
    },
    {
      "inputs": [
        {
          "internalType": "string",
          "name": "_surveyId",
          "type": "string"
        },
        {
          "internalType": "string",
          "name": "_surveyData",
          "type": "string"
        }
      ],
      "name": "sendUserSurveyData",
      "outputs": [],
      "stateMutability": "nonpayable",
      "type": "function"
    }
  ],
  "bytecode": "0x60c06040523480156200001157600080fd5b5060405162001f7938038062001f7983398181016040528101906200003791906200008f565b81608081815250508060a081815250505050620000d6565b600080fd5b6000819050919050565b620000698162000054565b81146200007557600080fd5b50565b60008151905062000089816200005e565b92915050565b60008060408385031215620000a957620000a86200004f565b5b6000620000b98582860162000078565b9250506020620000cc8582860162000078565b9150509250929050565b60805160a051611e76620001036000396000610ae2015260008181610c470152610f8b0152611e766000f3fe60806040526004361061009c5760003560e01c80639f5922a7116100645780639f5922a714610199578063ab279df4146101d6578063ac9d6a2b14610213578063b374ff291461022f578063bab26fd21461026c578063f3207403146102975761009c565b80632b5f2325146100a15780634585e33b146100de5780636e04ff0d1461010757806377b5df8e1461014557806391ad27b41461016e575b600080fd5b3480156100ad57600080fd5b506100c860048036038101906100c391906112cc565b6102d4565b6040516100d59190611308565b60405180910390f35b3480156100ea57600080fd5b5061010560048036038101906101009190611388565b610346565b005b34801561011357600080fd5b5061012e60048036038101906101299190611516565b610368565b60405161013c9291906115f9565b60405180910390f35b34801561015157600080fd5b5061016c600480360381019061016791906116ca565b610917565b005b34801561017a57600080fd5b50610183610ade565b6040516101909190611308565b60405180910390f35b3480156101a557600080fd5b506101c060048036038101906101bb9190611742565b610b06565b6040516101cd91906117c3565b60405180910390f35b3480156101e257600080fd5b506101fd60048036038101906101f89190611742565b610b71565b60405161020a9190611833565b60405180910390f35b61022d60048036038101906102289190611855565b610c45565b005b34801561023b57600080fd5b50610256600480360381019061025191906118f4565b610eaa565b60405161026391906119b4565b60405180910390f35b34801561027857600080fd5b50610281610f87565b60405161028e9190611308565b60405180910390f35b3480156102a357600080fd5b506102be60048036038101906102b991906112cc565b610faf565b6040516102cb9190611833565b60405180910390f35b6000808054905082101561030f57600082815481106102f6576102f56119cf565b5b9060005260206000209060090201600301549050610341565b6040517fb01e933700000000000000000000000000000000000000000000000000000000815260040160405180910390fd5b919050565b600061036060405180602001604052806000815250610368565b509050505050565b60006060600080805480602002602001604051908101604052809291908181526020016000905b828210156106fc5783829060005260206000209060090201604051806101200160405290816000820180546103c390611a2d565b80601f01602080910402602001604051908101604052809291908181526020018280546103ef90611a2d565b801561043c5780601f106104115761010080835404028352916020019161043c565b820191906000526020600020905b81548152906001019060200180831161041f57829003601f168201915b5050505050815260200160018201805461045590611a2d565b80601f016020809104026020016040519081016040528092919081815260200182805461048190611a2d565b80156104ce5780601f106104a3576101008083540402835291602001916104ce565b820191906000526020600020905b8154815290600101906020018083116104b157829003601f168201915b505050505081526020016002820160009054906101000a900473ffffffffffffffffffffffffffffffffffffffff1673ffffffffffffffffffffffffffffffffffffffff1673ffffffffffffffffffffffffffffffffffffffff16815260200160038201548152602001600482015481526020016005820154815260200160068201805480602002602001604051908101604052809291908181526020016000905b8282101561061c57838290600052602060002001805461058f90611a2d565b80601f01602080910402602001604051908101604052809291908181526020018280546105bb90611a2d565b80156106085780601f106105dd57610100808354040283529160200191610608565b820191906000526020600020905b8154815290600101906020018083116105eb57829003601f168201915b505050505081526020019060010190610570565b505050508152602001600782018054806020026020016040519081016040528092919081815260200182805480156106a957602002820191906000526020600020905b8160009054906101000a900473ffffffffffffffffffffffffffffffffffffffff1673ffffffffffffffffffffffffffffffffffffffff168152602001906001019080831161065f575b505050505081526020016008820160009054906101000a900460ff1660028111156106d7576106d661193d565b5b60028111156106e9576106e861193d565b5b815250508152602001906001019061038f565b50505050905060005b81518110156108fd57600160028111156107225761072161193d565b5b828281518110610735576107346119cf565b5b6020026020010151610100015160028111156107545761075361193d565b5b036108ea57600182828151811061076e5761076d6119cf565b5b6020026020010151908060018154018082558091505060019003906000526020600020906009020160009091909190915060008201518160000190816107b49190611c0a565b5060208201518160010190816107ca9190611c0a565b5060408201518160020160006101000a81548173ffffffffffffffffffffffffffffffffffffffff021916908373ffffffffffffffffffffffffffffffffffffffff160217905550606082015181600301556080820151816004015560a0820151816005015560c082015181600601908051906020019061084c9291906110aa565b5060e0820151816007019080519060200190610869929190611103565b506101008201518160080160006101000a81548160ff021916908360028111156108965761089561193d565b5b0217905550505060028282815181106108b2576108b16119cf565b5b6020026020010151610100019060028111156108d1576108d061193d565b5b908160028111156108e5576108e461193d565b5b815250505b80806108f590611d0b565b915050610705565b506000600180549050111561091157600192505b50915091565b60005b600080549050811015610ad857826040516020016109389190611d8f565b6040516020818303038152906040528051906020012060008281548110610962576109616119cf565b5b90600052602060002090600902016000016040516020016109839190611e29565b6040516020818303038152906040528051906020012003610ac557600081815481106109b2576109b16119cf565b5b9060005260206000209060090201600601829080600181540180825580915050600190039060005260206000200160009091909190915090816109f59190611c0a565b5060008181548110610a0a57610a096119cf565b5b9060005260206000209060090201600701339080600181540180825580915050600190039060005260206000200160009091909190916101000a81548173ffffffffffffffffffffffffffffffffffffffff021916908373ffffffffffffffffffffffffffffffffffffffff1602179055503373ffffffffffffffffffffffffffffffffffffffff167f099cc064944e6569611b439843932fa853d46618d78ca5a8e3989bcc5614853d60405160405180910390a250610ada565b8080610ad090611d0b565b91505061091a565b505b5050565b60007f0000000000000000000000000000000000000000000000000000000000000000905090565b6000808381548110610b1b57610b1a6119cf565b5b90600052602060002090600902016007018281548110610b3e57610b3d6119cf565b5b9060005260206000200160009054906101000a900473ffffffffffffffffffffffffffffffffffffffff16905092915050565b606060008381548110610b8757610b866119cf565b5b90600052602060002090600902016006018281548110610baa57610ba96119cf565b5b906000526020600020018054610bbf90611a2d565b80601f0160208091040260200160405190810160405280929190818152602001828054610beb90611a2d565b8015610c385780601f10610c0d57610100808354040283529160200191610c38565b820191906000526020600020905b815481529060010190602001808311610c1b57829003601f168201915b5050505050905092915050565b7f0000000000000000000000000000000000000000000000000000000000000000341015610c9f576040517fc09bb52500000000000000000000000000000000000000000000000000000000815260040160405180910390fd5b610ca761118d565b84816000018190525083816020018190525033816040019073ffffffffffffffffffffffffffffffffffffffff16908173ffffffffffffffffffffffffffffffffffffffff1681525050828160600181815250508181608001818152505060008161010001906002811115610d1f57610d1e61193d565b5b90816002811115610d3357610d3261193d565b5b8152505060008190806001815401808255809150506001900390600052602060002090600902016000909190919091506000820151816000019081610d789190611c0a565b506020820151816001019081610d8e9190611c0a565b5060408201518160020160006101000a81548173ffffffffffffffffffffffffffffffffffffffff021916908373ffffffffffffffffffffffffffffffffffffffff160217905550606082015181600301556080820151816004015560a0820151816005015560c0820151816006019080519060200190610e109291906110aa565b5060e0820151816007019080519060200190610e2d929190611103565b506101008201518160080160006101000a81548160ff02191690836002811115610e5a57610e5961193d565b5b0217905550505084604051610e6f9190611d8f565b60405180910390207fcc65c6fb1d804ba1dc418f9e3659483d310357279f035d45b8ea484fd6fe4a2f60405160405180910390a25050505050565b60008060005b600080549050811015610f7d5783604051602001610ece9190611d8f565b6040516020818303038152906040528051906020012060008281548110610ef857610ef76119cf565b5b9060005260206000209060090201600001604051602001610f199190611e29565b6040516020818303038152906040528051906020012003610f6a5760008181548110610f4857610f476119cf565b5b906000526020600020906009020160080160009054906101000a900460ff1691505b8080610f7590611d0b565b915050610eb0565b5080915050919050565b60007f0000000000000000000000000000000000000000000000000000000000000000905090565b60606000805490508210156110735760008281548110610fd257610fd16119cf565b5b90600052602060002090600902016000018054610fee90611a2d565b80601f016020809104026020016040519081016040528092919081815260200182805461101a90611a2d565b80156110675780601f1061103c57610100808354040283529160200191611067565b820191906000526020600020905b81548152906001019060200180831161104a57829003601f168201915b505050505090506110a5565b6040517fb01e933700000000000000000000000000000000000000000000000000000000815260040160405180910390fd5b919050565b8280548282559060005260206000209081019282156110f2579160200282015b828111156110f15782518290816110e19190611c0a565b50916020019190600101906110ca565b5b5090506110ff9190611201565b5090565b82805482825590600052602060002090810192821561117c579160200282015b8281111561117b5782518260006101000a81548173ffffffffffffffffffffffffffffffffffffffff021916908373ffffffffffffffffffffffffffffffffffffffff16021790555091602001919060010190611123565b5b5090506111899190611225565b5090565b6040518061012001604052806060815260200160608152602001600073ffffffffffffffffffffffffffffffffffffffff1681526020016000815260200160008152602001600081526020016060815260200160608152602001600060028111156111fb576111fa61193d565b5b81525090565b5b8082111561122157600081816112189190611242565b50600101611202565b5090565b5b8082111561123e576000816000905550600101611226565b5090565b50805461124e90611a2d565b6000825580601f10611260575061127f565b601f01602090049060005260206000209081019061127e9190611225565b5b50565b6000604051905090565b600080fd5b600080fd5b6000819050919050565b6112a981611296565b81146112b457600080fd5b50565b6000813590506112c6816112a0565b92915050565b6000602082840312156112e2576112e161128c565b5b60006112f0848285016112b7565b91505092915050565b61130281611296565b82525050565b600060208201905061131d60008301846112f9565b92915050565b600080fd5b600080fd5b600080fd5b60008083601f84011261134857611347611323565b5b8235905067ffffffffffffffff81111561136557611364611328565b5b6020830191508360018202830111156113815761138061132d565b5b9250929050565b6000806020838503121561139f5761139e61128c565b5b600083013567ffffffffffffffff8111156113bd576113bc611291565b5b6113c985828601611332565b92509250509250929050565b600080fd5b6000601f19601f8301169050919050565b7f4e487b7100000000000000000000000000000000000000000000000000000000600052604160045260246000fd5b611423826113da565b810181811067ffffffffffffffff82111715611442576114416113eb565b5b80604052505050565b6000611455611282565b9050611461828261141a565b919050565b600067ffffffffffffffff821115611481576114806113eb565b5b61148a826113da565b9050602081019050919050565b82818337600083830152505050565b60006114b96114b484611466565b61144b565b9050828152602081018484840111156114d5576114d46113d5565b5b6114e0848285611497565b509392505050565b600082601f8301126114fd576114fc611323565b5b813561150d8482602086016114a6565b91505092915050565b60006020828403121561152c5761152b61128c565b5b600082013567ffffffffffffffff81111561154a57611549611291565b5b611556848285016114e8565b91505092915050565b60008115159050919050565b6115748161155f565b82525050565b600081519050919050565b600082825260208201905092915050565b60005b838110156115b4578082015181840152602081019050611599565b60008484015250505050565b60006115cb8261157a565b6115d58185611585565b93506115e5818560208601611596565b6115ee816113da565b840191505092915050565b600060408201905061160e600083018561156b565b818103602083015261162081846115c0565b90509392505050565b600067ffffffffffffffff821115611644576116436113eb565b5b61164d826113da565b9050602081019050919050565b600061166d61166884611629565b61144b565b905082815260208101848484011115611689576116886113d5565b5b611694848285611497565b509392505050565b600082601f8301126116b1576116b0611323565b5b81356116c184826020860161165a565b91505092915050565b600080604083850312156116e1576116e061128c565b5b600083013567ffffffffffffffff8111156116ff576116fe611291565b5b61170b8582860161169c565b925050602083013567ffffffffffffffff81111561172c5761172b611291565b5b6117388582860161169c565b9150509250929050565b600080604083850312156117595761175861128c565b5b6000611767858286016112b7565b9250506020611778858286016112b7565b9150509250929050565b600073ffffffffffffffffffffffffffffffffffffffff82169050919050565b60006117ad82611782565b9050919050565b6117bd816117a2565b82525050565b60006020820190506117d860008301846117b4565b92915050565b600081519050919050565b600082825260208201905092915050565b6000611805826117de565b61180f81856117e9565b935061181f818560208601611596565b611828816113da565b840191505092915050565b6000602082019050818103600083015261184d81846117fa565b905092915050565b6000806000806080858703121561186f5761186e61128c565b5b600085013567ffffffffffffffff81111561188d5761188c611291565b5b6118998782880161169c565b945050602085013567ffffffffffffffff8111156118ba576118b9611291565b5b6118c68782880161169c565b93505060406118d7878288016112b7565b92505060606118e8878288016112b7565b91505092959194509250565b60006020828403121561190a5761190961128c565b5b600082013567ffffffffffffffff81111561192857611927611291565b5b6119348482850161169c565b91505092915050565b7f4e487b7100000000000000000000000000000000000000000000000000000000600052602160045260246000fd5b6003811061197d5761197c61193d565b5b50565b600081905061198e8261196c565b919050565b600061199e82611980565b9050919050565b6119ae81611993565b82525050565b60006020820190506119c960008301846119a5565b92915050565b7f4e487b7100000000000000000000000000000000000000000000000000000000600052603260045260246000fd5b7f4e487b7100000000000000000000000000000000000000000000000000000000600052602260045260246000fd5b60006002820490506001821680611a4557607f821691505b602082108103611a5857611a576119fe565b5b50919050565b60008190508160005260206000209050919050565b60006020601f8301049050919050565b600082821b905092915050565b600060088302611ac07fffffffffffffffffffffffffffffffffffffffffffffffffffffffffffffffff82611a83565b611aca8683611a83565b95508019841693508086168417925050509392505050565b6000819050919050565b6000611b07611b02611afd84611296565b611ae2565b611296565b9050919050565b6000819050919050565b611b2183611aec565b611b35611b2d82611b0e565b848454611a90565b825550505050565b600090565b611b4a611b3d565b611b55818484611b18565b505050565b5b81811015611b7957611b6e600082611b42565b600181019050611b5b565b5050565b601f821115611bbe57611b8f81611a5e565b611b9884611a73565b81016020851015611ba7578190505b611bbb611bb385611a73565b830182611b5a565b50505b505050565b600082821c905092915050565b6000611be160001984600802611bc3565b1980831691505092915050565b6000611bfa8383611bd0565b9150826002028217905092915050565b611c13826117de565b67ffffffffffffffff811115611c2c57611c2b6113eb565b5b611c368254611a2d565b611c41828285611b7d565b600060209050601f831160018114611c745760008415611c62578287015190505b611c6c8582611bee565b865550611cd4565b601f198416611c8286611a5e565b60005b82811015611caa57848901518255600182019150602085019450602081019050611c85565b86831015611cc75784890151611cc3601f891682611bd0565b8355505b6001600288020188555050505b505050505050565b7f4e487b7100000000000000000000000000000000000000000000000000000000600052601160045260246000fd5b6000611d1682611296565b91507fffffffffffffffffffffffffffffffffffffffffffffffffffffffffffffffff8203611d4857611d47611cdc565b5b600182019050919050565b600081905092915050565b6000611d69826117de565b611d738185611d53565b9350611d83818560208601611596565b80840191505092915050565b6000611d9b8284611d5e565b915081905092915050565b60008154611db381611a2d565b611dbd8186611d53565b94506001821660008114611dd85760018114611ded57611e20565b60ff1983168652811515820286019350611e20565b611df685611a5e565b60005b83811015611e1857815481890152600182019150602081019050611df9565b838801955050505b50505092915050565b6000611e358284611da6565b91508190509291505056fea26469706673582212207531c8542a23020c3fc7440037e2ff9ae6ceec319c357b227849d22af30a1c7364736f6c63430008110033",
  "linkReferences": {},
  "deployedLinkReferences": {}
}