{
  "_format": "hh-sol-artifact-1",
  "contractName": "Surpay",
  "sourceName": "contracts/Surpay.sol",
  "abi": [
    {
      "inputs": [
        {
          "internalType": "uint256",
          "name": "_surveyCreationFee",
          "type": "uint256"
        },
        {
          "internalType": "uint256",
          "name": "_interval",
          "type": "uint256"
        }
      ],
      "stateMutability": "nonpayable",
      "type": "constructor"
    },
    {
      "inputs": [],
      "name": "Surpay__MaximumRespondantsReached",
      "type": "error"
    },
    {
      "inputs": [],
      "name": "Surpay__NotEnoughFunds",
      "type": "error"
    },
    {
      "inputs": [],
      "name": "Surpay__NotOwner",
      "type": "error"
    },
    {
      "inputs": [],
      "name": "Surpay__SurveyNotFound",
      "type": "error"
    },
    {
      "inputs": [],
      "name": "Surpay__TransferFailed",
      "type": "error"
    },
    {
      "anonymous": false,
      "inputs": [
        {
          "indexed": true,
          "internalType": "string",
          "name": "surveyId",
          "type": "string"
        }
      ],
      "name": "SurveyCompleted",
      "type": "event"
    },
    {
      "anonymous": false,
      "inputs": [
        {
          "indexed": true,
          "internalType": "string",
          "name": "surveyId",
          "type": "string"
        }
      ],
      "name": "SurveyCreated",
      "type": "event"
    },
    {
      "anonymous": false,
      "inputs": [
        {
          "indexed": true,
          "internalType": "string",
          "name": "surveyId",
          "type": "string"
        }
      ],
      "name": "SurveyTakersPaid",
      "type": "event"
    },
    {
      "anonymous": false,
      "inputs": [
        {
          "indexed": true,
          "internalType": "address",
          "name": "surveyTaker",
          "type": "address"
        }
      ],
      "name": "UserAddedToSurvey",
      "type": "event"
    },
    {
      "inputs": [
        {
          "internalType": "bytes",
          "name": "",
          "type": "bytes"
        }
      ],
      "name": "checkUpkeep",
      "outputs": [
        {
          "internalType": "bool",
          "name": "upkeepNeeded",
          "type": "bool"
        },
        {
          "internalType": "bytes",
          "name": "",
          "type": "bytes"
        }
      ],
      "stateMutability": "nonpayable",
      "type": "function"
    },
    {
      "inputs": [
        {
          "internalType": "string",
          "name": "_surveyId",
          "type": "string"
        },
        {
          "internalType": "string",
          "name": "_companyId",
          "type": "string"
        },
        {
          "internalType": "uint256",
          "name": "_totalPayoutAmount",
          "type": "uint256"
        },
        {
          "internalType": "uint256",
          "name": "_numOfParticipantsDesired",
          "type": "uint256"
        }
      ],
      "name": "createSurvey",
      "outputs": [],
      "stateMutability": "payable",
      "type": "function"
    },
    {
      "inputs": [
        {
          "internalType": "string",
          "name": "surveyId",
          "type": "string"
        }
      ],
      "name": "getCompanyId",
      "outputs": [
        {
          "internalType": "string",
          "name": "",
          "type": "string"
        }
      ],
      "stateMutability": "view",
      "type": "function"
    },
    {
      "inputs": [],
      "name": "getInterval",
      "outputs": [
        {
          "internalType": "uint256",
          "name": "",
          "type": "uint256"
        }
      ],
      "stateMutability": "view",
      "type": "function"
    },
    {
      "inputs": [
        {
          "internalType": "string",
          "name": "surveyId",
          "type": "string"
        }
      ],
      "name": "getLastTimeStamp",
      "outputs": [
        {
          "internalType": "uint256",
          "name": "",
          "type": "uint256"
        }
      ],
      "stateMutability": "view",
      "type": "function"
    },
    {
      "inputs": [],
      "name": "getOwner",
      "outputs": [
        {
          "internalType": "address",
          "name": "",
          "type": "address"
        }
      ],
      "stateMutability": "view",
      "type": "function"
    },
    {
      "inputs": [
        {
          "internalType": "string",
          "name": "surveyId",
          "type": "string"
        }
      ],
      "name": "getPayoutPerPersonBySurveyId",
      "outputs": [
        {
          "internalType": "uint256",
          "name": "",
          "type": "uint256"
        }
      ],
      "stateMutability": "view",
      "type": "function"
    },
    {
      "inputs": [],
      "name": "getSurveyCreationFee",
      "outputs": [
        {
          "internalType": "uint256",
          "name": "",
          "type": "uint256"
        }
      ],
      "stateMutability": "view",
      "type": "function"
    },
    {
      "inputs": [
        {
          "internalType": "string",
          "name": "_surveyId",
          "type": "string"
        }
      ],
      "name": "getSurveyPayoutAmount",
      "outputs": [
        {
          "internalType": "uint256",
          "name": "",
          "type": "uint256"
        }
      ],
      "stateMutability": "view",
      "type": "function"
    },
    {
      "inputs": [
        {
          "internalType": "string",
          "name": "surveyId",
          "type": "string"
        },
        {
          "internalType": "uint256",
          "name": "responseIndex",
          "type": "uint256"
        }
      ],
      "name": "getSurveyResponseData",
      "outputs": [
        {
          "internalType": "string",
          "name": "",
          "type": "string"
        }
      ],
      "stateMutability": "view",
      "type": "function"
    },
    {
      "inputs": [
        {
          "internalType": "string",
          "name": "_surveyId",
          "type": "string"
        }
      ],
      "name": "getSurveyState",
      "outputs": [
        {
          "internalType": "enum Surpay.SurveyState",
          "name": "",
          "type": "uint8"
        }
      ],
      "stateMutability": "view",
      "type": "function"
    },
    {
      "inputs": [
        {
          "internalType": "string",
          "name": "surveyId",
          "type": "string"
        },
        {
          "internalType": "uint256",
          "name": "userIndex",
          "type": "uint256"
        }
      ],
      "name": "getSurveyTaker",
      "outputs": [
        {
          "internalType": "address",
          "name": "",
          "type": "address"
        }
      ],
      "stateMutability": "view",
      "type": "function"
    },
    {
      "inputs": [
        {
          "internalType": "bytes",
          "name": "",
          "type": "bytes"
        }
      ],
      "name": "performUpkeep",
      "outputs": [],
      "stateMutability": "nonpayable",
      "type": "function"
    },
    {
      "inputs": [],
      "name": "removeCompletedSurveys",
      "outputs": [],
      "stateMutability": "nonpayable",
      "type": "function"
    },
    {
      "inputs": [
        {
          "internalType": "string",
          "name": "_surveyId",
          "type": "string"
        },
        {
          "internalType": "string",
          "name": "_surveyData",
          "type": "string"
        },
        {
          "internalType": "address",
          "name": "userAddress",
          "type": "address"
        }
      ],
      "name": "sendUserSurveyData",
      "outputs": [],
      "stateMutability": "nonpayable",
      "type": "function"
    }
  ],
  "bytecode": "0x60c06040523480156200001157600080fd5b50604051620024f7380380620024f78339818101604052810190620000379190620000cf565b336000806101000a81548173ffffffffffffffffffffffffffffffffffffffff021916908373ffffffffffffffffffffffffffffffffffffffff16021790555081608081815250508060a08181525050505062000116565b600080fd5b6000819050919050565b620000a98162000094565b8114620000b557600080fd5b50565b600081519050620000c9816200009e565b92915050565b60008060408385031215620000e957620000e86200008f565b5b6000620000f985828601620000b8565b92505060206200010c85828601620000b8565b9150509250929050565b60805160a0516123b4620001436000396000610b9c015260008181610c4d0152610f3501526123b46000f3fe6080604052600436106100e85760003560e01c806391ad27b41161008a578063bab26fd211610059578063bab26fd214610320578063e1744d721461034b578063e74b36df14610388578063eb9992c3146103c5576100e8565b806391ad27b41461025f5780639759ac361461028a578063ac9d6a2b146102c7578063b374ff29146102e3576100e8565b80634585e33b116100c65780634585e33b14610190578063653cba7d146101b95780636e04ff0d146101f6578063893d20e814610234576100e8565b806312998301146100ed57806324405aa91461012a57806324445aeb14610167575b600080fd5b3480156100f957600080fd5b50610114600480360381019061010f9190611916565b6103dc565b60405161012191906119b3565b60405180910390f35b34801561013657600080fd5b50610151600480360381019061014c9190611916565b6104a4565b60405161015e9190611a4d565b60405180910390f35b34801561017357600080fd5b5061018e60048036038101906101899190611a9b565b6105d5565b005b34801561019c57600080fd5b506101b760048036038101906101b29190611b86565b61093a565b005b3480156101c557600080fd5b506101e060048036038101906101db9190611bd3565b610abf565b6040516101ed9190611c2b565b60405180910390f35b34801561020257600080fd5b5061021d60048036038101906102189190611ce7565b610b4a565b60405161022b929190611da0565b60405180910390f35b34801561024057600080fd5b50610249610b6f565b60405161025691906119b3565b60405180910390f35b34801561026b57600080fd5b50610274610b98565b6040516102819190611c2b565b60405180910390f35b34801561029657600080fd5b506102b160048036038101906102ac9190611bd3565b610bc0565b6040516102be9190611c2b565b60405180910390f35b6102e160048036038101906102dc9190611dd0565b610c4b565b005b3480156102ef57600080fd5b5061030a60048036038101906103059190611bd3565b610e99565b6040516103179190611ee6565b60405180910390f35b34801561032c57600080fd5b50610335610f31565b6040516103429190611c2b565b60405180910390f35b34801561035757600080fd5b50610372600480360381019061036d9190611bd3565b610f59565b60405161037f9190611a4d565b60405180910390f35b34801561039457600080fd5b506103af60048036038101906103aa9190611bd3565b61100c565b6040516103bc9190611c2b565b60405180910390f35b3480156103d157600080fd5b506103da6110c3565b005b6000806001846040516103ef9190611f3d565b908152602001604051809103902060030154111561046c576001836040516104179190611f3d565b9081526020016040518091039020600601828154811061043a57610439611f54565b5b9060005260206000200160009054906101000a900473ffffffffffffffffffffffffffffffffffffffff16905061049e565b6040517fb01e933700000000000000000000000000000000000000000000000000000000815260040160405180910390fd5b92915050565b606060006001846040516104b89190611f3d565b908152602001604051809103902060030154111561059d576001836040516104e09190611f3d565b9081526020016040518091039020600501828154811061050357610502611f54565b5b90600052602060002001805461051890611fb2565b80601f016020809104026020016040519081016040528092919081815260200182805461054490611fb2565b80156105915780601f1061056657610100808354040283529160200191610591565b820191906000526020600020905b81548152906001019060200180831161057457829003601f168201915b505050505090506105cf565b6040517fb01e933700000000000000000000000000000000000000000000000000000000815260040160405180910390fd5b92915050565b60008054906101000a900473ffffffffffffffffffffffffffffffffffffffff1673ffffffffffffffffffffffffffffffffffffffff163373ffffffffffffffffffffffffffffffffffffffff161461065a576040517fba34867000000000000000000000000000000000000000000000000000000000815260040160405180910390fd5b60018360405161066a9190611f3d565b90815260200160405180910390206004015460018460405161068c9190611f3d565b9081526020016040518091039020600301541115610903576001836040516106b49190611f3d565b9081526020016040518091039020600501829080600181540180825580915050600190039060005260206000200160009091909190915090816106f7919061218f565b506001836040516107089190611f3d565b9081526020016040518091039020600601819080600181540180825580915050600190039060005260206000200160009091909190916101000a81548173ffffffffffffffffffffffffffffffffffffffff021916908373ffffffffffffffffffffffffffffffffffffffff16021790555060018360405161078a9190611f3d565b908152602001604051809103902060040160008154809291906107ac90612290565b91905055506001836040516107c19190611f3d565b9081526020016040518091039020600401546001846040516107e39190611f3d565b908152602001604051809103902060030154036108bb576001808460405161080b9190611f3d565b908152602001604051809103902060080160006101000a81548160ff0219169083600181111561083e5761083d611e6f565b5b0217905550600283908060018154018082558091505060019003906000526020600020016000909190919091509081610877919061218f565b50826040516108869190611f3d565b60405180910390207fc9629617ac320e57fa622f79c211617de659a3b7cbdda927e47dea5e4c0ab4da60405160405180910390a25b8073ffffffffffffffffffffffffffffffffffffffff167f099cc064944e6569611b439843932fa853d46618d78ca5a8e3989bcc5614853d60405160405180910390a2610935565b6040517f13c8108e00000000000000000000000000000000000000000000000000000000815260040160405180910390fd5b505050565b600061095460405180602001604052806000815250610b4a565b5090508015610aba5760006002805480602002602001604051908101604052809291908181526020016000905b82821015610a2d5783829060005260206000200180546109a090611fb2565b80601f01602080910402602001604051908101604052809291908181526020018280546109cc90611fb2565b8015610a195780601f106109ee57610100808354040283529160200191610a19565b820191906000526020600020905b8154815290600101906020018083116109fc57829003601f168201915b505050505081526020019060010190610981565b50505050905060005b8151811015610ab757610a4881611282565b818181518110610a5b57610a5a611f54565b5b6020026020010151604051610a709190611f3d565b60405180910390207fa7998895d8d2e7856091bd8a5895a54d831c4d6c8bd8a8611ec2c1f873872fef60405160405180910390a28080610aaf90612290565b915050610a36565b50505b505050565b600080600183604051610ad29190611f3d565b9081526020016040518091039020600301541115610b1357600182604051610afa9190611f3d565b9081526020016040518091039020600701549050610b45565b6040517fb01e933700000000000000000000000000000000000000000000000000000000815260040160405180910390fd5b919050565b6000606060006002805490501115610b655760019150610b6a565b600091505b915091565b60008060009054906101000a900473ffffffffffffffffffffffffffffffffffffffff16905090565b60007f0000000000000000000000000000000000000000000000000000000000000000905090565b600080600183604051610bd39190611f3d565b9081526020016040518091039020600301541115610c1457600182604051610bfb9190611f3d565b9081526020016040518091039020600201549050610c46565b6040517fb01e933700000000000000000000000000000000000000000000000000000000815260040160405180910390fd5b919050565b7f0000000000000000000000000000000000000000000000000000000000000000341015610ca5576040517fc09bb52500000000000000000000000000000000000000000000000000000000815260040160405180910390fd5b610cad61156c565b83816000018190525033816020019073ffffffffffffffffffffffffffffffffffffffff16908173ffffffffffffffffffffffffffffffffffffffff16815250508281604001818152505081816060018181525050428160e001818152505060008161010001906001811115610d2657610d25611e6f565b5b90816001811115610d3a57610d39611e6f565b5b8152505080600186604051610d4f9190611f3d565b90815260200160405180910390206000820151816000019081610d72919061218f565b5060208201518160010160006101000a81548173ffffffffffffffffffffffffffffffffffffffff021916908373ffffffffffffffffffffffffffffffffffffffff16021790555060408201518160020155606082015181600301556080820151816004015560a0820151816005019080519060200190610df49291906115e0565b5060c0820151816006019080519060200190610e11929190611639565b5060e082015181600701556101008201518160080160006101000a81548160ff02191690836001811115610e4857610e47611e6f565b5b021790555090505084604051610e5e9190611f3d565b60405180910390207fcc65c6fb1d804ba1dc418f9e3659483d310357279f035d45b8ea484fd6fe4a2f60405160405180910390a25050505050565b600080600183604051610eac9190611f3d565b9081526020016040518091039020600301541115610efa57600182604051610ed49190611f3d565b908152602001604051809103902060080160009054906101000a900460ff169050610f2c565b6040517fb01e933700000000000000000000000000000000000000000000000000000000815260040160405180910390fd5b919050565b60007f0000000000000000000000000000000000000000000000000000000000000000905090565b6060600182604051610f6b9190611f3d565b90815260200160405180910390206000018054610f8790611fb2565b80601f0160208091040260200160405190810160405280929190818152602001828054610fb390611fb2565b80156110005780601f10610fd557610100808354040283529160200191611000565b820191906000526020600020905b815481529060010190602001808311610fe357829003601f168201915b50505050509050919050565b60008060018360405161101f9190611f3d565b908152602001604051809103902060030154111561108c576001826040516110479190611f3d565b9081526020016040518091039020600301546001836040516110699190611f3d565b9081526020016040518091039020600201546110859190612307565b90506110be565b6040517fb01e933700000000000000000000000000000000000000000000000000000000815260040160405180910390fd5b919050565b60006002805480602002602001604051908101604052809291908181526020016000905b8282101561119357838290600052602060002001805461110690611fb2565b80601f016020809104026020016040519081016040528092919081815260200182805461113290611fb2565b801561117f5780601f106111545761010080835404028352916020019161117f565b820191906000526020600020905b81548152906001019060200180831161116257829003601f168201915b5050505050815260200190600101906110e7565b50505050905060005b815181101561127e5760018282815181106111ba576111b9611f54565b5b60200260200101516040516111cf9190611f3d565b9081526020016040518091039020600080820160006111ee91906116c3565b6001820160006101000a81549073ffffffffffffffffffffffffffffffffffffffff021916905560028201600090556003820160009055600482016000905560058201600061123d9190611703565b60068201600061124d9190611724565b60078201600090556008820160006101000a81549060ff02191690555050808061127690612290565b91505061119c565b5050565b60006002805480602002602001604051908101604052809291908181526020016000905b828210156113525783829060005260206000200180546112c590611fb2565b80601f01602080910402602001604051908101604052809291908181526020018280546112f190611fb2565b801561133e5780601f106113135761010080835404028352916020019161133e565b820191906000526020600020905b81548152906001019060200180831161132157829003601f168201915b5050505050815260200190600101906112a6565b5050505090506000600182848151811061136f5761136e611f54565b5b60200260200101516040516113849190611f3d565b90815260200160405180910390206004015460018385815181106113ab576113aa611f54565b5b60200260200101516040516113c09190611f3d565b9081526020016040518091039020600201546113dc9190612307565b905060005b60018385815181106113f6576113f5611f54565b5b602002602001015160405161140b9190611f3d565b90815260200160405180910390206006018054905081101561155e574782101561154b576000600184868151811061144657611445611f54565b5b602002602001015160405161145b9190611f3d565b9081526020016040518091039020600601828154811061147e5761147d611f54565b5b9060005260206000200160009054906101000a900473ffffffffffffffffffffffffffffffffffffffff1673ffffffffffffffffffffffffffffffffffffffff16836040516114cc90612369565b60006040518083038185875af1925050503d8060008114611509576040519150601f19603f3d011682016040523d82523d6000602084013e61150e565b606091505b5050905080611549576040517f09e6a19a00000000000000000000000000000000000000000000000000000000815260040160405180910390fd5b505b808061155690612290565b9150506113e1565b506115676110c3565b505050565b60405180610120016040528060608152602001600073ffffffffffffffffffffffffffffffffffffffff168152602001600081526020016000815260200160008152602001606081526020016060815260200160008152602001600060018111156115da576115d9611e6f565b5b81525090565b828054828255906000526020600020908101928215611628579160200282015b82811115611627578251829081611617919061218f565b5091602001919060010190611600565b5b5090506116359190611745565b5090565b8280548282559060005260206000209081019282156116b2579160200282015b828111156116b15782518260006101000a81548173ffffffffffffffffffffffffffffffffffffffff021916908373ffffffffffffffffffffffffffffffffffffffff16021790555091602001919060010190611659565b5b5090506116bf9190611769565b5090565b5080546116cf90611fb2565b6000825580601f106116e15750611700565b601f0160209004906000526020600020908101906116ff9190611769565b5b50565b50805460008255906000526020600020908101906117219190611745565b50565b50805460008255906000526020600020908101906117429190611769565b50565b5b80821115611765576000818161175c91906116c3565b50600101611746565b5090565b5b8082111561178257600081600090555060010161176a565b5090565b6000604051905090565b600080fd5b600080fd5b600080fd5b600080fd5b6000601f19601f8301169050919050565b7f4e487b7100000000000000000000000000000000000000000000000000000000600052604160045260246000fd5b6117ed826117a4565b810181811067ffffffffffffffff8211171561180c5761180b6117b5565b5b80604052505050565b600061181f611786565b905061182b82826117e4565b919050565b600067ffffffffffffffff82111561184b5761184a6117b5565b5b611854826117a4565b9050602081019050919050565b82818337600083830152505050565b600061188361187e84611830565b611815565b90508281526020810184848401111561189f5761189e61179f565b5b6118aa848285611861565b509392505050565b600082601f8301126118c7576118c661179a565b5b81356118d7848260208601611870565b91505092915050565b6000819050919050565b6118f3816118e0565b81146118fe57600080fd5b50565b600081359050611910816118ea565b92915050565b6000806040838503121561192d5761192c611790565b5b600083013567ffffffffffffffff81111561194b5761194a611795565b5b611957858286016118b2565b925050602061196885828601611901565b9150509250929050565b600073ffffffffffffffffffffffffffffffffffffffff82169050919050565b600061199d82611972565b9050919050565b6119ad81611992565b82525050565b60006020820190506119c860008301846119a4565b92915050565b600081519050919050565b600082825260208201905092915050565b60005b83811015611a085780820151818401526020810190506119ed565b60008484015250505050565b6000611a1f826119ce565b611a2981856119d9565b9350611a398185602086016119ea565b611a42816117a4565b840191505092915050565b60006020820190508181036000830152611a678184611a14565b905092915050565b611a7881611992565b8114611a8357600080fd5b50565b600081359050611a9581611a6f565b92915050565b600080600060608486031215611ab457611ab3611790565b5b600084013567ffffffffffffffff811115611ad257611ad1611795565b5b611ade868287016118b2565b935050602084013567ffffffffffffffff811115611aff57611afe611795565b5b611b0b868287016118b2565b9250506040611b1c86828701611a86565b9150509250925092565b600080fd5b600080fd5b60008083601f840112611b4657611b4561179a565b5b8235905067ffffffffffffffff811115611b6357611b62611b26565b5b602083019150836001820283011115611b7f57611b7e611b2b565b5b9250929050565b60008060208385031215611b9d57611b9c611790565b5b600083013567ffffffffffffffff811115611bbb57611bba611795565b5b611bc785828601611b30565b92509250509250929050565b600060208284031215611be957611be8611790565b5b600082013567ffffffffffffffff811115611c0757611c06611795565b5b611c13848285016118b2565b91505092915050565b611c25816118e0565b82525050565b6000602082019050611c406000830184611c1c565b92915050565b600067ffffffffffffffff821115611c6157611c606117b5565b5b611c6a826117a4565b9050602081019050919050565b6000611c8a611c8584611c46565b611815565b905082815260208101848484011115611ca657611ca561179f565b5b611cb1848285611861565b509392505050565b600082601f830112611cce57611ccd61179a565b5b8135611cde848260208601611c77565b91505092915050565b600060208284031215611cfd57611cfc611790565b5b600082013567ffffffffffffffff811115611d1b57611d1a611795565b5b611d2784828501611cb9565b91505092915050565b60008115159050919050565b611d4581611d30565b82525050565b600081519050919050565b600082825260208201905092915050565b6000611d7282611d4b565b611d7c8185611d56565b9350611d8c8185602086016119ea565b611d95816117a4565b840191505092915050565b6000604082019050611db56000830185611d3c565b8181036020830152611dc78184611d67565b90509392505050565b60008060008060808587031215611dea57611de9611790565b5b600085013567ffffffffffffffff811115611e0857611e07611795565b5b611e14878288016118b2565b945050602085013567ffffffffffffffff811115611e3557611e34611795565b5b611e41878288016118b2565b9350506040611e5287828801611901565b9250506060611e6387828801611901565b91505092959194509250565b7f4e487b7100000000000000000000000000000000000000000000000000000000600052602160045260246000fd5b60028110611eaf57611eae611e6f565b5b50565b6000819050611ec082611e9e565b919050565b6000611ed082611eb2565b9050919050565b611ee081611ec5565b82525050565b6000602082019050611efb6000830184611ed7565b92915050565b600081905092915050565b6000611f17826119ce565b611f218185611f01565b9350611f318185602086016119ea565b80840191505092915050565b6000611f498284611f0c565b915081905092915050565b7f4e487b7100000000000000000000000000000000000000000000000000000000600052603260045260246000fd5b7f4e487b7100000000000000000000000000000000000000000000000000000000600052602260045260246000fd5b60006002820490506001821680611fca57607f821691505b602082108103611fdd57611fdc611f83565b5b50919050565b60008190508160005260206000209050919050565b60006020601f8301049050919050565b600082821b905092915050565b6000600883026120457fffffffffffffffffffffffffffffffffffffffffffffffffffffffffffffffff82612008565b61204f8683612008565b95508019841693508086168417925050509392505050565b6000819050919050565b600061208c612087612082846118e0565b612067565b6118e0565b9050919050565b6000819050919050565b6120a683612071565b6120ba6120b282612093565b848454612015565b825550505050565b600090565b6120cf6120c2565b6120da81848461209d565b505050565b5b818110156120fe576120f36000826120c7565b6001810190506120e0565b5050565b601f8211156121435761211481611fe3565b61211d84611ff8565b8101602085101561212c578190505b61214061213885611ff8565b8301826120df565b50505b505050565b600082821c905092915050565b600061216660001984600802612148565b1980831691505092915050565b600061217f8383612155565b9150826002028217905092915050565b612198826119ce565b67ffffffffffffffff8111156121b1576121b06117b5565b5b6121bb8254611fb2565b6121c6828285612102565b600060209050601f8311600181146121f957600084156121e7578287015190505b6121f18582612173565b865550612259565b601f19841661220786611fe3565b60005b8281101561222f5784890151825560018201915060208501945060208101905061220a565b8683101561224c5784890151612248601f891682612155565b8355505b6001600288020188555050505b505050505050565b7f4e487b7100000000000000000000000000000000000000000000000000000000600052601160045260246000fd5b600061229b826118e0565b91507fffffffffffffffffffffffffffffffffffffffffffffffffffffffffffffffff82036122cd576122cc612261565b5b600182019050919050565b7f4e487b7100000000000000000000000000000000000000000000000000000000600052601260045260246000fd5b6000612312826118e0565b915061231d836118e0565b92508261232d5761232c6122d8565b5b828204905092915050565b600081905092915050565b50565b6000612353600083612338565b915061235e82612343565b600082019050919050565b600061237482612346565b915081905091905056fea26469706673582212209a4d0102332c61808f65ea8967f381cd4563894743e6648070d72a26903e055964736f6c63430008110033",
  "linkReferences": {},
  "deployedLinkReferences": {}
}