{
  "_format": "hh-sol-artifact-1",
  "contractName": "Surpay",
  "sourceName": "contracts/Surpay.sol",
  "abi": [
    {
      "inputs": [
        {
          "internalType": "uint256",
          "name": "_surveyCreationFee",
          "type": "uint256"
        },
        {
          "internalType": "uint256",
          "name": "_interval",
          "type": "uint256"
        }
      ],
      "stateMutability": "nonpayable",
      "type": "constructor"
    },
    {
      "inputs": [],
      "name": "Surpay__MaximumRespondantsReached",
      "type": "error"
    },
    {
      "inputs": [],
      "name": "Surpay__NotEnoughFunds",
      "type": "error"
    },
    {
      "inputs": [],
      "name": "Surpay__NotOwner",
      "type": "error"
    },
    {
      "inputs": [],
      "name": "Surpay__SurveyNotFound",
      "type": "error"
    },
    {
      "inputs": [],
      "name": "Surpay__TransferFailed",
      "type": "error"
    },
    {
      "inputs": [],
      "name": "Surpay__UpkeepNotNeeded",
      "type": "error"
    },
    {
      "anonymous": false,
      "inputs": [
        {
          "indexed": true,
          "internalType": "string",
          "name": "surveyId",
          "type": "string"
        }
      ],
      "name": "SurveyCompleted",
      "type": "event"
    },
    {
      "anonymous": false,
      "inputs": [
        {
          "indexed": true,
          "internalType": "string",
          "name": "surveyId",
          "type": "string"
        }
      ],
      "name": "SurveyCreated",
      "type": "event"
    },
    {
      "anonymous": false,
      "inputs": [
        {
          "indexed": true,
          "internalType": "string",
          "name": "surveyId",
          "type": "string"
        }
      ],
      "name": "SurveyTakersPaid",
      "type": "event"
    },
    {
      "anonymous": false,
      "inputs": [
        {
          "indexed": true,
          "internalType": "address",
          "name": "surveyTaker",
          "type": "address"
        }
      ],
      "name": "UserAddedToSurvey",
      "type": "event"
    },
    {
      "inputs": [
        {
          "internalType": "bytes",
          "name": "",
          "type": "bytes"
        }
      ],
      "name": "checkUpkeep",
      "outputs": [
        {
          "internalType": "bool",
          "name": "upkeepNeeded",
          "type": "bool"
        },
        {
          "internalType": "bytes",
          "name": "",
          "type": "bytes"
        }
      ],
      "stateMutability": "nonpayable",
      "type": "function"
    },
    {
      "inputs": [
        {
          "internalType": "string",
          "name": "_surveyId",
          "type": "string"
        },
        {
          "internalType": "string",
          "name": "_companyId",
          "type": "string"
        },
        {
          "internalType": "uint256",
          "name": "_totalPayoutAmount",
          "type": "uint256"
        },
        {
          "internalType": "uint256",
          "name": "_numOfParticipantsDesired",
          "type": "uint256"
        }
      ],
      "name": "createSurvey",
      "outputs": [],
      "stateMutability": "payable",
      "type": "function"
    },
    {
      "inputs": [
        {
          "internalType": "uint256",
          "name": "index",
          "type": "uint256"
        }
      ],
      "name": "distributeFundsFromCompletedSurvey",
      "outputs": [],
      "stateMutability": "nonpayable",
      "type": "function"
    },
    {
      "inputs": [
        {
          "internalType": "string",
          "name": "surveyId",
          "type": "string"
        }
      ],
      "name": "getAllSurveyResponseData",
      "outputs": [
        {
          "internalType": "string[]",
          "name": "",
          "type": "string[]"
        }
      ],
      "stateMutability": "view",
      "type": "function"
    },
    {
      "inputs": [
        {
          "internalType": "string",
          "name": "surveyId",
          "type": "string"
        }
      ],
      "name": "getCompanyId",
      "outputs": [
        {
          "internalType": "string",
          "name": "",
          "type": "string"
        }
      ],
      "stateMutability": "view",
      "type": "function"
    },
    {
      "inputs": [],
      "name": "getInterval",
      "outputs": [
        {
          "internalType": "uint256",
          "name": "",
          "type": "uint256"
        }
      ],
      "stateMutability": "view",
      "type": "function"
    },
    {
      "inputs": [
        {
          "internalType": "string",
          "name": "surveyId",
          "type": "string"
        }
      ],
      "name": "getLastTimeStamp",
      "outputs": [
        {
          "internalType": "uint256",
          "name": "",
          "type": "uint256"
        }
      ],
      "stateMutability": "view",
      "type": "function"
    },
    {
      "inputs": [],
      "name": "getOwner",
      "outputs": [
        {
          "internalType": "address",
          "name": "",
          "type": "address"
        }
      ],
      "stateMutability": "view",
      "type": "function"
    },
    {
      "inputs": [
        {
          "internalType": "string",
          "name": "surveyId",
          "type": "string"
        }
      ],
      "name": "getPayoutPerPersonBySurveyId",
      "outputs": [
        {
          "internalType": "uint256",
          "name": "",
          "type": "uint256"
        }
      ],
      "stateMutability": "view",
      "type": "function"
    },
    {
      "inputs": [],
      "name": "getSurveyCreationFee",
      "outputs": [
        {
          "internalType": "uint256",
          "name": "",
          "type": "uint256"
        }
      ],
      "stateMutability": "view",
      "type": "function"
    },
    {
      "inputs": [
        {
          "internalType": "string",
          "name": "_surveyId",
          "type": "string"
        }
      ],
      "name": "getSurveyPayoutAmount",
      "outputs": [
        {
          "internalType": "uint256",
          "name": "",
          "type": "uint256"
        }
      ],
      "stateMutability": "view",
      "type": "function"
    },
    {
      "inputs": [
        {
          "internalType": "string",
          "name": "surveyId",
          "type": "string"
        },
        {
          "internalType": "uint256",
          "name": "responseIndex",
          "type": "uint256"
        }
      ],
      "name": "getSurveyResponseData",
      "outputs": [
        {
          "internalType": "string",
          "name": "",
          "type": "string"
        }
      ],
      "stateMutability": "view",
      "type": "function"
    },
    {
      "inputs": [
        {
          "internalType": "string",
          "name": "_surveyId",
          "type": "string"
        }
      ],
      "name": "getSurveyState",
      "outputs": [
        {
          "internalType": "enum Surpay.SurveyState",
          "name": "",
          "type": "uint8"
        }
      ],
      "stateMutability": "view",
      "type": "function"
    },
    {
      "inputs": [
        {
          "internalType": "string",
          "name": "surveyId",
          "type": "string"
        },
        {
          "internalType": "uint256",
          "name": "userIndex",
          "type": "uint256"
        }
      ],
      "name": "getSurveyTaker",
      "outputs": [
        {
          "internalType": "address",
          "name": "",
          "type": "address"
        }
      ],
      "stateMutability": "view",
      "type": "function"
    },
    {
      "inputs": [
        {
          "internalType": "bytes",
          "name": "",
          "type": "bytes"
        }
      ],
      "name": "performUpkeep",
      "outputs": [],
      "stateMutability": "nonpayable",
      "type": "function"
    },
    {
      "inputs": [],
      "name": "removeCompletedSurveys",
      "outputs": [],
      "stateMutability": "nonpayable",
      "type": "function"
    },
    {
      "inputs": [
        {
          "internalType": "string",
          "name": "_surveyId",
          "type": "string"
        },
        {
          "internalType": "string",
          "name": "_surveyData",
          "type": "string"
        },
        {
          "internalType": "address",
          "name": "userAddress",
          "type": "address"
        }
      ],
      "name": "sendUserSurveyData",
      "outputs": [],
      "stateMutability": "nonpayable",
      "type": "function"
    }
  ],
  "bytecode": "0x60c06040523480156200001157600080fd5b506040516200291b3803806200291b8339818101604052810190620000379190620000cf565b336000806101000a81548173ffffffffffffffffffffffffffffffffffffffff021916908373ffffffffffffffffffffffffffffffffffffffff16021790555081608081815250508060a08181525050505062000116565b600080fd5b6000819050919050565b620000a98162000094565b8114620000b557600080fd5b50565b600081519050620000c9816200009e565b92915050565b60008060408385031215620000e957620000e86200008f565b5b6000620000f985828601620000b8565b92505060206200010c85828601620000b8565b9150509250929050565b60805160a0516127d8620001436000396000610da9015260008181610e5b015261114d01526127d86000f3fe6080604052600436106100fe5760003560e01c806391ad27b411610095578063bab26fd211610064578063bab26fd214610373578063c3b9a2c81461039e578063e1744d72146103c7578063e74b36df14610404578063eb9992c314610441576100fe565b806391ad27b4146102b25780639759ac36146102dd578063ac9d6a2b1461031a578063b374ff2914610336576100fe565b806350597f8a116100d157806350597f8a146101cf578063653cba7d1461020c5780636e04ff0d14610249578063893d20e814610287576100fe565b8063129983011461010357806324405aa91461014057806324445aeb1461017d5780634585e33b146101a6575b600080fd5b34801561010f57600080fd5b5061012a60048036038101906101259190611bab565b610458565b6040516101379190611c48565b60405180910390f35b34801561014c57600080fd5b5061016760048036038101906101629190611bab565b610520565b6040516101749190611ce2565b60405180910390f35b34801561018957600080fd5b506101a4600480360381019061019f9190611d30565b610651565b005b3480156101b257600080fd5b506101cd60048036038101906101c89190611e1b565b6109b6565b005b3480156101db57600080fd5b506101f660048036038101906101f19190611e68565b610b71565b6040516102039190611fbd565b60405180910390f35b34801561021857600080fd5b50610233600480360381019061022e9190611e68565b610ccc565b6040516102409190611fee565b60405180910390f35b34801561025557600080fd5b50610270600480360381019061026b91906120aa565b610d57565b60405161027e929190612163565b60405180910390f35b34801561029357600080fd5b5061029c610d7c565b6040516102a99190611c48565b60405180910390f35b3480156102be57600080fd5b506102c7610da5565b6040516102d49190611fee565b60405180910390f35b3480156102e957600080fd5b5061030460048036038101906102ff9190611e68565b610dcd565b6040516103119190611fee565b60405180910390f35b610334600480360381019061032f9190612193565b610e58565b005b34801561034257600080fd5b5061035d60048036038101906103589190611e68565b6110b1565b60405161036a91906122a9565b60405180910390f35b34801561037f57600080fd5b50610388611149565b6040516103959190611fee565b60405180910390f35b3480156103aa57600080fd5b506103c560048036038101906103c091906122c4565b611171565b005b3480156103d357600080fd5b506103ee60048036038101906103e99190611e68565b611453565b6040516103fb9190611ce2565b60405180910390f35b34801561041057600080fd5b5061042b60048036038101906104269190611e68565b611506565b6040516104389190611fee565b60405180910390f35b34801561044d57600080fd5b506104566115bd565b005b60008060018460405161046b919061232d565b90815260200160405180910390206003015411156104e857600183604051610493919061232d565b908152602001604051809103902060060182815481106104b6576104b5612344565b5b9060005260206000200160009054906101000a900473ffffffffffffffffffffffffffffffffffffffff16905061051a565b6040517fb01e933700000000000000000000000000000000000000000000000000000000815260040160405180910390fd5b92915050565b60606000600184604051610534919061232d565b90815260200160405180910390206003015411156106195760018360405161055c919061232d565b9081526020016040518091039020600501828154811061057f5761057e612344565b5b906000526020600020018054610594906123a2565b80601f01602080910402602001604051908101604052809291908181526020018280546105c0906123a2565b801561060d5780601f106105e25761010080835404028352916020019161060d565b820191906000526020600020905b8154815290600101906020018083116105f057829003601f168201915b5050505050905061064b565b6040517fb01e933700000000000000000000000000000000000000000000000000000000815260040160405180910390fd5b92915050565b60008054906101000a900473ffffffffffffffffffffffffffffffffffffffff1673ffffffffffffffffffffffffffffffffffffffff163373ffffffffffffffffffffffffffffffffffffffff16146106d6576040517fba34867000000000000000000000000000000000000000000000000000000000815260040160405180910390fd5b6001836040516106e6919061232d565b908152602001604051809103902060040154600184604051610708919061232d565b908152602001604051809103902060030154111561097f57600183604051610730919061232d565b908152602001604051809103902060050182908060018154018082558091505060019003906000526020600020016000909190919091509081610773919061257f565b50600183604051610784919061232d565b9081526020016040518091039020600601819080600181540180825580915050600190039060005260206000200160009091909190916101000a81548173ffffffffffffffffffffffffffffffffffffffff021916908373ffffffffffffffffffffffffffffffffffffffff160217905550600183604051610806919061232d565b9081526020016040518091039020600401600081548092919061082890612680565b919050555060018360405161083d919061232d565b90815260200160405180910390206004015460018460405161085f919061232d565b908152602001604051809103902060030154036109375760018084604051610887919061232d565b908152602001604051809103902060080160006101000a81548160ff021916908360018111156108ba576108b9612232565b5b02179055506002839080600181540180825580915050600190039060005260206000200160009091909190915090816108f3919061257f565b5082604051610902919061232d565b60405180910390207fc9629617ac320e57fa622f79c211617de659a3b7cbdda927e47dea5e4c0ab4da60405160405180910390a25b8073ffffffffffffffffffffffffffffffffffffffff167f099cc064944e6569611b439843932fa853d46618d78ca5a8e3989bcc5614853d60405160405180910390a26109b1565b6040517f13c8108e00000000000000000000000000000000000000000000000000000000815260040160405180910390fd5b505050565b60006109d060405180602001604052806000815250610d57565b5090508015610b3a5760006002805480602002602001604051908101604052809291908181526020016000905b82821015610aa9578382906000526020600020018054610a1c906123a2565b80601f0160208091040260200160405190810160405280929190818152602001828054610a48906123a2565b8015610a955780601f10610a6a57610100808354040283529160200191610a95565b820191906000526020600020905b815481529060010190602001808311610a7857829003601f168201915b5050505050815260200190600101906109fd565b50505050905060005b8151811015610b3357610ac481611171565b818181518110610ad757610ad6612344565b5b6020026020010151604051610aec919061232d565b60405180910390207fa7998895d8d2e7856091bd8a5895a54d831c4d6c8bd8a8611ec2c1f873872fef60405160405180910390a28080610b2b90612680565b915050610ab2565b5050610b6c565b6040517fe47d1a5100000000000000000000000000000000000000000000000000000000815260040160405180910390fd5b505050565b60606000600183604051610b85919061232d565b9081526020016040518091039020600301541115610c9557600182604051610bad919061232d565b9081526020016040518091039020600501805480602002602001604051908101604052809291908181526020016000905b82821015610c8a578382906000526020600020018054610bfd906123a2565b80601f0160208091040260200160405190810160405280929190818152602001828054610c29906123a2565b8015610c765780601f10610c4b57610100808354040283529160200191610c76565b820191906000526020600020905b815481529060010190602001808311610c5957829003601f168201915b505050505081526020019060010190610bde565b505050509050610cc7565b6040517fb01e933700000000000000000000000000000000000000000000000000000000815260040160405180910390fd5b919050565b600080600183604051610cdf919061232d565b9081526020016040518091039020600301541115610d2057600182604051610d07919061232d565b9081526020016040518091039020600701549050610d52565b6040517fb01e933700000000000000000000000000000000000000000000000000000000815260040160405180910390fd5b919050565b6000606060006002805490501115610d725760019150610d77565b600091505b915091565b60008060009054906101000a900473ffffffffffffffffffffffffffffffffffffffff16905090565b60007f0000000000000000000000000000000000000000000000000000000000000000905090565b600080600183604051610de0919061232d565b9081526020016040518091039020600301541115610e2157600182604051610e08919061232d565b9081526020016040518091039020600201549050610e53565b6040517fb01e933700000000000000000000000000000000000000000000000000000000815260040160405180910390fd5b919050565b817f0000000000000000000000000000000000000000000000000000000000000000610e8491906126c8565b341015610ebd576040517fc09bb52500000000000000000000000000000000000000000000000000000000815260040160405180910390fd5b610ec5611801565b83816000018190525033816020019073ffffffffffffffffffffffffffffffffffffffff16908173ffffffffffffffffffffffffffffffffffffffff16815250508281604001818152505081816060018181525050428160e001818152505060008161010001906001811115610f3e57610f3d612232565b5b90816001811115610f5257610f51612232565b5b8152505080600186604051610f67919061232d565b90815260200160405180910390206000820151816000019081610f8a919061257f565b5060208201518160010160006101000a81548173ffffffffffffffffffffffffffffffffffffffff021916908373ffffffffffffffffffffffffffffffffffffffff16021790555060408201518160020155606082015181600301556080820151816004015560a082015181600501908051906020019061100c929190611875565b5060c08201518160060190805190602001906110299291906118ce565b5060e082015181600701556101008201518160080160006101000a81548160ff021916908360018111156110605761105f612232565b5b021790555090505084604051611076919061232d565b60405180910390207fcc65c6fb1d804ba1dc418f9e3659483d310357279f035d45b8ea484fd6fe4a2f60405160405180910390a25050505050565b6000806001836040516110c4919061232d565b9081526020016040518091039020600301541115611112576001826040516110ec919061232d565b908152602001604051809103902060080160009054906101000a900460ff169050611144565b6040517fb01e933700000000000000000000000000000000000000000000000000000000815260040160405180910390fd5b919050565b60007f0000000000000000000000000000000000000000000000000000000000000000905090565b60006002805480602002602001604051908101604052809291908181526020016000905b828210156112415783829060005260206000200180546111b4906123a2565b80601f01602080910402602001604051908101604052809291908181526020018280546111e0906123a2565b801561122d5780601f106112025761010080835404028352916020019161122d565b820191906000526020600020905b81548152906001019060200180831161121057829003601f168201915b505050505081526020019060010190611195565b5050505090506000600182848151811061125e5761125d612344565b5b6020026020010151604051611273919061232d565b908152602001604051809103902060040154600183858151811061129a57611299612344565b5b60200260200101516040516112af919061232d565b9081526020016040518091039020600201546112cb919061272b565b905060005b60018385815181106112e5576112e4612344565b5b60200260200101516040516112fa919061232d565b90815260200160405180910390206006018054905081101561144d574782101561143a576000600184868151811061133557611334612344565b5b602002602001015160405161134a919061232d565b9081526020016040518091039020600601828154811061136d5761136c612344565b5b9060005260206000200160009054906101000a900473ffffffffffffffffffffffffffffffffffffffff1673ffffffffffffffffffffffffffffffffffffffff16836040516113bb9061278d565b60006040518083038185875af1925050503d80600081146113f8576040519150601f19603f3d011682016040523d82523d6000602084013e6113fd565b606091505b5050905080611438576040517f09e6a19a00000000000000000000000000000000000000000000000000000000815260040160405180910390fd5b505b808061144590612680565b9150506112d0565b50505050565b6060600182604051611465919061232d565b90815260200160405180910390206000018054611481906123a2565b80601f01602080910402602001604051908101604052809291908181526020018280546114ad906123a2565b80156114fa5780601f106114cf576101008083540402835291602001916114fa565b820191906000526020600020905b8154815290600101906020018083116114dd57829003601f168201915b50505050509050919050565b600080600183604051611519919061232d565b908152602001604051809103902060030154111561158657600182604051611541919061232d565b908152602001604051809103902060030154600183604051611563919061232d565b90815260200160405180910390206002015461157f919061272b565b90506115b8565b6040517fb01e933700000000000000000000000000000000000000000000000000000000815260040160405180910390fd5b919050565b60008054906101000a900473ffffffffffffffffffffffffffffffffffffffff1673ffffffffffffffffffffffffffffffffffffffff163373ffffffffffffffffffffffffffffffffffffffff1614611642576040517fba34867000000000000000000000000000000000000000000000000000000000815260040160405180910390fd5b60006002805480602002602001604051908101604052809291908181526020016000905b82821015611712578382906000526020600020018054611685906123a2565b80601f01602080910402602001604051908101604052809291908181526020018280546116b1906123a2565b80156116fe5780601f106116d3576101008083540402835291602001916116fe565b820191906000526020600020905b8154815290600101906020018083116116e157829003601f168201915b505050505081526020019060010190611666565b50505050905060005b81518110156117fd57600182828151811061173957611738612344565b5b602002602001015160405161174e919061232d565b90815260200160405180910390206000808201600061176d9190611958565b6001820160006101000a81549073ffffffffffffffffffffffffffffffffffffffff02191690556002820160009055600382016000905560048201600090556005820160006117bc9190611998565b6006820160006117cc91906119b9565b60078201600090556008820160006101000a81549060ff0219169055505080806117f590612680565b91505061171b565b5050565b60405180610120016040528060608152602001600073ffffffffffffffffffffffffffffffffffffffff1681526020016000815260200160008152602001600081526020016060815260200160608152602001600081526020016000600181111561186f5761186e612232565b5b81525090565b8280548282559060005260206000209081019282156118bd579160200282015b828111156118bc5782518290816118ac919061257f565b5091602001919060010190611895565b5b5090506118ca91906119da565b5090565b828054828255906000526020600020908101928215611947579160200282015b828111156119465782518260006101000a81548173ffffffffffffffffffffffffffffffffffffffff021916908373ffffffffffffffffffffffffffffffffffffffff160217905550916020019190600101906118ee565b5b50905061195491906119fe565b5090565b508054611964906123a2565b6000825580601f106119765750611995565b601f01602090049060005260206000209081019061199491906119fe565b5b50565b50805460008255906000526020600020908101906119b691906119da565b50565b50805460008255906000526020600020908101906119d791906119fe565b50565b5b808211156119fa57600081816119f19190611958565b506001016119db565b5090565b5b80821115611a175760008160009055506001016119ff565b5090565b6000604051905090565b600080fd5b600080fd5b600080fd5b600080fd5b6000601f19601f8301169050919050565b7f4e487b7100000000000000000000000000000000000000000000000000000000600052604160045260246000fd5b611a8282611a39565b810181811067ffffffffffffffff82111715611aa157611aa0611a4a565b5b80604052505050565b6000611ab4611a1b565b9050611ac08282611a79565b919050565b600067ffffffffffffffff821115611ae057611adf611a4a565b5b611ae982611a39565b9050602081019050919050565b82818337600083830152505050565b6000611b18611b1384611ac5565b611aaa565b905082815260208101848484011115611b3457611b33611a34565b5b611b3f848285611af6565b509392505050565b600082601f830112611b5c57611b5b611a2f565b5b8135611b6c848260208601611b05565b91505092915050565b6000819050919050565b611b8881611b75565b8114611b9357600080fd5b50565b600081359050611ba581611b7f565b92915050565b60008060408385031215611bc257611bc1611a25565b5b600083013567ffffffffffffffff811115611be057611bdf611a2a565b5b611bec85828601611b47565b9250506020611bfd85828601611b96565b9150509250929050565b600073ffffffffffffffffffffffffffffffffffffffff82169050919050565b6000611c3282611c07565b9050919050565b611c4281611c27565b82525050565b6000602082019050611c5d6000830184611c39565b92915050565b600081519050919050565b600082825260208201905092915050565b60005b83811015611c9d578082015181840152602081019050611c82565b60008484015250505050565b6000611cb482611c63565b611cbe8185611c6e565b9350611cce818560208601611c7f565b611cd781611a39565b840191505092915050565b60006020820190508181036000830152611cfc8184611ca9565b905092915050565b611d0d81611c27565b8114611d1857600080fd5b50565b600081359050611d2a81611d04565b92915050565b600080600060608486031215611d4957611d48611a25565b5b600084013567ffffffffffffffff811115611d6757611d66611a2a565b5b611d7386828701611b47565b935050602084013567ffffffffffffffff811115611d9457611d93611a2a565b5b611da086828701611b47565b9250506040611db186828701611d1b565b9150509250925092565b600080fd5b600080fd5b60008083601f840112611ddb57611dda611a2f565b5b8235905067ffffffffffffffff811115611df857611df7611dbb565b5b602083019150836001820283011115611e1457611e13611dc0565b5b9250929050565b60008060208385031215611e3257611e31611a25565b5b600083013567ffffffffffffffff811115611e5057611e4f611a2a565b5b611e5c85828601611dc5565b92509250509250929050565b600060208284031215611e7e57611e7d611a25565b5b600082013567ffffffffffffffff811115611e9c57611e9b611a2a565b5b611ea884828501611b47565b91505092915050565b600081519050919050565b600082825260208201905092915050565b6000819050602082019050919050565b600082825260208201905092915050565b6000611ef982611c63565b611f038185611edd565b9350611f13818560208601611c7f565b611f1c81611a39565b840191505092915050565b6000611f338383611eee565b905092915050565b6000602082019050919050565b6000611f5382611eb1565b611f5d8185611ebc565b935083602082028501611f6f85611ecd565b8060005b85811015611fab5784840389528151611f8c8582611f27565b9450611f9783611f3b565b925060208a01995050600181019050611f73565b50829750879550505050505092915050565b60006020820190508181036000830152611fd78184611f48565b905092915050565b611fe881611b75565b82525050565b60006020820190506120036000830184611fdf565b92915050565b600067ffffffffffffffff82111561202457612023611a4a565b5b61202d82611a39565b9050602081019050919050565b600061204d61204884612009565b611aaa565b90508281526020810184848401111561206957612068611a34565b5b612074848285611af6565b509392505050565b600082601f83011261209157612090611a2f565b5b81356120a184826020860161203a565b91505092915050565b6000602082840312156120c0576120bf611a25565b5b600082013567ffffffffffffffff8111156120de576120dd611a2a565b5b6120ea8482850161207c565b91505092915050565b60008115159050919050565b612108816120f3565b82525050565b600081519050919050565b600082825260208201905092915050565b60006121358261210e565b61213f8185612119565b935061214f818560208601611c7f565b61215881611a39565b840191505092915050565b600060408201905061217860008301856120ff565b818103602083015261218a818461212a565b90509392505050565b600080600080608085870312156121ad576121ac611a25565b5b600085013567ffffffffffffffff8111156121cb576121ca611a2a565b5b6121d787828801611b47565b945050602085013567ffffffffffffffff8111156121f8576121f7611a2a565b5b61220487828801611b47565b935050604061221587828801611b96565b925050606061222687828801611b96565b91505092959194509250565b7f4e487b7100000000000000000000000000000000000000000000000000000000600052602160045260246000fd5b6002811061227257612271612232565b5b50565b600081905061228382612261565b919050565b600061229382612275565b9050919050565b6122a381612288565b82525050565b60006020820190506122be600083018461229a565b92915050565b6000602082840312156122da576122d9611a25565b5b60006122e884828501611b96565b91505092915050565b600081905092915050565b600061230782611c63565b61231181856122f1565b9350612321818560208601611c7f565b80840191505092915050565b600061233982846122fc565b915081905092915050565b7f4e487b7100000000000000000000000000000000000000000000000000000000600052603260045260246000fd5b7f4e487b7100000000000000000000000000000000000000000000000000000000600052602260045260246000fd5b600060028204905060018216806123ba57607f821691505b6020821081036123cd576123cc612373565b5b50919050565b60008190508160005260206000209050919050565b60006020601f8301049050919050565b600082821b905092915050565b6000600883026124357fffffffffffffffffffffffffffffffffffffffffffffffffffffffffffffffff826123f8565b61243f86836123f8565b95508019841693508086168417925050509392505050565b6000819050919050565b600061247c61247761247284611b75565b612457565b611b75565b9050919050565b6000819050919050565b61249683612461565b6124aa6124a282612483565b848454612405565b825550505050565b600090565b6124bf6124b2565b6124ca81848461248d565b505050565b5b818110156124ee576124e36000826124b7565b6001810190506124d0565b5050565b601f82111561253357612504816123d3565b61250d846123e8565b8101602085101561251c578190505b612530612528856123e8565b8301826124cf565b50505b505050565b600082821c905092915050565b600061255660001984600802612538565b1980831691505092915050565b600061256f8383612545565b9150826002028217905092915050565b61258882611c63565b67ffffffffffffffff8111156125a1576125a0611a4a565b5b6125ab82546123a2565b6125b68282856124f2565b600060209050601f8311600181146125e957600084156125d7578287015190505b6125e18582612563565b865550612649565b601f1984166125f7866123d3565b60005b8281101561261f578489015182556001820191506020850194506020810190506125fa565b8683101561263c5784890151612638601f891682612545565b8355505b6001600288020188555050505b505050505050565b7f4e487b7100000000000000000000000000000000000000000000000000000000600052601160045260246000fd5b600061268b82611b75565b91507fffffffffffffffffffffffffffffffffffffffffffffffffffffffffffffffff82036126bd576126bc612651565b5b600182019050919050565b60006126d382611b75565b91506126de83611b75565b92508282019050808211156126f6576126f5612651565b5b92915050565b7f4e487b7100000000000000000000000000000000000000000000000000000000600052601260045260246000fd5b600061273682611b75565b915061274183611b75565b925082612751576127506126fc565b5b828204905092915050565b600081905092915050565b50565b600061277760008361275c565b915061278282612767565b600082019050919050565b60006127988261276a565b915081905091905056fea2646970667358221220d18365c8a74aa3302bb88e99168d8a5ccd62dbbcaaf7c2d0c7d6bdb79143a19e64736f6c63430008110033",
  "linkReferences": {},
  "deployedLinkReferences": {}
}