{
  "_format": "hh-sol-artifact-1",
  "contractName": "Surpay",
  "sourceName": "contracts/Surpay.sol",
  "abi": [
    {
      "inputs": [
        {
          "internalType": "uint256",
          "name": "_surveyCreationFee",
          "type": "uint256"
        },
        {
          "internalType": "uint256",
          "name": "_interval",
          "type": "uint256"
        }
      ],
      "stateMutability": "nonpayable",
      "type": "constructor"
    },
    {
      "inputs": [],
      "name": "Surpay__MaximumRespondantsReached",
      "type": "error"
    },
    {
      "inputs": [],
      "name": "Surpay__NotEnoughFunds",
      "type": "error"
    },
    {
      "inputs": [],
      "name": "Surpay__NotOwner",
      "type": "error"
    },
    {
      "inputs": [],
      "name": "Surpay__SurveyAlreadyConcluded",
      "type": "error"
    },
    {
      "inputs": [],
      "name": "Surpay__SurveyNotFound",
      "type": "error"
    },
    {
      "inputs": [],
      "name": "Surpay__TransferFailed",
      "type": "error"
    },
    {
      "inputs": [],
      "name": "Surpay__UpkeepNotNeeded",
      "type": "error"
    },
    {
      "anonymous": false,
      "inputs": [
        {
          "indexed": true,
          "internalType": "uint256",
          "name": "amount",
          "type": "uint256"
        }
      ],
      "name": "FundsWithdrawn",
      "type": "event"
    },
    {
      "anonymous": false,
      "inputs": [
        {
          "indexed": true,
          "internalType": "string",
          "name": "surveyId",
          "type": "string"
        }
      ],
      "name": "SurveyCompleted",
      "type": "event"
    },
    {
      "anonymous": false,
      "inputs": [
        {
          "indexed": true,
          "internalType": "string",
          "name": "surveyId",
          "type": "string"
        }
      ],
      "name": "SurveyCreated",
      "type": "event"
    },
    {
      "anonymous": false,
      "inputs": [
        {
          "indexed": true,
          "internalType": "string",
          "name": "surveyId",
          "type": "string"
        }
      ],
      "name": "SurveyTakersPaid",
      "type": "event"
    },
    {
      "anonymous": false,
      "inputs": [
        {
          "indexed": true,
          "internalType": "address",
          "name": "surveyTaker",
          "type": "address"
        }
      ],
      "name": "UserAddedToSurvey",
      "type": "event"
    },
    {
      "inputs": [
        {
          "internalType": "bytes",
          "name": "",
          "type": "bytes"
        }
      ],
      "name": "checkUpkeep",
      "outputs": [
        {
          "internalType": "bool",
          "name": "upkeepNeeded",
          "type": "bool"
        },
        {
          "internalType": "bytes",
          "name": "",
          "type": "bytes"
        }
      ],
      "stateMutability": "nonpayable",
      "type": "function"
    },
    {
      "inputs": [
        {
          "internalType": "string",
          "name": "_surveyId",
          "type": "string"
        },
        {
          "internalType": "string",
          "name": "_companyId",
          "type": "string"
        },
        {
          "internalType": "uint256",
          "name": "_totalPayoutAmount",
          "type": "uint256"
        },
        {
          "internalType": "uint256",
          "name": "_numOfParticipantsDesired",
          "type": "uint256"
        }
      ],
      "name": "createSurvey",
      "outputs": [],
      "stateMutability": "payable",
      "type": "function"
    },
    {
      "inputs": [
        {
          "internalType": "uint256",
          "name": "index",
          "type": "uint256"
        }
      ],
      "name": "distributeFundsFromCompletedSurvey",
      "outputs": [],
      "stateMutability": "nonpayable",
      "type": "function"
    },
    {
      "inputs": [
        {
          "internalType": "string",
          "name": "surveyId",
          "type": "string"
        }
      ],
      "name": "getAllSurveyResponseData",
      "outputs": [
        {
          "internalType": "string[]",
          "name": "",
          "type": "string[]"
        }
      ],
      "stateMutability": "view",
      "type": "function"
    },
    {
      "inputs": [
        {
          "internalType": "string",
          "name": "surveyId",
          "type": "string"
        }
      ],
      "name": "getCompanyId",
      "outputs": [
        {
          "internalType": "string",
          "name": "",
          "type": "string"
        }
      ],
      "stateMutability": "view",
      "type": "function"
    },
    {
      "inputs": [],
      "name": "getFeeHolderAmount",
      "outputs": [
        {
          "internalType": "uint256",
          "name": "",
          "type": "uint256"
        }
      ],
      "stateMutability": "view",
      "type": "function"
    },
    {
      "inputs": [],
      "name": "getInterval",
      "outputs": [
        {
          "internalType": "uint256",
          "name": "",
          "type": "uint256"
        }
      ],
      "stateMutability": "view",
      "type": "function"
    },
    {
      "inputs": [
        {
          "internalType": "string",
          "name": "surveyId",
          "type": "string"
        }
      ],
      "name": "getLastTimeStamp",
      "outputs": [
        {
          "internalType": "uint256",
          "name": "",
          "type": "uint256"
        }
      ],
      "stateMutability": "view",
      "type": "function"
    },
    {
      "inputs": [],
      "name": "getOwner",
      "outputs": [
        {
          "internalType": "address",
          "name": "",
          "type": "address"
        }
      ],
      "stateMutability": "view",
      "type": "function"
    },
    {
      "inputs": [
        {
          "internalType": "string",
          "name": "surveyId",
          "type": "string"
        }
      ],
      "name": "getPayoutPerPersonBySurveyId",
      "outputs": [
        {
          "internalType": "uint256",
          "name": "",
          "type": "uint256"
        }
      ],
      "stateMutability": "view",
      "type": "function"
    },
    {
      "inputs": [],
      "name": "getSurveyCreationFee",
      "outputs": [
        {
          "internalType": "uint256",
          "name": "",
          "type": "uint256"
        }
      ],
      "stateMutability": "view",
      "type": "function"
    },
    {
      "inputs": [
        {
          "internalType": "string",
          "name": "_surveyId",
          "type": "string"
        }
      ],
      "name": "getSurveyPayoutAmount",
      "outputs": [
        {
          "internalType": "uint256",
          "name": "",
          "type": "uint256"
        }
      ],
      "stateMutability": "view",
      "type": "function"
    },
    {
      "inputs": [
        {
          "internalType": "string",
          "name": "surveyId",
          "type": "string"
        },
        {
          "internalType": "uint256",
          "name": "responseIndex",
          "type": "uint256"
        }
      ],
      "name": "getSurveyResponseData",
      "outputs": [
        {
          "internalType": "string",
          "name": "",
          "type": "string"
        }
      ],
      "stateMutability": "view",
      "type": "function"
    },
    {
      "inputs": [
        {
          "internalType": "string",
          "name": "_surveyId",
          "type": "string"
        }
      ],
      "name": "getSurveyState",
      "outputs": [
        {
          "internalType": "enum Surpay.SurveyState",
          "name": "",
          "type": "uint8"
        }
      ],
      "stateMutability": "view",
      "type": "function"
    },
    {
      "inputs": [
        {
          "internalType": "string",
          "name": "surveyId",
          "type": "string"
        },
        {
          "internalType": "uint256",
          "name": "userIndex",
          "type": "uint256"
        }
      ],
      "name": "getSurveyTaker",
      "outputs": [
        {
          "internalType": "address",
          "name": "",
          "type": "address"
        }
      ],
      "stateMutability": "view",
      "type": "function"
    },
    {
      "inputs": [
        {
          "internalType": "bytes",
          "name": "",
          "type": "bytes"
        }
      ],
      "name": "performUpkeep",
      "outputs": [],
      "stateMutability": "nonpayable",
      "type": "function"
    },
    {
      "inputs": [],
      "name": "removeCompletedSurveys",
      "outputs": [],
      "stateMutability": "nonpayable",
      "type": "function"
    },
    {
      "inputs": [
        {
          "internalType": "string",
          "name": "_surveyId",
          "type": "string"
        },
        {
          "internalType": "string",
          "name": "_surveyData",
          "type": "string"
        },
        {
          "internalType": "address",
          "name": "userAddress",
          "type": "address"
        }
      ],
      "name": "sendUserSurveyData",
      "outputs": [],
      "stateMutability": "nonpayable",
      "type": "function"
    },
    {
      "inputs": [
        {
          "internalType": "uint256",
          "name": "amount",
          "type": "uint256"
        }
      ],
      "name": "withdrawFromFeeHolder",
      "outputs": [],
      "stateMutability": "nonpayable",
      "type": "function"
    }
  ],
  "bytecode": "0x60c06040523480156200001157600080fd5b5060405162003d6938038062003d69833981810160405281019062000037919062000142565b620000536796c04f72ded5802660c01b620000ff60201b60201c565b6200006f67a91d1a31886a9d6960c01b620000ff60201b60201c565b336000806101000a81548173ffffffffffffffffffffffffffffffffffffffff021916908373ffffffffffffffffffffffffffffffffffffffff160217905550620000cb67502caa07572f0b0f60c01b620000ff60201b60201c565b8160808181525050620000ef671660f2bbd59aa0f960c01b620000ff60201b60201c565b8060a08181525050505062000189565b50565b600080fd5b6000819050919050565b6200011c8162000107565b81146200012857600080fd5b50565b6000815190506200013c8162000111565b92915050565b600080604083850312156200015c576200015b62000102565b5b60006200016c858286016200012b565b92505060206200017f858286016200012b565b9150509250929050565b60805160a051613bac620001bd600039600061157b01526000818161170a015281816117be0152611c3e0152613bac6000f3fe6080604052600436106101145760003560e01c806391ad27b4116100a0578063c3b9a2c811610064578063c3b9a2c8146103df578063e1744d7214610408578063e46552c914610445578063e74b36df1461046e578063eb9992c3146104ab57610114565b806391ad27b4146102f35780639759ac361461031e578063ac9d6a2b1461035b578063b374ff2914610377578063bab26fd2146103b457610114565b80634585e33b116100e75780634585e33b146101e757806350597f8a14610210578063653cba7d1461024d5780636e04ff0d1461028a578063893d20e8146102c857610114565b806301b43c3e14610119578063129983011461014457806324405aa91461018157806324445aeb146101be575b600080fd5b34801561012557600080fd5b5061012e6104c2565b60405161013b9190612dd4565b60405180910390f35b34801561015057600080fd5b5061016b60048036038101906101669190612f75565b610508565b6040516101789190613012565b60405180910390f35b34801561018d57600080fd5b506101a860048036038101906101a39190612f75565b610671565b6040516101b591906130ac565b60405180910390f35b3480156101ca57600080fd5b506101e560048036038101906101e091906130fa565b610842565b005b3480156101f357600080fd5b5061020e600480360381019061020991906131e5565b610e04565b005b34801561021c57600080fd5b5061023760048036038101906102329190613232565b6110ff565b6040516102449190613387565b60405180910390f35b34801561025957600080fd5b50610274600480360381019061026f9190613232565b6112fa565b6040516102819190612dd4565b60405180910390f35b34801561029657600080fd5b506102b160048036038101906102ac919061344a565b611426565b6040516102bf929190613503565b60405180910390f35b3480156102d457600080fd5b506102dd6114d7565b6040516102ea9190613012565b60405180910390f35b3480156102ff57600080fd5b5061030861153b565b6040516103159190612dd4565b60405180910390f35b34801561032a57600080fd5b5061034560048036038101906103409190613232565b61159f565b6040516103529190612dd4565b60405180910390f35b61037560048036038101906103709190613533565b6116cb565b005b34801561038357600080fd5b5061039e60048036038101906103999190613232565b611ac5565b6040516103ab9190613649565b60405180910390f35b3480156103c057600080fd5b506103c9611bfe565b6040516103d69190612dd4565b60405180910390f35b3480156103eb57600080fd5b5061040660048036038101906104019190613664565b611c62565b005b34801561041457600080fd5b5061042f600480360381019061042a9190613232565b612246565b60405161043c91906130ac565b60405180910390f35b34801561045157600080fd5b5061046c60048036038101906104679190613664565b612335565b005b34801561047a57600080fd5b5061049560048036038101906104909190613232565b6126ea565b6040516104a29190612dd4565b60405180910390f35b3480156104b757600080fd5b506104c0612842565b005b60006104d867ab627533b723266e60c01b612b9e565b6104ec679ed9970bd766bba560c01b612b9e565b61050067acd79ac79c4550d960c01b612b9e565b600354905090565b600061051e67778bdba04d75676060c01b612b9e565b6105326792801325cdd8b4ed60c01b612b9e565b610546677658a90913e5516460c01b612b9e565b600060018460405161055891906136cd565b908152602001604051809103902060030154111561061157610584674d2c5c89cfb36abe60c01b612b9e565b61059867f170ddc137aac67760c01b612b9e565b6105ac6796646caac8a21a3b60c01b612b9e565b6001836040516105bc91906136cd565b908152602001604051809103902060060182815481106105df576105de6136e4565b5b9060005260206000200160009054906101000a900473ffffffffffffffffffffffffffffffffffffffff16905061066b565b6106256728996b3655ba793460c01b612b9e565b610639675aed686079627ef960c01b612b9e565b6040517fb01e933700000000000000000000000000000000000000000000000000000000815260040160405180910390fd5b92915050565b606061068767d7bfcc717ee1323860c01b612b9e565b61069b676d7166fcd866395560c01b612b9e565b6106af674daee8c2a40ab66760c01b612b9e565b60006001846040516106c191906136cd565b90815260200160405180910390206003015411156107e2576106ed678759afa93314ea9c60c01b612b9e565b6107016752432c97d3367aad60c01b612b9e565b61071567b95d96dbbf0af4f660c01b612b9e565b60018360405161072591906136cd565b90815260200160405180910390206005018281548110610748576107476136e4565b5b90600052602060002001805461075d90613742565b80601f016020809104026020016040519081016040528092919081815260200182805461078990613742565b80156107d65780601f106107ab576101008083540402835291602001916107d6565b820191906000526020600020905b8154815290600101906020018083116107b957829003601f168201915b5050505050905061083c565b6107f6677bbe46a62332877060c01b612b9e565b61080a679dc9623edb8db00760c01b612b9e565b6040517fb01e933700000000000000000000000000000000000000000000000000000000815260040160405180910390fd5b92915050565b61085667054aa59c0d549a1f60c01b612b9e565b61086a67b7a8048e78e7d9a860c01b612b9e565b61087e6757411ebf80be98d960c01b612b9e565b61089267a7aef1ba4e5635dd60c01b612b9e565b60008054906101000a900473ffffffffffffffffffffffffffffffffffffffff1673ffffffffffffffffffffffffffffffffffffffff163373ffffffffffffffffffffffffffffffffffffffff161461092b576108f9670f9b7cbd78159ea560c01b612b9e565b6040517fba34867000000000000000000000000000000000000000000000000000000000815260040160405180910390fd5b61093f67b6029ce5811a7e7560c01b612b9e565b6109536733f251feaa0c087160c01b612b9e565b610967678d30af0d524b171160c01b612b9e565b61097b678866f175895e52c060c01b612b9e565b61098f670d9761718ebb8db360c01b612b9e565b6109a367e83a0b71075018e360c01b612b9e565b6001836040516109b391906136cd565b9081526020016040518091039020600401546001846040516109d591906136cd565b9081526020016040518091039020600301541115610da557610a016729ab741f23805e2660c01b612b9e565b610a156799cda007d8d8c24660c01b612b9e565b610a29673a2921694939a9df60c01b612b9e565b600183604051610a3991906136cd565b908152602001604051809103902060050182908060018154018082558091505060019003906000526020600020016000909190919091509081610a7c919061391f565b50610a91670381eceee2fea3ee60c01b612b9e565b610aa5670d4016976ba9261660c01b612b9e565b600183604051610ab591906136cd565b9081526020016040518091039020600601819080600181540180825580915050600190039060005260206000200160009091909190916101000a81548173ffffffffffffffffffffffffffffffffffffffff021916908373ffffffffffffffffffffffffffffffffffffffff160217905550610b3b67bcc3ecdf369bed9d60c01b612b9e565b600183604051610b4b91906136cd565b90815260200160405180910390206004016000815480929190610b6d90613a20565b9190505550610b8667654e94b83abc923160c01b612b9e565b610b9a67eb708cfc10328b7360c01b612b9e565b600183604051610baa91906136cd565b908152602001604051809103902060040154600184604051610bcc91906136cd565b90815260200160405180910390206003015403610d2057610bf76763d832b157a4f7b160c01b612b9e565b610c0b6734368c1a13f8169060c01b612b9e565b60018084604051610c1c91906136cd565b908152602001604051809103902060080160006101000a81548160ff02191690836002811115610c4f57610c4e6135d2565b5b0217905550610c6867eeffeae193c930b360c01b612b9e565b610c7c6794d5a7c67606c48260c01b612b9e565b600283908060018154018082558091505060019003906000526020600020016000909190919091509081610cb0919061391f565b50610cc5671d6c78d53dde654160c01b612b9e565b610cd9671597318b8e431bd660c01b612b9e565b82604051610ce791906136cd565b60405180910390207fc9629617ac320e57fa622f79c211617de659a3b7cbdda927e47dea5e4c0ab4da60405160405180910390a2610d35565b610d3467bda666f3315852e560c01b612b9e565b5b610d4967ab45506ece85437b60c01b612b9e565b610d5d67a35f21e0d76c89be60c01b612b9e565b8073ffffffffffffffffffffffffffffffffffffffff167f099cc064944e6569611b439843932fa853d46618d78ca5a8e3989bcc5614853d60405160405180910390a2610dff565b610db967dd563d93c1e6525b60c01b612b9e565b610dcd67ac7271ffe9e9f45660c01b612b9e565b6040517f13c8108e00000000000000000000000000000000000000000000000000000000815260040160405180910390fd5b505050565b610e186718539c59df80c48160c01b612b9e565b610e2c676fc6ebfdc420c85860c01b612b9e565b610e40676a69b4969928a5c760c01b612b9e565b6000610e5a60405180602001604052806000815250611426565b509050610e7167e1d12ad76a7c3fba60c01b612b9e565b610e8567ff9eaefbecb3c3e160c01b612b9e565b80156110a057610e9f6713bf16335c64408c60c01b612b9e565b610eb3675f1e57e14de968e160c01b612b9e565b610ec767ec29f0fecbdb11ed60c01b612b9e565b60006002805480602002602001604051908101604052809291908181526020016000905b82821015610f97578382906000526020600020018054610f0a90613742565b80601f0160208091040260200160405190810160405280929190818152602001828054610f3690613742565b8015610f835780601f10610f5857610100808354040283529160200191610f83565b820191906000526020600020905b815481529060010190602001808311610f6657829003601f168201915b505050505081526020019060010190610eeb565b505050509050610fb1672c91c22797b97faf60c01b612b9e565b610fc5678055612a90fefdef60c01b612b9e565b60005b815181101561109957610fe56742077510b6bf9f9d60c01b612b9e565b610ff967660c28708d98eb5a60c01b612b9e565b61100281611c62565b6110166725dd81091cd7958360c01b612b9e565b61102a67fcbc2b0d338f377660c01b612b9e565b81818151811061103d5761103c6136e4565b5b602002602001015160405161105291906136cd565b60405180910390207fa7998895d8d2e7856091bd8a5895a54d831c4d6c8bd8a8611ec2c1f873872fef60405160405180910390a2808061109190613a20565b915050610fc8565b50506110fa565b6110b46713f6b0e9873ee7c360c01b612b9e565b6110c8674db99566fe5eaf2660c01b612b9e565b6040517fe47d1a5100000000000000000000000000000000000000000000000000000000815260040160405180910390fd5b505050565b60606111156778744ec521704a8c60c01b612b9e565b61112967fe2cf83670ca832b60c01b612b9e565b61113d67415f03b9f2ad95c660c01b612b9e565b600060018360405161114f91906136cd565b908152602001604051809103902060030154111561129b5761117b67be022897753ea36a60c01b612b9e565b61118f67d020301591df588160c01b612b9e565b6111a36703c0672cac9ebcc160c01b612b9e565b6001826040516111b391906136cd565b9081526020016040518091039020600501805480602002602001604051908101604052809291908181526020016000905b8282101561129057838290600052602060002001805461120390613742565b80601f016020809104026020016040519081016040528092919081815260200182805461122f90613742565b801561127c5780601f106112515761010080835404028352916020019161127c565b820191906000526020600020905b81548152906001019060200180831161125f57829003601f168201915b5050505050815260200190600101906111e4565b5050505090506112f5565b6112af6792db10bf1f22c74460c01b612b9e565b6112c3675c39234eb8785ac460c01b612b9e565b6040517fb01e933700000000000000000000000000000000000000000000000000000000815260040160405180910390fd5b919050565b6000611310673befd3112ee20d6260c01b612b9e565b61132467d14c8c72f4c0563d60c01b612b9e565b611338678c7292e21770c48c60c01b612b9e565b600060018360405161134a91906136cd565b90815260200160405180910390206003015411156113c75761137667a960b765d2e6e7f460c01b612b9e565b61138a67d3e8a5b0967f9c0460c01b612b9e565b61139e67301f4aa5e45e1f4860c01b612b9e565b6001826040516113ae91906136cd565b9081526020016040518091039020600701549050611421565b6113db67219880c82c69596260c01b612b9e565b6113ef672b1870e844037d5160c01b612b9e565b6040517fb01e933700000000000000000000000000000000000000000000000000000000815260040160405180910390fd5b919050565b6000606061143e6784525c8f29aa48ee60c01b612b9e565b61145267de200875fb75add960c01b612b9e565b61146667957bc792c8b9aaed60c01b612b9e565b600060028054905011156114a55761148867befba7da156d041d60c01b612b9e565b61149c67366eb439436bcd9460c01b612b9e565b600191506114d2565b6114b96772a70a9a980cc86b60c01b612b9e565b6114cd67df01289cf90053f760c01b612b9e565b600091505b915091565b60006114ed67dc3f933b9462726f60c01b612b9e565b611501673edf9fb0f7e7619960c01b612b9e565b61151567092f05c48a90f97560c01b612b9e565b60008054906101000a900473ffffffffffffffffffffffffffffffffffffffff16905090565b6000611551677fbf1b05c13cf25860c01b612b9e565b61156567327ddfef8472216460c01b612b9e565b611579673aeafd8e8921396660c01b612b9e565b7f0000000000000000000000000000000000000000000000000000000000000000905090565b60006115b567caee7449bdefe7e260c01b612b9e565b6115c967284f5db1dc84df1f60c01b612b9e565b6115dd6760df4b5a4937817860c01b612b9e565b60006001836040516115ef91906136cd565b908152602001604051809103902060030154111561166c5761161b67315e58c82261be0c60c01b612b9e565b61162f67343a579791512b9660c01b612b9e565b61164367dcdefd7196d31b4060c01b612b9e565b60018260405161165391906136cd565b90815260200160405180910390206002015490506116c6565b611680677673ad7650f5e54f60c01b612b9e565b611694677c879a38c0a6765660c01b612b9e565b6040517fb01e933700000000000000000000000000000000000000000000000000000000815260040160405180910390fd5b919050565b6116df67564d2b4ee72d8de760c01b612b9e565b6116f3678abb624fad84b11f60c01b612b9e565b61170767f443f7e07c7f861160c01b612b9e565b817f00000000000000000000000000000000000000000000000000000000000000006117339190613a68565b3410156117945761174e67ef1d874ce10f6f2660c01b612b9e565b611762672f88d6a067197d9c60c01b612b9e565b6040517fc09bb52500000000000000000000000000000000000000000000000000000000815260040160405180910390fd5b6117a867751d39b91bf27ff960c01b612b9e565b6117bc67e7af04fd3bef132760c01b612b9e565b7f0000000000000000000000000000000000000000000000000000000000000000600360008282546117ee9190613a68565b9250508190555061180967620fefe08661f4f360c01b612b9e565b61181d677995638dcaf1a91960c01b612b9e565b611825612ba1565b611839676a770bdc540760a960c01b612b9e565b83816000018190525061185667139c1e74324e911860c01b612b9e565b33816020019073ffffffffffffffffffffffffffffffffffffffff16908173ffffffffffffffffffffffffffffffffffffffff16815250506118a2677d8daeaaec14259f60c01b612b9e565b828160400181815250506118c06708d9cc6e88138bd460c01b612b9e565b818160600181815250506118de67daa8781a8b456f9860c01b612b9e565b428160e00181815250506118fc67b417a554820cc63660c01b612b9e565b60008161010001906002811115611916576119156135d2565b5b9081600281111561192a576119296135d2565b5b8152505061194267961e3172421a9f1260c01b612b9e565b8060018660405161195391906136cd565b90815260200160405180910390206000820151816000019081611976919061391f565b5060208201518160010160006101000a81548173ffffffffffffffffffffffffffffffffffffffff021916908373ffffffffffffffffffffffffffffffffffffffff16021790555060408201518160020155606082015181600301556080820151816004015560a08201518160050190805190602001906119f8929190612c15565b5060c0820151816006019080519060200190611a15929190612c6e565b5060e082015181600701556101008201518160080160006101000a81548160ff02191690836002811115611a4c57611a4b6135d2565b5b0217905550905050611a6867bb426b1583f5b0ee60c01b612b9e565b611a7c67f7c9d919987d231560c01b612b9e565b84604051611a8a91906136cd565b60405180910390207fcc65c6fb1d804ba1dc418f9e3659483d310357279f035d45b8ea484fd6fe4a2f60405160405180910390a25050505050565b6000611adb67c593ea2958d6fed660c01b612b9e565b611aef679dae1c4ee7f8c21660c01b612b9e565b611b0367f9662b1708f753da60c01b612b9e565b6000600183604051611b1591906136cd565b9081526020016040518091039020600301541115611b9f57611b416793b1a961691bcf4d60c01b612b9e565b611b5567a04f4172eab1255760c01b612b9e565b611b696770d519cdca98767e60c01b612b9e565b600182604051611b7991906136cd565b908152602001604051809103902060080160009054906101000a900460ff169050611bf9565b611bb36723917a732604f25460c01b612b9e565b611bc7674571ea5d2fac95b860c01b612b9e565b6040517fb01e933700000000000000000000000000000000000000000000000000000000815260040160405180910390fd5b919050565b6000611c146715d33888b66df8fa60c01b612b9e565b611c2867903fb0d824fbf60060c01b612b9e565b611c3c6789b0f51280965ab260c01b612b9e565b7f0000000000000000000000000000000000000000000000000000000000000000905090565b611c7667689e60937cc7c4d260c01b612b9e565b611c8a6793afbb912a5fc05a60c01b612b9e565b611c9e67f977e88171ec364560c01b612b9e565b60006002805480602002602001604051908101604052809291908181526020016000905b82821015611d6e578382906000526020600020018054611ce190613742565b80601f0160208091040260200160405190810160405280929190818152602001828054611d0d90613742565b8015611d5a5780601f10611d2f57610100808354040283529160200191611d5a565b820191906000526020600020905b815481529060010190602001808311611d3d57829003601f168201915b505050505081526020019060010190611cc2565b505050509050611d8867afcd135fcba3093360c01b612b9e565b611d9c67cb17cae9bd78a28c60c01b612b9e565b600280811115611daf57611dae6135d2565b5b6001828481518110611dc457611dc36136e4565b5b6020026020010151604051611dd991906136cd565b908152602001604051809103902060080160009054906101000a900460ff166002811115611e0a57611e096135d2565b5b03611e6957611e23673652dda1d8056abf60c01b612b9e565b611e376757ac4f71057c7aaf60c01b612b9e565b6040517f4fc98f3b00000000000000000000000000000000000000000000000000000000815260040160405180910390fd5b611e7d677d84521368aed47960c01b612b9e565b611e91678c3f4ffbf2b2cbd160c01b612b9e565b611ea567a77e1705466e741f60c01b612b9e565b6000611ebb679a241cd0e483dc3460c01b612b9e565b6001828481518110611ed057611ecf6136e4565b5b6020026020010151604051611ee591906136cd565b9081526020016040518091039020600401546001838581518110611f0c57611f0b6136e4565b5b6020026020010151604051611f2191906136cd565b908152602001604051809103902060020154611f3d9190613acb565b9050611f5367843ccb70ba651d7e60c01b612b9e565b611f67672476911ea1738fd760c01b612b9e565b60005b6001838581518110611f7f57611f7e6136e4565b5b6020026020010151604051611f9491906136cd565b9081526020016040518091039020600601805490508110156121c857611fc4675474655a418bd73060c01b612b9e565b611fd867b596b30801891ee860c01b612b9e565b478210156121a057611ff46717993b4af5fd15c860c01b612b9e565b612008679224ad284ed5739860c01b612b9e565b61201c67177470341d73d50660c01b612b9e565b60006001848681518110612033576120326136e4565b5b602002602001015160405161204891906136cd565b9081526020016040518091039020600601828154811061206b5761206a6136e4565b5b9060005260206000200160009054906101000a900473ffffffffffffffffffffffffffffffffffffffff1673ffffffffffffffffffffffffffffffffffffffff16836040516120b990613b2d565b60006040518083038185875af1925050503d80600081146120f6576040519150601f19603f3d011682016040523d82523d6000602084013e6120fb565b606091505b50509050612113679378679612b988fa60c01b612b9e565b612127670b8a150bcad15c6260c01b612b9e565b80612186576121406782f4d451c719a39d60c01b612b9e565b61215467356e12e681e6b73160c01b612b9e565b6040517f09e6a19a00000000000000000000000000000000000000000000000000000000815260040160405180910390fd5b61219a679a7f61c10a9f665460c01b612b9e565b506121b5565b6121b467fb6409d6a10e5b6e60c01b612b9e565b5b80806121c090613a20565b915050611f6a565b506121dd67a4dc35adc197cd2560c01b612b9e565b600260018385815181106121f4576121f36136e4565b5b602002602001015160405161220991906136cd565b908152602001604051809103902060080160006101000a81548160ff0219169083600281111561223c5761223b6135d2565b5b0217905550505050565b606061225c67eeb199026ada09d560c01b612b9e565b61227067e26bbb2714b76eb560c01b612b9e565b612284677dee9b8c1ecd5c5460c01b612b9e565b60018260405161229491906136cd565b908152602001604051809103902060000180546122b090613742565b80601f01602080910402602001604051908101604052809291908181526020018280546122dc90613742565b80156123295780601f106122fe57610100808354040283529160200191612329565b820191906000526020600020905b81548152906001019060200180831161230c57829003601f168201915b50505050509050919050565b6123496726fc756aca5fd7c960c01b612b9e565b61235d67b7a8048e78e7d9a860c01b612b9e565b6123716757411ebf80be98d960c01b612b9e565b61238567a7aef1ba4e5635dd60c01b612b9e565b60008054906101000a900473ffffffffffffffffffffffffffffffffffffffff1673ffffffffffffffffffffffffffffffffffffffff163373ffffffffffffffffffffffffffffffffffffffff161461241e576123ec670f9b7cbd78159ea560c01b612b9e565b6040517fba34867000000000000000000000000000000000000000000000000000000000815260040160405180910390fd5b61243267b6029ce5811a7e7560c01b612b9e565b6124466733f251feaa0c087160c01b612b9e565b61245a676f41fe2788113b3c60c01b612b9e565b61246e67ef21b24f5c9382e060c01b612b9e565b612482675ee0142443ebf4eb60c01b612b9e565b6124966746e40f1e51885fd260c01b612b9e565b6003548111156124fa576124b46701d2acd4520ed22260c01b612b9e565b6124c8670d17869a7bf5f91b60c01b612b9e565b6040517fc09bb52500000000000000000000000000000000000000000000000000000000815260040160405180910390fd5b61250e67fbb93246f059eb0b60c01b612b9e565b61252267551479f43f408b3c60c01b612b9e565b612536672ee7b5e03201427060c01b612b9e565b60008060009054906101000a900473ffffffffffffffffffffffffffffffffffffffff1673ffffffffffffffffffffffffffffffffffffffff168260405161257d90613b2d565b60006040518083038185875af1925050503d80600081146125ba576040519150601f19603f3d011682016040523d82523d6000602084013e6125bf565b606091505b505090506125d7676a941b523b272d8960c01b612b9e565b6125eb678ff8bc93b427054860c01b612b9e565b801561268c5761260567bde2477a8fd6165760c01b612b9e565b61261967b04080004f98d66660c01b612b9e565b816003600082825461262b9190613b42565b9250508190555061264667f64daa219582432e60c01b612b9e565b61265a6724f8091feacbeec560c01b612b9e565b817f4a37b25aab49761ecf63117fe82b98d750917451133cf797507bc9fb5b96044a60405160405180910390a26126e6565b6126a067646cb14ef805668d60c01b612b9e565b6126b46707967049778e3c0260c01b612b9e565b6040517f09e6a19a00000000000000000000000000000000000000000000000000000000815260040160405180910390fd5b5050565b60006127006724804863e5fba7ff60c01b612b9e565b61271467640d3dbd976239f660c01b612b9e565b612728673bb9021dbc7070bf60c01b612b9e565b600060018360405161273a91906136cd565b90815260200160405180910390206003015411156127e357612766679d4252910f97aeb760c01b612b9e565b61277a67bd3cb21073304ab560c01b612b9e565b61278e67868f4a477cc09f1660c01b612b9e565b60018260405161279e91906136cd565b9081526020016040518091039020600301546001836040516127c091906136cd565b9081526020016040518091039020600201546127dc9190613acb565b905061283d565b6127f7670ce849a84c39fd2f60c01b612b9e565b61280b678f796a72c6cc1e6860c01b612b9e565b6040517fb01e933700000000000000000000000000000000000000000000000000000000815260040160405180910390fd5b919050565b61285667986a8a3478662c7a60c01b612b9e565b61286a67b7a8048e78e7d9a860c01b612b9e565b61287e6757411ebf80be98d960c01b612b9e565b61289267a7aef1ba4e5635dd60c01b612b9e565b60008054906101000a900473ffffffffffffffffffffffffffffffffffffffff1673ffffffffffffffffffffffffffffffffffffffff163373ffffffffffffffffffffffffffffffffffffffff161461292b576128f9670f9b7cbd78159ea560c01b612b9e565b6040517fba34867000000000000000000000000000000000000000000000000000000000815260040160405180910390fd5b61293f67b6029ce5811a7e7560c01b612b9e565b6129536733f251feaa0c087160c01b612b9e565b61296767898ea0684eeaeb4760c01b612b9e565b61297b6765daa93d039b6a5e60c01b612b9e565b61298f676b42c66df84c218360c01b612b9e565b6129a3674558a5c00be7f3e760c01b612b9e565b60006002805480602002602001604051908101604052809291908181526020016000905b82821015612a735783829060005260206000200180546129e690613742565b80601f0160208091040260200160405190810160405280929190818152602001828054612a1290613742565b8015612a5f5780601f10612a3457610100808354040283529160200191612a5f565b820191906000526020600020905b815481529060010190602001808311612a4257829003601f168201915b5050505050815260200190600101906129c7565b505050509050612a8d672989598b22f8336560c01b612b9e565b612aa167c712d5468c48218960c01b612b9e565b60005b8151811015612b9a57612ac167a205a2c6ca126ff360c01b612b9e565b6001828281518110612ad657612ad56136e4565b5b6020026020010151604051612aeb91906136cd565b908152602001604051809103902060008082016000612b0a9190612cf8565b6001820160006101000a81549073ffffffffffffffffffffffffffffffffffffffff0219169055600282016000905560038201600090556004820160009055600582016000612b599190612d38565b600682016000612b699190612d59565b60078201600090556008820160006101000a81549060ff021916905550508080612b9290613a20565b915050612aa4565b5050565b50565b60405180610120016040528060608152602001600073ffffffffffffffffffffffffffffffffffffffff16815260200160008152602001600081526020016000815260200160608152602001606081526020016000815260200160006002811115612c0f57612c0e6135d2565b5b81525090565b828054828255906000526020600020908101928215612c5d579160200282015b82811115612c5c578251829081612c4c919061391f565b5091602001919060010190612c35565b5b509050612c6a9190612d7a565b5090565b828054828255906000526020600020908101928215612ce7579160200282015b82811115612ce65782518260006101000a81548173ffffffffffffffffffffffffffffffffffffffff021916908373ffffffffffffffffffffffffffffffffffffffff16021790555091602001919060010190612c8e565b5b509050612cf49190612d9e565b5090565b508054612d0490613742565b6000825580601f10612d165750612d35565b601f016020900490600052602060002090810190612d349190612d9e565b5b50565b5080546000825590600052602060002090810190612d569190612d7a565b50565b5080546000825590600052602060002090810190612d779190612d9e565b50565b5b80821115612d9a5760008181612d919190612cf8565b50600101612d7b565b5090565b5b80821115612db7576000816000905550600101612d9f565b5090565b6000819050919050565b612dce81612dbb565b82525050565b6000602082019050612de96000830184612dc5565b92915050565b6000604051905090565b600080fd5b600080fd5b600080fd5b600080fd5b6000601f19601f8301169050919050565b7f4e487b7100000000000000000000000000000000000000000000000000000000600052604160045260246000fd5b612e5682612e0d565b810181811067ffffffffffffffff82111715612e7557612e74612e1e565b5b80604052505050565b6000612e88612def565b9050612e948282612e4d565b919050565b600067ffffffffffffffff821115612eb457612eb3612e1e565b5b612ebd82612e0d565b9050602081019050919050565b82818337600083830152505050565b6000612eec612ee784612e99565b612e7e565b905082815260208101848484011115612f0857612f07612e08565b5b612f13848285612eca565b509392505050565b600082601f830112612f3057612f2f612e03565b5b8135612f40848260208601612ed9565b91505092915050565b612f5281612dbb565b8114612f5d57600080fd5b50565b600081359050612f6f81612f49565b92915050565b60008060408385031215612f8c57612f8b612df9565b5b600083013567ffffffffffffffff811115612faa57612fa9612dfe565b5b612fb685828601612f1b565b9250506020612fc785828601612f60565b9150509250929050565b600073ffffffffffffffffffffffffffffffffffffffff82169050919050565b6000612ffc82612fd1565b9050919050565b61300c81612ff1565b82525050565b60006020820190506130276000830184613003565b92915050565b600081519050919050565b600082825260208201905092915050565b60005b8381101561306757808201518184015260208101905061304c565b60008484015250505050565b600061307e8261302d565b6130888185613038565b9350613098818560208601613049565b6130a181612e0d565b840191505092915050565b600060208201905081810360008301526130c68184613073565b905092915050565b6130d781612ff1565b81146130e257600080fd5b50565b6000813590506130f4816130ce565b92915050565b60008060006060848603121561311357613112612df9565b5b600084013567ffffffffffffffff81111561313157613130612dfe565b5b61313d86828701612f1b565b935050602084013567ffffffffffffffff81111561315e5761315d612dfe565b5b61316a86828701612f1b565b925050604061317b868287016130e5565b9150509250925092565b600080fd5b600080fd5b60008083601f8401126131a5576131a4612e03565b5b8235905067ffffffffffffffff8111156131c2576131c1613185565b5b6020830191508360018202830111156131de576131dd61318a565b5b9250929050565b600080602083850312156131fc576131fb612df9565b5b600083013567ffffffffffffffff81111561321a57613219612dfe565b5b6132268582860161318f565b92509250509250929050565b60006020828403121561324857613247612df9565b5b600082013567ffffffffffffffff81111561326657613265612dfe565b5b61327284828501612f1b565b91505092915050565b600081519050919050565b600082825260208201905092915050565b6000819050602082019050919050565b600082825260208201905092915050565b60006132c38261302d565b6132cd81856132a7565b93506132dd818560208601613049565b6132e681612e0d565b840191505092915050565b60006132fd83836132b8565b905092915050565b6000602082019050919050565b600061331d8261327b565b6133278185613286565b93508360208202850161333985613297565b8060005b85811015613375578484038952815161335685826132f1565b945061336183613305565b925060208a0199505060018101905061333d565b50829750879550505050505092915050565b600060208201905081810360008301526133a18184613312565b905092915050565b600067ffffffffffffffff8211156133c4576133c3612e1e565b5b6133cd82612e0d565b9050602081019050919050565b60006133ed6133e8846133a9565b612e7e565b90508281526020810184848401111561340957613408612e08565b5b613414848285612eca565b509392505050565b600082601f83011261343157613430612e03565b5b81356134418482602086016133da565b91505092915050565b6000602082840312156134605761345f612df9565b5b600082013567ffffffffffffffff81111561347e5761347d612dfe565b5b61348a8482850161341c565b91505092915050565b60008115159050919050565b6134a881613493565b82525050565b600081519050919050565b600082825260208201905092915050565b60006134d5826134ae565b6134df81856134b9565b93506134ef818560208601613049565b6134f881612e0d565b840191505092915050565b6000604082019050613518600083018561349f565b818103602083015261352a81846134ca565b90509392505050565b6000806000806080858703121561354d5761354c612df9565b5b600085013567ffffffffffffffff81111561356b5761356a612dfe565b5b61357787828801612f1b565b945050602085013567ffffffffffffffff81111561359857613597612dfe565b5b6135a487828801612f1b565b93505060406135b587828801612f60565b92505060606135c687828801612f60565b91505092959194509250565b7f4e487b7100000000000000000000000000000000000000000000000000000000600052602160045260246000fd5b60038110613612576136116135d2565b5b50565b600081905061362382613601565b919050565b600061363382613615565b9050919050565b61364381613628565b82525050565b600060208201905061365e600083018461363a565b92915050565b60006020828403121561367a57613679612df9565b5b600061368884828501612f60565b91505092915050565b600081905092915050565b60006136a78261302d565b6136b18185613691565b93506136c1818560208601613049565b80840191505092915050565b60006136d9828461369c565b915081905092915050565b7f4e487b7100000000000000000000000000000000000000000000000000000000600052603260045260246000fd5b7f4e487b7100000000000000000000000000000000000000000000000000000000600052602260045260246000fd5b6000600282049050600182168061375a57607f821691505b60208210810361376d5761376c613713565b5b50919050565b60008190508160005260206000209050919050565b60006020601f8301049050919050565b600082821b905092915050565b6000600883026137d57fffffffffffffffffffffffffffffffffffffffffffffffffffffffffffffffff82613798565b6137df8683613798565b95508019841693508086168417925050509392505050565b6000819050919050565b600061381c61381761381284612dbb565b6137f7565b612dbb565b9050919050565b6000819050919050565b61383683613801565b61384a61384282613823565b8484546137a5565b825550505050565b600090565b61385f613852565b61386a81848461382d565b505050565b5b8181101561388e57613883600082613857565b600181019050613870565b5050565b601f8211156138d3576138a481613773565b6138ad84613788565b810160208510156138bc578190505b6138d06138c885613788565b83018261386f565b50505b505050565b600082821c905092915050565b60006138f6600019846008026138d8565b1980831691505092915050565b600061390f83836138e5565b9150826002028217905092915050565b6139288261302d565b67ffffffffffffffff81111561394157613940612e1e565b5b61394b8254613742565b613956828285613892565b600060209050601f8311600181146139895760008415613977578287015190505b6139818582613903565b8655506139e9565b601f19841661399786613773565b60005b828110156139bf5784890151825560018201915060208501945060208101905061399a565b868310156139dc57848901516139d8601f8916826138e5565b8355505b6001600288020188555050505b505050505050565b7f4e487b7100000000000000000000000000000000000000000000000000000000600052601160045260246000fd5b6000613a2b82612dbb565b91507fffffffffffffffffffffffffffffffffffffffffffffffffffffffffffffffff8203613a5d57613a5c6139f1565b5b600182019050919050565b6000613a7382612dbb565b9150613a7e83612dbb565b9250828201905080821115613a9657613a956139f1565b5b92915050565b7f4e487b7100000000000000000000000000000000000000000000000000000000600052601260045260246000fd5b6000613ad682612dbb565b9150613ae183612dbb565b925082613af157613af0613a9c565b5b828204905092915050565b600081905092915050565b50565b6000613b17600083613afc565b9150613b2282613b07565b600082019050919050565b6000613b3882613b0a565b9150819050919050565b6000613b4d82612dbb565b9150613b5883612dbb565b9250828203905081811115613b7057613b6f6139f1565b5b9291505056fea2646970667358221220ee601afdad00399af532cfda576ab393d92601b705a9ddc6b4e5a69931af600364736f6c63430008110033",
  "linkReferences": {},
  "deployedLinkReferences": {}
}