{
  "_format": "hh-sol-artifact-1",
  "contractName": "Surpay",
  "sourceName": "contracts/Surpay.sol",
  "abi": [
    {
      "inputs": [
        {
          "internalType": "uint256",
          "name": "_surveyCreationFee",
          "type": "uint256"
        },
        {
          "internalType": "uint256",
          "name": "_interval",
          "type": "uint256"
        }
      ],
      "stateMutability": "nonpayable",
      "type": "constructor"
    },
    {
      "inputs": [],
      "name": "Surpay__MaximumRespondantsReached",
      "type": "error"
    },
    {
      "inputs": [],
      "name": "Surpay__NotEnoughFunds",
      "type": "error"
    },
    {
      "inputs": [],
      "name": "Surpay__SurveyNotFound",
      "type": "error"
    },
    {
      "inputs": [],
      "name": "Surpay__TransferFailed",
      "type": "error"
    },
    {
      "anonymous": false,
      "inputs": [
        {
          "indexed": true,
          "internalType": "string",
          "name": "surveyId",
          "type": "string"
        }
      ],
      "name": "SurveyCompleted",
      "type": "event"
    },
    {
      "anonymous": false,
      "inputs": [
        {
          "indexed": true,
          "internalType": "string",
          "name": "surveyId",
          "type": "string"
        }
      ],
      "name": "SurveyCreated",
      "type": "event"
    },
    {
      "anonymous": false,
      "inputs": [
        {
          "indexed": true,
          "internalType": "string",
          "name": "surveyId",
          "type": "string"
        }
      ],
      "name": "SurveyTakersPaid",
      "type": "event"
    },
    {
      "anonymous": false,
      "inputs": [
        {
          "indexed": true,
          "internalType": "address",
          "name": "surveyTaker",
          "type": "address"
        }
      ],
      "name": "UserAddedToSurvey",
      "type": "event"
    },
    {
      "inputs": [
        {
          "internalType": "bytes",
          "name": "",
          "type": "bytes"
        }
      ],
      "name": "checkUpkeep",
      "outputs": [
        {
          "internalType": "bool",
          "name": "upkeepNeeded",
          "type": "bool"
        },
        {
          "internalType": "bytes",
          "name": "",
          "type": "bytes"
        }
      ],
      "stateMutability": "nonpayable",
      "type": "function"
    },
    {
      "inputs": [
        {
          "internalType": "string",
          "name": "_surveyId",
          "type": "string"
        },
        {
          "internalType": "string",
          "name": "_companyId",
          "type": "string"
        },
        {
          "internalType": "uint256",
          "name": "_totalPayoutAmount",
          "type": "uint256"
        },
        {
          "internalType": "uint256",
          "name": "_numOfParticipantsDesired",
          "type": "uint256"
        }
      ],
      "name": "createSurvey",
      "outputs": [],
      "stateMutability": "payable",
      "type": "function"
    },
    {
      "inputs": [],
      "name": "getInterval",
      "outputs": [
        {
          "internalType": "uint256",
          "name": "",
          "type": "uint256"
        }
      ],
      "stateMutability": "view",
      "type": "function"
    },
    {
      "inputs": [
        {
          "internalType": "uint256",
          "name": "surveyIndex",
          "type": "uint256"
        }
      ],
      "name": "getLastTimeStampBySurveyIndex",
      "outputs": [
        {
          "internalType": "uint256",
          "name": "",
          "type": "uint256"
        }
      ],
      "stateMutability": "view",
      "type": "function"
    },
    {
      "inputs": [
        {
          "internalType": "uint256",
          "name": "index",
          "type": "uint256"
        }
      ],
      "name": "getPayoutByIndex",
      "outputs": [
        {
          "internalType": "uint256",
          "name": "",
          "type": "uint256"
        }
      ],
      "stateMutability": "view",
      "type": "function"
    },
    {
      "inputs": [
        {
          "internalType": "uint256",
          "name": "surveyIndex",
          "type": "uint256"
        }
      ],
      "name": "getPayoutPerPersonBySurveyIndex",
      "outputs": [
        {
          "internalType": "uint256",
          "name": "",
          "type": "uint256"
        }
      ],
      "stateMutability": "view",
      "type": "function"
    },
    {
      "inputs": [
        {
          "internalType": "uint256",
          "name": "index",
          "type": "uint256"
        }
      ],
      "name": "getSurveyByIndex",
      "outputs": [
        {
          "internalType": "string",
          "name": "",
          "type": "string"
        }
      ],
      "stateMutability": "view",
      "type": "function"
    },
    {
      "inputs": [],
      "name": "getSurveyCreationFee",
      "outputs": [
        {
          "internalType": "uint256",
          "name": "",
          "type": "uint256"
        }
      ],
      "stateMutability": "view",
      "type": "function"
    },
    {
      "inputs": [
        {
          "internalType": "uint256",
          "name": "surveyIndex",
          "type": "uint256"
        },
        {
          "internalType": "uint256",
          "name": "responseIndex",
          "type": "uint256"
        }
      ],
      "name": "getSurveyResponseDataByIndex",
      "outputs": [
        {
          "internalType": "string",
          "name": "",
          "type": "string"
        }
      ],
      "stateMutability": "view",
      "type": "function"
    },
    {
      "inputs": [
        {
          "internalType": "string",
          "name": "_surveyId",
          "type": "string"
        }
      ],
      "name": "getSurveyState",
      "outputs": [
        {
          "internalType": "enum Surpay.SurveyState",
          "name": "",
          "type": "uint8"
        }
      ],
      "stateMutability": "view",
      "type": "function"
    },
    {
      "inputs": [
        {
          "internalType": "uint256",
          "name": "surveyIndex",
          "type": "uint256"
        },
        {
          "internalType": "uint256",
          "name": "userIndex",
          "type": "uint256"
        }
      ],
      "name": "getSurveyTakerByIndex",
      "outputs": [
        {
          "internalType": "address",
          "name": "",
          "type": "address"
        }
      ],
      "stateMutability": "view",
      "type": "function"
    },
    {
      "inputs": [
        {
          "internalType": "bytes",
          "name": "",
          "type": "bytes"
        }
      ],
      "name": "performUpkeep",
      "outputs": [],
      "stateMutability": "nonpayable",
      "type": "function"
    },
    {
      "inputs": [
        {
          "internalType": "string",
          "name": "_surveyId",
          "type": "string"
        },
        {
          "internalType": "string",
          "name": "_surveyData",
          "type": "string"
        }
      ],
      "name": "sendUserSurveyData",
      "outputs": [],
      "stateMutability": "nonpayable",
      "type": "function"
    }
  ],
  "bytecode": "0x60c06040523480156200001157600080fd5b5060405162002c4338038062002c4383398181016040528101906200003791906200008f565b81608081815250508060a081815250505050620000d6565b600080fd5b6000819050919050565b620000698162000054565b81146200007557600080fd5b50565b60008151905062000089816200005e565b92915050565b60008060408385031215620000a957620000a86200004f565b5b6000620000b98582860162000078565b9250506020620000cc8582860162000078565b9150509250929050565b60805160a051612b406200010360003960006111d401526000818161133901526116930152612b406000f3fe6080604052600436106100c25760003560e01c806391ad27b41161007f578063ac9d6a2b11610059578063ac9d6a2b146102b3578063b374ff29146102cf578063bab26fd21461030c578063f320740314610337576100c2565b806391ad27b41461020e5780639f5922a714610239578063ab279df414610276576100c2565b80632b5f2325146100c75780634585e33b146101045780636e04ff0d1461012d57806377b5df8e1461016b5780637c37f315146101945780638beb80da146101d1575b600080fd5b3480156100d357600080fd5b506100ee60048036038101906100e99190611ef0565b610374565b6040516100fb9190611f2c565b60405180910390f35b34801561011057600080fd5b5061012b60048036038101906101269190611fac565b6103e6565b005b34801561013957600080fd5b50610154600480360381019061014f919061213a565b61083a565b60405161016292919061221d565b60405180910390f35b34801561017757600080fd5b50610192600480360381019061018d91906122ee565b610dba565b005b3480156101a057600080fd5b506101bb60048036038101906101b69190611ef0565b611144565b6040516101c89190611f2c565b60405180910390f35b3480156101dd57600080fd5b506101f860048036038101906101f39190611ef0565b6111a2565b6040516102059190611f2c565b60405180910390f35b34801561021a57600080fd5b506102236111d0565b6040516102309190611f2c565b60405180910390f35b34801561024557600080fd5b50610260600480360381019061025b9190612366565b6111f8565b60405161026d91906123e7565b60405180910390f35b34801561028257600080fd5b5061029d60048036038101906102989190612366565b611263565b6040516102aa9190612457565b60405180910390f35b6102cd60048036038101906102c89190612479565b611337565b005b3480156102db57600080fd5b506102f660048036038101906102f19190612518565b6115b2565b60405161030391906125d8565b60405180910390f35b34801561031857600080fd5b5061032161168f565b60405161032e9190611f2c565b60405180910390f35b34801561034357600080fd5b5061035e60048036038101906103599190611ef0565b6116b7565b60405161036b9190612457565b60405180910390f35b600080805490508210156103af5760008281548110610396576103956125f3565b5b90600052602060002090600a02016003015490506103e1565b6040517fb01e933700000000000000000000000000000000000000000000000000000000815260040160405180910390fd5b919050565b60006104006040518060200160405280600081525061083a565b50905080156108355760006001805480602002602001604051908101604052809291908181526020016000905b828210156107a457838290600052602060002090600a02016040518061014001604052908160008201805461046190612651565b80601f016020809104026020016040519081016040528092919081815260200182805461048d90612651565b80156104da5780601f106104af576101008083540402835291602001916104da565b820191906000526020600020905b8154815290600101906020018083116104bd57829003601f168201915b505050505081526020016001820180546104f390612651565b80601f016020809104026020016040519081016040528092919081815260200182805461051f90612651565b801561056c5780601f106105415761010080835404028352916020019161056c565b820191906000526020600020905b81548152906001019060200180831161054f57829003601f168201915b505050505081526020016002820160009054906101000a900473ffffffffffffffffffffffffffffffffffffffff1673ffffffffffffffffffffffffffffffffffffffff1673ffffffffffffffffffffffffffffffffffffffff16815260200160038201548152602001600482015481526020016005820154815260200160068201805480602002602001604051908101604052809291908181526020016000905b828210156106ba57838290600052602060002001805461062d90612651565b80601f016020809104026020016040519081016040528092919081815260200182805461065990612651565b80156106a65780601f1061067b576101008083540402835291602001916106a6565b820191906000526020600020905b81548152906001019060200180831161068957829003601f168201915b50505050508152602001906001019061060e565b5050505081526020016007820180548060200260200160405190810160405280929190818152602001828054801561074757602002820191906000526020600020905b8160009054906101000a900473ffffffffffffffffffffffffffffffffffffffff1673ffffffffffffffffffffffffffffffffffffffff16815260200190600101908083116106fd575b50505050508152602001600882015481526020016009820160009054906101000a900460ff16600181111561077f5761077e612561565b5b600181111561079157610790612561565b5b815250508152602001906001019061042d565b50505050905060005b8151811015610832576107bf816117b2565b8181815181106107d2576107d16125f3565b5b6020026020010151600001516040516107eb91906126be565b60405180910390207fa7998895d8d2e7856091bd8a5895a54d831c4d6c8bd8a8611ec2c1f873872fef60405160405180910390a2808061082a90612704565b9150506107ad565b50505b505050565b60006060600080805480602002602001604051908101604052809291908181526020016000905b82821015610bd857838290600052602060002090600a02016040518061014001604052908160008201805461089590612651565b80601f01602080910402602001604051908101604052809291908181526020018280546108c190612651565b801561090e5780601f106108e35761010080835404028352916020019161090e565b820191906000526020600020905b8154815290600101906020018083116108f157829003601f168201915b5050505050815260200160018201805461092790612651565b80601f016020809104026020016040519081016040528092919081815260200182805461095390612651565b80156109a05780601f10610975576101008083540402835291602001916109a0565b820191906000526020600020905b81548152906001019060200180831161098357829003601f168201915b505050505081526020016002820160009054906101000a900473ffffffffffffffffffffffffffffffffffffffff1673ffffffffffffffffffffffffffffffffffffffff1673ffffffffffffffffffffffffffffffffffffffff16815260200160038201548152602001600482015481526020016005820154815260200160068201805480602002602001604051908101604052809291908181526020016000905b82821015610aee578382906000526020600020018054610a6190612651565b80601f0160208091040260200160405190810160405280929190818152602001828054610a8d90612651565b8015610ada5780601f10610aaf57610100808354040283529160200191610ada565b820191906000526020600020905b815481529060010190602001808311610abd57829003601f168201915b505050505081526020019060010190610a42565b50505050815260200160078201805480602002602001604051908101604052809291908181526020018280548015610b7b57602002820191906000526020600020905b8160009054906101000a900473ffffffffffffffffffffffffffffffffffffffff1673ffffffffffffffffffffffffffffffffffffffff1681526020019060010190808311610b31575b50505050508152602001600882015481526020016009820160009054906101000a900460ff166001811115610bb357610bb2612561565b5b6001811115610bc557610bc4612561565b5b8152505081526020019060010190610861565b50505050905060005b8151811015610d9757600180811115610bfd57610bfc612561565b5b828281518110610c1057610c0f6125f3565b5b602002602001015161012001516001811115610c2f57610c2e612561565b5b03610d84576001828281518110610c4957610c486125f3565b5b602002602001015190806001815401808255809150506001900390600052602060002090600a02016000909190919091506000820151816000019081610c8f91906128f8565b506020820151816001019081610ca591906128f8565b5060408201518160020160006101000a81548173ffffffffffffffffffffffffffffffffffffffff021916908373ffffffffffffffffffffffffffffffffffffffff160217905550606082015181600301556080820151816004015560a0820151816005015560c0820151816006019080519060200190610d27929190611cc7565b5060e0820151816007019080519060200190610d44929190611d20565b5061010082015181600801556101208201518160090160006101000a81548160ff02191690836001811115610d7c57610d7b612561565b5b021790555050505b8080610d8f90612704565b915050610be1565b5060006001805490501115610daf5760019250610db4565b600092505b50915091565b60005b60008054905081101561113f5782604051602001610ddb91906126be565b6040516020818303038152906040528051906020012060008281548110610e0557610e046125f3565b5b90600052602060002090600a0201600001604051602001610e269190612a4d565b604051602081830303815290604052805190602001200361112c5760008181548110610e5557610e546125f3565b5b90600052602060002090600a02016005015460008281548110610e7b57610e7a6125f3565b5b90600052602060002090600a02016004015411156110fa5760008181548110610ea757610ea66125f3565b5b90600052602060002090600a020160060182908060018154018082558091505060019003906000526020600020016000909190919091509081610eea91906128f8565b5060008181548110610eff57610efe6125f3565b5b90600052602060002090600a0201600701339080600181540180825580915050600190039060005260206000200160009091909190916101000a81548173ffffffffffffffffffffffffffffffffffffffff021916908373ffffffffffffffffffffffffffffffffffffffff16021790555060008181548110610f8557610f846125f3565b5b90600052602060002090600a02016005016000815480929190610fa790612704565b919050555060008181548110610fc057610fbf6125f3565b5b90600052602060002090600a02016005015460008281548110610fe657610fe56125f3565b5b90600052602060002090600a020160040154036110b257600160008281548110611013576110126125f3565b5b90600052602060002090600a020160090160006101000a81548160ff0219169083600181111561104657611045612561565b5b02179055506000818154811061105f5761105e6125f3565b5b90600052602060002090600a020160000160405161107d9190612a4d565b60405180910390207fc9629617ac320e57fa622f79c211617de659a3b7cbdda927e47dea5e4c0ab4da60405160405180910390a25b3373ffffffffffffffffffffffffffffffffffffffff167f099cc064944e6569611b439843932fa853d46618d78ca5a8e3989bcc5614853d60405160405180910390a261113f565b6040517f13c8108e00000000000000000000000000000000000000000000000000000000815260040160405180910390fd5b808061113790612704565b915050610dbd565b505050565b6000808281548110611159576111586125f3565b5b90600052602060002090600a0201600401546000838154811061117f5761117e6125f3565b5b90600052602060002090600a02016003015461119b9190612a93565b9050919050565b60008082815481106111b7576111b66125f3565b5b90600052602060002090600a0201600801549050919050565b60007f0000000000000000000000000000000000000000000000000000000000000000905090565b600080838154811061120d5761120c6125f3565b5b90600052602060002090600a020160070182815481106112305761122f6125f3565b5b9060005260206000200160009054906101000a900473ffffffffffffffffffffffffffffffffffffffff16905092915050565b606060008381548110611279576112786125f3565b5b90600052602060002090600a0201600601828154811061129c5761129b6125f3565b5b9060005260206000200180546112b190612651565b80601f01602080910402602001604051908101604052809291908181526020018280546112dd90612651565b801561132a5780601f106112ff5761010080835404028352916020019161132a565b820191906000526020600020905b81548152906001019060200180831161130d57829003601f168201915b5050505050905092915050565b7f0000000000000000000000000000000000000000000000000000000000000000341015611391576040517fc09bb52500000000000000000000000000000000000000000000000000000000815260040160405180910390fd5b611399611daa565b84816000018190525083816020018190525033816040019073ffffffffffffffffffffffffffffffffffffffff16908173ffffffffffffffffffffffffffffffffffffffff1681525050828160600181815250508181608001818152505042816101000181815250506000816101200190600181111561141c5761141b612561565b5b908160018111156114305761142f612561565b5b8152505060008190806001815401808255809150506001900390600052602060002090600a0201600090919091909150600082015181600001908161147591906128f8565b50602082015181600101908161148b91906128f8565b5060408201518160020160006101000a81548173ffffffffffffffffffffffffffffffffffffffff021916908373ffffffffffffffffffffffffffffffffffffffff160217905550606082015181600301556080820151816004015560a0820151816005015560c082015181600601908051906020019061150d929190611cc7565b5060e082015181600701908051906020019061152a929190611d20565b5061010082015181600801556101208201518160090160006101000a81548160ff0219169083600181111561156257611561612561565b5b021790555050508460405161157791906126be565b60405180910390207fcc65c6fb1d804ba1dc418f9e3659483d310357279f035d45b8ea484fd6fe4a2f60405160405180910390a25050505050565b60008060005b60008054905081101561168557836040516020016115d691906126be565b6040516020818303038152906040528051906020012060008281548110611600576115ff6125f3565b5b90600052602060002090600a02016000016040516020016116219190612a4d565b604051602081830303815290604052805190602001200361167257600081815481106116505761164f6125f3565b5b90600052602060002090600a020160090160009054906101000a900460ff1691505b808061167d90612704565b9150506115b8565b5080915050919050565b60007f0000000000000000000000000000000000000000000000000000000000000000905090565b606060008054905082101561177b57600082815481106116da576116d96125f3565b5b90600052602060002090600a020160000180546116f690612651565b80601f016020809104026020016040519081016040528092919081815260200182805461172290612651565b801561176f5780601f106117445761010080835404028352916020019161176f565b820191906000526020600020905b81548152906001019060200180831161175257829003601f168201915b505050505090506117ad565b6040517fb01e933700000000000000000000000000000000000000000000000000000000815260040160405180910390fd5b919050565b60006001805480602002602001604051908101604052809291908181526020016000905b82821015611b4d57838290600052602060002090600a02016040518061014001604052908160008201805461180a90612651565b80601f016020809104026020016040519081016040528092919081815260200182805461183690612651565b80156118835780601f1061185857610100808354040283529160200191611883565b820191906000526020600020905b81548152906001019060200180831161186657829003601f168201915b5050505050815260200160018201805461189c90612651565b80601f01602080910402602001604051908101604052809291908181526020018280546118c890612651565b80156119155780601f106118ea57610100808354040283529160200191611915565b820191906000526020600020905b8154815290600101906020018083116118f857829003601f168201915b505050505081526020016002820160009054906101000a900473ffffffffffffffffffffffffffffffffffffffff1673ffffffffffffffffffffffffffffffffffffffff1673ffffffffffffffffffffffffffffffffffffffff16815260200160038201548152602001600482015481526020016005820154815260200160068201805480602002602001604051908101604052809291908181526020016000905b82821015611a635783829060005260206000200180546119d690612651565b80601f0160208091040260200160405190810160405280929190818152602001828054611a0290612651565b8015611a4f5780601f10611a2457610100808354040283529160200191611a4f565b820191906000526020600020905b815481529060010190602001808311611a3257829003601f168201915b5050505050815260200190600101906119b7565b50505050815260200160078201805480602002602001604051908101604052809291908181526020018280548015611af057602002820191906000526020600020905b8160009054906101000a900473ffffffffffffffffffffffffffffffffffffffff1673ffffffffffffffffffffffffffffffffffffffff1681526020019060010190808311611aa6575b50505050508152602001600882015481526020016009820160009054906101000a900460ff166001811115611b2857611b27612561565b5b6001811115611b3a57611b39612561565b5b81525050815260200190600101906117d6565b5050505090506000818381518110611b6857611b676125f3565b5b602002602001015160a00151828481518110611b8757611b866125f3565b5b602002602001015160600151611b9d9190612a93565b905060005b828481518110611bb557611bb46125f3565b5b602002602001015160e0015151811015611cc15747821015611cae576000838581518110611be657611be56125f3565b5b602002602001015160e001518281518110611c0457611c036125f3565b5b602002602001015173ffffffffffffffffffffffffffffffffffffffff1683604051611c2f90612af5565b60006040518083038185875af1925050503d8060008114611c6c576040519150601f19603f3d011682016040523d82523d6000602084013e611c71565b606091505b5050905080611cac576040517f09e6a19a00000000000000000000000000000000000000000000000000000000815260040160405180910390fd5b505b8080611cb990612704565b915050611ba2565b50505050565b828054828255906000526020600020908101928215611d0f579160200282015b82811115611d0e578251829081611cfe91906128f8565b5091602001919060010190611ce7565b5b509050611d1c9190611e25565b5090565b828054828255906000526020600020908101928215611d99579160200282015b82811115611d985782518260006101000a81548173ffffffffffffffffffffffffffffffffffffffff021916908373ffffffffffffffffffffffffffffffffffffffff16021790555091602001919060010190611d40565b5b509050611da69190611e49565b5090565b6040518061014001604052806060815260200160608152602001600073ffffffffffffffffffffffffffffffffffffffff16815260200160008152602001600081526020016000815260200160608152602001606081526020016000815260200160006001811115611e1f57611e1e612561565b5b81525090565b5b80821115611e455760008181611e3c9190611e66565b50600101611e26565b5090565b5b80821115611e62576000816000905550600101611e4a565b5090565b508054611e7290612651565b6000825580601f10611e845750611ea3565b601f016020900490600052602060002090810190611ea29190611e49565b5b50565b6000604051905090565b600080fd5b600080fd5b6000819050919050565b611ecd81611eba565b8114611ed857600080fd5b50565b600081359050611eea81611ec4565b92915050565b600060208284031215611f0657611f05611eb0565b5b6000611f1484828501611edb565b91505092915050565b611f2681611eba565b82525050565b6000602082019050611f416000830184611f1d565b92915050565b600080fd5b600080fd5b600080fd5b60008083601f840112611f6c57611f6b611f47565b5b8235905067ffffffffffffffff811115611f8957611f88611f4c565b5b602083019150836001820283011115611fa557611fa4611f51565b5b9250929050565b60008060208385031215611fc357611fc2611eb0565b5b600083013567ffffffffffffffff811115611fe157611fe0611eb5565b5b611fed85828601611f56565b92509250509250929050565b600080fd5b6000601f19601f8301169050919050565b7f4e487b7100000000000000000000000000000000000000000000000000000000600052604160045260246000fd5b61204782611ffe565b810181811067ffffffffffffffff821117156120665761206561200f565b5b80604052505050565b6000612079611ea6565b9050612085828261203e565b919050565b600067ffffffffffffffff8211156120a5576120a461200f565b5b6120ae82611ffe565b9050602081019050919050565b82818337600083830152505050565b60006120dd6120d88461208a565b61206f565b9050828152602081018484840111156120f9576120f8611ff9565b5b6121048482856120bb565b509392505050565b600082601f83011261212157612120611f47565b5b81356121318482602086016120ca565b91505092915050565b6000602082840312156121505761214f611eb0565b5b600082013567ffffffffffffffff81111561216e5761216d611eb5565b5b61217a8482850161210c565b91505092915050565b60008115159050919050565b61219881612183565b82525050565b600081519050919050565b600082825260208201905092915050565b60005b838110156121d85780820151818401526020810190506121bd565b60008484015250505050565b60006121ef8261219e565b6121f981856121a9565b93506122098185602086016121ba565b61221281611ffe565b840191505092915050565b6000604082019050612232600083018561218f565b818103602083015261224481846121e4565b90509392505050565b600067ffffffffffffffff8211156122685761226761200f565b5b61227182611ffe565b9050602081019050919050565b600061229161228c8461224d565b61206f565b9050828152602081018484840111156122ad576122ac611ff9565b5b6122b88482856120bb565b509392505050565b600082601f8301126122d5576122d4611f47565b5b81356122e584826020860161227e565b91505092915050565b6000806040838503121561230557612304611eb0565b5b600083013567ffffffffffffffff81111561232357612322611eb5565b5b61232f858286016122c0565b925050602083013567ffffffffffffffff8111156123505761234f611eb5565b5b61235c858286016122c0565b9150509250929050565b6000806040838503121561237d5761237c611eb0565b5b600061238b85828601611edb565b925050602061239c85828601611edb565b9150509250929050565b600073ffffffffffffffffffffffffffffffffffffffff82169050919050565b60006123d1826123a6565b9050919050565b6123e1816123c6565b82525050565b60006020820190506123fc60008301846123d8565b92915050565b600081519050919050565b600082825260208201905092915050565b600061242982612402565b612433818561240d565b93506124438185602086016121ba565b61244c81611ffe565b840191505092915050565b60006020820190508181036000830152612471818461241e565b905092915050565b6000806000806080858703121561249357612492611eb0565b5b600085013567ffffffffffffffff8111156124b1576124b0611eb5565b5b6124bd878288016122c0565b945050602085013567ffffffffffffffff8111156124de576124dd611eb5565b5b6124ea878288016122c0565b93505060406124fb87828801611edb565b925050606061250c87828801611edb565b91505092959194509250565b60006020828403121561252e5761252d611eb0565b5b600082013567ffffffffffffffff81111561254c5761254b611eb5565b5b612558848285016122c0565b91505092915050565b7f4e487b7100000000000000000000000000000000000000000000000000000000600052602160045260246000fd5b600281106125a1576125a0612561565b5b50565b60008190506125b282612590565b919050565b60006125c2826125a4565b9050919050565b6125d2816125b7565b82525050565b60006020820190506125ed60008301846125c9565b92915050565b7f4e487b7100000000000000000000000000000000000000000000000000000000600052603260045260246000fd5b7f4e487b7100000000000000000000000000000000000000000000000000000000600052602260045260246000fd5b6000600282049050600182168061266957607f821691505b60208210810361267c5761267b612622565b5b50919050565b600081905092915050565b600061269882612402565b6126a28185612682565b93506126b28185602086016121ba565b80840191505092915050565b60006126ca828461268d565b915081905092915050565b7f4e487b7100000000000000000000000000000000000000000000000000000000600052601160045260246000fd5b600061270f82611eba565b91507fffffffffffffffffffffffffffffffffffffffffffffffffffffffffffffffff8203612741576127406126d5565b5b600182019050919050565b60008190508160005260206000209050919050565b60006020601f8301049050919050565b600082821b905092915050565b6000600883026127ae7fffffffffffffffffffffffffffffffffffffffffffffffffffffffffffffffff82612771565b6127b88683612771565b95508019841693508086168417925050509392505050565b6000819050919050565b60006127f56127f06127eb84611eba565b6127d0565b611eba565b9050919050565b6000819050919050565b61280f836127da565b61282361281b826127fc565b84845461277e565b825550505050565b600090565b61283861282b565b612843818484612806565b505050565b5b818110156128675761285c600082612830565b600181019050612849565b5050565b601f8211156128ac5761287d8161274c565b61288684612761565b81016020851015612895578190505b6128a96128a185612761565b830182612848565b50505b505050565b600082821c905092915050565b60006128cf600019846008026128b1565b1980831691505092915050565b60006128e883836128be565b9150826002028217905092915050565b61290182612402565b67ffffffffffffffff81111561291a5761291961200f565b5b6129248254612651565b61292f82828561286b565b600060209050601f8311600181146129625760008415612950578287015190505b61295a85826128dc565b8655506129c2565b601f1984166129708661274c565b60005b8281101561299857848901518255600182019150602085019450602081019050612973565b868310156129b557848901516129b1601f8916826128be565b8355505b6001600288020188555050505b505050505050565b600081546129d781612651565b6129e18186612682565b945060018216600081146129fc5760018114612a1157612a44565b60ff1983168652811515820286019350612a44565b612a1a8561274c565b60005b83811015612a3c57815481890152600182019150602081019050612a1d565b838801955050505b50505092915050565b6000612a5982846129ca565b915081905092915050565b7f4e487b7100000000000000000000000000000000000000000000000000000000600052601260045260246000fd5b6000612a9e82611eba565b9150612aa983611eba565b925082612ab957612ab8612a64565b5b828204905092915050565b600081905092915050565b50565b6000612adf600083612ac4565b9150612aea82612acf565b600082019050919050565b6000612b0082612ad2565b915081905091905056fea2646970667358221220f2ccacec8e8ea680a23b49d37d00c4d856110e95f6eef16369d0ab4165b985d464736f6c63430008110033",
  "linkReferences": {},
  "deployedLinkReferences": {}
}