{
  "_format": "hh-sol-artifact-1",
  "contractName": "Surpay",
  "sourceName": "contracts/Surpay.sol",
  "abi": [
    {
      "inputs": [
        {
          "internalType": "uint256",
          "name": "_surveyCreationFee",
          "type": "uint256"
        },
        {
          "internalType": "uint256",
          "name": "_interval",
          "type": "uint256"
        }
      ],
      "stateMutability": "nonpayable",
      "type": "constructor"
    },
    {
      "inputs": [],
      "name": "Surpay__NotEnoughFunds",
      "type": "error"
    },
    {
      "inputs": [],
      "name": "Surpay__SurveyNotFound",
      "type": "error"
    },
    {
      "anonymous": false,
      "inputs": [
        {
          "indexed": true,
          "internalType": "string",
          "name": "surveyData",
          "type": "string"
        }
      ],
      "name": "SurveyCompleted",
      "type": "event"
    },
    {
      "anonymous": false,
      "inputs": [
        {
          "indexed": true,
          "internalType": "string",
          "name": "surveyId",
          "type": "string"
        }
      ],
      "name": "SurveyCreated",
      "type": "event"
    },
    {
      "anonymous": false,
      "inputs": [
        {
          "indexed": true,
          "internalType": "address",
          "name": "paidSurveyTaker",
          "type": "address"
        }
      ],
      "name": "SurveyTakerPaid",
      "type": "event"
    },
    {
      "inputs": [
        {
          "internalType": "bytes",
          "name": "",
          "type": "bytes"
        }
      ],
      "name": "checkUpkeep",
      "outputs": [
        {
          "internalType": "bool",
          "name": "upkeepNeeded",
          "type": "bool"
        },
        {
          "internalType": "bytes",
          "name": "",
          "type": "bytes"
        }
      ],
      "stateMutability": "nonpayable",
      "type": "function"
    },
    {
      "inputs": [
        {
          "internalType": "string",
          "name": "_surveyId",
          "type": "string"
        },
        {
          "internalType": "string",
          "name": "_companyId",
          "type": "string"
        },
        {
          "internalType": "uint256",
          "name": "_totalPayoutAmount",
          "type": "uint256"
        },
        {
          "internalType": "uint256",
          "name": "_numOfParticipantsDesired",
          "type": "uint256"
        }
      ],
      "name": "createSurvey",
      "outputs": [],
      "stateMutability": "payable",
      "type": "function"
    },
    {
      "inputs": [],
      "name": "getInterval",
      "outputs": [
        {
          "internalType": "uint256",
          "name": "",
          "type": "uint256"
        }
      ],
      "stateMutability": "view",
      "type": "function"
    },
    {
      "inputs": [
        {
          "internalType": "uint256",
          "name": "index",
          "type": "uint256"
        }
      ],
      "name": "getPayoutByIndex",
      "outputs": [
        {
          "internalType": "uint256",
          "name": "",
          "type": "uint256"
        }
      ],
      "stateMutability": "view",
      "type": "function"
    },
    {
      "inputs": [
        {
          "internalType": "uint256",
          "name": "index",
          "type": "uint256"
        }
      ],
      "name": "getSurveyByIndex",
      "outputs": [
        {
          "internalType": "string",
          "name": "",
          "type": "string"
        }
      ],
      "stateMutability": "view",
      "type": "function"
    },
    {
      "inputs": [],
      "name": "getSurveyCreationFee",
      "outputs": [
        {
          "internalType": "uint256",
          "name": "",
          "type": "uint256"
        }
      ],
      "stateMutability": "view",
      "type": "function"
    },
    {
      "inputs": [
        {
          "internalType": "string",
          "name": "_surveyId",
          "type": "string"
        }
      ],
      "name": "getSurveyState",
      "outputs": [
        {
          "internalType": "enum Surpay.SurveyState",
          "name": "",
          "type": "uint8"
        }
      ],
      "stateMutability": "view",
      "type": "function"
    },
    {
      "inputs": [
        {
          "internalType": "bytes",
          "name": "",
          "type": "bytes"
        }
      ],
      "name": "performUpkeep",
      "outputs": [],
      "stateMutability": "nonpayable",
      "type": "function"
    },
    {
      "inputs": [
        {
          "internalType": "string",
          "name": "_surveyId",
          "type": "string"
        },
        {
          "internalType": "string",
          "name": "_surveyData",
          "type": "string"
        }
      ],
      "name": "sendUserSurveyData",
      "outputs": [],
      "stateMutability": "nonpayable",
      "type": "function"
    }
  ],
  "bytecode": "0x60c06040523480156200001157600080fd5b5060405162001cc538038062001cc583398181016040528101906200003791906200008f565b81608081815250508060a081815250505050620000d6565b600080fd5b6000819050919050565b620000698162000054565b81146200007557600080fd5b50565b60008151905062000089816200005e565b92915050565b60008060408385031215620000a957620000a86200004f565b5b6000620000b98582860162000078565b9250506020620000cc8582860162000078565b9150509250929050565b60805160a051611bc2620001036000396000610a09015260008181610a2f0152610d730152611bc26000f3fe6080604052600436106100865760003560e01c806391ad27b41161005957806391ad27b414610158578063ac9d6a2b14610183578063b374ff291461019f578063bab26fd2146101dc578063f32074031461020757610086565b80632b5f23251461008b5780634585e33b146100c85780636e04ff0d146100f157806377b5df8e1461012f575b600080fd5b34801561009757600080fd5b506100b260048036038101906100ad91906110b4565b610244565b6040516100bf91906110f0565b60405180910390f35b3480156100d457600080fd5b506100ef60048036038101906100ea9190611170565b6102b6565b005b3480156100fd57600080fd5b50610118600480360381019061011391906112fe565b6102d8565b6040516101269291906113e1565b60405180910390f35b34801561013b57600080fd5b50610156600480360381019061015191906114b2565b610887565b005b34801561016457600080fd5b5061016d610a05565b60405161017a91906110f0565b60405180910390f35b61019d6004803603810190610198919061152a565b610a2d565b005b3480156101ab57600080fd5b506101c660048036038101906101c191906115c9565b610c92565b6040516101d39190611689565b60405180910390f35b3480156101e857600080fd5b506101f1610d6f565b6040516101fe91906110f0565b60405180910390f35b34801561021357600080fd5b5061022e600480360381019061022991906110b4565b610d97565b60405161023b91906116f9565b60405180910390f35b6000808054905082101561027f57600082815481106102665761026561171b565b5b90600052602060002090600902016003015490506102b1565b6040517fb01e933700000000000000000000000000000000000000000000000000000000815260040160405180910390fd5b919050565b60006102d0604051806020016040528060008152506102d8565b509050505050565b60006060600080805480602002602001604051908101604052809291908181526020016000905b8282101561066c57838290600052602060002090600902016040518061012001604052908160008201805461033390611779565b80601f016020809104026020016040519081016040528092919081815260200182805461035f90611779565b80156103ac5780601f10610381576101008083540402835291602001916103ac565b820191906000526020600020905b81548152906001019060200180831161038f57829003601f168201915b505050505081526020016001820180546103c590611779565b80601f01602080910402602001604051908101604052809291908181526020018280546103f190611779565b801561043e5780601f106104135761010080835404028352916020019161043e565b820191906000526020600020905b81548152906001019060200180831161042157829003601f168201915b505050505081526020016002820160009054906101000a900473ffffffffffffffffffffffffffffffffffffffff1673ffffffffffffffffffffffffffffffffffffffff1673ffffffffffffffffffffffffffffffffffffffff16815260200160038201548152602001600482015481526020016005820154815260200160068201805480602002602001604051908101604052809291908181526020016000905b8282101561058c5783829060005260206000200180546104ff90611779565b80601f016020809104026020016040519081016040528092919081815260200182805461052b90611779565b80156105785780601f1061054d57610100808354040283529160200191610578565b820191906000526020600020905b81548152906001019060200180831161055b57829003601f168201915b5050505050815260200190600101906104e0565b5050505081526020016007820180548060200260200160405190810160405280929190818152602001828054801561061957602002820191906000526020600020905b8160009054906101000a900473ffffffffffffffffffffffffffffffffffffffff1673ffffffffffffffffffffffffffffffffffffffff16815260200190600101908083116105cf575b505050505081526020016008820160009054906101000a900460ff16600281111561064757610646611612565b5b600281111561065957610658611612565b5b81525050815260200190600101906102ff565b50505050905060005b815181101561086d576001600281111561069257610691611612565b5b8282815181106106a5576106a461171b565b5b6020026020010151610100015160028111156106c4576106c3611612565b5b0361085a5760018282815181106106de576106dd61171b565b5b6020026020010151908060018154018082558091505060019003906000526020600020906009020160009091909190915060008201518160000190816107249190611956565b50602082015181600101908161073a9190611956565b5060408201518160020160006101000a81548173ffffffffffffffffffffffffffffffffffffffff021916908373ffffffffffffffffffffffffffffffffffffffff160217905550606082015181600301556080820151816004015560a0820151816005015560c08201518160060190805190602001906107bc929190610e92565b5060e08201518160070190805190602001906107d9929190610eeb565b506101008201518160080160006101000a81548160ff0219169083600281111561080657610805611612565b5b0217905550505060028282815181106108225761082161171b565b5b60200260200101516101000190600281111561084157610840611612565b5b9081600281111561085557610854611612565b5b815250505b808061086590611a57565b915050610675565b506000600180549050111561088157600192505b50915091565b60005b600080549050811015610a0057826040516020016108a89190611adb565b60405160208183030381529060405280519060200120600082815481106108d2576108d161171b565b5b90600052602060002090600902016000016040516020016108f39190611b75565b60405160208183030381529060405280519060200120036109ed57600081815481106109225761092161171b565b5b9060005260206000209060090201600601829080600181540180825580915050600190039060005260206000200160009091909190915090816109659190611956565b506000818154811061097a5761097961171b565b5b9060005260206000209060090201600701339080600181540180825580915050600190039060005260206000200160009091909190916101000a81548173ffffffffffffffffffffffffffffffffffffffff021916908373ffffffffffffffffffffffffffffffffffffffff1602179055505b80806109f890611a57565b91505061088a565b505050565b60007f0000000000000000000000000000000000000000000000000000000000000000905090565b7f0000000000000000000000000000000000000000000000000000000000000000341015610a87576040517fc09bb52500000000000000000000000000000000000000000000000000000000815260040160405180910390fd5b610a8f610f75565b84816000018190525083816020018190525033816040019073ffffffffffffffffffffffffffffffffffffffff16908173ffffffffffffffffffffffffffffffffffffffff1681525050828160600181815250508181608001818152505060008161010001906002811115610b0757610b06611612565b5b90816002811115610b1b57610b1a611612565b5b8152505060008190806001815401808255809150506001900390600052602060002090600902016000909190919091506000820151816000019081610b609190611956565b506020820151816001019081610b769190611956565b5060408201518160020160006101000a81548173ffffffffffffffffffffffffffffffffffffffff021916908373ffffffffffffffffffffffffffffffffffffffff160217905550606082015181600301556080820151816004015560a0820151816005015560c0820151816006019080519060200190610bf8929190610e92565b5060e0820151816007019080519060200190610c15929190610eeb565b506101008201518160080160006101000a81548160ff02191690836002811115610c4257610c41611612565b5b0217905550505084604051610c579190611adb565b60405180910390207fcc65c6fb1d804ba1dc418f9e3659483d310357279f035d45b8ea484fd6fe4a2f60405160405180910390a25050505050565b60008060005b600080549050811015610d655783604051602001610cb69190611adb565b6040516020818303038152906040528051906020012060008281548110610ce057610cdf61171b565b5b9060005260206000209060090201600001604051602001610d019190611b75565b6040516020818303038152906040528051906020012003610d525760008181548110610d3057610d2f61171b565b5b906000526020600020906009020160080160009054906101000a900460ff1691505b8080610d5d90611a57565b915050610c98565b5080915050919050565b60007f0000000000000000000000000000000000000000000000000000000000000000905090565b6060600080549050821015610e5b5760008281548110610dba57610db961171b565b5b90600052602060002090600902016000018054610dd690611779565b80601f0160208091040260200160405190810160405280929190818152602001828054610e0290611779565b8015610e4f5780601f10610e2457610100808354040283529160200191610e4f565b820191906000526020600020905b815481529060010190602001808311610e3257829003601f168201915b50505050509050610e8d565b6040517fb01e933700000000000000000000000000000000000000000000000000000000815260040160405180910390fd5b919050565b828054828255906000526020600020908101928215610eda579160200282015b82811115610ed9578251829081610ec99190611956565b5091602001919060010190610eb2565b5b509050610ee79190610fe9565b5090565b828054828255906000526020600020908101928215610f64579160200282015b82811115610f635782518260006101000a81548173ffffffffffffffffffffffffffffffffffffffff021916908373ffffffffffffffffffffffffffffffffffffffff16021790555091602001919060010190610f0b565b5b509050610f71919061100d565b5090565b6040518061012001604052806060815260200160608152602001600073ffffffffffffffffffffffffffffffffffffffff168152602001600081526020016000815260200160008152602001606081526020016060815260200160006002811115610fe357610fe2611612565b5b81525090565b5b808211156110095760008181611000919061102a565b50600101610fea565b5090565b5b8082111561102657600081600090555060010161100e565b5090565b50805461103690611779565b6000825580601f106110485750611067565b601f016020900490600052602060002090810190611066919061100d565b5b50565b6000604051905090565b600080fd5b600080fd5b6000819050919050565b6110918161107e565b811461109c57600080fd5b50565b6000813590506110ae81611088565b92915050565b6000602082840312156110ca576110c9611074565b5b60006110d88482850161109f565b91505092915050565b6110ea8161107e565b82525050565b600060208201905061110560008301846110e1565b92915050565b600080fd5b600080fd5b600080fd5b60008083601f8401126111305761112f61110b565b5b8235905067ffffffffffffffff81111561114d5761114c611110565b5b60208301915083600182028301111561116957611168611115565b5b9250929050565b6000806020838503121561118757611186611074565b5b600083013567ffffffffffffffff8111156111a5576111a4611079565b5b6111b18582860161111a565b92509250509250929050565b600080fd5b6000601f19601f8301169050919050565b7f4e487b7100000000000000000000000000000000000000000000000000000000600052604160045260246000fd5b61120b826111c2565b810181811067ffffffffffffffff8211171561122a576112296111d3565b5b80604052505050565b600061123d61106a565b90506112498282611202565b919050565b600067ffffffffffffffff821115611269576112686111d3565b5b611272826111c2565b9050602081019050919050565b82818337600083830152505050565b60006112a161129c8461124e565b611233565b9050828152602081018484840111156112bd576112bc6111bd565b5b6112c884828561127f565b509392505050565b600082601f8301126112e5576112e461110b565b5b81356112f584826020860161128e565b91505092915050565b60006020828403121561131457611313611074565b5b600082013567ffffffffffffffff81111561133257611331611079565b5b61133e848285016112d0565b91505092915050565b60008115159050919050565b61135c81611347565b82525050565b600081519050919050565b600082825260208201905092915050565b60005b8381101561139c578082015181840152602081019050611381565b60008484015250505050565b60006113b382611362565b6113bd818561136d565b93506113cd81856020860161137e565b6113d6816111c2565b840191505092915050565b60006040820190506113f66000830185611353565b818103602083015261140881846113a8565b90509392505050565b600067ffffffffffffffff82111561142c5761142b6111d3565b5b611435826111c2565b9050602081019050919050565b600061145561145084611411565b611233565b905082815260208101848484011115611471576114706111bd565b5b61147c84828561127f565b509392505050565b600082601f8301126114995761149861110b565b5b81356114a9848260208601611442565b91505092915050565b600080604083850312156114c9576114c8611074565b5b600083013567ffffffffffffffff8111156114e7576114e6611079565b5b6114f385828601611484565b925050602083013567ffffffffffffffff81111561151457611513611079565b5b61152085828601611484565b9150509250929050565b6000806000806080858703121561154457611543611074565b5b600085013567ffffffffffffffff81111561156257611561611079565b5b61156e87828801611484565b945050602085013567ffffffffffffffff81111561158f5761158e611079565b5b61159b87828801611484565b93505060406115ac8782880161109f565b92505060606115bd8782880161109f565b91505092959194509250565b6000602082840312156115df576115de611074565b5b600082013567ffffffffffffffff8111156115fd576115fc611079565b5b61160984828501611484565b91505092915050565b7f4e487b7100000000000000000000000000000000000000000000000000000000600052602160045260246000fd5b6003811061165257611651611612565b5b50565b600081905061166382611641565b919050565b600061167382611655565b9050919050565b61168381611668565b82525050565b600060208201905061169e600083018461167a565b92915050565b600081519050919050565b600082825260208201905092915050565b60006116cb826116a4565b6116d581856116af565b93506116e581856020860161137e565b6116ee816111c2565b840191505092915050565b6000602082019050818103600083015261171381846116c0565b905092915050565b7f4e487b7100000000000000000000000000000000000000000000000000000000600052603260045260246000fd5b7f4e487b7100000000000000000000000000000000000000000000000000000000600052602260045260246000fd5b6000600282049050600182168061179157607f821691505b6020821081036117a4576117a361174a565b5b50919050565b60008190508160005260206000209050919050565b60006020601f8301049050919050565b600082821b905092915050565b60006008830261180c7fffffffffffffffffffffffffffffffffffffffffffffffffffffffffffffffff826117cf565b61181686836117cf565b95508019841693508086168417925050509392505050565b6000819050919050565b600061185361184e6118498461107e565b61182e565b61107e565b9050919050565b6000819050919050565b61186d83611838565b6118816118798261185a565b8484546117dc565b825550505050565b600090565b611896611889565b6118a1818484611864565b505050565b5b818110156118c5576118ba60008261188e565b6001810190506118a7565b5050565b601f82111561190a576118db816117aa565b6118e4846117bf565b810160208510156118f3578190505b6119076118ff856117bf565b8301826118a6565b50505b505050565b600082821c905092915050565b600061192d6000198460080261190f565b1980831691505092915050565b6000611946838361191c565b9150826002028217905092915050565b61195f826116a4565b67ffffffffffffffff811115611978576119776111d3565b5b6119828254611779565b61198d8282856118c9565b600060209050601f8311600181146119c057600084156119ae578287015190505b6119b8858261193a565b865550611a20565b601f1984166119ce866117aa565b60005b828110156119f6578489015182556001820191506020850194506020810190506119d1565b86831015611a135784890151611a0f601f89168261191c565b8355505b6001600288020188555050505b505050505050565b7f4e487b7100000000000000000000000000000000000000000000000000000000600052601160045260246000fd5b6000611a628261107e565b91507fffffffffffffffffffffffffffffffffffffffffffffffffffffffffffffffff8203611a9457611a93611a28565b5b600182019050919050565b600081905092915050565b6000611ab5826116a4565b611abf8185611a9f565b9350611acf81856020860161137e565b80840191505092915050565b6000611ae78284611aaa565b915081905092915050565b60008154611aff81611779565b611b098186611a9f565b94506001821660008114611b245760018114611b3957611b6c565b60ff1983168652811515820286019350611b6c565b611b42856117aa565b60005b83811015611b6457815481890152600182019150602081019050611b45565b838801955050505b50505092915050565b6000611b818284611af2565b91508190509291505056fea2646970667358221220ab8b4e1b549eaaa39afafbb5cd3e258931d8ecc2aff2afe14af8bca0a2c81b9d64736f6c63430008110033",
  "linkReferences": {},
  "deployedLinkReferences": {}
}