{
  "_format": "hh-sol-artifact-1",
  "contractName": "Surpay",
  "sourceName": "contracts/Surpay.sol",
  "abi": [
    {
      "inputs": [
        {
          "internalType": "uint256",
          "name": "_surveyCreationFee",
          "type": "uint256"
        },
        {
          "internalType": "uint256",
          "name": "_interval",
          "type": "uint256"
        }
      ],
      "stateMutability": "nonpayable",
      "type": "constructor"
    },
    {
      "inputs": [],
      "name": "Surpay__MaximumRespondantsReached",
      "type": "error"
    },
    {
      "inputs": [],
      "name": "Surpay__NotEnoughFunds",
      "type": "error"
    },
    {
      "inputs": [],
      "name": "Surpay__SurveyNotFound",
      "type": "error"
    },
    {
      "inputs": [],
      "name": "Surpay__TransferFailed",
      "type": "error"
    },
    {
      "anonymous": false,
      "inputs": [
        {
          "indexed": true,
          "internalType": "string",
          "name": "surveyId",
          "type": "string"
        }
      ],
      "name": "SurveyCompleted",
      "type": "event"
    },
    {
      "anonymous": false,
      "inputs": [
        {
          "indexed": true,
          "internalType": "string",
          "name": "surveyId",
          "type": "string"
        }
      ],
      "name": "SurveyCreated",
      "type": "event"
    },
    {
      "anonymous": false,
      "inputs": [
        {
          "indexed": true,
          "internalType": "string",
          "name": "surveyId",
          "type": "string"
        }
      ],
      "name": "SurveyTakersPaid",
      "type": "event"
    },
    {
      "anonymous": false,
      "inputs": [
        {
          "indexed": true,
          "internalType": "address",
          "name": "surveyTaker",
          "type": "address"
        }
      ],
      "name": "UserAddedToSurvey",
      "type": "event"
    },
    {
      "inputs": [
        {
          "internalType": "bytes",
          "name": "",
          "type": "bytes"
        }
      ],
      "name": "checkUpkeep",
      "outputs": [
        {
          "internalType": "bool",
          "name": "upkeepNeeded",
          "type": "bool"
        },
        {
          "internalType": "bytes",
          "name": "",
          "type": "bytes"
        }
      ],
      "stateMutability": "nonpayable",
      "type": "function"
    },
    {
      "inputs": [
        {
          "internalType": "string",
          "name": "_surveyId",
          "type": "string"
        },
        {
          "internalType": "string",
          "name": "_companyId",
          "type": "string"
        },
        {
          "internalType": "uint256",
          "name": "_totalPayoutAmount",
          "type": "uint256"
        },
        {
          "internalType": "uint256",
          "name": "_numOfParticipantsDesired",
          "type": "uint256"
        }
      ],
      "name": "createSurvey",
      "outputs": [],
      "stateMutability": "payable",
      "type": "function"
    },
    {
      "inputs": [
        {
          "internalType": "string",
          "name": "surveyId",
          "type": "string"
        }
      ],
      "name": "getCompanyId",
      "outputs": [
        {
          "internalType": "string",
          "name": "",
          "type": "string"
        }
      ],
      "stateMutability": "view",
      "type": "function"
    },
    {
      "inputs": [],
      "name": "getInterval",
      "outputs": [
        {
          "internalType": "uint256",
          "name": "",
          "type": "uint256"
        }
      ],
      "stateMutability": "view",
      "type": "function"
    },
    {
      "inputs": [
        {
          "internalType": "string",
          "name": "surveyId",
          "type": "string"
        }
      ],
      "name": "getLastTimeStamp",
      "outputs": [
        {
          "internalType": "uint256",
          "name": "",
          "type": "uint256"
        }
      ],
      "stateMutability": "view",
      "type": "function"
    },
    {
      "inputs": [
        {
          "internalType": "string",
          "name": "surveyId",
          "type": "string"
        }
      ],
      "name": "getPayoutPerPersonBySurveyId",
      "outputs": [
        {
          "internalType": "uint256",
          "name": "",
          "type": "uint256"
        }
      ],
      "stateMutability": "view",
      "type": "function"
    },
    {
      "inputs": [],
      "name": "getSurveyCreationFee",
      "outputs": [
        {
          "internalType": "uint256",
          "name": "",
          "type": "uint256"
        }
      ],
      "stateMutability": "view",
      "type": "function"
    },
    {
      "inputs": [
        {
          "internalType": "string",
          "name": "_surveyId",
          "type": "string"
        }
      ],
      "name": "getSurveyPayoutAmount",
      "outputs": [
        {
          "internalType": "uint256",
          "name": "",
          "type": "uint256"
        }
      ],
      "stateMutability": "view",
      "type": "function"
    },
    {
      "inputs": [
        {
          "internalType": "string",
          "name": "surveyId",
          "type": "string"
        },
        {
          "internalType": "uint256",
          "name": "responseIndex",
          "type": "uint256"
        }
      ],
      "name": "getSurveyResponseData",
      "outputs": [
        {
          "internalType": "string",
          "name": "",
          "type": "string"
        }
      ],
      "stateMutability": "view",
      "type": "function"
    },
    {
      "inputs": [
        {
          "internalType": "string",
          "name": "_surveyId",
          "type": "string"
        }
      ],
      "name": "getSurveyState",
      "outputs": [
        {
          "internalType": "enum Surpay.SurveyState",
          "name": "",
          "type": "uint8"
        }
      ],
      "stateMutability": "view",
      "type": "function"
    },
    {
      "inputs": [
        {
          "internalType": "string",
          "name": "surveyId",
          "type": "string"
        },
        {
          "internalType": "uint256",
          "name": "userIndex",
          "type": "uint256"
        }
      ],
      "name": "getSurveyTaker",
      "outputs": [
        {
          "internalType": "address",
          "name": "",
          "type": "address"
        }
      ],
      "stateMutability": "view",
      "type": "function"
    },
    {
      "inputs": [
        {
          "internalType": "bytes",
          "name": "",
          "type": "bytes"
        }
      ],
      "name": "performUpkeep",
      "outputs": [],
      "stateMutability": "nonpayable",
      "type": "function"
    },
    {
      "inputs": [
        {
          "internalType": "string",
          "name": "_surveyId",
          "type": "string"
        },
        {
          "internalType": "string",
          "name": "_surveyData",
          "type": "string"
        }
      ],
      "name": "sendUserSurveyData",
      "outputs": [],
      "stateMutability": "nonpayable",
      "type": "function"
    }
  ],
  "bytecode": "0x60c06040523480156200001157600080fd5b50604051620021563803806200215683398181016040528101906200003791906200008f565b81608081815250508060a081815250505050620000d6565b600080fd5b6000819050919050565b620000698162000054565b81146200007557600080fd5b50565b60008151905062000089816200005e565b92915050565b60008060408385031215620000a957620000a86200004f565b5b6000620000b98582860162000078565b9250506020620000cc8582860162000078565b9150509250929050565b60805160a051612053620001036000396000610a85015260008181610b360152610e1e01526120536000f3fe6080604052600436106100c25760003560e01c806391ad27b41161007f578063b374ff2911610059578063b374ff2914610292578063bab26fd2146102cf578063e1744d72146102fa578063e74b36df14610337576100c2565b806391ad27b41461020e5780639759ac3614610239578063ac9d6a2b14610276576100c2565b806312998301146100c757806324405aa9146101045780634585e33b14610141578063653cba7d1461016a5780636e04ff0d146101a757806377b5df8e146101e5575b600080fd5b3480156100d357600080fd5b506100ee60048036038101906100e991906115f4565b610374565b6040516100fb9190611691565b60405180910390f35b34801561011057600080fd5b5061012b600480360381019061012691906115f4565b61043c565b604051610138919061172b565b60405180910390f35b34801561014d57600080fd5b50610168600480360381019061016391906117ad565b61056c565b005b34801561017657600080fd5b50610191600480360381019061018c91906117fa565b6106f1565b60405161019e9190611852565b60405180910390f35b3480156101b357600080fd5b506101ce60048036038101906101c9919061190e565b61077c565b6040516101dc9291906119c7565b60405180910390f35b3480156101f157600080fd5b5061020c600480360381019061020791906119f7565b6107a1565b005b34801561021a57600080fd5b50610223610a81565b6040516102309190611852565b60405180910390f35b34801561024557600080fd5b50610260600480360381019061025b91906117fa565b610aa9565b60405161026d9190611852565b60405180910390f35b610290600480360381019061028b9190611a6f565b610b34565b005b34801561029e57600080fd5b506102b960048036038101906102b491906117fa565b610d82565b6040516102c69190611b85565b60405180910390f35b3480156102db57600080fd5b506102e4610e1a565b6040516102f19190611852565b60405180910390f35b34801561030657600080fd5b50610321600480360381019061031c91906117fa565b610e42565b60405161032e919061172b565b60405180910390f35b34801561034357600080fd5b5061035e600480360381019061035991906117fa565b610ef5565b60405161036b9190611852565b60405180910390f35b6000806000846040516103879190611bdc565b9081526020016040518091039020600301541115610404576000836040516103af9190611bdc565b908152602001604051809103902060060182815481106103d2576103d1611bf3565b5b9060005260206000200160009054906101000a900473ffffffffffffffffffffffffffffffffffffffff169050610436565b6040517fb01e933700000000000000000000000000000000000000000000000000000000815260040160405180910390fd5b92915050565b60606000808460405161044f9190611bdc565b9081526020016040518091039020600301541115610534576000836040516104779190611bdc565b9081526020016040518091039020600501828154811061049a57610499611bf3565b5b9060005260206000200180546104af90611c51565b80601f01602080910402602001604051908101604052809291908181526020018280546104db90611c51565b80156105285780601f106104fd57610100808354040283529160200191610528565b820191906000526020600020905b81548152906001019060200180831161050b57829003601f168201915b50505050509050610566565b6040517fb01e933700000000000000000000000000000000000000000000000000000000815260040160405180910390fd5b92915050565b60006105866040518060200160405280600081525061077c565b50905080156106ec5760006001805480602002602001604051908101604052809291908181526020016000905b8282101561065f5783829060005260206000200180546105d290611c51565b80601f01602080910402602001604051908101604052809291908181526020018280546105fe90611c51565b801561064b5780601f106106205761010080835404028352916020019161064b565b820191906000526020600020905b81548152906001019060200180831161062e57829003601f168201915b5050505050815260200190600101906105b3565b50505050905060005b81518110156106e95761067a81610fac565b81818151811061068d5761068c611bf3565b5b60200260200101516040516106a29190611bdc565b60405180910390207fa7998895d8d2e7856091bd8a5895a54d831c4d6c8bd8a8611ec2c1f873872fef60405160405180910390a280806106e190611cb1565b915050610668565b50505b505050565b6000806000836040516107049190611bdc565b90815260200160405180910390206003015411156107455760008260405161072c9190611bdc565b9081526020016040518091039020600701549050610777565b6040517fb01e933700000000000000000000000000000000000000000000000000000000815260040160405180910390fd5b919050565b6000606060006001805490501115610797576001915061079c565b600091505b915091565b6000826040516107b19190611bdc565b9081526020016040518091039020600401546000836040516107d39190611bdc565b9081526020016040518091039020600301541115610a4b576000826040516107fb9190611bdc565b90815260200160405180910390206005018190806001815401808255809150506001900390600052602060002001600090919091909150908161083e9190611ea5565b5060008260405161084f9190611bdc565b9081526020016040518091039020600601339080600181540180825580915050600190039060005260206000200160009091909190916101000a81548173ffffffffffffffffffffffffffffffffffffffff021916908373ffffffffffffffffffffffffffffffffffffffff1602179055506000826040516108d19190611bdc565b908152602001604051809103902060040160008154809291906108f390611cb1565b91905055506000826040516109089190611bdc565b90815260200160405180910390206004015460008360405161092a9190611bdc565b90815260200160405180910390206003015403610a035760016000836040516109539190611bdc565b908152602001604051809103902060080160006101000a81548160ff0219169083600181111561098657610985611b0e565b5b02179055506001829080600181540180825580915050600190039060005260206000200160009091909190915090816109bf9190611ea5565b50816040516109ce9190611bdc565b60405180910390207fc9629617ac320e57fa622f79c211617de659a3b7cbdda927e47dea5e4c0ab4da60405160405180910390a25b3373ffffffffffffffffffffffffffffffffffffffff167f099cc064944e6569611b439843932fa853d46618d78ca5a8e3989bcc5614853d60405160405180910390a2610a7d565b6040517f13c8108e00000000000000000000000000000000000000000000000000000000815260040160405180910390fd5b5050565b60007f0000000000000000000000000000000000000000000000000000000000000000905090565b600080600083604051610abc9190611bdc565b9081526020016040518091039020600301541115610afd57600082604051610ae49190611bdc565b9081526020016040518091039020600201549050610b2f565b6040517fb01e933700000000000000000000000000000000000000000000000000000000815260040160405180910390fd5b919050565b7f0000000000000000000000000000000000000000000000000000000000000000341015610b8e576040517fc09bb52500000000000000000000000000000000000000000000000000000000815260040160405180910390fd5b610b9661128c565b83816000018190525033816020019073ffffffffffffffffffffffffffffffffffffffff16908173ffffffffffffffffffffffffffffffffffffffff16815250508281604001818152505081816060018181525050428160e001818152505060008161010001906001811115610c0f57610c0e611b0e565b5b90816001811115610c2357610c22611b0e565b5b8152505080600086604051610c389190611bdc565b90815260200160405180910390206000820151816000019081610c5b9190611ea5565b5060208201518160010160006101000a81548173ffffffffffffffffffffffffffffffffffffffff021916908373ffffffffffffffffffffffffffffffffffffffff16021790555060408201518160020155606082015181600301556080820151816004015560a0820151816005019080519060200190610cdd929190611300565b5060c0820151816006019080519060200190610cfa929190611359565b5060e082015181600701556101008201518160080160006101000a81548160ff02191690836001811115610d3157610d30611b0e565b5b021790555090505084604051610d479190611bdc565b60405180910390207fcc65c6fb1d804ba1dc418f9e3659483d310357279f035d45b8ea484fd6fe4a2f60405160405180910390a25050505050565b600080600083604051610d959190611bdc565b9081526020016040518091039020600301541115610de357600082604051610dbd9190611bdc565b908152602001604051809103902060080160009054906101000a900460ff169050610e15565b6040517fb01e933700000000000000000000000000000000000000000000000000000000815260040160405180910390fd5b919050565b60007f0000000000000000000000000000000000000000000000000000000000000000905090565b6060600082604051610e549190611bdc565b90815260200160405180910390206000018054610e7090611c51565b80601f0160208091040260200160405190810160405280929190818152602001828054610e9c90611c51565b8015610ee95780601f10610ebe57610100808354040283529160200191610ee9565b820191906000526020600020905b815481529060010190602001808311610ecc57829003601f168201915b50505050509050919050565b600080600083604051610f089190611bdc565b9081526020016040518091039020600301541115610f7557600082604051610f309190611bdc565b908152602001604051809103902060030154600083604051610f529190611bdc565b908152602001604051809103902060020154610f6e9190611fa6565b9050610fa7565b6040517fb01e933700000000000000000000000000000000000000000000000000000000815260040160405180910390fd5b919050565b60006001805480602002602001604051908101604052809291908181526020016000905b8282101561107c578382906000526020600020018054610fef90611c51565b80601f016020809104026020016040519081016040528092919081815260200182805461101b90611c51565b80156110685780601f1061103d57610100808354040283529160200191611068565b820191906000526020600020905b81548152906001019060200180831161104b57829003601f168201915b505050505081526020019060010190610fd0565b50505050905060008082848151811061109857611097611bf3565b5b60200260200101516040516110ad9190611bdc565b90815260200160405180910390206004015460008385815181106110d4576110d3611bf3565b5b60200260200101516040516110e99190611bdc565b9081526020016040518091039020600201546111059190611fa6565b905060005b600083858151811061111f5761111e611bf3565b5b60200260200101516040516111349190611bdc565b90815260200160405180910390206006018054905081101561128657478210156112735760008084868151811061116e5761116d611bf3565b5b60200260200101516040516111839190611bdc565b908152602001604051809103902060060182815481106111a6576111a5611bf3565b5b9060005260206000200160009054906101000a900473ffffffffffffffffffffffffffffffffffffffff1673ffffffffffffffffffffffffffffffffffffffff16836040516111f490612008565b60006040518083038185875af1925050503d8060008114611231576040519150601f19603f3d011682016040523d82523d6000602084013e611236565b606091505b5050905080611271576040517f09e6a19a00000000000000000000000000000000000000000000000000000000815260040160405180910390fd5b505b808061127e90611cb1565b91505061110a565b50505050565b60405180610120016040528060608152602001600073ffffffffffffffffffffffffffffffffffffffff168152602001600081526020016000815260200160008152602001606081526020016060815260200160008152602001600060018111156112fa576112f9611b0e565b5b81525090565b828054828255906000526020600020908101928215611348579160200282015b828111156113475782518290816113379190611ea5565b5091602001919060010190611320565b5b50905061135591906113e3565b5090565b8280548282559060005260206000209081019282156113d2579160200282015b828111156113d15782518260006101000a81548173ffffffffffffffffffffffffffffffffffffffff021916908373ffffffffffffffffffffffffffffffffffffffff16021790555091602001919060010190611379565b5b5090506113df9190611407565b5090565b5b8082111561140357600081816113fa9190611424565b506001016113e4565b5090565b5b80821115611420576000816000905550600101611408565b5090565b50805461143090611c51565b6000825580601f106114425750611461565b601f0160209004906000526020600020908101906114609190611407565b5b50565b6000604051905090565b600080fd5b600080fd5b600080fd5b600080fd5b6000601f19601f8301169050919050565b7f4e487b7100000000000000000000000000000000000000000000000000000000600052604160045260246000fd5b6114cb82611482565b810181811067ffffffffffffffff821117156114ea576114e9611493565b5b80604052505050565b60006114fd611464565b905061150982826114c2565b919050565b600067ffffffffffffffff82111561152957611528611493565b5b61153282611482565b9050602081019050919050565b82818337600083830152505050565b600061156161155c8461150e565b6114f3565b90508281526020810184848401111561157d5761157c61147d565b5b61158884828561153f565b509392505050565b600082601f8301126115a5576115a4611478565b5b81356115b584826020860161154e565b91505092915050565b6000819050919050565b6115d1816115be565b81146115dc57600080fd5b50565b6000813590506115ee816115c8565b92915050565b6000806040838503121561160b5761160a61146e565b5b600083013567ffffffffffffffff81111561162957611628611473565b5b61163585828601611590565b9250506020611646858286016115df565b9150509250929050565b600073ffffffffffffffffffffffffffffffffffffffff82169050919050565b600061167b82611650565b9050919050565b61168b81611670565b82525050565b60006020820190506116a66000830184611682565b92915050565b600081519050919050565b600082825260208201905092915050565b60005b838110156116e65780820151818401526020810190506116cb565b60008484015250505050565b60006116fd826116ac565b61170781856116b7565b93506117178185602086016116c8565b61172081611482565b840191505092915050565b6000602082019050818103600083015261174581846116f2565b905092915050565b600080fd5b600080fd5b60008083601f84011261176d5761176c611478565b5b8235905067ffffffffffffffff81111561178a5761178961174d565b5b6020830191508360018202830111156117a6576117a5611752565b5b9250929050565b600080602083850312156117c4576117c361146e565b5b600083013567ffffffffffffffff8111156117e2576117e1611473565b5b6117ee85828601611757565b92509250509250929050565b6000602082840312156118105761180f61146e565b5b600082013567ffffffffffffffff81111561182e5761182d611473565b5b61183a84828501611590565b91505092915050565b61184c816115be565b82525050565b60006020820190506118676000830184611843565b92915050565b600067ffffffffffffffff82111561188857611887611493565b5b61189182611482565b9050602081019050919050565b60006118b16118ac8461186d565b6114f3565b9050828152602081018484840111156118cd576118cc61147d565b5b6118d884828561153f565b509392505050565b600082601f8301126118f5576118f4611478565b5b813561190584826020860161189e565b91505092915050565b6000602082840312156119245761192361146e565b5b600082013567ffffffffffffffff81111561194257611941611473565b5b61194e848285016118e0565b91505092915050565b60008115159050919050565b61196c81611957565b82525050565b600081519050919050565b600082825260208201905092915050565b600061199982611972565b6119a3818561197d565b93506119b38185602086016116c8565b6119bc81611482565b840191505092915050565b60006040820190506119dc6000830185611963565b81810360208301526119ee818461198e565b90509392505050565b60008060408385031215611a0e57611a0d61146e565b5b600083013567ffffffffffffffff811115611a2c57611a2b611473565b5b611a3885828601611590565b925050602083013567ffffffffffffffff811115611a5957611a58611473565b5b611a6585828601611590565b9150509250929050565b60008060008060808587031215611a8957611a8861146e565b5b600085013567ffffffffffffffff811115611aa757611aa6611473565b5b611ab387828801611590565b945050602085013567ffffffffffffffff811115611ad457611ad3611473565b5b611ae087828801611590565b9350506040611af1878288016115df565b9250506060611b02878288016115df565b91505092959194509250565b7f4e487b7100000000000000000000000000000000000000000000000000000000600052602160045260246000fd5b60028110611b4e57611b4d611b0e565b5b50565b6000819050611b5f82611b3d565b919050565b6000611b6f82611b51565b9050919050565b611b7f81611b64565b82525050565b6000602082019050611b9a6000830184611b76565b92915050565b600081905092915050565b6000611bb6826116ac565b611bc08185611ba0565b9350611bd08185602086016116c8565b80840191505092915050565b6000611be88284611bab565b915081905092915050565b7f4e487b7100000000000000000000000000000000000000000000000000000000600052603260045260246000fd5b7f4e487b7100000000000000000000000000000000000000000000000000000000600052602260045260246000fd5b60006002820490506001821680611c6957607f821691505b602082108103611c7c57611c7b611c22565b5b50919050565b7f4e487b7100000000000000000000000000000000000000000000000000000000600052601160045260246000fd5b6000611cbc826115be565b91507fffffffffffffffffffffffffffffffffffffffffffffffffffffffffffffffff8203611cee57611ced611c82565b5b600182019050919050565b60008190508160005260206000209050919050565b60006020601f8301049050919050565b600082821b905092915050565b600060088302611d5b7fffffffffffffffffffffffffffffffffffffffffffffffffffffffffffffffff82611d1e565b611d658683611d1e565b95508019841693508086168417925050509392505050565b6000819050919050565b6000611da2611d9d611d98846115be565b611d7d565b6115be565b9050919050565b6000819050919050565b611dbc83611d87565b611dd0611dc882611da9565b848454611d2b565b825550505050565b600090565b611de5611dd8565b611df0818484611db3565b505050565b5b81811015611e1457611e09600082611ddd565b600181019050611df6565b5050565b601f821115611e5957611e2a81611cf9565b611e3384611d0e565b81016020851015611e42578190505b611e56611e4e85611d0e565b830182611df5565b50505b505050565b600082821c905092915050565b6000611e7c60001984600802611e5e565b1980831691505092915050565b6000611e958383611e6b565b9150826002028217905092915050565b611eae826116ac565b67ffffffffffffffff811115611ec757611ec6611493565b5b611ed18254611c51565b611edc828285611e18565b600060209050601f831160018114611f0f5760008415611efd578287015190505b611f078582611e89565b865550611f6f565b601f198416611f1d86611cf9565b60005b82811015611f4557848901518255600182019150602085019450602081019050611f20565b86831015611f625784890151611f5e601f891682611e6b565b8355505b6001600288020188555050505b505050505050565b7f4e487b7100000000000000000000000000000000000000000000000000000000600052601260045260246000fd5b6000611fb1826115be565b9150611fbc836115be565b925082611fcc57611fcb611f77565b5b828204905092915050565b600081905092915050565b50565b6000611ff2600083611fd7565b9150611ffd82611fe2565b600082019050919050565b600061201382611fe5565b915081905091905056fea2646970667358221220b9aea4cf12ced2b97730d9b3b07d363a11e6a9fd08aef50c4274a8e6b1695e7264736f6c63430008110033",
  "linkReferences": {},
  "deployedLinkReferences": {}
}