{
  "_format": "hh-sol-artifact-1",
  "contractName": "Surpay",
  "sourceName": "contracts/Surpay.sol",
  "abi": [
    {
      "inputs": [
        {
          "internalType": "uint256",
          "name": "_surveyCreationFee",
          "type": "uint256"
        },
        {
          "internalType": "uint256",
          "name": "_interval",
          "type": "uint256"
        }
      ],
      "stateMutability": "nonpayable",
      "type": "constructor"
    },
    {
      "inputs": [],
      "name": "Surpay__NotEnoughFunds",
      "type": "error"
    },
    {
      "inputs": [],
      "name": "Surpay__SurveyNotFound",
      "type": "error"
    },
    {
      "anonymous": false,
      "inputs": [
        {
          "indexed": true,
          "internalType": "string",
          "name": "surveyData",
          "type": "string"
        }
      ],
      "name": "SurveyCompleted",
      "type": "event"
    },
    {
      "anonymous": false,
      "inputs": [
        {
          "indexed": true,
          "internalType": "string",
          "name": "surveyId",
          "type": "string"
        }
      ],
      "name": "SurveyCreated",
      "type": "event"
    },
    {
      "anonymous": false,
      "inputs": [
        {
          "indexed": true,
          "internalType": "address",
          "name": "paidSurveyTaker",
          "type": "address"
        }
      ],
      "name": "SurveyTakerPaid",
      "type": "event"
    },
    {
      "inputs": [
        {
          "internalType": "bytes",
          "name": "",
          "type": "bytes"
        }
      ],
      "name": "checkUpkeep",
      "outputs": [
        {
          "internalType": "bool",
          "name": "upkeepNeeded",
          "type": "bool"
        },
        {
          "internalType": "bytes",
          "name": "",
          "type": "bytes"
        }
      ],
      "stateMutability": "nonpayable",
      "type": "function"
    },
    {
      "inputs": [
        {
          "internalType": "string",
          "name": "_surveyId",
          "type": "string"
        },
        {
          "internalType": "string",
          "name": "_companyId",
          "type": "string"
        },
        {
          "internalType": "uint256",
          "name": "_totalPayoutAmount",
          "type": "uint256"
        },
        {
          "internalType": "uint256",
          "name": "_numOfParticipantsDesired",
          "type": "uint256"
        }
      ],
      "name": "createSurvey",
      "outputs": [],
      "stateMutability": "payable",
      "type": "function"
    },
    {
      "inputs": [],
      "name": "getInterval",
      "outputs": [
        {
          "internalType": "uint256",
          "name": "",
          "type": "uint256"
        }
      ],
      "stateMutability": "view",
      "type": "function"
    },
    {
      "inputs": [
        {
          "internalType": "uint256",
          "name": "index",
          "type": "uint256"
        }
      ],
      "name": "getSurveyByIndex",
      "outputs": [
        {
          "internalType": "string",
          "name": "",
          "type": "string"
        }
      ],
      "stateMutability": "view",
      "type": "function"
    },
    {
      "inputs": [],
      "name": "getSurveyCreationFee",
      "outputs": [
        {
          "internalType": "uint256",
          "name": "",
          "type": "uint256"
        }
      ],
      "stateMutability": "view",
      "type": "function"
    },
    {
      "inputs": [
        {
          "internalType": "string",
          "name": "_surveyId",
          "type": "string"
        }
      ],
      "name": "getSurveyState",
      "outputs": [
        {
          "internalType": "enum Surpay.SurveyState",
          "name": "",
          "type": "uint8"
        }
      ],
      "stateMutability": "view",
      "type": "function"
    },
    {
      "inputs": [
        {
          "internalType": "bytes",
          "name": "",
          "type": "bytes"
        }
      ],
      "name": "performUpkeep",
      "outputs": [],
      "stateMutability": "nonpayable",
      "type": "function"
    }
  ],
  "bytecode": "0x60c06040523480156200001157600080fd5b50604051620019e1380380620019e183398181016040528101906200003791906200008f565b81608081815250508060a081815250505050620000d6565b600080fd5b6000819050919050565b620000698162000054565b81146200007557600080fd5b50565b60008151905062000089816200005e565b92915050565b60008060408385031215620000a957620000a86200004f565b5b6000620000b98582860162000078565b9250506020620000cc8582860162000078565b9150509250929050565b60805160a0516118de62000103600039600061079d0152600081816107c30152610b0701526118de6000f3fe6080604052600436106100705760003560e01c8063ac9d6a2b1161004e578063ac9d6a2b14610107578063b374ff2914610123578063bab26fd214610160578063f32074031461018b57610070565b80634585e33b146100755780636e04ff0d1461009e57806391ad27b4146100dc575b600080fd5b34801561008157600080fd5b5061009c60048036038101906100979190610e77565b6101c8565b005b3480156100aa57600080fd5b506100c560048036038101906100c09190611005565b6101ea565b6040516100d39291906110e8565b60405180910390f35b3480156100e857600080fd5b506100f1610799565b6040516100fe9190611131565b60405180910390f35b610121600480360381019061011c9190611219565b6107c1565b005b34801561012f57600080fd5b5061014a600480360381019061014591906112b8565b610a26565b6040516101579190611378565b60405180910390f35b34801561016c57600080fd5b50610175610b03565b6040516101829190611131565b60405180910390f35b34801561019757600080fd5b506101b260048036038101906101ad9190611393565b610b2b565b6040516101bf9190611415565b60405180910390f35b60006101e2604051806020016040528060008152506101ea565b509050505050565b60006060600080805480602002602001604051908101604052809291908181526020016000905b8282101561057e57838290600052602060002090600902016040518061012001604052908160008201805461024590611466565b80601f016020809104026020016040519081016040528092919081815260200182805461027190611466565b80156102be5780601f10610293576101008083540402835291602001916102be565b820191906000526020600020905b8154815290600101906020018083116102a157829003601f168201915b505050505081526020016001820180546102d790611466565b80601f016020809104026020016040519081016040528092919081815260200182805461030390611466565b80156103505780601f1061032557610100808354040283529160200191610350565b820191906000526020600020905b81548152906001019060200180831161033357829003601f168201915b505050505081526020016002820160009054906101000a900473ffffffffffffffffffffffffffffffffffffffff1673ffffffffffffffffffffffffffffffffffffffff1673ffffffffffffffffffffffffffffffffffffffff16815260200160038201548152602001600482015481526020016005820154815260200160068201805480602002602001604051908101604052809291908181526020016000905b8282101561049e57838290600052602060002001805461041190611466565b80601f016020809104026020016040519081016040528092919081815260200182805461043d90611466565b801561048a5780601f1061045f5761010080835404028352916020019161048a565b820191906000526020600020905b81548152906001019060200180831161046d57829003601f168201915b5050505050815260200190600101906103f2565b5050505081526020016007820180548060200260200160405190810160405280929190818152602001828054801561052b57602002820191906000526020600020905b8160009054906101000a900473ffffffffffffffffffffffffffffffffffffffff1673ffffffffffffffffffffffffffffffffffffffff16815260200190600101908083116104e1575b505050505081526020016008820160009054906101000a900460ff16600281111561055957610558611301565b5b600281111561056b5761056a611301565b5b8152505081526020019060010190610211565b50505050905060005b815181101561077f57600160028111156105a4576105a3611301565b5b8282815181106105b7576105b6611497565b5b6020026020010151610100015160028111156105d6576105d5611301565b5b0361076c5760018282815181106105f0576105ef611497565b5b6020026020010151908060018154018082558091505060019003906000526020600020906009020160009091909190915060008201518160000190816106369190611672565b50602082015181600101908161064c9190611672565b5060408201518160020160006101000a81548173ffffffffffffffffffffffffffffffffffffffff021916908373ffffffffffffffffffffffffffffffffffffffff160217905550606082015181600301556080820151816004015560a0820151816005015560c08201518160060190805190602001906106ce929190610c26565b5060e08201518160070190805190602001906106eb929190610c7f565b506101008201518160080160006101000a81548160ff0219169083600281111561071857610717611301565b5b02179055505050600282828151811061073457610733611497565b5b60200260200101516101000190600281111561075357610752611301565b5b9081600281111561076757610766611301565b5b815250505b808061077790611773565b915050610587565b506000600180549050111561079357600192505b50915091565b60007f0000000000000000000000000000000000000000000000000000000000000000905090565b7f000000000000000000000000000000000000000000000000000000000000000034101561081b576040517fc09bb52500000000000000000000000000000000000000000000000000000000815260040160405180910390fd5b610823610d09565b84816000018190525083816020018190525033816040019073ffffffffffffffffffffffffffffffffffffffff16908173ffffffffffffffffffffffffffffffffffffffff168152505082816060018181525050818160800181815250506000816101000190600281111561089b5761089a611301565b5b908160028111156108af576108ae611301565b5b81525050600081908060018154018082558091505060019003906000526020600020906009020160009091909190915060008201518160000190816108f49190611672565b50602082015181600101908161090a9190611672565b5060408201518160020160006101000a81548173ffffffffffffffffffffffffffffffffffffffff021916908373ffffffffffffffffffffffffffffffffffffffff160217905550606082015181600301556080820151816004015560a0820151816005015560c082015181600601908051906020019061098c929190610c26565b5060e08201518160070190805190602001906109a9929190610c7f565b506101008201518160080160006101000a81548160ff021916908360028111156109d6576109d5611301565b5b02179055505050846040516109eb91906117f7565b60405180910390207fcc65c6fb1d804ba1dc418f9e3659483d310357279f035d45b8ea484fd6fe4a2f60405160405180910390a25050505050565b60008060005b600080549050811015610af95783604051602001610a4a91906117f7565b6040516020818303038152906040528051906020012060008281548110610a7457610a73611497565b5b9060005260206000209060090201600001604051602001610a959190611891565b6040516020818303038152906040528051906020012003610ae65760008181548110610ac457610ac3611497565b5b906000526020600020906009020160080160009054906101000a900460ff1691505b8080610af190611773565b915050610a2c565b5080915050919050565b60007f0000000000000000000000000000000000000000000000000000000000000000905090565b6060600080549050821015610bef5760008281548110610b4e57610b4d611497565b5b90600052602060002090600902016000018054610b6a90611466565b80601f0160208091040260200160405190810160405280929190818152602001828054610b9690611466565b8015610be35780601f10610bb857610100808354040283529160200191610be3565b820191906000526020600020905b815481529060010190602001808311610bc657829003601f168201915b50505050509050610c21565b6040517fb01e933700000000000000000000000000000000000000000000000000000000815260040160405180910390fd5b919050565b828054828255906000526020600020908101928215610c6e579160200282015b82811115610c6d578251829081610c5d9190611672565b5091602001919060010190610c46565b5b509050610c7b9190610d7d565b5090565b828054828255906000526020600020908101928215610cf8579160200282015b82811115610cf75782518260006101000a81548173ffffffffffffffffffffffffffffffffffffffff021916908373ffffffffffffffffffffffffffffffffffffffff16021790555091602001919060010190610c9f565b5b509050610d059190610da1565b5090565b6040518061012001604052806060815260200160608152602001600073ffffffffffffffffffffffffffffffffffffffff168152602001600081526020016000815260200160008152602001606081526020016060815260200160006002811115610d7757610d76611301565b5b81525090565b5b80821115610d9d5760008181610d949190610dbe565b50600101610d7e565b5090565b5b80821115610dba576000816000905550600101610da2565b5090565b508054610dca90611466565b6000825580601f10610ddc5750610dfb565b601f016020900490600052602060002090810190610dfa9190610da1565b5b50565b6000604051905090565b600080fd5b600080fd5b600080fd5b600080fd5b600080fd5b60008083601f840112610e3757610e36610e12565b5b8235905067ffffffffffffffff811115610e5457610e53610e17565b5b602083019150836001820283011115610e7057610e6f610e1c565b5b9250929050565b60008060208385031215610e8e57610e8d610e08565b5b600083013567ffffffffffffffff811115610eac57610eab610e0d565b5b610eb885828601610e21565b92509250509250929050565b600080fd5b6000601f19601f8301169050919050565b7f4e487b7100000000000000000000000000000000000000000000000000000000600052604160045260246000fd5b610f1282610ec9565b810181811067ffffffffffffffff82111715610f3157610f30610eda565b5b80604052505050565b6000610f44610dfe565b9050610f508282610f09565b919050565b600067ffffffffffffffff821115610f7057610f6f610eda565b5b610f7982610ec9565b9050602081019050919050565b82818337600083830152505050565b6000610fa8610fa384610f55565b610f3a565b905082815260208101848484011115610fc457610fc3610ec4565b5b610fcf848285610f86565b509392505050565b600082601f830112610fec57610feb610e12565b5b8135610ffc848260208601610f95565b91505092915050565b60006020828403121561101b5761101a610e08565b5b600082013567ffffffffffffffff81111561103957611038610e0d565b5b61104584828501610fd7565b91505092915050565b60008115159050919050565b6110638161104e565b82525050565b600081519050919050565b600082825260208201905092915050565b60005b838110156110a3578082015181840152602081019050611088565b60008484015250505050565b60006110ba82611069565b6110c48185611074565b93506110d4818560208601611085565b6110dd81610ec9565b840191505092915050565b60006040820190506110fd600083018561105a565b818103602083015261110f81846110af565b90509392505050565b6000819050919050565b61112b81611118565b82525050565b60006020820190506111466000830184611122565b92915050565b600067ffffffffffffffff82111561116757611166610eda565b5b61117082610ec9565b9050602081019050919050565b600061119061118b8461114c565b610f3a565b9050828152602081018484840111156111ac576111ab610ec4565b5b6111b7848285610f86565b509392505050565b600082601f8301126111d4576111d3610e12565b5b81356111e484826020860161117d565b91505092915050565b6111f681611118565b811461120157600080fd5b50565b600081359050611213816111ed565b92915050565b6000806000806080858703121561123357611232610e08565b5b600085013567ffffffffffffffff81111561125157611250610e0d565b5b61125d878288016111bf565b945050602085013567ffffffffffffffff81111561127e5761127d610e0d565b5b61128a878288016111bf565b935050604061129b87828801611204565b92505060606112ac87828801611204565b91505092959194509250565b6000602082840312156112ce576112cd610e08565b5b600082013567ffffffffffffffff8111156112ec576112eb610e0d565b5b6112f8848285016111bf565b91505092915050565b7f4e487b7100000000000000000000000000000000000000000000000000000000600052602160045260246000fd5b6003811061134157611340611301565b5b50565b600081905061135282611330565b919050565b600061136282611344565b9050919050565b61137281611357565b82525050565b600060208201905061138d6000830184611369565b92915050565b6000602082840312156113a9576113a8610e08565b5b60006113b784828501611204565b91505092915050565b600081519050919050565b600082825260208201905092915050565b60006113e7826113c0565b6113f181856113cb565b9350611401818560208601611085565b61140a81610ec9565b840191505092915050565b6000602082019050818103600083015261142f81846113dc565b905092915050565b7f4e487b7100000000000000000000000000000000000000000000000000000000600052602260045260246000fd5b6000600282049050600182168061147e57607f821691505b60208210810361149157611490611437565b5b50919050565b7f4e487b7100000000000000000000000000000000000000000000000000000000600052603260045260246000fd5b60008190508160005260206000209050919050565b60006020601f8301049050919050565b600082821b905092915050565b6000600883026115287fffffffffffffffffffffffffffffffffffffffffffffffffffffffffffffffff826114eb565b61153286836114eb565b95508019841693508086168417925050509392505050565b6000819050919050565b600061156f61156a61156584611118565b61154a565b611118565b9050919050565b6000819050919050565b61158983611554565b61159d61159582611576565b8484546114f8565b825550505050565b600090565b6115b26115a5565b6115bd818484611580565b505050565b5b818110156115e1576115d66000826115aa565b6001810190506115c3565b5050565b601f821115611626576115f7816114c6565b611600846114db565b8101602085101561160f578190505b61162361161b856114db565b8301826115c2565b50505b505050565b600082821c905092915050565b60006116496000198460080261162b565b1980831691505092915050565b60006116628383611638565b9150826002028217905092915050565b61167b826113c0565b67ffffffffffffffff81111561169457611693610eda565b5b61169e8254611466565b6116a98282856115e5565b600060209050601f8311600181146116dc57600084156116ca578287015190505b6116d48582611656565b86555061173c565b601f1984166116ea866114c6565b60005b82811015611712578489015182556001820191506020850194506020810190506116ed565b8683101561172f578489015161172b601f891682611638565b8355505b6001600288020188555050505b505050505050565b7f4e487b7100000000000000000000000000000000000000000000000000000000600052601160045260246000fd5b600061177e82611118565b91507fffffffffffffffffffffffffffffffffffffffffffffffffffffffffffffffff82036117b0576117af611744565b5b600182019050919050565b600081905092915050565b60006117d1826113c0565b6117db81856117bb565b93506117eb818560208601611085565b80840191505092915050565b600061180382846117c6565b915081905092915050565b6000815461181b81611466565b61182581866117bb565b94506001821660008114611840576001811461185557611888565b60ff1983168652811515820286019350611888565b61185e856114c6565b60005b8381101561188057815481890152600182019150602081019050611861565b838801955050505b50505092915050565b600061189d828461180e565b91508190509291505056fea26469706673582212204c01432fb6b0137147b979b709ae151f5fb39991845bd97c47371bc6db40276964736f6c63430008110033",
  "linkReferences": {},
  "deployedLinkReferences": {}
}