{
  "_format": "hh-sol-artifact-1",
  "contractName": "Surpay",
  "sourceName": "contracts/Surpay.sol",
  "abi": [
    {
      "inputs": [
        {
          "internalType": "uint256",
          "name": "_surveyCreationFee",
          "type": "uint256"
        }
      ],
      "stateMutability": "nonpayable",
      "type": "constructor"
    },
    {
      "inputs": [],
      "name": "Surpay__NotEnoughFunds",
      "type": "error"
    },
    {
      "anonymous": false,
      "inputs": [
        {
          "indexed": true,
          "internalType": "string",
          "name": "surveyData",
          "type": "string"
        }
      ],
      "name": "SurveyCompleted",
      "type": "event"
    },
    {
      "anonymous": false,
      "inputs": [
        {
          "indexed": true,
          "internalType": "string",
          "name": "surveyId",
          "type": "string"
        }
      ],
      "name": "SurveyCreated",
      "type": "event"
    },
    {
      "inputs": [
        {
          "internalType": "bytes",
          "name": "",
          "type": "bytes"
        }
      ],
      "name": "checkUpkeep",
      "outputs": [
        {
          "internalType": "bool",
          "name": "upkeepNeeded",
          "type": "bool"
        },
        {
          "internalType": "bytes",
          "name": "",
          "type": "bytes"
        }
      ],
      "stateMutability": "nonpayable",
      "type": "function"
    },
    {
      "inputs": [
        {
          "internalType": "string",
          "name": "_surveyId",
          "type": "string"
        },
        {
          "internalType": "string",
          "name": "_companyId",
          "type": "string"
        },
        {
          "internalType": "uint256",
          "name": "_totalPaymentAmount",
          "type": "uint256"
        },
        {
          "internalType": "uint256",
          "name": "_numOfParticipantsDesired",
          "type": "uint256"
        }
      ],
      "name": "createSurvey",
      "outputs": [],
      "stateMutability": "payable",
      "type": "function"
    },
    {
      "inputs": [
        {
          "internalType": "bytes",
          "name": "",
          "type": "bytes"
        }
      ],
      "name": "performUpkeep",
      "outputs": [],
      "stateMutability": "nonpayable",
      "type": "function"
    }
  ],
  "bytecode": "0x60a06040523480156200001157600080fd5b50604051620013e0380380620013e0833981810160405281019062000037919062000086565b806080818152505050620000b8565b600080fd5b6000819050919050565b62000060816200004b565b81146200006c57600080fd5b50565b600081519050620000808162000055565b92915050565b6000602082840312156200009f576200009e62000046565b5b6000620000af848285016200006f565b91505092915050565b60805161130c620000d4600039600061068f015261130c6000f3fe6080604052600436106100345760003560e01c80634585e33b146100395780636e04ff0d14610062578063ac9d6a2b146100a0575b600080fd5b34801561004557600080fd5b50610060600480360381019061005b9190610b01565b6100bc565b005b34801561006e57600080fd5b5061008960048036038101906100849190610c8f565b6100de565b604051610097929190610d72565b60405180910390f35b6100ba60048036038101906100b59190610e79565b61068d565b005b60006100d6604051806020016040528060008152506100de565b509050505050565b60006060600080805480602002602001604051908101604052809291908181526020016000905b8282101561047257838290600052602060002090600902016040518061012001604052908160008201805461013990610f47565b80601f016020809104026020016040519081016040528092919081815260200182805461016590610f47565b80156101b25780601f10610187576101008083540402835291602001916101b2565b820191906000526020600020905b81548152906001019060200180831161019557829003601f168201915b505050505081526020016001820180546101cb90610f47565b80601f01602080910402602001604051908101604052809291908181526020018280546101f790610f47565b80156102445780601f1061021957610100808354040283529160200191610244565b820191906000526020600020905b81548152906001019060200180831161022757829003601f168201915b505050505081526020016002820160009054906101000a900473ffffffffffffffffffffffffffffffffffffffff1673ffffffffffffffffffffffffffffffffffffffff1673ffffffffffffffffffffffffffffffffffffffff16815260200160038201548152602001600482015481526020016005820154815260200160068201805480602002602001604051908101604052809291908181526020016000905b8282101561039257838290600052602060002001805461030590610f47565b80601f016020809104026020016040519081016040528092919081815260200182805461033190610f47565b801561037e5780601f106103535761010080835404028352916020019161037e565b820191906000526020600020905b81548152906001019060200180831161036157829003601f168201915b5050505050815260200190600101906102e6565b5050505081526020016007820180548060200260200160405190810160405280929190818152602001828054801561041f57602002820191906000526020600020905b8160009054906101000a900473ffffffffffffffffffffffffffffffffffffffff1673ffffffffffffffffffffffffffffffffffffffff16815260200190600101908083116103d5575b505050505081526020016008820160009054906101000a900460ff16600281111561044d5761044c610f78565b5b600281111561045f5761045e610f78565b5b8152505081526020019060010190610105565b50505050905060005b8151811015610673576001600281111561049857610497610f78565b5b8282815181106104ab576104aa610fa7565b5b6020026020010151610100015160028111156104ca576104c9610f78565b5b036106605760018282815181106104e4576104e3610fa7565b5b60200260200101519080600181540180825580915050600190039060005260206000209060090201600090919091909150600082015181600001908161052a919061118d565b506020820151816001019081610540919061118d565b5060408201518160020160006101000a81548173ffffffffffffffffffffffffffffffffffffffff021916908373ffffffffffffffffffffffffffffffffffffffff160217905550606082015181600301556080820151816004015560a0820151816005015560c08201518160060190805190602001906105c29291906108b0565b5060e08201518160070190805190602001906105df929190610909565b506101008201518160080160006101000a81548160ff0219169083600281111561060c5761060b610f78565b5b02179055505050600282828151811061062857610627610fa7565b5b60200260200101516101000190600281111561064757610646610f78565b5b9081600281111561065b5761065a610f78565b5b815250505b808061066b9061128e565b91505061047b565b506000600180549050111561068757600192505b50915091565b7f00000000000000000000000000000000000000000000000000000000000000003410156106e7576040517fc09bb52500000000000000000000000000000000000000000000000000000000815260040160405180910390fd5b6106ef610993565b84816000018190525083816020018190525033816040019073ffffffffffffffffffffffffffffffffffffffff16908173ffffffffffffffffffffffffffffffffffffffff168152505082816060018181525050818160800181815250506000816101000190600281111561076757610766610f78565b5b9081600281111561077b5761077a610f78565b5b81525050600081908060018154018082558091505060019003906000526020600020906009020160009091909190915060008201518160000190816107c0919061118d565b5060208201518160010190816107d6919061118d565b5060408201518160020160006101000a81548173ffffffffffffffffffffffffffffffffffffffff021916908373ffffffffffffffffffffffffffffffffffffffff160217905550606082015181600301556080820151816004015560a0820151816005015560c08201518160060190805190602001906108589291906108b0565b5060e0820151816007019080519060200190610875929190610909565b506101008201518160080160006101000a81548160ff021916908360028111156108a2576108a1610f78565b5b021790555050505050505050565b8280548282559060005260206000209081019282156108f8579160200282015b828111156108f75782518290816108e7919061118d565b50916020019190600101906108d0565b5b5090506109059190610a07565b5090565b828054828255906000526020600020908101928215610982579160200282015b828111156109815782518260006101000a81548173ffffffffffffffffffffffffffffffffffffffff021916908373ffffffffffffffffffffffffffffffffffffffff16021790555091602001919060010190610929565b5b50905061098f9190610a2b565b5090565b6040518061012001604052806060815260200160608152602001600073ffffffffffffffffffffffffffffffffffffffff168152602001600081526020016000815260200160008152602001606081526020016060815260200160006002811115610a0157610a00610f78565b5b81525090565b5b80821115610a275760008181610a1e9190610a48565b50600101610a08565b5090565b5b80821115610a44576000816000905550600101610a2c565b5090565b508054610a5490610f47565b6000825580601f10610a665750610a85565b601f016020900490600052602060002090810190610a849190610a2b565b5b50565b6000604051905090565b600080fd5b600080fd5b600080fd5b600080fd5b600080fd5b60008083601f840112610ac157610ac0610a9c565b5b8235905067ffffffffffffffff811115610ade57610add610aa1565b5b602083019150836001820283011115610afa57610af9610aa6565b5b9250929050565b60008060208385031215610b1857610b17610a92565b5b600083013567ffffffffffffffff811115610b3657610b35610a97565b5b610b4285828601610aab565b92509250509250929050565b600080fd5b6000601f19601f8301169050919050565b7f4e487b7100000000000000000000000000000000000000000000000000000000600052604160045260246000fd5b610b9c82610b53565b810181811067ffffffffffffffff82111715610bbb57610bba610b64565b5b80604052505050565b6000610bce610a88565b9050610bda8282610b93565b919050565b600067ffffffffffffffff821115610bfa57610bf9610b64565b5b610c0382610b53565b9050602081019050919050565b82818337600083830152505050565b6000610c32610c2d84610bdf565b610bc4565b905082815260208101848484011115610c4e57610c4d610b4e565b5b610c59848285610c10565b509392505050565b600082601f830112610c7657610c75610a9c565b5b8135610c86848260208601610c1f565b91505092915050565b600060208284031215610ca557610ca4610a92565b5b600082013567ffffffffffffffff811115610cc357610cc2610a97565b5b610ccf84828501610c61565b91505092915050565b60008115159050919050565b610ced81610cd8565b82525050565b600081519050919050565b600082825260208201905092915050565b60005b83811015610d2d578082015181840152602081019050610d12565b60008484015250505050565b6000610d4482610cf3565b610d4e8185610cfe565b9350610d5e818560208601610d0f565b610d6781610b53565b840191505092915050565b6000604082019050610d876000830185610ce4565b8181036020830152610d998184610d39565b90509392505050565b600067ffffffffffffffff821115610dbd57610dbc610b64565b5b610dc682610b53565b9050602081019050919050565b6000610de6610de184610da2565b610bc4565b905082815260208101848484011115610e0257610e01610b4e565b5b610e0d848285610c10565b509392505050565b600082601f830112610e2a57610e29610a9c565b5b8135610e3a848260208601610dd3565b91505092915050565b6000819050919050565b610e5681610e43565b8114610e6157600080fd5b50565b600081359050610e7381610e4d565b92915050565b60008060008060808587031215610e9357610e92610a92565b5b600085013567ffffffffffffffff811115610eb157610eb0610a97565b5b610ebd87828801610e15565b945050602085013567ffffffffffffffff811115610ede57610edd610a97565b5b610eea87828801610e15565b9350506040610efb87828801610e64565b9250506060610f0c87828801610e64565b91505092959194509250565b7f4e487b7100000000000000000000000000000000000000000000000000000000600052602260045260246000fd5b60006002820490506001821680610f5f57607f821691505b602082108103610f7257610f71610f18565b5b50919050565b7f4e487b7100000000000000000000000000000000000000000000000000000000600052602160045260246000fd5b7f4e487b7100000000000000000000000000000000000000000000000000000000600052603260045260246000fd5b600081519050919050565b60008190508160005260206000209050919050565b60006020601f8301049050919050565b600082821b905092915050565b6000600883026110437fffffffffffffffffffffffffffffffffffffffffffffffffffffffffffffffff82611006565b61104d8683611006565b95508019841693508086168417925050509392505050565b6000819050919050565b600061108a61108561108084610e43565b611065565b610e43565b9050919050565b6000819050919050565b6110a48361106f565b6110b86110b082611091565b848454611013565b825550505050565b600090565b6110cd6110c0565b6110d881848461109b565b505050565b5b818110156110fc576110f16000826110c5565b6001810190506110de565b5050565b601f8211156111415761111281610fe1565b61111b84610ff6565b8101602085101561112a578190505b61113e61113685610ff6565b8301826110dd565b50505b505050565b600082821c905092915050565b600061116460001984600802611146565b1980831691505092915050565b600061117d8383611153565b9150826002028217905092915050565b61119682610fd6565b67ffffffffffffffff8111156111af576111ae610b64565b5b6111b98254610f47565b6111c4828285611100565b600060209050601f8311600181146111f757600084156111e5578287015190505b6111ef8582611171565b865550611257565b601f19841661120586610fe1565b60005b8281101561122d57848901518255600182019150602085019450602081019050611208565b8683101561124a5784890151611246601f891682611153565b8355505b6001600288020188555050505b505050505050565b7f4e487b7100000000000000000000000000000000000000000000000000000000600052601160045260246000fd5b600061129982610e43565b91507fffffffffffffffffffffffffffffffffffffffffffffffffffffffffffffffff82036112cb576112ca61125f565b5b60018201905091905056fea26469706673582212206b41c93bc3c994876bc99911c1e4ffe596ed4daadc736077e446abf71e2c399564736f6c63430008110033",
  "linkReferences": {},
  "deployedLinkReferences": {}
}