{
  "_format": "hh-sol-artifact-1",
  "contractName": "Surpay",
  "sourceName": "contracts/Surpay.sol",
  "abi": [
    {
      "inputs": [
        {
          "internalType": "uint256",
          "name": "_surveyCreationFee",
          "type": "uint256"
        }
      ],
      "stateMutability": "nonpayable",
      "type": "constructor"
    },
    {
      "inputs": [],
      "name": "Surpay__NotEnoughFunds",
      "type": "error"
    },
    {
      "anonymous": false,
      "inputs": [
        {
          "indexed": true,
          "internalType": "string",
          "name": "surveyData",
          "type": "string"
        }
      ],
      "name": "SurveyCompleted",
      "type": "event"
    },
    {
      "anonymous": false,
      "inputs": [
        {
          "indexed": true,
          "internalType": "string",
          "name": "surveyId",
          "type": "string"
        }
      ],
      "name": "SurveyCreated",
      "type": "event"
    },
    {
      "inputs": [
        {
          "internalType": "bytes",
          "name": "",
          "type": "bytes"
        }
      ],
      "name": "checkUpkeep",
      "outputs": [
        {
          "internalType": "bool",
          "name": "upkeepNeeded",
          "type": "bool"
        },
        {
          "internalType": "bytes",
          "name": "",
          "type": "bytes"
        }
      ],
      "stateMutability": "nonpayable",
      "type": "function"
    },
    {
      "inputs": [
        {
          "internalType": "string",
          "name": "_surveyId",
          "type": "string"
        },
        {
          "internalType": "string",
          "name": "_companyId",
          "type": "string"
        },
        {
          "internalType": "uint256",
          "name": "_totalPaymentAmount",
          "type": "uint256"
        },
        {
          "internalType": "uint256",
          "name": "_numOfParticipantsDesired",
          "type": "uint256"
        }
      ],
      "name": "createSurvey",
      "outputs": [],
      "stateMutability": "payable",
      "type": "function"
    },
    {
      "inputs": [
        {
          "internalType": "bytes",
          "name": "",
          "type": "bytes"
        }
      ],
      "name": "performUpkeep",
      "outputs": [],
      "stateMutability": "nonpayable",
      "type": "function"
    }
  ],
  "bytecode": "0x60a06040523480156200001157600080fd5b506040516200147538038062001475833981810160405281019062000037919062000086565b806080818152505050620000b8565b600080fd5b6000819050919050565b62000060816200004b565b81146200006c57600080fd5b50565b600081519050620000808162000055565b92915050565b6000602082840312156200009f576200009e62000046565b5b6000620000af848285016200006f565b91505092915050565b6080516113a1620000d4600039600061068f01526113a16000f3fe6080604052600436106100345760003560e01c80634585e33b146100395780636e04ff0d14610062578063ac9d6a2b146100a0575b600080fd5b34801561004557600080fd5b50610060600480360381019061005b9190610b43565b6100bc565b005b34801561006e57600080fd5b5061008960048036038101906100849190610cd1565b6100de565b604051610097929190610db4565b60405180910390f35b6100ba60048036038101906100b59190610ebb565b61068d565b005b60006100d6604051806020016040528060008152506100de565b509050505050565b60006060600080805480602002602001604051908101604052809291908181526020016000905b8282101561047257838290600052602060002090600902016040518061012001604052908160008201805461013990610f89565b80601f016020809104026020016040519081016040528092919081815260200182805461016590610f89565b80156101b25780601f10610187576101008083540402835291602001916101b2565b820191906000526020600020905b81548152906001019060200180831161019557829003601f168201915b505050505081526020016001820180546101cb90610f89565b80601f01602080910402602001604051908101604052809291908181526020018280546101f790610f89565b80156102445780601f1061021957610100808354040283529160200191610244565b820191906000526020600020905b81548152906001019060200180831161022757829003601f168201915b505050505081526020016002820160009054906101000a900473ffffffffffffffffffffffffffffffffffffffff1673ffffffffffffffffffffffffffffffffffffffff1673ffffffffffffffffffffffffffffffffffffffff16815260200160038201548152602001600482015481526020016005820154815260200160068201805480602002602001604051908101604052809291908181526020016000905b8282101561039257838290600052602060002001805461030590610f89565b80601f016020809104026020016040519081016040528092919081815260200182805461033190610f89565b801561037e5780601f106103535761010080835404028352916020019161037e565b820191906000526020600020905b81548152906001019060200180831161036157829003601f168201915b5050505050815260200190600101906102e6565b5050505081526020016007820180548060200260200160405190810160405280929190818152602001828054801561041f57602002820191906000526020600020905b8160009054906101000a900473ffffffffffffffffffffffffffffffffffffffff1673ffffffffffffffffffffffffffffffffffffffff16815260200190600101908083116103d5575b505050505081526020016008820160009054906101000a900460ff16600281111561044d5761044c610fba565b5b600281111561045f5761045e610fba565b5b8152505081526020019060010190610105565b50505050905060005b8151811015610673576001600281111561049857610497610fba565b5b8282815181106104ab576104aa610fe9565b5b6020026020010151610100015160028111156104ca576104c9610fba565b5b036106605760018282815181106104e4576104e3610fe9565b5b60200260200101519080600181540180825580915050600190039060005260206000209060090201600090919091909150600082015181600001908161052a91906111cf565b50602082015181600101908161054091906111cf565b5060408201518160020160006101000a81548173ffffffffffffffffffffffffffffffffffffffff021916908373ffffffffffffffffffffffffffffffffffffffff160217905550606082015181600301556080820151816004015560a0820151816005015560c08201518160060190805190602001906105c29291906108f2565b5060e08201518160070190805190602001906105df92919061094b565b506101008201518160080160006101000a81548160ff0219169083600281111561060c5761060b610fba565b5b02179055505050600282828151811061062857610627610fe9565b5b60200260200101516101000190600281111561064757610646610fba565b5b9081600281111561065b5761065a610fba565b5b815250505b808061066b906112d0565b91505061047b565b506000600180549050111561068757600192505b50915091565b7f00000000000000000000000000000000000000000000000000000000000000003410156106e7576040517fc09bb52500000000000000000000000000000000000000000000000000000000815260040160405180910390fd5b6106ef6109d5565b84816000018190525083816020018190525033816040019073ffffffffffffffffffffffffffffffffffffffff16908173ffffffffffffffffffffffffffffffffffffffff168152505082816060018181525050818160800181815250506000816101000190600281111561076757610766610fba565b5b9081600281111561077b5761077a610fba565b5b81525050600081908060018154018082558091505060019003906000526020600020906009020160009091909190915060008201518160000190816107c091906111cf565b5060208201518160010190816107d691906111cf565b5060408201518160020160006101000a81548173ffffffffffffffffffffffffffffffffffffffff021916908373ffffffffffffffffffffffffffffffffffffffff160217905550606082015181600301556080820151816004015560a0820151816005015560c08201518160060190805190602001906108589291906108f2565b5060e082015181600701908051906020019061087592919061094b565b506101008201518160080160006101000a81548160ff021916908360028111156108a2576108a1610fba565b5b02179055505050846040516108b79190611354565b60405180910390207fcc65c6fb1d804ba1dc418f9e3659483d310357279f035d45b8ea484fd6fe4a2f60405160405180910390a25050505050565b82805482825590600052602060002090810192821561093a579160200282015b8281111561093957825182908161092991906111cf565b5091602001919060010190610912565b5b5090506109479190610a49565b5090565b8280548282559060005260206000209081019282156109c4579160200282015b828111156109c35782518260006101000a81548173ffffffffffffffffffffffffffffffffffffffff021916908373ffffffffffffffffffffffffffffffffffffffff1602179055509160200191906001019061096b565b5b5090506109d19190610a6d565b5090565b6040518061012001604052806060815260200160608152602001600073ffffffffffffffffffffffffffffffffffffffff168152602001600081526020016000815260200160008152602001606081526020016060815260200160006002811115610a4357610a42610fba565b5b81525090565b5b80821115610a695760008181610a609190610a8a565b50600101610a4a565b5090565b5b80821115610a86576000816000905550600101610a6e565b5090565b508054610a9690610f89565b6000825580601f10610aa85750610ac7565b601f016020900490600052602060002090810190610ac69190610a6d565b5b50565b6000604051905090565b600080fd5b600080fd5b600080fd5b600080fd5b600080fd5b60008083601f840112610b0357610b02610ade565b5b8235905067ffffffffffffffff811115610b2057610b1f610ae3565b5b602083019150836001820283011115610b3c57610b3b610ae8565b5b9250929050565b60008060208385031215610b5a57610b59610ad4565b5b600083013567ffffffffffffffff811115610b7857610b77610ad9565b5b610b8485828601610aed565b92509250509250929050565b600080fd5b6000601f19601f8301169050919050565b7f4e487b7100000000000000000000000000000000000000000000000000000000600052604160045260246000fd5b610bde82610b95565b810181811067ffffffffffffffff82111715610bfd57610bfc610ba6565b5b80604052505050565b6000610c10610aca565b9050610c1c8282610bd5565b919050565b600067ffffffffffffffff821115610c3c57610c3b610ba6565b5b610c4582610b95565b9050602081019050919050565b82818337600083830152505050565b6000610c74610c6f84610c21565b610c06565b905082815260208101848484011115610c9057610c8f610b90565b5b610c9b848285610c52565b509392505050565b600082601f830112610cb857610cb7610ade565b5b8135610cc8848260208601610c61565b91505092915050565b600060208284031215610ce757610ce6610ad4565b5b600082013567ffffffffffffffff811115610d0557610d04610ad9565b5b610d1184828501610ca3565b91505092915050565b60008115159050919050565b610d2f81610d1a565b82525050565b600081519050919050565b600082825260208201905092915050565b60005b83811015610d6f578082015181840152602081019050610d54565b60008484015250505050565b6000610d8682610d35565b610d908185610d40565b9350610da0818560208601610d51565b610da981610b95565b840191505092915050565b6000604082019050610dc96000830185610d26565b8181036020830152610ddb8184610d7b565b90509392505050565b600067ffffffffffffffff821115610dff57610dfe610ba6565b5b610e0882610b95565b9050602081019050919050565b6000610e28610e2384610de4565b610c06565b905082815260208101848484011115610e4457610e43610b90565b5b610e4f848285610c52565b509392505050565b600082601f830112610e6c57610e6b610ade565b5b8135610e7c848260208601610e15565b91505092915050565b6000819050919050565b610e9881610e85565b8114610ea357600080fd5b50565b600081359050610eb581610e8f565b92915050565b60008060008060808587031215610ed557610ed4610ad4565b5b600085013567ffffffffffffffff811115610ef357610ef2610ad9565b5b610eff87828801610e57565b945050602085013567ffffffffffffffff811115610f2057610f1f610ad9565b5b610f2c87828801610e57565b9350506040610f3d87828801610ea6565b9250506060610f4e87828801610ea6565b91505092959194509250565b7f4e487b7100000000000000000000000000000000000000000000000000000000600052602260045260246000fd5b60006002820490506001821680610fa157607f821691505b602082108103610fb457610fb3610f5a565b5b50919050565b7f4e487b7100000000000000000000000000000000000000000000000000000000600052602160045260246000fd5b7f4e487b7100000000000000000000000000000000000000000000000000000000600052603260045260246000fd5b600081519050919050565b60008190508160005260206000209050919050565b60006020601f8301049050919050565b600082821b905092915050565b6000600883026110857fffffffffffffffffffffffffffffffffffffffffffffffffffffffffffffffff82611048565b61108f8683611048565b95508019841693508086168417925050509392505050565b6000819050919050565b60006110cc6110c76110c284610e85565b6110a7565b610e85565b9050919050565b6000819050919050565b6110e6836110b1565b6110fa6110f2826110d3565b848454611055565b825550505050565b600090565b61110f611102565b61111a8184846110dd565b505050565b5b8181101561113e57611133600082611107565b600181019050611120565b5050565b601f8211156111835761115481611023565b61115d84611038565b8101602085101561116c578190505b61118061117885611038565b83018261111f565b50505b505050565b600082821c905092915050565b60006111a660001984600802611188565b1980831691505092915050565b60006111bf8383611195565b9150826002028217905092915050565b6111d882611018565b67ffffffffffffffff8111156111f1576111f0610ba6565b5b6111fb8254610f89565b611206828285611142565b600060209050601f8311600181146112395760008415611227578287015190505b61123185826111b3565b865550611299565b601f19841661124786611023565b60005b8281101561126f5784890151825560018201915060208501945060208101905061124a565b8683101561128c5784890151611288601f891682611195565b8355505b6001600288020188555050505b505050505050565b7f4e487b7100000000000000000000000000000000000000000000000000000000600052601160045260246000fd5b60006112db82610e85565b91507fffffffffffffffffffffffffffffffffffffffffffffffffffffffffffffffff820361130d5761130c6112a1565b5b600182019050919050565b600081905092915050565b600061132e82611018565b6113388185611318565b9350611348818560208601610d51565b80840191505092915050565b60006113608284611323565b91508190509291505056fea2646970667358221220936ccd73127b194b7769579160a38c5ed274f364db0877f0efbc15337383a1cc64736f6c63430008110033",
  "linkReferences": {},
  "deployedLinkReferences": {}
}