{
  "_format": "hh-sol-artifact-1",
  "contractName": "Surpay",
  "sourceName": "contracts/Surpay.sol",
  "abi": [
    {
      "inputs": [
        {
          "internalType": "uint256",
          "name": "",
          "type": "uint256"
        }
      ],
      "name": "companies",
      "outputs": [
        {
          "internalType": "string",
          "name": "id",
          "type": "string"
        },
        {
          "internalType": "address",
          "name": "companyAddress",
          "type": "address"
        }
      ],
      "stateMutability": "view",
      "type": "function"
    }
  ],
  "bytecode": "0x608060405234801561001057600080fd5b5061033c806100206000396000f3fe608060405234801561001057600080fd5b506004361061002b5760003560e01c80632813d19d14610030575b600080fd5b61004a60048036038101906100459190610178565b610061565b604051610058929190610276565b60405180910390f35b6000818154811061007157600080fd5b9060005260206000209060030201600091509050806000018054610094906102d5565b80601f01602080910402602001604051908101604052809291908181526020018280546100c0906102d5565b801561010d5780601f106100e25761010080835404028352916020019161010d565b820191906000526020600020905b8154815290600101906020018083116100f057829003601f168201915b5050505050908060010160009054906101000a900473ffffffffffffffffffffffffffffffffffffffff16905082565b600080fd5b6000819050919050565b61015581610142565b811461016057600080fd5b50565b6000813590506101728161014c565b92915050565b60006020828403121561018e5761018d61013d565b5b600061019c84828501610163565b91505092915050565b600081519050919050565b600082825260208201905092915050565b60005b838110156101df5780820151818401526020810190506101c4565b60008484015250505050565b6000601f19601f8301169050919050565b6000610207826101a5565b61021181856101b0565b93506102218185602086016101c1565b61022a816101eb565b840191505092915050565b600073ffffffffffffffffffffffffffffffffffffffff82169050919050565b600061026082610235565b9050919050565b61027081610255565b82525050565b6000604082019050818103600083015261029081856101fc565b905061029f6020830184610267565b9392505050565b7f4e487b7100000000000000000000000000000000000000000000000000000000600052602260045260246000fd5b600060028204905060018216806102ed57607f821691505b602082108103610300576102ff6102a6565b5b5091905056fea264697066735822122004389cbee7e1ec03185488e66c9a66efc4e8d7d8a62a50a91666c8db5911c8ec64736f6c63430008110033",
  "linkReferences": {},
  "deployedLinkReferences": {}
}