{
  "_format": "hh-sol-artifact-1",
  "contractName": "Surpay",
  "sourceName": "contracts/Surpay.sol",
  "abi": [
    {
      "inputs": [
        {
          "internalType": "uint256",
          "name": "_surveyCreationFee",
          "type": "uint256"
        },
        {
          "internalType": "uint256",
          "name": "_interval",
          "type": "uint256"
        }
      ],
      "stateMutability": "nonpayable",
      "type": "constructor"
    },
    {
      "inputs": [],
      "name": "Surpay__MaximumRespondantsReached",
      "type": "error"
    },
    {
      "inputs": [],
      "name": "Surpay__NotEnoughFunds",
      "type": "error"
    },
    {
      "inputs": [],
      "name": "Surpay__SurveyNotFound",
      "type": "error"
    },
    {
      "inputs": [],
      "name": "Surpay__TransferFailed",
      "type": "error"
    },
    {
      "anonymous": false,
      "inputs": [
        {
          "indexed": true,
          "internalType": "string",
          "name": "surveyData",
          "type": "string"
        }
      ],
      "name": "SurveyCompleted",
      "type": "event"
    },
    {
      "anonymous": false,
      "inputs": [
        {
          "indexed": true,
          "internalType": "string",
          "name": "surveyId",
          "type": "string"
        }
      ],
      "name": "SurveyCreated",
      "type": "event"
    },
    {
      "anonymous": false,
      "inputs": [
        {
          "indexed": true,
          "internalType": "string",
          "name": "surveyId",
          "type": "string"
        }
      ],
      "name": "SurveyTakersPaid",
      "type": "event"
    },
    {
      "anonymous": false,
      "inputs": [
        {
          "indexed": true,
          "internalType": "address",
          "name": "surveyTaker",
          "type": "address"
        }
      ],
      "name": "UserAddedToSurvey",
      "type": "event"
    },
    {
      "inputs": [
        {
          "internalType": "bytes",
          "name": "",
          "type": "bytes"
        }
      ],
      "name": "checkUpkeep",
      "outputs": [
        {
          "internalType": "bool",
          "name": "upkeepNeeded",
          "type": "bool"
        },
        {
          "internalType": "bytes",
          "name": "",
          "type": "bytes"
        }
      ],
      "stateMutability": "nonpayable",
      "type": "function"
    },
    {
      "inputs": [
        {
          "internalType": "string",
          "name": "_surveyId",
          "type": "string"
        },
        {
          "internalType": "string",
          "name": "_companyId",
          "type": "string"
        },
        {
          "internalType": "uint256",
          "name": "_totalPayoutAmount",
          "type": "uint256"
        },
        {
          "internalType": "uint256",
          "name": "_numOfParticipantsDesired",
          "type": "uint256"
        }
      ],
      "name": "createSurvey",
      "outputs": [],
      "stateMutability": "payable",
      "type": "function"
    },
    {
      "inputs": [],
      "name": "getInterval",
      "outputs": [
        {
          "internalType": "uint256",
          "name": "",
          "type": "uint256"
        }
      ],
      "stateMutability": "view",
      "type": "function"
    },
    {
      "inputs": [
        {
          "internalType": "uint256",
          "name": "surveyIndex",
          "type": "uint256"
        }
      ],
      "name": "getLastTimeStampBySurveyIndex",
      "outputs": [
        {
          "internalType": "uint256",
          "name": "",
          "type": "uint256"
        }
      ],
      "stateMutability": "view",
      "type": "function"
    },
    {
      "inputs": [
        {
          "internalType": "uint256",
          "name": "index",
          "type": "uint256"
        }
      ],
      "name": "getPayoutByIndex",
      "outputs": [
        {
          "internalType": "uint256",
          "name": "",
          "type": "uint256"
        }
      ],
      "stateMutability": "view",
      "type": "function"
    },
    {
      "inputs": [
        {
          "internalType": "uint256",
          "name": "index",
          "type": "uint256"
        }
      ],
      "name": "getSurveyByIndex",
      "outputs": [
        {
          "internalType": "string",
          "name": "",
          "type": "string"
        }
      ],
      "stateMutability": "view",
      "type": "function"
    },
    {
      "inputs": [],
      "name": "getSurveyCreationFee",
      "outputs": [
        {
          "internalType": "uint256",
          "name": "",
          "type": "uint256"
        }
      ],
      "stateMutability": "view",
      "type": "function"
    },
    {
      "inputs": [
        {
          "internalType": "uint256",
          "name": "surveyIndex",
          "type": "uint256"
        },
        {
          "internalType": "uint256",
          "name": "responseIndex",
          "type": "uint256"
        }
      ],
      "name": "getSurveyResponseDataByIndex",
      "outputs": [
        {
          "internalType": "string",
          "name": "",
          "type": "string"
        }
      ],
      "stateMutability": "view",
      "type": "function"
    },
    {
      "inputs": [
        {
          "internalType": "string",
          "name": "_surveyId",
          "type": "string"
        }
      ],
      "name": "getSurveyState",
      "outputs": [
        {
          "internalType": "enum Surpay.SurveyState",
          "name": "",
          "type": "uint8"
        }
      ],
      "stateMutability": "view",
      "type": "function"
    },
    {
      "inputs": [
        {
          "internalType": "uint256",
          "name": "surveyIndex",
          "type": "uint256"
        },
        {
          "internalType": "uint256",
          "name": "userIndex",
          "type": "uint256"
        }
      ],
      "name": "getSurveyTakerByIndex",
      "outputs": [
        {
          "internalType": "address",
          "name": "",
          "type": "address"
        }
      ],
      "stateMutability": "view",
      "type": "function"
    },
    {
      "inputs": [
        {
          "internalType": "bytes",
          "name": "",
          "type": "bytes"
        }
      ],
      "name": "performUpkeep",
      "outputs": [],
      "stateMutability": "nonpayable",
      "type": "function"
    },
    {
      "inputs": [
        {
          "internalType": "string",
          "name": "_surveyId",
          "type": "string"
        },
        {
          "internalType": "string",
          "name": "_surveyData",
          "type": "string"
        }
      ],
      "name": "sendUserSurveyData",
      "outputs": [],
      "stateMutability": "nonpayable",
      "type": "function"
    }
  ],
  "bytecode": "0x60c06040523480156200001157600080fd5b5060405162002b2738038062002b2783398181016040528101906200003791906200008f565b81608081815250508060a081815250505050620000d6565b600080fd5b6000819050919050565b620000698162000054565b81146200007557600080fd5b50565b60008151905062000089816200005e565b92915050565b60008060408385031215620000a957620000a86200004f565b5b6000620000b98582860162000078565b9250506020620000cc8582860162000078565b9150509250929050565b60805160a051612a246200010360003960006110b801526000818161121d01526115770152612a246000f3fe6080604052600436106100a75760003560e01c80639f5922a7116100645780639f5922a7146101e1578063ab279df41461021e578063ac9d6a2b1461025b578063b374ff2914610277578063bab26fd2146102b4578063f3207403146102df576100a7565b80632b5f2325146100ac5780634585e33b146100e95780636e04ff0d1461011257806377b5df8e146101505780638beb80da1461017957806391ad27b4146101b6575b600080fd5b3480156100b857600080fd5b506100d360048036038101906100ce9190611dd4565b61031c565b6040516100e09190611e10565b60405180910390f35b3480156100f557600080fd5b50610110600480360381019061010b9190611e90565b61038e565b005b34801561011e57600080fd5b506101396004803603810190610134919061201e565b6107e2565b604051610147929190612101565b60405180910390f35b34801561015c57600080fd5b50610177600480360381019061017291906121d2565b610d62565b005b34801561018557600080fd5b506101a0600480360381019061019b9190611dd4565b611086565b6040516101ad9190611e10565b60405180910390f35b3480156101c257600080fd5b506101cb6110b4565b6040516101d89190611e10565b60405180910390f35b3480156101ed57600080fd5b506102086004803603810190610203919061224a565b6110dc565b60405161021591906122cb565b60405180910390f35b34801561022a57600080fd5b506102456004803603810190610240919061224a565b611147565b604051610252919061233b565b60405180910390f35b6102756004803603810190610270919061235d565b61121b565b005b34801561028357600080fd5b5061029e600480360381019061029991906123fc565b611496565b6040516102ab91906124bc565b60405180910390f35b3480156102c057600080fd5b506102c9611573565b6040516102d69190611e10565b60405180910390f35b3480156102eb57600080fd5b5061030660048036038101906103019190611dd4565b61159b565b604051610313919061233b565b60405180910390f35b60008080549050821015610357576000828154811061033e5761033d6124d7565b5b90600052602060002090600a0201600301549050610389565b6040517fb01e933700000000000000000000000000000000000000000000000000000000815260040160405180910390fd5b919050565b60006103a8604051806020016040528060008152506107e2565b50905080156107dd5760006001805480602002602001604051908101604052809291908181526020016000905b8282101561074c57838290600052602060002090600a02016040518061014001604052908160008201805461040990612535565b80601f016020809104026020016040519081016040528092919081815260200182805461043590612535565b80156104825780601f1061045757610100808354040283529160200191610482565b820191906000526020600020905b81548152906001019060200180831161046557829003601f168201915b5050505050815260200160018201805461049b90612535565b80601f01602080910402602001604051908101604052809291908181526020018280546104c790612535565b80156105145780601f106104e957610100808354040283529160200191610514565b820191906000526020600020905b8154815290600101906020018083116104f757829003601f168201915b505050505081526020016002820160009054906101000a900473ffffffffffffffffffffffffffffffffffffffff1673ffffffffffffffffffffffffffffffffffffffff1673ffffffffffffffffffffffffffffffffffffffff16815260200160038201548152602001600482015481526020016005820154815260200160068201805480602002602001604051908101604052809291908181526020016000905b828210156106625783829060005260206000200180546105d590612535565b80601f016020809104026020016040519081016040528092919081815260200182805461060190612535565b801561064e5780601f106106235761010080835404028352916020019161064e565b820191906000526020600020905b81548152906001019060200180831161063157829003601f168201915b5050505050815260200190600101906105b6565b505050508152602001600782018054806020026020016040519081016040528092919081815260200182805480156106ef57602002820191906000526020600020905b8160009054906101000a900473ffffffffffffffffffffffffffffffffffffffff1673ffffffffffffffffffffffffffffffffffffffff16815260200190600101908083116106a5575b50505050508152602001600882015481526020016009820160009054906101000a900460ff16600181111561072757610726612445565b5b600181111561073957610738612445565b5b81525050815260200190600101906103d5565b50505050905060005b81518110156107da5761076781611696565b81818151811061077a576107796124d7565b5b60200260200101516000015160405161079391906125a2565b60405180910390207fa7998895d8d2e7856091bd8a5895a54d831c4d6c8bd8a8611ec2c1f873872fef60405160405180910390a280806107d2906125e8565b915050610755565b50505b505050565b60006060600080805480602002602001604051908101604052809291908181526020016000905b82821015610b8057838290600052602060002090600a02016040518061014001604052908160008201805461083d90612535565b80601f016020809104026020016040519081016040528092919081815260200182805461086990612535565b80156108b65780601f1061088b576101008083540402835291602001916108b6565b820191906000526020600020905b81548152906001019060200180831161089957829003601f168201915b505050505081526020016001820180546108cf90612535565b80601f01602080910402602001604051908101604052809291908181526020018280546108fb90612535565b80156109485780601f1061091d57610100808354040283529160200191610948565b820191906000526020600020905b81548152906001019060200180831161092b57829003601f168201915b505050505081526020016002820160009054906101000a900473ffffffffffffffffffffffffffffffffffffffff1673ffffffffffffffffffffffffffffffffffffffff1673ffffffffffffffffffffffffffffffffffffffff16815260200160038201548152602001600482015481526020016005820154815260200160068201805480602002602001604051908101604052809291908181526020016000905b82821015610a96578382906000526020600020018054610a0990612535565b80601f0160208091040260200160405190810160405280929190818152602001828054610a3590612535565b8015610a825780601f10610a5757610100808354040283529160200191610a82565b820191906000526020600020905b815481529060010190602001808311610a6557829003601f168201915b5050505050815260200190600101906109ea565b50505050815260200160078201805480602002602001604051908101604052809291908181526020018280548015610b2357602002820191906000526020600020905b8160009054906101000a900473ffffffffffffffffffffffffffffffffffffffff1673ffffffffffffffffffffffffffffffffffffffff1681526020019060010190808311610ad9575b50505050508152602001600882015481526020016009820160009054906101000a900460ff166001811115610b5b57610b5a612445565b5b6001811115610b6d57610b6c612445565b5b8152505081526020019060010190610809565b50505050905060005b8151811015610d3f57600180811115610ba557610ba4612445565b5b828281518110610bb857610bb76124d7565b5b602002602001015161012001516001811115610bd757610bd6612445565b5b03610d2c576001828281518110610bf157610bf06124d7565b5b602002602001015190806001815401808255809150506001900390600052602060002090600a02016000909190919091506000820151816000019081610c3791906127dc565b506020820151816001019081610c4d91906127dc565b5060408201518160020160006101000a81548173ffffffffffffffffffffffffffffffffffffffff021916908373ffffffffffffffffffffffffffffffffffffffff160217905550606082015181600301556080820151816004015560a0820151816005015560c0820151816006019080519060200190610ccf929190611bab565b5060e0820151816007019080519060200190610cec929190611c04565b5061010082015181600801556101208201518160090160006101000a81548160ff02191690836001811115610d2457610d23612445565b5b021790555050505b8080610d37906125e8565b915050610b89565b5060006001805490501115610d575760019250610d5c565b600092505b50915091565b60005b6000805490508110156110815782604051602001610d8391906125a2565b6040516020818303038152906040528051906020012060008281548110610dad57610dac6124d7565b5b90600052602060002090600a0201600001604051602001610dce9190612931565b604051602081830303815290604052805190602001200361106e5760008181548110610dfd57610dfc6124d7565b5b90600052602060002090600a02016005015460008281548110610e2357610e226124d7565b5b90600052602060002090600a020160040154111561103c5760008181548110610e4f57610e4e6124d7565b5b90600052602060002090600a020160060182908060018154018082558091505060019003906000526020600020016000909190919091509081610e9291906127dc565b5060008181548110610ea757610ea66124d7565b5b90600052602060002090600a0201600701339080600181540180825580915050600190039060005260206000200160009091909190916101000a81548173ffffffffffffffffffffffffffffffffffffffff021916908373ffffffffffffffffffffffffffffffffffffffff16021790555060008181548110610f2d57610f2c6124d7565b5b90600052602060002090600a02016005016000815480929190610f4f906125e8565b919050555060008181548110610f6857610f676124d7565b5b90600052602060002090600a02016005015460008281548110610f8e57610f8d6124d7565b5b90600052602060002090600a02016004015403610ff457600160008281548110610fbb57610fba6124d7565b5b90600052602060002090600a020160090160006101000a81548160ff02191690836001811115610fee57610fed612445565b5b02179055505b3373ffffffffffffffffffffffffffffffffffffffff167f099cc064944e6569611b439843932fa853d46618d78ca5a8e3989bcc5614853d60405160405180910390a2611081565b6040517f13c8108e00000000000000000000000000000000000000000000000000000000815260040160405180910390fd5b8080611079906125e8565b915050610d65565b505050565b600080828154811061109b5761109a6124d7565b5b90600052602060002090600a0201600801549050919050565b60007f0000000000000000000000000000000000000000000000000000000000000000905090565b60008083815481106110f1576110f06124d7565b5b90600052602060002090600a02016007018281548110611114576111136124d7565b5b9060005260206000200160009054906101000a900473ffffffffffffffffffffffffffffffffffffffff16905092915050565b60606000838154811061115d5761115c6124d7565b5b90600052602060002090600a020160060182815481106111805761117f6124d7565b5b90600052602060002001805461119590612535565b80601f01602080910402602001604051908101604052809291908181526020018280546111c190612535565b801561120e5780601f106111e35761010080835404028352916020019161120e565b820191906000526020600020905b8154815290600101906020018083116111f157829003601f168201915b5050505050905092915050565b7f0000000000000000000000000000000000000000000000000000000000000000341015611275576040517fc09bb52500000000000000000000000000000000000000000000000000000000815260040160405180910390fd5b61127d611c8e565b84816000018190525083816020018190525033816040019073ffffffffffffffffffffffffffffffffffffffff16908173ffffffffffffffffffffffffffffffffffffffff16815250508281606001818152505081816080018181525050428161010001818152505060008161012001906001811115611300576112ff612445565b5b9081600181111561131457611313612445565b5b8152505060008190806001815401808255809150506001900390600052602060002090600a0201600090919091909150600082015181600001908161135991906127dc565b50602082015181600101908161136f91906127dc565b5060408201518160020160006101000a81548173ffffffffffffffffffffffffffffffffffffffff021916908373ffffffffffffffffffffffffffffffffffffffff160217905550606082015181600301556080820151816004015560a0820151816005015560c08201518160060190805190602001906113f1929190611bab565b5060e082015181600701908051906020019061140e929190611c04565b5061010082015181600801556101208201518160090160006101000a81548160ff0219169083600181111561144657611445612445565b5b021790555050508460405161145b91906125a2565b60405180910390207fcc65c6fb1d804ba1dc418f9e3659483d310357279f035d45b8ea484fd6fe4a2f60405160405180910390a25050505050565b60008060005b60008054905081101561156957836040516020016114ba91906125a2565b60405160208183030381529060405280519060200120600082815481106114e4576114e36124d7565b5b90600052602060002090600a02016000016040516020016115059190612931565b60405160208183030381529060405280519060200120036115565760008181548110611534576115336124d7565b5b90600052602060002090600a020160090160009054906101000a900460ff1691505b8080611561906125e8565b91505061149c565b5080915050919050565b60007f0000000000000000000000000000000000000000000000000000000000000000905090565b606060008054905082101561165f57600082815481106115be576115bd6124d7565b5b90600052602060002090600a020160000180546115da90612535565b80601f016020809104026020016040519081016040528092919081815260200182805461160690612535565b80156116535780601f1061162857610100808354040283529160200191611653565b820191906000526020600020905b81548152906001019060200180831161163657829003601f168201915b50505050509050611691565b6040517fb01e933700000000000000000000000000000000000000000000000000000000815260040160405180910390fd5b919050565b60006001805480602002602001604051908101604052809291908181526020016000905b82821015611a3157838290600052602060002090600a0201604051806101400160405290816000820180546116ee90612535565b80601f016020809104026020016040519081016040528092919081815260200182805461171a90612535565b80156117675780601f1061173c57610100808354040283529160200191611767565b820191906000526020600020905b81548152906001019060200180831161174a57829003601f168201915b5050505050815260200160018201805461178090612535565b80601f01602080910402602001604051908101604052809291908181526020018280546117ac90612535565b80156117f95780601f106117ce576101008083540402835291602001916117f9565b820191906000526020600020905b8154815290600101906020018083116117dc57829003601f168201915b505050505081526020016002820160009054906101000a900473ffffffffffffffffffffffffffffffffffffffff1673ffffffffffffffffffffffffffffffffffffffff1673ffffffffffffffffffffffffffffffffffffffff16815260200160038201548152602001600482015481526020016005820154815260200160068201805480602002602001604051908101604052809291908181526020016000905b828210156119475783829060005260206000200180546118ba90612535565b80601f01602080910402602001604051908101604052809291908181526020018280546118e690612535565b80156119335780601f1061190857610100808354040283529160200191611933565b820191906000526020600020905b81548152906001019060200180831161191657829003601f168201915b50505050508152602001906001019061189b565b505050508152602001600782018054806020026020016040519081016040528092919081815260200182805480156119d457602002820191906000526020600020905b8160009054906101000a900473ffffffffffffffffffffffffffffffffffffffff1673ffffffffffffffffffffffffffffffffffffffff168152602001906001019080831161198a575b50505050508152602001600882015481526020016009820160009054906101000a900460ff166001811115611a0c57611a0b612445565b5b6001811115611a1e57611a1d612445565b5b81525050815260200190600101906116ba565b5050505090506000818381518110611a4c57611a4b6124d7565b5b602002602001015160a00151828481518110611a6b57611a6a6124d7565b5b602002602001015160600151611a819190612977565b905060005b828481518110611a9957611a986124d7565b5b602002602001015160e0015151811015611ba55747821015611b92576000838581518110611aca57611ac96124d7565b5b602002602001015160e001518281518110611ae857611ae76124d7565b5b602002602001015173ffffffffffffffffffffffffffffffffffffffff1683604051611b13906129d9565b60006040518083038185875af1925050503d8060008114611b50576040519150601f19603f3d011682016040523d82523d6000602084013e611b55565b606091505b5050905080611b90576040517f09e6a19a00000000000000000000000000000000000000000000000000000000815260040160405180910390fd5b505b8080611b9d906125e8565b915050611a86565b50505050565b828054828255906000526020600020908101928215611bf3579160200282015b82811115611bf2578251829081611be291906127dc565b5091602001919060010190611bcb565b5b509050611c009190611d09565b5090565b828054828255906000526020600020908101928215611c7d579160200282015b82811115611c7c5782518260006101000a81548173ffffffffffffffffffffffffffffffffffffffff021916908373ffffffffffffffffffffffffffffffffffffffff16021790555091602001919060010190611c24565b5b509050611c8a9190611d2d565b5090565b6040518061014001604052806060815260200160608152602001600073ffffffffffffffffffffffffffffffffffffffff16815260200160008152602001600081526020016000815260200160608152602001606081526020016000815260200160006001811115611d0357611d02612445565b5b81525090565b5b80821115611d295760008181611d209190611d4a565b50600101611d0a565b5090565b5b80821115611d46576000816000905550600101611d2e565b5090565b508054611d5690612535565b6000825580601f10611d685750611d87565b601f016020900490600052602060002090810190611d869190611d2d565b5b50565b6000604051905090565b600080fd5b600080fd5b6000819050919050565b611db181611d9e565b8114611dbc57600080fd5b50565b600081359050611dce81611da8565b92915050565b600060208284031215611dea57611de9611d94565b5b6000611df884828501611dbf565b91505092915050565b611e0a81611d9e565b82525050565b6000602082019050611e256000830184611e01565b92915050565b600080fd5b600080fd5b600080fd5b60008083601f840112611e5057611e4f611e2b565b5b8235905067ffffffffffffffff811115611e6d57611e6c611e30565b5b602083019150836001820283011115611e8957611e88611e35565b5b9250929050565b60008060208385031215611ea757611ea6611d94565b5b600083013567ffffffffffffffff811115611ec557611ec4611d99565b5b611ed185828601611e3a565b92509250509250929050565b600080fd5b6000601f19601f8301169050919050565b7f4e487b7100000000000000000000000000000000000000000000000000000000600052604160045260246000fd5b611f2b82611ee2565b810181811067ffffffffffffffff82111715611f4a57611f49611ef3565b5b80604052505050565b6000611f5d611d8a565b9050611f698282611f22565b919050565b600067ffffffffffffffff821115611f8957611f88611ef3565b5b611f9282611ee2565b9050602081019050919050565b82818337600083830152505050565b6000611fc1611fbc84611f6e565b611f53565b905082815260208101848484011115611fdd57611fdc611edd565b5b611fe8848285611f9f565b509392505050565b600082601f83011261200557612004611e2b565b5b8135612015848260208601611fae565b91505092915050565b60006020828403121561203457612033611d94565b5b600082013567ffffffffffffffff81111561205257612051611d99565b5b61205e84828501611ff0565b91505092915050565b60008115159050919050565b61207c81612067565b82525050565b600081519050919050565b600082825260208201905092915050565b60005b838110156120bc5780820151818401526020810190506120a1565b60008484015250505050565b60006120d382612082565b6120dd818561208d565b93506120ed81856020860161209e565b6120f681611ee2565b840191505092915050565b60006040820190506121166000830185612073565b818103602083015261212881846120c8565b90509392505050565b600067ffffffffffffffff82111561214c5761214b611ef3565b5b61215582611ee2565b9050602081019050919050565b600061217561217084612131565b611f53565b90508281526020810184848401111561219157612190611edd565b5b61219c848285611f9f565b509392505050565b600082601f8301126121b9576121b8611e2b565b5b81356121c9848260208601612162565b91505092915050565b600080604083850312156121e9576121e8611d94565b5b600083013567ffffffffffffffff81111561220757612206611d99565b5b612213858286016121a4565b925050602083013567ffffffffffffffff81111561223457612233611d99565b5b612240858286016121a4565b9150509250929050565b6000806040838503121561226157612260611d94565b5b600061226f85828601611dbf565b925050602061228085828601611dbf565b9150509250929050565b600073ffffffffffffffffffffffffffffffffffffffff82169050919050565b60006122b58261228a565b9050919050565b6122c5816122aa565b82525050565b60006020820190506122e060008301846122bc565b92915050565b600081519050919050565b600082825260208201905092915050565b600061230d826122e6565b61231781856122f1565b935061232781856020860161209e565b61233081611ee2565b840191505092915050565b600060208201905081810360008301526123558184612302565b905092915050565b6000806000806080858703121561237757612376611d94565b5b600085013567ffffffffffffffff81111561239557612394611d99565b5b6123a1878288016121a4565b945050602085013567ffffffffffffffff8111156123c2576123c1611d99565b5b6123ce878288016121a4565b93505060406123df87828801611dbf565b92505060606123f087828801611dbf565b91505092959194509250565b60006020828403121561241257612411611d94565b5b600082013567ffffffffffffffff8111156124305761242f611d99565b5b61243c848285016121a4565b91505092915050565b7f4e487b7100000000000000000000000000000000000000000000000000000000600052602160045260246000fd5b6002811061248557612484612445565b5b50565b600081905061249682612474565b919050565b60006124a682612488565b9050919050565b6124b68161249b565b82525050565b60006020820190506124d160008301846124ad565b92915050565b7f4e487b7100000000000000000000000000000000000000000000000000000000600052603260045260246000fd5b7f4e487b7100000000000000000000000000000000000000000000000000000000600052602260045260246000fd5b6000600282049050600182168061254d57607f821691505b6020821081036125605761255f612506565b5b50919050565b600081905092915050565b600061257c826122e6565b6125868185612566565b935061259681856020860161209e565b80840191505092915050565b60006125ae8284612571565b915081905092915050565b7f4e487b7100000000000000000000000000000000000000000000000000000000600052601160045260246000fd5b60006125f382611d9e565b91507fffffffffffffffffffffffffffffffffffffffffffffffffffffffffffffffff8203612625576126246125b9565b5b600182019050919050565b60008190508160005260206000209050919050565b60006020601f8301049050919050565b600082821b905092915050565b6000600883026126927fffffffffffffffffffffffffffffffffffffffffffffffffffffffffffffffff82612655565b61269c8683612655565b95508019841693508086168417925050509392505050565b6000819050919050565b60006126d96126d46126cf84611d9e565b6126b4565b611d9e565b9050919050565b6000819050919050565b6126f3836126be565b6127076126ff826126e0565b848454612662565b825550505050565b600090565b61271c61270f565b6127278184846126ea565b505050565b5b8181101561274b57612740600082612714565b60018101905061272d565b5050565b601f8211156127905761276181612630565b61276a84612645565b81016020851015612779578190505b61278d61278585612645565b83018261272c565b50505b505050565b600082821c905092915050565b60006127b360001984600802612795565b1980831691505092915050565b60006127cc83836127a2565b9150826002028217905092915050565b6127e5826122e6565b67ffffffffffffffff8111156127fe576127fd611ef3565b5b6128088254612535565b61281382828561274f565b600060209050601f8311600181146128465760008415612834578287015190505b61283e85826127c0565b8655506128a6565b601f19841661285486612630565b60005b8281101561287c57848901518255600182019150602085019450602081019050612857565b868310156128995784890151612895601f8916826127a2565b8355505b6001600288020188555050505b505050505050565b600081546128bb81612535565b6128c58186612566565b945060018216600081146128e057600181146128f557612928565b60ff1983168652811515820286019350612928565b6128fe85612630565b60005b8381101561292057815481890152600182019150602081019050612901565b838801955050505b50505092915050565b600061293d82846128ae565b915081905092915050565b7f4e487b7100000000000000000000000000000000000000000000000000000000600052601260045260246000fd5b600061298282611d9e565b915061298d83611d9e565b92508261299d5761299c612948565b5b828204905092915050565b600081905092915050565b50565b60006129c36000836129a8565b91506129ce826129b3565b600082019050919050565b60006129e4826129b6565b915081905091905056fea2646970667358221220879096752443d7130a326a53fc2afe4a23b2d36b488a415fdcf4db8330ac099d64736f6c63430008110033",
  "linkReferences": {},
  "deployedLinkReferences": {}
}