{
  "address": "0x5FbDB2315678afecb367f032d93F642f64180aa3",
  "abi": [
    {
      "inputs": [
        {
          "internalType": "uint256",
          "name": "_surveyCreationFee",
          "type": "uint256"
        }
      ],
      "stateMutability": "nonpayable",
      "type": "constructor"
    },
    {
      "inputs": [],
      "name": "Surpay__MaximumRespondantsReached",
      "type": "error"
    },
    {
      "inputs": [],
      "name": "Surpay__NotEnoughFunds",
      "type": "error"
    },
    {
      "inputs": [],
      "name": "Surpay__NotOwner",
      "type": "error"
    },
    {
      "inputs": [],
      "name": "Surpay__SurveyAlreadyConcluded",
      "type": "error"
    },
    {
      "inputs": [],
      "name": "Surpay__SurveyNotFound",
      "type": "error"
    },
    {
      "inputs": [],
      "name": "Surpay__TransferFailed",
      "type": "error"
    },
    {
      "inputs": [],
      "name": "Surpay__UpkeepNotNeeded",
      "type": "error"
    },
    {
      "anonymous": false,
      "inputs": [
        {
          "indexed": true,
          "internalType": "uint256",
          "name": "amount",
          "type": "uint256"
        }
      ],
      "name": "FundsWithdrawn",
      "type": "event"
    },
    {
      "anonymous": false,
      "inputs": [
        {
          "indexed": true,
          "internalType": "string",
          "name": "surveyId",
          "type": "string"
        }
      ],
      "name": "SurveyCompleted",
      "type": "event"
    },
    {
      "anonymous": false,
      "inputs": [
        {
          "indexed": true,
          "internalType": "string",
          "name": "surveyId",
          "type": "string"
        }
      ],
      "name": "SurveyCreated",
      "type": "event"
    },
    {
      "anonymous": false,
      "inputs": [
        {
          "indexed": true,
          "internalType": "string",
          "name": "surveyId",
          "type": "string"
        }
      ],
      "name": "SurveyTakersPaid",
      "type": "event"
    },
    {
      "anonymous": false,
      "inputs": [
        {
          "indexed": true,
          "internalType": "address",
          "name": "surveyTaker",
          "type": "address"
        }
      ],
      "name": "UserAddedToSurvey",
      "type": "event"
    },
    {
      "inputs": [
        {
          "internalType": "bytes",
          "name": "",
          "type": "bytes"
        }
      ],
      "name": "checkUpkeep",
      "outputs": [
        {
          "internalType": "bool",
          "name": "upkeepNeeded",
          "type": "bool"
        },
        {
          "internalType": "bytes",
          "name": "",
          "type": "bytes"
        }
      ],
      "stateMutability": "nonpayable",
      "type": "function"
    },
    {
      "inputs": [
        {
          "internalType": "string",
          "name": "_surveyId",
          "type": "string"
        },
        {
          "internalType": "string",
          "name": "_companyId",
          "type": "string"
        },
        {
          "internalType": "uint256",
          "name": "_totalPayoutAmount",
          "type": "uint256"
        },
        {
          "internalType": "uint256",
          "name": "_numOfParticipantsDesired",
          "type": "uint256"
        }
      ],
      "name": "createSurvey",
      "outputs": [],
      "stateMutability": "payable",
      "type": "function"
    },
    {
      "inputs": [
        {
          "internalType": "uint256",
          "name": "index",
          "type": "uint256"
        }
      ],
      "name": "distributeFundsFromCompletedSurvey",
      "outputs": [],
      "stateMutability": "nonpayable",
      "type": "function"
    },
    {
      "inputs": [
        {
          "internalType": "string",
          "name": "surveyId",
          "type": "string"
        }
      ],
      "name": "getCompanyId",
      "outputs": [
        {
          "internalType": "string",
          "name": "",
          "type": "string"
        }
      ],
      "stateMutability": "view",
      "type": "function"
    },
    {
      "inputs": [],
      "name": "getFeeHolderAmount",
      "outputs": [
        {
          "internalType": "uint256",
          "name": "",
          "type": "uint256"
        }
      ],
      "stateMutability": "view",
      "type": "function"
    },
    {
      "inputs": [
        {
          "internalType": "string",
          "name": "surveyId",
          "type": "string"
        }
      ],
      "name": "getLastTimeStamp",
      "outputs": [
        {
          "internalType": "uint256",
          "name": "",
          "type": "uint256"
        }
      ],
      "stateMutability": "view",
      "type": "function"
    },
    {
      "inputs": [],
      "name": "getOwner",
      "outputs": [
        {
          "internalType": "address",
          "name": "",
          "type": "address"
        }
      ],
      "stateMutability": "view",
      "type": "function"
    },
    {
      "inputs": [
        {
          "internalType": "string",
          "name": "surveyId",
          "type": "string"
        }
      ],
      "name": "getPayoutPerPersonBySurveyId",
      "outputs": [
        {
          "internalType": "uint256",
          "name": "",
          "type": "uint256"
        }
      ],
      "stateMutability": "view",
      "type": "function"
    },
    {
      "inputs": [],
      "name": "getSurveyCreationFee",
      "outputs": [
        {
          "internalType": "uint256",
          "name": "",
          "type": "uint256"
        }
      ],
      "stateMutability": "view",
      "type": "function"
    },
    {
      "inputs": [
        {
          "internalType": "string",
          "name": "_surveyId",
          "type": "string"
        }
      ],
      "name": "getSurveyPayoutAmount",
      "outputs": [
        {
          "internalType": "uint256",
          "name": "",
          "type": "uint256"
        }
      ],
      "stateMutability": "view",
      "type": "function"
    },
    {
      "inputs": [
        {
          "internalType": "string",
          "name": "_surveyId",
          "type": "string"
        }
      ],
      "name": "getSurveyState",
      "outputs": [
        {
          "internalType": "enum Surpay.SurveyState",
          "name": "",
          "type": "uint8"
        }
      ],
      "stateMutability": "view",
      "type": "function"
    },
    {
      "inputs": [
        {
          "internalType": "string",
          "name": "surveyId",
          "type": "string"
        },
        {
          "internalType": "uint256",
          "name": "userIndex",
          "type": "uint256"
        }
      ],
      "name": "getSurveyTaker",
      "outputs": [
        {
          "internalType": "address",
          "name": "",
          "type": "address"
        }
      ],
      "stateMutability": "view",
      "type": "function"
    },
    {
      "inputs": [
        {
          "internalType": "bytes",
          "name": "",
          "type": "bytes"
        }
      ],
      "name": "performUpkeep",
      "outputs": [],
      "stateMutability": "nonpayable",
      "type": "function"
    },
    {
      "inputs": [],
      "name": "removeCompletedSurveys",
      "outputs": [],
      "stateMutability": "nonpayable",
      "type": "function"
    },
    {
      "inputs": [
        {
          "internalType": "string",
          "name": "_surveyId",
          "type": "string"
        },
        {
          "internalType": "address",
          "name": "userAddress",
          "type": "address"
        }
      ],
      "name": "sendUserSurveyData",
      "outputs": [],
      "stateMutability": "nonpayable",
      "type": "function"
    },
    {
      "inputs": [
        {
          "internalType": "uint256",
          "name": "amount",
          "type": "uint256"
        }
      ],
      "name": "withdrawFromFeeHolder",
      "outputs": [],
      "stateMutability": "nonpayable",
      "type": "function"
    }
  ],
  "transactionHash": "0x1393b871034135bfb18dba3f40eba71599367de4ed8475929aa29313f2bcd3c8",
  "args": [
    "10000000000000000"
  ],
  "numDeployments": 1,
  "solcInputHash": "217f43039c3403b67a7479b5e05c1843",
  "bytecode": "0x60a06040523480156200001157600080fd5b50604051620026b9380380620026b98339818101604052810190620000379190620000c6565b336000806101000a81548173ffffffffffffffffffffffffffffffffffffffff021916908373ffffffffffffffffffffffffffffffffffffffff160217905550806080818152505050620000f8565b600080fd5b6000819050919050565b620000a0816200008b565b8114620000ac57600080fd5b50565b600081519050620000c08162000095565b92915050565b600060208284031215620000df57620000de62000086565b5b6000620000ef84828501620000af565b91505092915050565b60805161259762000122600039600081816107f0015281816108540152610afc01526125976000f3fe6080604052600436106100f35760003560e01c8063b374ff291161008a578063e46552c911610059578063e46552c914610356578063e74b36df1461037f578063eb9992c3146103bc578063ed327e09146103d3576100f3565b8063b374ff2914610288578063bab26fd2146102c5578063c3b9a2c8146102f0578063e1744d7214610319576100f3565b80636e04ff0d116100c65780636e04ff0d146101c6578063893d20e8146102045780639759ac361461022f578063ac9d6a2b1461026c576100f3565b806301b43c3e146100f857806312998301146101235780634585e33b14610160578063653cba7d14610189575b600080fd5b34801561010457600080fd5b5061010d6103fc565b60405161011a919061191c565b60405180910390f35b34801561012f57600080fd5b5061014a60048036038101906101459190611abd565b610406565b6040516101579190611b5a565b60405180910390f35b34801561016c57600080fd5b5061018760048036038101906101829190611bd5565b6104ce565b005b34801561019557600080fd5b506101b060048036038101906101ab9190611c22565b610689565b6040516101bd919061191c565b60405180910390f35b3480156101d257600080fd5b506101ed60048036038101906101e89190611d0c565b610714565b6040516101fb929190611def565b60405180910390f35b34801561021057600080fd5b50610219610739565b6040516102269190611b5a565b60405180910390f35b34801561023b57600080fd5b5061025660048036038101906102519190611c22565b610762565b604051610263919061191c565b60405180910390f35b61028660048036038101906102819190611e1f565b6107ed565b005b34801561029457600080fd5b506102af60048036038101906102aa9190611c22565b610a60565b6040516102bc9190611f35565b60405180910390f35b3480156102d157600080fd5b506102da610af8565b6040516102e7919061191c565b60405180910390f35b3480156102fc57600080fd5b5061031760048036038101906103129190611f50565b610b20565b005b34801561032557600080fd5b50610340600480360381019061033b9190611c22565b610f0b565b60405161034d9190611fd2565b60405180910390f35b34801561036257600080fd5b5061037d60048036038101906103789190611f50565b610fbe565b005b34801561038b57600080fd5b506103a660048036038101906103a19190611c22565b611193565b6040516103b3919061191c565b60405180910390f35b3480156103c857600080fd5b506103d161124a565b005b3480156103df57600080fd5b506103fa60048036038101906103f59190612020565b61147e565b005b6000600354905090565b60008060018460405161041991906120b8565b90815260200160405180910390206003015411156104965760018360405161044191906120b8565b90815260200160405180910390206005018281548110610464576104636120cf565b5b9060005260206000200160009054906101000a900473ffffffffffffffffffffffffffffffffffffffff1690506104c8565b6040517fb01e933700000000000000000000000000000000000000000000000000000000815260040160405180910390fd5b92915050565b60006104e860405180602001604052806000815250610714565b50905080156106525760006002805480602002602001604051908101604052809291908181526020016000905b828210156105c15783829060005260206000200180546105349061212d565b80601f01602080910402602001604051908101604052809291908181526020018280546105609061212d565b80156105ad5780601f10610582576101008083540402835291602001916105ad565b820191906000526020600020905b81548152906001019060200180831161059057829003601f168201915b505050505081526020019060010190610515565b50505050905060005b815181101561064b576105dc81610b20565b8181815181106105ef576105ee6120cf565b5b602002602001015160405161060491906120b8565b60405180910390207fa7998895d8d2e7856091bd8a5895a54d831c4d6c8bd8a8611ec2c1f873872fef60405160405180910390a280806106439061218d565b9150506105ca565b5050610684565b6040517fe47d1a5100000000000000000000000000000000000000000000000000000000815260040160405180910390fd5b505050565b60008060018360405161069c91906120b8565b90815260200160405180910390206003015411156106dd576001826040516106c491906120b8565b908152602001604051809103902060060154905061070f565b6040517fb01e933700000000000000000000000000000000000000000000000000000000815260040160405180910390fd5b919050565b600060606000600280549050111561072f5760019150610734565b600091505b915091565b60008060009054906101000a900473ffffffffffffffffffffffffffffffffffffffff16905090565b60008060018360405161077591906120b8565b90815260200160405180910390206003015411156107b65760018260405161079d91906120b8565b90815260200160405180910390206002015490506107e8565b6040517fb01e933700000000000000000000000000000000000000000000000000000000815260040160405180910390fd5b919050565b817f000000000000000000000000000000000000000000000000000000000000000061081991906121d5565b341015610852576040517fc09bb52500000000000000000000000000000000000000000000000000000000815260040160405180910390fd5b7f00000000000000000000000000000000000000000000000000000000000000006003600082825461088491906121d5565b9250508190555061089361178e565b83816000018190525033816020019073ffffffffffffffffffffffffffffffffffffffff16908173ffffffffffffffffffffffffffffffffffffffff16815250508281604001818152505081816060018181525050428160c001818152505060008160e00190600281111561090b5761090a611ebe565b5b9081600281111561091f5761091e611ebe565b5b815250508060018660405161093491906120b8565b9081526020016040518091039020600082015181600001908161095791906123b5565b5060208201518160010160006101000a81548173ffffffffffffffffffffffffffffffffffffffff021916908373ffffffffffffffffffffffffffffffffffffffff16021790555060408201518160020155606082015181600301556080820151816004015560a08201518160050190805190602001906109d99291906117fb565b5060c0820151816006015560e08201518160070160006101000a81548160ff02191690836002811115610a0f57610a0e611ebe565b5b021790555090505084604051610a2591906120b8565b60405180910390207fcc65c6fb1d804ba1dc418f9e3659483d310357279f035d45b8ea484fd6fe4a2f60405160405180910390a25050505050565b600080600183604051610a7391906120b8565b9081526020016040518091039020600301541115610ac157600182604051610a9b91906120b8565b908152602001604051809103902060070160009054906101000a900460ff169050610af3565b6040517fb01e933700000000000000000000000000000000000000000000000000000000815260040160405180910390fd5b919050565b60007f0000000000000000000000000000000000000000000000000000000000000000905090565b60006002805480602002602001604051908101604052809291908181526020016000905b82821015610bf0578382906000526020600020018054610b639061212d565b80601f0160208091040260200160405190810160405280929190818152602001828054610b8f9061212d565b8015610bdc5780601f10610bb157610100808354040283529160200191610bdc565b820191906000526020600020905b815481529060010190602001808311610bbf57829003601f168201915b505050505081526020019060010190610b44565b505050509050600280811115610c0957610c08611ebe565b5b6001828481518110610c1e57610c1d6120cf565b5b6020026020010151604051610c3391906120b8565b908152602001604051809103902060070160009054906101000a900460ff166002811115610c6457610c63611ebe565b5b03610c9b576040517f4fc98f3b00000000000000000000000000000000000000000000000000000000815260040160405180910390fd5b60006001828481518110610cb257610cb16120cf565b5b6020026020010151604051610cc791906120b8565b9081526020016040518091039020600401546001838581518110610cee57610ced6120cf565b5b6020026020010151604051610d0391906120b8565b908152602001604051809103902060020154610d1f91906124b6565b905060005b6001838581518110610d3957610d386120cf565b5b6020026020010151604051610d4e91906120b8565b908152602001604051809103902060050180549050811015610ea15747821015610e8e5760006001848681518110610d8957610d886120cf565b5b6020026020010151604051610d9e91906120b8565b90815260200160405180910390206005018281548110610dc157610dc06120cf565b5b9060005260206000200160009054906101000a900473ffffffffffffffffffffffffffffffffffffffff1673ffffffffffffffffffffffffffffffffffffffff1683604051610e0f90612518565b60006040518083038185875af1925050503d8060008114610e4c576040519150601f19603f3d011682016040523d82523d6000602084013e610e51565b606091505b5050905080610e8c576040517f09e6a19a00000000000000000000000000000000000000000000000000000000815260040160405180910390fd5b505b8080610e999061218d565b915050610d24565b5060026001838581518110610eb957610eb86120cf565b5b6020026020010151604051610ece91906120b8565b908152602001604051809103902060070160006101000a81548160ff02191690836002811115610f0157610f00611ebe565b5b0217905550505050565b6060600182604051610f1d91906120b8565b90815260200160405180910390206000018054610f399061212d565b80601f0160208091040260200160405190810160405280929190818152602001828054610f659061212d565b8015610fb25780601f10610f8757610100808354040283529160200191610fb2565b820191906000526020600020905b815481529060010190602001808311610f9557829003601f168201915b50505050509050919050565b60008054906101000a900473ffffffffffffffffffffffffffffffffffffffff1673ffffffffffffffffffffffffffffffffffffffff163373ffffffffffffffffffffffffffffffffffffffff1614611043576040517fba34867000000000000000000000000000000000000000000000000000000000815260040160405180910390fd5b60035481111561107f576040517fc09bb52500000000000000000000000000000000000000000000000000000000815260040160405180910390fd5b60008060009054906101000a900473ffffffffffffffffffffffffffffffffffffffff1673ffffffffffffffffffffffffffffffffffffffff16826040516110c690612518565b60006040518083038185875af1925050503d8060008114611103576040519150601f19603f3d011682016040523d82523d6000602084013e611108565b606091505b50509050801561115d578160036000828254611124919061252d565b92505081905550817f4a37b25aab49761ecf63117fe82b98d750917451133cf797507bc9fb5b96044a60405160405180910390a261118f565b6040517f09e6a19a00000000000000000000000000000000000000000000000000000000815260040160405180910390fd5b5050565b6000806001836040516111a691906120b8565b9081526020016040518091039020600301541115611213576001826040516111ce91906120b8565b9081526020016040518091039020600301546001836040516111f091906120b8565b90815260200160405180910390206002015461120c91906124b6565b9050611245565b6040517fb01e933700000000000000000000000000000000000000000000000000000000815260040160405180910390fd5b919050565b60008054906101000a900473ffffffffffffffffffffffffffffffffffffffff1673ffffffffffffffffffffffffffffffffffffffff163373ffffffffffffffffffffffffffffffffffffffff16146112cf576040517fba34867000000000000000000000000000000000000000000000000000000000815260040160405180910390fd5b60006002805480602002602001604051908101604052809291908181526020016000905b8282101561139f5783829060005260206000200180546113129061212d565b80601f016020809104026020016040519081016040528092919081815260200182805461133e9061212d565b801561138b5780601f106113605761010080835404028352916020019161138b565b820191906000526020600020905b81548152906001019060200180831161136e57829003601f168201915b5050505050815260200190600101906112f3565b50505050905060005b815181101561147a5760018282815181106113c6576113c56120cf565b5b60200260200101516040516113db91906120b8565b9081526020016040518091039020600080820160006113fa9190611885565b6001820160006101000a81549073ffffffffffffffffffffffffffffffffffffffff021916905560028201600090556003820160009055600482016000905560058201600061144991906118c5565b60068201600090556007820160006101000a81549060ff0219169055505080806114729061218d565b9150506113a8565b5050565b60008054906101000a900473ffffffffffffffffffffffffffffffffffffffff1673ffffffffffffffffffffffffffffffffffffffff163373ffffffffffffffffffffffffffffffffffffffff1614611503576040517fba34867000000000000000000000000000000000000000000000000000000000815260040160405180910390fd5b60018260405161151391906120b8565b90815260200160405180910390206004015460018360405161153591906120b8565b90815260200160405180910390206003015411156117585760018260405161155d91906120b8565b9081526020016040518091039020600501819080600181540180825580915050600190039060005260206000200160009091909190916101000a81548173ffffffffffffffffffffffffffffffffffffffff021916908373ffffffffffffffffffffffffffffffffffffffff1602179055506001826040516115df91906120b8565b908152602001604051809103902060040160008154809291906116019061218d565b919050555060018260405161161691906120b8565b90815260200160405180910390206004015460018360405161163891906120b8565b90815260200160405180910390206003015403611710576001808360405161166091906120b8565b908152602001604051809103902060070160006101000a81548160ff0219169083600281111561169357611692611ebe565b5b02179055506002829080600181540180825580915050600190039060005260206000200160009091909190915090816116cc91906123b5565b50816040516116db91906120b8565b60405180910390207fc9629617ac320e57fa622f79c211617de659a3b7cbdda927e47dea5e4c0ab4da60405160405180910390a25b8073ffffffffffffffffffffffffffffffffffffffff167f099cc064944e6569611b439843932fa853d46618d78ca5a8e3989bcc5614853d60405160405180910390a261178a565b6040517f13c8108e00000000000000000000000000000000000000000000000000000000815260040160405180910390fd5b5050565b60405180610100016040528060608152602001600073ffffffffffffffffffffffffffffffffffffffff1681526020016000815260200160008152602001600081526020016060815260200160008152602001600060028111156117f5576117f4611ebe565b5b81525090565b828054828255906000526020600020908101928215611874579160200282015b828111156118735782518260006101000a81548173ffffffffffffffffffffffffffffffffffffffff021916908373ffffffffffffffffffffffffffffffffffffffff1602179055509160200191906001019061181b565b5b50905061188191906118e6565b5090565b5080546118919061212d565b6000825580601f106118a357506118c2565b601f0160209004906000526020600020908101906118c191906118e6565b5b50565b50805460008255906000526020600020908101906118e391906118e6565b50565b5b808211156118ff5760008160009055506001016118e7565b5090565b6000819050919050565b61191681611903565b82525050565b6000602082019050611931600083018461190d565b92915050565b6000604051905090565b600080fd5b600080fd5b600080fd5b600080fd5b6000601f19601f8301169050919050565b7f4e487b7100000000000000000000000000000000000000000000000000000000600052604160045260246000fd5b61199e82611955565b810181811067ffffffffffffffff821117156119bd576119bc611966565b5b80604052505050565b60006119d0611937565b90506119dc8282611995565b919050565b600067ffffffffffffffff8211156119fc576119fb611966565b5b611a0582611955565b9050602081019050919050565b82818337600083830152505050565b6000611a34611a2f846119e1565b6119c6565b905082815260208101848484011115611a5057611a4f611950565b5b611a5b848285611a12565b509392505050565b600082601f830112611a7857611a7761194b565b5b8135611a88848260208601611a21565b91505092915050565b611a9a81611903565b8114611aa557600080fd5b50565b600081359050611ab781611a91565b92915050565b60008060408385031215611ad457611ad3611941565b5b600083013567ffffffffffffffff811115611af257611af1611946565b5b611afe85828601611a63565b9250506020611b0f85828601611aa8565b9150509250929050565b600073ffffffffffffffffffffffffffffffffffffffff82169050919050565b6000611b4482611b19565b9050919050565b611b5481611b39565b82525050565b6000602082019050611b6f6000830184611b4b565b92915050565b600080fd5b600080fd5b60008083601f840112611b9557611b9461194b565b5b8235905067ffffffffffffffff811115611bb257611bb1611b75565b5b602083019150836001820283011115611bce57611bcd611b7a565b5b9250929050565b60008060208385031215611bec57611beb611941565b5b600083013567ffffffffffffffff811115611c0a57611c09611946565b5b611c1685828601611b7f565b92509250509250929050565b600060208284031215611c3857611c37611941565b5b600082013567ffffffffffffffff811115611c5657611c55611946565b5b611c6284828501611a63565b91505092915050565b600067ffffffffffffffff821115611c8657611c85611966565b5b611c8f82611955565b9050602081019050919050565b6000611caf611caa84611c6b565b6119c6565b905082815260208101848484011115611ccb57611cca611950565b5b611cd6848285611a12565b509392505050565b600082601f830112611cf357611cf261194b565b5b8135611d03848260208601611c9c565b91505092915050565b600060208284031215611d2257611d21611941565b5b600082013567ffffffffffffffff811115611d4057611d3f611946565b5b611d4c84828501611cde565b91505092915050565b60008115159050919050565b611d6a81611d55565b82525050565b600081519050919050565b600082825260208201905092915050565b60005b83811015611daa578082015181840152602081019050611d8f565b60008484015250505050565b6000611dc182611d70565b611dcb8185611d7b565b9350611ddb818560208601611d8c565b611de481611955565b840191505092915050565b6000604082019050611e046000830185611d61565b8181036020830152611e168184611db6565b90509392505050565b60008060008060808587031215611e3957611e38611941565b5b600085013567ffffffffffffffff811115611e5757611e56611946565b5b611e6387828801611a63565b945050602085013567ffffffffffffffff811115611e8457611e83611946565b5b611e9087828801611a63565b9350506040611ea187828801611aa8565b9250506060611eb287828801611aa8565b91505092959194509250565b7f4e487b7100000000000000000000000000000000000000000000000000000000600052602160045260246000fd5b60038110611efe57611efd611ebe565b5b50565b6000819050611f0f82611eed565b919050565b6000611f1f82611f01565b9050919050565b611f2f81611f14565b82525050565b6000602082019050611f4a6000830184611f26565b92915050565b600060208284031215611f6657611f65611941565b5b6000611f7484828501611aa8565b91505092915050565b600081519050919050565b600082825260208201905092915050565b6000611fa482611f7d565b611fae8185611f88565b9350611fbe818560208601611d8c565b611fc781611955565b840191505092915050565b60006020820190508181036000830152611fec8184611f99565b905092915050565b611ffd81611b39565b811461200857600080fd5b50565b60008135905061201a81611ff4565b92915050565b6000806040838503121561203757612036611941565b5b600083013567ffffffffffffffff81111561205557612054611946565b5b61206185828601611a63565b92505060206120728582860161200b565b9150509250929050565b600081905092915050565b600061209282611f7d565b61209c818561207c565b93506120ac818560208601611d8c565b80840191505092915050565b60006120c48284612087565b915081905092915050565b7f4e487b7100000000000000000000000000000000000000000000000000000000600052603260045260246000fd5b7f4e487b7100000000000000000000000000000000000000000000000000000000600052602260045260246000fd5b6000600282049050600182168061214557607f821691505b602082108103612158576121576120fe565b5b50919050565b7f4e487b7100000000000000000000000000000000000000000000000000000000600052601160045260246000fd5b600061219882611903565b91507fffffffffffffffffffffffffffffffffffffffffffffffffffffffffffffffff82036121ca576121c961215e565b5b600182019050919050565b60006121e082611903565b91506121eb83611903565b92508282019050808211156122035761220261215e565b5b92915050565b60008190508160005260206000209050919050565b60006020601f8301049050919050565b600082821b905092915050565b60006008830261226b7fffffffffffffffffffffffffffffffffffffffffffffffffffffffffffffffff8261222e565b612275868361222e565b95508019841693508086168417925050509392505050565b6000819050919050565b60006122b26122ad6122a884611903565b61228d565b611903565b9050919050565b6000819050919050565b6122cc83612297565b6122e06122d8826122b9565b84845461223b565b825550505050565b600090565b6122f56122e8565b6123008184846122c3565b505050565b5b81811015612324576123196000826122ed565b600181019050612306565b5050565b601f8211156123695761233a81612209565b6123438461221e565b81016020851015612352578190505b61236661235e8561221e565b830182612305565b50505b505050565b600082821c905092915050565b600061238c6000198460080261236e565b1980831691505092915050565b60006123a5838361237b565b9150826002028217905092915050565b6123be82611f7d565b67ffffffffffffffff8111156123d7576123d6611966565b5b6123e1825461212d565b6123ec828285612328565b600060209050601f83116001811461241f576000841561240d578287015190505b6124178582612399565b86555061247f565b601f19841661242d86612209565b60005b8281101561245557848901518255600182019150602085019450602081019050612430565b86831015612472578489015161246e601f89168261237b565b8355505b6001600288020188555050505b505050505050565b7f4e487b7100000000000000000000000000000000000000000000000000000000600052601260045260246000fd5b60006124c182611903565b91506124cc83611903565b9250826124dc576124db612487565b5b828204905092915050565b600081905092915050565b50565b60006125026000836124e7565b915061250d826124f2565b600082019050919050565b6000612523826124f5565b9150819050919050565b600061253882611903565b915061254383611903565b925082820390508181111561255b5761255a61215e565b5b9291505056fea2646970667358221220e5fc6de8b6e2509614dadf94f79176f3f555b87f8194a3dcf06526b91b47ef0764736f6c63430008110033",
  "devdoc": {
    "kind": "dev",
    "methods": {
      "checkUpkeep(bytes)": {
        "details": "Returns true only if there are any complete surveys."
      },
      "createSurvey(string,string,uint256,uint256)": {
        "details": "A survey can be created by anyone, but it must be calledwith both the total payout amount and the survey creationfee. The current fee is 0.01 ETH. "
      },
      "distributeFundsFromCompletedSurvey(uint256)": {
        "details": "The index of s_completeSurveys is passed in from performUpkeep()."
      },
      "performUpkeep(bytes)": {
        "details": "chainlink automation. perform upkeep fires if checkUpkeep returnstrue."
      },
      "sendUserSurveyData(string,address)": {
        "details": "The SurveyCompleted event is the event listener"
      },
      "withdrawFromFeeHolder(uint256)": {
        "details": "allows owner to withdraw no more than the survey creation fees."
      }
    },
    "stateVariables": {
      "i_owner": {
        "details": "s_surveys holds all survey data, with the surveyId as the key. completed surveys stors the surveyIds for all completed surveysThe surveyCreationFee is required for all new surveys.The surveyCreationFee is for tx fees and revenue for the service"
      }
    },
    "version": 1
  },
  "userdoc": {
    "kind": "user",
    "methods": {
      "removeCompletedSurveys()": {
        "notice": "Allows the owner to perform a clean up of any completed surveys"
      },
      "sendUserSurveyData(string,address)": {
        "notice": "Function can only be called by the contract owner.This was neccissary to ensure that the user data wasa valid response to the survey. "
      }
    },
    "version": 1
  },
  "storageLayout": {
    "storage": [
      {
        "astId": 65,
        "contract": "contracts/Surpay.sol:Surpay",
        "label": "i_owner",
        "offset": 0,
        "slot": "0",
        "type": "t_address"
      },
      {
        "astId": 70,
        "contract": "contracts/Surpay.sol:Surpay",
        "label": "s_surveys",
        "offset": 0,
        "slot": "1",
        "type": "t_mapping(t_string_memory_ptr,t_struct(Survey)58_storage)"
      },
      {
        "astId": 73,
        "contract": "contracts/Surpay.sol:Surpay",
        "label": "s_completedSurveys",
        "offset": 0,
        "slot": "2",
        "type": "t_array(t_string_storage)dyn_storage"
      },
      {
        "astId": 77,
        "contract": "contracts/Surpay.sol:Surpay",
        "label": "s_feeHolder",
        "offset": 0,
        "slot": "3",
        "type": "t_uint256"
      }
    ],
    "types": {
      "t_address": {
        "encoding": "inplace",
        "label": "address",
        "numberOfBytes": "20"
      },
      "t_address_payable": {
        "encoding": "inplace",
        "label": "address payable",
        "numberOfBytes": "20"
      },
      "t_array(t_address_payable)dyn_storage": {
        "base": "t_address_payable",
        "encoding": "dynamic_array",
        "label": "address payable[]",
        "numberOfBytes": "32"
      },
      "t_array(t_string_storage)dyn_storage": {
        "base": "t_string_storage",
        "encoding": "dynamic_array",
        "label": "string[]",
        "numberOfBytes": "32"
      },
      "t_enum(SurveyState)62": {
        "encoding": "inplace",
        "label": "enum Surpay.SurveyState",
        "numberOfBytes": "1"
      },
      "t_mapping(t_string_memory_ptr,t_struct(Survey)58_storage)": {
        "encoding": "mapping",
        "key": "t_string_memory_ptr",
        "label": "mapping(string => struct Surpay.Survey)",
        "numberOfBytes": "32",
        "value": "t_struct(Survey)58_storage"
      },
      "t_string_memory_ptr": {
        "encoding": "bytes",
        "label": "string",
        "numberOfBytes": "32"
      },
      "t_string_storage": {
        "encoding": "bytes",
        "label": "string",
        "numberOfBytes": "32"
      },
      "t_struct(Survey)58_storage": {
        "encoding": "inplace",
        "label": "struct Surpay.Survey",
        "members": [
          {
            "astId": 41,
            "contract": "contracts/Surpay.sol:Surpay",
            "label": "companyId",
            "offset": 0,
            "slot": "0",
            "type": "t_string_storage"
          },
          {
            "astId": 43,
            "contract": "contracts/Surpay.sol:Surpay",
            "label": "companyAddress",
            "offset": 0,
            "slot": "1",
            "type": "t_address"
          },
          {
            "astId": 45,
            "contract": "contracts/Surpay.sol:Surpay",
            "label": "totalPayoutAmount",
            "offset": 0,
            "slot": "2",
            "type": "t_uint256"
          },
          {
            "astId": 47,
            "contract": "contracts/Surpay.sol:Surpay",
            "label": "numOfParticipantsDesired",
            "offset": 0,
            "slot": "3",
            "type": "t_uint256"
          },
          {
            "astId": 49,
            "contract": "contracts/Surpay.sol:Surpay",
            "label": "numOfParticipantsFulfilled",
            "offset": 0,
            "slot": "4",
            "type": "t_uint256"
          },
          {
            "astId": 52,
            "contract": "contracts/Surpay.sol:Surpay",
            "label": "surveyTakers",
            "offset": 0,
            "slot": "5",
            "type": "t_array(t_address_payable)dyn_storage"
          },
          {
            "astId": 54,
            "contract": "contracts/Surpay.sol:Surpay",
            "label": "startTimeStamp",
            "offset": 0,
            "slot": "6",
            "type": "t_uint256"
          },
          {
            "astId": 57,
            "contract": "contracts/Surpay.sol:Surpay",
            "label": "surveyState",
            "offset": 0,
            "slot": "7",
            "type": "t_enum(SurveyState)62"
          }
        ],
        "numberOfBytes": "256"
      },
      "t_uint256": {
        "encoding": "inplace",
        "label": "uint256",
        "numberOfBytes": "32"
      }
    }
  }
}